:020000040807EB
:1000000080E8002061D207085D521A0017CE070869
:1000100059D407085DD4070861D407080000000020
:1000200000000000000000000000000065D4070888
:1000300069D40708000000006DD4070871D40708D0
:1000400075D4070879D407087DD4070881D4070838
:1000500085D4070889D407088DD4070891D40708E8
:1000600095D4070899D407089DD40708A1D4070898
:10007000A5D40708A9D40708ADD40708B1D4070848
:10008000B5D40708B9D40708BDD40708C1D40708F8
:10009000C5D40708C9D40708CDD40708D1D40708A8
:1000A000D5D40708D9D40708DDD40708E1D4070858
:1000B000E5D40708E9D40708EDD40708F1D4070808
:1000C000F5D40708F9D40708FDD4070801D50708B7
:1000D00005D5070809D507080DD5070811D5070864
:1000E00015D5070819D507081DD5070821D5070814
:1000F00025D5070829D507082DD5070831D50708C4
:1001000035D5070839D507083DD5070841D5070873
:1001100045D5070849D507084DD5070851D5070823
:1001200055D5070859D507085DD5070861D50708D3
:100130002DE9F04186B0F02000904FF4A07300222A
:10014000002102A80AF018FB0246DFF8484CDFF84D
:10015000480C01901F2000904FF6FF736BA12046C2
:1001600009F091FADFF8345C2A46DFF8341C2046A7
:100170000DF00AF904F2901700F037F8DFF8246C5C
:1001800000F038F8DFF83C7D07F2980800F023F81B
:1001900000F026F807F2401800F01DF800F020F8F3
:1001A00004F2382800F017F800F01AF807F2E81700
:1001B00000F01BF800F01EF804F2E02700F015F83C
:1001C00000F018F804F2883700F00FF800F012F889
:1001D00006B0BDE8F08104F1240140460CF074BD86
:1001E0002A46314640460DF0CFB804F12401384686
:1001F0000CF06ABD2A46314638460DF0C5B838B510
:100200001446DFF8902B02EB811505F2481100919E
:1002100005F5A37305F244122146DFF8344DD4F8F6
:100220008040A469A047B5F8460106214843A5F8D7
:10023000460131BD10B582B00B461146DFF8542B94
:1002400002EB831202F24413B3F904400094B3F9B1
:100250000230062493FBF4F31BB2B2F84421DFF81A
:10026000F04CD4F880406469A04713BD2DE9704676
:1002700081460D460026DFF81C4BDFF848ACDFF85E
:10028000580D3018017A46290AD000F01CF810F1F8
:10029000010F05D004F2101101EB851121F81600B1
:1002A000761C202EEBDB042100F00DF80AEBC501D3
:1002B000C86114EB8510B0F84A21D2B229464846ED
:1002C000BDE870469BE74846DAF880201268104780
:1002D00070B50446DFF8785C0021D5F880201268FC
:1002E00090470646002200F013F800212046FFF751
:1002F000BDFF012200F00CF830B101212046FFF7CC
:10030000B5FFF2B200F004F870BD0000000000007C
:1003100000212046D5F880309B6818472DE9F04F22
:1003200085B080460026DFF89C5BDFF8AC0C375CBC
:100330003818017A00F062FA00F059FA01EB47012F
:10034000A1F81001761C052EEFDB00F056FA297E8D
:1003500005EBC10210620C2000FB01500078002860
:100360003BD1082100F04AFA00F041FAA1F824013B
:100370000C2100F043FA297E00F0B6FFB0800C207B
:1003800000FB0150C078012821D1B7F9240128B918
:10039000B6F9041011B930855A2017E000F09DFF1E
:1003A0000BF092FE0CF044F900F092FF0446B7F90E
:1003B00024010CF023FA21460AF0E1FD00F078FD5B
:1003C0000CF0C8F800F078FD0CF048F87085A86DC6
:1003D00000F0FCF9286E00F0F9F9012100F00EFAA6
:1003E00086B2070CDFF81C4CE06818B305F29809D8
:1003F0006EB167B900F00DFA484609F0EBFBE16811
:10040000884214D00021484609F0F0FB0FE048462E
:1004100009F0E0FBE168884204BF484609F0A7FB09
:10042000E06800F0CEF905D0428301F0C4FEE06838
:1004300000F09FFB00F021FBC0B2049000F02AFB0B
:10044000012100F0DBF98146022100F0D7F9C0B2AA
:1004500003901FFA89F001904FEA1949606C05F288
:10046000401AD8B1019931B1B9F1000F03D100F0B0
:10047000D0F9606C10E000F0A1F9616C884204BF13
:10048000504609F074FB606C00F09BF906D0428383
:1004900001F091FE606C012180F82010206CE8B121
:1004A000019911B9B9F1000F11D000F087F9216C51
:1004B000884204BF504609F05AFB206C00F081F9D5
:1004C0000CD0428301F077FE206C012104E0418BC7
:1004D00021B100F09EF9206C80F8201000F0D3FAD2
:1004E000012100F08BF98346022100F087F9C0B2A8
:1004F00002901FFA8BF000904FEA1B4BE06CD8B1D2
:10050000009931B1BBF1000F03D100F082F9E06C2A
:1005100010E000F053F9E16C884204BF504609F046
:1005200026FBE06C00F04DF906D0428301F043FE5B
:10053000E06C012180F82010A06CE8B1009911B99D
:10054000BBF1000F11D000F039F9A16C884204BF53
:10055000504609F00CFBA06C00F033F90CD042833C
:1005600001F029FEA06C012104E0418B21B100F0D3
:1005700050F9A06C80F82010049A00F085FA0198D8
:1005800038B9B9F1000F04D1009810B9BBF1000FD0
:1005900030D000F00DF909D002282BD00121DFF86E
:1005A000F40709F0EEF900F003F923D1E86A698B4A
:1005B0002A7E3AB9009A12B9BBF1000F14D099B94A
:1005C000012107E0012A0FD1019A12B9B9F1000FF8
:1005D0000AD049B90CF0D4FB0021002000F014FD32
:1005E000E86A002180F82310688B00280CBF1E20C9
:1005F000401E6883206D10B3039909B9029929B18F
:100600000399062908D10299062905D1418BB1B178
:1006100000F0FFF8206D10E000F0D0F8216D884266
:1006200004BF504609F0A3FA206D00F0CAF806D0C6
:10063000428301F0C0FD206D012180F82010287E4A
:100640000C2101FB005000214171710644BF0221C1
:100650004171790644BF0121417100218171F10688
:1006600044BF02218171F90644BF0121817100213B
:10067000C171B10644BF0221C171B90644BF012155
:10068000C17100210172F10744BF02210172F90713
:1006900044BF01210172310644BF022101723906B3
:1006A00044BF0121017200214172710744BF022140
:1006B0004172790744BF0121417200218172B10763
:1006C00044BF02218172B90744BF01218172002118
:1006D000C172310744BF0221C172390744BF0121F1
:1006E000C172E16800292ED0407900F05BF8A96B57
:1006F00000F071F8807900F055F8E96B00F06BF8C4
:10070000C07900F04FF8296C00F065F8007A00F02D
:1007100049F8696C00F05FF8407A00F043F8A96C82
:1007200000F059F8807A00F03DF8E96C00F053F8D9
:10073000C07A00F037F8296D4A8B824203D0488393
:10074000012081F82000286B00F040F8686B00F071
:100750003DF8286F00F03AF8686D00F037F8E86D62
:1007600000F034F8686E00F031F8002100F046F82F
:100770000646002200F047F800F03FF82862012208
:1007800000F041F828B100F038F8A862F2B200F0A9
:100790003AF8A06900F01AF8206B00F017F805B0DD
:1007A000BDE8F08FDFF8301801EB4000808D704716
:1007B000DFF8E005B0F8000101287047504609F065
:1007C00009BA418B4CF218629142704710B1012175
:1007D00080F8201070474A8B824203D04883012062
:1007E00081F82000287E0C2101FB00507047297EF3
:1007F000DFF8A02502EB811170471E214046D5F895
:1008000080201268104700214046D5F880309B6850
:10081000184700214183012180F822107047DFF83A
:100820003017C1F88000704700210A46511CC9B238
:10083000125C002AF9D1084670472DE9F0410546BF
:100840001746DFF88066F567DFF8104C6160DFF867
:1008500044853946404609F004F9276008F29011B2
:1008600000F090F806F1980100F08CF806F24011C3
:1008700000F088F808F2382100F084F806F2E81158
:1008800000F080F808F2E02100F07CF808F28831EE
:1008900000F078F800203076002100F06EF8C7B242
:1008A00000221146F06FD6F880309B68984708F216
:1008B000492400F061F8C0B2012804D10020307052
:1008C0000120207405E0012030700020207488F899
:1008D0004902002070700120B0700020F07070603C
:1008E000B060012200F051F800F046F8C0B20128D3
:1008F0000CBF0020012030733A4600F046F800207B
:1009000070730120B0730020F0733061706128466D
:10091000FFF7DEFCDFF8280DC8F80C010021404687
:1009200009F02FF82846D6F880100969884708F2A0
:10093000F121020F092A03D0C0F30363092B02D16E
:1009400001230B7403E000230B7488F8F13208F2E2
:1009500099310A2A03D0C0F303600A2802D101208A
:10096000087403E00020087488F89903002102202D
:10097000BDE8F0410BF0B0B90321F06FD6F880204C
:1009800012681047404608F0D8BF0021F06FD6F833
:1009900080309B68184710B50024DFF8B415D1F8F3
:1009A000801009698847010FC0F303626AB90929F9
:1009B00008BF01242FD00A2908BF02242BD0012907
:1009C00001D0022927D1032425E0092902D10A2ACE
:1009D00007D103E00A2908D1092A06D106240929EA
:1009E00003D1022A07D0012A05D0092A04D10229FD
:1009F00001D0012900D104240A2903D1022A09D0F7
:100A0000012A07D0C0F303600A2804D1022901D0CB
:100A1000012900D10524204610BD70B5DD4C2046CB
:100A200009F025F804F204100AF016FDDFF8144C62
:100A300002200BF098F9A0B9208890B9DFF8285D62
:100A400000F01BF8064600F025F800F010F800F062
:100A50001AF800F00CF8F2B200F016F8042020802A
:100A600001E0208810B12088401E208070BD022146
:100A7000E86FD5F88020D26810470021E86FD5F8DC
:100A800080201268104701220021E86FD5F88030DD
:100A90009B68184700220021E86FD5F880309B68DA
:100AA000184710B5DFF81C34806A1A7EB94C04EB85
:100AB000821202F21012801AC005DFF81C2512EB18
:100AC0001060007A462806D00A460146D86FD3F84F
:100AD00080309B68984710BD38B50C46FFF7E1FFA2
:100AE00000F024F860B100F029F8A0F83241DFF8F6
:100AF0007C5C2146A86B06F09AFFA86B00F039F8E1
:100B000031BD38B50C46FFF7CCFF00F00FF860B1EF
:100B100000F014F8A0F83441DFF8505C2146E86B8F
:100B200006F085FFE86B00F024F831BDDFF8380CE3
:100B3000017E0C2202FB010000797047DFF8300CC7
:100B400000EB8110704738B50C46FFF7AAFFFFF79E
:100B5000EDFF68B1DFF8145C686C48B1FFF748FE40
:100B6000A1F83641214606F062FF686C00F001F8FA
:100B700031BD012180F8201070472DE9FF4700F0BA
:100B8000DBF8D4F88070E66F0C2202FB0040C078DE
:100B900010B1012808D043E0B5F90420B1F92411BF
:100BA00030463B6A98473BE0B5F92A000BF03EFE21
:100BB00000F0CBF802F0A1FC02F09AFC00F0CDF8B6
:100BC00000F09EF802F008FD0BF048FC05B202F0C0
:100BD00085FC0BF043FC2A4601B230463B6A98473D
:100BE00000F094F800F09BF800F0AFF802F085FCFC
:100BF000002209F039FB00F07FF80BF02FFC00F029
:100C000011F800F092F802F06FFC02F076FC3A4620
:100C100009F02AFB224600F070F80BF01FFCB080B0
:100C2000BDE8FF87A4F82401B6F928000BF0FEBD4B
:100C30002DE9FF4700F080F80C225043D4F8806083
:100C4000E76F0219D27812B1012A17D052E0005D85
:100C500060B938463169884780064BD5207E0AEB5B
:100C60008010B0F9282100F0DFF843E0B5F9042046
:100C7000B1F924113846336A98473BE0B5F92A00A8
:100C80000BF0D4FD02F030FC02F037FC02F030FC37
:100C900000F063F800F034F802F09EFC0BF0DEFB8D
:100CA00005B202F01BFC0BF0D9FB2A4601B2384614
:100CB000336A984700F02AF800F031F800F045F860
:100CC00002F01BFC002209F0CFFA00F015F80BF03F
:100CD000C5FBFFF7A7FF00F028F802F005FC02F0C3
:100CE0000CFC3A4609F0C0FA224600F006F80BF078
:100CF000B5FBB080BDE8FF873A462B4609F016BF2A
:100D0000CDE90001B5F928000BF090BD207E0AEB7B
:100D1000801404F22416B6F928000BF087BD0746AC
:100D20000D46B6F92A000BF081BD04460D46012799
:100D3000B6F92A000BF07ABD624C207EDFF830AAAB
:100D40000AEB801101F22415704702460B46DFF8CA
:100D50002C0ADFF82C1A09F0E9BECDE902010022C5
:100D60004046494609F080BA2DE9F04102F04DFBBA
:100D700000F01AF8DFF8F87907F22416B6F9042023
:100D8000B7F9241100F089F8B6F90480B7F9247195
:100D900064E0000098E9002080E9002058F100207C
:100DA00095D5070893D50708054600220021E06F76
:100DB000D4F880309B6818472DE9F04102F025FBFC
:100DC000C5B2FFF7F2FF00F0BDF807F22416217854
:100DD00031B919698847800608D500F023F805E085
:100DE000B6F90420B7F924111B6A9847B6F90480B4
:100DF000B7F9247100F056F80BF066F90BF018FC07
:100E000000F062F800F064F841460AF0B8F800F02B
:100E10004FF80BF09FFB00F04FF80BF01FFB7085B5
:100E20002A4632E0B6F904204121E06FD4F8803040
:100E30009B6818472DE9F04102F0E7FA02F04CFCFC
:100E4000DFF82C7907F26416B6F90420B7F96411BB
:100E500000F023F8B6F90480B7F9647100F022F8C5
:100E60000BF032F90BF0E4FB00F02EF800F030F854
:100E700041460AF084F800F01BF80BF06BFB00F021
:100E80001BF80BF0EBFA7085EAB20021E06FD4F8A2
:100E900080309B68BDE8F0411847E06FD4F880309F
:100EA0001B6A184708FB08F007FB07000BF0A6BCFD
:100EB000DFF8EC1C0AF01ABDDFF8C028DFF8E43CCC
:100EC00009F036BBC8ED0020308540460BF096BCDB
:100ED000804638460BF092BC2DE9F04102F095FABD
:100EE000C5B202F0FAFB00F02DF807F26416217B80
:100EF00031B919698847800608D5FFF793FF05E0E7
:100F0000B6F90420B7F964111B6A9847B6F9048052
:100F1000B7F96471FFF7C6FF0BF0D6F80BF088FB4A
:100F2000FFF7D2FFFFF7D4FF41460AF028F8FFF79A
:100F3000BFFF0BF00FFBFFF7BFFF0BF08FFA7085C1
:100F40002A46A2E7D4F88030E06FDFF824787047B3
:100F5000C8ED002080B5DFF81038187EDFF81028C3
:100F600002EB8012A2F84A11B2F84A21D2B201462D
:100F7000D86FFFF744F9DFF8340CC16E012281F815
:100F80002020016F81F82020406F80F8202001BDD3
:100F9000DFF8D437187EDFF8D82702EB8012A2F8EA
:100FA000441108E0DFF8C037187EDFF8C42702EBF1
:100FB0008012A2F84611B2F84A21D2B20146D86F87
:100FC000FFF738B9DFF8A037187EDFF8A42702EB67
:100FD0008012A2F84811EEE7AC9C070810B5DFF8C4
:100FE000880700F28404007E421CDFF8C41B204600
:100FF0000BF0ECFB2146DFF87807BDE8104008F065
:1010000033BD000058F0002070B5DFF85C47E06A9F
:10101000058E2A4602F062FB00285ED02576E9B2F2
:10102000E06FFFF723F9DFF84867B6F800113046A4
:1010300008F0A7FC0421B6F8000106EB8000D0F808
:10104000E00008F0D3FDE06A002180F8211090F85C
:10105000221011B1012180F82110E06A012180F8ED
:101060002310E06A80F8201006F24920217E0C222D
:1010700002FB01410978012902BF0021017486F8B1
:1010800049121CBF0121017401F0DDFA06F2F121C1
:10109000020F092A03D0C0F30363092B02D10123F5
:1010A0000B7403E000230B7486F8F13206F29931D9
:1010B0000A2A03D0C0F303600A2802D10120087471
:1010C00003E00020087486F89903E448406800288B
:1010D00007D02A46002102F031BB217EE06A0BF0E6
:1010E0004FFE70BD2DE9F843DFF88076386A47F689
:1010F000FF74DFF87C86DFF8C49A0C25DFF8686699
:10110000317E05FB0161C97811B101292ED053E070
:1011100009F1500106F0FFF809F15801786A06F06C
:10112000FAF8307E08EB801000F2241000F052F83C
:1011300000F2281000F048F848F201018186C486C8
:10114000306E8186C486307E05FB0060007858B919
:10115000F06FD6F88010096988478006306E28D471
:10116000002100F03EFD27E0306E22E009F1600131
:1011700006F0D1F809F16801786A06F0CCF8307E03
:1011800008EB801000F24C1000F024F800F24E1032
:1011900000F01AF800218186C486306E818640F204
:1011A0006711C186306E317E05FB01610978002927
:1011B000D7D0012180F82210B06DFFF7DAFC306E35
:1011C00080F82010BDE8F183316E81F83320886209
:1011D000B06D7047B16D042281F833208862307E93
:1011E00008EB801070472DE9F84FDFF87C05017E91
:1011F00000F07AF8DFF88445DFF884A50C2202FBC2
:101200000100C07810B101283CD05FE00025DFF874
:10121000B0B9FFF709FD8046894600220092B6F971
:101220002A000BF003FB2246534609F07FFC2A46B6
:101230005B4609F07DF9009A09F016F842464B46E4
:1012400009F074FC0BF00AF9A7F82401FFF7ECFC95
:10125000804689460127B6F92A000BF0E7FA2246B4
:10126000534609F063FC2A465B4609F061F93A46A9
:1012700008F0FAFF42464B4609F058FC0BF0EEF836
:10128000B08023E0B7F9240128B9B6F9041011B9E8
:1012900030855A2019E000F020F80AF015FF0BF015
:1012A000C7F900F015F80546B7F924010BF0A6FAC6
:1012B000294609F064FEFFF7FBFD0BF04BF92246CF
:1012C000534609F035F90BF0C9F87085BDE8F18F88
:1012D0003085B6F904000BF091BAB6F90410494311
:1012E00000FB00100BF08ABADFF8842402EB8117B0
:1012F00007F22416704780B5DFF86C04017E0C22DB
:1013000002FB0100DFF8BC18C96C098EC170FFF741
:101310006AFFBDE80140E5E638B5DFF84C14087E09
:101320000C224243DFF884080068008E5054D1F844
:101330008030C86FDFF8384404F24925515C012938
:1013400002BF0021297484F849121CBF01212974AD
:101350000A46032102F054B8F8B5DFF80C44217EA8
:101360000C2202FB0142E16FDFF840385F683B4D21
:10137000DFF8646DB8420AD197F8307057700846AC
:10138000FFF709FB56F820003A5C00210AE0986854
:1013900090F8307097700846FFF7FDFA56F8200075
:1013A0003A5C01216868D4F88030DB6901B0BDE89F
:1013B000F0401847F8B5C9B2DFF8AC63307E0C22B4
:1013C00002FB006001714D1EAD41ED0FDFF89C4343
:1013D000A06B80F8225004BF002280F82120E06B2F
:1013E00080F8225015B9002280F8212019B3DFF8C7
:1013F000847D307E07EB801000F22C11B0F82C01B8
:10140000C8804888088188884881B1F90610A06B97
:1014100006F022FB307E07EB8010B0F93411E06B50
:1014200006F01AFB606C30B1317E07EB8111B1F927
:10143000361106F011FBA06BFFF79BFBE06B80F809
:101440002010606C40B180F8225015B9002180F85E
:101450002110606CFFF78DFBF1BD00003CF1002016
:1014600010B50C4600F07DF8062C20D8DFE804F01B
:10147000040E1114171A1D0000F0E6F8DFF8F80C3E
:1014800004682046FFF7D0F90119B4E500F07AF9B5
:10149000F4E700F0C7FBF1E700F094FE07E001F08D
:1014A000EDF804E001F0BEFB01E001F0BBFDBDE89A
:1014B000104093E570B584B001F083F80600DFF8C2
:1014C000FC560BD014200090A023DFF8102C05F15F
:1014D000700101F0B5F800F03CF800E00026A24CE5
:1014E000A66601F06EF838B10F2100910523A26EB7
:1014F00005F1780105F0D7FEE06600F0F8FD58B17F
:1015000001F01DFBA16E009106239AA2217E04EB3F
:10151000C101203105F0EAFE206700F0EBFD38B193
:10152000412100910523A26E05F1880105F0A9FE75
:10153000606701F046F830B11E2100913C23A26E95
:101540008DA105F0B0FEA067606FDFF8301C41622E
:101550007FBDDFF82C0C30605A229121304609F013
:10156000C3B938B5824D05F2901008F0E9FA7E4C07
:1015700004F1980008F0E4FA04F2401008F0E0FAF0
:1015800005F2382008F0DCFA04F2E81008F0D8FA86
:1015900005F2E02008F0D4FA05F2883008F0D0FA1D
:1015A0000020E062DFF804060021016041608160F4
:1015B00021636163A163E16321646164A164E16407
:1015C0002165C160016141618161C1610162416266
:1015D0008162C162016341638163C16301644164EB
:1015E0008164C164016541658165DFF8D815002219
:1015F0000A604A608A60CA600A614A6162658A61FB
:10160000CA610A62A265E2654A62226662668A620D
:10161000CA620A634A638A63CA630A644A648A6460
:10162000CA64C265026642668266C2660267426733
:101630008267C267A266E26622676267A26731BDFF
:101640006114070874F100202DE9FE4F00F0B9FF86
:10165000DFF81C8108F29015DFF8286B28B1032110
:1016600000F099FD314605F01EFE019000F0A9FF43
:1016700040B11E2100F08FFD06F10C0105F013FEB4
:10168000074600E0002700F09CFF40B13C2100F03D
:1016900082FD06F1340105F006FE044600E0002458
:1016A00000F08FFF40B14B2100F075FD06F15801AD
:1016B00005F0F9FD814601E04FF0000900F081FFDF
:1016C00040B15A2100F067FD06F17C0105F0EBFD09
:1016D000824601E04FF0000A00F073FF40B1B421F0
:1016E00000F059FD06F1A00105F0DDFD834601E0A3
:1016F0004FF0000B00F065FF40B1732100F04BFD8F
:1017000006F1C00105F0CFFD064600E0002608F214
:101710009018019900F044FD394600F041FD214642
:1017200000F03EFD494600F03BFD00F038FD594613
:1017300000F036FD00F037FD00F043FF68B1962160
:101740000291F721019100952C234822DFF8381AE5
:10175000096805F0B1FD014600E00021404603B0F4
:10176000BDE8F04F08F0E0B9C8ED0020D8F0002047
:1017700098E900202536640072706D001F85EB51DA
:10178000B81E09402DE9F04F87B0DFF8E889002046
:1017900088F8B10188F8A10100F013FFDFF8EC59D7
:1017A00005F298010391DFF814A438B100F054FF5A
:1017B0000AF1940105F077FD834601E04FF0000B3C
:1017C00000F0FFFE38B101F0DEF90AF1AC0105F0DE
:1017D0006AFD044600E0002401F09BF930B12121AC
:1017E00001F0D2F90AF2BC210AF0D6FF00F0E8FEBF
:1017F00048B1142100916423039A0AF1B40105F061
:1018000052FD814601E04FF0000901F082F938B144
:10181000212100916423039A0AF2C8210AF0BCFF37
:10182000E24E306000F0CDFE07467FB1352000F07B
:1018300021FF0AF1C00101F0EDF9DFF84409386039
:101840003C229B2101F0E3F9049700E0049000F0B2
:10185000B8FE38B1112100910F23049A0AF1D40186
:1018600005F021FD069000F0ACFE38B12521009175
:101870000F23049A0AF1E00105F015FD01F048F983
:10188000C9A730B10F2100F0B1F901F2101105F034
:101890001BFD286301F03DF930B1232100F0A6F9CA
:1018A00001F5897105F010FD686300F08AFE5FEABA
:1018B000000812D014200090CD23039A0AF1EC0105
:1018C000404605F0F2FCDFF8B808C8F80000AA228C
:1018D0006421404609F008F801E04FF0000800F0EC
:1018E00070FE30B10F2100F08CF90AF1F40105F01F
:1018F000DAFCA86300F065FE30B1212100F081F927
:101900000AF2001105F0CFFCE86300F05AFE30B196
:10191000332100F076F90AF20C1105F0C4FC2864BA
:1019200000F04FFE30B1452100F06BF90AF21811BA
:1019300005F0B9FC686400F044FE30B1572100F0B6
:1019400060F90AF2241105F0AEFCA86400F039FE3B
:1019500030B1692100F055F90AF2301105F0A3FC0D
:10196000E86400F02EFE30B17B2100F04AF90AF263
:101970003C1105F098FC286500F0BCFB38B18D21C6
:1019800000910A2342460AF2481105F07AFCF06001
:10199000DFF8281C00F00BFC05F29807F16800F056
:1019A0003EF9594600F03BF900F038F9214600F0C5
:1019B00036F9E96A00F033F9297EE86A0BF0E0F9BC
:1019C000E86ADFF8201C4162316800F028F94FF026
:1019D0000C0B00F0FDF8017830680BF0D1F900F045
:1019E000FBF8C00666D500F0ECFD044684B100F0BB
:1019F00040FE0AF25411204605F057FCDFF880073C
:101A000020603C22BE21204608F06EFF019400E0D9
:101A1000019000F0D6FD40B1112100910523019AFB
:101A200064A105F040FC044600E0002400F0C9FD7C
:101A300040B1252100910523019A5FA105F033FCF7
:101A4000814601E04FF0000901F063F8029028B1EF
:101A5000E86FFEF7A0FF0F2100F0D7F8706001F0EB
:101A600058F8029028B1E86FFEF795FF232100F0A7
:101A7000CCF8B060019900F0D2F8214600F0CFF820
:101A800000F0CCF8716800F0CAF8B16800F0C7F84F
:101A900000F09EF8417870680BF072F900F098F849
:101AA0008178B0680BF06CF9DFF83C0B7168486224
:101AB000B1684862049900F0B2F8069900F0AFF8F6
:101AC000059900F0ACF8296B00F0A9F8696B00F0FB
:101AD000A6F8286B00F06FFB686B00F082F800F04E
:101AE0007BF8010F022903D0C0F30360022811D153
:101AF00000F000FB30B1B22101F046F80AF26411A7
:101B000005F0BFFBF067014600F089F8F06FDFF8E1
:101B1000DC1A4162414600F082F8A96B00F07FF8C0
:101B2000E96B00F07CF8296C00F079F8696C00F042
:101B300076F8A96C00F073F8E96C00F070F8296D84
:101B400000F06DF800F044F8417900F03DF8AA6B20
:101B50005183817900F038F8EA6B5183C17900F044
:101B600033F82A6C5183017A00F02EF86A6C5183A5
:101B7000417A00F029F8AA6C5183817A00F024F8A8
:101B8000EA6C5183C07A0AEB4000808D296D48834E
:101B90003068DFF8601A4162384601F0E9B90000A8
:101BA00000003443B81E09402533640058F000207B
:101BB000ACD107084368310043683200AC9C070889
:101BC00000806640D8F000200AEB4101898D704703
:101BD000287E0BFB00507047E86FD5F8801009692C
:101BE000084780F8221080F82110704702916E217A
:101BF00001910499009103233A46297E08EB811153
:101C00007047009105234246704700912123019AB5
:101C10000AEB8000416B02980AF0BEBD4946384687
:101C200007F082BF2DE9F04F8DB000F0CAFCDFF85D
:101C30005C4504F24011039128B100F00DFDDFF87E
:101C4000C01905F030FB0B9000F0BBFC050010D074
:101C5000142000F00FFDDFF8AC19284605F025FB35
:101C6000DFF81C0528605A229121284608F03CFE26
:101C700000E00025DFF890090A90DFF8900909904C
:101C8000DFF88C09089004F24018DFF88809079003
:101C9000DFF884790FF2DC29207800286FD100F07A
:101CA00090FC30B100F076FA089905F0FCFA06468F
:101CB00000E0002600F01BFA28B100F036FA04F12B
:101CC0001C0105F013FB386101F0A0FB8246FFF711
:101CD0006CF83F2101F084F901F080F9396900F0D6
:101CE000FFF901F0FBFC00F002FA08B100F030FA55
:101CF000B86100F066FC18B101F04FFB824601E0CC
:101D00004FF0000A00F05DFC38B1322100F043FAD8
:101D1000099905F0C8FA834601E04FF0000B00F086
:101D2000F8FE28B100F0F1F9DFF8F01805F0CCFA70
:101D3000F86100F096FC30B1412100913C232A4625
:101D40000A9905F09EFA786200F02DFA396900F0E0
:101D500027FAB96900F024FA00F021FA594600F098
:101D60001FFAF96900F01CFA796A00F019FAB869EB
:101D700000F021FA786ADFF8A818416253E000F019
:101D800020FC30B100F006FA079905F08CFA0646FF
:101D900000E0002600F0BDFE28B100F0C6F9DFF833
:101DA000841805F091FA7861DFF87C1800F09EF94C
:101DB00008B100F0CDF9B86100F003FC18B101F0F2
:101DC000ECFA824601E04FF0000A00F0FAFB40B165
:101DD000322100F0E0F9DFF8541805F064FA834688
:101DE00001E04FF0000B00F094FE28B100F08DF9F7
:101DF000DFF83C1805F068FA3862DFF838184162FD
:101E000000F0D1F9796900F0CBF9B96900F0C8F9AF
:101E100000F0C5F9594600F0C3F9396A00F0C0F97D
:101E2000B86900F0C8F900F065F9DFF80C18069100
:101E300030B1782100912823039A069905F021FA00
:101E4000386400F057F9DFF8F417059130B18C21B0
:101E500000912823039A059905F013FA7864DFF8B6
:101E6000901C00F0A4F9396C00F09AF9796C00F03C
:101E700097F900F0A6FB06464EB114200090A0236F
:101E8000039ADFF8881C00F0DBFBFFF762FB207B86
:101E9000002871D100F095FB20B101F0A6F8089957
:101EA00005F001FA049000F022F928B100F035F9AC
:101EB00004F1240105F01AFAB86201F0A7FA82468B
:101EC00001F00BFC3F2101F08BF801F087F8B96AB3
:101ED00000F006F901F002FC00F009F908B100F089
:101EE0002CF9386300F06DFB18B100F03CF9824624
:101EF00001E04FF0000A00F064FB38B1322101F03C
:101F000075F8099905F0CFF9834601E04FF0000B11
:101F100000F0FFFD28B100F0F0F8DFF8901C05F0AC
:101F2000D3F9786300F09DFB30B1412100913C234F
:101F300032460A9905F0A5F9F863049900F030F9E2
:101F4000B96A00F02DF9396B00F02AF900F027F991
:101F5000594600F025F9796B00F022F9F96B00F091
:101F60001FF9386B00F027F9F86BDFF8441C416269
:101F700054E000BF2536640000F023FB20B101F0DF
:101F800034F8079905F08FF901F024F828B100F032
:101F9000C4F8DFF8201C05F097F9F862DFF8181C88
:101FA00000F0A4F808B100F0C8F8386300F009FBAD
:101FB00018B100F0D8F8824601E04FF0000A00F0B6
:101FC00000FB40B1322101F011F8DFF8601605F096
:101FD0006AF9834601E04FF0000B00F09AFD28B14A
:101FE00000F08BF8DFF8D81B05F06EF9B863DFF866
:101FF000D41B4162049900F0D3F8F96A00F0D0F8DC
:10200000396B00F0CDF800F0CAF8594600F0C8F876
:10201000B96B00F0C5F8386B00F0CDF800F06AF845
:1020200030B178210091BE23039A069905F029F971
:10203000B86400F05FF830B18C210091BE23039AA0
:10204000059905F01EF9F864DFF87C1B00F0AFF885
:1020500000F050F838B1A02100914423039ADFF832
:102060006C1B05F00EF938650B9900F099F82946BC
:1020700000F096F800F097F8B96C00F091F8F96C60
:1020800000F08EF8396D00F08BF82078A0B9207B35
:1020900090B900F02FF838B1B42100914023039A91
:1020A000DFF82C1B05F0EDF87865014600F078F8B4
:1020B000786DDFF8201B4162386DDFF81C1B416230
:1020C000386CDFF8181B4162B86CDFF8141B4162F2
:1020D00040460DB000F04DBF48CD0708BCE90020D8
:1020E0008863C1F83CB05FFA8AF2704741624020D1
:1020F0000AF038BD30200AF035BD4121029105219A
:102100000191009606234A4670474121029105211C
:102110000191009506234A4670471E210291052130
:102120000191009606234A4670471E21029105211F
:102130000191009506234A4670471E2102913C21D9
:102140000191009606234A4604F1280105F0CEB815
:102150001E2102913C210191009506234A4604F17B
:10216000200105F0C3B81E2100917523324608A155
:1021700005F099B898E900203CF1002045340708A3
:1021800070CA070834B7070890E90020C8ED00209E
:1021900072706D000F21009105232A467047514649
:1021A000404607F0C1BC3146404607F0BDBC416225
:1021B0004CF218614183002180F8221080F8211030
:1021C000704700002DE9F04F89B000F0FAF9DFF810
:1021D0001C1A039128B100F03FFADFF8141A05F039
:1021E00062F8079000F0EDF9070009D0142000F024
:1021F00041FADFF8001A00F00DFD00F003FD00E0E9
:10220000002700F0DEF930B11E2100913C233A4650
:10221000B8A105F048F8069000F0D3F930B141219B
:1022200000913C233A46B4A105F03DF8059000F03A
:10223000C8F928B100F08DFCDFF8BC1905F033F8BF
:102240000490FFF754FFDFF8B44930B101F07FF894
:1022500004EBC1011C3105F049F8DFF8BC138865B7
:102260003F2100F0BDFE054600F0B9FEDFF8A813DF
:10227000896D8863CD6300F0A4F940B1322100F08C
:1022800069FCDFF87C1905F00EF8804601E04FF09C
:10229000000800F03EFC58B100F04AFCD0A2217EBC
:1022A000DFF80C5D05EB811101F2141105F00CF85B
:1022B000DFF8D05C286000F0D4F930B14121009102
:1022C0005A233A46D04904F0DCFF6860DFF8E81C86
:1022D0004162FFF7EFF800F074F906464EB100F0E6
:1022E000C8F9DFF8D81C00F0ABF900F009FCFFF7E3
:1022F00035F900F066F918B100F03EFC824601E0C5
:102300004FF0000A00F05DF918B100F02EFC834692
:1023100001E04FF0000B00F0FCFB30B1142100F0A5
:1023200053F901F58B7104F0CFFFA86000F0F1FBC9
:1023300030B1232100F048F901F2181104F0C4FF74
:10234000E860DFF8A898079900F083F9069900F093
:1023500080F9059900F07DF900F07AF9049900F010
:1023600078F9AD48816D00F074F9414600F071F9DB
:10237000296800F06EF9696800F06BF9A16E00F051
:1023800068F9E16E00F065F9216F00F062F9A16F64
:1023900000F05FF900F039FE00F05BF9314600F023
:1023A00058F9514600F055F9594600F052F9A9681C
:1023B00000F04FF9E96800F04CF900F044F98007AB
:1023C0001FD500F0FEF818B100F0C8FB074600E08A
:1023D000002700F09EFB48B100F08CFB062380A292
:1023E00000F09DFB01F58D7104F06EFF286100F097
:1023F0002FF9296900F02DF9286900F000FE00F09E
:10240000BCFDA86800F0FBFDE86800F0F8FD00F0F6
:102410001AF9C00740F1C98000F0D3F807000FD0C7
:10242000732000907D23039ADFF8941B00F0F2FBE9
:10243000DFF8900B38604B22B42100F0E8FB00E09D
:10244000002700F0BEF8DFF8806B40B10E2100914C
:102450000A233A46314604F026FF804601E04FF059
:10246000000800F0AEF838B10E2100F06EFB3146E6
:1024700004F019FF064600E0002600F04AFB0FF2C8
:10248000701A60B1192102910A2101910097042369
:10249000524600F03AFF01F21C1104F015FF68618A
:1024A00000F037FB58B1192100F06FFD00970423AD
:1024B000524600F02AFF01F58F7104F005FF6065B8
:1024C00000F07FF840B12C2100910A233A464AA13E
:1024D00004F0E9FE824601E04FF0000A00F071F8D6
:1024E00060B12C2100F031FB44A104F0DCFE8346F6
:1024F00006E000BF72706D006D7300004FF0000BBE
:1025000000F007FB60B1372102910A210191009789
:10251000062333A200F0F9FE01F2201104F0D4FEEC
:10252000A86100F0F6FA58B1372100F02EFD0097AF
:1025300006232BA200F0E9FE01F5917104F0C4FE20
:10254000E86100F085F8414600F083F8314600F07C
:1025500080F8696900F07DF8616D00F07AF8606DCF
:10256000FFF729FE514600F074F8594600F071F863
:10257000A96900F06EF8E96900F06BF8686900215C
:1025800081864FF47A71C186A96900228A8647F64E
:10259000FF72CA86EA690023938647F6FF73D386E3
:1025A000DFF8903D43624B62536200F0E6FCE8685E
:1025B0004162484609B000F0DCBC0000C7330708A0
:1025C000E86228200AF0CEBA0291282101910096F3
:1025D000062303A2217EDFF8D89909EB8111704709
:1025E000253664000910070859130708373407080F
:1025F00025346400191307084B5000004B490000B4
:10260000249E0708389E0708649E0708509E070806
:10261000409E07086C9E070858F00020ACEA002096
:1026200003350708BCEA0020690D0708049D070868
:10263000C0EA0020B90D0708349D0708F49D07087B
:10264000304604F032BEE06FD4F8801009690847C4
:102650003946484607F068BA002100910023039AE2
:1026600070470021818647F6FF71C18630200AF04D
:1026700079BA732000900A23039A70472DE9F04F2E
:102680008BB0FFF79EFFDFF8744504F2E811049168
:10269000DFF8848C38B100F0ADFC08F26C2104F056
:1026A00002FE834601E04FF0000BFFF78AFF38B1CE
:1026B00087210091E623049A08F2802104F0F3FDBB
:1026C0000A90FFF77EFF070008D000F0A6FC08F292
:1026D000882100F09FFA00F095FA00E00027FFF74C
:1026E00070FF28B100F035FA08F1500104F0DBFD6D
:1026F000DFF89058286200F00CFA0FF2840938B124
:1027000000F01DFA00F008FA01F2241104F0DCFDDB
:10271000A065FFF756FF20B100F016FA19A104F0EA
:10272000C2FD099000F0F5F938B100F009FE00F0A3
:10273000F5F901F5937104F0C7FDE065FFF741FF7E
:1027400030B1322100F006FA08F1580104F0ABFD77
:10275000686200F0DEF938B100F0EAF900F0DEF965
:1027600001F2281104F0B0FD2066FFF72AFF58B1EE
:10277000322100F0EAF9DCA104F095FD824605E083
:1027800025366400497100004FF0000A00F0C1F9DD
:1027900038B100F0F9FB00F0BFF901F5957104F0D4
:1027A00093FD6066FFF70DFF064666B1732000F0EB
:1027B00035FC08F29421FFF743FF00F0A1F9FEF782
:1027C000CDFE039600E00390FFF7FBFE20B100F082
:1027D000DAF9C6A104F067FD089000F09AF930B16B
:1027E000142100F0D5F901F22C1104F06DFDA8625E
:1027F000FFF7E7FE28B1232100F0C6F9CBA104F0D2
:1028000052FD079000F085F930B1232100F0C0F9A6
:1028100001F5977104F058FDFFF7D2FE06465EB150
:10282000732000907823049A08F2A421FFF708FF90
:1028300000F066F9FEF792FEFFF7C3FE08B100F064
:102840009BF9069000F065F930B1142100F057FDB6
:1028500001F5997104F038FDA863FFF7B2FE08B1E5
:1028600000F083F900F054F930B1232100F047FD66
:1028700001F2341104F028FDE863FFF73BFC38B1A6
:1028800073210091E623049A08F2B42104F000FDBC
:10289000A86400F03EF938B196210091E623049A2D
:1028A00008F2D42109F078FFE864FEF703FE04F291
:1028B000E8185946FFF774FC0A99FFF771FC39468E
:1028C000FFF76EFC296AFFF76BFCA16DFFF768FC50
:1028D0000999FFF765FCE16DFFF762FCE06DFFF71A
:1028E0006AFC696AFFF75CFC216EFFF759FCFFF791
:1028F00056FC616EFFF754FC606EFFF75CFCA16E46
:10290000FFF74EFCE16EFFF74BFC216FFFF748FC31
:10291000A16FFFF745FC00F078FBFFF741FC4FF09B
:102920000C0B207E0BFB004007790399FFF738FC66
:102930000899FFF735FCA96AFFF732FC0799FFF702
:102940002FFCE96AFFF72CFCA86ADFF8E81B41625C
:10295000E86ADFF8E41B416247F6FF7AFFF773FE8F
:10296000400725D5FFF72DFE28B1322100F00CF9E4
:1029700092A104F098FC286300F0CBF858B1322102
:102980000291282101910399009100F0BCFC01F211
:10299000301104F099FC6863296BFFF701FC696B47
:1029A000FFF7FEFB686B00F038F9DFF8941B41621B
:1029B000A86A00F032F9E86A8186A0F836A0FFF72D
:1029C000F2FB0699FFF7ECFBA96BFFF7E9FB059912
:1029D000FFF7E6FBE96BFFF7E3FB781E8041C00FD2
:1029E0008DF80C00FFF72FFE000724D5FFF7E9FD57
:1029F00008B100F0B3F8286400F08BF838B100F0AB
:102A000079F800F08AF801F59B7104F05DFC6864C8
:102A1000296CFFF7C5FB696CFFF7C2FB686C00F01F
:102A2000FCF89DF80C1080F8221009B980F82110EC
:102A3000686C00F0A3FAA86B00F0EFF8E86B8186F1
:102A4000A0F836A0A96CFFF7ABFBE96CFFF7A8FB79
:102A5000207E0BFB0040C178E86C0AF091F9FEF78C
:102A600041FBAE6C726A100005D096F8210010B1DF
:102A700039463046904786F82C709DF80C00A96BBB
:102A800081F8220010B9002281F82120E96B81F839
:102A9000220008B981F82100E86CDFF8DC1B4162F4
:102AA000A86CDFF8D81B4162A06DDFF8D41B41622F
:102AB000216EDFF8D02B4A62A96BDFF878284A62D2
:102AC000E96B4A62217E0BFB0141097841B9FFF7AE
:102AD00088F8FFF7B8FD800602D4206EFFF76BFB85
:102AE00040460BB045E200BF496400004B50000077
:102AF000D1330708322102912821019100967047B5
:102B0000DFF8C00430604B22682170477C9E0708C4
:102B1000059038200AF026B8009706234A46217E01
:102B2000DFF88C6406EB8111704700004B49000010
:102B300041210291052101910097062370471E2132
:102B400002910521019170470F21009150233A46CF
:102B500070470F21009105233A46704732210091BA
:102B60000A23324615A104F09EBB232100910A23BB
:102B700032461CA104F097BB142100910A2332466F
:102B800019A104F090BB142100910A23039A704705
:102B90000291282101910399009106234A46217E42
:102BA000DFF80C6406EB811170470000ECEA0020AE
:102BB00019350708FCEA0020350E07084B440000D1
:102BC00000EB0020D90E0708DD330708849E0708B4
:102BD0009C9E07080D370708E93607084D3507089A
:102BE000E93507084B4900004B500000D0EB0020AE
:102BF000B49E0708C89E0708D49E0708C8ED0020A9
:102C0000E49E0708DFF8BC0338605A229121384659
:102C100007F06ABE384604F048BB00218186A0F860
:102C200036A070472DE9F04F87B000F0A1FB0546B4
:102C3000DFF87C8308F2E0200490DFF84C9A280F3C
:102C400009280BD1FFF7BDFC30B100F0D3F949469C
:102C500004F029FB834601E04FF0000BC5F303604D
:102C600009280CD1FFF7ADFC38B100F0C3F909F128
:102C70001C0104F018FB834601E04FF0000B05F047
:102C800040008DF80C0040B1FFF79BFC06467EB17A
:102C900000F0C3F909F1400106E0FFF792FC064697
:102CA00036B100F0BAF9C0A1FFF7CAFCFEF751FC3B
:102CB000FFF787FC20B100F098F9BCA104F0F3FA0B
:102CC0000690FFF726FF40B1FFF739FF009600F0AE
:102CD00064F901F2381104F0F7FADFF8B079F86519
:102CE000FFF76FFC30B10F21009150233246B1A1A4
:102CF00004F0D9FAFFF70CFF48B11E2100F045F9A6
:102D0000009600F04AF901F59D7104F0DDFA38668D
:102D1000FEF7D0FB08F2E02A00F058F9314600F047
:102D200056F9069900F053F9F96D00F050F905993C
:102D300000F04DF9396E00F04AF99DF80C000028BA
:102D400046D0FFF73EFC30B1322100F04FF909F1D7
:102D50004C0104F0A8FA00F0EFFA50B141210291C1
:102D600005210191009600F018F901F2401104F0DC
:102D7000ABFA786600F018FB48B13221009150237D
:102D8000324609F1540104F08EFA834601E04FF017
:102D9000000BFFF7BEFE40B100F0F6F8009600F021
:102DA000FCF801F5A17104F08FFAB86600F027F97C
:102DB000039900F00CF9796E00F009F900F006F9BA
:102DC000B96E00F004F9786E00F0D8F8B86E416280
:102DD000A16E00F0FCF8E16E00F0F9F8216F00F050
:102DE000F6F8A16F00F0F3F800F00FF900F0EFF83B
:102DF000280F092840F0B680FFF7E3FB05000AD052
:102E0000732000F00BF909F15C01284604F04DFA3B
:102E100000F06CFA00E00025FFF7D3FB28B100F0CA
:102E2000B7FA09F16C0104F03EFAFFF771FE30B118
:102E3000142100F0AEF801F2441104F045FAF866EE
:102E400000F0B2FA30B1232100F0A3FA09F17801C1
:102E500004F029FA00F0BEF830B1232100F099F80F
:102E600001F5A37104F030FA3867FFF7AAFB30B11F
:102E7000322100F08EFA09F1800104F014FA00F01A
:102E80005BFA30B1322100F084F801F2481104F00D
:102E90001BFA7867FFF795FB48B114210091B42322
:102EA0002A4609F1880104F0FEF9814601E04FF05D
:102EB0000009FFF72EFE38B100F00EFA00F06FF8AF
:102EC00001F5A57104F000FAB867222100F088F836
:102ED000B96F00F071FA18B100F050FA064600E040
:102EE0000026FFF76EFB30B1232100918C2300F008
:102EF00057FA834601E04FF0000B217E08EB81106A
:102F000000F030FAB86FDFF888174162F86EDFF82A
:102F100084174162386FDFF880174162786FDFF8FD
:102F20007C174162314600F052F800F04FF8294614
:102F300000F04DF8059900F04AF8F96E00F047F8F6
:102F4000049900F044F8396F00F041F8039900F05B
:102F50003EF8796F00F03BF8494600F038F8B96F59
:102F600000F035F8F86D00F009F8386E416250460F
:102F700007B0BDE8F04F06F0FABDA868DFF8B4135B
:102F800041627047D8F00020412102915021019107
:102F9000704702915021019100950623D2A2217E13
:102FA00008EB81117047000053544F004731000077
:102FB00098E900204732000019340708F49E0708FA
:102FC000009F070870CA0708109F07085946504617
:102FD00006F0AABD0490382009F0C4BD8346402104
:102FE000E06FD4F88020126810470F21009105236C
:102FF00032467047002100910023049A7047002157
:10300000818647F6FF71C1867047206F002180F8E6
:10301000221080F82110616F7047142000900A235D
:10302000049A70472DE9F04F85B000F0A1F90746EA
:10303000DFF86C0603903D0F0A2D0CD1FFF7C1FAA3
:1030400038B1FFF709FBDFF85C1604F02CF9814674
:1030500001E04FF00009C7F303600A280CD1FFF725
:10306000B0FA38B1FFF7F8FADFF83C1604F01BF9B4
:10307000814601E04FF00009FFF7A3FA070008D0EE
:103080001420FFF7F7FAB6A1FFF7C4FDFFF7BAFD6A
:1030900000E00027FFF795FA30B1FFF75AFDBBA11A
:1030A00004F001F9804601E04FF00008FFF731FD20
:1030B00048B100F04CF9DFF8F46506EB811101F23C
:1030C0003C1104F001F9DFF8C465F065FFF779FA07
:1030D00030B1FFF739FDBDA104F0E5F8824601E00B
:1030E0004FF0000AFFF715FD40B100F029F97EA26C
:1030F00000F00BF901F59F7104F0E6F83066FEF779
:10310000D9F9DFF89CB500F0E3F8394600F0E1F8B2
:10311000414600F0DEF8F16D00F0DBF8514600F0BA
:10312000D8F8316E00F0D5F8A16E00F0D2F8E16E5B
:1031300000F0CFF8216F00F0CCF8A16F00F0C9F8D3
:10314000FFF763FF00F0C5F80A2D40F0B980FFF7E4
:1031500038FA050009D0FFF78CFADFF85415284635
:1031600004F0A3F800F0C2F800E00025FFF729FA08
:1031700028B100F00DF9DFF83C1504F094F8FFF7E2
:1031800029FF30B1142100F0C9F801F2441104F014
:103190009BF8F06600F008F930B1232100F0F9F84F
:1031A000DFF8141504F07FF800F0C6F830B12321E1
:1031B00000F0B4F801F5A37104F086F83067FFF76A
:1031C00000FA40B1322100F0E4F8DFF8F01404F026
:1031D0006AF8814601E04FF00009FFF79AFC30B130
:1031E000322100F09BF801F2481104F06DF870678D
:1031F000FFF7E7F948B114210091B4232A46DFF81C
:10320000C01404F050F8074600E00027FFF781FCE7
:1032100038B100F061F800F078F801F5A57104F01C
:1032200053F8B0672221FFF7DBFEB16F00F0C4F85E
:1032300018B100F0A3F8804601E04FF00008FFF756
:10324000C0F930B1232100918C2300F0A9F8824607
:1032500001E04FF0000A217EFDF770FC00F082F8DB
:10326000B06FDFF82C144162F06EDFF82814416271
:10327000306FDFF824144162706FDFF82014416270
:10328000414600F026F8514600F023F8294600F0A8
:1032900020F8049900F01DF8F16E00F01AF8039977
:1032A00000F017F8316F00F014F800F011F8716FAA
:1032B00000F00FF8394600F00CF8B16F00F009F893
:1032C0001C48F16D4862316E4862584605B050E6C0
:1032D0004946584606F028BC14210291E621019186
:1032E0000095032392A2704725366400DFF8D403CB
:1032F00028604B2240F22711284607F0F5BA0291C8
:1033000028210191009606234A46217EDFF89CC3BE
:103310000CEB811170470000AC9C07080291502112
:1033200001910095062385A2217EDFF8807307EBCB
:1033300081117047A30A07080390382009F012BCD6
:103340001E210291502101910097062370471E21F2
:103350000291052101910097062378A2217E7047F2
:1033600053544F00B0F84A21D2B2E06FFCF747BF88
:10337000D54CE06FD4F880100969084714210091FA
:103380008C232A466FA103F08EBF00004731000056
:10339000142100910A232A4670471E2100917523AB
:1033A0002A4669A103F07FBF0021818647F6FF719D
:1033B000C186282009F0D6BB00228A86401EC88616
:1033C000282009F0CFBBC04A072136E04732000071
:1033D00038B500F01AF80546002204E038B500F0D0
:1033E00014F80546012200F079F90721E06FD4F8BE
:1033F0008020D2689047EAB20021E06FD4F8803094
:103400009B6801B0BDE830401847AF4C0021E06F29
:10341000D4F8802012681047AB4B187EA34901EB0B
:103420008011B1F8142103EBC000C169D86FD3F843
:1034300080305B681847A44A0821D06FD2F88020FA
:10344000D26810472DE9F04F83B09F4C207E9749FA
:1034500001EB80110C224243D4F88050E66F135DDB
:1034600043B9B1F8142104EBC000C16930466B6860
:10347000984729E001F214171019C07810B10128FB
:1034800003D021E000F099F81BE000F09BF800F079
:103490002BF800F032F800F02BF882468B46FDF74F
:1034A0005EFC00F093F88046894652465B4607F082
:1034B0003DFB08F0D3FF00F010F808F0CFFF3A46CC
:1034C00001B230462B6A98470621E06FD4F880207D
:1034D000D26803B0BDE8F04F104707B242464B46F2
:1034E000DDE9000107F022BB784A794B07F01EBBEB
:1034F00080468946012206F0B7BE0022754B07F0D0
:1035000017B838B5FFF781FFFDF74EFC6748B0F8F4
:10351000142100F019F96EE738B5FFF776FF00F0D7
:10352000DBF86248B0F85421616A00F00EF962E7F6
:1035300025336400D90A0708030B07082536640001
:10354000470B07086D73000072706D002DE9FF478F
:10355000FFF75BFF5FFA80FAFDF727FC00F086F8C3
:10356000217831B9B0F81421E16930466B68984789
:1035700022E000F21417E07810B1012803D01BE01C
:1035800000F01BF815E000F01DF8FFF7ADFFFFF7A6
:10359000B4FFFFF7ADFFFDF7E0FB00F017F800F018
:1035A0001BF808F05BFFFFF798FF08F057FF3A465B
:1035B00001B230462B6A98474CE0B7F91420B7F9AE
:1035C00010107047B7F93A0009F030B9CDE90001A1
:1035D000B7F9380009F02AB980468946DDE90201C9
:1035E00042464B4607F0A2BA2DE9FF47FFF70DFF11
:1035F0005FFA80FA00F071F800F038F8217B31B9F9
:10360000B0F85421616A30466B68984722E000F2B6
:103610005417E07B10B1012803D01BE0FFF7CDFF6A
:1036200015E0FFF7CFFFFFF75FFFFFF766FFFFF73C
:103630005FFFFDF792FBFFF7C9FFFFF7CDFF08F033
:103640000DFFFFF74AFF08F009FF3A4601B2304686
:103650002B6A984700F053F852460021E06FD4F8E7
:1036600080309B6804B0BDE8F0471847D4F880501C
:10367000E66F0E4870470000F7120708B5130708F9
:103680007B0B0708310C070814B8070858F0002016
:10369000550F0708910F0708A50F0708C50F070862
:1036A00020ED0020A4B80708C4B8070898E9002056
:1036B00070B8070880B807088CB8070894B80708DE
:1036C0009CB8070870CA0708C8ED00201F85EB5199
:1036D000B81E094000806640054601220021E06FC7
:1036E000D4F880309B68184738B5FFF78EFEFDF799
:1036F0005BFB00F004F8FFF7F0FF062176E60621F9
:10370000E06FD4F88020D2681047000070B5FFF752
:103710007CFEFDF749FB014E02E000BF98E9002066
:10372000B6F8142100F010F8FFF7D7FFB6F85421CF
:10373000616A00F00AF8EAB20021E06FD4F8803044
:103740009B68BDE870401847E169E06FD4F88030AD
:103750005B681847424D021900000000000042005B
:10376000000028000000480000002C0000000100BC
:10377000100003000000C01800000000000000005E
:103780000000000000000000000000F80000E0075A
:1037900000001F000000FFFFFFFFFFFFFFFFFFFF14
:1037A000FFFFFFFFFFFFFFFFBEF7BEF7BEF7BEF74D
:1037B000BEF7BEF7BEF7BEF7BEF7BEF7BEF7BEF761
:1037C000BEF7BEF7BEF7BEF7BEF7BEF7BEF7BEF751
:1037D000BEF7BEF7BEF7BEF7BEF7BEF7BEF7BEF741
:1037E000BEF7BEF7BEF7BEF7BEF7BEF7BEF7BEF731
:1037F000BEF7BEF7BEF7BEF7BEF7BEF7BEF7BEF721
:10380000BEF7FFFFFFFFFFFFFFFFFFFFFFFFFFFF11
:10381000FFFFFFFFFFFFFFFFFFFFFFFFFFFFFFFFB8
:10382000FFFFFFFFFFFFFFFFFFFFFFFFFFFFFFFFA8
:10383000FFFFFFFFFFFFBEF7BEF77DEF7DEF7DEFE0
:103840007DEF7DEF7DEF7DEF7DEF7DEF7DEF7DEF18
:103850007DEF7DEF7DEF7DEF7DEF7DEF7DEF7DEF08
:103860007DEF7DEF7DEF7DEF7DEF7DEF7DEF7DEFF8
:103870007DEF7DEF7DEF7DEF7DEF7DEF7DEF7DEFE8
:103880007DEF7DEF7DEF7DEF7DEF7DEF7DEF7DEFD8
:10389000BEF7FFFFFFFFFFFFFFFFFFFFFFFFFFFF81
:1038A000FFFFFFFFFFFFFFFFFFFFFFFFFFFFFFFF28
:1038B000FFFFFFFFFFFFFFFFFFFFFFFFFFFFFFFF18
:1038C000FFFFBEF77DEF3CE73CE7FBDEFBDEBAD651
:1038D000BAD6BAD6BAD6BAD6BAD6BAD6BAD6BAD668
:1038E000BAD6BAD6BAD6BAD6BAD6BAD6BAD6BAD658
:1038F000BAD6BAD6BAD6BAD6BAD6BAD6BAD6BAD648
:10390000BAD6BAD6BAD6BAD6BAD6BAD6BAD6BAD637
:10391000BAD6BAD6BAD6BAD6BAD6BAD6BAD63CE794
:103920007DEFBEF7FFFFFFFFFFFFFFFFFFFFFFFF82
:10393000FFFFFFFFFFFFFFFFFFFFFFFFFFFFFFFF97
:10394000FFFFFFFFFFFFFFFFFFFFFFFFFFFFFFFF87
:10395000BEF73CE7BAD679CE79CE38C6F7BDF7BD0B
:10396000B6B5B6B5B6B5B6B5B6B5B6B5B6B5B6B5FF
:10397000B6B5B6B5B6B5B6B5B6B5B6B5B6B5B6B5EF
:10398000B6B5B6B5B6B5F7BDF7BDF7BDB6B5B6B504
:10399000B6B5B6B5B6B5B6B5B6B5B6B5B6B5F7BD86
:1039A000F7BDF7BDF7BDF7BDF7BDF7BDF7BD79CEE4
:1039B000FBDE7DEFFFFFFFFFFFFFFFFFFFFFFFFFCE
:1039C000FFFFFFFFFFFFFFFFFFFFFFFFFFFFFFFF07
:1039D000FFFFFFFFFFFFFFFFFFFFFFFFFFFFFFFFF7
:1039E000FFFFBEF73CE73CE73CE71CDF1CDF1CDFCA
:1039F0001CDF1CDF1CDF1CDF1CDF1CDF1CDF1CDFEF
:103A00001CDF1CDF1CDF1CDF1CDF1CDF1CDF1CDFDE
:103A10001CDF1CDF1CDF7DEF7EEF7EEF7EEF3CE7DF
:103A20001CDF1CDF1CDF1CDF1CDF3CE77DEFBFF76A
:103A3000BFF7BFF7BFF7BFF7BFF77DEFBAD6F7BD48
:103A400079CE3CE7FFFFFFFFFFFFFFFFFFFFFFFF18
:103A5000FFFFFFFFFFFFFFFFFFFFFFFFFFFFFFFF76
:103A6000FFFFFFFFFFFFFFFFFFFFFFFFFFFFFFFF66
:103A7000FFFFFFFFFFFFBEF7BEF7BEF7BEF7BEF7C3
:103A8000BEF7BEF7BEF7BEF7BEF7BEF7BEF7BEF78E
:103A9000BEF7BEF7BEF7BEF7BEF7BEF7BEF7BEF77E
:103AA000BEF77DEFDD8DBB541E557E6DDFFFFFFF42
:103AB000BEF7BEF7BEF7BEF77DEF5C7D3D653D65A9
:103AC0007F657F657F657F657F65BFAEBEF738C662
:103AD00038C6FBDE7DEFFFFFFFFFFFFFFFFFFFFFAD
:103AE000FFFFFFFFFFFFFFFFFFFFFFFFFFFFFFFFE6
:103AF000FFFFFFFFFFFFFFFFFFFFFFFFFFFFFFFFD6
:103B0000FFFFFFFFFFFFFFFFFFFFFFFFFFFFFFFFC5
:103B1000FFFFFFFFFFFFFFFFFFFFFFFFFFFFFFFFB5
:103B2000FFFFFFFFFFFFFFFFFFFFFFFFFFFFFFFFA5
:103B3000FFFFBEF73CE75B7D5A0B9B0B7EAEFFFFA2
:103B4000FFFFFFFFFFFFFFFF7DEFDB647B0BDD0B64
:103B5000FF0BFF0BFF0BFF0BFF0B7F24FFFFBAD602
:103B6000F7BDBAD63CE7FFFFFFFFFFFFFFFFFFFFF8
:103B7000FFFFFFFFFFFFFFFFFFFFFFFFFFFFFFFF55
:103B8000FFFFFFFFFFFFFFFFFFFFFFFFFFFFFFFF45
:103B9000FFFFFFFFFFFFFFFFFFFFFFFFFFFFFFFF35
:103BA000FFFFFFFFFFFFFFFFFFFFFFFFFFFFFFFF25
:103BB000FFFFFFFFFFFFFFFFFFFFFFFFFFFFFFFF15
:103BC000FFFFFFFF7DEF3CE79B8D5A0BBD44FFFFDE
:103BD000FFFFFFFFFFFFFFFF7DEF7BBE7A0B9C0B1C
:103BE000DE0BFF0BFF0BFF0BFF0BFF0BBFAEBEF798
:103BF000F7BD38C6FBDE7DEFFFFFFFFFFFFFFFFFD6
:103C0000FFFFFFFFFFFFFFFFFFFFFFFFFFFFFFFFC4
:103C1000FFFFFFFFFFFFFFFFFFFFFFFFFFFFFFFFB4
:103C2000FFFFFFFFFFFFFFFFFFFFFFFFFFFFFFFFA4
:103C3000FFFFFFFFFFFFFFFFFFFFFFFFFFFFFFFF94
:103C4000FFFFFFFFFFFFFFFFFFFFFFFFFFFFFFFF84
:103C5000FFFFFFFFFFFF7DEF3CE7DB5C7B0BBEBEA2
:103C6000FFFFFFFFFFFFFFFFBEF73CE77A4C7B0B38
:103C7000DD0BFF0BFF0BFF0BFF0BFF0BDF34FFFF19
:103C800079CEF7BDBAD67DEFFFFFFFFFFFFFFFFF45
:103C9000FFFFFFFFFFFFFFFFFFFFFFFFFFFFFFFF34
:103CA000FFFFFFFFFFFFFFFFFFFFFFFFFFFFFFFF24
:103CB000FFFFFFFFFFFFFFFFFFFFFFFFFFFFFFFF14
:103CC000FFFFFFFFFFFFFFFFFFFFFFFFFFFFFFFF04
:103CD000FFFFFFFFFFFFFFFFFFFFFFFFFFFFFFFFF4
:103CE000FFFFFFFFFFFFFFFF7DEFBBCE7A0BBD4461
:103CF000FFFFFFFFFFFFFFFFFFFF7DEF1BAE5A0B34
:103D00009C0BFF0BFF0BFF0BFF0BFF0BFF0BFFBE13
:103D10007DEFB6B579CE3CE77DEFFFFFFFFFFFFFFC
:103D2000FFFFFFFFFFFFFFFFFFFFFFFFFFFFFFFFA3
:103D3000FFFFFFFFFFFFFFFFFFFFFFFFFFFFFFFF93
:103D4000FFFFFFFFFFFFFFFFFFFFFFFFFFFFFFFF83
:103D5000FFFFFFFFFFFFFFFFFFFFFFFFFFFFFFFF73
:103D6000FFFFFFFFFFFFFFFFFFFFFFFFFFFFFFFF63
:103D7000FFFFFFFFFFFFFFFFBEF73CE77A4C9B0B07
:103D80003FD7FFFFFFFFFFFFFFFFBEF73CE7FA3320
:103D90009B0BDE0BFF0BFF0BFF0BFF0BFF0B3F5DC6
:103DA000FFFF38C6F7BDFBDE7DEFFFFFFFFFFFFF24
:103DB000FFFFFFFFFFFFFFFFFFFFFFFFFFFFFFFF13
:103DC000FFFFFFFFFFFFFFFFFFFFFFFFFFFFFFFF03
:103DD000FFFFFFFFFFFFFFFFFFFF7EAE7EAEBFAE28
:103DE000BFAEBFAEBFAEBFAEBFAEBFAEBFAEBFAE6B
:103DF000BFAEBFAEBFAEBFAEBFAEBFAEBFAEFFBE0B
:103E0000FFFFFFFFFFFFFFFFBEF77DEF7B859B0BF3
:103E1000BF75FFFFFFFFFFFFFFFFBEF77DEF9B8D2D
:103E20005A0BDD0BFF0BFF0BFF0BFF0BFF0B1F14E0
:103E3000BFEFFBDEB6B579CE3CE77DEFFFFFFFFFBE
:103E4000FFFFFFFFFFFFFFFFFFFFFFFFFFFFFFFF82
:103E5000FFFFFFFFFFFFFFFFFFFFFFFFFFFFFFFF72
:103E6000FFFFFFFFFFFFFFFFFFFF5C3C9B0BDE0B35
:103E7000FF0BFF0BFF0BFF0BFF0BFF0BFF0BFF0BF2
:103E8000FF0BFF0BFF0BFF0BFF0BFF0BFF0BFF0BE2
:103E90007FE7FFFFFFFFFFFFFFFF7DEFDB9D9B0B3A
:103EA0003E24BFEFFFFFFFFFFFFFFFFF7DEFFCDEC4
:103EB0009A1B9C0BDE0BFF0BFF0BFF0BFF0BFF0B8B
:103EC000FF85BEF7F7BD38C6FBDE7DEFFFFFFFFFC6
:103ED000FFFFFFFFFFFFFFFFFFFFFFFFFFFFFFFFF2
:103EE000FFFFFFFFFFFFFFFFFFFFFFFFFFFFFFFFE2
:103EF000FFFFFFFFFFFFFFFFFFFF7EAE7B0BDD0B32
:103F0000FF0BFF0BFF0BFF0BFF0BFF0BFF0BFF0B61
:103F1000FF0BFF0BFF0BFF0BFF0BFF0BDE0B5D34EB
:103F2000BFEFFFFFFFFFFFFFFFFF7DEFDB9D9C0B60
:103F3000DE0B7F9EFFFFFFFFFFFFFFFFBEF73CE7AB
:103F4000FA6C7B0BDD0BFF0BFF0BFF0BFF0BFF0B6B
:103F50007F24FFFFBAD6F7BDBAD63CE7FFFFFFFFCD
:103F6000FFFFFFFFFFFFFFFFFFFFFFFFFFFFFFFF61
:103F7000FFFFFFFFFFFFFFFFFFFFFFFFFFFFFFFF51
:103F8000FFFFFFFFFFFFFFFFFFFFBEF7DC1B9C0BE8
:103F9000DE0BFF0BFF0BFF0BFF0BFF0BFF0BFF0BF2
:103FA000FF0BFF0BFF0BFF0BFF0BDE0B5D343FD74F
:103FB000FFFFFFFFFFFFFFFFFFFF7DEF5C7DDD0BDE
:103FC000FF0BFF44FFFFFFFFFFFFFFFFFFFF7DEF42
:103FD0007BBE7A0B9C0BDE0BFF0BFF0BFF0BFF0B6B
:103FE000FF0BBFAE7DEFB6B538C61CDF7DEFFFFF20
:103FF000FFFFFFFFFFFFFFFFFFFFFFFFFFFFFFFFD1
:10400000FFFFFFFFFFFFFFFFFFFFFFFFFFFFFFFFC0
:10401000FFFFFFFFFFFFFFFFFFFFFFFF9C859B0BE5
:10402000DD0BFF0BFF0BFF0BFF0BFF0BFF0BFF0B62
:10403000FF0BFF0BFF0BFF0BDE0BBD447FE7FFFF0A
:10404000FFFFFFFFFFFFFFFFFFFF7DEF3C34DE0BB5
:10405000FF0BFF0BFFBEFFFFFFFFFFFFFFFFBEF7E2
:104060003CE77A4C9B0BDE0BFF0BFF0BFF0BFF0BB0
:10407000FF0BFF44FFFF38C6F7BDBAD67DEFFFFF49
:10408000FFFFFFFFFFFFFFFFFFFFFFFFFFFFFFFF40
:10409000FFFFFFFFFFFFFFFFFFFFFFFFFFFFFFFF30
:1040A000FFFFFFFFFFFFFFFFFFFFFFFF7DEF7B0B2A
:1040B0009C0BDE0BFF0BFF0BFF0BFF0BFF0BFF0B34
:1040C000FF0BFF0BFF0BDE0BBD44BFF7FFFFFFFF36
:1040D000FFFFFFFFFFFFFFFFBEF75DAEDD0BFF0B36
:1040E000FF0BFF0B7F65FFFFFFFFFFFFFFFFFFFFE2
:1040F0007DEFDB9D5A0BDD0BFF0BFF0BFF0BFF0B67
:10410000FF0BFF0B7FE73CE7B6B579CE3CE77DEFD1
:10411000FFFFFFFFFFFFFFFFFFFFFFFFFFFFFFFFAF
:10412000FFFFFFFFFFFFFFFFFFFFFFFFFFFFFFFF9F
:10413000FFFFFFFFFFFFFFFFFFFFFFFFFFFF9C4CA5
:104140009B0BDD0BFF0BFF0BFF0BFF0BFF0BFF0BA5
:10415000FF0BFF0BDD0B3D65BFF7FFFFFFFFFFFF11
:10416000FFFFFFFFFFFFFFFF7EEF3C34DE0BFF0B87
:10417000FF0BFF0B3F147FE7FFFFFFFFFFFFFFFF7A
:104180007DEFFCDEFA339B0BDE0BFF0BFF0BFF0B0F
:10419000FF0BFF0BBF75DFFFF7BDF7BDFBDE7DEF4C
:1041A000FFFFFFFFFFFFFFFFFFFFFFFFFFFFFFFF1F
:1041B000FFFFFFFFFFFFFFFFFFFFFFFFFFFFFFFF0F
:1041C000FFFFFFFFFFFFFFFFFFFFFFFFFFFFFDD62A
:1041D0007B0B9C0BDE0BFF0BFF0BFF0BFF0BFF0B97
:1041E000FF0BDD0B9E7DDFFFFFFFFFFFFFFFFFFFEC
:1041F000FFFFFFFFFFFFFFFF3D65DE0BFF0BFF0B28
:10420000FF0BFF0BFF0B3F8EFFFFFFFFFFFFFFFFCB
:10421000BEF73CE75B7D7B0BDD0BFF0BFF0BFF0B62
:10422000FF0BFF0B7F24DFF7BAD6F7BDBAD63CE70A
:10423000BEF7FFFFFFFFFFFFFFFFFFFFFFFFFFFFD7
:10424000FFFFFFFFFFFFFFFFFFFFFFFFFFFFFFFF7E
:10425000FFFFFFFFFFFFFFFFFFFFFFFFFFFFFFFF6E
:104260009C4C9B0BDD0BFF0BFF0BFF0BFF0BFF0BA6
:10427000DE0BDE8DDFFFFFFFFFFFFFFFFFFFFFFF16
:10428000FFFFFFFFFFFF9E7DDE0BFF0BFF0BFF0B12
:10429000FF0BFF0BFF0BDF34DFF7FFFFFFFFFFFF1D
:1042A000FFFF7DEF9CC67A0B9C0BDE0BFF0BFF0B19
:1042B000FF0BFF0BFF0B7F9EBEF7F7BD38C6FBDE83
:1042C0007DEFFFFFFFFFFFFFFFFFFFFFFFFFFFFF90
:1042D000FFFFFFFFFFFFFFFFFFFFFFFFFFFFFFFFEE
:1042E000FFFFFFFFFFFFFFFFFFFFFFFFFFFFFFFFDE
:1042F0005DAE7B0BDD0BFF0BFF0BFF0BFF0BDE0B34
:104300009E7DFFFFFFFFFFFFFFFFFFFFFFFFFFFFA0
:10431000FFFFFFFF9E7DDE0BFF0BFF0BFF0BFF0B75
:10432000FF0BFF0BFF0BFF0BBFAEFFFFFFFFFFFFFE
:10433000FFFFBEF73CE7BB547B0BDD0BFF0BFF0B16
:10434000FF0BFF0BFF0BDF34FFFF79CEF7BDBAD6B3
:104350007DEFFFFFFFFFFFFFFFFFFFFFFFFFFFFFFF
:10436000FFFFFFFFFFFFFFFFFFFFFFFFFFFFFFFF5D
:10437000FFFFFFFFFFFFFFFFFFFFFFFFFFFFFFFF4D
:10438000BEF73C349C0BDE0BFF0BFF0BFF0B7E6D6F
:10439000FFFFFFFFFFFFFFFFFFFFFFFFFFFFFFFF2D
:1043A000DFF73D65DE0BFF0BFF0BFF0BFF0BFF0B7A
:1043B000FF0BFF0BFF0BFF0B1F4DFFFFFFFFFFFF6F
:1043C000FFFFFFFF7DEF1BAE5A0BDD0BFF0BFF0B5B
:1043D000FF0BFF0BFF0BFF0BFFBE7DEFB6B579CEDA
:1043E0001CDF7DEFFFFFFFFFFFFFFFFFFFFFFFFF72
:1043F000FFFFFFFFFFFFFFFFFFFFFFFFFFFFFFFFCD
:10440000FFFFFFFFFFFFFFFFFFFFFFFFFFFFFFFFBC
:10441000FFFF9C857B0BDD0BFF0BFF0B5E2CBFF7BB
:10442000FFFFFFFFFFFFFFFFFFFFFFFFFFFFBFF7E4
:104430001E55DE0BFF0BFF0BFF0BFF0BFF0BFF0BE4
:10444000FF0BFF0BFF0BFF0BFF0B3FD7FFFFFFFF28
:10445000FFFFFFFFBEF71CDFFA339B0BDE0BFF0BEA
:10446000FF0BFF0BFF0BFF0B7F65FFFF38C6F7BD90
:10447000BAD67DEFFFFFFFFFFFFFFFFFFFFFFFFF4C
:10448000FFFFFFFFFFFFFFFFFFFFFFFFFFFFFFFF3C
:10449000FFFFFFFFFFFFFFFFFFFFFFFFFFFFFFFF2C
:1044A000FFFF7FE7BB139C0BDE0BDE0B7EAEFFFF37
:1044B000FFFFFFFFFFFFFFFFFFFFFFFF3FD7BE44F0
:1044C000DE0BFF0BFF0BFF0BFF0BFF0BFF0BFF0BBD
:1044D000FF0BFF0BFF0BFF0BFF0BFF85FFFFFFFF2A
:1044E000FFFFFFFFBEF73CE77B855A0BDD0BFF0BA1
:1044F000FF0BFF0BFF0BFF0B3F14BFEF1CDFB6B52D
:1045000079CE3CE77DEFFFFFFFFFFFFFFFFFFFFFDF
:10451000FFFFFFFFFFFFFFFFFFFFFFFFFFFFFFFFAB
:10452000FFFFFFFFFFFFFFFFFFFFFFFFFFFFFFFF9B
:10453000FFFFFFFFFC5C9B0BDD0B5E2CDFFFFFFF33
:10454000FFFFFFFFFFFFFFFFFFFFBEBE3E24FF0B8D
:10455000FF0BFF0BFF0BFF0BFF0BFF0BFF0BFF0B0B
:10456000FF0BFF0BFF0BFF0BFF0B7F24BFEFFFFFCA
:10457000FFFFFFFFFFFF7DEFBBCE9A1B9C0BDE0B07
:10458000FF0BFF0BFF0BFF0BFF0B3F8EBEF7F7BDC3
:10459000F7BDFBDE7DEFFFFFFFFFFFFFFFFFFFFF2C
:1045A000FFFFFFFFFFFFFFFFFFFFFFFFFFFFFFFF1B
:1045B000FFFFFFFFFFFFFFFFFFFFFFFFFFFFFFFF0B
:1045C000FFFFFFFFFDD67B0B9C0BBF75FFFFFFFFBF
:1045D000FFFFFFFFFFFFBEF7BEBEDC1BDE0BFF0BC6
:1045E000FF0BFF0BFF0BFF0BFF0BFF0BFF0BFF0B7B
:1045F000FF0BFF0BFF0BFF0BFF0BFF0B7F9EFFFF64
:10460000FFFFFFFFFFFFBEF73CE7DB5C7B0BDD0B33
:10461000FF0BFF0BFF0BFF0BFF0B7F24FFFFBAD637
:10462000F7BDBAD63CE7BEF7FFFFFFFFFFFFFFFF76
:10463000FFFFFFFFFFFFFFFFFFFFFFFFFFFFFFFF8A
:10464000FFFFFFFFFFFFFFFFFFFFFFFFFFFFFFFF7A
:10465000FFFFFFFFFFFF5C3C9B0B3E9EFFFFFFFF4A
:10466000FFFFFFFFFFFF7DEFBB547B0BDD0BDD0B7F
:10467000DD0BDD0BDD0BDD0BDD0BDD0BDD0BDD0BFA
:10468000DD0BDD0BDD0BDD0BDD0BDD0B5E2CBFEF82
:10469000FFFFFFFFFFFFFFFF7DEF7BBE5A0B9C0B71
:1046A000DD0BDD0BDD0BDD0BDD0BDD0B3E9E7DEF52
:1046B000B6B538C6FBDE7DEFFFFFFFFFFFFFFFFF54
:1046C000FFFFFFFFFFFFFFFFFFFFFFFFFFFFFFFFFA
:1046D000FFFFFFFFFFFFFFFFFFFFFFFFFFFFFFFFEA
:1046E000FFFFFFFFFFFF5EA67B0B3E9EFFFFFFFF6E
:1046F000FFFFFFFFFFFF7DEF7B857A0B7A0BBB137C
:10470000BB13BB13BB13BB13BB13BB13BB13BB1339
:10471000BB13BB13BB13BB13BB13BB13BB135EA6F3
:10472000FFFFFFFFFFFFFFFFBEF73CE77A4C7A0B6E
:10473000BB13BB13BB13BB13BB13BB135C3C7DEFA1
:1047400038C6F7BDBAD67DEFBEF7FFFFFFFFFFFF0C
:10475000FFFFFFFFFFFFFFFFFFFFFFFFFFFFFFFF69
:10476000FFFFFFFFFFFFFFFFFFFFFFFFFFFFFFFF59
:10477000FFFFFFFFFFFFDFFFBB139E7DFFFFFFFF7C
:10478000FFFFFFFFFFFFBEF77DEFBBCE9CC69CC6C1
:104790009CC69CC69CC69CC69CC69CC69CC69CC609
:1047A0009CC69CC69CC69CC69CC69CC6FDD67FE784
:1047B000FFFFFFFFFFFFFFFFFFFF7DEFFCDE9CC65B
:1047C0009CC69CC69CC69CC69CC6FDD6FDD67DEFED
:1047D000BAD696B579CE3CE77DEFFFFFFFFFFFFF2E
:1047E000FFFFFFFFFFFFFFFFFFFFFFFFFFFFFFFFD9
:1047F000FFFFFFFFFFFFFFFFFFFFFFFFFFFFFFFFC9
:10480000FFFFFFFFFFFFFFFF3C6D3C34FFFFFFFF9B
:10481000FFFFFFFFFFFFFFFFBEF7BEF7BEF7BEF7CC
:10482000BEF7BEF7BEF7BEF7BEF7BEF7BEF7BEF7E0
:10483000BEF7BEF7BEF7BEF7BEF7BEF7BEF7FFFF87
:10484000FFFFFFFFFFFFFFFFFFFFBEF7BEF7BEF753
:10485000BEF7BEF7BEF7BEF7BEF7BEF7BEF7BEF7B0
:104860003CE7B6B5F7BDFBDE7DEFFFFFFFFFFFFFC7
:10487000FFFFFFFFFFFFFFFFFFFFFFFFFFFFFFFF48
:10488000FFFFFFFFFFFFFFFFFFFFFFFFFFFFFFFF38
:10489000FFFFFFFFFFFFFFFF7FE77B0BBEBEFFFFBA
:1048A000FFFFFFFFFFFFFFFFFFFFFFFFFFFFFFFF18
:1048B000FFFFFFFFFFFFFFFFFFFFFFFFFFFFFFFF08
:1048C000FFFFFFFFFFFFFFFFFFFFFFFFFFFFFFFFF8
:1048D000FFFFFFFFFFFFFFFFFFFFFFFFFFFFFFFFE8
:1048E000FFFFFFFFFFFFFFFFFFFFFFFFFFFFBEF721
:1048F0007DEF79CEB6B579CE3CE77DEFFFFFFFFFC8
:10490000FFFFFFFFFFFFFFFFFFFFFFFFFFFFFFFFB7
:10491000FFFFFFFFFFFFFFFFFFFFFFFFFFFFFFFFA7
:10492000FFFFFFFFFFFFFFFFFFFF9C4C3C34DFF763
:10493000FFFFFFFFFFFFFFFFFFFFFFFFFFFFFFFF87
:10494000FFFFFFFFFFFFFFFFFFFFFFFFFFFFFFFF77
:10495000FFFFFFFFFFFFFFFFFFFFFFFFFFFFFFFF67
:10496000FFFFFFFFFFFFFFFFFFFFFFFFFFFFFFFF57
:10497000FFFFFFFFFFFFFFFFFFFFFFFFFFFFFFFF47
:104980007DEFFBDE96B538C6FBDE7DEFFFFFFFFF58
:10499000FFFFFFFFFFFFFFFFFFFFFFFFFFFFFFFF27
:1049A000FFFFFFFFFFFFFFFFFFFFFFFFFFFFFFFF17
:1049B000FFFFFFFFFFFFFFFFFFFFBEBE7B0B1E558C
:1049C000BFEFFFFFFFFFFFFFFFFFFFFFFFFFFFFF47
:1049D000FFFFFFFFFFFFFFFFFFFFFFFFFFFFFFFFE7
:1049E000FFFFFFFFFFFFFFFFFFFFFFFFFFFFFFFFD7
:1049F000FFFFFFFFFFFFFFFFFFFFFFFFFFFFFFFFC7
:104A0000FFFFFFFFFFFFFFFFFFFFFFFFFFFFFFFFB6
:104A1000BEF73CE738C6B6B5BAD63CE7BEF7FFFFEF
:104A2000FFFFFFFFFFFFFFFFFFFFFFFFFFFFFFFF96
:104A3000FFFFFFFFFFFFFFFFFFFFFFFFFFFFFFFF86
:104A4000FFFFFFFFFFFFFFFFFFFFFFFF3B349B0B5D
:104A5000BE443FCFFFFFFFFFFFFFFFFFFFFFFFFF52
:104A6000FFFFFFFFFFFFFFFFFFFFFFFFFFFFFFFF56
:104A7000FFFFFFFFFFFFFFFFFFFFFFFFFFFFFFFF46
:104A8000FFFFFFFFFFFFFFFFFFFFFFFFFFFFFFFF36
:104A9000FFFFFFFFFFFFFFFFFFFFFFFFFFFFFFFF26
:104AA000FFFFBEF7FBDEB6B579CE1CDF7DEFFFFF63
:104AB000FFFFFFFFFFFFFFFFFFFFFFFFFFFFFFFF06
:104AC000FFFFFFFFFFFFFFFFFFFFFFFFFFFFFFFFF6
:104AD000FFFFFFFFFFFFFFFFFFFFFFFFDD8D7B0BF2
:104AE000DD0B3F147F65BFAE7FE77FE77FE77FE7A2
:104AF0007FE77FE77FE77FE77FE77FE77FE77FE786
:104B00007FE77FE77FE77FE77FE77FE77FE77FE775
:104B10007FE77FE77FE77FE77FE77FE77FE77FE765
:104B20007FE77FE77FE77FE77FE77FE77FE77FE755
:104B30007FE77FE7BEF738C6F7BDBAD67DEFBEF791
:104B4000FFFFFFFFFFFFFFFFFFFFFFFFFFFFFFFF75
:104B5000FFFFFFFFFFFFFFFFFFFFFFFFFFFFFFFF65
:104B6000FFFFFFFFFFFFFFFFFFFFFFFF7FE7BB131D
:104B70009C0BDE0BFF0BFF0B1F141F141F141F14C5
:104B80001F141F141F141F141F141F141F141F148D
:104B90001F141F141F141F141F141F141F141F147D
:104BA0001F141F141F141F141F141F141F141F146D
:104BB0001F141F141F141F141F141F141F141F145D
:104BC0001F147F247FE7FBDEF7BDBAD63CE7BEF7B4
:104BD000FFFFFFFFFFFFFFFFFFFFFFFFFFFFFFFFE5
:104BE000FFFFFFFFFFFFFFFFFFFFFFFFFFFFFFFFD5
:104BF000FFFFFFFFFFFFFFFFFFFFFFFFFFFF3C6D1A
:104C00007B0BDD0BFF0BFF0BFF0BFF0BFF0BFF0BFA
:104C1000FF0BFF0BFF0BFF0BFF0BFF0BFF0BFF0B44
:104C2000FF0BFF0BFF0BFF0BFF0BFF0BFF0BFF0B34
:104C3000FF0BFF0BFF0BFF0BFF0BFF0BFF0BFF0B24
:104C4000FF0BFF0BFF0BFF0BFF0BFF0BFF0BFF0B14
:104C5000FF0BFF0BFF85BEF738C679CE3CE7BEF7EA
:104C6000BEF7FFFFFFFFFFFFFFFFFFFFFFFFFFFF9D
:104C7000FFFFFFFFFFFFFFFFFFFFFFFFFFFFFFFF44
:104C8000FFFFFFFFFFFFFFFFFFFFFFFFFFFFFDDE57
:104C9000BB139C0BDD0BDE0BDE0BDE0BDE0BDE0B2A
:104CA000DE0BDE0BDE0BDE0BDE0BDE0BDE0BDE0BBC
:104CB000DE0BDE0BDE0BDE0BDE0BDE0BDE0BDE0BAC
:104CC000DE0BDE0BDE0BDE0BDE0BDE0BDE0BDE0B9C
:104CD000DE0BDE0BDE0BDE0BDE0BDE0BDE0BDE0B8C
:104CE000DE0BDE0B7F24FFFFBAD638C6FBDE7DEF7E
:104CF000BEF7FFFFFFFFFFFFFFFFFFFFFFFFFFFF0D
:104D0000FFFFFFFFFFFFFFFFFFFFFFFFFFFFFFFFB3
:104D1000FFFFFFFFFFFFFFFFFFFFFFFFFFFFFFFFA3
:104D2000FC5C5A0B9B0B9C0B9C0B9C0B9C0B9C0BDD
:104D30009C0B9C0B9C0B9C0B9C0B9C0B9C0B9C0B3B
:104D40009C0B9C0B9C0B9C0B9C0B9C0B9C0B9C0B2B
:104D50009C0B9C0B9C0B9C0B9C0B9C0B9C0B9C0B1B
:104D60009C0B9C0B9C0B9C0B9C0B9C0B9C0B9C0B0B
:104D70009C0B9C0B9C0B5EA63CE779CEFBDE7DEF8B
:104D8000BEF7FFFFFFFFFFFFFFFFFFFFFFFFFFFF7C
:104D9000FFFFFFFFFFFFFFFFFFFFFFFFFFFFFFFF23
:104DA000FFFFFFFFFFFFFFFFFFFFFFFFFFFFFFFF13
:104DB0003FD73C6D3C6D3C6D3C6D3C6D3C6D3C6D3E
:104DC0003C6D3C6D3C6D3C6D3C6D3C6D3C6D3C6D9B
:104DD0003C6D3C6D3C6D3C6D3C6D3C6D3C6D3C6D8B
:104DE0003C6D3C6D3C6D3C6D3C6D3C6D3C6D3C6D7B
:104DF0003C6D3C6D3C6D3C6D3C6D3C6D3C6D3C6D6B
:104E00003C6D3C6D3C6D5EA6BEF7FBDEFBDEBEF787
:104E1000DFFFFFFFFFFFFFFFFFFFFFFFFFFFFFFFC2
:104E2000FFFFFFFFFFFFFFFFFFFFFFFFFFFFFFFF92
:104E3000FFFFFFFFFFFFFFFFFFFFFFFFFFFFFFFF82
:104E4000FFFFFFFFFFFFFFFFFFFFFFFFFFFFFFFF72
:104E5000FFFFFFFFFFFFFFFFFFFFFFFFFFFFFFFF62
:104E6000FFFFFFFFFFFFFFFFFFFFFFFFFFFFFFFF52
:104E7000FFFFFFFFFFFFFFFFFFFFFFFFFFFFFFFF42
:104E8000FFFFFFFFFFFFFFFFFFFFFFFFFFFFFFFF32
:104E9000FFFFFFFFFFFFFFFFDFFFBEF7BEF7BEF71D
:104EA000FFFFFFFFFFFFFFFFFFFFFFFFFFFFFFFF12
:104EB000FFFFFFFFFFFFFFFFFFFFFFFFFFFFFFFF02
:104EC000FFFFFFFFFFFFFFFFFFFFFFFFFFFFFFFFF2
:104ED000FFFFFFFFDFFFDFFFDFFFBEF7BEF7BEF71D
:104EE000BEF7BEF7BEF7BEF7BEF7BEF7BEF7BEF71A
:104EF000BEF7BEF7BEF7BEF7BEF7BEF7BEF7BEF70A
:104F0000BEF7BEF7BEF7BEF7BEF7DFFFDFFFDFFF7E
:104F1000DFFFBEF7BEF7BEF7BEF7BEF7BEF7BEF7C0
:104F2000BEF7BEF7BEF7DFFFDFFFDFFFDFFFFFFFEC
:104F3000FFFFFFFFFFFFFFFFFFFFFFFFFFFFFFFF81
:104F4000FFFFFFFFFFFFFFFFFFFFFFFFFFFFFFFF71
:104F5000FFFFFFFFFFFFFFFFFFFFFFFFFFFFFFFF61
:104F6000FFFFFFFFFFFFFFFFFFFFFFFFFFFFFFFF51
:104F7000FFFFFFFFFFFFFFFFFFFFFFFFFFFFFFFF41
:104F8000FFFFFFFFFFFFFFFFFFFFFFFFFFFFFFFF31
:104F9000FFFFFFFFFFFFFFFFFFFFFFFFFFFFFFFF21
:104FA000FFFFFFFFFFFFFFFFFFFFFFFFFFFFFFFF11
:104FB000FFFFFFFFFFFFFFFFFFFFFFFFFFFFFFFF01
:104FC000FFFFFFFFFFFFFFFFFFFFFFFFFFFFFFFFF1
:104FD000FFFFFFFFFFFFFFFFFFFFFFFFFFFFFFFFE1
:104FE000FFFFFFFFFFFFFFFFFFFFFFFFFFFFFFFFD1
:104FF000FFFFFFFFFFFFFFFFFFFFFFFFFFFFFFFFC1
:10500000FFFFFFFFFFFFFFFFFFFFFFFFFFFFFFFFB0
:10501000FFFFFFFFFFFFFFFFFFFFFFFFFFFFFFFFA0
:10502000FFFFFFFFFFFFFFFFFFFFFFFFFFFFFFFF90
:10503000FFFFFFFFFFFFFFFFFFFFFFFFFFFFFFFF80
:10504000FFFFFFFFFFFFFFFFFFFFFFFFFFFFFFFF70
:10505000FFFFFFFFFFFF0000000000000000000056
:105060000000000000000000000000000000000040
:105070000000000000000000000000000000000030
:10508000000000000000000000008001800180019D
:105090008001800180018001800180018001800108
:1050A00080018001000000008001800100000000FC
:1050B000000000000000000000000000CC00CC0058
:1050C000CC00CC00CC00CC000000000000000000B0
:1050D00000000000000000000000000000000000D0
:1050E00000000000000000000000000000000000C0
:1050F00000000000600C600C600C30063006FE1FE3
:10510000FE1F300638071803FE1FFE1F1803180382
:105110008C018C018C01000000008000E003F80F7E
:105120009C0E8C1C8C188C009800F801E007800EF7
:10513000801C8C188C189C18B80CF00FE0038000B1
:1051400080000000000000000000000000000E18B9
:105150001B0C110C11061106110311039B018E018A
:10516000C038C06C60446044304430441844186C0B
:105170000C380000000000000000E001F0033807D8
:10518000180618063003F001F000F8009C310E33C9
:10519000061E061C061C063FFC73F02100000000E2
:1051A0000000000000000000000000000C000C00E7
:1051B0000C000C000C000C000000000000000000BF
:1051C00000000000000000000000000000000000DF
:1051D0000000000000000000000000020003800149
:1051E000C000C000600060003000300030003000BF
:1051F000300030003000300060006000C000C000AF
:105200008001000300020000000020006000C000D8
:10521000800180010003000300060006000600066E
:10522000000600060006000600030003800180015E
:10523000C00060002000000000000000000000002E
:1052400000000000C000C000D806F807E0013003ED
:10525000380700000000000000000000000000000F
:10526000000000000000000000000000000000003E
:105270000000000080018001800180018001FC3F6E
:10528000FC3F80018001800180018001000000005E
:10529000000000000000000000000000000000000E
:1052A00000000000000000000000000000000000FE
:1052B00000000000000000000000800180010001EB
:1052C000000180000000000000000000000000005D
:1052D00000000000000000000000000000000000CE
:1052E000E007E007000000000000000000000000F0
:1052F00000000000000000000000000000000000AE
:10530000000000000000000000000000000000009D
:1053100000000000000000000000C000C00000000D
:1053200000000000000000000000000C000C00065F
:1053300000060006000300030003800380018001D3
:105340008001C000C000C0006000600000000000DC
:1053500000000000000000000000E003F007380E2D
:10536000180C0C180C180C180C180C180C180C181D
:105370000C180C18180C380EF007E00300000000A1
:105380000000000000000000000000018001C001DA
:10539000F001980188018001800180018001800175
:1053A00080018001800180018001800100000000F7
:1053B00000000000000000000000E003F80F180CDF
:1053C0000C180C1800180018000C000600038001CF
:1053D000C000600030001800FC1FFC1F000000002F
:1053E00000000000000000000000E001F807180EB7
:1053F0000C0C0C0C000C0006C003C007000C0018BD
:1054000000180C180C18180CF807E0030000000036
:1054100000000000000000000000000C000E000F63
:10542000000F800DC00C600C600C300C180C0C0CC4
:10543000FC3FFC3F000C000C000C000C00000000C6
:1054400000000000000000000000F80FF80F180036
:1054500018000C00EC03FC071C0E001C00180018C0
:1054600000180C181C0C180EF807E00300000000D0
:1054700000000000000000000000C007F00F381C12
:10548000181818000C00CC03EC0F3C0E1C1C0C1858
:105490000C180C18181C380EF007E0030000000070
:1054A00000000000000000000000FC1FFC1F000CBA
:1054B00000060006000380038001C001C000E00078
:1054C000600060007000300030003000000000001C
:1054D00000000000000000000000E003F007380EAC
:1054E000180C180C180C3806F007F007180C0C18DC
:1054F0000C180C180C18380CF80FE0030000000012
:1055000000000000000000000000E003F007380E7B
:105510001C0C0C180C180C181C1C381EF81BE0195D
:105520000018000C000C1C0EF807F0010000000031
:10553000000000000000000000000000000000006B
:105540000000000080018001000000000000000059
:105550000000000000000000800180010000000049
:10556000000000000000000000000000000000003B
:105570000000000080018001000000000000000029
:105580000000000000000000800180010001000117
:10559000800000000000000000000000000000008B
:1055A00000000000000000000010001C800FE0035D
:1055B000F8001800F800E003800F001C0010000045
:1055C00000000000000000000000000000000000DB
:1055D0000000000000000000F81F000000000000B4
:1055E000F81F0000000000000000000000000000A4
:1055F00000000000000000000000000000000000AB
:10560000000000000000000008003800F001C007A2
:10561000001F0018001FC007F0013800080000003C
:1056200000000000000000000000E003F80F180C6C
:105630000C180C180018000C000600038001C000B4
:10564000C000C00000000000C000C000000000005A
:10565000000000000000000000000000E007181833
:105660000420C229224A1144094409440944092258
:105670001113E20C024004201818E007000000009B
:105680000000000000000000000080038003C0064E
:10569000C006C006600C600C301830183018F83F97
:1056A000F83F1C700C600C6006C006C000000000D3
:1056B00000000000000000000000FC03FC0F0C0CC8
:1056C0000C180C180C180C0CFC07FC0F0C180C30E8
:1056D0000C300C300C300C18FC1FFC0700000000D4
:1056E00000000000000000000000C007F01F383874
:1056F0001C300C700660060006000600060006005E
:10570000060006600C701C30F01FE007000000006F
:1057100000000000000000000000FE03FE0F060E67
:1057200006180618063006300630063006300630F9
:10573000063006180618060EFE0FFE0300000000D5
:1057400000000000000000000000FC3FFC3F0C00D7
:105750000C000C000C000C00FC1FFC1F0C000C00CB
:105760000C000C000C000C00FC3FFC3F0000000093
:1057700000000000000000000000F83FF83F1800A3
:105780001800180018001800F81FF81F180018005B
:105790001800180018001800180018000000000079
:1057A00000000000000000000000E00FF83F3C781F
:1057B0000E6006E007C00300030003FE03FE03C003
:1057C00007C006C00EC03CF0F83FE00F000000002C
:1057D000000000000000000000000C300C300C3015
:1057E0000C300C300C300C30FC3FFC3F0C300C30DB
:1057F0000C300C300C300C300C300C300000000041
:105800000000000000000000000080018001800115
:105810008001800180018001800180018001800180
:105820008001800180018001800180010000000072
:105830000000000000000000000000060006000656
:105840000006000600060006000600060006000628
:105850000006180618063807F003E00100000000F3
:105860000000000000000000000006300618060CD2
:10587000060606038601C60066007600DE008E017D
:1058800006030606060C0618063006600000000037
:1058900000000000000000000000180018001800C0
:1058A0001800180018001800180018001800180038
:1058B0001800180018001800F81FF81F000000005A
:1058C000000000000000000000000EE01EF01EF0CE
:1058D0001EF036D836D836D836D866CC66CC66CCEC
:1058E000C6C6C6C6C6C6C6C686C386C300000000F6
:1058F000000000000000000000000C301C303C30B4
:105900003C306C306C30CC30CC308C310C330C33C0
:105910000C360C360C3C0C3C0C380C3000000000F3
:1059200000000000000000000000E007F81F1C3825
:105930000E70066003C003C003C003C003C003C0F1
:1059400003C006600E701C38F81FE007000000005E
:1059500000000000000000000000FC0FFC1F0C38DD
:105960000C300C300C300C300C18FC1FFC070C00F9
:105970000C000C000C000C000C000C0000000000DF
:1059800000000000000000000000E007F81F1C38C5
:105990000E70066003E003C003C003C003C003C071
:1059A00007E006630E3F1C3CF83FE0F700C0000034
:1059B00000000000000000000000FE0FFE1F06387F
:1059C0000630063006300638FE1FFE0706030606C0
:1059D000060C0618061806300630066000000000A7
:1059E00000000000000000000000E003F80F1C0CA5
:1059F0000C180C180C001C00F803E00F001E0038F7
:105A0000063006300E301C1CF80FE00700000000C6
:105A100000000000000000000000FE7FFE7F80010B
:105A2000800180018001800180018001800180016E
:105A30008001800180018001800180010000000060
:105A4000000000000000000000000C300C300C30A2
:105A50000C300C300C300C300C300C300C300C3066
:105A60000C300C300C301818F81FE0070000000054
:105A70000000000000000000000003600630063057
:105A800006300C180C180C18180C180C380E3006B0
:105A90003006700760036003C001C0010000000011
:105AA000000000000000000000000360C361C3614B
:105AB000C3616633663366336633663366336C1BA5
:105AC0006C1B6C1B2C1A3C1E380E380E000000009C
:105AD000000000000000000000000FE00C70183013
