:020000040807EB
:1000000080E80020359F07085D521A00FF9A070814
:100010001DA1070821A1070825A10708000000006D
:1000200000000000000000000000000029A10708F7
:100030002DA107080000000031A1070835A107081D
:1000400039A107083DA1070841A1070845A10708F4
:1000500049A107084DA1070851A1070855A10708A4
:1000600059A107085DA1070861A1070865A1070854
:1000700069A107086DA1070871A1070875A1070804
:1000800079A107087DA1070881A1070885A10708B4
:1000900089A107088DA1070891A1070895A1070864
:1000A00099A107089DA10708A1A10708A5A1070814
:1000B000A9A10708ADA10708B1A10708B5A10708C4
:1000C000B9A10708BDA10708C1A10708C5A1070874
:1000D000C9A10708CDA10708D1A10708D5A1070824
:1000E000D9A10708DDA10708E1A10708E5A10708D4
:1000F000E9A10708EDA10708F1A10708F5A1070884
:10010000F9A10708FDA1070801A2070805A2070831
:1001100009A207080DA2070811A2070815A20708DF
:1001200019A207081DA2070821A2070825A207088F
:100130002DE9F04186B0F02000904FF4A07300222A
:10014000002102A806F0A8FF0246DFF8E44BDFF822
:10015000E40B01901F2000904FF6FF7352A1204640
:1001600005F023FFDFF8D05B2A46DFF8D01B2046DE
:1001700009F06FFF04F2101700F031F8DFF8C06BE0
:1001800000F032F8DFF8987C07F2840800F01DF8E0
:1001900000F020F804F2B81800F017F800F01AF890
:1001A00007F22C1700F01BF800F01EF804F260278D
:1001B00000F015F800F018F804F2083700F00FF816
:1001C00000F012F806B0BDE8F08104F124014046C9
:1001D00009F0EEBB2A463146404609F03ABF04F129
:1001E0002401384609F0E4BB2A463146384609F076
:1001F00030BF38B51446DFF82C2C02EB811505F121
:100200003801009105F1360305F134022146DFF88B
:10021000104CD4F88040A469A047E88E06214843DA
:10022000E88631BD10B582B00B461146DFF8F42BDD
:1002300002EB8312B2F938300093B2F9363006245B
:1002400093FBF4F31BB2928EDFF8D44BD4F88040CA
:100250006469A04713BD2DE9F04204460D4600260F
:10026000DFF8C00B00EB8517DFF8B49BDFF86C0CF0
:100270003018017A462906D000F018F810F1010F65
:1002800018BF27F81600761C202EEFDB042100F0A3
:100290000DF809EBC50108617A8FD2B229462046D4
:1002A000BDE8F042A5E70000000000002046D9F8B4
:1002B0008020126810470021CDE72DE9F0478146E4
:1002C0000026DFF8604BDFF8148CDFF8545B16F87B
:1002D000087007EB0800017A00F03DF9297B04EB78
:1002E000811121F81700761C052EF0DB1E2100F08D
:1002F00032F9297B05EBC10250610C2606FB015047
:100300000078002845D1082100F025F9297B04EB6D
:10031000811188820C2100F01EF9297B04EB8117E2
:10032000388306FB0150C07801282CD1B7F914009E
:1003300028B9B7F9181011B9B8875A2022E0B7F9CF
:10034000181000F045FC08F013FD08F0CFFFB88747
:10035000B7F9180009F0B0F88246B7F9140009F0AF
:10036000ABF8514607F037FCDFF8741B08F06CF867
:1003700008F04EFFDFF86C2BDFF86C3B06F068FDF1
:1003800008F0CAFEF887286A00F0E0F8E86A00F092
:10039000DDF8012100F0DFF887B24FEA104917B904
:1003A000B9F1000F08D0DFF88809B0F80011012971
:1003B0001CBF012105F077FF206F48B305F2840AC6
:1003C00097B1B9F1000F0FD100214183012180F8CD
:1003D0002210504606F090F8216F884215D0002177
:1003E000504606F095F810E0504606F085F8216F6B
:1003F000884204BF504606F04CF8206F4CF218615A
:10040000428B8A4204D001F0FBFC206F00F00BFA13
:10041000287B06FB005000214171790644BF022170
:1004200041714946490644BF012141710021817152
:10043000F90644BF022181714946C90644BF012122
:1004400081710021C171B90644BF0221C1714946C1
:10045000890644BF0121C17100210172F90744BF1F
:10046000022101724946C90744BF012101723906C0
:1004700044BF022101724946090644BF01210172AD
:1004800000214172790744BF022141724946490760
:1004900044BF0121417200218172B90744BF02218A
:1004A00081724946890744BF012181720021C172CE
:1004B000390744BF0221C1725FEA097144BF0121BB
:1004C000C172216F00292DD0407900F08FFF616D3E
:1004D00000F046F8807900F089FFA16D00F040F847
:1004E000C07900F083FFE16D00F03AF8007A00F087
:1004F0007DFF216E00F034F8407A00F077FF616EE6
:1005000000F02EF8807A00F071FFA16E00F028F85C
:1005100000F06BFFE16E4A8B824203D048830120DA
:1005200081F82000E06C00F011F8206D00F00EF86A
:10053000286F00F00BF8A86900F008F8686A00F06E
:1005400005F8286B00F002F8BDE8F08710B1012132
:1005500080F8201070474846D5F880201268104770
:100560004A8B824203D04883012081F82000287BF7
:1005700006FB00507047DFF8A818C1F880007047EC
:1005800000210A46511CC9B2125C002AF9D1084662
:100590007047F8B505461746DFF88468F567DFF859
:1005A000480A0160DFF888473946204605F0EBFE2F
:1005B0003846FFF7E5FFC119204605F0E7FE04F2D3
:1005C000101100F069F806F1840100F065F804F2FA
:1005D000B81100F061F806F22C1100F05DF804F299
:1005E000602100F059F804F2083100F055F80020BD
:1005F000307304F2C9170321F06FD6F88020126817
:100600009047C0B2012804D1002030700120387416
:1006100005E0012030700020387484F8C901002002
:1006200070700120B0700020F0707060B0602846DB
:10063000FFF741FEDFF8B409C4F80C0100212046A1
:1006400005F031FE2846D6F880100969884704F283
:100650007121020F092A03D0C0F30363092B02D1D1
:1006600001230B7403E000230B7484F8713204F24D
:1006700019310A2A03D0C0F303600A2802D10120ED
:10068000087403E00020087484F819030021022094
:10069000BDE8F44008F036B9204605F0E0BD10B5DD
:1006A0000024DFF87C17D1F8801009698847010F12
:1006B000C0F303626AB9092908BF01242FD00A29AF
:1006C00008BF02242BD0012901D0022927D10324FD
:1006D00025E0092902D10A2A07D103E00A2908D115
:1006E000092A06D10624092903D1022A07D0012AA2
:1006F00005D0092A04D1022901D0012900D10424FE
:100700000A2903D1022A09D0012A07D0C0F30360C5
:100710000A2804D1022901D0012900D1052420464C
:1007200010BD10B5DFF80846204605F032FE04F291
:10073000041008F073F8DFF8784C022008F029F96B
:1007400038B9208828B9002101F037FF0420208023
:1007500001E0208810B12088401E208010BD10B517
:10076000DFF8BC36806A1A7BDFF8B84604EB8212E9
:10077000801AC005DFF8642712EB1060007A462863
:1007800006D00A460146D86FD3F880309B68984758
:1007900010BD38B50C46FFF7E2FF00F022F859B162
:1007A000DFF8801601EB801044842146686C04F069
:1007B00036FC686C00F037F831BD38B50C46FFF7F1
:1007C000CEFF00F00EF859B1DFF8581601EB80109B
:1007D00084842146A86C04F022FCA86C00F023F865
:1007E00031BDDFF83C56287B0C2101FB0051097913
:1007F000704738B50C46FFF7B2FFDFF82456297B67
:100800000C2000FB0150007960B1286D50B1DFF879
:10081000142602EB8111CC84214604F000FC286DE3
:1008200000F001F831BD012180F8201070472DE95A
:10083000FC4700F0C8F902EB8115D0F88070C66F54
:100840000C2202FB0100C07810B1012803D01BE08C
:1008500000F064F815E000F066F800F068F800F0C9
:1008600086F800F070F800F07BF800F066F800F011
:100870006FF808F051FC00F04AF808F04DFC2A46E9
:1008800001B230463B6A9847BDE8F3872DE9FC4743
:1008900000F04AFADFF88C8508EB80150C214843FC
:1008A000D4F88070E66F0119C97811B1012913D00D
:1008B0002BE0005D68B9304639698847800624D549
:1008C000207B08EB8010B0F91820412101F057FE81
:1008D0001BE000F023F815E000F025F800F027F801
:1008E00000F045F800F02FF800F03AF800F025F895
:1008F00000F02EF808F010FC00F009F808F00CFCED
:100900002A4601B230463B6A9847BDE8F38705B2F4
:100910004A4653462046414606F098BEB5F918208F
:10092000B5F914107047B5F93E0008F0DDBDDFF8E9
:10093000B425DFF8B43506F089BE81468A46B5F99C
:100940003C0008F0D1BD04468846012206F01CB9DF
:1009500004468846DDE900012246434606F076BE9D
:10096000CDE9000100222046414606F00DB90022E3
:10097000DFF84C3A06F06CBA10B500F0D5F9DFF8A4
:10098000A42402EB80125187528FD2B2014601F0AB
:1009900015FCE06DFFF747FF206E80F82010606EB9
:1009A00080F8201010BDDFF87834187BDFF874244D
:1009B00002EB8012918607E0DFF86434187BDFF8E1
:1009C000642402EB8012D186528FD2B20146D86FD6
:1009D00028E4DFF84C34187BDFF8482402EB80125F
:1009E0001187F1E72DE9F041DFF83444E06947F67B
:1009F000FF75DFF83074DFF8CC890C26217B06FB0D
:100A00000141C97811B101292AD04DE0414603F0D6
:100A1000B8FF08F10801A06A03F0B3FF00F057F82F
:100A200000F2140000F04EF8183000F045F848F2DB
:100A300001018186C586E06A8186C586207B06FB2A
:100A40000040007850B900F0CBFC8006E06A28D462
:100A5000002180F8221080F8211025E0E06A20E0D3
:100A600008F1100103F08DFF08F11801A06A03F0EE
:100A700088FF00F02CF800F23C0000F023F800F2B0
:100A80003E0000F019F801F0B7F9E06A818640F203
:100A90006711C186E06A217B06FB014109780029C4
:100AA000D7D0012180F82210206AFFF7BCFEE06A4F
:100AB00080F82010BDE8F081E16A81F83320886277
:100AC000206A7047216A042281F833208862207BE3
:100AD00007EB801070472DE9F84F00F074F802EB37
:100AE0008116DFF80044DFF800540C2202FB0100FD
:100AF000C07810B101283AD063E00027DFF8C09831
:100B0000B6F93C0008F0F0FC82468B46B6F93E0090
:100B100008F0EAFC22462B4606F098FD00224B46E0
:100B200006F096F93A4606F02FF801F0CFFD08F0EE
:100B3000F3FAB082B6F93C0008F0D6FC82468B4648
:100B400001229046B6F93E0008F0CEFC22462B4624
:100B500006F07CFD3A464B4606F07AF9424606F02E
:100B600013F801F0B3FD08F0D7FA308329E0B6F9A5
:100B7000140028B9B6F9181011B9B0875A201FE02F
:100B8000B6F9181000F024F808F0F2F808F0AEFBFF
:100B9000B087B6F9180008F08FFC0746B6F91400C4
:100BA00008F08AFC394607F016F8CD4907F04CFCEE
:100BB00008F02EFB22462B4606F04AF908F0ACFA64
:100BC000F087BDE8F18F9648017BDFF8982C7047DD
:100BD000494300FB001008F06FBC80B5DFF8880CBB
:100BE000017B0C2202FB0101806D008EC870FFF7B3
:100BF00072FFBDE80140F5E638B58949087B0C2253
:100C000042438848006C008E5054D1F88030C86F41
:100C1000DFF8584C04F2C915515C012902BF0021CC
:100C2000297484F8C9111CBF012129740A460321C3
:100C300001F0A0BCF8B57A4C217B0C2202FB0142EA
:100C4000E16F784B5F6CDFF8A053DFF8246CB8429B
:100C50000AD197F8307057700846FFF720FD56F814
:100C600020003A5C00210AE0986C90F83070977090
:100C70000846FFF714FD56F820003A5C0121286869
:100C8000D4F88030DB6901B0BDE8F040184770B59A
:100C9000C9B200F049F80C2202FB004001714D1E60
:100CA000AD41ED0F606C80F8225004BF002280F847
:100CB0002120A06C80F8225015B9002280F8212054
:100CC00001B3DFF8A06B207B06EB8010818B4184A1
:100CD000C18B8184018CC184B0F92210606C04F056
:100CE000B3F9207B06EB8010B0F92410A06C04F05F
:100CF000ABF9206D30B1217B06EB8111B1F92610E3
:100D000004F0A2F9606CFFF78EFDA06C80F8201053
:100D1000206D40B180F8225015B9002180F82110D3
:100D2000206DFFF780FD70BDDFF83C4B207B7047E6
:100D300090E900207CE90020F0EF002053A2070892
:100D400051A2070810B50C4600F06EF8052C17D814
:100D5000DFE804F00306090C1014BDE81040C5E0FC
:100D6000BDE8104048E1BDE8104057E3BDE8104041
:100D700000F0BABDBDE8104001F049B801F058FAE2
:100D800010BD70B584B000F05EFD0600DFF8EC5ACF
:100D90000AD014200090A023DFF8E42A294600F0AE
:100DA00081FD00F0DFFF00E000261D4CA66600F08C
:100DB0004AFD38B10F2100910523A26E05F108010B
:100DC00003F0AFFDE066402008F040FD58B100F0B0
:100DD00076FDA16E0091062382A2217B04EBC10166
:100DE000143103F0B9FD206700F029FD38B141212D
:100DF00000910523A26E05F1180103F080FD6067E4
:100E000000F021FD28B11E2100913C23A26E00F0CC
:100E100013FDA067606FDFF8701A41627FBD0000AC
:100E200040ED002014EF002038B5DFF8405A05F2FD
:100E3000101005F017FBDFF8304A04F1840005F0CC
:100E400011FB05F2B81005F00DFB04F22C1005F0B3
:100E500009FB05F2602005F005FB05F2083005F0FE
:100E600001FBDFF8000A0021016441648164C16470
:100E7000016541658165C165016641668166C1663E
:100E80000167DFF8101A00220A604A608A60CA60AF
:100E90000A614A618A61A261CA610A62E2612262F0
:100EA0006262A262E26222636263A263E26322641C
:100EB0006264A264E26422656265A2654267826739
:100EC0004A628A62E26522666266CA62C267A26696
:100ED000E26622676267A26731BD00007079070889
:100EE000000034431F85EB51B81E09402DE9F84F2F
:100EF00000F0A9FCDFF8A049DFF8A08938B1032190
:100F000000F076F8414603F00CFD064600E00026AE
:100F100000F099FC40B11E2100F06AF808F10C01C4
:100F200003F0FFFC074600E0002700F08CFC40B116
:100F30003C2100F05DF808F1340103F0F2FC0546B5
:100F400000E0002500F07FFC40B14B2100F050F89C
:100F500008F1580103F0E5FC814601E04FF000097B
:100F600000F071FC40B15A2100F042F808F17C0118
:100F700003F0D7FC824601E04FF0000A00F063FC6A
:100F800040B1B42100F034F808F1A00103F0C9FC2D
:100F9000834601E04FF0000B00F055FC40B1732197
:100FA00000F026F808F1C00103F0BBFC044600E0A5
:100FB0000024DFF8E48801F031F9394601F02BF91B
:100FC000294601F028F9494601F025F9514601F07A
:100FD00022F901F01FF921464046BDE8F44F05F023
:100FE00035BA000025366400E8EF0020450D0708FB
:100FF00000910523224670472DE9F04F87B0DFF8B6
:101000006C08002180F8311180F8211100F01BFCE0
:10101000DFF8544804F284010391DFF8848838B182
:1010200000F05CFC08F1500103F07BFC824601E01B
:101030004FF0000A00F007FC38B100F0CDFE08F1D7
:10104000680103F06EFC074600E0002700F087FE11
:1010500030B1212100F0C1FE08F22C1108F0FAF99C
:10106000DFF80058286400F0EEFB0646DFF8E89C45
:101070007EB1352000F02EFC08F1740100F012FC66
:1010800009F1080030603C229B2100F070FE0496BC
:1010900000E0049000F0D7FB38B1112100910F233C
:1010A000049A08F1880103F03CFC00F0CBFB38B156
:1010B000252100910F23049A08F1940103F031FCDB
:1010C00000F04CFEBBA620B10F2100F093F903F015
:1010D00031FCE86400F043FE28B1232100F08AF9D6
:1010E000891C03F027FC286500F0ADFB064676B1AD
:1010F00014200090CD23039A08F1A00100F0D2FB48
:1011000009F108003060AA22642100F030FE00F0EE
:101110009AFB28B100F0D8FB08F1A80103F001FC0C
:10112000686500F090FB30B1212100F0CEFB08F1A2
:10113000B40103F0F6FBA86500F085FB30B1332164
:1011400000F0C3FB08F1C00103F0EBFBE86500F021
:101150007AFB30B1452100F0B8FB08F1CC0103F077
:10116000E0FB286600F06FFB30B1572100F0ADFBCB
:1011700008F1D80103F0D5FB686600F064FB30B1DC
:10118000692100F0A2FB08F1E40103F0CAFBA866A4
:1011900000F059FB30B17B2100F097FB08F1F00122
:1011A00003F0BFFBE86600F04AFB30B18D2100F090
:1011B000F8FD08F1FC0103F0A2FB2867DFF8F81B3B
:1011C00041624CF2186100F01BFE04F2840B296F9F
:1011D00000F0FFF8514600F0FCF800F0F9F8296C37
:1011E00000F0F7F84FF00C0A00F0F6F80178286CE0
:1011F00008F03AFC00F0F4F8C00667D500F023FBD5
:10120000070010D000F065FB08F20811384603F023
:101210008AFB09F1080038603C22BE21384605F0FF
:10122000F3FF019701E00020019000F00CFB40B1BA
:10123000112100910523019A5FA103F072FB07467B
:1012400000E0002700F0FFFA40B1252100910523BE
:10125000019A5AA103F065FB814601E04FF00009B5
:1012600000F07DFD029028B1E06FFFF718FA0F2122
:1012700000F0CBF8686400F072FD029028B1E06FD6
:10128000FFF70DFA232100F0C0F8A864019900F0DF
:10129000A0F800F09DF8494600F09BF8696C00F05A
:1012A00098F8A96C00F095F800F096F84178686C11
:1012B00008F0DAFB00F090F88178A86C08F0D4FB15
:1012C000DFF8FC0A696C4862A96C4862049900F076
:1012D00080F8069900F07DF8059900F07AF8E96C3D
:1012E00000F077F8296D00F074F8E86C00F089FDE3
:1012F000286D00F04CFD010F022903D0C0F30360FC
:10130000022811D100F09BFA30B1B22100F065FD46
:1013100008F2181103F0F3FAE867014600F059F8F3
:10132000E86FDFF8A01A4162314600F052F8696DAB
:1013300000F04FF8A96D00F04CF8E96D00F049F8A5
:10134000296E00F046F8696E00F043F8A96E00F0CF
:1013500040F8E96E00F03DF800F03EF8417900F009
:1013600033F86A6D5183817900F02EF8AA6D5183AC
:10137000C17900F029F8EA6D5183017A00F024F870
:101380002A6E5183417A00F01FF86A6E5183817A88
:1013900000F01AF8AA6E518300F027F8E96E48832E
:1013A000286CDFF8281A4162584600F0D8BE0000C9
:1013B0000CF000202533640043683100436832009C
:1013C00000806640788C070808EB4101898D7047E2
:1013D0003946584605F03AB8207B0AFB0040704772
:1013E000E06FD4F8801009690847C07A08EB400024
:1013F000808D704702916E21019104990091032321
:101400003246217B05EB8111704700912123019A1F
:1014100008EB8000416B029808F01CB82DE9F04FF2
:1014200089B000F010FADFF8448408F2B811039193
:10143000DFF8A09920B100F051FA494603F071FAA3
:10144000089000F000FA060009D0142000F042FADB
:1014500009F1140100F026FA00F084FC00E00026F7
:1014600000F0F1F920B11E2100913C2300F0E3F9D6
:10147000079000F0E8F920B1412100913C2300F0F1
:10148000D6F900F0DFF928B100F01EFA09F12001C9
:1014900003F047FA0590402008F0D8F9DFF8C87348
:1014A00050B100F00CFA00960623D1A2397B07EB6D
:1014B000C101103103F050FADFF8D84320603F211A
:1014C00000F0F8F90546402100F0F4F9216888633E
:1014D000CD6300F0B8F930B1322100F0F6F909F12E
:1014E000300103F01EFA049000F039FC48B14121AC
:1014F000029105210191009600F07CF9091D03F08D
:1015000019FA606000F08EFE00F099F938B14121BF
:1015100000915A23324609F1400103F0F0F9A0602E
:10152000DFF8801C4162FFF72CFC00F08CF90546C7
:1015300075B100F0CEF909F14801284603F0F3F93E
:10154000DFF8640C28604B226821284605F05CFE19
:1015500000F079F930B100F058FEC1A103F0E1F9D3
:10156000824601E04FF0000A00F06DF930B123210E
:1015700000F04CFE00F0E3FB834601E04FF0000B6F
:1015800000F0EDFB28B1142100F045F9891D03F0AE
:10159000D1F9E06000F0E3FB28B1232100F03BF932
:1015A000083103F0C7F9206108F2B818089900F073
:1015B00032FE079900F02FFE069900F02CFE00F095
:1015C0002DFE059900F027FE216800F024FE049905
:1015D00000F021FE616800F01EFEA16800F01BFE15
:1015E000B96E00F018FEF96E00F015FE396F00F0CC
:1015F00012FEB96F00F00FFE386F00F002FC796F39
:1016000000F009FE294600F006FE514600F003FEF8
:1016100000F000FEE16800F0FEFD216900F0FBFD36
:1016200000F043F9800723D500F00DF938B13221DD
:1016300000F0ECFD8FA103F074F9064600E00026EF
:1016400000F08DFB48B132210291282101910095D3
:1016500000F0D0F80A3103F06DF9606100F0DEFDB2
:10166000616900F0D8FD606900F0DCFD00F07CFDF0
:10167000E06800F0D7FD206900F0D4FD00F015F916
:10168000C00740F1AD8000F0DEF806000FD07320F7
:1016900000907D23039A09F1540100F003F9DFF86B
:1016A000080B30604B22B42100F061FB00E0002603
:1016B00000F0C9F840B10E2100F073FB09F164019C
:1016C00003F02FF9054600E0002500F0BCF848B112
:1016D0000E2100915023324609F1640103F021F9F3
:1016E000814601E04FF0000900F039FB0FF2881A43
:1016F00038B1192102910A2100F0A8F80C3103F049
:1017000019F9A06100F02BFB38B119210291502189
:1017100000F09CF80E3103F00DF9B86100F093F879
:1017200020B12C2100F041FB824601E04FF0000A7D
:1017300000F089F838B12C2100915023324600F096
:10174000FEFA834601E04FF0000B00F008FB38B1D1
:10175000372102910A2100F054F8103103F0EAF821
:10176000E06100F0FCFA38B137210291502100F01D
:1017700048F8123103F0DEF8206200F04FFD2946F0
:1017800000F049FD494600F046FDA16900F043FD27
:10179000B96900F040FDB86900F033FB514600F034
:1017A0003AFD00F037FDE16900F035FD216A00F0F7
:1017B00032FDA069002181864FF47A71C186E1690A
:1017C00000228A8647F6FF72CA86226A0023938621
:1017D00047F6FF73D386DFF84C3D43624B6253629A
:1017E00000F0C2FC20694162404609B000F0B8BC7C
:1017F00025366400062323A2397B1A4D05EB81119F
:1018000070470191009606231EA2397BDFF854C071
:101810000CEB81117047029128210191009506235C
:1018200018A2397BDFF83CC00CEB811170473246BF
:1018300016A103F076B8324615A103F072B8302035
:1018400008F004B80690282008F000B8019100962E
:1018500004235246397BDFF80CC00CEB8111704732
:101860004B50000014EF002040ED002090E90020D4
:10187000309A07084B440000253464002898070874
:10188000B4E9002025366400BB2507086D7300000D
:1018900072706D0094EF0020A0EA0020B481070868
:1018A00070790708304603F03EB8F86FD7F880101B
:1018B00009690847F86FD7F88020126810471E2181
:1018C00002910521019170470F21009105233246B5
:1018D0007047732000900A23039A704700210091FB
:1018E0000023039A704700002DE9F04F8BB0FFF7FB
:1018F000AAFFDFF8384C04F22C1ADFF870BC38B1BC
:1019000000210091002352460BF1200103F009F859
:101910000A90FFF798FF38B187210091E6235246DD
:101920000BF1340102F0FDFF0990FFF78CFF070077
:101930000BD0142000900A2352460BF13C0138468C
:1019400002F0F1FF00F015FC00E00027FFF77BFF3D
:1019500020B100F055FC594602F0E3FFE06100F0D1
:10196000FEF9DFF8288C0FF2800930B100F03CFC62
:1019700000F005FA143102F0DDFF2062FFF763FF8B
:1019800020B100F038FC19A102F0CBFF089000F064
:10199000E6F930B100F021FC00F0F1F9163102F067
:1019A000C9FF6062FFF74FFF30B1322100F029FC20
:1019B0000BF1080102F0B5FFA06200F0D0F930B1E0
:1019C00000F005FC00F0DAF9183102F0B3FFE06234
:1019D000FFF739FF60B1322100F00EFCD9A102F00F
:1019E000A0FF054605E000BF2536640049710000F0
:1019F000002500F0B4F930B100F0E3FB00F0BEF9CF
:101A00001A3102F097FF2063FFF71DFF06466EB103
:101A1000732000900A2352460BF14801FFF742FF62
:101A200000F092F900F0A3F9039600E00390FFF7AD
:101A30000AFF20B100F0D0F9C6A102F072FF0790B2
:101A400000F08DF928B1142100F0CBF91C3102F01F
:101A500071FF6063FFF7F7FE20B1232100F0BDF9AD
:101A600000F06DF9069000F07AF928B1232100F01A
:101A7000B8F91E3102F05EFFA063FFF7E4FE0646F0
:101A80005EB173200090782352460BF15801FFF7A6
:101A900009FF00F059F900F06AF9FFF7D4FE10B120
:101AA000142100F082F900F059F928B1142100F056
:101AB00061F9223102F03EFF6064FFF7C4FE18B105
:101AC00000F06EF900F03BF9049000F048F928B1FD
:101AD000232100F04FF9243102F02CFFA064FFF71E
:101AE000AEFE38B173210091E62352460BF1680136
:101AF00002F00CFF606500F032F938B196210091D8
:101B0000E62352460BF1700107F0A4FCA065FFF735
:101B100038F90A9900F038F9099900F035F9394691
:101B200000F032F9E16900F02FF9216A00F02CF998
:101B3000089900F029F9616A00F026F9606A00F05E
:101B400060F9A16A00F020F9E16A00F01DF9294668
:101B500000F01AF9216B00F017F9206B00F051F931
:101B6000A16E00F011F9E16E00F00EF9216F00F0A6
:101B70000BF9A16F00F008F9206F00F042F9616FD6
:101B800000F002F94FF00C0B207B0BFB00400779B3
:101B9000039900F0F9F8079900F0F6F8616B00F08E
:101BA000F3F8069900F0F0F8A16B00F0EDF8606B27
:101BB000DFF8B81A4162A06BDFF8B41A416247F649
:101BC000FF75FFF70DFC40071FD5FFF73CFE28B15E
:101BD000322100F002F979A102F0A3FEE06300F0E7
:101BE000BEF828B1322100F0FCF8203102F0A2FE4C
:101BF0002064E16B00F0C8F8216C00F0C5F8206C9F
:101C000000F0FAF8DFF86C1A4162606B00F0F4F84B
:101C1000A06B8186C586314600F0B6F8059900F0C4
:101C2000B3F8616C00F0B0F8049900F0ADF8A16C65
:101C300000F0AAF8781E8041C00F8DF80C00FFF765
:101C4000CFFB000726D5FFF7FEFD28B1322100F0BB
:101C5000A8F85AA102F065FEE06400F080F828B10F
:101C6000322100F087F8263102F064FE2065E16C35
:101C700000F08AF8216D00F087F8206D00F0BCF8C4
:101C80009DF80C1080F8221009B980F82110206D01
:101C900000F06BFA606C00F0AFF8A06C8186C5862E
:101CA000616D00F071F8A16D00F06EF8207B0BFB08
:101CB0000040C178A06D07F0D7FEFEF793FE656D7A
:101CC0006A6A100005D095F8210010B139462846FF
:101CD000904785F82C709DF80C00616C81F822000B
:101CE00010B9002281F82120A16C81F8220008B9E6
:101CF00081F82100A06DDFF880194162606DDFF886
:101D00007C194162206ADFF878194162E16ADFF8E4
:101D100074294A62616CDFF80C284A62A16C4A623D
:101D2000217B0BFB0141097831B900F030F88006C6
:101D300002D4E06A00F065F850460BB010E222A130
:101D400002F0EFBD49640000DFF83C0930604B222F
:101D5000682170474B5000005097070805903820C5
:101D600007F074BDDFF8200930605A229121304617
:101D700005F04ABA029128210191009606234A46AD
:101D8000217B08EB81117047504604F05FBB80F85F
:101D9000221080F82110E06FD4F8801009690847FC
:101DA000232100910A233246704700910A233246CC
:101DB00007A102F0B6BD0000652507084B440000EE
:101DC000350C0708AD2507084B490000F90B07083B
:101DD0004B500000C48E0708142100910A23039A77
:101DE00070470291282101910399009106234A46E8
:101DF000217B08EB8111704700218186C5867047E1
:101E00004183002180F8221080F8211070472DE9CD
:101E1000F04F87B000F07FFB0546DFF8708808F2CE
:101E200060200490DFF86898280F09280CD1FFF78C
:101E30000AFD40B1002100910023049A494602F0B6
:101E400070FD064600E00026C5F3036009280DD1A9
:101E5000FFF7F9FC48B1002100910023049A09F131
:101E60001C0102F05EFD064600E0002605F0400081
:101E70008DF80C0050B1FFF7E6FC0746A7B114201F
:101E800000900A23049A09F1400108E0FFF7DBFC07
:101E900007464FB1142000900A23049ABEA1384689
:101EA00002F041FD00F065F9FFF7CDFC20B100F034
:101EB000A7F9BAA102F035FDFFF750FFDFF8CCA675
:101EC00030B100F091F900F061F9283102F032FDF3
:101ED000CAF87400FFF7B7FC30B100F08CF9B0A17C
:101EE00002F01FFD834601E04FF0000BFFF737FFC4
:101EF00030B100F072F900F049F92A3102F01AFD10
:101F0000CAF87800FEF73DFF08F2602800F086F975
:101F1000394600F080F9059900F07DF9DAF874107F
:101F200000F079F900F076F9DAF8781000F073F93A
:101F3000A04E9DF80C00002840D0FFF784FC30B183
:101F4000322100F05EF909F14C0102F0EAFC039045
:101F5000FFF705FF30B100F03AF900F016F9303123
:101F600002F0E8FC706200F0F5FA40B1322100F0B6
:101F700043F909F1540102F0D4FC834601E04FF02B
:101F8000000BFFF7ECFE30B100F01BF900F0FDF89C
:101F9000323102F0CFFCB06200F044F9039900F056
:101FA0003AF9716A00F037F900F034F9B16A00F0DB
:101FB00032F9706A00F0D9F8B06A4162A16E00F09F
:101FC0002AF9E16E00F027F9216F00F024F9A16FE2
:101FD00000F021F900F0B3FA280F092840F0B7808B
:101FE000FFF731FC050012D0732000900A23049AF9
:101FF00009F15C01284602F096FCDFF88C062860A7
:102000004B2240F22711284605F0FEF800E000259B
:10201000FFF719FC28B100F0F8F809F16C0102F0A3
:1020200080FCFFF79BFE28B1142100F0AAF83431A0
:1020300002F080FC00F08DFA30B1232100F0E6F8C8
:1020400009F1780102F06DFC0490FFF788FE28B1D9
:10205000232100F096F8363102F06CFC2066FFF781
:10206000F2FB30B1322100F0D1F809F1800102F029
:1020700058FC0390FFF773FE28B1322100F081F87D
:10208000383102F057FC6066FFF7DDFB48B11421E0
:102090000091B4232A4609F1880102F042FC8146EE
:1020A00001E04FF00009FFF75AFE58B114210291E8
:1020B000E6210191009503233CA200F068F83A3133
:1020C00002F038FCF06200F020FAF16A00F030FA19
:1020D00038B1142100918C232A46FFF7A9FB07464B
:1020E00000E00027FFF7AFFB38B1232100918C23DC
:1020F0002A46FFF7A1FB834601E04FF0000B217B4E
:102100000AEB811000F058F8F06A00F0F2F9394655
:1021100000F081F800F07EF8294600F07CF805997F
:1021200000F079F8E16D00F076F8049900F073F8AA
:10213000216E00F070F8039900F06DF8616E00F008
:102140006AF8494600F067F8F16A00F064F8DAF8D6
:10215000740000F00AF8DAF878004162404607B0EF
:10216000BDE8F04F04F095B9E068DFF8B8134162BC
:102170007047DFF8140538605A229121384605F07F
:1021800043B80291502101910095062308A2217BBA
:102190000AEB81117047000053544F004731000093
:1021A0004732000091250708589707082533640037
:1021B0002536640094EF0020428FD2B2E06FFEF724
:1021C00018B8412102915021019100977047412197
:1021D000029105210191009770471E210291502123
:1021E00001910097062370471E210291052101915C
:1021F0000097062370470F21009150233A467047FD
:102200000F21009105233A467047142100910A23BB
:102210002A4670475946404604F018B931464046B0
:1022200004F014B90021818647F6FF71C18670471A
:102230002DE9F04F85B000F06EF90546DFF84C84CB
:1022400008F2083003902E0F0A2E0CD1FFF7FBFA8C
:1022500038B1FFF743FBDFF83C1402F062FB824623
:1022600001E04FF0000AC5F303600A280CD1FFF724
:10227000EAFA38B1FFF732FBDFF81C1402F051FB29
:10228000824601E04FF0000AFFF7DDFA054675B11E
:102290001420FFF71FFBA4A1284602F044FBDFF83F
:1022A000E80328605A229121284604F0ADFFFFF789
:1022B000CAFA40B10F21009105232A46ACA102F0D1
:1022C00030FB814601E04FF00009FFF748FDAF4FBA
:1022D00038B1FFF7F4FA009500F005F92C3102F05F
:1022E00029FB7867FFF7AFFA40B10F210091502327
:1022F0002A46A5A102F015FB834601E04FF0000B32
:10230000FFF72DFD48B11E2102915021019100954A
:1023100000F0E9F82E3102F00DFBB867FEF731FD51
:1023200008F208385146FFF776FF2946FFF773FF9A
:102330004946FFF770FF796FFFF76DFFFFF76AFF00
:10234000B96FFFF768FFA16EFFF765FFE16EFFF75A
:1023500062FF216FFFF75FFFA16FFFF75CFF00F0E7
:10236000EEF80A2E40F0B380FFF76DFA06000DD0AC
:10237000FFF7AFFADFF82413FFF794FAC248306092
:102380004B2240F22711FFF7F2FC00E00026FFF796
:102390005AFA28B11421FFF704FDC14902F0C1FA2D
:1023A0000490FFF7DCFC28B1142100F098F83431D8
:1023B00002F0C0FA00F0CDF820B1FFF7F1FCB94906
:1023C00002F0AFFA0390FFF7CAFC28B1232100F016
:1023D00086F8363102F0AEFA2066FFF734FA38B1EB
:1023E0003221FFF7DEFCB04902F09BFA824601E0A1
:1023F0004FF0000AFFF7B3FC28B1322100F06FF86C
:10240000383102F097FA6066FFF71DFA40B11421E7
:102410000091B4233246A54902F083FA054600E054
:102420000025FFF79CFC58B114210291E62101918F
:10243000009603238BA200F058F83A3102F07AFAA2
:102440009B49C86200F061F89949C96A00F070F8C8
:1024500030B1142100918C23FFF7E9F9814601E0A6
:102460004FF00009FFF7EFF930B1232100918C23E1
:10247000FFF7E1F9834601E04FF0000B217B07EB0A
:102480008110FFF799FE8A48C06A00F032F8494689
:10249000FFF7C1FEFFF7BEFEFFF7C0FE0499FFF78E
:1024A000BAFEE16DFFF7B7FE0399FFF7B4FE216EA8
:1024B000FFF7B1FE5146FFF7AEFE616EFFF7ABFED0
:1024C0002946FFF7A8FE7A48C16AFFF7A4FE15481F
:1024D000796F4862B96F4862404605B040E60291A4
:1024E00050210191009606235FA2217B07EB811109
:1024F000704770494162E06D6F494162206E6F49DB
:102500004162606E6E49416270472221E06FD4F8EB
:102510008020126810476B4CE06FD4F88010096976
:10252000084700005F07070853544F0040ED0020A4
:1025300000228A86401EC886282007F087B9206FAF
:10254000002180F8221080F82110616F404603F0CE
:102550007DBFE0650021818647F6FF71C186282096
:1025600007F074B9574A072122E00000788C070869
:10257000473100009B6801B0BDE830401847E06F6C
:10258000D4F880309B6818474732000014EF0020D1
:102590004C4B187B4C4901EB80118A8803EBC0003F
:1025A0000169D86FD3F880305B681847454A082125
:1025B000D06FD2F88020D26810472DE9F04F83B059
:1025C000FEF7B2FB404901EB80150C214143D4F8E2
:1025D0008060E76F0A5D3AB9AA8804EBC000016920
:1025E00038467368984734E00819C07810B101285C
:1025F00003D02EE0FEF792F928E0FEF794F9FEF7FB
:1026000096F9FEF7B4F980468946012204F0BCFA37
:1026100082468B4600224046494604F0B5FACDE991
:102620000001B5F93C0006F05FFF8046894600F0E6
:102630004DF806F071FD05B242464B46DDE900015A
:1026400005F004F806F068FD2A4601B23846336A00
:1026500098470621E06FD4F88020D26803B0BDE827
:10266000F04F1047253364002536640093070708B0
:10267000BB070708F3070708DB0B07088F0C0708E1
:102680002F0807088D0807085897070890E90020C9
:10269000708307080084070820840708CC83070894
:1026A000DC830708E8830708F0830708F883070836
:1026B00094EF002079090708A7090708B909070856
:1026C000D309070840ED002014EF002052465B4676
:1026D00004F0BCBF0000000000000000000000008B
:1026E00000000000000000000000000000000000EA
:1026F00000000000000000000000000000000000DA
:102700000000000000008001800180018001800144
:1027100080018001800180018001800180018001B1
:1027200000000000800180010000000000000000A7
:102730000000000000000000CC00CC00CC00CC0069
:10274000CC00CC00000000000000000000000000F1
:102750000000000000000000000000000000000079
:102760000000000000000000000000000000000069
:10277000600C600C600C30063006FE1FFE1F300639
:1027800038071803FE1FFE1F180318038C018C0165
:102790008C01000000008000E003F80F9C0E8C1CF0
:1027A0008C188C009800F801E007800E801C8C18B3
:1027B0008C189C18B80CF00FE0038000800000001B
:1027C000000000000000000000000E181B0C110C9F
:1027D00011061106110311039B018E01C038C06C54
:1027E00060446044304430441844186C0C38000095
:1027F000000000000000E001F0033807180618068A
:102800003003F001F000F8009C310E33061E061C68
:10281000061C063FFC73F0210000000000000000D1
:1028200000000000000000000C000C000C000C0078
:102830000C000C0000000000000000000000000080
:102840000000000000000000000000000000000088
:10285000000000000000000200038001C000C00072
:102860006000600030003000300030003000300088
:102870003000300060006000C000C0008001000334
:1028800000020000000020006000C0008001800104
:10289000000300030006000600060006000600060E
:1028A000000600060003000380018001C0006000F4
:1028B00020000000000000000000000000000000F8
:1028C000C000C000D806F807E00130033807000058
:1028D00000000000000000000000000000000000F8
:1028E00000000000000000000000000000000000E8
:1028F00080018001800180018001FC3FFC3F80015C
:1029000080018001800180010000000000000000C3
:1029100000000000000000000000000000000000B7
:1029200000000000000000000000000000000000A7
:102930000000000000008001800100010001800013
:102940000000000000000000000000000000000087
:10295000000000000000000000000000E007E007A9
:102960000000000000000000000000000000000067
:102970000000000000000000000000000000000057
:102980000000000000000000000000000000000047
:10299000000000000000C000C000000000000000B7
:1029A000000000000000000C000C000600060006FD
:1029B0000003000300038003800180018001C00048
:1029C000C000C000600060000000000000000000C7
:1029D000000000000000E003F007380E180C0C188F
:1029E0000C180C180C180C180C180C180C180C18C7
:1029F000180C380EF007E003000000000000000093
:102A000000000000000000018001C001F0019801F9
:102A100088018001800180018001800180018001A6
:102A200080018001800180010000000000000000A2
:102A3000000000000000E003F80F180C0C180C1840
:102A400000180018000C000600038001C0006000A0
:102A500030001800FC1FFC1F0000000000000000F8
:102A6000000000000000E001F807180E0C0C0C0C30
:102A7000000C0006C003C007000C001800180C185A
:102A80000C18180CF807E00300000000000000001C
:102A9000000000000000000C000E000F000F800D71
:102AA000C00C600C600C300C180C0C0CFC3FFC3F94
:102AB000000C000C000C000C0000000000000000E6
:102AC000000000000000F80FF80F180018000C00BC
:102AD000EC03FC071C0E001C0018001800180C1852
:102AE0001C0C180EF807E0030000000000000000B6
:102AF000000000000000C007F00F381C1818180074
:102B00000C00CC03EC0F3C0E1C1C0C180C180C1801
:102B1000181C380EF007E003000000000000000061
:102B2000000000000000FC1FFC1F000C0006000657
:102B3000000380038001C001C000E000600060006D
:102B40007000300030003000000000000000000085
:102B5000000000000000E003F007380E180C180C0D
:102B6000180C3806F007F007180C0C180C180C1885
:102B70000C18380CF80FE003000000000000000003
:102B8000000000000000E003F007380E1C0C0C18D9
:102B90000C180C181C1C381EF81BE0190018000C2F
:102BA000000C1C0EF807F0010000000000000000FF
:102BB0000000000000000000000000000000000015
:102BC0008001800100000000000000000000000003
:102BD00000000000800180010000000000000000F3
:102BE00000000000000000000000000000000000E5
:102BF00080018001000000000000000000000000D3
:102C00000000000080018001000100018000000040
:102C100000000000000000000000000000000000B4
:102C2000000000000010001C800FE003F8001800F6
:102C3000F800E003800F001C0010000000000000FE
:102C40000000000000000000000000000000000084
:102C500000000000F81F000000000000F81F000046
:102C60000000000000000000000000000000000064
:102C70000000000000000000000000000000000054
:102C80000000000008003800F001C007001F001815
:102C9000001FC007F001380008000000000000001D
:102CA000000000000000E003F80F180C0C180C18CE
:102CB0000018000C000600038001C000C000C00026
:102CC00000000000C000C000000000000000000084
:102CD0000000000000000000E00718180420C229CE
:102CE000224A114409440944094409221113E20CFF
:102CF000024004201818E007000000000000000057
:102D000000000000000080038003C006C006C0066B
:102D1000600C600C301830183018F83FF83F1C7009
:102D20000C600C6006C006C000000000000000003F
:102D3000000000000000FC03FC0F0C0C0C180C1829
:102D40000C180C0CFC07FC0F0C180C300C300C3061
:102D50000C300C18FC1FFC070000000000000000F5
:102D6000000000000000C007F01F38381C300C7055
:102D70000660060006000600060006000600066063
:102D80000C701C30F01FE007000000000000000085
:102D9000000000000000FE03FE0F060E06180618D5
:102DA000063006300630063006300630063006188B
:102DB0000618060EFE0FFE030000000000000000D3
:102DC000000000000000FC3FFC3F0C000C000C0069
:102DD0000C000C00FC1FFC1F0C000C000C000C0075
:102DE0000C000C00FC3FFC3F000000000000000055
:102DF000000000000000F83FF83F1800180018001D
:102E000018001800F81FF81F180018001800180004
:102E10001800180018001800000000000000000052
:102E2000000000000000E00FF83F3C780E6006E074
:102E300007C00300030003FE03FE03C007C006C073
:102E40000EC03CF0F83FE00F000000000000000062
:102E50000000000000000C300C300C300C300C3046
:102E60000C300C30FC3FFC3F0C300C300C300C3084
:102E70000C300C300C300C30000000000000000062
:102E800000000000000080018001800180018001BD
:102E9000800180018001800180018001800180012A
:102EA000800180018001800100000000000000001E
:102EB00000000000000000060006000600060006F4
:102EC00000060006000600060006000600061806BA
:102ED00018063807F003E0010000000000000000C1
:102EE00000000000000006300618060C0606060367
:102EF0008601C60066007600DE008E010603060627
:102F0000060C0618063006600000000000000000F5
:102F10000000000000001800180018001800180039
:102F200018001800180018001800180018001800E1
:102F300018001800F81FF81F000000000000000033
:102F40000000000000000EE01EF01EF01EF036D85B
:102F500036D836D836D866CC66CC66CCC6C6C6C699
:102F6000C6C6C6C686C386C30000000000000000B7
:102F70000000000000000C301C303C303C306C3055
:102F80006C30CC30CC308C310C330C330C360C36EE
:102F90000C3C0C3C0C380C30000000000000000021
:102FA000000000000000E007F81F1C380E700660EB
:102FB00003C003C003C003C003C003C003C0066056
:102FC0000E701C38F81FE007000000000000000031
:102FD000000000000000FC0FFC1F0C380C300C300F
:102FE0000C300C300C18FC1FFC070C000C000C0003
:102FF0000C000C000C000C000000000000000000A1
:10300000000000000000E007F81F1C380E7006608A
:1030100003E003C003C003C003C003C007E00663AE
:103020000E3F1C3CF83FE0F700C00000000000002D
:10303000000000000000FE0FFE1F063806300630BC
:1030400006300638FE1FFE0706030606060C0618A5
:103050000618063006300660000000000000000080
:10306000000000000000E003F80F1C0C0C180C1806
:103070000C001C00F803E00F001E0038063006307C
:103080000E301C1CF80FE0070000000000000000DC
:10309000000000000000FE7FFE7F800180018001B3
:1030A0008001800180018001800180018001800118
:1030B000800180018001800100000000000000000C
:1030C0000000000000000C300C300C300C300C30D4
:1030D0000C300C300C300C300C300C300C300C3010
:1030E0000C301818F81FE007000000000000000076
:1030F00000000000000003600630063006300C18A7
:103100000C180C18180C180C380E30063006700706
:1031100060036003C001C001000000000000000067
:103120000000000000000360C361C361C361663337
:10313000663366336633663366336C1B6C1B6C1BFD
:103140002C1A3C1E380E380E000000000000000053
:103150000000000000000FE00C7018303018700CF8
:10316000600EC00780038003C003E006700C301CB3
:1031700018180C300E6007E000000000000000008E
:1031800000000000000003C006600C301C38381836
:10319000300C6006E007C0038001800180018001DF
:1031A000800180018001800100000000000000001B
:1031B000000000000000FC7FFC7F00600030001871
:1031C000000C000600038001C00060003000180001
:1031D0000C000600FE7FFE7F0000000000000000E3
:1031E000000000000000E003E003600060006000F9
:1031F00060006000600060006000600060006000CF
:103200006000600060006000600060006000E0033B
:10321000E00300000000300030006000600060004B
:10322000C000C000C000C001800180018001000317
:10323000000300030006000600000000000000007C
:10324000000000000000E003E003000300030003AF
:103250000003000300030003000300030003000356
:103260000003000300030003000300030003E00366
:10327000E003000000000000C001C0016003600323
:10328000600330063006180C180C00000000000027
:10329000000000000000000000000000000000002E
:1032A000000000000000000000000000000000001E
:1032B000000000000000000000000000000000000E
:1032C000000000000000FFFFFFFF00000000000002
:1032D0000000000000000C000C000C000C000C00B2
:1032E0000C000000000000000000000000000000D2
:1032F00000000000000000000000000000000000CE
:1033000000000000000000000000000000000000BD
:10331000F003F8071C0C0C0C000FF00FF80C0C0C51
:103320000C0C1C0FF80FF01800000000000000004B
:103330000000000000001800180018001800180015
:10334000D803F80F380C1818181818181818181867
:103350001818380CF80FD803000000000000000017
:10336000000000000000000000000000000000005D
:10337000C003F007300E180C1800180018001800D1
:10338000180C300EF007C003000000000000000021
:1033900000000000000000180018001800180018B5
:1033A000C01BF01F301C18181818181818181818F7
:1033B0001818301CF01FC01B0000000000000000A7
:1033C00000000000000000000000000000000000FD
:1033D000C003F00F300C1818F81FF81F1800180061
:1033E0003818301CF00FC00700000000000000007B
:1033F000000000000000800FC00FC000C000C0002F
:10340000F007F007C000C000C000C000C000C0004E
:10341000C000C000C000C0000000000000000000AC
:10342000000000000000000000000000000000009C
:10343000E00DF80F180E0C0C0C0C0C0C0C0C0C0CFA
:103440000C0C180EF80FE00D000C0C0C1C06F80705
:10345000F001000000001800180018001800180003
:10346000D807F80F381C1818181818181818181832
:10347000181818181818181800000000000000008C
:10348000000000000000C000C000000000000000BC
:10349000C000C000C000C000C000C000C000C0002C
:1034A000C000C000C000C00000000000000000001C
:1034B000000000000000C000C0000000000000008C
:1034C000C000C000C000C000C000C000C000C000FC
:1034D000C000C000C000C000C000C000C000F800B4
:1034E0007800000000000C000C000C000C000C0028
:1034F0000C0C0C060C038C01CC006C00FC009C0135
:103500008C030C030C060C0C0000000000000000F3
:10351000000000000000C000C000C000C000C000EB
:10352000C000C000C000C000C000C000C000C0009B
:10353000C000C000C000C00000000000000000008B
:10354000000000000000000000000000000000007B
:103550007C3CFF7EC7E383C183C183C183C183C138
:1035600083C183C183C183C100000000000000004B
:10357000000000000000000000000000000000004B
:103580009807F80F381C1818181818181818181851
:10359000181818181818181800000000000000006B
:1035A000000000000000000000000000000000001B
:1035B000C003F00F300C181818181818181818181D
:1035C0001818300CF00FC0030000000000000000CD
:1035D00000000000000000000000000000000000EB
:1035E000D803F80F380C18181818181818181818C5
:1035F0001818380CF80FD803180018001800180015
:1036000018000000000000000000000000000000A2
:10361000C01BF01F301C1818181818181818181884
:103620001818301CF01FC01B0018001800180018D4
:103630000018000000000000000000000000000072
:10364000B007F00370003000300030003000300070
:1036500030003000300030000000000000000000AA
:10366000000000000000000000000000000000005A
:10367000E003F003380E180C3800F003C007000C0C
:10368000180C380EF007E0030000000000000000F6
:1036900000000000000000008000C000C000C0006A
:1036A000F007F007C000C000C000C000C000C000AC
:1036B000C000C000C007800700000000000000003C
:1036C00000000000000000000000000000000000FA
:1036D000181818181818181818181818181818186A
:1036E0001818381CF01FE01900000000000000004E
:1036F00000000000000000000000000000000000CA
:103700000C18180C180C180C300630063006600324
:1037100060036003C001C001000000000000000061
:103720000000000000000000000000000000000099
:10373000C141C141C3616363636363633636363637
:1037400036361C1C1C1C1C1C000000000000000065
:103750000000000000000000000000000000000069
:103760001C38381C300C6006600360036003600383
:103770006006300C381C1C380000000000000000FF
:103780000000000000000000000000000000000039
:103790001830301830187018600C600CE00CC0063F
:1037A000C00680038003800380018001C001F00017
:1037B0007000000000000000000000000000000099
:1037C000FC1FFC1F000C000600038001C00060000D
:1037D00030001800FC1FFC1F00000000000000006B
:1037E00000000000000000038001C000C000C00015
:1037F000C000C000C00060006000300060004000F9
:10380000C000C000C000C000C000C00080010003B4
:103810000000000000008001800180018001800123
:103820008001800180018001800180018001800190
:103830008001800180018001800180018001800180
:103840008001000000006000C000C0018001800114
:1038500080018001800100030003000600030001D5
:10386000800180018001800180018001C000600032
:103870000000000000000000000000000000000048
:1038800000000000F010F81F080F0000000000000A
:103890000000000000000000000000000000000028
:1038A000000000002DE9F04FA5B017461C46DFF8D8
:1038B0007058D5E90023CDE91223049004AD696066
:1038C0000020A8620DF1500A6FF0004800E04F445C
:1038D0000020ADF8020012AB4FF0FF3239460DF177
:1038E000020006F095F88146B9F1010F08DA387840
:1038F000B0F1010969EB09096FEA09004FEAD079D3
:10390000BDF8020025280CBFA9F101024A46012A90
:103910000ADB394602A800F0D1FF002804D54FF099
:10392000FF3025B0BDE8F08FBDF80200252816D184
:10393000002028616861A861E8612862686217F860
:10394000011F202908D0232914D02B290BD02D2981
:103950000DD0302911D013E040F00100EFE700282E
:10396000B5D1A86ADDE740F0020080B2E7E740F099
:103970000400FAE740F00800F7E740F01000F4E731
:103980002A290DD12268111D21601168296300299F
:1039900004D54942296340F0040080B27F1C12E044
:1039A0000021296309E0296B414505D001EB810322
:1039B00002EB4301303929637F1C3A78A2F13001D0
:1039C000C9B20A29EFD339782E291CBF4FF0FF3135
:1039D000E9621DD117F8011F2A2906D12268111D9D
:1039E00021601168E9627F1C12E00021E96209E0B0
:1039F000E96A414505D001EB810302EB430130390F
:103A0000E9627F1C3A78A2F13001C9B20A29EFD3EA
:103A1000A8863978DFF8300C06F0A0F808B117F85E
:103A2000010B8DF846009DF84600682804D13878CF
:103A300068280AD1622005E06C2806D138786C2805
:103A400003D171208DF846007F1C14A8E8603A78F5
:103A50001046413800F0D180001F022840F2CD808E
:103A6000133800F08B80093800F0C780801E17D013
:103A7000401E39D0401E022840F2BF80001F33D0C4
:103A8000401F00F0E980401E78D0401E00F01281F7
:103A9000C01E00F01A81801E70D0C01E6ED036E1AC
:103AA0009DF846006C2809D02869411C29612268CC
:103AB000111D2160116800F80A102FE12168081D0E
:103AC00020600868ADF804000020ADF806004FF053
:103AD000FF30E86201A902A800F0B8F9002840F11F
:103AE0001D814FF0FF301AE19DF846006C280FD081
:103AF00071280BD12068C01D20F00700206003460C
:103B000003F108002060D3E9000106E06A28F1D043
:103B10002168081D20600868C1179DF84630682B91
:103B200008BF00B207D0622B08BF40B203D0742B8D
:103B300001D07A2B00D1C117002904DA2B695E1C51
:103B40002E612D260DE0AB8E9E0704D52B695E1CE1
:103B50002E612B2605E0DB0705D52B695E1C2E6147
:103B6000202603F80A602B6914AE3344AB60CDE91C
:103B70000201114602A800F0D5FACFE09DF84600F8
:103B80006C280FD071280BD12068C01D20F00700D1
:103B90002060034603F108002060D3E9000106E03D
:103BA0006A28F1D02168081D2060086800219DF86E
:103BB0004630682B08BF80B207D0622B08BFC0B266
:103BC00003D0742B01D07A2B00D1002195F834302A
:103BD0001B07C8D509B90028C5D042F02003782BAF
:103BE000C1D12B695E1C2E61302603F80A602B6957
:103BF0005E1C2E6103F80A20B5E72068C01D20F086
:103C000007002060034603F108002060D3E90001AB
:103C1000CDE90201BDF80E00000404D52869411C5D
:103C200029612D210DE0A88E810704D52869411C4A
:103C300029612B2105E0C00705D52869411C2961B0
:103C4000202100F80A10286914A94018A86011461C
:103C500002A800F0EFFA61E09DF8460062280BD060
:103C6000682820D06A280ED06C2815D071280AD078
:103C7000742811D07A280FE0A86A2268111D2160EB
:103C8000116808704AE0A86AC11723681A1D2260EB
:103C90001A68C2E9000141E02168081D2060086837
:103CA000A96A01603AE0A86A2268111D21601168C2
:103CB000088033E02168081D2060086814A9A96005
:103CC0000021CDE90201782154E79DF846006C28D7
:103CD000216813D0081D20600868A860EA6A002ADD
:103CE00002D505F09BFB07E0002105F0E9F900286B
:103CF0001ABFA968401AE86A68610FE0081D2060D1
:103D0000096802A800F0A2F8002807D5E9E62869AA
:103D1000411C296102B9252200F80A2000207F1CDD
:103D200000287FF4FCAD286B2969401AE969401A24
:103D30006969401A296A401AA969401A696AA0EBA0
:103D4000010995F83400400711D420208DF80000B7
:103D50000026B9F1010F0ADB012200A902A800F038
:103D6000ADFD00287FF4DBAD761C4E45F4DB2A69FF
:103D700014A902A800F0A2FD00287FF4D0AD3020E5
:103D80008DF80000EE694FF0000B012E0BDB0122D5
:103D900000A902A800F092FD00287FF4C0AD0BF14D
:103DA000010BB345F3DB6A69A96802A800F086FD40
:103DB00000287FF4B4AD30208DF800002E6A4FF05B
:103DC000000B012E0BDB012200A902A800F076FDFA
:103DD00000287FF4A4AD0BF1010BB345F3DBAA6916
:103DE0006869A968411802A800F068FD00287FF4FE
:103DF00096AD30208DF800006E6A4FF0000B012E5A
:103E00000BDB012200A902A800F058FD00287FF476
:103E100086AD0BF1010BB345F3DB95F83400400799
:103E20007FF556AD20208DF800000026B9F1010F76
:103E3000FFF64EAD012200A902A800F03FFD0028C8
:103E40007FF46DAD761C4E45F4DB41E52DE9F04F76
:103E500095B005460F466C6B002C48BF6FF00044D0
:103E600006F001F9A96B40180190DFF83C0AD0E98F
:103E70000023CDE9032395F83C00400702D40198C4
:103E8000412806D20DF1140A402001900020029032
:103E900009E004F0D9FC5FEA000AF7D14FF0FF30E7
:103EA0003AE1A4EB0804012CC0F2B18003AA3988DE
:103EB0000DF1010005F0E5FD5FEA000804D4388843
:103EC00030B9B8F1010803D54FF0FF3002909EE001
:103ED0004445C0F29C80A869019908EB0002914218
:103EE00080F086800021A9634042696A401AE9692E
:103EF000401AA96A401A296A401AE96AA0EB010926
:103F000095F83C00400710D420208DF800000026D2
:103F1000B9F1010F09DB012200A9284600F0CEFC0F
:103F2000002863D1761C4E45F5DBAA695146284628
:103F300000F0C4FC002859D130208DF800006E6AD2
:103F40004FF0000B012E0ADB012200A9284600F0E9
:103F5000B5FC00284AD10BF1010BB345F4DBEA694B
:103F60002969284600F0AAFC00283FD130208DF8AE
:103F70000000AE6A4FF0000B012E09DB012200A900
:103F8000284600F09BFC88BB0BF1010BB345F5DB29
:103F90002A6AE86929694118284600F08FFC28BB85
:103FA00030208DF80000EE6A4FF0000B012E09DB87
:103FB000012200A9284600F081FCB8B90BF1010BE1
:103FC000B345F5DB95F83C0040070FD520208DF870
:103FD00000000026B9F1010F08DB012200A92846E4
:103FE00000F06CFC10B9761C4E45F6DB0020A86191
:103FF00042460DF10101A869504404F02BFFA86965
:104000004044A86137F8020B00287FF44AAFA86B40
:10401000A969401A696A401AE969401AA96A401AEE
:10402000296A401AE96A461A95F83C0040070FD4FD
:1040300020208DF800000027012E09DB012200A9B5
:10404000284600F03BFC00285CD17F1CB742F5DB22
:10405000AA695146284600F031FC002852D1302090
:104060008DF800006F6A0024012F09DB012200A9EE
:10407000284600F023FC002844D1641CBC42F5DB38
:10408000EA692969284600F019FC00283AD1302055
:104090008DF80000AF6A0024012F08DB012200A97F
:1040A000284600F00BFC68BB641CBC42F6DB2A6AA5
:1040B000E86929694118284600F000FC10BB30204F
:1040C0008DF80000EF6A0024012F08DB012200A90F
:1040D000284600F0F3FBA8B9641CBC42F6DB95F857
:1040E0003C0040070ED520208DF800000027012E4F
:1040F00008DB012200A9284600F0E0FB10B97F1C74
:10410000B742F6DB0020A861A86305A882451CBF62
:10411000504604F029FD029815B0BDE8F08F00006C
:10412000249F07082DE9FA4786B00446606900908D
:104130009DF818006F2808BF082705D040F0200020
:10414000782814BF0A2710273C25D4E90001064629
:1041500089469DF81820642A01D0692A04D10029D3
:1041600002DA764269EB4909B9F1000F02D10EB9C2
:10417000606B60B3A5F101084546F817CDE90470FE
:1041800030464946DDE9042303F098FCCDE90201FD
:10419000B246DDE90223DDE90401A0FB02695046D5
:1041A000801B3030C0B23A2803D39DF81810513923
:1041B0000818009908F80100DDE90269B9F1000F5B
:1041C00000D126B12069009969188842D2D3082FFE
:1041D0000BD194F83C00000707D50098285C3028E4
:1041E00003D06D1E009830212954C5F13C00E061D8
:1041F000009969182161616B884206DA081A6062C9
:10420000A08F20F01000A08710E000290ED594F8B0
:104210003C1001F01401102908D1A16BA269891A80
:10422000626A891A0D1A012DA8BF656208B0BDE83F
:10423000F08700002DE9F24F8EB0054604AFD5E9B6
:104240000001CDE902019DF8380040F020008DF812
:10425000000061280BD0686B002848BF062005D4F9
:1042600005D19DF80000672801D101206863E88826
:10427000C0F30A1040F2FF71884222D1A8790F21C1
:10428000084205D1A88818B9688808B9288868B193
:104290000320E8619DF838006138C0B21A2836D38F
:1042A00089A10322286904F0D5FDC7E10320E86154
:1042B0009DF838006138C0B21A2834BF83A184A1A8
:1042C000EFE7012804DA284604F0FCF901281BDA9C
:1042D00040F2FE31EA8861F30E12EA80441A4FF090
:1042E000FF309DF80010612917D12A69511C2961FE
:1042F0003021117029694A1C2A619DF83820612AF1
:104300000CBF7822582204E000240020E9E7CDA168
:10431000C7E70A70A969891CA96110B90026B046CF
:1043200082E19DF80000612840F09580686B0028CC
:104330004EBF2126461C36B2771CD5E900ABDDE91D
:1043400002010022002305F0E7F83ABF8BF000409D
:10435000CDE902A0CDE902ABA4F104088DF810204C
:104360000DF11109012F33DBDDE9020100220023E9
:1043700005F0EAF82CD21C2102A803F0B9FCDDE913
:10438000020104F0C9FE0446FF1F012F09DB05F0FE
:10439000ABF802460B46DDE9020103F029FACDE94C
:1043A000020109F207000721012C0BDB491E5EBF49
:1043B00004F00F0200F8012D2411F5D502E00022CF
:1043C00000F8012D491EFAD500F20709012FCBDABA
:1043D0000DF11100A9EB00000DF11107B042B8BFBB
:1043E00006B2002E30D4864206DA04A8301840788F
:1043F000082828BF0F2000D20020314604AA8A18BE
:1044000001E0761E36B2491E12F801398342F8D017
:104410000F2804D104A808184278521C42700029C1
:1044200004D504AF761C36B208F10408304609E022
:10443000C15D3031C9B23A2903D39DF838203A3AE8
:104440005118C155401EF3D5686B002840F1EC802F
:10445000701E6863E8E0DDE902010022002305F038
:104460005BF805D2DDE9020181F00041CDE90201EE
:1044700024B247F297506043DFF8301490FBF1F814
:104480000FFA88F8C8F107040027DFF82494012CFC
:1044900020DBDDE902ABE00707D5504659463A4636
:1044A0004B4603F0D3F882468B46641038464946A3
:1044B0003A464B4603F0CAF807468946002CEAD133
:1044C000CDE902AB28E000BF4E414E00696E6600A8
:1044D000494E460064429246DFF8D8B314D0E00754
:1044E00007D5504659463A464B4603F0AFF8824648
:1044F0008B466410384649463A464B4603F0A6F8C8
:1045000007468946002CEAD1DDE9020152465B46A6
:1045100002F09EFCCDE902019DF8000066280CBF68
:1045200008F10A000620696B4418142CA8BF132454
:1045300030208DF810000DF11106012C30DBDE4F1C
:1045400011E0DDE9020104F0FDFD04F0D7FF0246B1
:104550000B46DDE9020103F04BF900223B4603F074
:1045600075F8CDE90201DDE9020104F0EBFD06F189
:10457000080104220A23B0FBF3F603FB16003030D7
:1045800001F8010DB6FBF3F003FB1063303301F8C3
:10459000013D521EEED101F10806083C012CD0DA93
:1045A0000DF11100301A0DF111079DF8111030298D
:1045B00006D1401EA8F1010817F8011F3029F8D0D4
:1045C0009DF80010662904BF0FFA88F808F1010170
:1045D00003D065290CBF012100216A6B8E1836B209
:1045E000B042B8BF06B2002E1ED4864204DAF05D97
:1045F000352828BF392000D230203146CA19521E32
:1046000001E0761E36B2491E12F801398342F8D015
:10461000392802D1C85D401CC855002904D57F1E29
:10462000761C36B208F101080FFA88F00090334684
:104630003A469DF83810284600F008F80FB0BDE85B
:10464000F08F00006E616E002C9F07082DE9F04787
:1046500086B006468A4690461C46BDF9385005F09D
:104660002DFC406A90F80090776B012CBCBF0124B0
:104670000FF230284AF02000662807D067287AD148
:104680006FF003018D427CDBBD427ADA6D1C662837
:104690000AD096F83C00000702D4BC42B8BF2746B7
:1046A0002DB27F1B48BF00273069F1692DB2012D63
:1046B00021DA4A1C30230B54012F03DA96F83C1000
:1046C000090702D502F80090521CF261EF42B8BF10
:1046D0007D422DB26942B162EF19A742B8BF3C4694
:1046E00024B2346222464146F369181804F0B2FB42
:1046F000381BF062BFE00818AC4216DA2246414689
:1047000004F0A8FBF1696118F161281BB062012F68
:1047100003DA96F83C00000705D5306901F80090EF
:10472000306A401C3062F762A5E02A46414604F038
:1047300091FBF0692818F061641B012F03DA96F8E9
:104740003C10090704D5411CF161316900F8019062
:1047500024B2A742B8BF3C4624B2224605EB08016A
:10476000F0693369C01804F075FBF0692018F06136
:10477000381BB0627FE0BAF1610F14D14FF0700ABC
:1047800016E0BC4204DA96F83C10090758BF2746E9
:104790007F1E48BF0027BAF1670F14BF4FF0450ACC
:1047A0004FF0650A04E0BAF1410F08BF4FF0500A1C
:1047B000F1694A1C306918F8013B0B54012F03DAE8
:1047C00096F83C10090702D502F80090521CF261DD
:1047D000012F10DB641E24B2A742B8BF3C4624B2AE
:1047E00022464146F369181804F034FBF06920189A
:1047F000F061381BB062F069316900EB010808F81C
:1048000001AB002D5CBF2B2008F8010B03D52D2038
:1048100008F8010B6D42002402AF2DB2012D0EDB12
:104820000A22294600A805F0ACFB019807F8010B05
:10483000009D641C2DB2012DF2DA022C06DA4AF03A
:104840002000652804BF302008F8010B1CB9302077
:1048500008F8010B09E0012C07DB641E02A8205CAC
:10486000303008F8010B012CF7DAF0693169401893
:10487000A8EB0000306296F83C0000F0140010280D
:104880000DD1B069F1690818B16A0818316A0818C1
:10489000F16A0818B16B8842BCBF081A706206B092
:1048A000BDE8F0873000000090A00708A086010056
:1048B000000024400000F03F84D79741F8B504463B
:1048C0000D46164600208EB14FF0FF3705E0206BF5
:1048D000401C20630020761E08D015F8011BE068FC
:1048E000A2689047E0600028F1D13846F2BD000090
:1048F00010B582B000F011F800F068F816BD10B5E0
:1049000082B000F00AF800F09EFC16BD10B582B02F
:1049100000F003F800F094FD16BDBDF910400094BE
:10492000704710B500E010B582B0FFF7F6FF00F059
:104930001BF816BD70B5FFE784B000F004F800F076
:104940003AFA04B070BD089CBDF92450BDF9286046
:10495000029601950094704770B584B0FFF7F3FF9D
:1049600000F0CAFB04B070BD38B500F074FCFFE77E
:10497000DFF8FC0A20602946204600F002F82046B5
:1049800032BD416200F077BD30B583B00446606A45
:10499000B8B1E56904F042FDEA88A988414300F016
:1049A0004EFE00F0FDF9019000F0FAF90090626A05
:1049B000BDF80610BDF8000003B0BDE8304002F0BD
:1049C000ADBC2046BDE83E4004F00CBD38B500F05B
:1049D00042FCFFE7DFF8E80B2060002084F82300AA
:1049E000012084F82200DFF8DC0B206000206062E8
:1049F0002946204600F002F8204632BD80B581628B
:104A0000012280F82020426A130018BF904701BDA0
:104A10002DE9F04184B0044604F11805286958B125
:104A20006E6804F0FBFCF1880A1D92B2B188052380
:104A300000FB013100F003FE00F077FA00F0ABF963
:104A4000804600F0ADF900F0AAF900F050FA268B8C
:104A500000F06CFA074600F0A3F900F0A0F900F0AE
:104A600056F9687A60B100F061FA064600F094F9F0
:104A7000074600F095F900F092F900F031FA0BE0EA
:104A8000268B00F053FA00F086F9804600F088F992
:104A900000F085F900F01DFA00F03CFA204605F020
:104AA00039F818B1687A08B100F00BF800F078F91D
:104AB000019000F075F900902A6900F095FDC01C86
:104AC0000DE14FF6E070ADF80000BDF8000001F018
:104AD00023BF10B500E010B5002405F01BF800B1AD
:104AE0000124204610BD70B58AE280B581620122A2
:104AF00080F82020426A130018BF904701BD10B50E
:104B0000044600206086E06AC8B1608EE16A51F810
:104B10002020A2B1104604F081FCA18E814206D271
:104B2000608EE16A51F8200004F078FCA086608E67
:104B3000401C60864FF4807180B28842E5D310BD7E
:104B400010B5C9E710B5C7E770B500F063FAD0B18A
:104B500004F23000012D02D0022D07D012E0218E88
:104B6000002912BF491E4088411E07E0218E40885F
:104B7000401E814208BF002101D0491C89B2204655
:104B800004F072FF0126052D02D100F037FC01264A
:104B9000304670BD2DE9F04184B0044604F118059B
:104BA0006868C1880A1D92B28088A98B491C0A23B3
:104BB00001FB003100F043FD00F0B7F900F0EBF825
:104BC000804600F0EDF800F0EAF800F090F9268B4E
:104BD00000F0ACF9074600F0E3F800F0E0F800F070
:104BE00096F8687A60B100F0A1F9064600F0D4F8B2
:104BF000074600F0D5F800F0D2F800F071F90BE0AC
:104C0000268B00F093F900F0C6F8804600F0C8F853
:104C100000F0C5F800F05DF900F07CF9204604F0E2
:104C200079FF18B1687A08B1FFF74BFF2E6900F0E1
:104C3000B7F8019000F0B4F80090324600F061F946
:104C400002F06CFB00F071F9074600F0A9F800F0E3
:104C5000A6F8019000F0A0F800F04DF8401F00F019
:104C600044F800F062F9074600F09AF800F097F86F
:104C7000019000F091F800F03EF8001F00F035F8C8
:104C800000F053F9074600F08BF800F088F8019027
:104C900000F082F800F02FF8C01E00F09FFB68883B
:104CA000ADF80200208BADF80000BDF80210BDF891
:104CB000000001F017FE00F073F8019000F070F8AA
:104CC000009000F069F84DA2BDF90610891C89B268
:104CD000BDF90030C018C01E6B689B88C01A80B236
:104CE00004B0BDE8F04102F019BB6E68B688801BC5
:104CF00080B202F026BB00960123FA1E92B2BDF9E3
:104D00000A10891C89B2BDF90460801970470190AE
:104D100000960123FA1E92B2BDF90A00811C89B2E5
:104D2000BDF90400801C80B202F00BBB2DE9FE43EC
:104D30000446658B05F00EF98146E66900F02CF813
:104D4000804600F02DF80290E76900F029F8019004
:104D50000095B088A9EB50039BB24246BDF90A000A
:104D6000B98800EB510189B2BDF8040002F009FBDB
:104D7000656A00F015F8019000F012F800902A46DC
:104D8000BDF80610BDF90000801D80B203B0BDE87B
:104D9000F04302F0C3BA0746204605F0D3B80290AC
:104DA000204602F038BA2DE9F04100F029F800F071
:104DB00016F8022006E02DE9F04100F021F800F09D
:104DC0000EF8042000F02EFC48F20100288247F67D
:104DD000FF706882002060622046BDE8F081DFF845
:104DE000E0072060002084F82300012084F82200DE
:104DF000DFF8DC07206004F224057047760000002D
:104E000004460E46174698460699BDF91C20BDF982
:104E1000203004F0ADBA2DE9F0418CB004462021D9
:104E200003A805F051F904F1180500F07EF8FFF72A
:104E3000B2FF8046FFF7B4FFFFF7B1FF00F057F86D
:104E4000268B00F073F80746FFF7AAFFFFF7A7FFCE
:104E5000FFF75DFF687A60B100F068F80646FFF77B
:104E60009BFF0746FFF79CFFFFF799FF00F038F81C
:104E70000BE0268B00F05AF8FFF78DFF8046FFF716
:104E80008FFFFFF78CFF00F024F800F043F8204676
:104E900004F040FE18B1687A08B1FFF712FEA87A54
:104EA00018B947F6FF70FFF70EFE286970B103A925
:104EB000204600F03EF8FFF773FF0190FFF770FF08
:104EC000009003AA00F01DF802F028FA0CB0BDE82B
:104ED000F08101900096BB1E9BB2A8F102027047C0
:104EE00001901F200090B31E9BB2BA1E7047019024
:104EF00000963B464246BDF80A10BDF8040002F099
:104F000040BABDF90600811C89B2BDF90000C01C81
:104F100080B2704792B2BDF90A00411C89B2BDF956
:104F20000400401C80B202F02CBA6E88204605F0C6
:104F300011B838B50C46C56A05B97DA590F833108F
:104F4000012907D016D3032908D003D305290DD092
:104F500008D30FE000F09DF802460EE000F099F84B
:104F600082B20AE000F095F802B206E000F091F893
:104F7000C2B202E000F08DF842B229462046BDE8F8
:104F8000384004F081BA70B500F044F898B1A06AD6
:104F900080B100F02CF902D0022D05D00AE000F01B
:104FA00021F900F093F803E000F01CF900F097F805
:104FB00000F02BFA0126304670BD70B500F02AF8DB
:104FC000D8B1A06AC0B100F012F902D0022D09D008
:104FD00012E000F032F91CBF491C8172204600F03B
:104FE00075F807E000F029F91CBF491C81722046C2
:104FF00000F075F800F009FA0126304670BD70B572
:1050000000F008F800B10126052D01D100F0F6F9F5
:10501000304670BD04460D46002604F07BBD10B539
:10502000044604F2240042686AB1038A99420AD312
:10503000438A8B4207D31170606A20B1204600F08A
:1050400028F800F022F810BD10B5044604F2240040
:105050004268AAB1B0F91030994211DBB0F91230B0
:105060008B420DDBC07B022802D0042809D00AE065
:105070001160606A20B1204600F00BF800F005F8DE
:1050800010BD1180F5E71170F3E701462046626A12
:10509000104790F83310012907D013D3032907D004
:1050A00003D305290BD006D30CE0806A0068704753
:1050B000806A00887047806AB0F900007047806A93
:1050C00000787047806A90F90000704710B500F0D2
:1050D00053F800F04BF8B0F906308B4207E010B5FA
:1050E00000F04AF800F056F8B0F90430994200F0A8
:1050F00057F8BDE81040A7E770B584B0044608989B
:10510000BDF92450BDF92860029601950090204613
:10511000FFF749FEDFF8BC042060DFF8BC04A063A1
:10512000DFF8B804E063204604B070BD0000000062
:105130002564000010B50446A06A70B1A06B8142DE
:105140000BDBE06B884208DBA06A0160606A20B17B
:105150002046FFF79EFFFFF798FF10BD10B500F047
:105160000BF800F003F8C3688B420EE0B4F930206E
:10517000111804F23000704704468AE710B5FFF7B3
:10518000FBFF00F007F88368994200F009F8BDE8DA
:105190001040CFE7B4F93020811A04F23000704794
:1051A00004DA921022868278920882702046704734
:1051B00070B5FFF72FFF98B1A06A80B100F017F823
:1051C00002D0022D05D00AE000F00CF8FFF7C6FF70
:1051D00003E000F007F8FFF7D1FF00F016F9012611
:1051E000304670BD0121018186722046704704F26D
:1051F0002800012D704770B5FFF70CFFD8B1A06AE9
:10520000C0B1FFF7F4FF02D0022D09D012E000F088
:1052100014F81CBF491C81722046FFF79FFF07E06E
:1052200000F00BF81CBF491C81722046FFF7A6FF57
:1052300000F0EBF80126304670BD817A02898A18A9
:105240000281FF29704738B500F005F8DFF89003B8
:1052500000F0FDF807E004460D4611461A46BDF978
:10526000103004F085B82946204600F002F82046A8
:1052700032BDFFE02DE9F04F85B000F0E4F9F18890
:105280008A1D92B2B188072300FB013100F0D7F9E3
:10529000FFF786FD0090BDF90060B6B2FFF780FD14
:1052A0000090BDF902001FFA80FAFFF73FFE871E4B
:1052B000BFB2FFF771FD801E1FFA80F86888ADF855
:1052C0000400FFF733FE8146FFF766FD8346FFF7D4
:1052D00067FD0390FFF764FD0290BDF804000090A5
:1052E0004B465A46BDF80E10BDF8080002F049F8CA
:1052F000204604F01BFC50B3FFF752FD0090BDF9AF
:105300000000861CB6B2FFF74BFD0090BDF902000D
:10531000801C1FFA80FAB5F802B0FFF707FEAAF169
:105320000109CDF800B00123421E92B21FFA89F1A3
:10533000701E00F053F8B5F802B0FFF72DFDCDF860
:1053400000B00023821E92B21FFA89F113E0688830
:10535000009001233A460AF1010189B208EB0600E8
:1053600000F03CF868880090002308F1020292B235
:1053700007EB0A0189B2304601F0E3FF688800902C
:105380003B4642465146304601F0FBFF0AF1020916
:10539000208B00900123FA1E92B21FFA89F1B01CF3
:1053A00000F01CF8701C0AF10101A8F10202BB1EFA
:1053B0006F7A002F14BF1F24248B00949BB292B2EB
:1053C00089B280B201F0DDFF2A691FFA89F1F01C71
:1053D00080B205B0BDE8F04F01F0A0BF80B201F08F
:1053E000B0BF10B504460020052906D10121204692
:1053F00004F074FA00F009F8012010BD94F82310AD
:10540000481E8041C00F84F82300204601F022BFCF
:1054100010B5002404F08AFBFFF761BB38B50446E1
:105420000025052905D1002104F058FAFFF7EDFF0A
:105430000125204604F07AFB00B10125284632BD43
:1054400038B5FFF708FF674800F001F808E0206072
:105450000020606284F82C00012084F8220070474C
:105460002946204600F006F8204632BD0000000024
:10547000349707088162012180F8201070472DE9D8
:10548000F04184B000F0DFF8F1880A1D92B2B188D3
:10549000401C092300FB013100F0D1F8FFF745FD66
:1054A000FFF779FC8046FFF77BFCFFF778FCFFF7FE
:1054B0001EFD287D0028204607D001F0ACFE01909B
:1054C000FFF76EFC009040A206E001F0A4FE019000
:1054D000FFF766FC00903DA2BDF90600411C89B2B1
:1054E000BDF90000001D80B201F018FF268B6F6827
:1054F000FFF756FCFFF753FC019000960123FA8852
:1055000000F079F8C01CFFF769FF268B6F68FFF782
:1055100047FCFFF744FC00F075F8801DFFF75EFFC5
:10552000268B6F68FFF73CFCFFF739FC00F06AF848
:10553000401DFFF753FFFFF7F8FC0746D5F804803E
:10554000FFF72EFCFFF72BFC019000963B1F9BB250
:10555000B8F80400C21C92B200F04DF8801C80B272
:1055600001F00FFF687A60B1FFF7E0FC0646FFF735
:1055700013FC0746FFF714FCFFF711FCFFF7B0FC24
:105580000BE0268BFFF7D2FCFFF705FC8046FFF708
:1055900007FCFFF704FCFFF79CFCFFF7BBFC2E6940
:1055A000FFF7FEFB0190FFF7FBFB0090324600F097
:1055B0001BF86B689B881818C01DFFF790BB000094
:1055C00010970708D8950708780000002000000011
:1055D0007C970708A09707086179FEFF3F420F00FC
:1055E0002896070850960708BDF90600811C89B265
:1055F000BDF900007047BDF90A00811C89B2BDF9F0
:1056000004007047019000960123F888421C92B272
:10561000BDF90A00811C89B2BDF904006E68B68824
:1056200030187047E8736E60AF600120A881E069B0
:10563000C1880A1D92B28088052108FB001189B239
:10564000204601F0E1BD044604F118056E682869A2
:1056500003F0E4BE002070470020704770B5044698
:105660000020052912D104F22405287A461EB641ED
:10567000F60F626A100005D094F8210010B131468F
:10568000204690472E72FFF7C0FE012070BD00003B
:10569000000000000000000000000000000000000A
:1056A0000000000000000000000018003C003C006A
:1056B0003C0018001800000018001800000000004E
:1056C0003600360036001400000000000000000024
:1056D000000000000000000000006C006C006C0086
:1056E000FE006C006C00FE006C006C00000000000E
:1056F000180018007C00C600C00078003C000600BE
:10570000C6007C00180018000000000000006200C5
:1057100066000C00180030006600C60000000000A3
:10572000000038006C00380038007600F600CE002B
:10573000CC007600000000000C000C000C001800EB
:105740000000000000000000000000000000000059
:1057500000000C0018003000300030003000300035
:1057600018000C00000000000000300018000C00C1
:105770000C000C000C000C001800300000000000B1
:105780000000000000006C003800FE0038006C00D3
:1057900000000000000000000000000000001800F1
:1057A00018007E0018001800000000000000000033
:1057B00000000000000000000000000000000C00DD
:1057C0000C000C00180000000000000000000000A9
:1057D0000000FE00000000000000000000000000CB
:1057E00000000000000000000000000000000000B9
:1057F0001800180000000000000000000200060071
:105800000C00180030006000C000800000000000A4
:1058100000007C00C600CE00DE00F600E600C600F8
:10582000C6007C000000000000001800780018008E
:10583000180018001800180018007E000000000072
:1058400000007C00C600C6000C001800300060009C
:10585000C600FE000000000000007C00C60006003C
:1058600006003C0006000600C6007C0000000000A8
:1058700000000C001C003C006C00CC00FE000C0082
:105880000C000C00000000000000FE00C000C00082
:10589000C000FC0006000600C6007C0000000000FE
:1058A00000007C00C600C000C000FC00C600C600AE
:1058B000C6007C00000000000000FE00C6000C00D6
:1058C00018003000300030003000300000000000D0
:1058D00000007C00C600C600C6007C00C600C600F2
:1058E000C6007C000000000000007C00C600C6006E
:1058F000C6007E0006000600C6007C000000000016
:105900000000000000000C000C00000000000C0073
:105910000C000000000000000000000000000C006F
:105920000C00000000000C000C000C00180000002F
:1059300000000C00180030006000C0006000300063
:1059400018000C0000000000000000000000000033
:10595000FE000000FE00000000000000000000004B
:1059600000006000300018000C0006000C00180059
:10597000300060000000000000007C00C600C6008F
:105980000C001800180000001800180000000000AB
:1059900000007C00C600C600DE00DE00DE00DC0089
:1059A000C0007E0000000000000038006C00C6004F
:1059B000C600C600FE00C600C600C600000000000B
:1059C0000000FC006600660066007C006600660061
:1059D0006600FC000000000000003C006600C00003
:1059E000C000C000C000C00066003C000000000015
:1059F0000000F8006C006600660066006600660045
:105A00006C00F800000000000000FE00660060006E
:105A100060007C00600060006600FE000000000086
:105A20000000FE006600600060007C006000600016
:105A30006000F0000000000000007C00C600C6000E
:105A4000C000C000CE00C600C6007C000000000000
:105A50000000C600C600C600C600FE00C600C600A4
:105A6000C600C6000000000000003C00180018003E
:105A7000180018001800180018003C000000000072
:105A800000003C0018001800180018001800D8008A
:105A9000D8007000000000000000C600CC00D80054
:105AA000F000F000D800CC00C600C60000000000E6
:105AB0000000F000600060006000600060006200B4
:105AC0006600FE00000000000000C600C600EE00F8
:105AD000FE00D600D600D600C600C60000000000BA
