:020000040801F1
:103800008044002009F901085D521A00D3F4010830
:1038100001FB010805FB010809FB0108000000008D
:103820000000000000000000000000000DFB010887
:1038300011FB01080000000015FB010819FB01083D
:103840001DFB010821FB010825FB010829FB0108DC
:103850002DFB010831FB010835FB010839FB01088C
:103860003DFB010841FB010845FB010849FB01083C
:103870004DFB010851FB010855FB010859FB0108EC
:103880005DFB010861FB010865FB010869FB01089C
:103890006DFB010871FB010875FB010879FB01084C
:1038A0007DFB010881FB010885FB010889FB0108FC
:1038B0008DFB010891FB010895FB010899FB0108AC
:1038C0009DFB0108A1FB0108A5FB0108A9FB01085C
:1038D000ADFB0108B1FB0108B5FB0108B9FB01080C
:1038E000BDFB0108C1FB0108C5FB01082DE9F04142
:1038F00086B0F02000904FF4A0730022002102A8AF
:1039000009F07AF90246DFF8E44BDFF8E40B0190A6
:103910001F2000904FF6FF7352A1204608F063FA73
:10392000DFF8D05B2A46DFF8D01B20460CF080F889
:1039300004F2101700F031F8DFF8C06B00F032F835
:10394000DFF8987C07F2840800F01DF800F020F8FA
:1039500004F2B81800F017F800F01AF807F22C1764
:1039600000F01BF800F01EF804F2602700F015F8D4
:1039700000F018F804F2083700F00FF800F012F821
:1039800006B0BDE8F08104F1240140460BF0FABC1A
:103990002A46314640460CF04BB804F12401384623
:1039A0000BF0F0BC2A46314638460CF041B838B529
:1039B0001446DFF82C2C02EB811505F1380100913B
:1039C00005F1360305F134022146DFF8104CD4F836
:1039D0008040A469A047E88E06214843E88631BDAF
:1039E00010B582B00B461146DFF8F42B02EB8312C0
:1039F000B2F938300093B2F93630062493FBF4F371
:103A00001BB2928EDFF8D44BD4F880406469A04793
:103A100013BD2DE9F04204460D460026DFF8C00B29
:103A200000EB8517DFF8B49BDFF86C0C3018017AD7
:103A3000462906D000F018F810F1010F18BF27F83A
:103A40001600761C202EEFDB042100F00DF809EBA8
:103A5000C50108617A8FD2B229462046BDE8F042FE
:103A6000A5E70000000000002046D9F88020126879
:103A700010470021CDE72DE9F04781460026DFF809
:103A8000604BDFF8148CDFF8545B16F8087007EB16
:103A90000800017A00F03DF9297B04EB811121F83F
:103AA0001700761C052EF0DB1E2100F032F9297B71
:103AB00005EBC10250610C2606FB0150007800287E
:103AC00045D1082100F025F9297B04EB811188827A
:103AD0000C2100F01EF9297B04EB8117388306FBCB
:103AE0000150C07801282CD1B7F9140028B9B7F9D2
:103AF000181011B9B8875A2022E0B7F9181000F051
:103B000045FC0AF0F7FD0BF0DFF8B887B7F91800AD
:103B10000BF0C0F98246B7F914000BF0BBF951461F
:103B200009F009FDDFF8741B0AF0B8F90BF05EF834
:103B3000DFF86C2BDFF86C3B08F03AFF0AF0DAFF95
:103B4000F887286A00F0E0F8E86A00F0DDF8012163
:103B500000F0DFF887B24FEA104917B9B9F1000F4A
:103B600008D0DFF88809B0F8001101291CBF012135
:103B700008F0B7FA206F48B305F2840A97B1B9F19B
:103B8000000F0FD100214183012180F822105046FF
:103B900008F0D0FB216F884215D00021504608F074
:103BA000D5FB10E0504608F0C5FB216F884204BFEA
:103BB000504608F08CFB206F4CF21861428B8A4211
:103BC00004D001F00BFD206F00F00BFA287B06FB00
:103BD000005000214171790644BF022141714946DC
:103BE000490644BF0121417100218171F90644BF9A
:103BF000022181714946C90644BF0121817100211A
:103C0000C171B90644BF0221C1714946890644BF4A
:103C10000121C17100210172F90744BF0221017223
:103C20004946C90744BF01210172390644BF022138
:103C300001724946090644BF012101720021417207
:103C4000790744BF022141724946490744BF012117
:103C5000417200218172B90744BF02218172494635
:103C6000890744BF012181720021C172390744BF15
:103C70000221C1725FEA097144BF0121C172216F43
:103C800000292DD0407900F09FFF616D00F046F8CB
:103C9000807900F099FFA16D00F040F8C07900F044
:103CA00093FFE16D00F03AF8007A00F08DFF216E8D
:103CB00000F034F8407A00F087FF616E00F02EF8D3
:103CC000807A00F081FFA16E00F028F800F07BFF01
:103CD000E16E4A8B824203D04883012081F82000A4
:103CE000E06C00F011F8206D00F00EF8286F00F085
:103CF0000BF8A86900F008F8686A00F005F8286B6E
:103D000000F002F8BDE8F08710B1012180F8201022
:103D100070474846D5F88020126810474A8B824287
:103D200003D04883012081F82000287B06FB005047
:103D30007047DFF8A818C1F88000704700210A46D4
:103D4000511CC9B2125C002AF9D108467047F8B577
:103D500005461746DFF88468F567DFF8700A0160EA
:103D6000DFF888473946204608F02BFA3846FFF737
:103D7000E5FFC119204608F027FA04F2101100F0FF
:103D800069F806F1840100F065F804F2B81100F05A
:103D900061F806F22C1100F05DF804F2602100F0E9
:103DA00059F804F2083100F055F80020307304F29D
:103DB000C9170321F06FD6F8802012689047C0B26F
:103DC000012804D1002030700120387405E0012062
:103DD00030700020387484F8C90100207070012010
:103DE000B0700020F0707060B0602846FFF741FEB0
:103DF000DFF8DC09C4F80C010021204608F071F955
:103E00002846D6F880100969884704F27121020F0C
:103E1000092A03D0C0F30363092B02D101230B74D9
:103E200003E000230B7484F8713204F219310A2A7A
:103E300003D0C0F303600A2802D10120087403E014
:103E40000020087484F8190300210220BDE8F44022
:103E50000AF01ABA204608F020B910B50024DFF89D
:103E60007C17D1F8801009698847010FC0F30362FD
:103E70006AB9092908BF01242FD00A2908BF0224E2
:103E80002BD0012901D0022927D1032425E00929BB
:103E900002D10A2A07D103E00A2908D1092A06D14A
:103EA0000624092903D1022A07D0012A05D0092AAC
:103EB00004D1022901D0012900D104240A2903D107
:103EC000022A09D0012A07D0C0F303600A2804D1CE
:103ED000022901D0012900D10524204610BD10B5CA
:103EE000DFF80846204608F072F904F2041009F0E1
:103EF0008FFDDFF8984C02200AF00DFA38B92088BF
:103F000028B9002101F049FF0420208001E0208829
:103F100010B12088401E208010BD10B5DFF8BC36DF
:103F2000806A1A7BDFF8B84604EB8212801AC0055B
:103F3000DFF8642712EB1060007A462806D00A46A4
:103F40000146D86FD3F880309B68984710BD38B5CC
:103F50000C46FFF7E2FF00F022F859B1DFF88016B7
:103F600001EB801044842146686C06F010F9686CFF
:103F700000F037F831BD38B50C46FFF7CEFF00F042
:103F80000EF859B1DFF8581601EB801084842146F1
:103F9000A86C06F0FCF8A86C00F023F831BDDFF83F
:103FA0003C56287B0C2101FB00510979704738B53C
:103FB0000C46FFF7B2FFDFF82456297B0C2000FBEC
:103FC0000150007960B1286D50B1DFF8142602EB82
:103FD0008111CC84214606F0DAF8286D00F001F852
:103FE00031BD012180F8201070472DE9FC4700F019
:103FF000C8F902EB8115D0F88070C66F0C2202FB65
:104000000100C07810B1012803D01BE000F064F873
:1040100015E000F066F800F068F800F086F800F0AF
:1040200070F800F07BF800F066F800F06FF80AF026
:1040300061FD00F04AF80AF05DFD2A4601B2304603
:104040003B6A9847BDE8F3872DE9FC4700F04AFA40
:10405000DFF88C8508EB80150C214843D4F880707C
:10406000E66F0119C97811B1012913D02BE0005D69
:1040700068B9304639698847800624D5207B08EB2B
:104080008010B0F91820412101F06BFE1BE000F018
:1040900023F815E000F025F800F027F800F045F8C7
:1040A00000F02FF800F03AF800F025F800F02EF8B4
:1040B0000AF020FD00F009F80AF01CFD2A4601B2C2
:1040C00030463B6A9847BDE8F38705B24A465346F7
:1040D0002046414608F06ABFB5F91820B5F914101A
:1040E0007047B5F93E000AF0EDBEDFF8B425DFF801
:1040F000B43508F05BBF81468A46B5F93C000AF04A
:10410000E1BE04468846012208F0EEBA044688461D
:10411000DDE900012246434608F048BFCDE9000131
:1041200000222046414608F0DFBA0022DFF86C3A50
:1041300008F03EBC10B500F0D5F9DFF8A42402EB7E
:1041400080125187528FD2B2014601F025FCE06DFA
:10415000FFF747FF206E80F82010606E80F8201077
:1041600010BDDFF87834187BDFF8742402EB80127E
:10417000918607E0DFF86434187BDFF8642402EBF3
:104180008012D186528FD2B20146D86F28E4DFF870
:104190004C34187BDFF8482402EB80121187F1E7DA
:1041A0002DE9F041DFF83444E06947F6FF75DFF8A8
:1041B0003074DFF8EC890C26217B06FB0141C978BD
:1041C00011B101292AD04DE0414605F054FC08F117
:1041D0000801A06A05F04FFC00F057F800F2140047
:1041E00000F04EF8183000F045F848F201018186E1
:1041F000C586E06A8186C586207B06FB0040007884
:1042000050B900F0DBFC8006E06A28D4002180F879
:10421000221080F8211025E0E06A20E008F110016A
:1042200005F029FC08F11801A06A05F024FC00F053
:104230002CF800F23C0000F023F800F23E0000F001
:1042400019F801F0C7F9E06A818640F26711C1866A
:10425000E06A217B06FB014109780029D7D00121C2
:1042600080F82210206AFFF7BCFEE06A80F8201078
:10427000BDE8F081E16A81F833208862206A7047E6
:10428000216A042281F833208862207B07EB8010AA
:1042900070472DE9F84F00F074F802EB8116DFF853
:1042A0000044DFF800540C2202FB0100C07810B17A
:1042B00001283AD063E00027DFF8E098B6F93C0027
:1042C0000AF000FE82468B46B6F93E000AF0FAFD7F
:1042D00022462B4608F06AFE00224B4608F068FB97
:1042E0003A4608F001FA01F0E1FD0AF003FCB08261
:1042F000B6F93C000AF0E6FD82468B460122904664
:10430000B6F93E000AF0DEFD22462B4608F04EFECE
:104310003A464B4608F04CFB424608F0E5F901F0FE
:10432000C5FD0AF0E7FB308329E0B6F9140028B98F
:10433000B6F9181011B9B0875A201FE0B6F9181055
:1043400000F024F80AF0D6F90AF0BEFCB087B6F9FE
:1043500018000AF09FFD0746B6F914000AF09AFD0E
:10436000394609F0E8F8CD4909F098FD0AF03EFC1D
:1043700022462B4608F01CFB0AF0BCFBF087BDE888
:10438000F18F9648017BDFF8B42C7047494300FB5E
:1043900000100AF07FBD80B5DFF8A80C017B0C226D
:1043A00002FB0101806D008EC870FFF772FFBDE84F
:1043B0000140F5E638B58949087B0C22424388481C
:1043C000006C008E5054D1F88030C86FDFF8784C04
:1043D00004F2C915515C012902BF0021297484F837
:1043E000C9111CBF012129740A46032101F0B4BC84
:1043F000F8B57A4C217B0C2202FB0142E16F784B2D
:104400005F6CDFF8C853DFF8446CB8420AD197F804
:10441000307057700846FFF720FD56F820003A5CD0
:1044200000210AE0986C90F8307097700846FFF70A
:1044300014FD56F820003A5C01212868D4F8803039
:10444000DB6901B0BDE8F040184770B5C9B200F0B3
:1044500049F80C2202FB004001714D1EAD41ED0FE9
:10446000606C80F8225004BF002280F82120A06CEC
:1044700080F8225015B9002280F8212001B3DFF81E
:10448000BC6B207B06EB8010818B4184C18B8184C7
:10449000018CC184B0F92210606C05F08DFE207B88
:1044A00006EB8010B0F92410A06C05F085FE206D9D
:1044B00030B1217B06EB8111B1F9261005F07CFEAD
:1044C000606CFFF78EFDA06C80F82010206D40B16D
:1044D00080F8225015B9002180F82110206DFFF7D7
:1044E00080FD70BDDFF85C4B207B70479845002055
:1044F00080450020F84B0020F5FB0108F3FB010884
:1045000010B50C4600F06EF8052C17D8DFE804F063
:104510000306090C1014BDE81040C5E0BDE81040CA
:1045200058E1BDE8104067E3BDE8104000F0C8BDA9
:10453000BDE8104001F059B801F068FA10BD70B53F
:1045400084B000F06EFD0600DFF80C5B0AD014208A
:104550000090A023DFF8042B294600F08FFD00F027
:10456000EFFF00E000261D4CA66600F05AFD38B1B2
:104570000F2100910523A26E05F1080105F043FA11
:10458000E06640200AF04CFE58B100F084FDA16EB8
:10459000009106238CA2217B04EBC101143105F0AC
:1045A00055FA206700F039FD38B14121009105230B
:1045B000A26E05F1180105F014FA606700F031FDF4
:1045C00028B11E2100913C23A26E00F023FDA067BC
:1045D000606FDFF88C1A41627FBD000048490020FF
:1045E0001C4B002038B5DFF8605A05F2101007F0B8
:1045F00057FEDFF8504A04F1840007F051FE05F23F
:10460000B81007F04DFE04F22C1007F049FE05F239
:10461000602007F045FE05F2083007F041FEDFF8A4
:104620001C0A0021016441648164C1640165416523
:104630008165C165016641668166C1660167DFF813
:10464000301A00220A604A608A60CA600A614A61C0
:104650008A61A261CA610A62E26122626262A26246
:10466000E26222636263A263E26322646264A26420
:10467000E26422656265A265426782674A628A6275
:10468000E26522666266CA62C267A266E266226765
:104690006267A26731BD0000D0D201080000344338
:1046A0001F85EB51B81E09402DE9FE4F00F0B9FC03
:1046B000DFF8948908F21015DFF8B86928B10321F2
:1046C00001F024FB314605F09EF9019000F0A9FCB1
:1046D00040B11E2101F01AFB06F10C0105F093F91F
:1046E000074600E0002700F09CFC40B13C2101F0AF
:1046F0000DFB06F1340105F086F9044600E00024C4
:1047000000F08FFC40B14B2101F000FB06F1580195
:1047100005F079F9814601E04FF0000900F081FCD5
:1047200040B15A2101F0F2FA06F17C0105F06BF973
:10473000824601E04FF0000A00F073FC40B1B42162
:1047400001F0E4FA06F1A00105F05DF9834601E00D
:104750004FF0000B00F065FC40B1732101F0D6FA78
:1047600006F1C00105F04FF9064600E0002608F208
:104770001018019901F03DF9394601F03AF9214646
:1047800001F037F9494601F034F9514601F031F9A9
:1047900001F02EF901F030F900F043FC68B19621E8
:1047A0000291F721019100952C234822DFF87C1D0E
:1047B000096805F031F9014600E00021404603B0E8
:1047C000BDE8F04F07F060BD25366400F04B0020D7
:1047D000014501082DE9F04F87B0DFF86C08002192
:1047E00080F8311180F8211100F01BFCDFF85448EB
:1047F00004F284010391DFF8808838B100F05AFC9C
:1048000008F1500105F0FFF8824601E04FF0000A80
:1048100000F007FC38B100F0CDFE08F1680105F0AA
:10482000F2F8074600E0002700F087FE30B12121B2
:1048300000F0C1FE08F22C110AF0FAFADFF8FC577A
:10484000286400F0EEFB0646DFF8E89C7EB13520D8
:1048500000F02CFC08F1740100F010FC09F10800D4
:1048600030603C229B2100F070FE049600E0049032
:1048700000F0D7FB38B1112100910F23049A08F101
:10488000880105F0C0F800F0CBFB38B1252100917C
:104890000F23049A08F1940105F0B5F800F04CFEDE
:1048A000BBA620B10F2100F093F905F0BDF8E86434
:1048B00000F043FE28B1232100F08AF9891C05F09D
:1048C000B3F8286500F0ADFB064676B114200090E1
:1048D000CD23039A08F1A00100F0D0FB09F10800F4
:1048E0003060AA22642100F030FE00F09AFB28B16B
:1048F00000F0D6FB08F1A80105F085F8686500F026
:1049000090FB30B1212100F0CCFB08F1B40105F09F
:104910007AF8A86500F085FB30B1332100F0C1FBC7
:1049200008F1C00105F06FF8E86500F07AFB30B1DE
:10493000452100F0B6FB08F1CC0105F064F82866CB
:1049400000F06FFB30B1572100F0ABFB08F1D8014C
:1049500005F059F8686600F064FB30B1692100F099
:10496000A0FB08F1E40105F04EF8A86600F059FB41
:1049700030B17B2100F095FB08F1F00105F043F820
:10498000E86600F04AFB30B18D2100F0F8FD08F137
:10499000FC0105F026F82867DFF8F81B41624CF2AD
:1049A000186100F01BFE04F2840B296F00F0FFF881
:1049B000514600F0FCF800F0F9F8296C00F0F7F827
:1049C0004FF00C0A00F0F6F80178286C0AF036FD7A
:1049D00000F0F4F8C00667D500F023FB070010D004
:1049E00000F063FB08F20811384605F00EF809F1F3
:1049F000080038603C22BE21384608F0B5F901971E
:104A000001E00020019000F00CFB40B11121009169
:104A10000523019A5FA104F0F6FF074600E0002796
:104A200000F0FFFA40B1252100910523019A5AA117
:104A300004F0E9FF814601E04FF0000900F07DFD40
:104A4000029028B1E06FFFF708FA0F2100F0CBF8D1
:104A5000686400F072FD029028B1E06FFFF7FDF985
:104A6000232100F0C0F8A864019900F0A0F800F03C
:104A70009DF8494600F09BF8696C00F098F8A96C25
:104A800000F095F800F096F84178686C0AF0D6FCD2
:104A900000F090F88178A86C0AF0D0FCDFF8FC0AEE
:104AA000696C4862A96C4862049900F080F8069924
:104AB00000F07DF8059900F07AF8E96C00F077F8DD
:104AC000296D00F074F8E86C00F089FD286D00F0A5
:104AD0004CFD010F022903D0C0F30360022811D15D
:104AE00000F09BFA30B1B22100F065FD08F2181118
:104AF00004F077FFE867014600F059F8E86FDFF847
:104B0000A01A4162314600F052F8696D00F04FF88A
:104B1000A96D00F04CF8E96D00F049F8296E00F03D
:104B200046F8696E00F043F8A96E00F040F8E96EAF
:104B300000F03DF800F03EF8417900F033F86A6D7E
:104B40005183817900F02EF8AA6D5183C17900F06C
:104B500029F8EA6D5183017A00F024F82A6E518316
:104B6000417A00F01FF86A6E5183817A00F01AF8DA
:104B7000AA6E518300F027F8E96E4883286CDFF8AD
:104B8000281A4162584600F0D8BE0000144C00209C
:104B9000253364004368310043683200008066407A
:104BA000FCE5010808EB4101898D704739465846FC
:104BB00007F06ABB207B0AFB00407047E06FD4F827
:104BC000801009690847C07A08EB4000808D704763
:104BD00002916E2101910499009103233246217BB9
:104BE00005EB8111704700912123019A08EB8000A9
:104BF000416B02980AF01CB92DE9F04F89B000F022
:104C000010FADFF8448408F2B8110391DFF8A09994
:104C100020B100F04FFA494604F0F5FE089000F08C
:104C200000FA060009D0142000F040FA09F114013E
:104C300000F024FA00F084FC00E0002600F0F1F916
:104C400020B11E2100913C2300F0E3F9079000F011
:104C5000E8F920B1412100913C2300F0D6F900F0A1
:104C6000DFF928B100F01CFA09F1200104F0CBFEB5
:104C7000059040200AF0D4FADFF8C87350B100F074
:104C80000AFA00960623D1A2397B07EBC101103145
:104C900004F0DCFEDFF8D84320603F2100F0F6F995
:104CA0000546402100F0F2F921688863CD6300F0E9
:104CB000B8F930B1322100F0F4F909F1300104F013
:104CC000A2FE049000F039FC48B141210291052177
:104CD0000191009600F07CF9091D04F0A5FE6060CA
:104CE00000F08EFE00F099F938B1412100915A236D
:104CF000324609F1400104F074FEA060DFF8801C28
:104D00004162FFF71CFC00F08CF9054675B100F01C
:104D1000CCF909F14801284604F077FEDFF8640C6D
:104D200028604B226821284608F01EF800F079F927
:104D300030B100F058FEC2A104F065FE824601E0E9
:104D40004FF0000A00F06DF930B1232100F04CFE65
:104D500000F0E1FB834601E04FF0000B00F0EDFBBB
:104D600028B1142100F045F9891D04F05DFEE060D2
:104D700000F0E3FB28B1232100F03BF9083104F0F7
:104D800053FE206108F2B818089900F032FE079926
:104D900000F02FFE069900F02CFE00F02DFE059984
:104DA00000F027FE216800F024FE049900F021FEA7
:104DB000616800F01EFEA16800F01BFEB96E00F0F5
:104DC00018FEF96E00F015FE396F00F012FEB96F93
:104DD00000F00FFE386F00F002FC796F00F009FE62
:104DE000294600F006FE514600F003FE00F000FEEA
:104DF000E16800F0FEFD216900F0FBFD00F041F9E3
:104E0000800723D500F00DF938B1322100F0ECFD18
:104E10008FA104F0F8FD064600E0002600F08DFBAF
:104E200048B13221029128210191009500F0D0F87B
:104E30000A3104F0F9FD606100F0DEFD616900F007
:104E4000D8FD606900F0DCFD00F07CFDE06800F05A
:104E5000D7FD206900F0D4FD00F013F9C00740F140
:104E6000AD8000F0DEF806000FD0732000907D23A7
:104E7000039A09F1540100F001F9DFF8080B3060E2
:104E80004B22B42100F061FB00E0002600F0C9F8DD
:104E900040B10E2100F073FB09F1640104F0B3FD91
:104EA000054600E0002500F0BCF848B10E21009155
:104EB0005023324609F1640104F0A5FD814601E06A
:104EC0004FF0000900F039FB0FF2881A38B11921B0
:104ED00002910A2100F0A8F80C3104F0A5FDA061B0
:104EE00000F02BFB38B119210291502100F09CF801
:104EF0000E3104F099FDB86100F093F820B12C2137
:104F000000F041FB824601E04FF0000A00F089F812
:104F100038B12C2100915023324600F0FCFA834630
:104F200001E04FF0000B00F008FB38B1372102918F
:104F30000A2100F054F8103104F076FDE06100F031
:104F4000FCFA38B137210291502100F048F81231B3
:104F500004F06AFD206200F04FFD294600F049FD93
:104F6000494600F046FDA16900F043FDB96900F033
:104F700040FDB86900F033FB514600F03AFD00F007
:104F800037FDE16900F035FD216A00F032FDA069CE
:104F9000002181864FF47A71C186E16900228A86F8
:104FA00047F6FF72CA86226A0023938647F6FF738C
:104FB000D386DFF8483D43624B62536200F0C2FC87
:104FC00020694162404609B000F0B8BC2536640053
:104FD000062324A2397B194D05EB811170470191FD
:104FE000009606231FA2397BDFF850C00CEB81111D
:104FF00070470291282101910095062319A2397B5F
:10500000DFF838C00CEB81117047324616A104F06E
:10501000FABC324615A104F0F6BC30200AF000B903
:10502000069028200AF0FCB801910096042352460D
:10503000397BDFF808C00CEB811170471C4B002056
:105040004B500000484900209845002004F4010816
:105050004B44000025346400FCF10108BC450020ED
:105060009B5D0108253664006D73000072706D0051
:105070009C4B002008DC0108D0D20108304604F027
:10508000C4BCF86FD7F8801009690847F86FD7F8E3
:105090008020126810471E2102910521019170475E
:1050A0000F210091052332467047732000900A2398
:1050B000039A7047002100910023039A7047000073
:1050C0002DE9F04F8BB0FFF7ACFFDFF8384C04F25E
:1050D0002C1ADFF834BC38B100210091002352466D
:1050E0000BF1200104F08FFC0A90FFF79AFF38B112
:1050F00087210091E62352460BF1340104F083FC32
:105100000990FFF78EFF07000BD0142000900A23B0
:1051100052460BF13C01384604F077FC00F017FCD6
:1051200000E00027FFF77DFF20B100F057FC594653
:1051300004F069FCE06100F000FADFF8308C0FF257
:10514000800930B100F03EFC00F007FA143104F0A1
:105150006BFC2062FFF765FF20B100F03AFC19A15B
:1051600004F051FC089000F0E8F930B100F023FCA5
:1051700000F0F3F9163104F057FC6062FFF751FFBD
:1051800030B1322100F02BFC0BF1080104F03BFCA4
:10519000A06200F0D2F930B100F007FC00F0DCF9B9
:1051A000183104F041FCE062FFF73BFF60B13221AF
:1051B00000F010FCD9A104F026FC054605E000BF74
:1051C0002536640049710000002500F0B6F930B1C1
:1051D00000F0E5FB00F0C0F91A3104F025FC206373
:1051E000FFF71FFF06466EB1732000900A23524658
:1051F0000BF14801FFF742FF00F092F900F0A5F92A
:10520000039600E00390FFF70CFF20B100F0D2F905
:10521000C7A104F0F8FB079000F08FF928B1142122
:1052200000F0CDF91C3104F0FFFB6063FFF7F9FEDD
:1052300020B1232100F0BFF900F06DF9069000F0D5
:105240007CF928B1232100F0BAF91E3104F0ECFBFF
:10525000A063FFF7E6FE06465EB173200090782358
:1052600052460BF15801FFF709FF00F059F900F021
:105270006CF9FFF7D6FE10B1142100F084F900F0AC
:105280005BF928B1142100F063F9223104F0CCFB62
:105290006064FFF7C6FE18B100F070F900F03BF94A
:1052A000049000F04AF928B1232100F051F924318B
:1052B00004F0BAFBA064FFF7B0FE38B1732100918F
:1052C000E62352460BF1680104F092FB606500F0A2
:1052D00034F938B196210091E62352460BF1700162
:1052E00009F0A6FDA065FFF72AF90A9900F03AF93E
:1052F000099900F037F9394600F034F9E16900F016
:1053000031F9216A00F02EF9089900F02BF9616A51
:1053100000F028F9606A00F062F9A16A00F022F951
:10532000E16A00F01FF9294600F01CF9216B00F03A
:1053300019F9206B00F053F9A16E00F013F9E16E3A
:1053400000F010F9216F00F00DF9A16F00F00AF9DB
:10535000206F00F044F9616F00F004F94FF00C0B7E
:10536000207B0BFB00400779039900F0FBF80799BD
:1053700000F0F8F8616B00F0F5F8069900F0F2F82B
:10538000A16B00F0EFF8606BDFF8C01A4162A06B10
:10539000DFF8BC1A416247F6FF75FFF70FFC4007C4
:1053A0001FD5FFF73EFE28B1322100F004F97AA1A3
:1053B00004F029FBE06300F0C0F828B1322100F0CE
:1053C000FEF8203104F030FB2064E16B00F0CAF8F5
:1053D000216C00F0C7F8206C00F0FCF8DFF8741ABC
:1053E0004162606B00F0F6F8A06B8186C58631469D
:1053F00000F0B8F8059900F0B5F8616C00F0B2F86B
:10540000049900F0AFF8A16C00F0ACF8781E804170
:10541000C00F8DF80C00FFF7D1FB000726D5FFF772
:1054200000FE28B1322100F0AAF85BA104F0EBFAEB
:10543000E06400F082F828B1322100F089F82631CA
:1054400004F0F2FA2065E16C00F08CF8216D00F0B8
:1054500089F8206D00F0BEF89DF80C1080F822103D
:1054600009B980F82110206D00F06DFA606C00F031
:10547000B1F8A06C8186C586616D00F073F8A16DEE
:1054800000F070F8207B0BFB0040C178A06D09F0A4
:10549000D5FFFEF785FE656D6A6A100005D095F8A8
:1054A000210010B139462846904785F82C709DF8A8
:1054B0000C00616C81F8220010B9002281F82120D3
:1054C000A16C81F8220008B981F82100A06DDFF8F5
:1054D00088194162606DDFF884194162206ADFF843
:1054E00080194162E16ADFF87C294A62616CDFF869
:1054F0000C284A62A16C4A62217B0BFB01410978AE
:1055000031B900F032F8800602D4E06A00F067F8A2
:1055100050460BB012E223A104F075BA49640000B2
:10552000DFF8440930604B22682170479045002025
:105530004B50000000F101080590382009F070BEC2
:10554000DFF8240930605A229121304607F00CBC64
:10555000029128210191009606234A46217B08EBFF
:1055600081117047504606F08FBE80F8221080F8F7
:105570002110E06FD4F880100969084723210091B9
:105580000A233246704700910A23324607A104F0ED
:105590003ABA0000495D01084B440000F14301089C
:1055A0008D5D01084B490000B54301084B500000D8
:1055B00048E80108142100910A23039A70470291D8
:1055C000282101910399009106234A46217B08EB8B
:1055D0008111704700218186C58670474183002173
:1055E00080F8221080F8211070472DE9F04F87B025
:1055F00000F07EFB0546DFF8748808F26020049016
:10560000DFF86C98280F09280CD1FFF70AFD40B18C
:10561000002100910023049A494604F0F4F906465B
:1056200000E00026C5F3036009280DD1FFF7F9FC5F
:1056300048B1002100910023049A09F11C0104F0F3
:10564000E2F9064600E0002605F040008DF80C0067
:1056500050B1FFF7E6FC0746A7B1142000900A23DB
:10566000049A09F1400108E0FFF7DBFC07464FB15F
:10567000142000900A23049ABEA1384604F0C5F90C
:1056800000F065F9FFF7CDFC20B100F0A7F9BAA151
:1056900004F0B9F9FFF750FFDFF8D0A630B100F001
:1056A00091F900F061F9283104F0BEF9CAF87400EC
:1056B000FFF7B7FC30B100F08CF9B0A104F0A3F90A
:1056C000834601E04FF0000BFFF737FF30B100F0E9
:1056D00072F900F049F92A3104F0A6F9CAF8780005
:1056E000FEF72DFF08F2602800F086F9394600F039
:1056F00080F9059900F07DF9DAF8741000F079F975
:1057000000F076F9DAF8781000F073F9A04E9DF801
:105710000C00002840D0FFF784FC30B1322100F0AB
:105720005EF909F14C0104F06EF90390FFF705FFF3
:1057300030B100F03AF900F016F9303104F074F9A4
:10574000706200F0F9FA40B1322100F043F909F13A
:10575000540104F058F9834601E04FF0000BFFF7C5
:10576000ECFE30B100F01BF900F0FDF8323104F02E
:105770005BF9B06200F044F9039900F03AF9716AFC
:1057800000F037F900F034F9B16A00F032F9706ACC
:1057900000F0D9F8B06A4162A16E00F02AF9E16E1A
:1057A00000F027F9216F00F024F9A16F00F021F932
:1057B00000F0B7FA280F092840F0B780FFF731FC56
:1057C000050012D0732000900A23049A09F15C01AD
:1057D000284604F01AF9DFF8900628604B2240F2C0
:1057E0002711284607F0C0FA00E00025FFF719FC52
:1057F00028B100F0F8F809F16C0104F004F9FFF7A2
:105800009BFE28B1142100F0AAF8343104F00CF901
:1058100000F091FA30B1232100F0E6F809F17801A7
:1058200004F0F1F80490FFF788FE28B1232100F07E
:1058300096F8363104F0F8F82066FFF7F2FB30B145
:10584000322100F0D1F809F1800104F0DCF8039076
:10585000FFF773FE28B1322100F081F8383104F0EF
:10586000E3F86066FFF7DDFB48B114210091B42333
:105870002A4609F1880104F0C6F8814601E04FF09C
:105880000009FFF75AFE58B114210291E621019157
:10589000009503233CA200F068F83A3104F0C4F804
:1058A000F06200F01FFAF16A00F034FA38B1142106
:1058B00000918C232A46FFF7A9FB074600E000274A
:1058C000FFF7AFFB38B1232100918C232A46FFF765
:1058D000A1FB834601E04FF0000B217B0AEB811016
:1058E00000F058F8F06A00F0F1F9394600F081F85C
:1058F00000F07EF8294600F07CF8059900F079F870
:10590000E16D00F076F8049900F073F8216E00F074
:1059100070F8039900F06DF8616E00F06AF849467E
:1059200000F067F8F16A00F064F8DAF8740000F04B
:105930000AF8DAF878004162404607B0BDE8F04F57
:1059400006F0C5BCE068DFF8B41341627047DFF8C9
:10595000180538605A229121384607F005BA02919D
:10596000502101910095062308A2217B0AEB8111A9
:105970007047000053544F00473100004732000089
:10598000715D010808F101082533640025366400C3
:105990009C4B0020428FD2B2E06FFEF708B8412145
:1059A00002915021019100977047412102910521F8
:1059B0000191009770471E2102915021019100979B
:1059C000062370471E2102910521019100970623AD
:1059D00070470F21009150233A4670470F210091E4
:1059E00005233A467047142100910A232A4670473E
:1059F0005946404606F048BC3146404606F044BC95
:105A00000021818647F6FF71C18670472DE9F04F6E
:105A100085B000F06DF90546DFF8508408F20830D3
:105A200003902E0F0A2E0CD1FFF7FBFA38B1FFF7C7
:105A300041FBDFF8401403F0E6FF824601E04FF03F
:105A4000000AC5F303600A280CD1FFF7EAFA38B15F
:105A5000FFF730FBDFF8201403F0D5FF824601E0AA
:105A60004FF0000AFFF7DDFA054675B11420FFF785
:105A70001DFBA3A1284603F0C8FFDFF8EC03286054
:105A80005A229121284607F06FF9FFF7CAFA38B178
:105A90000F2100F03BF9AEA103F0B5FF814601E014
:105AA0004FF00009FFF749FDB04F38B1FFF7F3FAA7
:105AB000009500F005F92C3103F0B6FF7867FFF789
:105AC000B0FA40B10F21009150232A46A1A103F062
:105AD0009AFF834601E04FF0000BFFF72EFD48B11F
:105AE0001E21029150210191009500F0E9F82E311C
:105AF00003F09AFFB867FEF722FD08F20838514616
:105B0000FFF777FF2946FFF774FF4946FFF771FF5C
:105B1000796FFFF76EFFFFF76BFFB96FFFF769FF54
:105B2000A16EFFF766FFE16EFFF763FF216FFFF7DE
:105B300060FFA16FFFF75DFF00F0F3F80A2E40F061
:105B4000B380FFF76EFA06000DD0FFF7AEFADFF86C
:105B50002C13FFF793FAC44830604B2240F2271110
:105B6000FFF7F3FC00E00026FFF75BFA28B11421F1
:105B7000FFF705FDC24903F046FF0490FFF7DDFC87
:105B800028B1142100F098F8343103F04DFF00F0F3
:105B9000D2F820B1FFF7F2FCBA4903F034FF0390CA
:105BA000FFF7CBFC28B1232100F086F8363103F053
:105BB0003BFF2066FFF735FA38B13221FFF7DFFCF3
:105BC000B14903F020FF824601E04FF0000AFFF7E1
:105BD000B4FC28B1322100F06FF8383103F024FF13
:105BE0006066FFF71EFA40B114210091B4233246DB
:105BF000A64903F008FF054600E00025FFF79DFCDD
:105C000058B114210291E6210191009603238DA23F
:105C100000F058F83A3103F007FF9D49C86200F0E0
:105C200061F89B49C96A00F075F830B11421009100
:105C30008C23FFF7EAF9814601E04FF00009FFF7F6
:105C4000F0F930B1232100918C23FFF7E2F983466C
:105C500001E04FF0000B217B07EB8110FFF79AFE6C
:105C60008B48C06A00F032F84946FFF7C2FEFFF7E2
:105C7000BFFEFFF7C1FE0499FFF7BBFEE16DFFF722
:105C8000B8FE0399FFF7B5FE216EFFF7B2FE51464D
:105C9000FFF7AFFE616EFFF7ACFE2946FFF7A9FEE6
:105CA0007B48C16AFFF7A5FE1448796F4862B96F57
:105CB0004862404605B041E60291502101910096AC
:105CC000062361A2217B07EB811170477149416274
:105CD000E06D71494162206E70494162606E7049A9
:105CE000416270472221E06FD4F88020126810478B
:105CF0006C4CE06FD4F88010096908471B3F01081D
:105D000053544F0048490020FCE501080091052349
:105D10002A46704700228A86401EC886282009F03D
:105D20007FBA206F002180F8221080F82110616F67
:105D3000404606F0A9BAE0650021818647F6FF716A
:105D4000C186282009F06CBA564A072120E00000DD
:105D500047310000473200009B6801B0BDE8304089
:105D60001847E06FD4F880309B6818471C4B002020
:105D70004C4B187B4C4901EB80118A8803EBC00027
:105D80000169D86FD3F880305B681847454A08210D
:105D9000D06FD2F88020D26810472DE9F04F83B041
:105DA000FEF7A0FB404901EB80150C214143D4F8DC
:105DB0008060E76F0A5D3AB9AA8804EBC000016908
:105DC00038467368984734E00819C07810B1012844
:105DD00003D02EE0FEF780F928E0FEF782F9FEF707
:105DE00084F9FEF7A2F980468946012206F07CFC80
:105DF00082468B4600224046494606F075FCCDE9B6
:105E00000001B5F93C0009F05DF88046894600F0D4
:105E10004DF808F06FFE05B242464B46DDE9000141
:105E200007F0C4F808F066FE2A4601B23846336A25
:105E300098470621E06FD4F88020D26803B0BDE80F
:105E4000F04F104725336400253664004F3F0108AA
:105E5000773F0108AF3F0108974301084B44010811
:105E6000EB3F01084940010808F10108984500206E
:105E7000C4DD010854DE010874DE010820DE0108DB
:105E800030DE01083CDE010844DE01084CDE01087A
:105E90009C4B002035410108634101087541010810
:105EA0008F410108484900201C4B002052465B46A8
:105EB00007F07CB8424D02190000000000004200CB
:105EC000000028000000480000002C000000010035
:105ED000100003000000C0180000000000000000D7
:105EE0000000000000000000000000F80000E007D3
:105EF00000001F000000FFFFFFFFFFFFFFFFFFFF8D
:105F0000FFFFFFFFFFFFFFFFBEF7BEF7BEF7BEF7C5
:105F1000BEF7BEF7BEF7BEF7BEF7BEF7BEF7BEF7D9
:105F2000BEF7BEF7BEF7BEF7BEF7BEF7BEF7BEF7C9
:105F3000BEF7BEF7BEF7BEF7BEF7BEF7BEF7BEF7B9
:105F4000BEF7BEF7BEF7BEF7BEF7BEF7BEF7BEF7A9
:105F5000BEF7BEF7BEF7BEF7BEF7BEF7BEF7BEF799
:105F6000BEF7FFFFFFFFFFFFFFFFFFFFFFFFFFFF8A
:105F7000FFFFFFFFFFFFFFFFFFFFFFFFFFFFFFFF31
:105F8000FFFFFFFFFFFFFFFFFFFFFFFFFFFFFFFF21
:105F9000FFFFFFFFFFFFBEF7BEF77DEF7DEF7DEF59
:105FA0007DEF7DEF7DEF7DEF7DEF7DEF7DEF7DEF91
:105FB0007DEF7DEF7DEF7DEF7DEF7DEF7DEF7DEF81
:105FC0007DEF7DEF7DEF7DEF7DEF7DEF7DEF7DEF71
:105FD0007DEF7DEF7DEF7DEF7DEF7DEF7DEF7DEF61
:105FE0007DEF7DEF7DEF7DEF7DEF7DEF7DEF7DEF51
:105FF000BEF7FFFFFFFFFFFFFFFFFFFFFFFFFFFFFA
:10600000FFFFFFFFFFFFFFFFFFFFFFFFFFFFFFFFA0
:10601000FFFFFFFFFFFFFFFFFFFFFFFFFFFFFFFF90
:10602000FFFFBEF77DEF3CE73CE7FBDEFBDEBAD6C9
:10603000BAD6BAD6BAD6BAD6BAD6BAD6BAD6BAD6E0
:10604000BAD6BAD6BAD6BAD6BAD6BAD6BAD6BAD6D0
:10605000BAD6BAD6BAD6BAD6BAD6BAD6BAD6BAD6C0
:10606000BAD6BAD6BAD6BAD6BAD6BAD6BAD6BAD6B0
:10607000BAD6BAD6BAD6BAD6BAD6BAD6BAD63CE70D
:106080007DEFBEF7FFFFFFFFFFFFFFFFFFFFFFFFFB
:10609000FFFFFFFFFFFFFFFFFFFFFFFFFFFFFFFF10
:1060A000FFFFFFFFFFFFFFFFFFFFFFFFFFFFFFFF00
:1060B000BEF73CE7BAD679CE79CE38C6F7BDF7BD84
:1060C000B6B5B6B5B6B5B6B5B6B5B6B5B6B5B6B578
:1060D000B6B5B6B5B6B5B6B5B6B5B6B5B6B5B6B568
:1060E000B6B5B6B5B6B5F7BDF7BDF7BDB6B5B6B57D
:1060F000B6B5B6B5B6B5B6B5B6B5B6B5B6B5F7BDFF
:10610000F7BDF7BDF7BDF7BDF7BDF7BDF7BD79CE5C
:10611000FBDE7DEFFFFFFFFFFFFFFFFFFFFFFFFF46
:10612000FFFFFFFFFFFFFFFFFFFFFFFFFFFFFFFF7F
:10613000FFFFFFFFFFFFFFFFFFFFFFFFFFFFFFFF6F
:10614000FFFFBEF73CE73CE73CE71CDF1CDF1CDF42
:106150001CDF1CDF1CDF1CDF1CDF1CDF1CDF1CDF67
:106160001CDF1CDF1CDF1CDF1CDF1CDF1CDF1CDF57
:106170001CDF1CDF1CDF7DEF7EEF7EEF7EEF3CE758
:106180001CDF1CDF1CDF1CDF1CDF3CE77DEFBFF7E3
:10619000BFF7BFF7BFF7BFF7BFF77DEFBAD6F7BDC1
:1061A00079CE3CE7FFFFFFFFFFFFFFFFFFFFFFFF91
:1061B000FFFFFFFFFFFFFFFFFFFFFFFFFFFFFFFFEF
:1061C000FFFFFFFFFFFFFFFFFFFFFFFFFFFFFFFFDF
:1061D000FFFFFFFFFFFFBEF7BEF7BEF7BEF7BEF73C
:1061E000BEF7BEF7BEF7BEF7BEF7BEF7BEF7BEF707
:1061F000BEF7BEF7BEF7BEF7BEF7BEF7BEF7BEF7F7
:10620000BEF77DEFDD8DBB541E557E6DDFFFFFFFBA
:10621000BEF7BEF7BEF7BEF77DEF5C7D3D653D6521
:106220007F657F657F657F657F65BFAEBEF738C6DA
:1062300038C6FBDE7DEFFFFFFFFFFFFFFFFFFFFF25
:10624000FFFFFFFFFFFFFFFFFFFFFFFFFFFFFFFF5E
:10625000FFFFFFFFFFFFFFFFFFFFFFFFFFFFFFFF4E
:10626000FFFFFFFFFFFFFFFFFFFFFFFFFFFFFFFF3E
:10627000FFFFFFFFFFFFFFFFFFFFFFFFFFFFFFFF2E
:10628000FFFFFFFFFFFFFFFFFFFFFFFFFFFFFFFF1E
:10629000FFFFBEF73CE75B7D5A0B9B0B7EAEFFFF1B
:1062A000FFFFFFFFFFFFFFFF7DEFDB647B0BDD0BDD
:1062B000FF0BFF0BFF0BFF0BFF0B7F24FFFFBAD67B
:1062C000F7BDBAD63CE7FFFFFFFFFFFFFFFFFFFF71
:1062D000FFFFFFFFFFFFFFFFFFFFFFFFFFFFFFFFCE
:1062E000FFFFFFFFFFFFFFFFFFFFFFFFFFFFFFFFBE
:1062F000FFFFFFFFFFFFFFFFFFFFFFFFFFFFFFFFAE
:10630000FFFFFFFFFFFFFFFFFFFFFFFFFFFFFFFF9D
:10631000FFFFFFFFFFFFFFFFFFFFFFFFFFFFFFFF8D
:10632000FFFFFFFF7DEF3CE79B8D5A0BBD44FFFF56
:10633000FFFFFFFFFFFFFFFF7DEF7BBE7A0B9C0B94
:10634000DE0BFF0BFF0BFF0BFF0BFF0BBFAEBEF710
:10635000F7BD38C6FBDE7DEFFFFFFFFFFFFFFFFF4E
:10636000FFFFFFFFFFFFFFFFFFFFFFFFFFFFFFFF3D
:10637000FFFFFFFFFFFFFFFFFFFFFFFFFFFFFFFF2D
:10638000FFFFFFFFFFFFFFFFFFFFFFFFFFFFFFFF1D
:10639000FFFFFFFFFFFFFFFFFFFFFFFFFFFFFFFF0D
:1063A000FFFFFFFFFFFFFFFFFFFFFFFFFFFFFFFFFD
:1063B000FFFFFFFFFFFF7DEF3CE7DB5C7B0BBEBE1B
:1063C000FFFFFFFFFFFFFFFFBEF73CE77A4C7B0BB1
:1063D000DD0BFF0BFF0BFF0BFF0BFF0BDF34FFFF92
:1063E00079CEF7BDBAD67DEFFFFFFFFFFFFFFFFFBE
:1063F000FFFFFFFFFFFFFFFFFFFFFFFFFFFFFFFFAD
:10640000FFFFFFFFFFFFFFFFFFFFFFFFFFFFFFFF9C
:10641000FFFFFFFFFFFFFFFFFFFFFFFFFFFFFFFF8C
:10642000FFFFFFFFFFFFFFFFFFFFFFFFFFFFFFFF7C
:10643000FFFFFFFFFFFFFFFFFFFFFFFFFFFFFFFF6C
:10644000FFFFFFFFFFFFFFFF7DEFBBCE7A0BBD44D9
:10645000FFFFFFFFFFFFFFFFFFFF7DEF1BAE5A0BAC
:106460009C0BFF0BFF0BFF0BFF0BFF0BFF0BFFBE8C
:106470007DEFB6B579CE3CE77DEFFFFFFFFFFFFF75
:10648000FFFFFFFFFFFFFFFFFFFFFFFFFFFFFFFF1C
:10649000FFFFFFFFFFFFFFFFFFFFFFFFFFFFFFFF0C
:1064A000FFFFFFFFFFFFFFFFFFFFFFFFFFFFFFFFFC
:1064B000FFFFFFFFFFFFFFFFFFFFFFFFFFFFFFFFEC
:1064C000FFFFFFFFFFFFFFFFFFFFFFFFFFFFFFFFDC
:1064D000FFFFFFFFFFFFFFFFBEF73CE77A4C9B0B80
:1064E0003FD7FFFFFFFFFFFFFFFFBEF73CE7FA3399
:1064F0009B0BDE0BFF0BFF0BFF0BFF0BFF0B3F5D3F
:10650000FFFF38C6F7BDFBDE7DEFFFFFFFFFFFFF9C
:10651000FFFFFFFFFFFFFFFFFFFFFFFFFFFFFFFF8B
:10652000FFFFFFFFFFFFFFFFFFFFFFFFFFFFFFFF7B
:10653000FFFFFFFFFFFFFFFFFFFF7EAE7EAEBFAEA0
:10654000BFAEBFAEBFAEBFAEBFAEBFAEBFAEBFAEE3
:10655000BFAEBFAEBFAEBFAEBFAEBFAEBFAEFFBE83
:10656000FFFFFFFFFFFFFFFFBEF77DEF7B859B0B6C
:10657000BF75FFFFFFFFFFFFFFFFBEF77DEF9B8DA6
:106580005A0BDD0BFF0BFF0BFF0BFF0BFF0B1F1459
:10659000BFEFFBDEB6B579CE3CE77DEFFFFFFFFF37
:1065A000FFFFFFFFFFFFFFFFFFFFFFFFFFFFFFFFFB
:1065B000FFFFFFFFFFFFFFFFFFFFFFFFFFFFFFFFEB
:1065C000FFFFFFFFFFFFFFFFFFFF5C3C9B0BDE0BAE
:1065D000FF0BFF0BFF0BFF0BFF0BFF0BFF0BFF0B6B
:1065E000FF0BFF0BFF0BFF0BFF0BFF0BFF0BFF0B5B
:1065F0007FE7FFFFFFFFFFFFFFFF7DEFDB9D9B0BB3
:106600003E24BFEFFFFFFFFFFFFFFFFF7DEFFCDE3C
:106610009A1B9C0BDE0BFF0BFF0BFF0BFF0BFF0B03
:10662000FF85BEF7F7BD38C6FBDE7DEFFFFFFFFF3E
:10663000FFFFFFFFFFFFFFFFFFFFFFFFFFFFFFFF6A
:10664000FFFFFFFFFFFFFFFFFFFFFFFFFFFFFFFF5A
:10665000FFFFFFFFFFFFFFFFFFFF7EAE7B0BDD0BAA
:10666000FF0BFF0BFF0BFF0BFF0BFF0BFF0BFF0BDA
:10667000FF0BFF0BFF0BFF0BFF0BFF0BDE0B5D3464
:10668000BFEFFFFFFFFFFFFFFFFF7DEFDB9D9C0BD9
:10669000DE0B7F9EFFFFFFFFFFFFFFFFBEF73CE724
:1066A000FA6C7B0BDD0BFF0BFF0BFF0BFF0BFF0BE4
:1066B0007F24FFFFBAD6F7BDBAD63CE7FFFFFFFF46
:1066C000FFFFFFFFFFFFFFFFFFFFFFFFFFFFFFFFDA
:1066D000FFFFFFFFFFFFFFFFFFFFFFFFFFFFFFFFCA
:1066E000FFFFFFFFFFFFFFFFFFFFBEF7DC1B9C0B61
:1066F000DE0BFF0BFF0BFF0BFF0BFF0BFF0BFF0B6B
:10670000FF0BFF0BFF0BFF0BFF0BDE0B5D343FD7C7
:10671000FFFFFFFFFFFFFFFFFFFF7DEF5C7DDD0B56
:10672000FF0BFF44FFFFFFFFFFFFFFFFFFFF7DEFBA
:106730007BBE7A0B9C0BDE0BFF0BFF0BFF0BFF0BE3
:10674000FF0BBFAE7DEFB6B538C61CDF7DEFFFFF98
:10675000FFFFFFFFFFFFFFFFFFFFFFFFFFFFFFFF49
:10676000FFFFFFFFFFFFFFFFFFFFFFFFFFFFFFFF39
:10677000FFFFFFFFFFFFFFFFFFFFFFFF9C859B0B5E
:10678000DD0BFF0BFF0BFF0BFF0BFF0BFF0BFF0BDB
:10679000FF0BFF0BFF0BFF0BDE0BBD447FE7FFFF83
:1067A000FFFFFFFFFFFFFFFFFFFF7DEF3C34DE0B2E
:1067B000FF0BFF0BFFBEFFFFFFFFFFFFFFFFBEF75B
:1067C0003CE77A4C9B0BDE0BFF0BFF0BFF0BFF0B29
:1067D000FF0BFF44FFFF38C6F7BDBAD67DEFFFFFC2
:1067E000FFFFFFFFFFFFFFFFFFFFFFFFFFFFFFFFB9
:1067F000FFFFFFFFFFFFFFFFFFFFFFFFFFFFFFFFA9
:10680000FFFFFFFFFFFFFFFFFFFFFFFF7DEF7B0BA2
:106810009C0BDE0BFF0BFF0BFF0BFF0BFF0BFF0BAC
:10682000FF0BFF0BFF0BDE0BBD44BFF7FFFFFFFFAE
:10683000FFFFFFFFFFFFFFFFBEF75DAEDD0BFF0BAE
:10684000FF0BFF0B7F65FFFFFFFFFFFFFFFFFFFF5A
:106850007DEFDB9D5A0BDD0BFF0BFF0BFF0BFF0BDF
:10686000FF0BFF0B7FE73CE7B6B579CE3CE77DEF4A
:10687000FFFFFFFFFFFFFFFFFFFFFFFFFFFFFFFF28
:10688000FFFFFFFFFFFFFFFFFFFFFFFFFFFFFFFF18
:10689000FFFFFFFFFFFFFFFFFFFFFFFFFFFF9C4C1E
:1068A0009B0BDD0BFF0BFF0BFF0BFF0BFF0BFF0B1E
:1068B000FF0BFF0BDD0B3D65BFF7FFFFFFFFFFFF8A
:1068C000FFFFFFFFFFFFFFFF7EEF3C34DE0BFF0B00
:1068D000FF0BFF0B3F147FE7FFFFFFFFFFFFFFFFF3
:1068E0007DEFFCDEFA339B0BDE0BFF0BFF0BFF0B88
:1068F000FF0BFF0BBF75DFFFF7BDF7BDFBDE7DEFC5
:10690000FFFFFFFFFFFFFFFFFFFFFFFFFFFFFFFF97
:10691000FFFFFFFFFFFFFFFFFFFFFFFFFFFFFFFF87
:10692000FFFFFFFFFFFFFFFFFFFFFFFFFFFFFDD6A2
:106930007B0B9C0BDE0BFF0BFF0BFF0BFF0BFF0B0F
:10694000FF0BDD0B9E7DDFFFFFFFFFFFFFFFFFFF64
:10695000FFFFFFFFFFFFFFFF3D65DE0BFF0BFF0BA0
:10696000FF0BFF0BFF0B3F8EFFFFFFFFFFFFFFFF44
:10697000BEF73CE75B7D7B0BDD0BFF0BFF0BFF0BDB
:10698000FF0BFF0B7F24DFF7BAD6F7BDBAD63CE783
:10699000BEF7FFFFFFFFFFFFFFFFFFFFFFFFFFFF50
:1069A000FFFFFFFFFFFFFFFFFFFFFFFFFFFFFFFFF7
:1069B000FFFFFFFFFFFFFFFFFFFFFFFFFFFFFFFFE7
:1069C0009C4C9B0BDD0BFF0BFF0BFF0BFF0BFF0B1F
:1069D000DE0BDE8DDFFFFFFFFFFFFFFFFFFFFFFF8F
:1069E000FFFFFFFFFFFF9E7DDE0BFF0BFF0BFF0B8B
:1069F000FF0BFF0BFF0BDF34DFF7FFFFFFFFFFFF96
:106A0000FFFF7DEF9CC67A0B9C0BDE0BFF0BFF0B91
:106A1000FF0BFF0BFF0B7F9EBEF7F7BD38C6FBDEFB
:106A20007DEFFFFFFFFFFFFFFFFFFFFFFFFFFFFF08
:106A3000FFFFFFFFFFFFFFFFFFFFFFFFFFFFFFFF66
:106A4000FFFFFFFFFFFFFFFFFFFFFFFFFFFFFFFF56
:106A50005DAE7B0BDD0BFF0BFF0BFF0BFF0BDE0BAC
:106A60009E7DFFFFFFFFFFFFFFFFFFFFFFFFFFFF19
:106A7000FFFFFFFF9E7DDE0BFF0BFF0BFF0BFF0BEE
:106A8000FF0BFF0BFF0BFF0BBFAEFFFFFFFFFFFF77
:106A9000FFFFBEF73CE7BB547B0BDD0BFF0BFF0B8F
:106AA000FF0BFF0BFF0BDF34FFFF79CEF7BDBAD62C
:106AB0007DEFFFFFFFFFFFFFFFFFFFFFFFFFFFFF78
:106AC000FFFFFFFFFFFFFFFFFFFFFFFFFFFFFFFFD6
:106AD000FFFFFFFFFFFFFFFFFFFFFFFFFFFFFFFFC6
:106AE000BEF73C349C0BDE0BFF0BFF0BFF0B7E6DE8
:106AF000FFFFFFFFFFFFFFFFFFFFFFFFFFFFFFFFA6
:106B0000DFF73D65DE0BFF0BFF0BFF0BFF0BFF0BF2
:106B1000FF0BFF0BFF0BFF0B1F4DFFFFFFFFFFFFE7
:106B2000FFFFFFFF7DEF1BAE5A0BDD0BFF0BFF0BD3
:106B3000FF0BFF0BFF0BFF0BFFBE7DEFB6B579CE52
:106B40001CDF7DEFFFFFFFFFFFFFFFFFFFFFFFFFEA
:106B5000FFFFFFFFFFFFFFFFFFFFFFFFFFFFFFFF45
:106B6000FFFFFFFFFFFFFFFFFFFFFFFFFFFFFFFF35
:106B7000FFFF9C857B0BDD0BFF0BFF0B5E2CBFF734
:106B8000FFFFFFFFFFFFFFFFFFFFFFFFFFFFBFF75D
:106B90001E55DE0BFF0BFF0BFF0BFF0BFF0BFF0B5D
:106BA000FF0BFF0BFF0BFF0BFF0B3FD7FFFFFFFFA1
:106BB000FFFFFFFFBEF71CDFFA339B0BDE0BFF0B63
:106BC000FF0BFF0BFF0BFF0B7F65FFFF38C6F7BD09
:106BD000BAD67DEFFFFFFFFFFFFFFFFFFFFFFFFFC5
:106BE000FFFFFFFFFFFFFFFFFFFFFFFFFFFFFFFFB5
:106BF000FFFFFFFFFFFFFFFFFFFFFFFFFFFFFFFFA5
:106C0000FFFF7FE7BB139C0BDE0BDE0B7EAEFFFFAF
:106C1000FFFFFFFFFFFFFFFFFFFFFFFF3FD7BE4468
:106C2000DE0BFF0BFF0BFF0BFF0BFF0BFF0BFF0B35
:106C3000FF0BFF0BFF0BFF0BFF0BFF85FFFFFFFFA2
:106C4000FFFFFFFFBEF73CE77B855A0BDD0BFF0B19
:106C5000FF0BFF0BFF0BFF0B3F14BFEF1CDFB6B5A5
:106C600079CE3CE77DEFFFFFFFFFFFFFFFFFFFFF58
:106C7000FFFFFFFFFFFFFFFFFFFFFFFFFFFFFFFF24
:106C8000FFFFFFFFFFFFFFFFFFFFFFFFFFFFFFFF14
:106C9000FFFFFFFFFC5C9B0BDD0B5E2CDFFFFFFFAC
:106CA000FFFFFFFFFFFFFFFFFFFFBEBE3E24FF0B06
:106CB000FF0BFF0BFF0BFF0BFF0BFF0BFF0BFF0B84
:106CC000FF0BFF0BFF0BFF0BFF0B7F24BFEFFFFF43
:106CD000FFFFFFFFFFFF7DEFBBCE9A1B9C0BDE0B80
:106CE000FF0BFF0BFF0BFF0BFF0B3F8EBEF7F7BD3C
:106CF000F7BDFBDE7DEFFFFFFFFFFFFFFFFFFFFFA5
:106D0000FFFFFFFFFFFFFFFFFFFFFFFFFFFFFFFF93
:106D1000FFFFFFFFFFFFFFFFFFFFFFFFFFFFFFFF83
:106D2000FFFFFFFFFDD67B0B9C0BBF75FFFFFFFF37
:106D3000FFFFFFFFFFFFBEF7BEBEDC1BDE0BFF0B3E
:106D4000FF0BFF0BFF0BFF0BFF0BFF0BFF0BFF0BF3
:106D5000FF0BFF0BFF0BFF0BFF0BFF0B7F9EFFFFDC
:106D6000FFFFFFFFFFFFBEF73CE7DB5C7B0BDD0BAC
:106D7000FF0BFF0BFF0BFF0BFF0B7F24FFFFBAD6B0
:106D8000F7BDBAD63CE7BEF7FFFFFFFFFFFFFFFFEF
:106D9000FFFFFFFFFFFFFFFFFFFFFFFFFFFFFFFF03
:106DA000FFFFFFFFFFFFFFFFFFFFFFFFFFFFFFFFF3
:106DB000FFFFFFFFFFFF5C3C9B0B3E9EFFFFFFFFC3
:106DC000FFFFFFFFFFFF7DEFBB547B0BDD0BDD0BF8
:106DD000DD0BDD0BDD0BDD0BDD0BDD0BDD0BDD0B73
:106DE000DD0BDD0BDD0BDD0BDD0BDD0B5E2CBFEFFB
:106DF000FFFFFFFFFFFFFFFF7DEF7BBE5A0B9C0BEA
:106E0000DD0BDD0BDD0BDD0BDD0BDD0B3E9E7DEFCA
:106E1000B6B538C6FBDE7DEFFFFFFFFFFFFFFFFFCC
:106E2000FFFFFFFFFFFFFFFFFFFFFFFFFFFFFFFF72
:106E3000FFFFFFFFFFFFFFFFFFFFFFFFFFFFFFFF62
:106E4000FFFFFFFFFFFF5EA67B0B3E9EFFFFFFFFE6
:106E5000FFFFFFFFFFFF7DEF7B857A0B7A0BBB13F4
:106E6000BB13BB13BB13BB13BB13BB13BB13BB13B2
:106E7000BB13BB13BB13BB13BB13BB13BB135EA66C
:106E8000FFFFFFFFFFFFFFFFBEF73CE77A4C7A0BE7
:106E9000BB13BB13BB13BB13BB13BB135C3C7DEF1A
:106EA00038C6F7BDBAD67DEFBEF7FFFFFFFFFFFF85
:106EB000FFFFFFFFFFFFFFFFFFFFFFFFFFFFFFFFE2
:106EC000FFFFFFFFFFFFFFFFFFFFFFFFFFFFFFFFD2
:106ED000FFFFFFFFFFFFDFFFBB139E7DFFFFFFFFF5
:106EE000FFFFFFFFFFFFBEF77DEFBBCE9CC69CC63A
:106EF0009CC69CC69CC69CC69CC69CC69CC69CC682
:106F00009CC69CC69CC69CC69CC69CC6FDD67FE7FC
:106F1000FFFFFFFFFFFFFFFFFFFF7DEFFCDE9CC6D3
:106F20009CC69CC69CC69CC69CC6FDD6FDD67DEF65
:106F3000BAD696B579CE3CE77DEFFFFFFFFFFFFFA6
:106F4000FFFFFFFFFFFFFFFFFFFFFFFFFFFFFFFF51
:106F5000FFFFFFFFFFFFFFFFFFFFFFFFFFFFFFFF41
:106F6000FFFFFFFFFFFFFFFF3C6D3C34FFFFFFFF14
:106F7000FFFFFFFFFFFFFFFFBEF7BEF7BEF7BEF745
:106F8000BEF7BEF7BEF7BEF7BEF7BEF7BEF7BEF759
:106F9000BEF7BEF7BEF7BEF7BEF7BEF7BEF7FFFF00
:106FA000FFFFFFFFFFFFFFFFFFFFBEF7BEF7BEF7CC
:106FB000BEF7BEF7BEF7BEF7BEF7BEF7BEF7BEF729
:106FC0003CE7B6B5F7BDFBDE7DEFFFFFFFFFFFFF40
:106FD000FFFFFFFFFFFFFFFFFFFFFFFFFFFFFFFFC1
:106FE000FFFFFFFFFFFFFFFFFFFFFFFFFFFFFFFFB1
:106FF000FFFFFFFFFFFFFFFF7FE77B0BBEBEFFFF33
:10700000FFFFFFFFFFFFFFFFFFFFFFFFFFFFFFFF90
:10701000FFFFFFFFFFFFFFFFFFFFFFFFFFFFFFFF80
:10702000FFFFFFFFFFFFFFFFFFFFFFFFFFFFFFFF70
:10703000FFFFFFFFFFFFFFFFFFFFFFFFFFFFFFFF60
:10704000FFFFFFFFFFFFFFFFFFFFFFFFFFFFBEF799
:107050007DEF79CEB6B579CE3CE77DEFFFFFFFFF40
:10706000FFFFFFFFFFFFFFFFFFFFFFFFFFFFFFFF30
:10707000FFFFFFFFFFFFFFFFFFFFFFFFFFFFFFFF20
:10708000FFFFFFFFFFFFFFFFFFFF9C4C3C34DFF7DC
:10709000FFFFFFFFFFFFFFFFFFFFFFFFFFFFFFFF00
:1070A000FFFFFFFFFFFFFFFFFFFFFFFFFFFFFFFFF0
:1070B000FFFFFFFFFFFFFFFFFFFFFFFFFFFFFFFFE0
:1070C000FFFFFFFFFFFFFFFFFFFFFFFFFFFFFFFFD0
:1070D000FFFFFFFFFFFFFFFFFFFFFFFFFFFFFFFFC0
:1070E0007DEFFBDE96B538C6FBDE7DEFFFFFFFFFD1
:1070F000FFFFFFFFFFFFFFFFFFFFFFFFFFFFFFFFA0
:10710000FFFFFFFFFFFFFFFFFFFFFFFFFFFFFFFF8F
:10711000FFFFFFFFFFFFFFFFFFFFBEBE7B0B1E5504
:10712000BFEFFFFFFFFFFFFFFFFFFFFFFFFFFFFFBF
:10713000FFFFFFFFFFFFFFFFFFFFFFFFFFFFFFFF5F
:10714000FFFFFFFFFFFFFFFFFFFFFFFFFFFFFFFF4F
:10715000FFFFFFFFFFFFFFFFFFFFFFFFFFFFFFFF3F
:10716000FFFFFFFFFFFFFFFFFFFFFFFFFFFFFFFF2F
:10717000BEF73CE738C6B6B5BAD63CE7BEF7FFFF68
:10718000FFFFFFFFFFFFFFFFFFFFFFFFFFFFFFFF0F
:10719000FFFFFFFFFFFFFFFFFFFFFFFFFFFFFFFFFF
:1071A000FFFFFFFFFFFFFFFFFFFFFFFF3B349B0BD6
:1071B000BE443FCFFFFFFFFFFFFFFFFFFFFFFFFFCB
:1071C000FFFFFFFFFFFFFFFFFFFFFFFFFFFFFFFFCF
:1071D000FFFFFFFFFFFFFFFFFFFFFFFFFFFFFFFFBF
:1071E000FFFFFFFFFFFFFFFFFFFFFFFFFFFFFFFFAF
:1071F000FFFFFFFFFFFFFFFFFFFFFFFFFFFFFFFF9F
:10720000FFFFBEF7FBDEB6B579CE1CDF7DEFFFFFDB
:10721000FFFFFFFFFFFFFFFFFFFFFFFFFFFFFFFF7E
:10722000FFFFFFFFFFFFFFFFFFFFFFFFFFFFFFFF6E
:10723000FFFFFFFFFFFFFFFFFFFFFFFFDD8D7B0B6A
:10724000DD0B3F147F65BFAE7FE77FE77FE77FE71A
:107250007FE77FE77FE77FE77FE77FE77FE77FE7FE
:107260007FE77FE77FE77FE77FE77FE77FE77FE7EE
:107270007FE77FE77FE77FE77FE77FE77FE77FE7DE
:107280007FE77FE77FE77FE77FE77FE77FE77FE7CE
:107290007FE77FE7BEF738C6F7BDBAD67DEFBEF70A
:1072A000FFFFFFFFFFFFFFFFFFFFFFFFFFFFFFFFEE
:1072B000FFFFFFFFFFFFFFFFFFFFFFFFFFFFFFFFDE
:1072C000FFFFFFFFFFFFFFFFFFFFFFFF7FE7BB1396
:1072D0009C0BDE0BFF0BFF0B1F141F141F141F143E
:1072E0001F141F141F141F141F141F141F141F1406
:1072F0001F141F141F141F141F141F141F141F14F6
:107300001F141F141F141F141F141F141F141F14E5
:107310001F141F141F141F141F141F141F141F14D5
:107320001F147F247FE7FBDEF7BDBAD63CE7BEF72C
:10733000FFFFFFFFFFFFFFFFFFFFFFFFFFFFFFFF5D
:10734000FFFFFFFFFFFFFFFFFFFFFFFFFFFFFFFF4D
:10735000FFFFFFFFFFFFFFFFFFFFFFFFFFFF3C6D92
:107360007B0BDD0BFF0BFF0BFF0BFF0BFF0BFF0B73
:10737000FF0BFF0BFF0BFF0BFF0BFF0BFF0BFF0BBD
:10738000FF0BFF0BFF0BFF0BFF0BFF0BFF0BFF0BAD
:10739000FF0BFF0BFF0BFF0BFF0BFF0BFF0BFF0B9D
:1073A000FF0BFF0BFF0BFF0BFF0BFF0BFF0BFF0B8D
:1073B000FF0BFF0BFF85BEF738C679CE3CE7BEF763
:1073C000BEF7FFFFFFFFFFFFFFFFFFFFFFFFFFFF16
:1073D000FFFFFFFFFFFFFFFFFFFFFFFFFFFFFFFFBD
:1073E000FFFFFFFFFFFFFFFFFFFFFFFFFFFFFDDED0
:1073F000BB139C0BDD0BDE0BDE0BDE0BDE0BDE0BA3
:10740000DE0BDE0BDE0BDE0BDE0BDE0BDE0BDE0B34
:10741000DE0BDE0BDE0BDE0BDE0BDE0BDE0BDE0B24
:10742000DE0BDE0BDE0BDE0BDE0BDE0BDE0BDE0B14
:10743000DE0BDE0BDE0BDE0BDE0BDE0BDE0BDE0B04
:10744000DE0BDE0B7F24FFFFBAD638C6FBDE7DEFF6
:10745000BEF7FFFFFFFFFFFFFFFFFFFFFFFFFFFF85
:10746000FFFFFFFFFFFFFFFFFFFFFFFFFFFFFFFF2C
:10747000FFFFFFFFFFFFFFFFFFFFFFFFFFFFFFFF1C
:10748000FC5C5A0B9B0B9C0B9C0B9C0B9C0B9C0B56
:107490009C0B9C0B9C0B9C0B9C0B9C0B9C0B9C0BB4
:1074A0009C0B9C0B9C0B9C0B9C0B9C0B9C0B9C0BA4
:1074B0009C0B9C0B9C0B9C0B9C0B9C0B9C0B9C0B94
:1074C0009C0B9C0B9C0B9C0B9C0B9C0B9C0B9C0B84
:1074D0009C0B9C0B9C0B5EA63CE779CEFBDE7DEF04
:1074E000BEF7FFFFFFFFFFFFFFFFFFFFFFFFFFFFF5
:1074F000FFFFFFFFFFFFFFFFFFFFFFFFFFFFFFFF9C
:10750000FFFFFFFFFFFFFFFFFFFFFFFFFFFFFFFF8B
:107510003FD73C6D3C6D3C6D3C6D3C6D3C6D3C6DB6
:107520003C6D3C6D3C6D3C6D3C6D3C6D3C6D3C6D13
:107530003C6D3C6D3C6D3C6D3C6D3C6D3C6D3C6D03
:107540003C6D3C6D3C6D3C6D3C6D3C6D3C6D3C6DF3
:107550003C6D3C6D3C6D3C6D3C6D3C6D3C6D3C6DE3
:107560003C6D3C6D3C6D5EA6BEF7FBDEFBDEBEF700
:10757000DFFFFFFFFFFFFFFFFFFFFFFFFFFFFFFF3B
:10758000FFFFFFFFFFFFFFFFFFFFFFFFFFFFFFFF0B
:10759000FFFFFFFFFFFFFFFFFFFFFFFFFFFFFFFFFB
:1075A000FFFFFFFFFFFFFFFFFFFFFFFFFFFFFFFFEB
:1075B000FFFFFFFFFFFFFFFFFFFFFFFFFFFFFFFFDB
:1075C000FFFFFFFFFFFFFFFFFFFFFFFFFFFFFFFFCB
:1075D000FFFFFFFFFFFFFFFFFFFFFFFFFFFFFFFFBB
:1075E000FFFFFFFFFFFFFFFFFFFFFFFFFFFFFFFFAB
:1075F000FFFFFFFFFFFFFFFFDFFFBEF7BEF7BEF796
:10760000FFFFFFFFFFFFFFFFFFFFFFFFFFFFFFFF8A
:10761000FFFFFFFFFFFFFFFFFFFFFFFFFFFFFFFF7A
:10762000FFFFFFFFFFFFFFFFFFFFFFFFFFFFFFFF6A
:10763000FFFFFFFFDFFFDFFFDFFFBEF7BEF7BEF795
:10764000BEF7BEF7BEF7BEF7BEF7BEF7BEF7BEF792
:10765000BEF7BEF7BEF7BEF7BEF7BEF7BEF7BEF782
:10766000BEF7BEF7BEF7BEF7BEF7DFFFDFFFDFFFF7
:10767000DFFFBEF7BEF7BEF7BEF7BEF7BEF7BEF739
:10768000BEF7BEF7BEF7DFFFDFFFDFFFDFFFFFFF65
:10769000FFFFFFFFFFFFFFFFFFFFFFFFFFFFFFFFFA
:1076A000FFFFFFFFFFFFFFFFFFFFFFFFFFFFFFFFEA
:1076B000FFFFFFFFFFFFFFFFFFFFFFFFFFFFFFFFDA
:1076C000FFFFFFFFFFFFFFFFFFFFFFFFFFFFFFFFCA
:1076D000FFFFFFFFFFFFFFFFFFFFFFFFFFFFFFFFBA
:1076E000FFFFFFFFFFFFFFFFFFFFFFFFFFFFFFFFAA
:1076F000FFFFFFFFFFFFFFFFFFFFFFFFFFFFFFFF9A
:10770000FFFFFFFFFFFFFFFFFFFFFFFFFFFFFFFF89
:10771000FFFFFFFFFFFFFFFFFFFFFFFFFFFFFFFF79
:10772000FFFFFFFFFFFFFFFFFFFFFFFFFFFFFFFF69
:10773000FFFFFFFFFFFFFFFFFFFFFFFFFFFFFFFF59
:10774000FFFFFFFFFFFFFFFFFFFFFFFFFFFFFFFF49
:10775000FFFFFFFFFFFFFFFFFFFFFFFFFFFFFFFF39
:10776000FFFFFFFFFFFFFFFFFFFFFFFFFFFFFFFF29
:10777000FFFFFFFFFFFFFFFFFFFFFFFFFFFFFFFF19
:10778000FFFFFFFFFFFFFFFFFFFFFFFFFFFFFFFF09
:10779000FFFFFFFFFFFFFFFFFFFFFFFFFFFFFFFFF9
:1077A000FFFFFFFFFFFFFFFFFFFFFFFFFFFFFFFFE9
:1077B000FFFFFFFFFFFF00000000000000000000CF
:1077C00000000000000000000000000000000000B9
:1077D00000000000000000000000000000000000A9
:1077E0000000000000000000000080018001800116
:1077F0008001800180018001800180018001800181
:107800008001800100000000800180010000000074
:10781000000000000000000000000000CC00CC00D0
:10782000CC00CC00CC00CC00000000000000000028
:107830000000000000000000000000000000000048
:107840000000000000000000000000000000000038
:1078500000000000600C600C600C30063006FE1F5B
:10786000FE1F300638071803FE1FFE1F18031803FB
:107870008C018C018C01000000008000E003F80FF7
:107880009C0E8C1C8C188C009800F801E007800E70
:10789000801C8C188C189C18B80CF00FE00380002A
:1078A00080000000000000000000000000000E1832
:1078B0001B0C110C11061106110311039B018E0103
:1078C000C038C06C60446044304430441844186C84
:1078D0000C380000000000000000E001F003380751
:1078E000180618063003F001F000F8009C310E3342
:1078F000061E061C061C063FFC73F021000000005B
:107900000000000000000000000000000C000C005F
:107910000C000C000C000C00000000000000000037
:107920000000000000000000000000000000000057
:1079300000000000000000000000000200038001C1
:10794000C000C00060006000300030003000300037
:10795000300030003000300060006000C000C00027
:107960008001000300020000000020006000C00051
:1079700080018001000300030006000600060006E7
:1079800000060006000600060003000380018001D7
:10799000C0006000200000000000000000000000A7
:1079A00000000000C000C000D806F807E001300366
:1079B0003807000000000000000000000000000088
:1079C00000000000000000000000000000000000B7
:1079D0000000000080018001800180018001FC3FE7
:1079E000FC3F8001800180018001800100000000D7
:1079F0000000000000000000000000000000000087
:107A00000000000000000000000000000000000076
:107A10000000000000000000000080018001000163
:107A200000018000000000000000000000000000D5
:107A30000000000000000000000000000000000046
:107A4000E007E00700000000000000000000000068
:107A50000000000000000000000000000000000026
:107A60000000000000000000000000000000000016
:107A700000000000000000000000C000C000000086
:107A800000000000000000000000000C000C0006D8
:107A9000000600060003000300038003800180014C
:107AA0008001C000C000C000600060000000000055
:107AB00000000000000000000000E003F007380EA6
:107AC000180C0C180C180C180C180C180C180C1896
:107AD0000C180C18180C380EF007E003000000001A
:107AE0000000000000000000000000018001C00153
:107AF000F0019801880180018001800180018001EE
:107B0000800180018001800180018001000000006F
:107B100000000000000000000000E003F80F180C57
:107B20000C180C1800180018000C00060003800147
:107B3000C000600030001800FC1FFC1F00000000A7
:107B400000000000000000000000E001F807180E2F
:107B50000C0C0C0C000C0006C003C007000C001835
:107B600000180C180C18180CF807E00300000000AF
:107B700000000000000000000000000C000E000FDC
:107B8000000F800DC00C600C600C300C180C0C0C3D
:107B9000FC3FFC3F000C000C000C000C000000003F
:107BA00000000000000000000000F80FF80F1800AF
:107BB00018000C00EC03FC071C0E001C0018001839
:107BC00000180C181C0C180EF807E0030000000049
:107BD00000000000000000000000C007F00F381C8B
:107BE000181818000C00CC03EC0F3C0E1C1C0C18D1
:107BF0000C180C18181C380EF007E00300000000E9
:107C000000000000000000000000FC1FFC1F000C32
:107C100000060006000380038001C001C000E000F0
:107C20006000600070003000300030000000000094
:107C300000000000000000000000E003F007380E24
:107C4000180C180C180C3806F007F007180C0C1854
:107C50000C180C180C18380CF80FE003000000008A
:107C600000000000000000000000E003F007380EF4
:107C70001C0C0C180C180C181C1C381EF81BE019D6
:107C80000018000C000C1C0EF807F00100000000AA
:107C900000000000000000000000000000000000E4
:107CA00000000000800180010000000000000000D2
:107CB00000000000000000008001800100000000C2
:107CC00000000000000000000000000000000000B4
:107CD00000000000800180010000000000000000A2
:107CE0000000000000000000800180010001000190
:107CF0008000000000000000000000000000000004
:107D000000000000000000000010001C800FE003D5
:107D1000F8001800F800E003800F001C00100000BD
:107D20000000000000000000000000000000000053
:107D30000000000000000000F81F0000000000002C
:107D4000F81F00000000000000000000000000001C
:107D50000000000000000000000000000000000023
:107D6000000000000000000008003800F001C0071B
:107D7000001F0018001FC007F001380008000000B5
:107D800000000000000000000000E003F80F180CE5
:107D90000C180C180018000C000600038001C0002D
:107DA000C000C00000000000C000C00000000000D3
:107DB000000000000000000000000000E0071818AC
:107DC0000420C229224A11440944094409440922D1
:107DD0001113E20C024004201818E0070000000014
:107DE0000000000000000000000080038003C006C7
:107DF000C006C006600C600C301830183018F83F10
:107E0000F83F1C700C600C6006C006C0000000004B
:107E100000000000000000000000FC03FC0F0C0C40
:107E20000C180C180C180C0CFC07FC0F0C180C3060
:107E30000C300C300C300C18FC1FFC07000000004C
:107E400000000000000000000000C007F01F3838EC
:107E50001C300C70066006000600060006000600D6
:107E6000060006600C701C30F01FE00700000000E8
:107E700000000000000000000000FE03FE0F060EE0
:107E80000618061806300630063006300630063072
:107E9000063006180618060EFE0FFE03000000004E
:107EA00000000000000000000000FC3FFC3F0C0050
:107EB0000C000C000C000C00FC1FFC1F0C000C0044
:107EC0000C000C000C000C00FC3FFC3F000000000C
:107ED00000000000000000000000F83FF83F18001C
:107EE0001800180018001800F81FF81F18001800D4
:107EF00018001800180018001800180000000000F2
:107F000000000000000000000000E00FF83F3C7897
:107F10000E6006E007C00300030003FE03FE03C07B
:107F200007C006C00EC03CF0F83FE00F00000000A4
:107F3000000000000000000000000C300C300C308D
:107F40000C300C300C300C30FC3FFC3F0C300C3053
:107F50000C300C300C300C300C300C3000000000B9
:107F6000000000000000000000008001800180018E
:107F700080018001800180018001800180018001F9
:107F800080018001800180018001800100000000EB
:107F900000000000000000000000000600060006CF
:107FA00000060006000600060006000600060006A1
:107FB0000006180618063807F003E001000000006C
:107FC0000000000000000000000006300618060C4B
:107FD000060606038601C60066007600DE008E01F6
:107FE00006030606060C06180630066000000000B0
:107FF0000000000000000000000018001800180039
:1080000018001800180018001800180018001800B0
:108010001800180018001800F81FF81F00000000D2
:10802000000000000000000000000EE01EF01EF046
:108030001EF036D836D836D836D866CC66CC66CC64
:10804000C6C6C6C6C6C6C6C686C386C3000000006E
:10805000000000000000000000000C301C303C302C
:108060003C306C306C30CC30CC308C310C330C3339
:108070000C360C360C3C0C3C0C380C30000000006C
:1080800000000000000000000000E007F81F1C389E
:108090000E70066003C003C003C003C003C003C06A
:1080A00003C006600E701C38F81FE00700000000D7
:1080B00000000000000000000000FC0FFC1F0C3856
:1080C0000C300C300C300C300C18FC1FFC070C0072
:1080D0000C000C000C000C000C000C000000000058
:1080E00000000000000000000000E007F81F1C383E
:1080F0000E70066003E003C003C003C003C003C0EA
:1081000007E006630E3F1C3CF83FE0F700C00000AC
:1081100000000000000000000000FE0FFE1F0638F7
:108120000630063006300638FE1FFE070603060638
:10813000060C06180618063006300660000000001F
:1081400000000000000000000000E003F80F1C0C1D
:108150000C180C180C001C00F803E00F001E00386F
:10816000063006300E301C1CF80FE007000000003F
:1081700000000000000000000000FE7FFE7F800184
:1081800080018001800180018001800180018001E7
:1081900080018001800180018001800100000000D9
:1081A000000000000000000000000C300C300C301B
:1081B0000C300C300C300C300C300C300C300C30DF
:1081C0000C300C300C301818F81FE00700000000CD
:1081D00000000000000000000000036006300630D0
:1081E00006300C180C180C18180C180C380E300629
:1081F0003006700760036003C001C001000000008A
:10820000000000000000000000000360C361C361C3
:10821000C3616633663366336633663366336C1B1D
:108220006C1B6C1B2C1A3C1E380E380E0000000014
:10823000000000000000000000000FE00C7018308B
:108240003018700C600EC00780038003C003E00686
:10825000700C301C18180C300E6007E00000000095
:108260000000000000000000000003C006600C30A9
:108270001C383818300C6006E007C003800180010C
:1082800080018001800180018001800100000000E8
:1082900000000000000000000000FC7FFC7F006088
:1082A00000300018000C000600038001C0006000D0
:1082B000300018000C000600FE7FFE7F000000006A
:1082C00000000000000000000000E003E003600088
:1082D000600060006000600060006000600060009E
:1082E000600060006000600060006000600060008E
:1082F0006000E003E0030000000030003000600098
:1083000060006000C000C000C000C00180018001AA
:1083100080010003000300030006000600000000C7
:1083200000000000000000000000E003E003000384
:108330000003000300030003000300030003000325
:108340000003000300030003000300030003000315
:108350000003E003E003000000000000C001C001D2
:1083600060036003600330063006180C180C000030
:1083700000000000000000000000000000000000FD
:1083800000000000000000000000000000000000ED
:1083900000000000000000000000000000000000DD
:1083A00000000000000000000000FFFFFFFF0000D1
:1083B000000000000000000000000C000C000C0099
:1083C0000C000C000C000000000000000000000089
:1083D000000000000000000000000000000000009D
:1083E000000000000000000000000000000000008D
:1083F00000000000F003F8071C0C0C0C000FF00F3D
:10840000F80C0C0C0C0C1C0FF80FF01800000000FE
:108410000000000000000000000018001800180014
:1084200018001800D803F80F380C18181818181866
:10843000181818181818380CF80FD8030000000086
:10844000000000000000000000000000000000002C
:1084500000000000C003F007300E180C18001800D0
:1084600018001800180C300EF007C00300000000C0
:1084700000000000000000000000001800180018B4
:1084800000180018C01BF01F301C181818181818F6
:10849000181818181818301CF01FC01B0000000016
:1084A00000000000000000000000000000000000CC
:1084B00000000000C003F00F300C1818F81FF81F60
:1084C000180018003818301CF00FC007000000001A
:1084D00000000000000000000000800FC00FC0007E
:1084E000C000C000F007F007C000C000C000C0001E
:1084F000C000C000C000C000C000C00000000000FC
:10850000000000000000000000000000000000006B
:1085100000000000E00DF80F180E0C0C0C0C0C0CF9
:108520000C0C0C0C0C0C180EF80FE00D000C0C0CC5
:108530001C06F807F00100000000180018001800E1
:1085400018001800D807F80F381C18181818181831
:1085500018181818181818181818181800000000FB
:1085600000000000000000000000C000C00000008B
:1085700000000000C000C000C000C000C000C0007B
:10858000C000C000C000C000C000C000000000006B
:1085900000000000000000000000C000C00000005B
:1085A00000000000C000C000C000C000C000C0004B
:1085B000C000C000C000C000C000C000C000C000BB
:1085C000C000F8007800000000000C000C000C0057
:1085D0000C000C000C0C0C060C038C01CC006C0085
:1085E000FC009C018C030C030C060C0C000000002A
:1085F00000000000000000000000C000C000C0003B
:10860000C000C000C000C000C000C000C000C0006A
:10861000C000C000C000C000C000C00000000000DA
:10862000000000000000000000000000000000004A
:10863000000000007C3CFF7EC7E383C183C183C18F
:1086400083C183C183C183C183C183C10000000092
:10865000000000000000000000000000000000001A
:10866000000000009807F80F381C18181818181880
:1086700018181818181818181818181800000000DA
:1086800000000000000000000000000000000000EA
:1086900000000000C003F00F300C1818181818184C
:1086A000181818181818300CF00FC003000000003C
:1086B00000000000000000000000000000000000BA
:1086C00000000000D803F80F380C181818181818F4
:1086D000181818181818380CF80FD80318001800B4
:1086E0001800180018000000000000000000000042
:1086F00000000000C01BF01F301C181818181818B4
:10870000181818181818301CF01FC01B0018001873
:108710000018001800180000000000000000000011
:1087200000000000B007F00370003000300030009F
:108730003000300030003000300030000000000019
:108740000000000000000000000000000000000029
:1087500000000000E003F003380E180C3800F003AE
:10876000C007000C180C380EF007E00300000000F2
:108770000000000000000000000000008000C000B9
:10878000C000C000F007F007C000C000C000C0007B
:10879000C000C000C000C000C0078007000000008B
:1087A00000000000000000000000000000000000C9
:1087B0000000000018181818181818181818181899
:1087C000181818181818381CF01FE01900000000BD
:1087D0000000000000000000000000000000000099
:1087E000000000000C18180C180C180C300630068D
:1087F0003006600360036003C001C0010000000098
:108800000000000000000000000000000000000068
:1088100000000000C141C141C361636363636363DE
:108820003636363636361C1C1C1C1C1C000000005C
:108830000000000000000000000000000000000038
:10884000000000001C38381C300C60066003600318
:10885000600360036006300C381C1C380000000008
:108860000000000000000000000000000000000008
:10887000000000001830301830187018600C600CC0
:10888000E00CC006C00680038003800380018001E5
:10889000C001F000700000000000000000000000B7
:1088A00000000000FC1FFC1F000C000600038001FC
:1088B000C000600030001800FC1FFC1F000000001A
:1088C0000000000000000000000000038001C00064
:1088D000C000C000C000C000C000600060003000E8
:1088E00060004000C000C000C000C000C000C00068
:1088F0008001000300000000000080018001800171
:10890000800180018001800180018001800180015F
:10891000800180018001800180018001800180014F
:10892000800180018001000000006000C000C001E3
:1089300080018001800180018001000300030006A6
:10894000000300018001800180018001800180011D
:10895000C0006000000000000000000000000000F7
:108960000000000000000000F010F81F080F0000D9
:1089700000000000000000000000000000000000F7
:1089800000000000000000002DE9F04FA5B01746E0
:108990001C46DFF87058D5E90023CDE91223049076
:1089A00004AD69600020A8620DF1500A6FF0004824
:1089B00000E04F440020ADF8020012AB4FF0FF3250
:1089C00039460DF1020006F00DFD8146B9F1010FA7
:1089D00008DA3878B0F1010969EB09096FEA090092
:1089E0004FEAD079BDF8020025280CBFA9F1010299
:1089F0004A46012A0ADB394602A800F0D1FF0028C6
:108A000004D54FF0FF3025B0BDE8F08FBDF802006F
:108A1000252816D1002028616861A861E8612862D4
:108A2000686217F8011F202908D0232914D02B29A8
:108A30000BD02D290DD0302911D013E040F00100CA
:108A4000EFE70028B5D1A86ADDE740F0020080B268
:108A5000E7E740F00400FAE740F00800F7E740F0ED
:108A60001000F4E72A290DD12268111D2160116838
:108A70002963002904D54942296340F0040080B2EB
:108A80007F1C12E00021296309E0296B414505D0D4
:108A900001EB810302EB4301303929637F1C3A78F3
:108AA000A2F13001C9B20A29EFD339782E291CBFAF
:108AB0004FF0FF31E9621DD117F8011F2A2906D1B5
:108AC0002268111D21601168E9627F1C12E00021FB
:108AD000E96209E0E96A414505D001EB810302EB57
:108AE00043013039E9627F1C3A78A2F13001C9B202
:108AF0000A29EFD3A8863978DFF8300C06F018FD84
:108B000008B117F8010B8DF846009DF8460068285B
:108B100004D1387868280AD1622005E06C2806D193
:108B200038786C2803D171208DF846007F1C14A87A
:108B3000E8603A781046413800F0D180001F0228E2
:108B400040F2CD80133800F08B80093800F0C780E8
:108B5000801E17D0401E39D0401E022840F2BF8030
:108B6000001F33D0401F00F0E980401E78D0401E27
:108B700000F01281C01E00F01A81801E70D0C01E4D
:108B80006ED036E19DF846006C2809D02869411C5A
:108B900029612268111D2160116800F80A102FE177
:108BA0002168081D20600868ADF804000020ADF8B9
:108BB00006004FF0FF30E86201A902A800F0B8F902
:108BC000002840F11D814FF0FF301AE19DF846006A
:108BD0006C280FD071280BD12068C01D20F0070031
:108BE0002060034603F108002060D3E9000106E09D
:108BF0006A28F1D02168081D20600868C1179DF817
:108C00004630682B08BF00B207D0622B08BF40B2C5
:108C100003D0742B01D07A2B00D1C117002904DABC
:108C20002B695E1C2E612D260DE0AB8E9E0704D5B0
:108C30002B695E1C2E612B2605E0DB0705D52B6911
:108C40005E1C2E61202603F80A602B6914AE3344A3
:108C5000AB60CDE90201114602A800F0D5FACFE0E1
:108C60009DF846006C280FD071280BD12068C01DDC
:108C700020F007002060034603F108002060D3E9DC
:108C8000000106E06A28F1D02168081D206008680C
:108C900000219DF84630682B08BF80B207D0622BB8
:108CA00008BFC0B203D0742B01D07A2B00D10021B1
:108CB00095F834301B07C8D509B90028C5D042F053
:108CC0002003782BC1D12B695E1C2E61302603F85E
:108CD0000A602B695E1C2E6103F80A20B5E7206844
:108CE000C01D20F007002060034603F1080020604B
:108CF000D3E90001CDE90201BDF80E00000404D55E
:108D00002869411C29612D210DE0A88E810704D519
:108D10002869411C29612B2105E0C00705D5286978
:108D2000411C2961202100F80A10286914A9401863
:108D3000A860114602A800F0EFFA61E09DF8460035
:108D400062280BD0682820D06A280ED06C2815D055
:108D500071280AD0742811D07A280FE0A86A2268F6
:108D6000111D2160116808704AE0A86AC1172368C4
:108D70001A1D22601A68C2E9000141E02168081D3D
:108D800020600868A96A01603AE0A86A2268111D9B
:108D900021601168088033E02168081D20600868A0
:108DA00014A9A9600021CDE90201782154E79DF8BA
:108DB00046006C28216813D0081D20600868A86050
:108DC000EA6A002A02D506F017F807E0002105F04C
:108DD00065FE00281ABFA968401AE86A68610FE0BA
:108DE000081D2060096802A800F0A2F8002807D535
:108DF000E9E62869411C296102B9252200F80A2008
:108E000000207F1C00287FF4FCAD286B2969401AE4
:108E1000E969401A6969401A296A401AA969401A21
:108E2000696AA0EB010995F83400400711D42020AD
:108E30008DF800000026B9F1010F0ADB012200A91C
:108E400002A800F0ADFD00287FF4DBAD761C4E4596
:108E5000F4DB2A6914A902A800F0A2FD00287FF41F
:108E6000D0AD30208DF80000EE694FF0000B012EE0
:108E70000BDB012200A902A800F092FD00287FF47C
:108E8000C0AD0BF1010BB345F3DB6A69A96802A819
:108E900000F086FD00287FF4B4AD30208DF800008E
:108EA0002E6A4FF0000B012E0BDB012200A902A855
:108EB00000F076FD00287FF4A4AD0BF1010BB34563
:108EC000F3DBAA696869A968411802A800F068FD87
:108ED00000287FF496AD30208DF800006E6A4FF0C8
:108EE000000B012E0BDB012200A902A800F058FDA7
:108EF00000287FF486AD0BF1010BB345F3DB95F849
:108F0000340040077FF556AD20208DF80000002684
:108F1000B9F1010FFFF64EAD012200A902A800F041
:108F20003FFD00287FF46DAD761C4E45F4DB41E536
:108F30002DE9F04F95B005460F466C6B002C48BFED
:108F40006FF0004406F07EFDA96B40180190DFF839
:108F50003C0AD0E90023CDE9032395F83C00400703
:108F600002D40198412806D20DF1140A4020019044
:108F70000020029009E005F029F95FEA000AF7D124
:108F80004FF0FF303AE1A4EB0804012CC0F2B180AD
:108F900003AA39880DF1010006F05DFA5FEA0008C6
:108FA00004D4388830B9B8F1010803D54FF0FF3048
:108FB00002909EE04445C0F29C80A869019908EBAC
:108FC0000002914280F086800021A9634042696AD4
:108FD000401AE969401AA96A401A296A401AE96ADE
:108FE000A0EB010995F83C00400710D420208DF833
:108FF00000000026B9F1010F09DB012200A9284673
:1090000000F0CEFC002863D1761C4E45F5DBAA6942
:109010005146284600F0C4FC002859D130208DF874
:1090200000006E6A4FF0000B012E0ADB012200A93E
:10903000284600F0B5FC00284AD10BF1010BB345DE
:10904000F4DBEA692969284600F0AAFC00283FD130
:1090500030208DF80000AE6A4FF0000B012E09DBC6
:10906000012200A9284600F09BFC88BB0BF1010BF4
:10907000B345F5DB2A6AE86929694118284600F0FA
:109080008FFC28BB30208DF80000EE6A4FF0000BFB
:10909000012E09DB012200A9284600F081FCB8B9A5
:1090A0000BF1010BB345F5DB95F83C0040070FD5FC
:1090B00020208DF800000026B9F1010F08DB012205
:1090C00000A9284600F06CFC10B9761C4E45F6DB72
:1090D0000020A86142460DF10101A869504405F045
:1090E0007BFBA8694044A86137F8020B00287FF495
:1090F0004AAFA86BA969401A696A401AE969401A1F
:10910000A96A401A296A401AE96A461A95F83C0089
:1091100040070FD420208DF800000027012E09DB26
:10912000012200A9284600F03BFC00285CD17F1CEE
:10913000B742F5DBAA695146284600F031FC002809
:1091400052D130208DF800006F6A0024012F09DB16
:10915000012200A9284600F023FC002844D1641C09
:10916000BC42F5DBEA692969284600F019FC0028B1
:109170003AD130208DF80000AF6A0024012F08DBBF
:10918000012200A9284600F00BFC68BB641CBC420D
:10919000F6DB2A6AE86929694118284600F000FCD4
:1091A00010BB30208DF80000EF6A0024012F08DB8F
:1091B000012200A9284600F0F3FBA8B9641CBC42B8
:1091C000F6DB95F83C0040070ED520208DF8000016
:1091D0000027012E08DB012200A9284600F0E0FB51
:1091E00010B97F1CB742F6DB0020A861A86305A870
:1091F00082451CBF504605F079F9029815B0BDE8CC
:10920000F08F0000F8F801082DE9FA4786B004460F
:10921000606900909DF818006F2808BF082705D0E6
:1092200040F02000782814BF0A2710273C25D4E9F5
:109230000001064689469DF81820642A01D0692A53
:1092400004D1002902DA764269EB4909B9F1000F2D
:1092500002D10EB9606B60B3A5F101084546F8175D
:10926000CDE9047030464946DDE9042304F0D6F820
:10927000CDE90201B246DDE90223DDE90401A0FBEC
:1092800002695046801B3030C0B23A2803D39DF8A3
:10929000181051390818009908F80100DDE9026931
:1092A000B9F1000F00D126B12069009969188842F0
:1092B000D2D3082F0BD194F83C00000707D50098B3
:1092C000285C302803D06D1E009830212954C5F148
:1092D0003C00E061009969182161616B884206DAFF
