:020000040807EB
:1000000070FF0020290207085D521A0065020708E8
:100010003502070837020708390207080000000008
:100020000000000000000000000000003B02070884
:100030003D020708000000003F02070841020708D0
:100040004302070843020708430207084302070860
:100050004302070843020708430207084302070850
:100060004302070843020708430207084302070840
:100070004302070843020708430207084302070830
:100080004302070843020708430207084302070820
:100090004302070843020708430207084302070810
:1000A0004302070843020708430207084302070800
:1000B00043020708430207084302070843020708F0
:1000C00043020708430207084302070843020708E0
:1000D00043020708430207084302070843020708D0
:1000E00043020708430207084302070843020708C0
:1000F00043020708430207084302070843020708B0
:10010000430207084302070843020708430207089F
:10011000430207084302070843020708430207088F
:10012000430207084302070843020708430207087F
:1001300000F002F800F068F80AA090E8000C824491
:100140008344AAF10107DA4501D100F05DF8AFF26E
:10015000090EBAE80F0013F0010F18BFFB1A43F0A5
:10016000010318474CDA00006CDA0000103A24BF93
:1001700078C878C1FAD8520724BF30C830C144BF0C
:1001800004680C607047000000230024002500264E
:10019000103A28BF78C1FBD8520728BF30C148BFEA
:1001A0000B607047692900F00181642900F0FE802E
:1001B000752900F0FB806F2900F09281782900F00A
:1001C000BB810368DB0928BF41F08001632900F08F
:1001D000F083E32900F00384002070471FB59DE8F9
:1001E000030000F05DFC00F0E9FC040000200021A9
:1001F00008F040FD401C606000F0DCFA1FBD10B547
:10020000002007F07BFF10BD00F0B2FC1146FFF7A5
:10021000E5FF08F0BBFC00F0EFFC03B4FFF7EFFFD5
:1002200003BC00F09FFC00000948804709480047D4
:10023000FEE7FEE7FEE7FEE7FEE7FEE7FEE7FEE796
:10024000FEE7FEE704480549054A044B70470000F5
:10025000412907083101070870E7002070FF0020DE
:1002600070FF002000B5FFB441464A4653465C4645
:1002700065463EB40D496A460A600D4908600D495D
:1002800088473EBC884691469A46A346AC46FFBC8A
:1002900000BD064801688D463EBC884691469A4698
:1002A000A346AC46FFBC044800BD0000F0FF0020A0
:1002B000F4FF002039010708E0D407080FB41CB58B
:1002C000074B06AA7B4469460090059800F04FFB57
:1002D0000020694600F05EFB1CBC5DF814FB0000CA
:1002E000CD06000070B5044685690068C10601D5D9
:1002F000302600E02026C00708D070BDD4E90121D7
:1003000030469047206A00F1010020626D1EF5D54D
:1003100070BD70B5044685690078C00708D170BD0E
:10032000D4E9012120209047206A00F101002062D9
:100330006D1EF5D570BD09684A0501D540B27047FC
:10034000C905FCD500B2704709684A0501D5C0B29D
:100350007047C905FCD580B2704770B50C4605469C
:10036000012A05D02878800600D5EA69002302E03A
:10037000012305E05B1C934202D2E05C0028F9D126
:10038000A869E618C01AA861286A18442862284695
:10039000FFF7A8FF04E0D5E9012114F8010B90470D
:1003A000B442F8D32846FFF7B4FF70BD2DE9F04101
:1003B0000646002410687529314616A511D0FFF7AE
:1003C000BAFF002803DAC0F1000013A507E0316886
:1003D0008A0701D511A502E0490704D510A501241B
:1003E00001E0FFF7B1FF00210A2306F1240707E02F
:1003F000B0FBF3F203FB1200303078541046491C76
:100400000028F5D123462A463046BDE8F04100F0E9
:100410004CBA0000000000002D0000002B0000007E
:10042000200000002DE9FF5F15468A460446DFF8EC
:10043000AC80F8440027D8E900103E46CDE9001012
:1004400011E03AF816106A4602A800F0D4FA411CEE
:1004500007D02178890603D5E269391891420ED870
:10046000074406F101062078800602D5E069B8420B
:1004700005DDAE42E5DB3AF816000028E1D1A069BF
:10048000C01BA0612046FFF72DFFD8E90010CDE981
:100490000010002016E03AF818106A4602A800F092
:1004A000AAFA8146401C0BD000250DF1080B05E08F
:1004B000D4E901211BF8050090476D1C4D45F7D389
:1004C00008F10100B0428046E5DB206A3844206232
:1004D0002046FFF71EFFBDE8FF9F0000BAD00000D6
:1004E00070B5044621461068FFF72EFF002104F185
:1004F000240508E000F0070202F130026A5401F11D
:1005000001014FEAD0000028F4D10346206808A278
:10051000050708D500F02000084304D0E069012356
:1005200004A2401EE0612046BDE8704000F0BDB965
:10053000000000003000000070B504460D46214662
:100540001068FFF701FF2188090502D5104A7A4497
:1005500002E00F4A7A440E32002104F1240307E03E
:1005600000F00F064FEA1010965D5E5401F1010194
:100570000028F5D103462078000704D5702D02D05D
:1005800009B1113202232046BDE8704000F08DB958
:10059000A6CF00002DE9F05F894604464FF0000A1F
:1005A000DFF878B1FB44C0F820A02046E168884716
:1005B000002875D0252806D0D4E901219047206A6B
:1005C000401C2062F1E700265F462046E16888472C
:1005D0002028054608DB312D06D207EB050010F870
:1005E000200C08B10643F0E7B00701D526F0040659
:1005F000C4F81CA00027C4F818A02A2D09D028464A
:1006000008F030F938B304EB8708303DC8F81850CB
:1006100019E059F8041B204604EB87029161E16858
:100620008847012F054618D1E069002820DA26F016
:1006300020061DE0D8F8180000EB800005EB400014
:100640003038C8F818002046E1688847054608F0A9
:1006500009F90028EED1012F0AD02E2D08D120460D
:10066000E16888477F1C0546022F46F02006C4DB60
:10067000A069002803DA404246F00106A061F007B5
:1006800001D026F010066C2D0BD0682D09D04C2D12
:1006900039D06A2D35D0742D35D07A2D33D016E06F
:1006A00038E0E1682F4620468847B842054609D120
:1006B0006C2F26D04FF48060E168064320468847BF
:1006C000054604E06C2F1AD04FF4807006430DB33A
:1006D000A5F14100192802D8203546F400664A46A3
:1006E0002946204626604E46FFF75CFD80B1012872
:1006F0000BD0F61D26F0070000F1080955E7402051
:10070000E4E78020D8E70020D6E706F104094CE7AB
:10071000284651E7206ABDE8F09F000078CF00002E
:1007200010B5431C02E010F8011B71B18107FAD12A
:100730004FF0013202C88C1A8C4314EAC211F9D06E
:10074000C01A0A0603D0C01E10BDC01A10BD0A048C
:1007500001D0801E10BD0902FCD0401E10BD4FF01C
:10076000000200B5134694469646203922BFA0E801
:100770000C50A0E80C50B1F12001BFF4F7AF09070D
:1007800028BFA0E80C5048BF0CC05DF804EB8900FE
:1007900028BF40F8042B08BF704748BF20F8022B41
:1007A00011F0804F18BF00F8012B70477047704759
:1007B0007047000070B5064C7C44064D7D4403E054
:1007C000206820448047241DAC42F9D170BD000050
:1007D00024D5000024D500000048704744E70020DD
:1007E0000048704748E7002070B5064600F038F929
:1007F000056806F10B0020F00704B4429CBF0020FE
:1008000070BD2B466A68BAB11068A04210D304F1DB
:10081000080188423CBF5068586007D351681019DE
:1008200041601168091B016058601460101D70BDA3
:1008300013465268002AE7D12146284600F01CF9E9
:100840000028DED170BD70B50446051F00F008F920
:100850000068002C14BF446870BD002C18BFAC4267
:100860003CBF20466468F8D301680A18AA4218BF42
:10087000456003D12A680546114401602868411982
:10088000A1421CBF6C6070BD61686960216808444A
:10089000286070BD10B500F0E7F8006810BD10B515
:1008A000044600F0E1F8046010BD2DE9F0470D4664
:1008B00099469246044600F124080168880604D54A
:1008C000E06921F01001216000E00120A84202DD72
:1008D000A0EB050700E00027A16907EB050202EB8A
:1008E0000900A1EB0000A0612078C00602D42046D8
:1008F000FFF7F8FC002608E0D4E901211AF8060009
:100900009047206A401C761C20624E45F4DB20781C
:10091000C0060AD52046FFF7E5FC06E0D4E9012130
:1009200030209047206A401C2062381EA7F1010742
:10093000F4DC07E0D4E9012118F805009047206AAB
:10094000401C2062281EA5F10105F3DC2046FFF7BC
:10095000E0FC2078000602D50220BDE8F0870120E7
:10096000FBE7000001694A1C02610878704700B586
:100970008FB0CDE901310021059105497944CDE9D8
:10098000031011466846FFF705FE0FB000BD0000DA
:10099000E5FFFFFF0A6802F8010B0A60704710B517
:1009A000436913B1AFF3008001E0FFF7D6FC0120EB
:1009B00010BD127800F124010A7000224A70012251
:1009C000EDE711684FF0FF32E9E710B5436913B165
:1009D000AFF3008001E0FFF725FD012010BD128874
:1009E00000F1240182840022C2840122EDE7116813
:1009F0004FF0FF32E9E770B516460C46054600F0A9
:100A000027F8036893F80101012806D0FF2C0FD8BE
:100A1000185D68B101202C7070BDD3F80701324613
:100A2000214603442846BDE8704003F207131847E7
:100A30004FF0FF3070BD10B500F06EF8BDE810400B
:100A400000F064B800F080B80048704710E700205C
:100A500010B500F0B3F8001D10BD00BF19820000F2
:100A60000048704718E700200048704710E7002052
:100A7000704770477047704738B504460A460020F3
:100A80006946AFF30080002808BF38BD02460099D0
:100A9000204600F097F8012038BD012000F0D3B8BF
:100AA000F8B5AFF30080054600200C46102000BFCB
:100AB0000646A819A0420DD9324669460020AFF378
:100AC0000080070008BF00F0BEF80098A04218BFE1
:100AD0000546C419FFF7C4FF05600746F01D20F066
:100AE00007004619284600F00AF8B44208BFF8BDCE
:100AF000A21B31463868BDE8F84000F063B8002119
:100B00000160C0E90110704710207047002801D033
:100B100000F028B87047000010B5002102A000F0D6
:100B200079F8012010BD00005349475056464E3A0F
:100B30002050757265207669727475616C20666EDE
:100B40002063616C6C65640010B500F086F8016983
:100B500019B100220261884701E08068804700F0F7
:100B600051F8000001491820ABBEFEE72600020044
:100B70007546FFF769FFAE4605006946534620F00B
:100B80000700854618B020B5FFF75CFBBDE82040A4
:100B90004FF000064FF000074FF000084FF0000B39
:100BA00021F00701AC46ACE8C009ACE8C009ACE8EC
:100BB000C009ACE8C0098D46704700000048704786
:100BC00030E70020034640688C46002818BF884262
:100BD0003CBF03464068F8D318681844884207D0E1
:100BE0000CF1030020F00700001D411A521A0146C3
:100BF000081D0A60FFF727BE0446AFF300802046B9
:100C0000FFF70BFB002000F059F8FFF7F8FA01207E
:100C1000FFF7A8FF70B505460C460A2000E06D1CE2
:100C200000F040F835B128780028F8D102E0641CC3
:100C300000F038F814B120780028F8D1BDE87040F1
:100C40000A2000F02FB810B500F040F8BDE81040C1
:100C5000FFF75CBF10B5FFF7D5FF70B500F02AF8BD
:100C600004680546A4B92020FFF7BEFD040011D09A
:100C7000094900202C60C4E900010849A1602073E3
:100C8000206160610649A06109B100F087F8E06168
:100C9000204670BDFFF7B6FF00000000550C0708A6
:100CA0000000000008B569468DF800000320ABBEC7
:100CB00008BD7047004870474CE7002010B500F0B1
:100CC0008BF8BDE81040FFF721BF000010B50128E8
:100CD00005D0002103A0FFF79DFF012010BD09A151
:100CE000F8E7000053494752544D454D3A204F759F
:100CF00074206F662068656170206D656D6F727914
:100D0000000000003A2048656170206D656D6F72CB
:100D10007920636F72727570746564004FF0013CE6
:100D200050F8042B51F8043B9A4221D1A2EB0C035A
:100D3000934313EACC1317D150F8042B51F8043B1A
:100D40009A4215D1A2EB0C03934313EACC130BD1B7
:100D500050F8042B51F8043B9A4209D1A2EB0C0342
:100D6000934313EACC13DBD04FF00000704700BF71
:100D7000D01A01BAB1FA81F101F0180122FA01F09A
:100D8000CB40C1F12001DBB2C0B2C01A2CFA01F392
:100D9000D11A914311EAC311E6D1704710B58820EA
:100DA000FFF722FD002801D00021017010BD80292D
:100DB00002D808B1017809B100207047012100F87C
:100DC000081B704718B100F10802914201D00020C1
:100DD000704700210170704710B5002102A0FFF795
:100DE00019FF012010BD0000534947414252543AB7
:100DF0002041626E6F726D616C207465726D696EF8
:100E00006174696F6E00000030B51A498379026819
:100E100053B30B6893430B600A1D13680468A34324
:100E2000136002790A441368046823431360114A6B
:100E3000083213680468A3431360131D1C68056817
:100E4000AC431C604479102C05D021440A6800682A
:100E500002430A6030BD11680468214311601968BB
:100E600000680143196030BD00790844016891436E
:100E7000016030BD0004014010B58A0721F0030471
:100E80000649130F21440F228C689A4094438C60CA
:100E90008A68984002438A6010BD0000000001404B
:100EA000F0B5CA78002502F00F03D20601D58A7882
:100EB00013430C784FF00F0E0122ECB1D0F8004034
:100EC0000F8802FA05F63740B74211D14FEA850C78
:100ED0000EFA0CF724EA070703FA0CF43C43CF7828
:100EE000282F02D0482F02D002E0466100E00661C0
:100EF0006D1C082DE4D304600C88FF2C1ED94468B7
:100F00005FF0000606F1080702FA07F50F882F4088
:100F1000AF420FD14FEA860C0EFA0CF7BC4303FA2E
:100F20000CF73C43CF78282F00D14561CF78482F6C
:100F300000D10561761C082EE4D34460F0BD024662
:100F4000002092680A4200D0012070470AB1016176
:100F500070474161704700002DE9F74FDFF8DCA1D1
:100F600082B05446DFF8D8810298C4E90B01D8F862
:100F700000001546474601690298884706462946FB
:100F8000704806F0B5F9AAF580796F496D48C9F83F
:100F9000085006F061FA6C496A48A83106F05CFA1C
:100FA0006A49684806F058FA68496648A83106F068
:100FB00053FA6749634806F04FFA65496148A8311A
:100FC00006F04AFA63495F4806F046FA002589F8B8
:100FD0000050386829460268E06A9047C0B2009025
:100FE0003868002211468368E06A98473868032110
:100FF0000268E06A9047C0B20127574C012824D00C
:10100000277000215148A83005F0FCFD6570A770DD
:10101000AB46DAF83000B946554628B3D8F8001088
:1010200047460A681C21904700F0FF0A38681D21D6
:101030000268286B9047C7B2E86A03F0AFFE474AE0
:101040000146002052F821100BE025700121D9E75C
:10105000524500D160700A5CBA4200D1A070401CB9
:10106000C0B20A5CFF2AF3D184F803B084F804B05C
:1010700084F805B084F806B084F807B084F808B0A6
:1010800084F809B084F80AB084F80BB0D8F80000EE
:1010900001225F4683680021E86A9847D8F800007B
:1010A00003210268E86A9047C0B2012840D084F862
:1010B0000C9000BFD8F800000021009A8368E86A0D
:1010C0009847677384F80E90E77327746774A77462
:1010D000E77427756775A775E775029800F08AF8B9
:1010E00018491F48C1F80C010021164806F022F9E2
:1010F0000920B0EB167F1DD0C6F30360092819D074
:1011000000211348A83005F07DFD0A20B0EB167FC2
:1011100012D0C6F303600A280ED000210D4805F056
:1011200071FD05B00021BDE8F04F022001F066BB63
:101130002773BFE70121E4E70121EFE704E0002086
:10114000F4FF0020C0E00020D0E1002020E30020D8
:1011500070E40020C0E50020F8E6002054B607083F
:101160008D4F07082DE9F0411E4C204606F026F968
:1011700004F5827006F0F4FE022001F033FB1A4EF3
:10118000B188084306D0002902D0B088401EB08044
:10119000BDE8F081154C164D002120680268E86A10
:1011A0009047C7B22068002211468368E86A9847D2
:1011B00020680221C268E86A904720680122002165
:1011C0008368E86A984720680221C268E86A904705
:1011D00020683A4600218368E86A98470420B08076
:1011E000D3E70000C0E0002004DF0020F4FF00206F
:1011F00004E0002070B5134C064600212068026808
:1012000030469047C5B220680022114683683046B8
:1012100098470021304603F0EBFE206801220021B0
:1012200083683046984700280BD00121304603F0F0
:10123000DFFE20682A46002183683046BDE8704002
:10124000184770BDF4FF00202DE9F14FFE4D052732
:10125000DFF8F883FE4EDFF8FC9384B0002405F13C
:10126000910A3068295D02681AF8011004989047C5
:1012700099F8003008EB83122B5D641CE4B222F86D
:101280001300BC42EDD3F04D01270024ED1E05F103
:10129000010A3068295D02681AF801100498904725
:1012A000EA4999F80020103901EBC2012A5D641C5B
:1012B000E4B241F82200BC42EBD399F800004D465D
:1012C00000EB4001E1488030012410F82100E8BB28
:1012D000306808210268049890472978474608EB4F
:1012E0008111888230680C210268049890472A781E
:1012F00000B207EB821102EB4203D44A088380322A
:1013000002EB8302D278012A2CD1B1F914200AB958
:10131000002854D0524300FB0020B84608F05CFA85
:1013200006F08FFE08F03CFA2A7808EB8217B8879F
:10133000B7F9180008F050FA8146B7F9140008F020
:101340004BFA494606F07FFEC34900E014E008F07E
:101350005BFAC24908F062F908F022FA2A7808EB31
:101360008211C887BB498031886B08B180F8204062
:10137000486C08B180F82040306801210268049868
:10138000904787B2060C286CA8464CF2186B68B3DD
:1013900007B1C6B1B24805F0BBFCD8F840104546CD
:1013A000884202D1AE4805F018FD286C428B5A45A0
:1013B0001CD0A0F81AB0002105F0F3FB13E00020C8
:1013C00088875A20CDE7002141834546012105F059
:1013D000E8FBA34805F09CFC296C884203D000215F
:1013E0009F4805F0A1FC286C80F82040984DDFF85C
:1013F0007492002128680268D9F82C009047C0B286
:1014000002902868002211468368D9F82C0098477A
:1014100028680121026804989047824628680221C2
:10142000026804989047C0B201901FFA8AF9D8F870
:1014300078004FEA1A4A4546E8B1B9F1000F02D0E8
:10144000BAF1000F31D08648A83005F061FCA96FD1
:10145000884203D18248A83005F0BFFCA86F428BB8
:101460005A4508D0A0F81AB05FF0000105F099FBCA
:10147000A86F80F820407748406F28B359EA0A01E6
:1014800017D07748A83005F043FC724D696F884249
:1014900003D17348A83005F0A0FC686F428B5A4511
:1014A00012D0A0F81AB0002109E0002141830121E7
:1014B000DCE7684D418B39B100214183012105F002
:1014C00070FB686F80F82040614D01220021286880
:1014D00083686448C06A98472868012102680498B4
:1014E0009047804628680221026804989047C0B25D
:1014F000009058481FFA88F580304FEA1848006875
:1015000008B315B1B8F1000F38D05548A83005F030
:10151000FFFB504980310968884203D15048A83008
:1015200005F05BFC4B4A80321068438B5B450AD068
:10153000A0F81AB05FF0000105F033FB4548803099
:10154000006880F820404348C06F30B355EA080176
:1015500018D04348A83005F0DBFB3E49C96F8842EC
:1015600003D13F48A83005F038FC3A4AD06F438B8E
:101570005B4512D0A0F81AB0002108E00021418399
:101580000121D9E7428B42B100214183012105F0BD
:1015900008FB3048C06F80F820402D480021029A97
:1015A000006883682F48C06A984749EA0A0A4AEAED
:1015B000050050EA08003BD02B49B1F80001012892
:1015C0000AD08946022833D00121274805F0B2FE0F
:1015D000B9F8000101282BD1DFF8789099F80000C4
:1015E00018B14D46012809D019E055EA080516D072
:1015F000B9F802004D46A8B9012105E0BAF1000F83
:101600000DD0688870B90021E86806F0C0FA0021A2
:10161000084604F02DFBE868002180F82310B9F893
:10162000021019B3B9F80210B1F10101A9F80210C2
:10163000084D8035686890B3DDE9002111437DD005
:101640000199062914D015E0EFB5070878E60020C7
:10165000F4FF002004DF002000003443C3F54840BD
:1016600078E2002004E00020C0E000201E21DDE739
:10167000062AE4D0824805F04BFB6968884202D113
:101680007F4805F0AAFB6868428B5A4507D0A0F84E
:101690001AB0002105F085FA686880F82040DFF86C
:1016A000E48100217B0698F8000000EB40027648B8
:1016B00000EB82004FF00202417100D542717306C7
:1016C00000D544718171FB0600D58271F30600D507
:1016D0008471C171BB0600D5C271B30600D5C47157
:1016E0000172FB0700D00272F30700D004723B06C0
:1016F00000D50272330600D5047241727B0700D513
:101700004272730700D544728172BB0700D58272A2
:10171000B30700D58472C172390700D5C272310790
:1017200000D5C472D8F84010F1B3D8F8242043791A
:101730005649568B31F813309E4200E098E002D0B3
:10174000538382F82040D8F828208379568B31F8CB
:1017500013309E4202D0538382F82040D8F82C20C8
:10176000C379568B31F813309E4202D0538382F8EE
:101770002040D8F83020037A568B31F813309E423F
:1017800002D0538382F82040D8F83420437A568B15
:1017900031F813309E4202D0538382F82040D8F8AB
:1017A0003820837A568B00E011E031F813309E42E6
:1017B00002D0538382F82040D8F83C20C07A538B63
:1017C00031F81000834202D0508382F82040D8F8CC
:1017D0001C0008B180F82040D8F8200008B180F83B
:1017E00020402B48006A08B180F82040A86A08B160
:1017F00080F82040E86B08B180F82040A86C08B160
:1018000080F82040234D0021286802680498904702
:10181000C7B2286800221146836804989847286850
:101820001E21026804989047174E0122903E002125
:101830007060286883680498984758B128681E210A
:10184000026804989047F06028683A46002183684F
:1018500004989847D8F84C0008B180F82040D8F890
:101860006400002801D080F8204005B0BDE8F08F6A
:10187000418B00293FF413AF00214183012109E787
:1018800020E3002004DF0020F8E60020F4B507087C
:1018900004E00020F4FF002070B506460E48002446
:1018A0004068472815D040F23F11002000F0C4F9ED
:1018B00000F030FE4FF49635304600F001FE641C17
:1018C000AC42F9D3BDE8704001220421034800F086
:1018D0003FB80021E9E7000038E00020000C01409B
:1018E00038B50121082000F0CFFE0420ADF800003B
:1018F00003208DF802001020134C8DF80300694678
:101900002046FFF7CDFA01220421204600F020F8FE
:1019100080200E4DADF8000069462846FFF7C0FA5A
:101920004FF40044ADF8004069462846FFF7B8FA86
:1019300001222146284600F00BF80122802128468A
:1019400000F006F838BD0000000C01400014014012
:10195000FFF7FCBA064B30B49B68203AD2B21C6841
:10196000DB88534304EB430230BC00F003B80000B3
:1019700038E000202DE9F74F9046002706460199F0
:1019800000F05AF91C4C31E000F0C4FD00254FF086
:101990000C094FF0800A4FF0010B17E0B0FBF9F192
:1019A000CA000AFA02F138F817202941114201D180
:1019B0000C2805D90BFA05F10A4203D10C2801D9EC
:1019C000608800E0208800F07BFD6D1CA0688088A6
:1019D000A842E3D8012204210848FFF7B9FF761C8A
:1019E000B6B23046019900F027F97F1CA068C08884
:1019F000B842C9D8BDE8FE8F38E00020000C014095
:101A0000704700002DE9F047194D804699466868F7
:101A100017460E460024472803D1A1F23F16704214
:101A200086B23146404600F007F9B9F1000F1AD1ED
:101A300000F070FD03E0288800F042FD641CBC4209
:101A4000F9D3BDE8F047012204210A48FFF780BF1F
:101A5000288800F04FFD08F1010080B28046314631
:101A600000F0EAF8641CBC42F2D3BDE8F087000045
:101A700038E00020000C0140024A1388038050889F
:101A80000880704738E000200148806870470000F7
:101A900038E0002003484068472801D00120704703
:101AA0000020704738E000207047000070B52D4CD2
:101AB0000025218821F038012180218841F008018A
:101AC000218000F059FD732000F07CFDFF212046AD
:101AD00000F02FFE8021204600F022FE0028F9D1E0
:101AE0000121204600F01CFE0028F9D0204600F01D
:101AF0001EFE6D1CEDB2052DE8D3FF21204600F03F
:101B000018FE8021204600F00BFE0028F9D10121AB
:101B1000204600F005FE0028F9D0204600F007FE20
:101B20000546FF21204600F004FE8021204600F0FB
:101B3000F7FD0028F9D10121204600F0F1FD002831
:101B4000F9D0204600F0F3FDE9B240EA0125012278
:101B500004210548FFF7FCFE208820F03800208093
:101B6000284670BD00380040000C014030B587B0F9
:101B70000121082000F088FD01218C03204600F09F
:101B80006BFD6010ADF8140003208DF816001820CE
:101B90001D4D8DF8170005A92846FFF781F9ADF80E
:101BA000144005A92846FFF77BF96000ADF8140042
:101BB00005A92846FFF774F9144C204600F086FD6D
:101BC0000021ADF800104FF48270ADF80200ADF8BE
:101BD00004100220ADF806000120ADF80800400214
:101BE000ADF80A00ADF80C100720ADF80E10ADF8F6
:101BF00010006946204600F09EFD0121204600F0BD
:101C00005BFD07B030BD0000000C01400038004013
:101C100001B5BDF800000149488008BD38E000204A
:101C200003B5BDF8001003480180BDF804104180E1
:101C30000CBD000038E0002070B505460E480C468B
:101C40004068472809D02946202000F06DFC214635
:101C50002120BDE8704000F067BC210A022000F09E
:101C600063FCE1B2032000F05FFC0021062000F0DD
:101C70005BFC29460720ECE738E00020014988603A
:101C80007047000038E0002001B5BDF800000149B0
:101C9000088008BD38E000202DE9F05FFFF720FE46
:101CA000FFF764FFFE48416847297DD041684FF443
:101CB0008079A1F513424FF4E06B41F2300A40F213
:101CC0003F1741F21808203A6FD1052006F052FF65
:101CD0004FF40041E52000F027FC0121002000F036
:101CE00023FC4946012000F01FFC5946022000F069
:101CF0001BFC5146032000F017FC0021042000F0DB
:101D000013FC40F20221082000F00EFC0021092003
:101D100000F00AFC00210A2000F006FC00210C2043
:101D200000F002FC00210D2000F0FEFB00210F203E
:101D300000F0FAFB0021102000F0F6FB002111203A
:101D400000F0F2FB0021122000F0EEFB0021132036
:101D500000F0EAFB142006F00DFF41F2B0711020F4
:101D600000F0E2FB40F23711112000F0DDFB05200E
:101D700006F000FFB91F122000F0D6FB052006F088
:101D8000F9FE4FF4E851132000F0CEFB1321292077
:101D900000F0CAFB052006F0EDFE0021202000F037
:101DA000C3FB0021212001E086E093E100F0BCFBB1
:101DB0000621302000F0B8FB40F20111312000F084
:101DC000B3FB0321322000F0AFFB4FF483713520C9
:101DD00000F0AAFB40F60231362000F0A5FB40F2ED
:101DE0000231372000F0A0FB40F20771382000F0EC
:101DF0009BFB0721392000F097FB4FF4C0613C208A
:101E000000F092FB40F20B213D2000F08DFB002101
:101E1000502000F089FBEF21512000F085FB0021CC
:101E2000522000F081FB3946532000F07DFB4FF437
:101E30001C51602000F078FB0121612000F074FB50
:101E400000216A2000F070FB0021802000F06CFB74
:101E50000021812000F068FB0021822000F064FB5B
:101E60000021832000F060FB0021842000F05CFB57
:101E70000021852000F058FB1021902000F054FB39
:101E80000021922000F050FB0321932000F04CFB36
:101E90004FF48871952000F047FB0021972000F057
:101EA00043FB0021982000F03FFB4146032000F057
:101EB0003BFB40F27311FBE20021EA2000F034FB0F
:101EC0002021EB2000F030FB0C21EC2000F02CFB5B
:101ED000C421ED2000F028FB4021E82000F024FB85
:101EE0003821E92000F020FB0121F12000F01CFB4B
:101EF0001021F22000F018FBA321272000F014FB92
:101F00000121402000F010FB0021412000F00CFBDB
:101F10000021422000F008FB1021432000F004FBC8
:101F20000E21442000F000FB2421452000F0FCFAA3
:101F30000421462000F0F8FA5021472000F0F4FA7E
:101F40000221482000F0F0FA1321492000F0ECFAB9
:101F500019214A2000F0E8FA19214B2000F0E4FA98
:101F600016214C2000F0E0FA1B21502000F0DCFA92
:101F70003121512000F0D8FA2F21522000F0D4FA5C
:101F80003F21532000F0D0FA3F21542000F0CCFA3A
:101F90003E21552000F0C8FA2F21562000F0C4FA47
:101FA0007B21572000F0C0FA0921582000F0BCFA2C
:101FB0000621592000F0B8FA06215A2000F0B4FAA0
:101FC0000C215B2000F0B0FA1D215C2000F0ACFA7F
:101FD000CC215D2000F0A8FA1B21084600F0A4FAED
:101FE00001211A2000F0A0FA2F21242000F09CFAF1
:101FF0005721252000F098FA8621232000F094FA3A
:102000003621182000F090FA0121192000F08CFAF6
:102010000021012000F088FA88211F2000F084FAB6
:10202000022006F0A7FD80211F2000F07DFA02208B
:1020300006F0A0FD90211F2000F076FA022006F0A5
:1020400099FDD0211F2000F06FFA022006F092FDCA
:102050000521172000F068FA0021012000F064FA41
:102060000021022000F060FA0021032000F05CFA59
:102070000121042000F058FA3F21052000F054FA15
:102080000021062000F050FA0021072000F04CFA51
:102090000021082000F048FAEF21092002E00000AA
:1020A00038E0002000F040FA2821162000F03CFA29
:1020B0000021362000F038FA0421362000F034FAEE
:1020C0003821282000F030FA062006F053FD3C218C
:1020D0002820EEE1416840F20514A1F5A84240F243
:1020E000062540F60806083A7ED143F20801E320AF
:1020F00000F01AFA1221E72000F016FA41F231211D
:10210000EF2000F011FA4946012000F00DFA59467F
:10211000022000F009FA5146032000F005FA0021E0
:10212000042000F001FA291F082000F0FDF9002129
:10213000092000F0F9F900210A2000F0F5F900214A
:102140000C2000F0F1F900210D2000F0EDF9002144
:102150000F2000F0E9F90021102000F0E5F900213E
:10216000112000F0E1F90021122000F0DDF900213A
:10217000132000F0D9F9142006F0FCFC07211120EF
:1021800000F0D2F9052006F0F5FC41F2B021102054
:1021900000F0CAF9052006F0EDFC40F2BD11122056
:1021A00000F0C2F9052006F0E5FC4FF4A051132021
:1021B00000F0BAF90E21292000F0B6F9052006F04A
:1021C000D9FC0021202000F0AFF93946212000F091
:1021D000ABF90721302000F0A7F940F2023131209D
:1021E00000F0A2F9214600E074E0322000F09CF9F2
:1021F0002946352000F098F93146362000F094F950
:102200002946372000F090F940F20451382000F0C0
:102210008BF90721392000F087F921463C2000F096
:1022200083F931463D2000F07FF90021502000F075
:102230007BF9EF21512000F077F90021522000F0C6
:1022400073F93946532000F06FF94FF427416020AD
:1022500000F06AF90121612000F066F900216A208E
:1022600000F062F90021802000F05EF90021812059
:1022700000F05AF90021822000F056F90021832055
:1022800000F052F90021842000F04EF90021852051
:1022900000F04AF91021902000F046F90021922028
:1022A00000F042F90321932000F03EF94FF48871C9
:1022B000952000F039F90021972000F035F9002130
:1022C000982000F031F94146032000F02DF94FF439
:1022D0008971EDE04068A0F5134125397ED10121D7
:1022E000002000F021F94946012000F01DF959466F
:1022F000022000F019F94146032000F015F90021F1
:10230000042000F011F940F20221082000F00CF93D
:102310000021092000F008F900210A2000F004F94A
:1023200000210C2000F000F900210D2000F0FCF845
:1023300000210F2000F0F8F80021102000F0F4F840
:102340000021112000F0F0F80021122000F0ECF83C
:102350000021132000F0E8F8142006F00BFC41F2F5
:10236000B071102000F0E0F840F23711112000F0B9
:10237000DBF8052006F0FEFB40F23911122000F0D8
:10238000D3F8052006F0F6FB4FF4E851132000F0D7
:10239000CBF81321292000F0C7F8052006F0EAFB4E
:1023A0000021202000F0C0F80021212000F0BCF81E
:1023B0000721302000F0B8F840F20231312000F05F
:1023C000B3F82146322000F0AFF82946352000F05E
:1023D000ABF83146362000F0A7F800E06DE0294662
:1023E000372000F0A1F840F20451382000F09CF8AA
:1023F0000721392000F098F821463C2000F094F89D
:1024000031463D2000F090F80021502000F08CF87B
:10241000EF21512000F088F80021522000F084F8CC
:102420003946532000F080F84FF42741602000F037
:102430007BF80121612000F077F800216A2000F08C
:1024400073F80021802000F06FF80021812000F057
:102450006BF80021822000F067F80021832000F053
:1024600063F80021842000F05FF80021852000F04F
:102470005BF81021902000F057F80021922000F026
:1024800053F80321932000F04FF84FF48871952002
:1024900000F04AF80021972000F046F8002198202B
:1024A00000F042F84146032000F03EF840F23311BC
:1024B0000720BDE8F05F00F037B8BDE8F09F0000EE
:1024C00070B50B4D0446010A284600F032F9802110
:1024D000284600F025F90028F9D1E1B2284600F09D
:1024E00028F98021284600F01BF90028F9D170BD99
:1024F0000038004010B5044600F00CF82046FFF705
:10250000DFFF0122BDE8104004210148FFF720BA97
:10251000000C014010B5222000F02EF8BDE810405C
:10252000722000F04FB8000070B50C4600F024F89F
:10253000722000F047F80E4D210A284600F0F9F805
:102540008021284600F0ECF80028F9D1E1B22846B5
:1025500000F0EFF88021284600F0E2F80028F9D1D9
:10256000BDE87040012204210248FFF7F1B90000E4
:1025700000380040000C014070B50546702000F0A6
:1025800021F80E4C0021204600F0D3F8802120468F
:1025900000F0C6F80028F9D12946204600F0C9F815
:1025A0008021204600F0BCF80028F9D1BDE8704039
:1025B000012204210248FFF7CBB900000038004097
:1025C000000C014010B50446002204210748FFF723
:1025D000BFF92146064C204600F0ABF8802120468A
:1025E00000F09EF80028F9D110BD0000000C014059
:1025F00000380040F0B50F21C478027801234FF075
:10260000E026DCB1124C2468457804F4E064C4F59B
:10261000E064240AC4F10407E1408478BD400C4022
:102620002C4321010B4C1155007800F01F018B4009
:10263000400906EB8000C0F80031F0BD02F01F0039
:102640008340500906EB8000C0F88031F0BD0000E7
:102650000CED00E000E400E0044A0029D16901D05B
:10266000014300E08143D161704700000010024047
:10267000044A0029116901D0014300E0814311613E
:102680007047000000100240044A0029916901D0FF
:10269000014300E081439161704700000010024057
:1026A000044A0029D16801D0014300E08143D16090
:1026B00070470000001002400029018802D041F05C
:1026C000400101E021F0400101807047114910B53F
:1026D00088420AD1841401212046FFF7E1FF2046F9
:1026E000BDE810400021FFF7DBBF0B49884202D153
:1026F0000121041404E0094988420AD10121C413CC
:102700002046FFF7B5FF2046BDE810400021FFF747
:10271000AFBF10BD0030014000380040003C004019
:102720000246002012890A4200D0012070478089A9
:1027300070478181704730B502884C8802F441535C
:102740000A88CD8822438C882C4322430C8922435B
:102750004C8922438C892243CC8922431A4302802C
:10276000828B22F400628283098A018230BD0000DC
:1027700038B500200090FFF78FFA0020FFF796F998
:102780000146009045F20840094C814206D049F2CA
:102790002530814202D0401F814203D16060FFF7A3
:1027A0007BFA01E04720606001480C30A06038BD32
:1027B00038E0002010B50021072000F01FF80021AC
:1027C000052000F01BF80021062000F017F800217A
:1027D000032000F013F80021BDE81040042000F0B1
:1027E0000DB800000349044A31F8101052F82000D7
:1027F000FEF7A5BB58CB070874E000207FB5044660
:1028000023480D46012150F8240040F00100FFF755
:102810003BFF04208DF80F001D4803A9103830F845
:102820001400ADF80C001B4850F82400FEF738FBEC
:10283000012D2CD11648403010F81410103810F823
:102840001400FEF719FB1248203030F814000090F5
:1028500000208DF804000CB10C2000E008208DF859
:10286000050001258DF806506846FEF7CDFA0848A8
:10287000503010F814008DF808000F208DF8090072
:102880008DF80A008DF80B5002A8FFF7B3FE7FBD4C
:1028900068CB070874E000200CB5002126480191A0
:1028A0000091026842F4803202604FF4A063026833
:1028B00002F400320092019A521C0192009A12B95D
:1028C000019A9A42F3D10268920333D50121009113
:1028D0001A490A6842F010020A600A6822F00302EC
:1028E0000A600A6842F002020A6041684160416879
:1028F0004160416841F480614160416821F47C118C
:102900004160416841F4E8114160016841F0807123
:10291000016001688901FCD5416821F00301416033
:10292000416841F0020141604168C1F3810102291F
:10293000FAD10CBD00910CBD0010024000200240F5
:102940000F4810B5016841F00101016041680D4A6E
:102950001140416001680C4A11400160016821F496
:1029600080210160416821F4FE0141604FF41F01A4
:102970008160FFF791FF05494FF00060086010BDCE
:10298000001002400000FFF8FFFFF6FE08ED00E037
:102990002DE9FE4F282005F05DFB03210091052362
:1029A0003B4A3CA105F01AFB8246282005F052FB69
:1029B0001E2100910523364A39A105F00FFB8146FF
:1029C000282005F047FB3C2100910523304A3EA119
:1029D00005F004FB8046282005F03CFB4B210091CC
:1029E00005232B4A41A105F0F9FA0746282005F0F6
:1029F00031FB5A2100910523254A45A105F0EEFA45
:102A00000646282005F026FBB42100910523204A24
:102A100048A105F0E3FA0546282005F01BFB7321C9
:102A2000009105231A4A4B4905F0D8FA044651464D
:102A3000174804F03EF94946154804F03AF9414672
:102A4000134804F036F93946114804F032F931469A
:102A50000F4804F02EF929460D4804F02AF92146C2
:102A60000B4804F026F9282005F0F4FA08499623CB
:102A7000F7228DE80E0038492C234822096803F01C
:102A800055FC03B00146BDE8F04F014804F011B910
:102A9000D0E1002048656C7020506167650000003F
:102AA00055736520746865206A6F79737469636B08
:102AB00020746F20776F726B2077697468204C43A5
:102AC00044204755490000002D55502F444F574E84
:102AD00020746F206D6F7665206265747765656E12
:102AE00020636F6E74726F6C730000002D4C45464E
:102AF000542F524947544820746F206D6F766520DB
:102B00006265747765656E207061676573000000AB
:102B10002D53454C20746F20696E74657261637427
:102B200020776974682074686520636F6E74726FB3
:102B30006C000000436F70797269676874205354A9
:102B40004D6963726F656C656374726F6E696373F0
:102B500000000000FAB5070800DF00202DE9F04F63
:102B600087B00021FE4804F04DF8282005F072FAE5
:102B70000021FB4A0B460091A832FAA105F02EFA7B
:102B80008046282005F066FA1421F54A00910A23B0
:102B9000A832FAA105F022FA0746382005F05AFAC1
:102BA0002121EF4A00910A23A832F64905F02AF9BB
:102BB000F54CE060282005F04DFA1421E84A009118
:102BC0006423A832F1A105F009FA0646382005F081
:102BD00041FA21210091E24AEA496423A8320C31EA
:102BE00005F010F92061282005F034FADFF8709321
:102BF000352309F1A8090A21CDF80090CDE9011388
:102C00003C239B22E4A105F049F90546282005F064
:102C100021FA112100910F232A46E4A105F0DEF9E3
:102C20000490282005F016FA252100910F232A464A
:102C3000E1A105F0D3F90590382005F00BFA6E22DA
:102C4000CDE900524FF00F0ACDF808A0227809F51F
:102C5000806B0BEB82110323DAA203F085FEE061A7
:102C6000382005F0F7F923216E220095CDE90121E6
:102C7000227803230BEB8211891CD2A203F074FE8D
:102C80002062282005F0E6F91422CD23CDF800902B
:102C9000CDE90132AA236422CBA105F0FFF803900D
:102CA000282005F0D7F90523CDF800A0C8A1039A84
:102CB00005F094F96062282005F0CCF921210091FB
:102CC0000523C6A1039A05F089F9A062282005F022
:102CD000C1F9332100910523C3A1039A05F07EF9C0
:102CE000E062282005F0B6F9452100910523C1A135
:102CF000039A05F073F92063282005F0ABF95721FA
:102D000000910523BEA1039A05F068F960632820AD
:102D100005F0A0F9692100910523BCA1039A05F0F3
:102D20005DF9A063282005F095F97B21009105232A
:102D3000B9A1039A05F052F9E063302005F08AF951
:102D40008D2100910A23B7A1039A03F005FCB8492D
:102D5000206441624CF218614183002103F021FF9D
:102D60004846216C03F0A5FF4146484603F0A1FF09
:102D70003146484603F09DFF3946484603F099FF27
:102D80004846E16803F095FF2178E06804F0FFFE13
:102D9000E168A84848624846216903F08AFF207824
:102DA00009F5906600EB400016F82010206904F049
:102DB000EEFEA14804F5807700680169F86A88474B
:102DC000C0067AD5282005F045F973230A21CDF8ED
:102DD0000090CDE901133C23BE2298A105F05EF8D6
:102DE0008046282005F036F911210091052342463E
:102DF00096A105F0F3F88246282005F02BF925214D
:102E000000910523424692A105F0E8F8814638205A
:102E100005F020F90190F86A01F0C0FFDFF864B115
:102E200021230BF1180B42465BF820100F20009075
:102E3000019804F0E7FF6061382005F00BF901907C
:102E4000F86A01F0ABFF5BF82010232000902123EB
:102E50004246019804F0D6FFA0614146A6F5906075
:102E600003F027FF5146A6F5906003F022FF494684
:102E7000A6F5906003F01DFFA6F59060616903F070
:102E800018FFA6F59060A16903F013FF207800EB0E
:102E9000400006EB80004178606904F078FE2078FD
:102EA00000EB400006EB80008178A06904F06FFE23
:102EB000616968484862A169486229482946A83082
:102EC00003F0F7FE26480499A83003F0F2FE2448E8
:102ED0000599A83003F0EDFE2148E169A83003F020
:102EE000E8FE1F48216AA83003F0E3FE0021E069F4
:102EF00003F057FE0021206A03F053FE4E4800689D
:102F00000169F86A88470221B1EB107F03D0C0F352
:102F10000360022813D1302005F09CF8B221104A3A
:102F200000910A23A8324CA103F016FB01467861F8
:102F30000B48A83003F0BDFE79694C484862084848
:102F40000399A83003F0B5FE0548616AA83003F084
:102F5000B0FE0348A16AA83003F0ABFE004887E04A
:102F6000D0E10020436F6E66696775726174696FA6
:102F70006E20616E64206465627567004D6F746FCA
:102F8000720000001CB6070804DF00204374726C56
:102F9000206D6F6465000000506F77657220626F6E
:102FA000617264207374617475730000444320423D
:102FB000757320766F6C74004865617473696E6B0D
:102FC00020542E00253364004661756C7473000034
:102FD0004F76657263757272656E740052657675B0
:102FE00070206661696C00005370656564206664DA
:102FF000626B00005357206572726F720000000010
:10300000556E64657220766F6C7400004F76657241
:1030100020766F6C740000004F7665722074656DC9
:10302000700000004661756C742061636B000000E5
:10303000754F0708715C0708F4FF002044414320E6
:1030400053657474696E6773000000004368310053
:103050004368320061540708456E636F64657220EF
:10306000616C69676E6D656E74000000D15407086D
:10307000A830E16A03F01DFE2048216B03F019FE21
:103080001E48616B03F015FE1C48A16B03F011FE96
:103090001A48E16B03F00DFE2078626A00EB4000F5
:1030A00006EB800116484B7930F8133053838B7947
:1030B000A26A30F813305383CB79E26A30F81330C8
:1030C00053830B7A226B30F8133053834B7A626B45
:1030D00030F8133053838B7AA26B30F8133053835C
:1030E000C97AE26B30F811005083216905484862C3
:1030F00007B00248BDE8F04F03F06FBE78E2002051
:10310000F4B50708A95B07082DE9F04F8BB028201C
:1031100004F0A0FF00210B460091FB4AFBA104F044
:103120005DFF0790282004F095FFF74914230A2239
:103130008DE80E005A239122F9A104F0AFFE064655
:10314000F948FA4C4FF0050B00784FF01E090028A3
:103150004FF0410A4FF028007BD004F07BFF0F2195
:10316000009105233246F2A104F038FF07463820CB
:1031700004F070FF0096EC49CDE901B94D460623F5
:10318000EFA26C3903F0F0FBEE49A06441624020ED
:1031900004F060FF3C210096CDE90115E2490623C9
:1031A000E7A28C3904F084F8E064282004F052FF90
:1031B00075233246E4A1009504F010FF80462820D4
:1031C00004F048FF3221009105233246DFA104F0CC
:1031D00005FF0546382004F03DFFD349CDE9006BDB
:1031E0000623D7A26839CDF808A003F0BDFBD94962
:1031F000606541623946C44803F05BFDC248A16C7A
:1032000003F057FDC048E16C03F053FD4146BE4852
:1032100003F04FFD2946BC4803F04BFDBA48616DF1
:1032200003F047FD0021E06C03F0BBFC302004F00C
:1032300011FF782100912823B34AC7A103F08CF92C
:103240006067302004F006FF8C212823AE4A0091ED
:1032500000E0DCE0C3A103F07FF9C549A06741624B
:103260004CF218614183002103F09BFCA648616F7A
:1032700003F01FFDA448A16F03F01BFD282004F0FC
:10328000E9FEA1491423A0228DE80E005A239122C1
:10329000B8A104F003FE0546A348017B84380390DF
:1032A00000294FF028007CD004F0D4FE0F210091BB
:1032B00005232A469EA104F091FE0890382004F0D0
:1032C000C9FE9949CDE9005B4F4606239CA22C39E3
:1032D000CDF8089003F048FBA849206641624020E1
:1032E00004F0B8FE3C21CDE90051062394A20297D8
:1032F000039903F0DDFF6066282004F0ABFE752320
:103300002A4691A1009704F069FE8046282004F027
:10331000A1FE3221009105232A468CA104F05EFE15
:103320000746382004F096FE7F49CDE9005B06236E
:1033300083A22839CDF808A003F016FB9049E06677
:1033400041627148089903F0B4FC6F48216E03F0A4
:10335000B0FC6D48616E03F0ACFC41466A4803F076
:10336000A8FC3946684803F0A4FC6748E16E03F006
:10337000A0FC0021606E03F014FC302004F06AFE13
:1033800078210091BE23604A73A103F0E5F8E0675D
:10339000302004F05FFE8C210091BE235A4A71A1B7
:1033A00000E040E103F0D8F8604F7649803738609C
:1033B00041624CF218614183002103F0F2FB30209E
:1033C00004F048FEA021009144234F4A6EA103F06F
:1033D000C3F878604C48079903F06BFC31464A48C3
:1033E00003F067FC2946484803F063FC4648E16F58
:1033F00003F05FFC4448396803F05BFC424879689D
:1034000003F057FC4848017800297CD0D0E104F053
:1034100021FE0F2100910523324661A104F0DEFD5B
:103420000490402004F016FE3F49CDE9006B0623CE
:1034300043A29039CDF8089003F03AFF5C4D6064E8
:103440005C4F286800210268F86A9047C0B2039078
:103450002868002211468368F86A98472868D4F8DB
:10346000448040210268F86A9047029028683F2112
:103470000268F86A90470299C8E90E10286800218E
:10348000039A8368F86A9847402004F0E3FD3C21E2
:10349000CDE900612449062329A2CDF808908C3992
:1034A00003F006FFE064282004F0D4FD75233246C3
:1034B00025A1CDF8009004F091FD0746282004F0E6
:1034C000C9FD32210091052332463BA104F086FD5F
:1034D0000546382004F0BEFD1349CDE9006B0623F4
:1034E00017A27C39CDF808A003F03EFA47F6FF7228
:1034F0000021206503F00AFA302004F0ABFD3C23E4
:10350000324632A166E03FE120E300204475616C61
:1035100020636F6E74726F6C2070616E656C00005A
:103520004D6F746F72203100F8E6002004DF002038
:103530004971207265662E2F537065656400000026
:10354000253664002960070872706D004964207296
:1035500065662E00A15E070853746172742F537460
:103560006F7000004661756C742061636B00000031
:10357000E15307084D6F746F72203200C560070871
:10358000655F07082154070853746172742F5374E0
:103590006F7020626F7468206D6F746F72730000BB
:1035A000546172676574204D65617375726564005E
:1035B000F4FF002004E0002052616D7020647572F9
:1035C0006174696F6E206D7300000000457865635B
:1035D00000000000CDF800A002F0BEFFA0657C480E
:1035E000049903F066FB7A48616C03F062FB78484B
:1035F000E16C03F05EFB3946754803F05AFB29463F
:10360000734803F056FB7248216D03F052FB70487B
:10361000A16D03F04EFB0021E06C03F0C2FAA16D36
:103620006C48486202E604F015FD0F2105232A4686
:103630000091AFF2940104F0D1FC0890402004F016
:1036400009FD1E2105220095CDE901210623AFF2D7
:103650001012614903F02CFE604FE065DFF88081B5
:10366000386800210268D8F82C00904700F0FF0B62
:103670003868012200218368D8F82C009847386800
:10368000D4F85C9040210268D8F82C009047049050
:1036900038683F210268D8F82C0090470499C9E99E
:1036A0000E1038685A4600218368D8F82C009847D5
:1036B000402004F0CFFC1E223C210095CDE90112F0
:1036C0000623AFF28412039903F0F2FD606628200E
:1036D00004F0C0FC1E2175232A460091AFF2981118
:1036E00004F07CFC8046282004F0B4FC3221052341
:1036F0002A460091AFF2401104F070FC07463820D2
:1037000004F0A8FC0522CDE900520623CDF808A05C
:10371000AFF2D41230494C3103F026F947F6FF726C
:103720000021A06603F0F2F8302004F093FC3C2363
:103730002A46AFF26811CDF800A002F00DFF206715
:103740002348089903F0B5FA2148E16D03F0B1FA76
:103750001F48616E03F0ADFA41461D4803F0A9FA17
:1037600039461B4803F0A5FA1948A16E03F0A1FAE7
:103770001748216F03F09DFA0021606E03F011FAE3
:10378000216F18484862F8E5007B88B9302004F0C2
:1037900061FCB421009140230D4A13A102F0DCFE2C
:1037A0000146B8600A4803F084FAB96814484862D0
:1037B000796814484862616F13484862E16F1348A2
:1037C00048620BB00248BDE8F04F03F006BB0000B2
:1037D00020E300209D61070870E60020F4FF002030
:1037E00004E00020E9610708457865632073696D8E
:1037F000756C74616E656F75732052616D707300C6
:10380000E95407085950070855580708615907082F
:103810002DE9F04F8BB0282004F01CFC00210B4652
:103820000091FE4AFEA104F0D9FB0390282004F089
:1038300011FC0A22F94BCDE900324FF0140ACDF801
:1038400008A05A239122FBA104F028FB0746282058
:1038500004F000FC1E2100913C233A46F8A104F03C
:10386000BDFB0490282004F0F5FB412100913C238E
:103870003A46F4A104F0B2FB0590282004F0EAFBDC
:103880000F21009105233A46EFA104F0A7FB069013
:10389000402004F0DFFB1E2105220097CDE9012125
:1038A000DFF8B8B3EC4A06239BF8001002EBC10125
:1038B000EBA203F0FDFC0BF18004DFF8A8830646C1
:1038C000E060D8F8000004F1800540210268E86A51
:1038D00090478146D8F800003F210268E86A904787
:1038E000C6E90E90282004F0B5FB32210091052393
:1038F0003A46DDA104F072FB0790382004F0AAFBE1
:10390000412105220097CDE901215A46DFF848936D
:10391000127809F1100909EB8211091D0623D0A2C2
:1039200003F022F847F6FF720021206102F0EEFF5B
:10393000302004F08FFB412100915A233A46CEA15A
:1039400002F00AFECE496061416201F0BFF9282011
:1039500004F080FBB14973230A228DE80E004B234B
:103960006822C8A104F09AFA0646282004F072FBE7
:103970000A233246C6A1CDF800A004F02FFB089020
:10398000282004F067FB232100910A233246C1A1BD
:1039900004F024FB0990382004F05CFB51464FF002
:1039A000280A0096CDE901A15A460623127809EBB0
:1039B0008211891DAAA202F0D7FFA061382004F06D
:1039C00049FB23210096CDE901A15A46062312782E
:1039D00009EB82110831A2A202F0C6FFE0618F4814
:1039E000039903F066F98D48049903F062F98B4856
:1039F000059903F05EF93946884803F05AF987487B
:103A0000069903F056F98548E16803F052F98348B6
:103A1000079903F04EF98148216903F04AF97F487C
:103A2000616903F046F97D48A96903F042F97B48D2
:103A3000E96903F03EF97948296A03F03AF97748D1
:103A4000A96A03F036F90021286A03F0AAF873483E
:103A5000696A03F02EF93146704803F02AF96F487D
:103A6000089903F026F96D48099903F022F96B488B
:103A7000A16903F01EF96948E16903F01AF9D8F861
:103A800000000169E86A884780072BD5282004F0E8
:103A9000E1FA32270A2332467FA1009704F09EFA0A
:103AA0000546382004F0D6FACDE9006A02979BF863
:103AB0000020062309EB82110A3169A202F054FFAB
:103AC00020622946554803F0F4F85448216A03F06F
:103AD000F0F847F6FF720021206A02F017FFA16993
:103AE0006E48486247F6FF752A460021A06902F039
:103AF0000DFF2A460021E06902F008FFD8F8000017
:103B000001696748C06A8847C0077DD0282004F053
:103B1000A1FA424973237D228DE80E004B23B42283
:103B200060A104F0BBF90546282004F093FA0E26A4
:103B30000A232A465FA1009604F050FA0390282039
:103B400004F088FA50232A465AA1009604F046FA57
:103B50008246382004F07EFA0A22CDE900524FF066
:103B60001908CDF808809BF800104E4609EB81112A
:103B70005F460C31042351A202F0F6FE6062382049
:103B800004F068FA5022CDE90052CDF80880397867
:103B9000042306EB81110E3148A202F0E5FEA0627B
:103BA000282004F057FA4FF02C080A232A4638A19F
:103BB000CDF8008004F012FA8146282004F04AFA79
:103BC00050232A4633A1CDF8008004F007FA80463E
:103BD000382004F03FFA0A22CDE900524FF0370BAB
:103BE000CDF808B03978062306EB811110311CA2FC
:103BF00002F0BAFEE062382004F02CFA5022CDE93F
:103C00000052CDF808B000E09CE03978062306EBBE
:103C10008111123112A202F0A7FE51E0C8E3002088
:103C2000537065656420636F6E74726F6C6C65723F
:103C30000000000053657420706F696E740000000E
:103C400072706D006D73000054617267657420734B
:103C5000706565640000000068E6002004DF002055
:103C600025366400F4FF002052616D702064757287
:103C70006174696F6E0000004578656300000000A4
:103C8000415C0708504944204761696E7300000099
:103C90004B5000004B4900004B440000B95107084D
:103CA00004E00020466C757820776C2E2074756EC9
:103CB000696E67004255538000000000253464009F
:103CC00020632946254802F0F4FF2448039902F0B6
:103CD000F0FF5146214802F0ECFF2048616A02F0F3
:103CE000E8FF1E48A16A02F0E4FF0021A06A02F08A
:103CF00058FF4946194802F0DCFF4146174802F0D8
:103D0000D8FF1648E16A02F0D4FF1448216B02F094
:103D1000D0FF4FF47A720021606A02F0F7FD47F697
:103D2000FF752A460021E06A02F0F0FD2A460021D4
:103D3000206B02F0EBFD616A09484862E16A486263
:103D4000216B4862A16906484862E16948620BB08C
:103D50000248BDE8F04F03F040B80000C8E300207F
:103D6000B95107082DE9F04F8BB0282004F072F903
:103D700000210B460091FE4AFEA104F02FF90390AA
:103D8000282004F067F987210091E623F84AFEA174
:103D900004F024F90490282004F05CF90A23DFF8E9
:103DA000D083CDE900834FF0140ACDF808A05A2340
:103DB0009122F7A104F072F80746282004F04AF98E
:103DC0000F21009105233A46F4A104F007F9F54CC0
:103DD0006063382004F03EF91E2105220097CDE9EA
:103DE0000121A4F1800508F502762978062306EB67
:103DF00081111431ECA202F0B7FDA063282004F079
:103E000029F90F21009150233A46E8A104F0E6F881
:103E10000590382004F01EF91E2150220097CDE9AC
:103E200001212978062306EB81111631DEA202F06A
:103E30009BFDE063282004F00DF932210091052359
:103E40003A46DBA104F0CAF82064382004F002F9F5
:103E5000412105220097CDE901212978062306EBAF
:103E600081111831D0A202F07FFD6064282004F097
:103E7000F1F83221009150233A46CFA104F0AEF878
:103E80000690382004F0E6F8412150220097CDE951
:103E900001212978062306EB81111A31C2A202F012
:103EA00063FDA064282004F0D5F8844673200A221C
:103EB000CDF80080CDE901204B236822BFA16046E8
:103EC00003F0ECFF8146282004F0C4F80A234A4698
:103ED000BEA1CDF800A004F081F80790382004F0CE
:103EE000B9F84FF0280BCDE9009B8446CDF808A027
:103EF0002878062306EB80111C31ABA2604602F045
:103F000033FDE064282004F0A5F8232100910A2362
:103F10004A46AFA104F062F80890382004F09AF8FD
:103F20002321CDF80090CDE901B1844628780623FD
:103F300006EB80111E319CA2604602F015FD206543
:103F4000282004F087F8844673207822CDF800807A
:103F5000CDE901204B2368229EA1604603F09EFF1D
:103F60008046282004F076F80A23424697A1CDF82F
:103F700000A004F033F80990382004F06BF8CDE984
:103F8000008B8446CDF808A02878062306EB801124
:103F9000223185A2604602F0E7FCE065282004F0AB
:103FA00059F8232100910A23424689A104F016F80A
:103FB0000A90382004F04EF82321CDF80080CDE996
:103FC00001B184462878062306EB8011243176A2BD
:103FD000604602F0C9FC2066302004F03BF87321F3
:103FE0000091E623624A7FA103F088F8E06638205A
:103FF00004F030F896210091E6235D4A7B4903F0F6
:1040000001FF206700F062FE5948039902F051FE5B
:104010005748049902F04DFE3946554802F049FED2
:104020005348616B02F045FE5148A16B02F041FE1E
:104030004F48059902F03DFE4D48E16B02F039FE14
:104040000021E06B02F0ADFD4948216C02F031FE29
:104050004748616C02F02DFE4548069902F029FEA2
:104060004348A16C02F025FE0021A06C02F099FDEE
:1040700004F1800081693E4802F01BFE04F18000DB
:10408000C1693B4802F015FE04F18000016A38481E
:1040900002F00FFE04F18000816A354802F009FE4B
:1040A00004F180000021006A02F07BFD04F1800031
:1040B000416A2F4802F0FDFD287800EB400106F12F
:1040C000800000EB810049460779294802F0F1FDA4
:1040D0002748079902F0EDFD2548E16C02F0E9FD63
:1040E0002348089902F0E5FD2148216D02F0E1FD29
:1040F000E16C3F484862216D3E4848623E48006896
:10410000016904F18000C06A884740072DD5282046
:1041100003F0A0FF4FF0320A0A234A4637A1CDF838
:1041200000A003F05BFF6065382003F093FFCDE94A
:10413000009BCDF808A02978062306EB81112031D9
:1041400019A202F011FCA0650948616D02F0B1FDF1
:104150000748A16D02F0ADFD47F6FF720021A06D8A
:1041600002F0D4FBA16D2648486247F6FF7A49E089
:1041700070E4002043757272656E7420636F6E7414
:10418000726F6C6C65727300496E7075740000001C
:1041900053657420706F696E7473000049712072EA
:1041A00065662E0084DF002025366400497100001A
:1041B0004964207265662E004964000049712050F0
:1041C0004944204761696E73000000004B500000B5
:1041D0004B490000496420504944204761696E738F
:1041E000000000004C696E6B0000000074B6070808
:1041F00035530708F1520708F4FF00204B44000034
:10420000A952070852460021E06C02F07FFB52469B
:104210000021206D02F07AFB41465D4802F049FD25
:104220005B48099902F045FD5948E16D02F041FDF6
:1042300057480A9902F03DFD5548216E02F039FDBC
:104240005448006801695448C06A8847DFF84C91B7
:10425000000733D5282003F0FDFE32210A23424611
:104260000091AFF2680103F0B9FE6066382003F0F8
:10427000F1FE3221CDF80080CDE901B1297806EBBD
:10428000811126310623AFF2E00202F06DFBA06639
:104290003F48616E02F00DFD3D48A16E02F009FD40
:1042A00052460021A06E02F031FB002F55D00021B4
:1042B000A06E02F076FCA16EC1F8249056465246DC
:1042C0000021E06D02F022FB32460021206E02F058
:1042D0001DFB2F48E16E02F0ECFC2D48216F02F02F
:1042E000E8FCA84628782E4D00EB400005EB800046
:1042F000C178206F03F04BFC01F03AFDE66E726A64
:104300002AB196F8210010B139463046904786F818
:104310002C7027B30021E06D02F043FC0FB30021A5
:10432000206E02F03EFC216F1E484862E16E1E487E
:104330004862A06B1D494162626C1D495162E26D89
:10434000C2F82490226EC2F8249098F8001001EB75
:10435000410115F8211031B114E00121A8E7012134
:10436000D9E70121DCE7002102F01BFC09480068C5
:1043700001690948C06A8847800603D40021606C3F
:1043800002F00FFC0BB00248BDE8F04F02F025BD73
:1043900070E40020F4FF002004E00020B951070879
:1043A000F8E600205D620708F9510708E95607089A
:1043B000555507082DE9F04FFF48DFF8008487B016
:1043C000006800250169D8F82C00884706460920B6
:1043D0000024B0EB167F09D1282003F03BFE002318
:1043E000F74AF8A1009403F0F9FD0546C6F303600F
:1043F000092809D1282003F02DFE0023F04AF8A156
:10440000009403F0EBFD054670064FF028000AD536
:1044100003F020FEEA4914230A228DE80E005A23F5
:104420009122F8A109E003F015FEE54914230A22C0
:104430008DE80E005A239122F5A103F02FFD0446CA
:10444000282003F007FE0F21009105232246F1A149
:1044500003F0C4FD0390382003F0FCFD1E2105226B
:104460000094DFF8B8B3CDE90121DFF8AC939BF8F5
:104470000020062309EB82112831E9A202F074FA28
:104480000BF1800A5746CAF87400282003F0E2FDB9
:104490000F21009150232246E2A103F09FFD0490DA
:1044A000382003F0D7FD1E2250210094CDE90112DF
:1044B0009BF80020062309EB82112A31D8A202F0D2
:1044C00053FAB86700F002FC2946BD4802F0F1FB40
:1044D0002146BB4802F0EDFBB948039902F0E9FB25
:1044E000B748796F02F0E5FBB548049902F0E1FBAB
:1044F000B348B96F02F0DDFB70065BD5282003F0EE
:10450000A9FD3221009105232246C7A103F066FDD3
:104510000390382003F09EFD0521CDE9004141279D
:1045200002979BF80020062309EB82113031BCA2D0
:1045300002F01AFA554647F6FF720021CAF87C00CD
:1045400002F0E4F9282003F085FD32210091502388
:104550002246B7A103F042FD0490382003F07AFD13
:104560005021CDE9004102979BF80020062309EB7A
:1045700082113231AAA202F0F7F9444647F6FF72DF
:104580000021C8F8000002F0C1F98D48039902F03B
:1045900090FB8B48E96F02F08CFB8948049902F08C
:1045A00088FB8748216802F084FBE96FA2484862D3
:1045B0002168486244468248D8F8181002F079FB16
:1045C0007F48E16902F075FB7D48216A02F071FBCA
:1045D0007B48A16A02F06DFB0021206A02F0E1FA3B
:1045E0007748616A02F065FB0920B0EB167F7DD148
:1045F000282003F02FFD724973230A228DE80E0054
:104600004B2340F227128DA103F048FC05462820D9
:1046100003F020FD4FF014080A232A468BA1CDF8A1
:10462000008003F0DBFC0390382003F013FD5022E0
:10463000CDE90052CDF808809BF800104E4609EBFA
:1046400081115F463431062375A202F08DF947F6D9
:10465000FF720021606002F059F9282003F0FAFC93
:104660004FF023090A232A467BA1CDF8009003F0DE
:10467000B5FC8346382003F0EDFC5022CDE9005212
:10468000CDF808903978062306EB8111363164A203
:1046900002F06AF9A060282003F0DCFC32210091CE
:1046A0000A232A466EA103F099FC0490382003F0F7
:1046B000D1FC322150220095CDE901213978062321
:1046C00006EB8111383156A202F04EF9E060282045
:1046D00003F0C0FCB4232A4663A1CDF8008003F0A8
:1046E0007DFC0590382003F0B5FC00E0D9E0E6221F
:1046F000CDE90052CDF808803978032306EB81110B
:104700003A315BA202F030F920612B482221006887
:104710000268E06A9047421E0021206902F0F6F824
:10472000282003F097FC8C232A4652A1CDF8008064
:1047300003F054FC0190282003F08CFC8C232A46C3
:104740004DA1CDF8009003F049FC3978804606EB86
:10475000811090F83A20E06A00F00EFE2169474887
:104760004862616846484862A16846484862E16814
:10477000454848621248019902F09BFA41461048A8
:1047800002F097FA29460E4802F093FA0C48039972
:1047900002F08FFA0A48616802F08BFA594608481D
:1047A00002F087FA0648A16802F083FA04480499E7
:1047B00002F07FFA024869E0F4FF002004E00020E4
:1047C00018E5002053656E736F726C657373207407
:1047D000756E696E672053544F202620504C4C0054
:1047E00053656E736F726C6573732074756E696E4A
:1047F000672053544F202620504C4C202841757878
:104800002900000053544F202620504C4C0000003B
:1048100053544F004731000078E6002004DF0020A9
:104820002536640047320000504C4C204B500000AD
:10483000504C4C204B490000B95107085265762076
:1048400075702074756E696E670000004475726142
:1048500074696F6E00000000456E64207370640020
:10486000456E642049710000537461676500000063
:10487000253364006D73000072706D00616107087C
:10488000356207088D620708B5620708E16802F023
:1048900010FA0A48059902F00CFA0848216902F05A
:1048A00008FADAF8742006485062DAF8781048629C
:1048B00007B00248BDE8F04F02F08FBA18E50020BB
:1048C000B95107082DE9F04FD14887B0002400689E
:1048D0000169D048C06A884706460A250027B5EB1B
:1048E000167F09D1282003F0B5FB0023CA4ACBA1CB
:1048F000009703F073FB0446C6F303600A2809D14E
:10490000282003F0A7FB0023C34ACCA1009703F0A3
:1049100065FB0446282003F09DFBBF4BCDE9003525
:1049200014210291AA465A239122CEA103F0B6FA8D
:104930000546282003F08EFB4FF00F0805232A467A
:10494000C9A1CDF8008003F049FB8146382003F06F
:1049500081FB1E2105220095CDE90121C349DFF825
:10496000B8B2062309780BF1B80B0BEB81112C318F
:10497000BFA201F0F9FFA74F803F7867282003F01E
:1049800069FB50232A46BBA1CDF8008003F026FB2B
:104990008046382003F05EFB1E2150220095CDE9B1
:1049A0000121B2490623B2A209780BEB81112E3105
:1049B00001F0DAFFB86700F089F92146964802F065
:1049C00078F92946944802F074F94946924802F071
:1049D00070F99148796F02F06CF941468E4802F007
:1049E00068F98D48B96F02F064F98A4C8A48A16968
:1049F00002F05FF98848E16902F05BF98648216AB4
:104A000002F057F98448A16A02F053F90021206AA4
:104A100002F0C7F88048616A02F04BF9BAEB167FE2
:104A20007ED1282003F016FB7B4900917323CDE94A
:104A300001A34B2340F227128FA103F02FFA054662
:104A4000282003F007FB4FF014080A232A468EA102
:104A5000CDF8008003F0C2FA0390382003F0FAFA90
:104A60004FF05009CDE90059803FCDF808803978E2
:104A70005E460BEB8111343106237DA201F074FFF9
:104A800047F6FF720021606001F040FF282003F02C
:104A9000E1FA4FF0230A0A232A467EA1CDF800A0AE
:104AA00003F09CFA0490382003F0D4FA8DE8200635
:104AB0003978062306EB811136316DA201F054FFDF
:104AC000A060282003F0C6FA4FF0320B0A232A46D2
:104AD00072A1CDF800B003F081FA0590382003F000
:104AE000B9FA8DE8200A3978062306EB81113831AE
:104AF0005FA201F039FFE060282003F0ABFAB42395
:104B00002A4668A1CDF8008003F068FA8346382071
:104B100003F0A0FAE622CDE90052CDF8088000E0CB
:104B200069E03978032306EB81113A315FA201F085
:104B30001BFF20613648222100680268E06A904726
:104B4000421E0021206901F0E1FE282003F082FAD4
:104B50008C232A4656A1CDF8008003F03FFA814607
:104B6000282003F077FA8C232A4652A1CDF800A022
:104B700003F034FA3978804606EB811090F83A2039
:104B8000E06A00F0F9FB21694B48486260684B49D4
:104B90004162A0684A494162E0684A494162494627
:104BA0001D4802F086F841461B4802F082F829466B
:104BB000194802F07EF81848039902F07AF816486E
:104BC000616802F076F81448049902F072F812480D
:104BD000A16802F06EF81048059902F06AF80E48D4
:104BE000E16802F066F859460B4802F062F80A489C
:104BF000216902F05EF8074833498038426F5162FC
:104C0000806F416207B00448BDE8F04F02F0E5B89C
:104C1000F4FF002004E00020C0E5002053656E731F
:104C20006F726C6573732074756E696E6720535470
:104C30004F202620434F52444943000053656E7372
:104C40006F726C6573732074756E696E6720535450
:104C50004F202620434F524449432028417578294C
:104C60000000000053544F004731000004DF0020D3
:104C70002536640047320000526576207570207436
:104C8000756E696E670000004475726174696F6EBD
:104C900000000000456E642073706400456E64205F
:104CA000497100005374616765000000253364009A
:104CB0006D73000072706D0061610708356207084E
:104CC0008D620708B5620708B95107083EB528206C
:104CD00003F0C0F9A0232249CDE900131422029267
:104CE0005A2391221FA103F0D9F8204CA06128205B
:104CF00003F0B0F90F21009105231DA1A26903F073
:104D00006DF9E061402003F0A5F9A2690521CDE924
:104D100000211E25A4F580720295194912780623F8
:104D200001EBC201091D17A202F0C2FA2062302075
:104D300003F090F941210091052313A1A26901F02C
:104D40000BFC6062282003F085F900953C2311A13B
:104D5000A26903F043F9A062616A0F4848623EBD50
:104D6000E4E000204D6F6E69746F720004E0002073
:104D70004D656173757265642073706565640000CC
:104D800068E600202536640053746172742F5374F2
:104D90006F70000072706D00B150070870B5314936
:104DA0000024096809698847010E0E074FF00901C0
:104DB0004FF00A024FF002034FF001050ED0B1EBA5
:104DC000107F03D1C0F303660A2E17D0B2EB107F19
:104DD00015D1C0F30366092E10D010E0B1EB107F9F
:104DE00000D10124B2EB107F00D10224B5EB107F7B
:104DF00002D0B3EB107F33D1032431E00624B1EBB2
:104E0000107F05D1C0F3036102290BD0012909D01D
:104E1000C0F30361092906D1B3EB107F02D0B5EBD3
:104E2000107F00D10424B2EB107F05D1C0F30361E1
:104E300002290BD0012909D0C0F303610A2906D148
:104E4000B3EB107F02D0B5EB107F00D105240B210E
:104E5000B1EB107F04D1C0F30360092800D107240F
:104E6000204670BDF4FF002010B5324801F083FFEA
:104E70003048A83001F07FFF2F4801F07CFF2E481A
:104E8000A83001F078FF2D4801F075FF2B48A830BD
:104E900001F071FF2A4801F06EFF2A490020C86026
:104EA000086148618861C861086248628862C862B6
:104EB000086348638863C863086448648864C86496
:104EC000086548658865C865086648668866C86676
:104ED000086748678867C8678031086048608860ED
:104EE000C860086148618861C86108624862886278
:104EF000C862086348638863C86308644864886458
:104F0000C864086548658865C86508664866886637
:104F1000C866086748678867C86780310860486066
:104F20008860C860086148618861C8610862486239
:104F3000886210BDD0E1002020E3002070E4002052
:104F4000C0E5002004DF002010B5074807490278BB
:104F50000748521CFBF7B2F90549BDE8104001F1C2
:104F6000200002F00CBA000004DF0020A4B60708FD
:104F7000A0E00020034807210068C2680248C06A18
:104F800010470000F4FF002004E0002010B50C469C
:104F9000FFF76AFF072C23D2DFE804F004070A17A3
:104FA0001A1D2000FDF7F4FC04E0FDF7D7FD01E039
:104FB000FEF7AAF80C4B986801F090F99968BDE8E3
:104FC00010400144094802F0DAB9FEF721FC07E07D
:104FD000FEF7C8FE04E0FFF7EDF901E0FFF772FC11
:104FE000BDE81040FFF7B0BF04DF0020C0E00020A4
:104FF0002DE9F047814617480E46144FDFF85080E0
:10500000002400EB8615395D5D2908D0D8F8000032
:10501000026848469047411C01D025F81400641CE2
:10502000E4B2202CEFD3D8F80000042102684846EF
:1050300090470849103941F8360095F83A20314632
:105040004846BDE8F04700F097B9000080B6070871
:10505000F4FF002078E6002070B5134C134D0021BA
:1050600020680268E86A9047C6B2206800221146AC
:105070008368E86A984720680621C268E86A904712
:105080002068012200218368E86A98472068062189
:10509000C268E86A90472068324600218368E86A5F
:1050A000BDE8704018470000F4FF002004E0002035
:1050B0002DE9F05F3A4A3B4F3B4E1178A7F1800C47
:1050C00001EB4105336817F8258002F580740CEB7D
:1050D0008110B8F1000F06D007EB8501C97859B1EE
:1050E000012955D10EE082882E485B68903850F82F
:1050F0003110E06A98474BE0B0F91820B0F914106D
:105100001B6A43E0E3469246B0F93E0003F0FFFF1E
:10511000264A274B04F026F80022264B03F070FEA7
:1051200003F0D2FC0F469AF8001005460BEB8119EC
:10513000B9F93C0003F0EBFF2A463B4604F012F8B5
:1051400003F0B6FF0FFA80F8B9F93E0003F0DFFF75
:10515000164A174B04F006F80022164B03F050FED7
:1051600003F01AFD0F469AF8001005460BEB81106C
:10517000B0F93C0003F0CBFF2A463B4603F0F2FFB8
:1051800003F096FF01B230684246036AE06A98472E
:1051900030680621C268E06ABDE8F05F1047000091
:1051A00004DF0020F8E60020F4FF00201F85EB510B
:1051B000B81E0940008066400B4B0A4609491B781F
:1051C000008D01EB8311401AC0F347010748415C91
:1051D0005D2905D00648006883680648C06A1847FC
:1051E0007047000078E6002004DF002080B6070842
:1051F000F4FF002004E000202DE9F041284E11F0DA
:10520000FF052849307800EB400001EB8000057174
:1052100040D00021224C8034E06D01F0C2FCC5B3C7
:105220000021206E01F0BDFCFDB11E4F3078803FA3
:1052300007EB8010B0F91C104184C28B8284028C71
:10524000C284E06D01F046FA307807EB8010B0F9C7
:105250002410206E01F03EFAA06E30B1317807EBD9
:105260008111B1F9261001F035FAE06D012680F8C0
:105270002060206E80F82060A06E002807D06DB1FD
:105280005FF0000101F08DFCA06E80F82060BDE8A9
:10529000F08101E00121BDE70121C2E70121F1E731
:1052A00004DF0020F8E6002070B50D46FFF784FF0C
:1052B0000D480E4A017801EB410002EB80000079B5
:1052C00000280FD0084C8034A06E00280AD0803A05
:1052D00002EB8111CD84294601F022FAA06E012152
:1052E00080F8201070BD000004DF0020F8E60020E8
:1052F00010B50C46FFF760FF0C480D4A007800EB34
:10530000400102EB8101097900290ED0A2F1800150
:1053100001EB801021468484044C8034206E01F01F
:10532000FFF9206E012180F8201010BD04DF00205D
:10533000F8E6002010B50C46FFF73EFF0C480D4A7A
:10534000007800EB400102EB8101097900290ED0C1
:10535000A2F1800101EB801021464484044C80348A
:10536000E06D01F0DDF9E06D012180F8201010BD45
:1053700004DF0020F8E60020F8B51546094A02EBE4
:105380008114094904F1380200920968931E121F22
:105390008E692946B047E08E00EB40004000E08671
:1053A000F8BD000078E60020F4FF002038B515466F
:1053B000094A062302EB8112B2F9361091FBF3F190
:1053C0000BB2B2F9381000910449928E09684C6909
:1053D0002946A04738BD000078E60020F4FF0020F1
:1053E00070B50D4C0D4D002120680268E86A9047A9
:1053F000C6B22068002211468368E86A9847206890
:105400000721C268E86A9047206832460021836815
:10541000E86ABDE870401847F4FF002004E000206F
:1054200070B50D4C0D4D002120680268E86A904768
:10543000C6B22068012200218368E86A9847206884
:105440000721C268E86A90472068324600218368D5
:10545000E86ABDE870401847F4FF002004E000202F
:105460002DE9F041164A054610461649007802F526
:10547000807400EB400001EB80015369124E134F22
:10548000E06A9D420BD193F830504D70FFF786FCD7
:1054900056F820000021425D3868C3690BE092692C
:1054A00092F830508D70FFF779FC56F820000121FA
:1054B000425D3868C369206BBDE8F04118470000C1
:1054C00004DF0020F8E6002054B60708F4FF0020AF
:1054D000034808210068C2680248C06A10470000FB
:1054E000F4FF002004E000202DE9F041164C174D98
:1054F000002120680268E86A9047C6B2206800224E
:1055000011468368E86A9847114F2068A7F1100890
:10551000BA884368D8F80010E86A984720680122E2
:1055200000218368E86A98472068B7F84420D8F8D3
:1055300008104368E86A984720683246002183686B
:10554000E86ABDE8F0411847F4FF002004E00020BD
:1055500078E600202DE9F05F5D4C5E4ADFF878B117
:105560002078A2F1800500EB400102EB810304F5F5
:105570008076DB7805EB8010002B7DD0012B7CD171
:10558000B0F93E0003F0C3FD544A554B03F0EAFD69
:105590000022544B03F034FC03F096FA07462078BF
:1055A000884605EB8019B9F93C0003F0B0FD3A4696
:1055B000434603F0D7FD03F07BFD0FFA80FAB9F9FB
:1055C0003E0003F0A4FD454A454B03F0CBFD00220D
:1055D000444B03F015FC03F0DFFA074620788846B9
:1055E00005EB8010B0F93C0003F091FD3A464346CC
:1055F00003F0B8FD03F05CFD01B2DBF80000524699
:10560000036AF06A9847207805EB8010B0F93E00F5
:1056100003F07DFD314A324B03F0A4FD0022314BF3
:1056200003F0EEFB03F0B8FA06462078884605EB57
:105630008017B7F93C0003F06AFD3246434603F099
:1056400091FD03F035FDB882B7F93E0003F05FFD30
:10565000224A234B03F086FD0022224B03F0D0FBAD
:1056600003F032FA064620780F4605EB8014B4F9B1
:105670003C0003F04CFD01E009E006E032463B4609
:1056800003F070FD03F014FD2083BDE8F09F12F8D5
:105690002110114A136841B1B0F91820B0F9141063
:1056A0001B6AF06ABDE8F05F184719695F46F06A47
:1056B00088478006E9D52078412105EB8010B0F9B4
:1056C000182038688368F06ABDE8F05F184700006A
:1056D00004DF0020F8E60020F4FF00201F85EB51D6
:1056E000B81E0940008066402DE9F05F534D544AD2
:1056F000DFF850A12878A2F1800400EB400102EB12
:10570000810105F5807BC97804EB801000297CD0ED
:1057100001297BD1B0F93E0003F0F9FC4A4A4B4B1A
:1057200003F020FD00224A4B03F06AFB03F0CCF9A2
:10573000064628780F4604EB8018B8F93C0003F0C1
:10574000E6FC32463B4603F00DFD03F0B1FC0FFAD8
:1057500080F9B8F93E0003F0DAFC3B4A3B4B03F01A
:1057600001FD00223A4B03F04BFB03F015FA06460D
:1057700028780F4604EB8010B0F93C0003F0C7FC1A
:1057800032463B4603F0EEFC03F092FC01B2DAF83D
:1057900000004A46036ADBF82C009847287804EB9F
:1057A0008010B0F93E0003F0B2FC274A274B03F00B
:1057B000D9FC0022264B03F023FB03F0EDF906464B
:1057C0002878884604EB8017B7F93C0003F09FFC6B
:1057D0003246434603F0C6FC03F06AFCB882B7F9D0
:1057E0003E0003F094FC184A184B03F0BBFC002267
:1057F000174B03F005FB03F067F9064628780F46C0
:1058000004EB8014B4F93C0001E00BE008E003F085
:105810007EFC32463B4603F0A5FC03F049FC2083A6
:10582000BDE8F09FB0F91820B0F91410DAF80000C4
:10583000036ADBF82C00BDE8F05F184704DF0020A6
:10584000F8E60020F4FF00201F85EB51B81E094048
:10585000008066402DE9F84F3B4C3C4D002120680C
:105860000268E86A9047C0B20090206800221146A2
:105870008368E86A98473648A0F18006017821B12C
:10588000C07858B1012850D10FE03148B288903823
:10589000016820684368E86A984746E02068B6F9DE
:1058A0001820B6F91410036A3DE0B6F93E0003F083
:1058B0002EFCDFF8A0A0DFF8A0B052465B4603F054
:1058C00051FC0022254B03F09BFA03F0FDF807463C
:1058D0008846B6F93C0003F01AFC3A46434603F00A
:1058E00041FC03F0E5FB0FFA80F9B6F93E0003F046
:1058F0000EFC52465B4603F035FC0022174B03F0CA
:105900007FFA03F049F907468846B6F93C0003F0F0
:10591000FEFB3A46434603F025FC03F0C9FB01B207
:1059200020684A46036AE86A984720680621C268E8
:10593000E86A90472068009A00218368E86A01B00D
:10594000BDE8F04F18470000F4FF002004E00020FD
:10595000F8E600201F85EB51B81E09400080664024
:105960002DE9F84F3C4C3D4D002120680268E86A63
:105970009047C0B200902068012200218368E86A45
:1059800098473748A0F18006017B21B1C07B60B108
:10599000012853D111E03248B6F84420903881688C
:1059A00020684368E86A984748E054362068B6F9AA
:1059B0000420B6F90010036A3EE07C36B6F9020016
:1059C00003F0A5FBDFF89CA0DFF89CB052465B46D5
:1059D00003F0C8FB0022254B03F012FA03F074F821
:1059E00007468846B6F9000003F091FB3A46434665
:1059F00003F0B8FB03F05CFB0FFA80F9B6F9020084
:105A000003F085FB52465B4603F0ACFB0022174BCC
:105A100003F0F6F903F0C0F807468846B6F900002F
:105A200003F075FB3A46434603F09CFB03F040FB52
:105A300001B220684A46036AE86A9847206806214E
:105A4000C268E86A90472068009A00218368E86A83
:105A500001B0BDE8F04F1847F4FF002004E000203B
:105A6000F8E600201F85EB51B81E09400080664013
:105A70002DE9F05F454C464A2078A2F1800500EB05
:105A8000400102EB810105EB8010C97829B10129A1
:105A90004AD1B0F91410E9B34AE0A046B0F93E008B
:105AA00003F035FBDFF8EC90DFF8ECA04A465346F4
:105AB00003F058FBDFF8E4B000225B4603F0A0F9E6
:105AC00003F06AF8044698F800000F4605EB8016CC
:105AD000B6F93C0003F01BFB22463B4603F042FBB9
