:02000004080FE3
:10000000E8ED012085020F085D521A00C1020F08B9
:1000100091020F0893020F0895020F0800000000DC
:1000200000000000000000000000000097020F0820
:1000300099020F08000000009B020F089D020F08A4
:100040009F020F089F020F089F020F089F020F08D0
:100050009F020F089F020F089F020F089F020F08C0
:100060009F020F089F020F089F020F089F020F08B0
:100070009F020F089F020F089F020F089F020F08A0
:100080009F020F089F020F089F020F089F020F0890
:100090009F020F089F020F089F020F089F020F0880
:1000A0009F020F089F020F089F020F089F020F0870
:1000B0009F020F089F020F089F020F089F020F0860
:1000C0009F020F089F020F089F020F089F020F0850
:1000D0009F020F089F020F089F020F089F020F0840
:1000E0009F020F089F020F089F020F089F020F0830
:1000F0009F020F089F020F089F020F089F020F0820
:100100009F020F089F020F089F020F089F020F080F
:100110009F020F089F020F089F020F089F020F08FF
:100120009F020F089F020F089F020F089F020F08EF
:100130009F020F089F020F089F020F089F020F08DF
:100140009F020F089F020F089F020F089F020F08CF
:100150009F020F089F020F089F020F089F020F08BF
:100160009F020F089F020F089F020F089F020F08AF
:100170009F020F089F020F089F020F089F020F089F
:100180009F020F089F020F0800F002F800F06AF8C3
:100190000AA090E8000C82448344AAF10107DA45E2
:1001A00001D100F05FF8AFF2090EBAE80F0013F0CA
:1001B000010F18BFFB1A43F0010318479CC1000050
:1001C000BCC10000103A24BF78C878C1FAD85207E1
:1001D00024BF30C830C144BF04680C6070470000C1
:1001E0000023002400250026103A28BF78C1FBD840
:1001F000520728BF30C148BF0B607047692900F023
:100200000381642900F00081752900F0FD806F29C9
:1002100000F09481782900F0BD810368DB0928BFD4
:1002200041F08001632900F0F283E32900F00584A6
:10023000002070471FB508F021F99DE8030000F089
:100240005DFC00F0E9FC04000020002107F0A6FCA2
:10025000401C606000F0DCFA1FBD10B5002006F005
:10026000A9FD10BD00F0B2FC1146FFF7E3FF07F057
:1002700083FC00F0EFFC03B4FFF7EFFF03BC00F0DA
:100280009FFC00000948804709480047FEE7FEE759
:10029000FEE7FEE7FEE7FEE7FEE7FEE7FEE7FEE736
:1002A00004480549054A044B7047000045260F08DD
:1002B00089010F0810E70120E8ED0120E8ED012099
:1002C00000B5FFB441464A4653465C4665463EB4D7
:1002D0000D496A460A600D4908600D4988473EBCD1
:1002E000884691469A46A346AC46FFBC00BD0648E8
:1002F00001688D463EBC884691469A46A346AC4668
:10030000FFBC044800BD0000F0FF0120F4FF012005
:1003100091010F086CBC0F080FB41CB5074B06AA5F
:100320007B4469460090059800F04FFB0020694629
:1003300000F05EFB1CBC5DF814FB0000CD06000065
:1003400070B5044685690068C10601D5302600E015
:100350002026C00708D070BDD4E90121304690475F
:10036000206A00F1010020626D1EF5D570BD70B5E8
:10037000044685690078C00708D170BDD4E9012121
:1003800020209047206A00F1010020626D1EF5D503
:1003900070BD09684A0501D540B27047C905FCD552
:1003A00000B2704709684A0501D5C0B27047C90557
:1003B000FCD580B2704770B50C460546012A05D0C1
:1003C0002878800600D5EA69002302E0012305E0D1
:1003D0005B1C934202D2E05C0028F9D1A869E618C0
:1003E000C01AA861286A184428622846FFF7A8FFA7
:1003F00004E0D5E9012114F8010B9047B442F8D389
:100400002846FFF7B4FF70BD2DE9F04106460024F1
:1004100010687529314616A511D0FFF7BAFF0028DC
:1004200003DAC0F1000013A507E031688A0701D59F
:1004300011A502E0490704D510A5012401E0FFF74A
:10044000B1FF00210A2306F1240707E0B0FBF3F215
:1004500003FB1200303078541046491C0028F5D1B7
:1004600023462A463046BDE8F04100F04CBA000071
:10047000000000002D0000002B0000002000000004
:100480002DE9FF5F15468A460446DFF8AC80F84444
:100490000027D8E900103E46CDE9001011E03AF8F7
:1004A00016106A4602A800F0D4FA411C07D0217841
:1004B000890603D5E269391891420ED8074406F13E
:1004C00001062078800602D5E069B84205DDAE421B
:1004D000E5DB3AF816000028E1D1A069C01BA06155
:1004E0002046FFF72DFFD8E90010CDE900100020CD
:1004F00016E03AF818106A4602A800F0AAFA8146F7
:10050000401C0BD000250DF1080B05E0D4E90121BA
:100510001BF8050090476D1C4D45F7D308F101000D
:10052000B0428046E5DB206A384420622046FFF76F
:100530001EFFBDE8FF9F0000EAB7000070B504464B
:1005400021461068FFF72EFF002104F1240508E082
:1005500000F0070202F130026A5401F101014FEA92
:10056000D0000028F4D10346206808A2050708D56A
:1005700000F02000084304D0E069012304A2401EDB
:10058000E0612046BDE8704000F0BDB90000000009
:100590003000000070B504460D4621461068FFF794
:1005A00001FF2188090502D5104A7A4402E00F4A6A
:1005B0007A440E32002104F1240307E000F00F0614
:1005C0004FEA1010965D5E5401F101010028F5D14B
:1005D00003462078000704D5702D02D009B11132EE
:1005E00002232046BDE8704000F08DB9D6B6000069
:1005F0002DE9F05F894604464FF0000ADFF878B134
:10060000FB44C0F820A02046E1688847002875D048
:10061000252806D0D4E901219047206A401C206299
:10062000F1E700265F462046E16888472028054616
:1006300008DB312D06D207EB050010F8200C08B1BD
:100640000643F0E7B00701D526F00406C4F81CA065
:100650000027C4F818A02A2D09D0284607F066FA0A
:1006600038B304EB8708303DC8F8185019E059F842
:10067000041B204604EB87029161E1688847012F43
:10068000054618D1E069002820DA26F020061DE092
:10069000D8F8180000EB800005EB40003038C8F8AF
:1006A00018002046E1688847054607F03FFA002811
:1006B000EED1012F0AD02E2D08D12046E1688847BF
:1006C0007F1C0546022F46F02006C4DBA0690028E7
:1006D00003DA404246F00106A061F00701D026F09F
:1006E00010066C2D0BD0682D09D04C2D39D06A2DF9
:1006F00035D0742D35D07A2D33D016E038E0E1684E
:100700002F4620468847B842054609D16C2F26D08F
:100710004FF48060E168064320468847054604E0C0
:100720006C2F1AD04FF4807006430DB3A5F1410031
:10073000192802D8203546F400664A462946204644
:1007400026604E46FFF75AFD80B101280BD0F61DFA
:1007500026F0070000F1080955E74020E4E7802073
:10076000D8E70020D6E706F104094CE7284651E710
:10077000206ABDE8F09F0000A8B6000010B5431C39
:1007800002E010F8011B71B18107FAD14FF001327C
:1007900002C88C1A8C4314EAC211F9D0C01A0A0696
:1007A00003D0C01E10BDC01A10BD0A0401D0801EA7
:1007B00010BD0902FCD0401E10BD4FF0000200B574
:1007C000134694469646203922BFA0E80C50A0E874
:1007D0000C50B1F12001BFF4F7AF090728BFA0E822
:1007E0000C5048BF0CC05DF804EB890028BF40F8EE
:1007F000042B08BF704748BF20F8022B11F0804F30
:1008000018BF00F8012B7047704770477047000011
:1008100070B5064C7C44064D7D4403E020682044BE
:100820008047241DAC42F9D170BD000070BC0000AF
:1008300070BC000000487047E0E6012000487047A7
:10084000E4E6012070B5064600F038F9056806F1C7
:100850000B0020F00704B4429CBF002070BD2B4663
:100860006A68BAB11068A04210D304F10801884246
:100870003CBF5068586007D3516810194160116837
:10088000091B016058601460101D70BD134652684A
:10089000002AE7D12146284600F01CF90028DED1C5
:1008A00070BD70B50446051F00F008F90068002C03
:1008B00014BF446870BD002C18BFAC423CBF20463A
:1008C0006468F8D301680A18AA4218BF456003D1CA
:1008D0002A6805461144016028684119A1421CBFDD
:1008E0006C6070BD6168696021680844286070BDF3
:1008F00010B500F0E7F8006810BD10B5044600F030
:10090000E1F8046010BD2DE9F0470D469946924686
:10091000044600F124080168880604D5E06921F046
:100920001001216000E00120A84202DDA0EB0507D4
:1009300000E00027A16907EB050202EB0900A1EB2B
:100940000000A0612078C00602D42046FFF7F8FC22
:10095000002608E0D4E901211AF806009047206A31
:10096000401C761C20624E45F4DB2078C0060AD578
:100970002046FFF7E5FC06E0D4E90121302090474E
:10098000206A401C2062381EA7F10107F4DC07E052
:10099000D4E9012118F805009047206A401C206224
:1009A000281EA5F10105F3DC2046FFF7E0FC2078C6
:1009B000000602D50220BDE8F0870120FBE7000019
:1009C00001694A1C02610878704700B58FB0CDE913
:1009D00001310021059105497944CDE90310114603
:1009E0006846FFF705FE0FB000BD0000E5FFFFFF02
:1009F0000A6802F8010B0A60704710B5436913B129
:100A0000AFF3008001E0FFF7D6FC012010BD1278A3
:100A100000F124010A7000224A700122EDE71168FA
:100A20004FF0FF32E9E710B5436913B1AFF300802F
:100A300001E0FFF725FD012010BD128800F124011F
:100A400082840022C2840122EDE711684FF0FF3258
:100A5000E9E770B516460C46054600F027F803682E
:100A600093F80101012806D0FF2C0FD8185D68B15A
:100A700001202C7070BDD3F8070132462146034493
:100A80002846BDE8704003F2071318474FF0FF30C7
:100A900070BD10B500F06EF8BDE8104000F064B80D
:100AA00000F080B800487047ACE6012010B500F0B7
:100AB000B3F8001D10BD00BFE5700000004870478E
:100AC000B4E6012000487047ACE60120704770474B
:100AD0007047704738B504460A4600206946AFF3B0
:100AE0000080002808BF38BD02460099204600F06B
:100AF00097F8012038BD012000F0D3B8F8B5AFF366
:100B00000080054600200C46102000BF0646A819AC
:100B1000A0420DD9324669460020AFF3008007009D
:100B200008BF00F0BEF80098A04218BF0546C419DF
:100B3000FFF7C4FF05600746F01D20F007004619C7
:100B4000284600F00AF8B44208BFF8BDA21B31469F
:100B50003868BDE8F84000F063B800210160C0E9E2
:100B60000110704710207047002801D000F028B80D
:100B70007047000010B5002102A000F079F80120B4
:100B800010BD00005349475056464E3A20507572EA
:100B900065207669727475616C20666E2063616C85
:100BA0006C65640010B500F086F8016919B1002287
:100BB0000261884701E08068804700F051F800003A
:100BC00001491820ABBEFEE7260002007546FFF77C
:100BD00069FFAE4605006946534620F0070085468A
:100BE00018B020B5FFF75CFBBDE820404FF00006D1
:100BF0004FF000074FF000084FF0000B21F0070105
:100C0000AC46ACE8C009ACE8C009ACE8C009ACE847
:100C1000C0098D467047000000487047CCE60120AF
:100C2000034640688C46002818BF88423CBF0346F4
:100C30004068F8D318681844884207D00CF10300C4
:100C400020F00700001D411A521A0146081D0A60D3
:100C5000FFF727BE0446AFF300802046FFF70BFBEB
:100C6000002000F059F8FFF7F8FA0120FFF7A8FF7D
:100C700070B505460C460A2000E06D1C00F040F8F7
:100C800035B128780028F8D102E0641C00F038F86B
:100C900014B120780028F8D1BDE870400A2000F097
:100CA0002FB810B500F040F8BDE81040FFF75CBF6A
:100CB00010B5FFF7D5FF70B500F02AF804680546B7
:100CC000A4B92020FFF7BEFD040011D0094900207F
:100CD0002C60C4E900010849A160207320616061B3
:100CE0000649A06109B100F087F8E061204670BDB7
:100CF000FFF7B6FF00000000B10C0F080000000075
:100D000008B569468DF800000320ABBE08BD7047EA
:100D100000487047E8E6012010B500F08BF8BDE808
:100D20001040FFF721BF000010B5012805D00021B9
:100D300003A0FFF79DFF012010BD09A1F8E7000007
:100D400053494752544D454D3A204F7574206F66B4
:100D50002068656170206D656D6F7279000000001C
:100D60003A2048656170206D656D6F727920636F00
:100D700072727570746564004FF0013C50F8042B7A
:100D800051F8043B9A4221D1A2EB0C03934313EA9E
:100D9000CC1317D150F8042B51F8043B9A4215D1CB
:100DA000A2EB0C03934313EACC130BD150F8042BA2
:100DB00051F8043B9A4209D1A2EB0C03934313EA86
:100DC000CC13DBD04FF00000704700BFD01A01BA3F
:100DD000B1FA81F101F0180122FA01F0CB40C1F122
:100DE0002001DBB2C0B2C01A2CFA01F3D11A914330
:100DF00011EAC311E6D1704710B58820FFF722FD34
:100E0000002801D00021017010BD802902D808B14E
:100E1000017809B100207047012100F8081B7047D4
:100E200018B100F10802914201D000207047002162
:100E30000170704710B5002102A0FFF719FF0120D3
:100E400010BD0000534947414252543A2041626E5E
:100E50006F726D616C207465726D696E6174696F1B
:100E60006E00000030B51A498379026853B30B68ED
:100E700093430B600A1D13680468A343136002794F
:100E80000A441368046823431360114A0832136844
:100E90000468A3431360131D1C680568AC431C6001
:100EA0004479102C05D021440A68006802430A6086
:100EB00030BD11680468214311601968006801435E
:100EC000196030BD0079084401689143016030BD6C
:100ED000003C0140F0B50023012403270D6804FA0B
:100EE00003F21540954242D1D0F800C05E0007FAE7
:100EF00006F52CEA050CC0F800C091F804C0D0F843
:100F000000E00CFA06FC4CEA0E0CC0F800C091F8A8
:100F100004C0BCF1010F02D0BCF1020F1FD1D0F808
:100F200008C02CEA050CC0F808C091F805C0D0F83C
:100F300008E00CFA06FC4CEA0E0CC0F808C0D0F829
:100F400004C02CEA020CC0F804C0426891F806C044
:100F50000CFA03FC1FFA8CFC42EA0C024260C268E5
:100F6000AA43C260CA79C568B2402A43C2605B1C0A
:100F7000102BB3D3F0BD4B07DB0E9A40C90810B558
:100F800000EB8100016A0F249C40A1430162016AC9
:100F90001143016210BD0246002012690A4200D0CE
:100FA000012070470AB101837047418370470000F8
:100FB0002DE9F05F5B4CDFF870A18346C4E91601B0
:100FC000DAF8000016465746016958468847054634
:100FD0003146564804F0E4FF304603F0D7FF81194C
:100FE000524805F024F85249504805F08DF8504910
:100FF0004E48A83105F088F84E494C4805F084F871
:101000004C494A48A83105F07FF84B49474805F05C
:101010007BF849494548A83105F076F8A4F18000ED
:1010200000260670386803210268A06D9047C0B2A0
:10103000424F4FF00109012824D087F80090002189
:101040003C4804F037FC7E7087F80290E06DB046B3
:1010500038B3DAF800105646A1460A681C219047BA
:10106000C4B230681D210268D9F85C009047C6B24E
:10107000D9F8580003F048F9314A0146002052F8E7
:1010800021100BE03E700121DAE7A24200D1787016
:101090000A5CB24200D1B870401CC0B20A5CFF2AA0
:1010A000F3D187F8038087F8048087F8058087F8F4
:1010B000068087F8078087F8088087F8098087F816
:1010C0000A8087F80B80584600F060F817491D48E1
:1010D000C1F80C010021154804F084FF0920B0EB91
:1010E000157F1AD0C5F30360092816D000211248D5
:1010F00004F0E0FB0A20B0EB157F10D0C5F30360CD
:101100000A280CD000210C48A83004F0D3FBBDE81D
:10111000F05F0021022001F0D5B90121E7E70121AC
:10112000F1E7000084E00120F4FF012060E10120EC
:1011300070E20120C0E3012010E50120A0E60120BB
:10114000E49D0F089D440F0810B50E4C204604F096
:101150008DFF04F5827005F05BFD022001F0A6F919
:10116000094C6188084305D0002902D06088401EE0
:10117000608010BD0021084603F0E8F9042060807B
:10118000F4E7000060E1012004E00120002103F009
:10119000A9B900002DE9F14FC44D0527C44EDFF871
:1011A0001493DFF81483002405F1850A3068295D63
:1011B00002681AF801100098904798F8003009EB7F
:1011C00083122B5D641CE4B222F81300BC42EDD301
:1011D000B64D01270024DFF8E0A2ED1E05F1010B5A
:1011E0000AF1E00A3068295D02681BF801100098D6
:1011F000904798F800200AEBC2012A5D641CE4B213
:1012000041F82200BC42EDD3454698F80000DFF8D3
:10121000A48200EB400108F140084FF0000A18F8E2
:1012200021000124E8BB306808210268009890473B
:1012300029784F4609EB8111888230680C210268B9
:10124000009890472A7800B207EB821102EB420324
:1012500008EB83020883D278012A35D1B1F9142032
:101260000AB9002863D0524300FB002000EE100AA8
:10127000B8EEC00A05F03DFDBDEEC00A287810EEBC
:10128000101A07EB80108187B0F91810B0F914001C
:1012900000EE101AF8EEC00A00EE100AB8EEC00A0E
:1012A00000E019E005F027FDDFED840A20EE200ABA
:1012B000DFED830A297880EE201A07EB8111BDEE5D
:1012C000C10A10EE100AC887686E08B180F8204085
:1012D000286F08B180F8204030680121026800982A
:1012E000904786B2070C56EA070008D07548B0F858
:1012F0000001012803D00121724804F073FE686BDD
:1013000058B306B1BFB1704804F05AFB696B88420C
:1013100002D16D4804F0B9FB686B4CF21861428B46
:101320008A421AD04183002104F093FA12E0A1F816
:101330003CA05A20C7E700214183012104F089FA2B
:10134000614804F03DFB696B884203D000215E4890
:1013500004F042FB686B80F820402878514600EB8F
:10136000400208EB8200730680F805A04FF00202ED
:1013700000D542717B0600D544718171F30600D51A
:101380008271FB0600D58471C171B30600D5C271AC
:10139000BB0600D5C4710172F30700D00272FB07CF
:1013A00000D00472330600D502723B0600D50472E9
:1013B0004172730700D542727B0700D54472817277
:1013C000B30700D58272BB0700D58472C1723107A2
:1013D00000D5C272390700D5C472696BF1B33349C5
:1013E000AA694379491D568B31F813309E4202D0C9
:1013F000538382F82040EA698379568B31F81330A1
:101400009E4202D0538382F820402A6AC379568BC9
:1014100031F813309E4202D0538382F820406A6A2A
:10142000037A568B31F813309E4202D0538382F8F0
:101430002040AA6A437A568B31F813309E4202D07C
:10144000538382F82040EA6A837A568B31F813304E
:101450009E4202D0538382F8204000E009E02A6BCC
:10146000C07A538B31F81000834202D0508382F847
:101470002040286908B180F82040686908B180F8E8
:1014800020400D488030C06C08B180F82040686D65
:1014900008B180F82040A86E08B180F82040686F3D
:1014A000002801D080F82040BDE8F88F8B9D0F0800
:1014B000F4FF012060E6012004E001200000344335
:1014C000C3F5484060E1012018E3012070B50646ED
:1014D0000E4800244068472815D040F23F110020F4
:1014E00000F0D2F900F046FE4FF49635304600F099
:1014F0000FFE641CAC42F9D3BDE870400122042108
:10150000034800F03FB80021E9E7000034E1012082
:10151000000402407CB50121022000F0DDFE042021
:10152000009002208DF8050001208DF804000020B5
:101530008DF80600114C8DF8070069462046FFF72C
:10154000C9FC01220421204600F01CF880200C4D2B
:10155000009069462846FFF7BDFCE414694628461A
:101560000094FFF7B7FC01222146284600F00AF854
:1015700001228021284600F005F87CBD00040240CD
:10158000000C0240FFF70EBD064B30B49B68203ABA
:10159000D2B21C68DB88534304EB430230BC00F03A
:1015A00003B8000034E101202DE9F74F90460027F1
:1015B0000646019900F068F91C4C31E000F0DAFDB4
:1015C00000254FF00C094FF0800A4FF0010B17E097
:1015D000B0FBF9F1CA000AFA02F138F817202941E4
:1015E000114201D10C2805D90BFA05F10A4203D1A9
:1015F0000C2801D9608800E0208800F089FD6D1C6E
:10160000A0688088A842E3D8012204210848FFF797
:10161000B9FF761CB6B23046019900F035F97F1C4F
:10162000A068C088B842C9D8BDE8FE8F34E1012067
:1016300000040240704700002DE9F047194D804634
:101640009946686817460E460024472803D1A1F240
:101650003F16704286B23146404600F015F9B9F1A6
:10166000000F1AD100F086FD03E0288800F050FD3D
:10167000641CBC42F9D3BDE8F047012204210A48AA
:10168000FFF780BF288800F065FD08F1010080B2F7
:101690008046314600F0F8F8641CBC42F2D3BDE845
:1016A000F087000034E1012000040240024A138860
:1016B000038050880880704734E101200148806829
:1016C0007047000034E1012003484068472801D0FA
:1016D000012070470020704734E10120704700006E
:1016E00070B52D4C0025218821F0380121802188FA
:1016F00041F00801218000F075FD732000F09EFD8F
:10170000FF21204600F079FE8021204600F06CFE8B
:101710000028F9D10121204600F066FE0028F9D00A
:10172000204600F068FE6D1CEDB2052DE8D3FF21C8
:10173000204600F062FE8021204600F055FE002881
:10174000F9D1022006F01DFA0121204600F04CFEDE
:101750000028F9D0FF21204600F04FFE80212046CE
:1017600000F042FE0028F9D1022006F00AFA012119
:10177000204600F039FE0028F9D0204600F03BFE5C
:101780000546012204210548FFF7FCFE208820F0D1
:1017900038002080284670BD003C00400004024014
:1017A00070B588B00121042000F096FD0121C80326
:1017B00000F09EFD02258DF819504FF480608DF8E1
:1017C00018500024244E05908DF81A408DF81B40C7
:1017D00005A93046FFF77EFBE802059005A93046D3
:1017E000FFF778FBA802059005A93046FFF772FBCA
:1017F00006220A213046FFF7BEFB06220C213046A6
:10180000FFF7B9FB06220B213046FFF7B4FB134E5E
:10181000304600F0A7FDADF800404FF48270ADF8FF
:1018200002000120ADF808004002ADF80A000720D0
:10183000ADF80440ADF80C40ADF81000ADF806501E
:10184000ADF80E406946304600F0D9FD0121304622
:1018500000F07EFD08B070BD00080240003C004072
:1018600001B5BDF800000149488008BD34E1012000
:1018700003B5BDF8001003480180BDF80410418095
:101880000CBD000034E1012070B505460E480C4641
:101890004068472809D02946202000F075FC2146E1
:1018A0002120BDE8704000F06FBC210A022000F04A
:1018B0006BFCE1B2032000F067FC0021062000F081
:1018C00063FC29460720ECE734E1012001498860E8
:1018D0007047000034E1012001B5BDF80000014966
:1018E000088008BD34E101202DE9F05FFFF712FE0A
:1018F000FFF756FFFE48416847297DD041684FF405
:101900008079A1F513424FF4E06B41F2300A40F2C6
:101910003F1741F21808203A6FD1052006F00EF962
:101920004FF40041E52000F02FFC0121002000F0E1
:101930002BFC4946012000F027FC5946022000F00C
:1019400023FC5146032000F01FFC0021042000F07E
:101950001BFC40F20221082000F016FC00210920A7
:1019600000F012FC00210A2000F00EFC00210C20E7
:1019700000F00AFC00210D2000F006FC00210F20E1
:1019800000F002FC0021102000F0FEFB00211120DD
:1019900000F0FAFB0021122000F0F6FB00211320DA
:1019A00000F0F2FB142006F0C9F841F2B0711020EB
:1019B00000F0EAFB40F23711112000F0E5FB0520B2
:1019C00006F0BCF8B91F122000F0DEFB052006F07F
:1019D000B5F84FF4E851132000F0D6FB132129206D
:1019E00000F0D2FB052006F0A9F80021202000F02D
:1019F000CBFB0021212001E086E093E100F0C4FB55
:101A00000621302000F0C0FB40F20111312000F02F
:101A1000BBFB0321322000F0B7FB4FF4837135206C
:101A200000F0B2FB40F60231362000F0ADFB40F290
:101A30000231372000F0A8FB40F20771382000F097
:101A4000A3FB0721392000F09FFB4FF4C0613C202D
:101A500000F09AFB40F20B213D2000F095FB0021A5
:101A6000502000F091FBEF21512000F08DFB002170
:101A7000522000F089FB3946532000F085FB4FF4DB
:101A80001C51602000F080FB0121612000F07CFBF4
:101A900000216A2000F078FB0021802000F074FB18
:101AA0000021812000F070FB0021822000F06CFBFF
:101AB0000021832000F068FB0021842000F064FBFB
:101AC0000021852000F060FB1021902000F05CFBDD
:101AD0000021922000F058FB0321932000F054FBDA
:101AE0004FF48871952000F04FFB0021972000F003
:101AF0004BFB0021982000F047FB4146032000F0FB
:101B000043FB40F27311FBE20021EA2000F03CFBB2
:101B10002021EB2000F038FB0C21EC2000F034FBFE
:101B2000C421ED2000F030FB4021E82000F02CFB28
:101B30003821E92000F028FB0121F12000F024FBEE
:101B40001021F22000F020FBA321272000F01CFB35
:101B50000121402000F018FB0021412000F014FB7F
:101B60000021422000F010FB1021432000F00CFB6C
:101B70000E21442000F008FB2421452000F004FB46
:101B80000421462000F000FB5021472000F0FCFA21
:101B90000221482000F0F8FA1321492000F0F4FA5D
:101BA00019214A2000F0F0FA19214B2000F0ECFA3C
:101BB00016214C2000F0E8FA1B21502000F0E4FA36
:101BC0003121512000F0E0FA2F21522000F0DCFA00
:101BD0003F21532000F0D8FA3F21542000F0D4FADE
:101BE0003E21552000F0D0FA2F21562000F0CCFAEB
:101BF0007B21572000F0C8FA0921582000F0C4FAD0
:101C00000621592000F0C0FA06215A2000F0BCFA43
:101C10000C215B2000F0B8FA1D215C2000F0B4FA22
:101C2000CC215D2000F0B0FA1B21084600F0ACFA90
:101C300001211A2000F0A8FA2F21242000F0A4FA94
:101C40005721252000F0A0FA8621232000F09CFADD
:101C50003621182000F098FA0121192000F094FA9A
:101C60000021012000F090FA88211F2000F08CFA5A
:101C7000022005F063FF80211F2000F085FA02207A
:101C800005F05CFF90211F2000F07EFA022005F095
:101C900055FFD0211F2000F077FA022005F04EFFFB
:101CA0000521172000F070FA0021012000F06CFAE5
:101CB0000021022000F068FA0021032000F064FAFD
:101CC0000121042000F060FA3F21052000F05CFAB9
:101CD0000021062000F058FA0021072000F054FAF5
:101CE0000021082000F050FAEF21092002E0000056
:101CF00034E1012000F048FA2821162000F044FACF
:101D00000021362000F040FA0421362000F03CFA91
:101D10003821282000F038FA062005F00FFF3C217A
:101D20002820EEE1416840F20514A1F5A84240F2F6
:101D3000062540F60806083A7ED143F20801E32062
:101D400000F022FA1221E72000F01EFA41F23121C0
:101D5000EF2000F019FA4946012000F015FA594623
:101D6000022000F011FA5146032000F00DFA002184
:101D7000042000F009FA291F082000F005FA0021CC
:101D8000092000F001FA00210A2000F0FDF90021ED
:101D90000C2000F0F9F900210D2000F0F5F90021E8
:101DA0000F2000F0F1F90021102000F0EDF90021E2
:101DB000112000F0E9F90021122000F0E5F90021DE
:101DC000132000F0E1F9142005F0B8FE07211120DE
:101DD00000F0DAF9052005F0B1FE41F2B021102043
:101DE00000F0D2F9052005F0A9FE40F2BD11122045
:101DF00000F0CAF9052005F0A1FE4FF4A051132010
:101E000000F0C2F90E21292000F0BEF9052005F0EE
:101E100095FE0021202000F0B7F93946212000F07E
:101E2000B3F90721302000F0AFF940F20231312040
:101E300000F0AAF9214600E074E0322000F0A4F995
:101E40002946352000F0A0F93146362000F09CF9F3
:101E50002946372000F098F940F20451382000F06C
:101E600093F90721392000F08FF921463C2000F03A
:101E70008BF931463D2000F087F90021502000F019
:101E800083F9EF21512000F07FF90021522000F06A
:101E90007BF93946532000F077F94FF42741602051
:101EA00000F072F90121612000F06EF900216A2032
:101EB00000F06AF90021802000F066F900218120FD
:101EC00000F062F90021822000F05EF900218320F9
:101ED00000F05AF90021842000F056F900218520F5
:101EE00000F052F91021902000F04EF900219220CC
:101EF00000F04AF90321932000F046F94FF488716D
:101F0000952000F041F90021972000F03DF90021D3
:101F1000982000F039F94146032000F035F94FF4DC
:101F20008971EDE04068A0F5134125397ED101218A
:101F3000002000F029F94946012000F025F9594612
:101F4000022000F021F94146032000F01DF9002194
:101F5000042000F019F940F20221082000F014F9E1
:101F60000021092000F010F900210A2000F00CF9EE
:101F700000210C2000F008F900210D2000F004F9E8
:101F800000210F2000F000F90021102000F0FCF8E3
:101F90000021112000F0F8F80021122000F0F4F8E0
:101FA0000021132000F0F0F8142005F0C7FD41F2E5
:101FB000B071102000F0E8F840F23711112000F065
:101FC000E3F8052005F0BAFD40F23911122000F0C7
:101FD000DBF8052005F0B2FD4FF4E851132000F0C6
:101FE000D3F81321292000F0CFF8052005F0A6FD35
:101FF0000021202000F0C8F80021212000F0C4F8C2
:102000000721302000F0C0F840F20231312000F00A
:10201000BBF82146322000F0B7F82946352000F001
:10202000B3F83146362000F0AFF800E06DE0294605
:10203000372000F0A9F840F20451382000F0A4F84D
:102040000721392000F0A0F821463C2000F09CF840
:1020500031463D2000F098F80021502000F094F81F
:10206000EF21512000F090F80021522000F08CF870
:102070003946532000F088F84FF42741602000F0E3
:1020800083F80121612000F07FF800216A2000F030
:102090007BF80021802000F077F80021812000F0FB
:1020A00073F80021822000F06FF80021832000F0F7
:1020B0006BF80021842000F067F80021852000F0F3
:1020C00063F81021902000F05FF80021922000F0CA
:1020D0005BF80321932000F057F84FF488719520A6
:1020E00000F052F80021972000F04EF800219820CF
:1020F00000F04AF84146032000F046F840F2331160
:102100000720BDE8F05F00F03FB8BDE8F09F000099
:1021100070B50F4D0446010A284600F06EF9802183
:10212000284600F061F90028F9D1022005F029FDC8
:10213000E1B2284600F061F98021284600F054F908
:102140000028F9D1BDE87040022005F01ABD00005A
:10215000003C004010B5044600F00CF82046FFF7A4
:10216000D7FF0122BDE8104004210148FFF70ABA59
:102170000004024010B5222000F034F8BDE8104001
:10218000722000F05BB8000070B50C4600F02AF831
:10219000722000F053F8114D210A284600F02DF965
:1021A0008021284600F020F90028F9D1022005F00E
:1021B000E8FCE1B2284600F020F98021284600F032
:1021C00013F90028F9D1022005F0DBFCBDE87040CE
:1021D000012204210248FFF7D5B90000003C00406D
:1021E0000004024070B50546702000F027F8114C3D
:1021F0000021204600F001F98021204600F0F4F88B
:102200000028F9D1022005F0BCFC2946204600F048
:10221000F4F88021204600F0E7F80028F9D10220E8
:1022200005F0AFFCBDE87040012204210248FFF731
:10223000A9B90000003C00400004024010B504466B
:10224000002204210948FFF79DF92146084C204649
:1022500000F0D3F88021204600F0C6F80028F9D11C
:10226000BDE81040022005F08CBC000000040240D4
:10227000003C004070B50F21C478027801234FF074
:10228000E026E4B1124C246804F4E064C4F5E06490
:10229000C4F30724C4F10405E1404478AC408578D8
:1022A0000D4025430B4C29011155007800F01F010A
:1022B0008B40400906EB8000C0F8003170BD02F091
:1022C0001F008340500906EB8000C0F8803170BDCC
:1022D0000CED00E000E400E0044A0029116801D0A0
:1022E000014300E081431160704700003038024034
:1022F000044A0029116801D0014300E081431160C4
:102300007047000040380240044A0029116801D09B
:10231000014300E081431160704700002038024013
:10232000044A0029116801D0014300E08143116093
:102330007047000044380240044A0029116801D067
:10234000014300E0814311607047000024380240DF
:102350000029018802D041F0400101E021F0400154
:10236000018070471A4910B5884202D101218414B6
:1023700024E01849884202D10121041404E01649DE
:1023800088420AD10121C4132046FFF7BDFF204631
:10239000BDE810400021FFF7B7BF1049884202D1C5
:1023A000012144140AE00E49884202D101210C05A2
:1023B00004E00C4988420AD101214C052046FFF770
:1023C000BBFF2046BDE810400021FFF7B5BF10BDA0
:1023D0000030014000380040003C00400034014023
:1023E00000500140005401400246002012890A4278
:1023F00000D001207047808970478181704730B5D7
:1024000002884C8802F441530A88CD8822438C8884
:102410002C4322430C8922434C8922438C8922433A
:10242000CC8922431A430280828B22F40062828389
:10243000098A018230BD000038B500200090FFF706
:1024400053FA0020FFF74CF90146009045F208408E
:10245000094C814206D049F22530814202D0401F0A
:10246000814203D16060FFF73FFA01E047206060DE
:1024700001480C30A06038BD34E1012010B50021C6
:10248000072000F01FF80021052000F01BF80021B4
:10249000062000F017F80021032000F013F80021B7
:1024A000BDE81040042000F00DB800000349044AC4
:1024B00031F8101052F82000FEF76DBD14A10F087E
:1024C00014E1012070B5044625480E4686B050F848
:1024D00024000121FFF700FF01218803FFF720FFFF
:1024E0001F4800258DF8105010388DF8135030F823
:1024F000140003901B4803A950F82400FEF7EAFCDF
:10250000012E2BD11648403010F81410103810F856
:10251000140000F029F81248203030F81400009020
:102520008DF804500CB10C2000E008208DF8050057
:1025300001258DF806506846FEF794FC0848503097
:1025400010F814008DF808000F208DF809008DF8A0
:102550000A008DF80B5002A8FFF78CFE06B070BD84
:1025600024A10F0814E1012010B58A0721F003040B
:102570000649130F21440F220C689A4094430C60C3
:102580000A68984002430A6010BD00000838014004
:102590000CB500202749019000900A6842F480326F
:1025A0000A604FF4A0430A6802F400320092019AD4
:1025B000521C0192009A12B9019A9A42F3D10A6808
:1025C000920334D5012000901A484030026842F04E
:1025D000805202601848026842F440420260154886
:1025E000083002680260026842F400420260026839
:1025F00042F4A0520260031F104A1A600A6842F0B7
:1026000080720A600A689201FCD50D4A40F2057199
:102610001160016821F003010160016841F00201CD
:1026200001600168C1F381010229FAD10CBD00905B
:102630000CBD0000003802400070004019544007F3
:10264000003C0240124810B5016841F4700101607D
:102650001048016841F0010101600E4A0021083272
:10266000116002680C4B1A400260031D0B4A1A608D
:10267000026822F48022026006480C300160FFF7F5
:1026800087FF03494FF000608039086010BD0000EB
:1026900088ED00E000380240FFFFF6FE1030002415
:1026A0002DE9FE4F282004F02DFB03210091052386
:1026B0003B4A3CA104F0EAFA8246282004F022FBBF
:1026C0001E2100910523364A39A104F0DFFA814624
:1026D000282004F017FB3C2100910523304A3EA13D
:1026E00004F0D4FA8046282004F00CFB4B21009122
:1026F00005232B4A41A104F0C9FA0746282004F01B
:1027000001FB5A2100910523254A45A104F0BEFA98
:102710000646282004F0F6FAB42100910523204A49
:1027200048A104F0B3FA0546282004F0EBFA73211F
:10273000009105231A4A4B4904F0A8FA0446514671
:10274000174803F00EF94946154803F00AF94146C7
:10275000134803F006F93946114803F002F93146EF
:102760000F4803F0FEF829460D4803F0FAF8214619
:102770000B4803F0F6F8282004F0C4FA0849962321
:10278000F7228DE80E0038492C234822096802F010
:1027900025FC03B00146BDE8F04F014803F0E1B865
:1027A00070E2012048656C70205061676500000090
:1027B00055736520746865206A6F79737469636BFB
:1027C00020746F20776F726B2077697468204C4398
:1027D00044204755490000002D55502F444F574E77
:1027E00020746F206D6F7665206265747765656E05
:1027F00020636F6E74726F6C730000002D4C454641
:10280000542F524947544820746F206D6F766520CD
:102810006265747765656E2070616765730000009E
:102820002D53454C20746F20696E7465726163741A
:1028300020776974682074686520636F6E74726FA6
:102840006C000000436F707972696768742053549C
:102850004D6963726F656C656374726F6E696373E3
:1028600000000000969D0F0800E001202DE9F04FC8
:1028700087B00021FE4803F01DF8282004F042FA3A
:102880000021FB4A0B460091A832FAA104F0FEF9A0
:102890000746282004F036FAF54A4FF0140B0A23B5
:1028A000A832FAA1CDF800B004F0F0F905463820BE
:1028B00004F028FA2121EE4A00910A23A832F649B1
:1028C00004F0F8F8F54C6060282004F01BFADFF8FB
:1028D000A083352308F1A8080A21CDF80080CDE9AE
:1028E00001133C239B22EEA104F030F90646282078
:1028F00004F008FA112100910F233246EDA104F0F3
:10290000C5F90490282004F0FDF9252100910F233A
:102910003246EBA104F0BAF90590382004F0F2F940
:102920006E22CDE900624FF00F09CDF808902278B1
:1029300008F5527A0AEB82110323E4A202F06CFE3E
:102940002061382004F0DEF923216E220096CDE9C3
:102950000121227803230AEB8211891CDBA202F0F9
:102960005BFE6061282004F0CDF9CD23CDE9008322
:10297000CDF808B0AA236422D5A104F0E7F80390AB
:10298000282004F0BFF90523CDF80090D2A1039AC6
:1029900004F07CF9A061282004F0B4F92121009111
:1029A0000523D0A1039A04F071F9E061282004F016
:1029B000A9F9332100910523CDA1039A04F066F90A
:1029C0002062282004F09EF9452100910523CBA127
:1029D000039A04F05BF96062282004F093F9572110
:1029E00000910523C8A1039A04F050F9A0622820A1
:1029F00004F088F9692100910523C6A1039A04F027
:102A000045F9E062282004F07DF97B21009105233F
:102A1000C3A1039A04F03AF92063302004F072F95C
:102A20008D2100910A23C1A1039A02F0EDFBC24956
:102A3000606341624CF218614183002102F009FF9A
:102A40004046616B02F08DFF3946404602F089FF37
:102A50002946404602F085FF4046616802F081FF4A
:102A6000207808F5627700EB400017F820106068C6
:102A700003F0E5FEB14804F1800500680169A86D26
:102A80008847C0067BD5282004F03CF973230A212F
:102A9000CDF80080CDE901133C23BE22A8A104F0AB
:102AA00055F88046282004F02DF9112100910523C6
:102AB0004246A7A104F0EAF88246282004F022F951
:102AC0002521009105234246A2A104F0DFF88146AA
:102AD000382004F017F90446A86D01F015FCDFF862
:102AE000B8B121230BF10C0B42465BF820100F20EC
:102AF0000090204603F0DEFF684CA060382004F010
:102B000001F90190A86D01F0FFFB5BF82010232074
:102B1000009021234246019803F0CCFFE06041463B
:102B2000A7F5627002F01DFF5146A7F5627002F032
:102B300018FF4946A7F5627002F013FFA7F562700F
:102B4000A16802F00EFFA7F56270E16802F009FFCC
:102B5000207800EB400007EB80004178A06803F08C
:102B60006EFE207800EB400007EB80008178E06883
:102B700003F065FEA16878484862E16848623C4815
:102B80003146A83002F0EDFE39480499A83002F031
:102B9000E8FE37480599A83002F0E3FE3F4C344880
:102BA000A830216902F0DDFE31486169A83002F0E9
:102BB000D8FE0021206902F04CFE0021606902F07D
:102BC00048FE5E4800680169A86D88470221B1EBA4
:102BD000107F03D0C0F30360022813D1302004F02B
:102BE00091F8B221224A00910A23A8325BA102F097
:102BF0000BFB014628641E48A83002F0B2FE296C87
:102C00005B4848621A480399A83002F0AAFE1848A7
:102C1000A169A83002F0A5FE1548E169A83002F0CC
:102C2000A0FE1348216AA83002F09BFE1048616A9A
:102C3000A83002F096FE0E48A16AA83002F091FE7C
:102C40000B48E16AA83002F08CFE0948216BA830DD
:102C500002F087FE2078A26900EB400007EB8001BC
:102C60000D484B79283830F8133053838B7981E045
:102C700070E20120436F6E66696775726174696FF7
:102C80006E20616E64206465627567004374726CC7
:102C9000206D6F6465000000B89D0F0804E00120FE
:102CA000506F77657220626F617264207374617413
:102CB0007573000044432042757320766F6C740076
:102CC0004865617473696E6B20542E00253364006F
:102CD0004661756C747300004F766572637572722D
:102CE000656E74005265767570206661696C0000CF
:102CF0005370656564206664626B000053572065FD
:102D000072726F7200000000556E64657220766FFB
:102D10006C7400004F76657220766F6C7400000052
:102D20004F7665722074656D700000004661756CA9
:102D3000742061636B00000085440F08F4FF0120DC
:102D40004441432053657474696E6773000000004A
:102D50004368310043683200A1480F08456E636F35
:102D600064657220616C69676E6D656E7400000049
:102D700011490F08E26930F813305383CB79226A86
:102D800030F8133053830B7A626A30F81330538370
:102D90004B7AA26A30F8133053838B7AE26A30F8A8
:102DA00013305383C97A226B30F811005083616865
:102DB0000348486207B00348BDE8F04F02F065BE23
:102DC000C94C0F0818E301202DE9F04F89B02820E5
:102DD00003F098FF00210B460091FE4AFEA103F08C
:102DE00055FF0390282003F08DFFFA494FF0140A95
:102DF0000A238DE80A045A239122FCA103F0A6FEBF
:102E00000746282003F07EFF1E2100913C233A460E
:102E1000F9A103F03BFF0490282003F073FF412148
:102E200000913C233A46F5A103F030FF059028209D
:102E300003F068FF0F21009105233A46F0A103F04B
:102E400025FF8346402003F05DFF1E2105220097E9
:102E5000CDE90121EE490623A1F1E004227801EB3E
:102E6000C201ECA203F07CF8DFF8AC830646A06355
:102E7000D8F8000004F1800540210268A86D904751
:102E80008146D8F800003F210268A86D9047C6E946
:102E90000E90282003F036FF3221009105233A4698
:102EA000DEA103F0F3FE0690382003F02BFF412152
:102EB00005220097CDE90121DFF8709322780623DF
:102EC00009EB8211091DD3A202F0A6FB47F6FF729F
:102ED0000021E06302F072FB302003F013FF412178
:102EE00000915A233A46D2A102F08EF9D2492064C9
:102EF000416201F0A1F9282003F004FFB5497323D2
:102F00000A228DE80E004B236822CCA103F01EFE9E
:102F10000646282003F0F6FE0A233246CAA1CDF861
:102F200000A003F0B3FE0790282003F0EBFE23215E
:102F300000910A233246C5A103F0A8FE089038206C
:102F400003F0E0FE51464FF0280A0096CDE901A1BA
:102F50002278062309EB8211891DAEA202F05CFBE8
:102F60006064382003F0CEFE23210096CDE901A154
:102F70002278062309EB82110831A6A202F04CFB4D
:102F8000A0649448039902F0ECFC9248049902F082
:102F9000E8FC9048059902F0E4FC39468D4802F0BF
:102FA000E0FC59468B4802F0DCFC8A48A16B02F039
:102FB000D8FC8848069902F0D4FC8648E16B02F000
:102FC000D0FC8448216C02F0CCFC8248696C02F091
:102FD000C8FC8048A96C02F0C4FC7E48E96C02F091
:102FE000C0FC7C48696D02F0BCFC0021E86C02F07A
:102FF00030FC7848296D02F0B4FC3146754802F087
:10300000B0FC7448079902F0ACFC7248089902F0D1
:10301000A8FC7048616C02F0A4FC6E48A16C02F040
:10302000A0FCD8F800000169A86D884780072AD560
:10303000282003F067FE32270A23324684A1009736
:1030400003F024FE0546382003F05CFECDE9006A5B
:1030500002972278062309EB82110A316DA202F051
:10306000DBFAE06429465B4802F07BFC5948E16CDE
:1030700002F077FC47F6FF720021E06C02F09EFA46
:10308000616C7448486247F6FF752A460021606CFF
:1030900002F094FA2A460021A06C02F08FFAD8F8C8
:1030A000000001695A486038806D8847C0077DD0AC
:1030B000282003F027FE474973237D228DE80E0068
:1030C0004B23B42264A103F041FD0546282003F000
:1030D00019FE0E260A232A4663A1009603F0D6FDA8
:1030E0008346282003F00EFE50232A465EA1009658
:1030F00003F0CCFD8246382003F004FE0A22CDE91D
:1031000000521927029721784E4609EB81110C31A4
:10311000042357A202F080FA2065382003F0F2FD64
:103120005022CDE9005202972178042306EB811149
:103130000E314FA202F070FA6065282003F0E2FD24
:103140002C270A232A4640A1009703F09FFD8046C2
:10315000282003F0D7FD50232A463CA1009703F016
:1031600095FD0746382003F0CDFD0A22CDE9005237
:103170004FF03709CDF808902178062306EB81112E
:10318000103124A202F048FAA065382003F0BAFDFD
:103190005022CDE90052CDF808902178062306EBA5
:1031A000811112311BA202F037FA00E092E0E065D3
:1031B0002946084802F0D5FB5946064802F0D1FBE3
:1031C0005146044802F0CDFB0248216D02F0C9FBD4
:1031D00000484FE0C0E30120537065656420636FD1
:1031E0006E74726F6C6C6572000000005365742021
:1031F000706F696E7400000072706D006D73000076
:103200005461726765742073706565640000000026
:10321000E4E0012025366400F4FF012052616D7066
:10322000206475726174696F6E00000060E60120B1
:103230004578656300000000614D0F085049442047
:103240004761696E730000004B5000004B4900005D
:103250004B44000075460F08466C757820776C2E3D
:103260002074756E696E670042555380000000003F
:1032700025346400616D02F074FB0021606D02F082
:10328000E8FA4146194802F06CFB3946174802F04B
:1032900068FB1648A16D02F064FB1448E16D02F072
:1032A00060FB4FF47A720021206D02F087F947F637
:1032B000FF752A460021A06D02F080F92A46002100
:1032C000E06D02F07BF9216D09484862A16D48620A
:1032D000E16D4862616C06484862A16C486209B0C1
:1032E0000248BDE8F04F02F0D0BB0000C0E301206F
:1032F00075460F082DE9F04F8BB0282003F002FD32
:1033000000210B460091FE4AFEA103F0BFFC039092
:10331000282003F0F7FC87210091E623F84AFEA15C
:1033200003F0B4FC0490282003F0ECFC4FF00A09F1
:10333000F34DCDE900594FF014085A239122F8A11A
:10334000CDF8088003F002FC0646282003F0DAFCE2
:103350000F21009105233246F4A103F097FCF54CB0
:103360002066382003F0CEFC1E2105220096CDE910
:103370000121227805F5FC7101EB8211143106233D
:10338000EDA202F049F96066282003F0BBFC0F2192
:10339000009150233246E9A103F078FC05903820D3
:1033A00003F0B0FC1E2150270096CDE90171227870
:1033B00005F5FC7101EB821116310623DEA202F045
:1033C0002BF9A066282003F09DFC4FF0320B05235B
:1033D0003246DBA1CDF800B003F058FCE06638209F
:1033E00003F090FC412105220096CDE901212278CD
:1033F00005F5FC7101EB821118310623CEA202F013
:103400000BF92067282003F07DFC32210091502326
:103410003246CDA103F03AFC0690382003F072FC4E
:1034200041210096CDE90171227805F5FC7101EB8F
:1034300082111A310623C0A202F0EEF8606728203C
:1034400003F060FC73220095CDE901924B236822C2
:10345000BEA103F07BFB0746282003F053FC0A23A0
:103460003A46BEA1CDF8008003F010FC079038204A
:1034700003F048FC4FF02809CDE90079CDF8088029
:10348000227805F5FC7101EB82111C310623AAA2FA
:1034900002F0C2F8A067282003F034FC4FF0230AA2
:1034A0000A233A46AEA1CDF800A003F0EFFB089046
:1034B000382003F027FC8DE88006227805F5FC71A2
:1034C00001EB82111E3106239BA202F0A5F8E067F2
:1034D000282003F017FC732178220095CDE9012103
:1034E0004B2368229FA103F031FB0546282003F0FF
:1034F00009FC0A232A4699A1CDF8008003F0C6FBF7
:103500000990382003F0FEFBCDE90059CDF8088082
:1035100098492278062301EB8211223186A202F01B
:103520007BF804F18008C8F80800282003F0EAFBC3
:103530000A232A468AA1CDF800A003F0A7FB0A902F
:10354000382003F0DFFB8DE820068A492278062325
:1035500001EB8211243178A202F05EF84146C86086
:10356000302003F0CFFB73210091E623644A82A14F
:1035700002F01CFC41468861382003F0C3FB962111
:103580000091E6235E4A7E4903F094FA4146C86101
:1035900000F052FE5A48039902F0E3F958480499A2
:1035A00002F0DFF93146564802F0DBF95448216E4B
:1035B00002F0D7F95248616E02F0D3F950480599EC
:1035C00002F0CFF94E48A16E02F0CBF90021A06EB7
:1035D00002F03FF94A48E16E02F0C3F94848216F12
:1035E00002F0BFF94648069902F0BBF94448616F02
:1035F00002F0B7F90021606F02F02BF94046416CF0
:103600003F4802F0AEF94046816C3D4802F0A9F90E
:103610004046C16C3A4802F0A4F94046416D384832
:1036200002F09FF940460021C06C02F012F94046BA
:10363000016D334802F095F9207800EB40014D48C8
:10364000403000EB8100394606792D4802F089F9B7
:103650002B48079902F085F92948A16F02F081F9FA
:103660002748089902F07DF92548E16F02F079F9C1
:10367000A16F44484862E16F43484862434800688C
:1036800001694046806D8847400747F6FF7A2CD590
:10369000282003F037FB0A233A463DA1CDF800B0BD
:1036A00003F0F4FAC8F800004446382003F02AFB7F
:1036B000204A8DE8800A2F491278062301EB8211F7
:1036C00020311DA201F0A8FF60600D48216802F0C2
:1036D00048F90B48616802F044F9524600216068DD
:1036E00001F06CFF61682B484862124F5446524605
:1036F0000021B86F01F062FF22460021F86F4BE015
:1037000068E4012043757272656E7420636F6E7495
:10371000726F6C6C65727300496E70757400000096
:1037200053657420706F696E747300004971207264
:1037300065662E0004E00120253664004971000012
:103740004964207265662E0049640000497120506A
:103750004944204761696E73000000004B5000002F
:103760004B490000496420504944204761696E7309
:103770000000000060E601204C696E6B0000000054
:10378000049E0F08F5470F08B1470F08F4FF01200A
:103790004B44000069470F0801F010FF29465D48BF
:1037A00002F0DFF85B48099902F0DBF8444659481B
:1037B000D8F8081002F0D5F856480A9902F0D1F866
:1037C0005448E16802F0CDF8534800680169A06DE3
:1037D0008847DFF84881000731D5282003F092FAA6
:1037E0000A232A46AFF25801CDF800B003F04EFA92
:1037F0002061382003F086FA8DE8200A48493A789B
:1038000001EB821126310623AFF2D40201F004FF4E
:1038100060614048216902F0A4F83E48616902F005
:10382000A0F852460021606901F0C8FE002E56D073
:103830000021606902F00DF86169C1F824805546E5
:1038400052460021A06801F0B9FE2A460021E06836
:1038500001F0B4FE2F48A16902F083F82D48E16918
:1038600002F07FF83878DFF8B89000EB400109F1FA
:10387000400909EB8100C178E06902F0E0FF01F046
:1038800087FAA5696A6A2AB195F8210010B1314614
:103890002846904785F82C601EB30021A06801F0EF
:1038A000D8FF06B30021E06801F0D3FFE1691D48AD
:1038B0004862A1691C484862786E1C4941623A6FAF
:1038C0001B495162A268C2F82480E268C2F82480D1
:1038D000397801EB410219F8221031B113E00121CE
:1038E000A7E70121DAE70121DDE7002101F0B1FFBF
:1038F000094800680169A06D8847800603D400214B
:10390000386F01F0A6FF0BB00248BDE8F04F02F09F
:10391000BCB8000068E40120F4FF012075460F08E0
:1039200060E60120154F0F08B9460F08654A0F08D9
:1039300029490F082DE9F04FFF4887B0002700689C
:10394000FE4C0169A06D8847064609200025B0EBB2
:10395000167F09D1282003F0D5F90023F84AF9A1F0
:10396000009503F093F90746C6F30360092809D1CF
:10397000282003F0C7F90023F14AF9A1009503F0CC
:1039800085F907467006DFF8B8B34FF028000BD56D
:1039900003F0B8F914210A22CDF800B0CDE90121D5
:1039A0005A239122F7A10AE003F0ACF914210A226C
:1039B000CDF800B0CDE901215A239122F4A103F002
:1039C000C5F80546282003F09DF94FF00F0A05239E
:1039D0002A46F0A1CDF800A003F058F90390382052
:1039E00003F090F91E210522DFF850930095CDE9F0
:1039F0000121A9F18009DFF8A08399F800200623AE
:103A000008EB82112831E5A201F006FE2062282091
:103A100003F078F950232A46E1A1CDF800A003F085
:103A200035F90490382003F06DF91E214FF0500A4B
:103A30000095CDE901A199F80020062308EB821139
:103A40002A31D6A201F0E8FD606200F0F5FB3946AC
:103A5000BB4801F086FF2946B94801F082FFB8480B
:103A6000039901F07EFFB648216A01F07AFFB4485D
:103A7000049901F076FFB248616A01F072FF7006A6
:103A800058D5282003F03EF93221009105232A461B
:103A9000C4A103F0FBF80390382003F033F941216F
:103AA00005220095CDE9012199F80010474608EB61
:103AB000811130310623B9A201F0AEFD47F6FF7245
:103AC0000021A06201F07AFD282003F01BF93221C9
:103AD000009150232A46B5A103F0D8F8049038206D
:103AE00003F010F941210095CDE901A199F80010EA
:103AF000062307EB81113231A8A201F08DFD47F6B4
:103B0000FF720021E06201F059FD8D48039901F038
:103B100028FF8B48A16A01F024FF8948049901F02D
:103B200020FF8748E16A01F01CFFA16AA1484862B2
:103B3000E16A48628248616C01F013FF8048A16C21
:103B400001F00FFF7E48E16C01F00BFF7C48616DD6
:103B500001F007FF0021E06C01F07BFE7848216D49
:103B600001F0FFFE0920B0EB167F7DD1282003F085
:103B7000C9F873230A21CDF800B0CDE901134B2316
:103B800040F227128CA102F0E1FF0546282003F045
:103B9000B9F814260A232A468BA1009603F076F87A
:103BA0000390382003F0AEF8CDE9005A029647465C
:103BB00099F80010C84607EB81113431062377A22B
:103BC00001F02AFD47F6FF720021206301F0F6FCA8
:103BD000282003F097F84FF023090A232A467DA1F5
:103BE000CDF8009003F052F88346382003F08AF8AD
:103BF000CDE9005ACDF8089098F80010062307EB9D
:103C00008111363165A201F007FD6063282003F0C1
:103C100079F8322100910A232A4670A103F036F880
:103C20000490382003F06EF832210095CDE901A10F
:103C300098F80010062307EB8111383157A201F0E4
:103C4000EBFCA063282003F05DF8B4232A4665A1AD
:103C5000009603F01BF80590382003F053F8E62196
:103C6000CDE90051029600E0D4E098F8001003235B
:103C700007EB81113A315DA201F0CEFCE0632E48E2
:103C8000222100680268A06D9047421E0021E06B6F
:103C900001F094FC282003F035F88C232A4654A127
:103CA000009602F0F3FF8246282003F02BF88C23C5
:103CB0002A4650A1CDF8009002F0E8FF98F80010D5
:103CC000064607EB811090F83A20A06D00F0B4FD95
:103CD000E16B49484862216B48484862616B48483B
:103CE0004862A16B474848625146154801F039FEC9
:103CF0003146134801F035FE2946114801F031FEE6
:103D00000F48039901F02DFE0D48216B01F029FEAB
:103D100059460B4801F025FE0948616B01F021FE70
:103D20000748049901F01DFE0548A16B01F019FE3A
:103D30000348059968E00000F4FF012084E00120B9
:103D400010E5012053656E736F726C657373207498
:103D5000756E696E672053544F202620504C4C00DE
:103D600053656E736F726C6573732074756E696ED4
:103D7000672053544F202620504C4C202841757802
:103D80002900000053544F202620504C4C000000C6
:103D900053544F004731000060E60120253664008F
:103DA00047320000504C4C204B500000504C4C20EF
:103DB0004B49000075460F085265762075702074D7
:103DC000756E696E670000004475726174696F6E8C
:103DD00000000000456E642073706400456E64202E
:103DE0004971000053746167650000002533640069
:103DF0006D73000072706D00B54E0F08F14E0F0824
:103E0000454F0F08694F0F0801F0ABFD0748E16B04
:103E100001F0A7FD216A06484862616A486207B05E
:103E20000248BDE8F04F01F030BE000010E501206F
:103E300075460F082DE9F04FD148DFF8488387B069
:103E4000006800250169D8F85800884707460A2409
:103E50000026B4EB177F09D1282002F053FF00237E
:103E6000C94ACAA1009602F011FF0546C7F30360D4
:103E70000A2809D1282002F045FF0023C24ACBA11D
:103E8000009602F003FF0546282002F03BFFBE4BE0
:103E9000CDE9003414210291A3465A239122CDA1E9
:103EA00002F054FE0646282002F02CFF0F2100915C
:103EB00005233246C8A102F0E9FE8146382002F00F
:103EC00021FF1E2105220096CDE90121AD49DFF831
:103ED000B8A280390AF1A80A097806230AEB8111F1
:103EE0002C31BEA201F098FBC8F8200044462820DF
:103EF00002F008FF0F21009150233246B8A102F0D2
:103F0000C5FE8046382002F0FDFE1E21502200969C
:103F1000CDE901219B4906238039B0A209780AEB3B
:103F200081112E3101F078FB606200F085F929469D
:103F3000954801F016FD3146934801F012FD4946BF
:103F4000914801F00EFD9048216A01F00AFD4146BA
:103F50008D4801F006FD8C48616A01F002FD8A4837
:103F6000616C01F0FEFC8848A16C01F0FAFC864807
:103F7000E16C01F0F6FC8448616D01F0F2FC002177
:103F8000E06C01F066FC8048216D01F0EAFCBBEBBF
:103F9000177F7DD1282002F0B5FE7B4A0092732363
:103FA000CDE901B34B2340F227128EA102F0CEFDE2
:103FB0000546282002F0A6FE4FF014080A232A46E0
:103FC0008CA1CDF8008002F061FE0390382002F051
:103FD00099FE4FF050096B4FCDE90059803FCDF865
:103FE0000880397856460AEB8111343106237BA2CA
:103FF00001F012FB47F6FF720021206301F0DEFAA8
:10400000282002F07FFE4FF0230A0A232A467CA1D3
:10401000CDF800A002F03AFE8346382002F072FE8E
:104020008DE820063978062306EB811136316BA224
:1040300001F0F2FA6063282002F064FE3221009160
:104040000A232A4670A102F021FE0490382002F0D3
:1040500059FE32210095CDE901913978062306EB0E
:10406000811138315DA201F0D7FAA063282002F057
:1040700049FEB4232A4666A1CDF8008002F006FE70
:104080000590382002F03EFEE622CDF8088000E0E0
:104090006BE0CDE900523978032306EB81113A3108
:1040A0005DA201F0B9FAE063354822210068026898
:1040B000A06D9047421E0021E06B01F07FFA28209E
:1040C00002F020FE8C232A4654A1CDF8008002F095
:1040D000DDFD8146282002F015FE8C232A4650A1E2
:1040E000CDF800A002F0D2FD3978804606EB8110B1
:1040F00090F83A20A06D00F09FFBE16B49484862C0
:10410000216B49484862616B48484862A16B484846
:10411000486249461C4801F024FC41461A4801F017
:1041200020FC2946184801F01CFC1748039901F0AF
:1041300018FC1548216B01F014FC5946124801F097
:1041400010FC1148616B01F00CFC0F48049901F060
:1041500008FC0D48A16B01F004FC0B48059901F027
:1041600000FC0948E16B01F0FCFB216A3148486220
:10417000616A486207B00448BDE8F04F01F085BCB1
:10418000F4FF012084E00120B8E5012053656E733F
:104190006F726C6573732074756E696E672053540B
:1041A0004F202620434F52444943000053656E730D
:1041B0006F726C6573732074756E696E67205354EB
:1041C0004F202620434F52444943202841757829E7
:1041D0000000000053544F004731000025366400B2
:1041E000473200005265762075702074756E696ED6
:1041F000670000004475726174696F6E0000000012
:10420000456E642073706400456E6420497100003F
:104210005374616765000000253364006D7300000E
:1042200072706D00B54E0F08F14E0F08454F0F0824
:10423000694F0F0875460F083EB5282002F062FD51
:10424000A0232349CDE90013142202925A2391227C
:1042500020A102F07BFC214C6064282002F052FD7A
:104260000F21009105231EA1626C02F00FFDA064D6
:10427000402002F047FD0521626CCDE9002104F1E8
:1042800060011E25A1F1E00202951278062301EBE0
:10429000C201091D16A201F063FEE064302002F0A5
:1042A00031FD41210091052312A1626C00F0ACFFA9
:1042B0002065282002F026FD00953C2310A1626CA9
:1042C00002F0E4FC6065216D0E4848623EBD0000CE
:1042D00084E101204D6F6E69746F720084E00120EB
:1042E0004D65617375726564207370656564000067
:1042F0002536640053746172742F53746F7000001C
:1043000072706D004D450F0870B531490024096881
:1043100009698847010E0E074FF009014FF00A02A4
:104320004FF002034FF001050ED0B1EB107F03D127
:10433000C0F303660A2E17D0B2EB107F15D1C0F37D
:104340000366092E10D010E0B1EB107F00D10124DC
:10435000B2EB107F00D10224B5EB107F02D0B3EB9B
:10436000107F33D1032431E00624B1EB107F05D157
:10437000C0F3036102290BD0012909D0C0F3036106
:10438000092906D1B3EB107F02D0B5EB107F00D125
:104390000424B2EB107F05D1C0F3036102290BD0D6
:1043A000012909D0C0F303610A2906D1B3EB107FBC
:1043B00002D0B5EB107F00D105240B21B1EB107FAB
:1043C00004D1C0F30360092800D10724204670BD42
:1043D000F4FF012010B5274801F025FB2548A8303F
:1043E00001F021FB244801F01EFB2348A83001F016
:1043F0001AFB224801F017FB2048A83001F013FBFC
:104400001F49002048608860C86008614861886171
:10441000C861086248628862C8620863486388634A
:10442000C863086448648864C8640865486588652A
:10443000C865086648668866C8660867486788670A
:10444000C8678031086048608860C860086148615A
:104450008861C861086248628862C862086348630C
:104460008863C863086448648864C86408654865EC
:1044700010BD000070E20120C0E3012010E5012022
:1044800004E00120034807210068C2680248806DEB
:1044900010470000F4FF012084E0012010B50C4615
:1044A000FFF798FF062C1CD2DFE804F003070B0F80
:1044B0001317BDE81040FEF7F3B8BDE81040FEF753
:1044C000D5B9BDE81040FEF77FBCBDE81040FEF74F
:1044D00011BFBDE81040FFF72DBABDE81040FFF74F
:1044E000A9BC10BD2DE9F047814616480E46134F72
:1044F000DFF84C80002400EB8615395D662908D072
:10450000D8F80000026848469047411C01D025F8C1
:104510001400641CE4B2202CEFD3D8F8000004216E
:10452000026848469047084941F8360095F83A2015
:1045300031464846BDE8F04700F07EB9109E0F08AE
:10454000F4FF012060E60120E4E001202DE9F047BE
:10455000414A424F424DA7F1400C2DED068B02F12E
:10456000800411782B6801EB41060CEB811017F8E1
:104570002680B8F1000F06D007EB8601C97859B143
:10458000012960D10EE0828833485B68E03050F842
:104590003110A06D984756E0B0F91820B0F914100A
:1045A0001B6A4EE0E1469046B0F93E0003F047FD3D
:1045B0009FED2C8B53EC182B03F06CFD9FED2B9B88
:1045C00053EC192B03F0B4FB41EC100B02F03CFD53
:1045D00098F80010B0EE40AA09EB8117F0EE60AA3F
:1045E000B7F93C0003F02BFD53EC1A2B03F052FDFE
:1045F00003F0F6FC06B2B7F93E0003F020FD53ECE1
:10460000182B03F047FD53EC192B03F091FB41EC01
:10461000100B02F085FD98F80010B0EE408A09EB0F
:104620008110F0EE608AB0F93C0003F008FD53EC15
:10463000182B03F02FFD03F0D3FC01B2286832469B
:10464000036AA06D984728680621C268A06DBDEC7A
:10465000068BBDE8F047104704E00120A0E60120EA
:10466000F4FF01201F85EB51B81E09400000000037
:10467000008066400D4B0C4A806A1B7802EB831267
:10468000801A0B4A400852FA80F31B78662B0AD036
:10469000C0B2105C074A126893680A460146034894
:1046A0008030806D1847704760E6012004E00120EB
:1046B000109E0F08F4FF01202DE9F041284E11F063
:1046C000FF052849307800EB400001EB80000571C0
:1046D00040D00021224C8034A06801F0BAF8C5B364
:1046E0000021E06801F0B5F8FDB11E4F3078403F81
:1046F00007EB8010B0F91C104184C28B8284028CBD
:10470000C284A06800F03EFE307807EB8010B0F95C
:104710002410E06800F036FE606930B1317807EBB4
:104720008111B1F9261000F02DFEA068012680F855
:104730002060E06880F820606069002807D06DB1D3
:104740005FF0000101F085F8606980F82060BDE845
:10475000F08101E00121BDE70121C2E70121F1E77C
:1047600004E00120A0E6012070B50D46FFF782FFAE
:104770000D480E4A017801EB410002EB8000007900
:1047800000280FD0084C8034606900280AD0403AD5
:1047900002EB8111CD84294600F01AFE60690121E7
:1047A00080F8201070BD000004E00120A0E6012088
:1047B00010B50C46FFF75EFF0C480D4A007800EB81
:1047C000400102EB8101097900290ED0A2F14001DC
:1047D00001EB801021468484044C8034E06800F0B2
:1047E000F7FDE068012180F8201010BD04E00120F1
:1047F000A0E6012010B50C46FFF73CFF0C480D4A1F
:10480000007800EB400102EB8101097900290ED00C
:10481000A2F1400101EB801021464484044C803415
:10482000A06800F0D5FDA068012180F8201010BD1F
:1048300004E00120A0E60120F8B51546094A02EB84
:104840008114094904F1380200920968931E121F6D
:104850008E692946B047E08E00EB40004000E086BC
:10486000F8BD000060E60120F4FF012038B51546D0
:10487000094A062302EB8112B2F9361091FBF3F1DB
:104880000BB2B2F9381000910449928E09684C6954
:104890002946A04738BD000060E60120F4FF012052
:1048A0002DE9F041164A054610461649007802F1F6
:1048B000800400EB400001EB80019368124E134F1F
:1048C000A06D9D420BD193F830504D70FFF71CFD49
:1048D00056F820000021425D3868C3690BE0D268B9
:1048E00092F830508D70FFF70FFD56F8200001212F
:1048F000425D3868C369E06DBDE8F04118470000CB
:1049000004E00120A0E60120E49D0F08F4FF01204F
:10491000034808210068C2680248806D1047000003
:10492000F4FF012084E001202DE9F047464D474A7D
:10493000DFF81C91A2F140062DED068B05F18004F5
:10494000287800EB400102EB810306EB8010DB7856
:10495000002B4FD0012B72D1B046B0F93E0003F0CE
:104960006EFB9FED3C8B53EC182B03F093FB9FEDFC
:104970003B9B53EC192B03F0DBF941EC100B02F0DD
:1049800063FB2978B0EE40AA08EB8117F0EE60AA2D
:10499000B7F93C0003F053FB53EC1A2B03F07AFBFE
:1049A00003F01EFB06B2B7F93E0003F048FB53ECE0
:1049B000182B03F06FFB53EC192B03F0B9F941EC02
:1049C000100B02F0ADFB2978B0EE408A08EB8110A5
:1049D000F0EE608AB0F93C0003F031FB53EC182B89
:1049E00003F058FB03F0FCFA01B2D9F8000032469C
:1049F000036A09E012F82110154A136851B1B0F9A1
:104A00001820B0F914101B6AA06DBDEC068BBDE830
:104A1000F047184719694F46A06D884780060ED5A4
:104A20002878412106EB8010B0F918203868836897
:104A3000A06DBDEC068BBDE8F0471847FFE7BDEC65
:104A4000068BBDE8F087000004E00120A0E601200D
:104A5000F4FF01201F85EB51B81E09400000000043
:104A6000008066402DE9F0473A4D3B4ADFF8EC8084
:104A7000A2F140042DED068B05F18009287800EBAA
:104A8000400102EB810104EB8010C978002954D069
:104A900001295AD1B0F93E0003F0D1FA9FED308BD5
:104AA00053EC182B03F0F6FA9FED2F9B53EC192BC8
:104AB00003F03EF941EC100B02F0C6FA2878B0EE94
:104AC00040AA04EB8017F0EE60AAB7F93C0003F0AF
:104AD000B6FA53EC1A2B03F0DDFA03F081FA06B2B2
:104AE000B7F93E0003F0ABFA53EC182B03F0D2FAFF
:104AF00053EC192B03F01CF941EC100B02F010FBE6
:104B00002878B0EE408A04EB8010F0EE608AB0F9AD
:104B10003C0003F094FA53EC182B03F0BBFA03F0BB
:104B20005FFA01B2D8F800003246036AD9F858009B
:104B3000BDEC068BBDE8F0471847B0F91820B0F976
:104B40001410D8F80000036AF0E7BDEC068BBDE84E
:104B5000F087000004E00120A0E60120F4FF01201E
:104B60001F85EB51B81E0940000000000080664020
:104B700070B54D4D4D4A2DED068BA2F140042878BD
:104B800000EB400102EB810104EB8010C97831B1E8
:104B900001294CD1B0F9141000294BD04CE0B0F9E8
:104BA0003E0003F04CFA9FED428B53EC182B03F0C0
:104BB00071FA9FED419B53EC192B03F0B9F841ECCE
:104BC000100B02F0ADFA2878B0EE40AA04EB801684
:104BD000F0EE60AAB6F93C0003F031FA53EC1A2B60
:104BE00003F058FA03F0FCF9B082B6F93E0003F086
:104BF00026FA53EC182B03F04DFA53EC192B03F063
:104C000097F841EC100B02F01FFA2878B0EE408ABA
:104C100004EB8014F0EE608AB4F93C0003F00FFA64
:104C200053EC182B03F036FA03F0DAF92083BDECCD
:104C3000068B70BD028B82B3008B494310FB0010C2
:104C400000EE100AB8EEC00A02F053F8BDEEC00A3A
:104C5000287810EE101A04EB80108187B0F9181034
:104C6000B0F9140000EE101AF8EEC00A00EE100AB7
:104C7000B8EEC00A02F03FF8DFED110A297820EE05
:104C8000200ADFED100A04EB811180EE201ABDEE40
:104C9000C10A10EE100AC887C9E7FFE70021818723
:104CA0005A21C187C3E7000004E00120A0E60120EB
:104CB0001F85EB51B81E09400000000000806640CF
:104CC00000003443C3F548402DE9F041204D224E09
:104CD00005F180042978686801EB41021D4990F8CC
:104CE000300001F82200012807D001211B4800F004
:104CF000E1FD30680122836825E030680221026806
:104D0000A06D9047C0B930680921C268A06D904776
:104D1000306829210268A06D90470E4F2978403FE6
:104D200007EB8111888230682A210268A06D9047C4
:104D3000297807EB811108830021084800F0BAFDAB
:104D4000306800228368A06DBDE8F0410321184758
:104D500004E00120A0E60120F4FF0120C0E30120CF
:104D600009480849007801EB80118A880649E0313A
:104D700051F8301005480068436803488030806D62
:104D80001847000060E6012004E00120F4FF012044
:104D90002DE9F0413B4C3C4F04252078A7F140061B
:104DA00000EB400007EB800047F6FF78C07810B1B9
:104DB000012836D13EE035A1206E01F062FF35A119
:104DC000E06E01F05EFF2178606E06EB811202F169
:104DD000140180F833508162216F18322F4E81F810
:104DE00033508A6245464246314600F0E7FB2A4688
:104DF0003146206F00F0E2FB207800EB400017F80E
:104E0000200050B92648006801691E488030806D36
:104E10008847800601D4002100E00121206F00F0C6
:104E200018FD616E012081F82000216F81F82000BB
:104E3000BDE8F0811BA1206E01F023FF1BA1E06EF5
:104E400001F01FFF2178606E06EB811202F13C0138
:104E500080F833508162236F891C424683F83350B7
:104E60009962002100F0AAFB40F267120021206F36
:104E700000F0A4FB207800EB400017F82000002889
:104E8000CBD1C8E704E00120A0E6012049712072DF
:104E900065662E004964207265662E000180FFFF62
:104EA000F4FF0120416D702E202020004570732EEC
:104EB0004465670008460D4910B50B4A09780B4C4C
:104EC00002EB811280345087C2B2A06DFFF7B4FCB0
:104ED000216B012081F82000616B81F82000A16B1B
:104EE00081F8200010BD000060E6012004E00120F0
:104EF0000748064A007802EB801291860146044872
:104F000092F83A208030806DFFF7B0BC60E6012057
:104F100004E00120094910B508488039084A097899
:104F2000C06901EB410102EB810190F83000C870CB
:104F3000FFF71EFEBDE81040FFF72ABF84E0012006
:104F4000A0E601200748064A007802EB8012D186CD
:104F50000146044892F83A208030806DFFF786BC05
:104F600060E6012004E001200748064A007802EBD1
:104F7000801211870146044892F83A208030806DF3
:104F8000FFF774BC60E6012004E001200146002028
:104F90000A5C401CC0B2002AFAD17047F8B504463A
:104FA000406A0028204615D001F04CFA06462046FB
:104FB00001F026FA0546204601F0C1F907462046D1
:104FC00001F0BDF981B200963A0C2B46606A00F000
:104FD0004FFBF8BDBDE8F84001F019BA2DE9F041EA
:104FE00006AD1E4617460C460ECD00F039FC0546B0
:104FF0000748286032463946284601F0FAF96C62C3
:1050000014B1012085F820002846BDE8F081000099
:10501000E8BD0F0801F071BE10B5002400F0E9F8FA
:1050200000B10124204610BD70B5426A0D46044609
:105030004AB194F82C0030B12DB994F8210010B188
:1050400000212046904784F82C5070BD70B5002494
:105050000546052906D10021FFF7E6FF284601F0A5
:105060008DF90124284600F0C4F800B1012420463F
:1050700070BD2DE9FC5F0646C069C1888588891D21
:105080008CB2B06AFBF77AFB4543ED1DA9B222460C
:10509000304601F0AEF9304601F051F985B23046A4
:1050A00001F04DF9040C304601F0CCF9801E87B2B6
:1050B000304601F0A5F9801E1FFA80F8B6F81A9064
:1050C000304601F0BFF90190304601F099F983466E
:1050D000304601F034F98246304601F030F94FEAAB
:1050E0001A4180B2CDF800905A46019B00F060FB57
:1050F000304600F07EF840B3304601F020F9801CC5
:1051000085B2304601F01BF90014801C84B2B6F859
:105110001A90304601F096F9401E82B2CDF8009008
:10512000A4F10109681E1FFA89F180B2012300F081
:105130001DFBB6F81AA0304601F062F9801E82B25B
:105140001FFA89F1CDF800A011E0708B0090601C6F
:1051500081B205EB080080B201233A4600F006FB5D
:10516000708B009008F1020082B2E01981B2002336
:10517000284600F0FBFA708B00903B4642462146E1
:10518000284600F015FB308B0090F81E82B2A01C60
:10519000814681B2A81C80B2012300F0E7FA96F89C
:1051A000210008B11F2000E0308B0090A8F1020020
:1051B00082B2BF1E641C681CBBB2A1B280B200F0F8
:1051C000F7FAB26AED1C02B01FFA89F1A8B2BDE885
:1051D000F05F00F02BBB10B504460020052907D175
:1051E00001212046FFF720FF204601F0C7F80120EB
:1051F00010BD90F82C1021B190F8210008B10120C9
:10520000704700207047000070B51C4616460D46DA
:1052100022463146049B00F023FB0849016000212F
:10522000416280F82C100446012100F012FB01219C
:10523000A562204684F8201070BD00000CBE0F0847
:1052400001F05BBD70B5C46A0D4604B911A490F8B5
:105250003310062919D2DFE801F0180303070B0FFA
:1052600000F063F802460AE000F05FF882B206E060
:1052700000F05BF802B202E000F057F8C2B221463B
:105280002846BDE87040FBF747B800F04EF842B240
:10529000F5E700002564000070B50E4604460025C1
:1052A00000F0A2FD28B3A06A10B3012E02D0022E96
:1052B0001ED10DE094F83200218EFF280144218692
:1052C00002D0401C84F83200204600F05DF90CE06A
:1052D00094F83200218EFF280144218602D0401C20
:1052E00084F83200204600F006F8204601F046F827
:1052F0000125284670BD10B5024600F016F801469B
:10530000B2F93000B2F93430091A8B4206DD801050
:10531000108692F83200800882F8320092F833004A
:10532000BDE81040104600F02DB890F83310806AA8
:1053300006290DD2DFE801F00C030305070A006817
:10534000704700887047B0F90000704700787047D8
:1053500090F90000704770B50E460446002500F035
:1053600043FD00B10125052E08D194F8230038B182
:10537000002084F82300204601F000F8284670BD84
:105380000120F6E710B50246806A00281FD0B2F966
:1053900034308B421BDCB2F936308B4217DB92F88B
:1053A0003330022B04D0042B04D049B2017002E048
:1053B000016000E00180506A002808D01046FFF725
:1053C000B4FF536A0146BDE810401046184710BDAF
:1053D00010B50246806A002814D0938E8B4211D8F3
:1053E000D38E8B420ED392F833300170506A00286E
:1053F00008D01046FFF799FF536A0146BDE81040F8
:105400001046184710BD2DE9F0418AB0044620210E
:1054100001A8FBF7D2F9658B204601F013F880460E
:10542000204600F0EDFF0646204600F088FF0746C4
:10543000204600F084FF390C80B243463246009586
:1054400000F0B6F9258B204600F0FCFFC01E87B2A5
:10545000204600F074FF0646204600F070FF31142D
:10546000891C801C89B280B201233A46009500F065
:105470007DF994F82100A0B1204600F0E3FF801EE2
:1054800087B2204600F0BCFF801E86B2204600F0A6
:1054900056FF0546204600F052FF1F2100912914B7
:1054A00014E0258B204600F0CDFF801E87B22046F9
:1054B00000F0A6FF801E86B2204600F040FF804626
:1054C000204600F03CFF4FEA28410095491C401C53
:1054D00089B280B23B46324600F06AF9204600F0BD
:1054E00083FC50B194F8210038B14FF6E070ADF86C
:1054F0000000BDF80000FCF7B3F994F8220038B9B9
:1055000047F6FF70ADF80000BDF80000FCF7A8F901
:10551000A06A002812D001A92046FFF793FE20467A
:1055200000F00DFF0546204600F009FF2914891CF4
:10553000C01C89B280B201AA00F078F90AB0BDE8B7
:10554000F08170B50E460446002500F04DFCC8B150
:10555000A06AB0B100200121012E02D0022E10D18C
:1055600006E0218684F83200204600F00DF805E0C0
:10557000218684F832002046FFF7BDFE204600F069
:10558000FDFE0125284670BD10B50246FFF7CDFE91
:105590000146B2F93000B2F9363001448B4206DAE6
:1055A0008010108692F83200800882F8320092F85B
:1055B0003300BDE810401046FFF7E4BE8186C28686
:1055C000704700002DE9F04106AC1D4617460E4617
:1055D0000ECC00F013FC0F4901600221044680F854
:1055E00033100121C4E90A670186C069C188808837
:1055F000091D68438AB2401D81B2204600F0F9FEC1
:1056000048F20101A186891EE186002120466162DF
:10561000BDE8F08134BE0F082DE9F04106AC1D460F
:1056200017460E460ECC00F0E9FB0F49016004213D
:10563000044680F833100121C4E90A670186C06975
:10564000C1888088091D68438AB2401D81B2204606
:1056500000F0CFFE48F20101A186891EE1860021FB
:1056600020466162BDE8F08134BE0F0801F045BB01
:1056700038B5049C0094FCF731F838BD2DE9FC41A5
:105680000F461349DDF820801C4609881600A1EB5F
:105690000000A0F1010085B218D001A96846FCF70E
:1056A00005F84046FCF718F907E03846791C8FB238
:1056B000002332462946FBF7BFFF2000A4F1010476
:1056C000A4B2F2D1BDF80000FCF706F9BDE8FC81F8
:1056D0004AE1012010B5FCF7AFFE4FF6FF742046FB
:1056E000FBF7F4FE2046FCF7BBF8BDE810400020B5
:1056F000FCF7F2B82DE9F04190460E460446054607
:10570000FBF7E2FF184F012803D13888001B401E29
:1057100085B2FBF7D3FF808839882044884221D89E
:10572000FBF7CCFF8088062804D1FBF7C7FFC088B1
:10573000082806D0424629463046BDE8F041FBF72E
:1057400023BFFBF7BBFF0468FBF7B8FF8188A8F114
:105750002000414304EB4102F0B22946BDE8F0418C
:10576000FBF768BFBDE8F0814AE101202DE9FC416B
:105770000E460E49984614460988089F081A401E8E
:1057800085B201A96846FBF791FF3846FCF7A4F8FB
:1057900034B1641EA2B2434629463046FBF74CFFA3
:1057A000BDF80000FCF798F8BDE8FC814AE1012053
:1057B0002DE9FC4188461C49089F1C4609881500B4
:1057C000A1EB0000A0F1010086B22BD0002C29D063
:1057D00001A96846FBF76AFF3846FCF77DF86F1EA3
:1057E000BAB2002331464046FBF726FF08EB04001F
:1057F000401EBAB280B200233146FBF71DFF601E87
:1058000082B2012331464046FBF716FF701B401C55
:1058100081B2012322464046FBF70EFFBDF800008F
:10582000FCF75AF8BDE8FC814AE1012070B5144646
:105830000E46054609E031462846FFF75BFFFBF7B9
:105840003DFF8088641C284485B22278002AF2D16A
:1058500070BD80F82210002901D180F82110704716
:105860002DE9FF411F46944600240D460646234677
:105870003A46614601A8009400F048FD02462946D8
:10588000304600F01BFE0449016080F8224080F899
:10589000214004B0BDE8F08158BE0F0801F02DBAD8
:1058A00000224274002904D090F82120002A00D060
:1058B0004174704780F82110002900D1417470476D
:1058C00000F0A5BD70B50C4600F0D0FD05460948B6
:1058D000286054B1204600F0B5FD0246A089218918
:1058E000401A81B2284600F084FD012085F821008D
:1058F000284670BD7CBE0F082DE9F04186B00F46EA
:10590000DDE90C4580461E46114602A800F0F4FC75
:105910000246334639464046CDE9004500F0FAFDDF
:1059200003490160012180F8211006B0BDE8F08133
:105930007CBE0F0810B500F013FE03490160012181
:1059400080F8211010BD00007CBE0F0870B50D4618
:10595000044600F023FE95F8210084F8210020463B
:1059600070BD002909D0B0F8A620202A05D200EB8E
:105970008203521CA0F8A6205962704770B50C46ED
:10598000054600F01DF801684A6921469047002845
:1059900007D1012C06D0022C03D1284600F075F85F
:1059A000012070BD284600F08BF8F9E710B50B46D2
:1059B00000F006F801688A69BDE8104019461047F2
:1059C000B0F8A620B0F8A4108A4203D900EB8100F9
:1059D000406A70470020704770B50446B0F8A600D2
:1059E0000E46B0421ED92046FFF7EAFF002580F898
:1059F00021502046FFF7E4FF00F0C0FCA4F8A460AB
:105A00002046FFF7DDFF80F8215090F82220012189
:105A10000AB180F821102046FFF7D2FFBDE87040A0
:105A200000F0ACBC70BD70B50546002408E005EB85
:105A30008400406A10B1016849688847641CE4B278
:105A4000B5F8A600A042F2D8002025F8A40F68807F
:105A500070BD70B5054690F8200010B1284600F0E2
:105A60008DFCB5F8A60000280ED0002408E005EB58
:105A70008400406A90F8201009B100F07FFC641C9B
:105A8000B5F8A600A042F2DC70BD30B4B0F8A63084
:105A9000002B13D0B0F8A4100A46491C8B4200D842
:105AA00000218A4206D000EB8104646A94F8224007
:105AB000002CF2D030BC89B2FFF78EBF30BC7047EB
:105AC00030B4B0F8A620002A12D0B0F8A4100B46CB
:105AD00001B91146491E8B4206D000EB8104646A6D
