:02000004080FE3
:10000000E8ED01207D020F085D521A00B9020F08C9
:1000100089020F088B020F088D020F0800000000F4
:100020000000000000000000000000008F020F0828
:1000300091020F080000000093020F0895020F08BC
:1000400097020F0897020F0897020F0897020F08F0
:1000500097020F0897020F0897020F0897020F08E0
:1000600097020F0897020F0897020F0897020F08D0
:1000700097020F0897020F0897020F0897020F08C0
:1000800097020F0897020F0897020F0897020F08B0
:1000900097020F0897020F0897020F0897020F08A0
:1000A00097020F0897020F0897020F0897020F0890
:1000B00097020F0897020F0897020F0897020F0880
:1000C00097020F0897020F0897020F0897020F0870
:1000D00097020F0897020F0897020F0897020F0860
:1000E00097020F0897020F0897020F0897020F0850
:1000F00097020F0897020F0897020F0897020F0840
:1001000097020F0897020F0897020F0897020F082F
:1001100097020F0897020F0897020F0897020F081F
:1001200097020F0897020F0897020F0897020F080F
:1001300097020F0897020F0897020F0897020F08FF
:1001400097020F0897020F0897020F0897020F08EF
:1001500097020F0897020F0897020F0897020F08DF
:1001600097020F0897020F0897020F0897020F08CF
:1001700097020F0897020F0897020F0897020F08BF
:1001800097020F0800F002F800F068F80AA090E863
:10019000000C82448344AAF10107DA4501D100F042
:1001A0005DF8AFF2090EBAE80F0013F0010F18BFA7
:1001B000FB1A43F00103184794C90000B4C90000BA
:1001C000103A24BF78C878C1FAD8520724BF30C883
:1001D00030C144BF04680C60704700000023002455
:1001E00000250026103A28BF78C1FBD8520728BF47
:1001F00030C148BF0B607047692900F00181642954
:1002000000F0FE80752900F0FB806F2900F09281DC
:10021000782900F0BB810368DB0928BF41F0800129
:10022000632900F0F083E32900F003840020704785
:100230001FB59DE8030000F05DFC00F0E9FC040040
:100240000020002107F024FD401C606000F0DCFA73
:100250001FBD10B5002006F059FF10BD00F0B2FC24
:100260001146FFF7E5FF07F09FFC00F0EFFC03B439
:10027000FFF7EFFF03BC00F09FFC00000948804738
:1002800009480047FEE7FEE7FEE7FEE7FEE7FEE778
:10029000FEE7FEE7FEE7FEE704480549054A044B92
:1002A00070470000452A0F0885010F0810E701205C
:1002B000E8ED0120E8ED012000B5FFB441464A46D3
:1002C00053465C4665463EB40D496A460A600D4990
:1002D00008600D4988473EBC884691469A46A34629
:1002E000AC46FFBC00BD064801688D463EBC884652
:1002F00091469A46A346AC46FFBC044800BD0000A8
:10030000F0FF0120F4FF01208D010F0884C40F08C5
:100310000FB41CB5074B06AA7B44694600900598AC
:1003200000F04FFB0020694600F05EFB1CBC5DF84E
:1003300014FB0000CD06000070B504468569006816
:10034000C10601D5302600E02026C00708D070BDC8
:10035000D4E9012130469047206A00F10100206273
:100360006D1EF5D570BD70B5044685690078C0076F
:1003700008D170BDD4E9012120209047206A00F106
:10038000010020626D1EF5D570BD09684A0501D5D2
:1003900040B27047C905FCD500B2704709684A05EC
:1003A00001D5C0B27047C905FCD580B2704770B5A1
:1003B0000C460546012A05D02878800600D5EA6952
:1003C000002302E0012305E05B1C934202D2E05CC3
:1003D0000028F9D1A869E618C01AA861286A18444B
:1003E00028622846FFF7A8FF04E0D5E9012114F8A8
:1003F000010B9047B442F8D32846FFF7B4FF70BD15
:100400002DE9F0410646002410687529314616A5ED
:1004100011D0FFF7BAFF002803DAC0F1000013A5DE
:1004200007E031688A0701D511A502E0490704D524
:1004300010A5012401E0FFF7B1FF00210A2306F116
:10044000240707E0B0FBF3F203FB120030307854CE
:100450001046491C0028F5D123462A463046BDE8FF
:10046000F04100F04CBA0000000000002D00000038
:100470002B000000200000002DE9FF5F15468A4692
:100480000446DFF8AC80F8440027D8E900103E4667
:10049000CDE9001011E03AF816106A4602A800F003
:1004A000D4FA411C07D02178890603D5E2693918AE
:1004B00091420ED8074406F101062078800602D545
:1004C000E069B84205DDAE42E5DB3AF816000028E7
:1004D000E1D1A069C01BA0612046FFF72DFFD8E93C
:1004E0000010CDE90010002016E03AF818106A4616
:1004F00002A800F0AAFA8146401C0BD000250DF19D
:10050000080B05E0D4E901211BF8050090476D1C9C
:100510004D45F7D308F10100B0428046E5DB206A83
:10052000384420622046FFF71EFFBDE8FF9F000011
:100530000AC0000070B5044621461068FFF72EFF80
:10054000002104F1240508E000F0070202F1300266
:100550006A5401F101014FEAD0000028F4D10346AA
:10056000206808A2050708D500F02000084304D041
:10057000E069012304A2401EE0612046BDE870400E
:1005800000F0BDB9000000003000000070B5044666
:100590000D4621461068FFF701FF2188090502D5A5
:1005A000104A7A4402E00F4A7A440E32002104F1E4
:1005B000240307E000F00F064FEA1010965D5E542A
:1005C00001F101010028F5D103462078000704D588
:1005D000702D02D009B1113202232046BDE87040CF
:1005E00000F08DB9F6BE00002DE9F05F89460446A3
:1005F0004FF0000ADFF878B1FB44C0F820A0204695
:10060000E1688847002875D0252806D0D4E9012163
:100610009047206A401C2062F1E700265F46204692
:10062000E16888472028054608DB312D06D207EB14
:10063000050010F8200C08B10643F0E7B00701D51B
:1006400026F00406C4F81CA00027C4F818A02A2D20
:1006500009D0284607F004F938B304EB8708303D89
:10066000C8F8185019E059F8041B204604EB87021B
:100670009161E1688847012F054618D1E06900289B
:1006800020DA26F020061DE0D8F8180000EB8000E4
:1006900005EB40003038C8F818002046E16888476C
:1006A000054607F0DDF80028EED1012F0AD02E2DE7
:1006B00008D12046E16888477F1C0546022F46F096
:1006C0002006C4DBA069002803DA404246F0010698
:1006D000A061F00701D026F010066C2D0BD0682D1C
:1006E00009D04C2D39D06A2D35D0742D35D07A2DC6
:1006F00033D016E038E0E1682F4620468847B842FC
:10070000054609D16C2F26D04FF48060E16806437E
:1007100020468847054604E06C2F1AD04FF48070BD
:1007200006430DB3A5F14100192802D8203546F43F
:1007300000664A462946204626604E46FFF75CFD85
:1007400080B101280BD0F61D26F0070000F1080942
:1007500055E74020E4E78020D8E70020D6E706F1FF
:1007600004094CE7284651E7206ABDE8F09F0000E5
:10077000C8BE000010B5431C02E010F8011B71B1A7
:100780008107FAD14FF0013202C88C1A8C4314EA67
:10079000C211F9D0C01A0A0603D0C01E10BDC01A7B
:1007A00010BD0A0401D0801E10BD0902FCD0401EFD
:1007B00010BD4FF0000200B513469446964620390E
:1007C00022BFA0E80C50A0E80C50B1F12001BFF40A
:1007D000F7AF090728BFA0E80C5048BF0CC05DF870
:1007E00004EB890028BF40F8042B08BF704748BFBE
:1007F00020F8022B11F0804F18BF00F8012B704732
:10080000704770477047000070B5064C7C44064D39
:100810007D4403E0206820448047241DAC42F9D188
:1008200070BD00006CC400006CC40000004870473C
:10083000E4E6012000487047E8E6012070B506466E
:1008400000F038F9056806F10B0020F00704B44207
:100850009CBF002070BD2B466A68BAB11068A042E8
:1008600010D304F1080188423CBF5068586007D398
:100870005168101941601168091B016058601460CB
:10088000101D70BD13465268002AE7D12146284644
:1008900000F01CF90028DED170BD70B50446051FBC
:1008A00000F008F90068002C14BF446870BD002CEB
:1008B00018BFAC423CBF20466468F8D301680A18F0
:1008C000AA4218BF456003D12A6805461144016059
:1008D00028684119A1421CBF6C6070BD61686960E5
:1008E00021680844286070BD10B500F0E7F8006882
:1008F00010BD10B5044600F0E1F8046010BD2DE90C
:10090000F0470D4699469246044600F124080168D6
:10091000880604D5E06921F01001216000E0012083
:10092000A84202DDA0EB050700E00027A16907EB64
:10093000050202EB0900A1EB0000A0612078C006CF
:1009400002D42046FFF7F8FC002608E0D4E9012194
:100950001AF806009047206A401C761C20624E451B
:10096000F4DB2078C0060AD52046FFF7E5FC06E058
:10097000D4E9012130209047206A401C2062381EB3
:10098000A7F10107F4DC07E0D4E9012118F805001C
:100990009047206A401C2062281EA5F10105F3DC67
:1009A0002046FFF7E0FC2078000602D50220BDE8D3
:1009B000F0870120FBE7000001694A1C026108780A
:1009C000704700B58FB0CDE901310021059105498F
:1009D0007944CDE9031011466846FFF705FE0FB0D4
:1009E00000BD0000E5FFFFFF0A6802F8010B0A6086
:1009F000704710B5436913B1AFF3008001E0FFF712
:100A0000D6FC012010BD127800F124010A700022EA
:100A10004A700122EDE711684FF0FF32E9E710B5A7
:100A2000436913B1AFF3008001E0FFF725FD01201A
:100A300010BD128800F1240182840022C2840122A8
:100A4000EDE711684FF0FF32E9E770B516460C4646
:100A5000054600F027F8036893F80101012806D045
:100A6000FF2C0FD8185D68B101202C7070BDD3F831
:100A700007013246214603442846BDE8704003F290
:100A8000071318474FF0FF3070BD10B500F06EF837
:100A9000BDE8104000F064B800F080B8004870472E
:100AA000B0E6012010B500F0B3F8001D10BD00BF86
:100AB000E171000000487047B8E601200048704727
:100AC000B0E60120704770477047704738B504465C
:100AD0000A4600206946AFF30080002808BF38BDF1
:100AE00002460099204600F097F8012038BD012009
:100AF00000F0D3B8F8B5AFF30080054600200C46EF
:100B0000102000BF0646A819A0420DD932466946FA
:100B10000020AFF30080070008BF00F0BEF8009887
:100B2000A04218BF0546C419FFF7C4FF0560074679
:100B3000F01D20F007004619284600F00AF8B442DC
:100B400008BFF8BDA21B31463868BDE8F84000F088
:100B500063B800210160C0E90110704710207047A0
:100B6000002801D000F028B87047000010B500211F
:100B700002A000F079F8012010BD00005349475051
:100B800056464E3A205075726520766972747561CA
:100B90006C20666E2063616C6C65640010B500F0BB
:100BA00086F8016919B100220261884701E0806876
:100BB000804700F051F8000001491820ABBEFEE765
:100BC000260002007546FFF769FFAE46050069463C
:100BD000534620F00700854618B020B5FFF75CFBB0
:100BE000BDE820404FF000064FF000074FF000082E
:100BF0004FF0000B21F00701AC46ACE8C009ACE8AF
:100C0000C009ACE8C009ACE8C0098D4670470000D7
:100C100000487047D0E60120034640688C46002813
:100C200018BF88423CBF03464068F8D31868184490
:100C3000884207D00CF1030020F00700001D411A84
:100C4000521A0146081D0A60FFF727BE0446AFF39B
:100C500000802046FFF70BFB002000F059F8FFF75B
:100C6000F8FA0120FFF7A8FF70B505460C460A20E8
:100C700000E06D1C00F040F835B128780028F8D16C
:100C800002E0641C00F038F814B120780028F8D194
:100C9000BDE870400A2000F02FB810B500F040F811
:100CA000BDE81040FFF75CBF10B5FFF7D5FF70B58A
:100CB00000F02AF804680546A4B92020FFF7BEFD1D
:100CC000040011D0094900202C60C4E90001084942
:100CD000A1602073206160610649A06109B100F044
:100CE00087F8E061204670BDFFF7B6FF0000000006
:100CF000A90C0F080000000008B569468DF8000037
:100D00000320ABBE08BD704700487047ECE60120E9
:100D100010B500F08BF8BDE81040FFF721BF0000D0
:100D200010B5012805D0002103A0FFF79DFF012089
:100D300010BD09A1F8E7000053494752544D454DF5
:100D40003A204F7574206F662068656170206D656C
:100D50006D6F7279000000003A2048656170206D67
:100D6000656D6F727920636F72727570746564005F
:100D70004FF0013C50F8042B51F8043B9A4221D12A
:100D8000A2EB0C03934313EACC1317D150F8042BB6
:100D900051F8043B9A4215D1A2EB0C03934313EA9A
:100DA000CC130BD150F8042B51F8043B9A4209D1D3
:100DB000A2EB0C03934313EACC13DBD04FF00000FB
:100DC000704700BFD01A01BAB1FA81F101F01801E1
:100DD00022FA01F0CB40C1F12001DBB2C0B2C01A4F
:100DE0002CFA01F3D11A914311EAC311E6D17047ED
:100DF00010B58820FFF722FD002801D000210170E6
:100E000010BD802902D808B1017809B100207047CF
:100E1000012100F8081B704718B100F10802914247
:100E200001D00020704700210170704710B50021EB
:100E300002A0FFF719FF012010BD000053494741F0
:100E40004252543A2041626E6F726D616C2074653B
:100E5000726D696E6174696F6E000000074A90429E
:100E600001D2074801E005481038064A8B0001EA24
:100E7000020101D5C1607047816070471064024073
:100E8000006002407D0F7D0F0029016802D041F013
:100E9000010101E021F00101016070472DE9F043FB
:100EA000016821F001010160002101604160816061
:100EB000C1600161212141613C493C4A3D25103915
:100EC000904202D18D60BDE8F083384A4FF47466D9
:100ED0001832904201D18E60F5E7344A4FF474170E
:100EE0003032904201D18F60EDE7304A4FF0746CA0
:100EF0004832904202D1C1F808C0E4E72B4B2C4A9B
:100F00006033984201D1CA60DDE7284C294B783420
:100F1000A04201D1CB60D6E7DFF89080264C08F1E3
:100F20009008404501D1CC60CDE7DFF880804FF0DC
:100F30003D5908F1A808404502D1C1F80C90C2E71C
:100F40001E49DFF878800839404501D10D60BAE7C5
:100F50001A4D1835A84201D10E60B4E7174D30354F
:100F6000A84201D10F60AEE7144D4835A84202D126
:100F7000C1F800C0A7E7114D10496035091FA8420C
:100F800001D10A609FE70D4A7832904201D10B608F
:100F900099E70A4A9032904201D10C6093E7074AE0
:100FA000A83290428FD1C1F800908CE710600240C7
:100FB0003D000020400F002000003D201064024052
:100FC0000246094B00209A4201D2084A01E0064A33
:100FD000103A8B0001D5526800E01268044B1A40A9
:100FE0000A4200D0012070471064024000600240B5
:100FF0007D0F7D0F30B50368124ACC6813400A6834
:101000002243D1E905452C432243CC6922430C6A93
:1010100022434C6A22438C6A22434C6B22438C6BE2
:1010200022431A430260426922F00703D1E90B24EC
:1010300022431A4342610A6942604A6882608968B1
:10104000C16030BD3F801CF030B51A498379026819
:1010500053B30B6893430B600A1D13680468A343E2
:10106000136002790A441368046823431360114A29
:10107000083213680468A3431360131D1C680568D5
:10108000AC431C604479102C05D021440A680068E8
:1010900002430A6030BD1168046821431160196879
:1010A00000680143196030BD00790844016891432C
:1010B000016030BD003C01404FF0204202EB800057
:1010C0000029016802D041F0010101E0014A11400C
:1010D00001607047FEFF0F0030B5D0E901121143E7
:1010E000D0E903231A43114342690368114382691B
:1010F0001143C2691143026A1143426A1143826A71
:101100001143C26A1143026B11434FF0204242F86F
:1011100023108168082906D1016802EB81010B6860
:1011200043F040030B60416BD1E9003443EA041300
:101130008C688D89240244EA054423430C8A43EADF
:1011400004530C7D896943EA04630B43016802EB95
:1011500081014B60C16AB1F5804F07D000686FF024
:10116000704102EB8000C0F8041130BD816B006853
:10117000D1E9003443EA04138C680D8A240244EA5E
:10118000055423430C7D896943EA046302EB800024
:101190000B43C0F8043130BDF0B500230124032710
:1011A0000D6804FA03F21540954242D1D0F800C010
:1011B0005E0007FA06F52CEA050CC0F800C091F8AD
:1011C00004C0D0F800E00CFA06FC4CEA0E0CC0F8A3
:1011D00000C091F804C0BCF1010F02D0BCF1020FB5
:1011E0001FD1D0F808C02CEA050CC0F808C091F84F
:1011F00005C0D0F808E00CFA06FC4CEA0E0CC0F86A
:1012000008C0D0F804C02CEA020CC0F804C0426840
:1012100091F806C00CFA03FC1FFA8CFC42EA0C029F
:101220004260C268AA43C260CA79C568B2402A4314
:10123000C2605B1C102BB3D3F0BD4B07DB0E9A4092
:10124000C90810B500EB8100016A0F249C40A1433E
:101250000162016A1143016210BD02460020126959
:101260000A4200D00120704702460020938A128B68
:1012700043EA024323F07F42914300D101207047AB
:101280000029818802D041F4006101E021F400616D
:10129000818070470029818802D041F4805101E0AB
:1012A00021F48051818070470029018802D041F4E7
:1012B000807101E021F4807101807047002901886C
:1012C00002D041F4007101E021F400710180704707
:1012D0000CB50246002000920A0F21F07F410192D6
:1012E00002D0009A143202E0009A090C18320092DF
:1012F00012680A4200D001200CBD00007FB50446F0
:1013000080880D4620F03F06684601F089F826499E
:101310000298B0FBF1F189B20E43A680228822F038
:1013200001022280214B2A689A421BD85200B0FB4E
:10133000F2F080B2042800D20420491C2184A0834A
:10134000208840F00100208021884FF6F5300140D0
:10135000A8886A89104308432080A88929890843FE
:1013600020817FBDEB88A3F53F46FF3E05D102EB10
:101370004202B0FBF2F080B208E002EBC20303EBE2
:101380000212B0FBF2F080B240F48040020501D1BD
:1013900040F001004FF4967251434FF47A72B1FB62
:1013A000F2F140F40040C8E740420F00A08601007F
:1013B0002DE9F84F824600208946009069460120B9
:1013C00000F0D0F9504D01212846FFF763FF0121BD
:1013D0002846FFF769FF4D4C4FF440564C4F66606E
:1013E00004E06068401E6060401C7CD0394628469E
:1013F000FFF76EFF0028F4D000225146284600F087
:101400008FF8DFF81081666004E06068401E60605D
:10141000401C77D041462846FFF726FF0028F4D02D
:101420004946284600F084F8DFF8E480DFF8E090D1
:1014300008F17F0809F10309666004E06068401E56
:101440006060401C5ED041462846FFF741FF28B946
:1014500049462846FFF73CFF0028EFD001212846E7
:10146000FFF722FF666004E06068401E6060401C79
:1014700048D039462846FFF72BFF0028F4D0012238
:101480005146284600F04CF86660234E04E0606840
:10149000401E6060401C35D031462846FFF7E4FE10
:1014A0000028F4D001212846FFF7EAFE1B4E012157
:1014B0003046FFF7E9FC164F4FF4C0401F3760601D
:1014C00004E06068401E6060401C1BD03946304616
:1014D000FFF776FD0028F4D001212846FFF7EEFE45
:1014E0000021304600E00DE0FFF7CEFC0021284649
:1014F000FFF7C6FE39463046FFF7B0FC9DF8000006
:10150000BDE8F88F0220FBE70054004028E10120ED
:10151000010000108200070002000300106002407A
:1015200012B141F0010101E001F0FE0101827047BA
:10153000018270472DE9F84F8A4680464FF0000936
:101540008DF800206946484600F00CF93D4D012118
:101550002846FFF7A9FE3C4C4FF440563B4F6660CF
:1015600004E06068401E6060401C68D03946284630
:10157000FFF7AEFE0028F4D0002241462846FFF7D0
:10158000CFFF334F666004E06068401E6060401C1F
:1015900055D039462846FFF767FE0028F4D051465B
:1015A0002846FFF7C5FF294FDFF8A0807F3708F1F5
:1015B0000308666004E06068401E6060401C3ED026
:1015C00039462846FFF784FE28B941462846FFF7EA
:1015D0007FFE0028EFD001212846FFF751FE1D4F66
:1015E00001213846FFF750FC66601B4E04E060683E
:1015F000401E6060401C22D031463846FFF7E0FCB8
:101600000028F4D04FF4C04060604446214628468C
:10161000FFF75EFE0028F9D001212846FFF74EFEB5
:1016200000213846FFF730FC00212846FFF728FE4E
:1016300031463846FFF712FC4846BDE8F88F0220D5
:10164000FBE700000054004028E1012001000010E9
:1016500082000700A0600240000020201FB500F0BB
:10166000CBF80020ADF80400ADF808004FF480601E
:10167000ADF80A000001ADF80C004BF6FF713748D9
:10168000ADF80610009069463548FFF737FE822016
:1016900000F048F910B1042004B010BD882000F01B
:1016A00041F908B10520F7E7822000F07BF9882096
:1016B00000F078F901220721822000F08BF8012246
:1016C0001146822000F01BF901221146822000F011
:1016D000DFF80021012000F0F5F900220C2188201C
:1016E00000F00DF901220C21882000F0D1F803222E
:1016F0000C21882000F0DEF800F064F901220D21B1
:10170000882000F067F801220421882000F0F7F813
:1017100000220121882000F0F2F801220521882012
:1017200000F0B6F80021042000F0CCF900210120DF
:1017300000F0C8F90022F821882000F0E0F801222A
:10174000F821882000F0A4F80322F821882000F076
:10175000B1F800F095F900209EE70000A086010096
:101760000054004030B50D46044601218FB04805B5
:1017700000F01AFE4FF0007000901448CDE901050A
:1017800000210015CDE905100420CDE90A100791CC
:10179000089109910C910D910E91012C0FD0002C04
:1017A0000BD1402003900120094C04902046FFF704
:1017B00075FB69462046FFF71DFC0FB030BD0220C7
:1017C000034CCDE90310903CF0E7000010540040BA
:1017D000A060024070B50C46164605460421FFF78E
:1017E000E7FD0EB1A04300E0204302460421284655
:1017F000FFF7A0FE002070BD7CB501214C052046FE
:1018000000F0EAFD01214FF4817000F0CDFD0121CF
:10181000880300F0F9FD0121204600F0E9FD0021D8
:10182000204600F0E5FD4020009002208DF80400E5
:101830008DF8050001208DF80600134D00248DF869
:10184000074069462846FFF7A7FC681500906946DF
:101850002846FFF7A1FC042206212846FFF7EDFCED
:10186000042209212846FFF7E8FC042000908DF8A7
:1018700004408DF8074069460448FFF78DFC0221BB
:10188000082001F07FF87CBD0004024000200240E7
:1018900070B50C46164605461721FFF789FD0EB1B7
:1018A000204300E0A043024617212846FFF742FEEE
:1018B000002070BD2DE9F0410D4616460746162161
:1018C000FFF776FD044615213846FFF771FD20EA43
:1018D000050124EA05020C46F00700D02A43B007B0
:1018E00001D541EA050416213846FFF723FE2246BA
:1018F00015213846FFF71EFE0020BDE8F08170B5C7
:101900000C46164605461321FFF752FD0EB1204343
:1019100000E0A043024613212846FFF70BFE0020FB
:1019200070BD000010B500F02EF8A0F5006111396F
:1019300006D00448406808B1012010BD022010BD47
:10194000002010BD28E1012010B512218820FFF7EA
:101950002FFD1F21B1EBD00F13D0010601D40120C0
:1019600010BD410601D4022010BD810601D4032020
:1019700010BDC10601D4042010BD000701D405200C
:1019800010BD002010BD70B505460021FFF710FD09
:101990004FF6FF7101EA002401212846FFF708FDF8
:1019A000204370BD10B5044602220321FFF7C2FD9B
:1019B000022006F0DDF8002203212046FFF7BAFDE1
:1019C000002010BD10B504218220FFF7F1FC20F0AB
:1019D000030204218220FFF7ADFD0A218220FFF7D8
:1019E000E7FC40F007020A218220FFF7A3FD49220D
:1019F00020218220FFF79EFD022006F0B9F8012287
:101A000021218220FFF796FD17218220FFF7D0FCCD
:101A100020F01E0217218220FFF78CFD9A2241211F
:101A20008220FFF787FD01224A218220FFF782FDF5
:101A300001224B218220FFF77DFD00224B218220D5
:101A4000FFF778FD012256218220FFF773FD012266
:101A500058218220FFF76EFD012240218220FFF7EE
:101A600069FDFF220B218220FFF764FD034800215E
:101A7000C180818041800180084610BD34E1012091
:101A800008B500208DF8000004218820FFF790FCA5
:101A90008DF800009DF8000020F009008DF800008E
:101AA0009DF8002004218820FFF744FD01226021D9
:101AB0008820FFF73FFD032260218820FFF73AFDD1
:101AC000002008BD10B5C20701D0822303E010F04A
:101AD000050F08D08823024639B110211846FFF7B8
:101AE00029FD002010BD032010BD1121F6E70000E4
:101AF0002DE9F05F5B4CDFF870A18346C4E9160165
:101B0000DAF80000164657460169584688470546E8
:101B10003146564804F0FAFB304603F0EDFB8119DC
:101B2000524804F03AFC5249504804F0A3FC504992
:101B30004E48A83104F09EFC4E494C4804F09AFCF3
:101B40004C494A48A83104F095FC4B49474804F0F9
:101B500091FC49494548A83104F08CFCA4F180006F
:101B600000260670386803210268A06D9047C0B255
:101B7000424F4FF00109012824D087F8009000213E
:101B80003C4804F04DF87E7087F80290E06DB04656
:101B900038B3DAF800105646A1460A681C2190476F
:101BA000C4B230681D210268D9F85C009047C6B203
:101BB000D9F8580002F0A2FD314A0146002052F83F
:101BC00021100BE03E700121DAE7A24200D17870CB
:101BD0000A5CB24200D1B870401CC0B20A5CFF2A55
:101BE000F3D187F8038087F8048087F8058087F8A9
:101BF000068087F8078087F8088087F8098087F8CB
:101C00000A8087F80B80584600F060F817491D4895
:101C1000C1F80C010021154804F09AFB0920B0EB33
:101C2000157F1AD0C5F30360092816D00021124889
:101C300003F0F6FF0A20B0EB157F10D0C5F3036068
:101C40000A280CD000210C48A83003F0E9FFBDE8B9
:101C5000F05F0021022000F045BE0121E7E70121ED
:101C6000F1E7000084E00120F4FF012064E101209D
:101C700074E20120C4E3012014E50120A4E6012060
:101C800064A60F0891480F0810B50E4C204604F0CA
:101C9000A3FB04F5827005F06FF9022000F016FE38
:101CA000094C6188084305D0002902D06088401E95
:101CB000608010BD0021084602F042FE04206080D2
:101CC000F4E7000064E1012004E00120002102F0BB
:101CD00003BE00002DE9F14FC14D0527C14EDFF8CD
:101CE0000893DFF80883002405F1850A3068295D30
:101CF00002681AF801100098904798F8003009EB34
:101D000083122B5D641CE4B222F81300BC42EDD3B5
:101D1000B34D01270024DFF8D4A2ED1E05F1010B1D
:101D20000AF1E00A3068295D02681BF8011000988A
:101D3000904798F800200AEBC2012A5D641CE4B2C7
:101D400041F82200BC42EDD3454698F80000DFF888
:101D5000988200EB400108F140084FF0000A18F8A3
:101D600021000124F0BB30680821026800989047E8
:101D700029784F4609EB8111888230680C2102686E
:101D80000098904701B2287807EB801200EB4003DF
:101D900008EB83001183C07801282DD1B2F914001B
:101DA00008B900295CD0404301FB0100B94606F0A8
:101DB00021FD05F057FF06F001FD2A7809EB821797
:101DC000B887B7F9140006F015FD8346B7F9180077
:101DD00006F010FD0146584605F04AFD844906F01C
:101DE00021FD00E010E0834906F026FC06F0E6FC49
:101DF0002A7809EB8211C887686E08B180F8204004
:101E0000286F08B180F820403068012102680098EE
:101E1000904786B2070C56EA070008D07648B0F81B
:101E20000001012803D00121734804F091FA686B86
:101E300068B306B1CFB1714803F078FF696B88428F
:101E400002D16E4803F0D7FF6A6B4CF21860518BD9
:101E500081421CD050830021104603F0B0FE13E0F5
:101E6000A2F83CA05A20D087C6E700214183012177
:101E700003F0A5FE614803F059FF696B884203D067
:101E800000215E4803F05EFF686B80F820402878F0
:101E9000514600EB400208EB8200730680F805A073
:101EA0004FF0020200D542717B0600D5447181716A
:101EB000F30600D58271FB0600D58471C171B306AB
:101EC00000D5C271BB0600D5C4710172F30700D002
:101ED0000272FB0700D00472330600D502723B0683
:101EE00000D504724172730700D542727B0700D59A
:101EF00044728172B30700D58272BB0700D5847229
:101F0000C172310700D5C272390700D5C472696B3E
:101F1000F1B33349AA694379491D568B31F813301F
:101F20009E4202D0538382F82040EA698379568B1F
:101F300031F813309E4202D0538382F820402A6A3F
:101F4000C379568B31F813309E4202D0538382F806
:101F500020406A6A037A568B31F813309E4202D0D1
:101F6000538382F82040AB6A427A5E8B31F81220AC
:101F7000964202D05A8383F82040EA6A837A568BCD
:101F800031F813309E4202D0538382F8204000E0A3
:101F900009E02A6BC07A538B31F81000834202D0DB
:101FA000508382F82040286908B180F82040686991
:101FB00008B180F820400D488030C06C08B180F82E
:101FC0002040686D08B180F82040A86E08B180F804
:101FD0002040686F002801D080F82040BDE8F88FCD
:101FE0000BA60F08F4FF012064E6012004E00120A5
:101FF00000003443C3F5484064E101201CE30120A4
:1020000030B50546002440F23F11204600F07AF931
:102010004FF0D041222008804FF496304D80641C50
:102020008442FBD330BD00001CB50121782000F0B4
:10203000BBF94CF23370009002208DF804008DF84B
:10204000050000208DF80600404C8DF80700694619
:102050002046FFF7A1F80C2200212046FFF7EDF8FB
:102060000C2201212046FFF7E8F80C22042120462B
:10207000FFF7E3F80C2205212046FFF7DEF80C22DB
:1020800008212046FFF7D9F80C2209212046FFF746
:10209000D4F80C220A212046FFF7CFF80C220E219B
:1020A0002046FFF7CAF80C220F212046FFF7C5F89B
:1020B0004FF68070264C009069462046FFF76CF87A
:1020C0000C2207212046FFF7B8F80C2208212046F1
:1020D000FFF7B3F80C2209212046FFF7AEF80C22D7
:1020E0000A212046FFF7A9F80C220B212046FFF712
:1020F000A4F80C2211462046FFF79FF80C220D2170
:102100002046FFF79AF80C220E212046FFF795F89B
:102110000C220F212046FFF790F801200D4C009073
:1021200069462046FFF738F80C2200212046FFF7C9
:1021300084F82015084C009069462046FFF72CF8DB
:102140000C220A212046FFF778F81CBD000C024043
:10215000001002400014024000180240064B10B468
:102160005B68203AD2B21C68DB88534304EB43021D
:1021700010BC00F003B800003CE101202DE9F04361
:10218000904689460026054600F0BCF84FF0D0473F
:10219000184C29E02220388000201BE00C23B1FBE2
:1021A000F3F34FEAC30C802303FA0CF338F816C09C
:1021B000034113EA0C0F01D10C2906D901238340F6
:1021C0001CEA030F03D10C2901D9618800E02188A2
:1021D0007980401C91888142E0D86D1CADB249469F
:1021E000284600F08FF8761C6268D088B042D1D8BB
:1021F000BDE8F0833CE10120704700002DE9F04785
:10220000984617468A460646002400F07BF82221AD
:1022100010484FF0D045B8F1000F02D089468046F3
:1022200014E0298002E001886980641CBC42FAD372
:10223000BDE8F087A5F80090B8F800006880761C2B
:10224000B6B25146304600F05DF8641CBC42F1D392
:10225000EEE700003CE1012000B5012197B00846FF
:1022600000F0AEF801200F9000200921CDE9100107
:10227000149004211590CDE9001012901021CDE9A1
:102280000201139004900590069009020790CDE991
:1022900008010A900B900C900FA80D900E906846C4
:1022A000FEF71AFF01210420FEF706FF17B000BD5C
:1022B000024A138803805088088070473CE101205F
:1022C00001484068704700003CE101200120704750
:1022D00070474FF0D04108804888704701B5BDF87D
:1022E00000000149488008BD3CE1012003B5BDF86C
:1022F000001003480180BDF8041041800CBD0000AF
:102300003CE101200B4600B50146202000F014F806
:10231000194621205DF804EB00F00EB80149486031
:10232000704700003CE1012001B5BDF80000014903
:10233000088008BD3CE101204FF0D0421080518060
:102340007047000070B50F21C478027801234FF068
:10235000E026E4B1124C246804F4E064C4F5E064BF
:10236000C4F30724C4F10405E1404478AC40857807
:102370000D4025430B4C29011155007800F01F0139
:102380008B40400906EB8000C0F8003170BD02F0C0
:102390001F008340500906EB8000C0F8803170BDFB
:1023A0000CED00E000E400E0044A0029116801D0CF
:1023B000014300E081431160704700003038024063
:1023C000044A0029116801D0014300E081431160F3
:1023D0007047000038380240044A0029116801D0D3
:1023E000014300E081431160704700004038024023
:1023F000044A0029116801D0014300E081431160C3
:102400007047000020380240044A0029116801D0BA
:10241000014300E0814311607047000044380240EE
:1024200070B5204A1168204C11F00C0104D01F4EE9
:10243000042903D0082903D004601BE0066019E0DA
:102440001849091F0B68C3F380550B6803F03F035D
:1024500015B1B6FBF3F301E0B4FBF3F30C680968C4
:10246000C4F388146343C1F30141491C4900B3FB21
:10247000F1F1016011680F2303EA11110C4B5C5C50
:102480000168E14041601468072505EA94241C5D59
:1024900021FA04F48460126805EA52329A5CD14051
:1024A000C16070BD083802400024F40040787D010E
:1024B000ECE001202DE9F84F00200090FFF7B4FD7B
:1024C000FFF7CAFE052005F061FB0020FFF701FFC2
:1024D000A0F513414FF480764FF4E06740F20223F9
:1024E00041F2B07540F2371840F239194FF4E85A0A
:1024F00040F2023B41F21804009020397ED1F101F4
:10250000E520FFF719FF01210020FFF715FF3146F5
:102510000120FFF711FF39460220FFF70DFF41F2BE
:1025200030010320FFF708FF00210420FFF704FF1C
:1025300019460820FFF700FF00210920FFF7FCFEE5
:1025400000210A20FFF7F8FE00210C20FFF7F4FE1F
:1025500000210D20FFF7F0FE00210F20FFF7ECFE19
:1025600000211020FFF7E8FE00211120FFF7E4FE14
:1025700000211220FFF7E0FE00211320FFF7DCFE10
:10258000142005F003FB29461020FFF7D5FE414635
:102590001120FFF7D1FE052005F0F8FA4946122078
:1025A000FFF7CAFE052005F0F1FA51461320FFF7A8
:1025B000C3FE13212920FFF7BFFE052005F0E6FA30
:1025C00000212020FFF7B8FE00212120FFF7B4FEF4
:1025D00006213020FFF7B0FE21113120FFF7ACFEBD
:1025E00003213220FFF7A8FEB11D3520FFF7A4FE1E
:1025F00040F602313620FFF79FFE00E06BE05946BF
:102600003720FFF799FEF91D3820FFF795FE0721C7
:102610003920FFF791FE4FF4C0613C20FFF78CFE9C
:1026200040F20B213D20FFF787FE00215020FFF7ED
:1026300083FEEF215120FFF77FFE00215220FFF79C
:102640007BFE40F23F115320FFF776FE4FF41C5102
:102650006020FFF771FE01216120FFF76DFE002170
:102660006A20FFF769FE00218020FFF765FE002148
:102670008120FFF761FE00218220FFF75DFE00212F
:102680008320FFF759FE00218420FFF755FE00212B
:102690008520FFF751FE10219020FFF74DFE00210D
:1026A0009220FFF749FE03219320FFF745FE4FF4E8
:1026B00088719520FFF740FE00219720FFF73CFE30
:1026C00000219820FFF738FE21460320FFF734FE53
:1026D00040F27311EDE0A0F5134125397ED10121BF
:1026E0000020FFF729FE31460120FFF725FE39467D
:1026F0000220FFF721FE21460320FFF71DFE0021E7
:102700000420FFF719FE19460820FFF715FE0021E7
:102710000920FFF711FE00210A20FFF70DFE00211E
:102720000C20FFF709FE00210D20FFF705FE002118
:102730000F20FFF701FE00211020FFF7FDFD002113
:102740001120FFF7F9FD00211220FFF7F5FD002110
:102750001320FFF7F1FD142005F018FA2946102088
:10276000FFF7EAFD41461120FFF7E6FD052005F0E1
:102770000DFA49461220FFF7DFFD052005F006FAA5
:1027800051461320FFF7D8FD13212920FFF7D4FD70
:10279000052005F0FBF900212020FFF7CDFD0021E9
:1027A0002120FFF7C9FD07213020FFF7C5FD59465D
:1027B0003120FFF7C1FD40F2051319463220FFF723
:1027C000BBFD40F2062529463520FFF7B5FD40F652
:1027D000080631463620FFF7AFFD00E06CE02946E1
:1027E0003720FFF7A9FD40F204513820FFF7A4FD80
:1027F00007213920FFF7A0FD19463C20FFF79CFD7B
:1028000031463D20FFF798FD00215020FFF794FD51
:10281000EF215120FFF790FD00215220FFF78CFDA2
:1028200040F23F115320FFF787FD4FF4274160200E
:10283000FFF782FD01216120FFF77EFD00216A2064
:10284000FFF77AFD00218020FFF776FD002181202F
:10285000FFF772FD00218220FFF76EFD002183202B
:10286000FFF76AFD00218420FFF766FD0021852027
:10287000FFF762FD10219020FFF75EFD00219220FE
:10288000FFF75AFD03219320FFF756FD4FF488719F
:102890009520FFF751FD00219720FFF74DFD002106
:1028A0009820FFF749FD21460320FFF745FD40F240
:1028B00033110720FFF740FD0248A0F108014860EE
:1028C000BDE8F88F44E10120FEF7C8BE0349044A81
:1028D00031F8101052F82000FEF7BFBC6CA90F08A9
:1028E0001CE1012070B5044624480E4686B050F81D
:1028F00024000121FFF758FD01218803FFF784FD23
:102900001E4800258DF8105024388DF8135030F8EB
:10291000140003901A4803A950F82400FEF73CFC69
:10292000012E28D115483938015DC01E005D00F028
:1029300029F812481E3830F8140000908DF8045021
:102940000CB10C2000E008208DF8050001258DF861
:1029500006506846FEF778FB08483638005D8DF86B
:1029600008000F208DF809008DF80A008DF80B5033
:1029700002A8FFF7E7FC06B070BD000090A90F08A1
:102980001CE1012010B58A0721F003040649130F4A
:1029900021440F220C689A4094430C600A689840C6
:1029A00002430A6010BD0000083801400CB5002148
:1029B000214801910091026842F4803202604FF494
:1029C000C063026802F400320092019A521C019224
:1029D000009A12B9019A9A42F3D10268920329D55A
:1029E00001210091144908310A680A600A6842F41A
:1029F00000420A600A6842F4A0520A600B1F0F4AA4
:102A00001A60026842F08072026002689201FCD58E
:102A10000B4A40F203701060086820F00300086061
:102A2000086840F0020008600868C0F381000228CE
:102A3000FAD10CBD00910CBD00380240193C400594
:102A4000003C02400F4810B5016841F001010160EF
:102A50000C4A00210832116002680B4B1A400260D8
:102A6000031D0A4A1A60026822F4802202600548A7
:102A70000C300160FFF79AFF05494FF000600860D5
:102A800010BD000000380240FFFFF6FE10300024A9
:102A900008ED00E02DE9FE4F282004F0E3FA0321C1
:102AA000009105233B4A3CA104F0A4FA8246282069
:102AB00004F0D8FA1E2100910523364A39A104F00A
:102AC00099FA8146282004F0CDFA3C210091052393
:102AD000304A3EA104F08EFA8046282004F0C2FA63
:102AE0004B21009105232B4A41A104F083FA0746AC
:102AF000282004F0B7FA5A2100910523254A45A160
:102B000004F078FA0646282004F0ACFAB4210091CB
:102B10000523204A48A104F06DFA0546282004F058
:102B2000A1FA7321009105231A4A4B4904F062FA75
:102B300004465146174803F0CAF84946154803F0C1
:102B4000C6F84146134803F0C2F83946114803F06D
:102B5000BEF831460F4803F0BAF829460D4803F095
:102B6000B6F821460B4803F0B2F8282004F07AFAB0
:102B700008499623F7228DE80E0038492C23482275
:102B8000096802F0E1FB03B00146BDE8F04F0148DF
:102B900003F09DB874E2012048656C7020506167B5
:102BA0006500000055736520746865206A6F79734D
:102BB0007469636B20746F20776F726B2077697410
:102BC00068204C4344204755490000002D55502FA4
:102BD000444F574E20746F206D6F76652062657488
:102BE0007765656E20636F6E74726F6C73000000A2
:102BF0002D4C4546542F524947544820746F206D40
:102C00006F7665206265747765656E2070616765B3
:102C1000730000002D53454C20746F20696E74655D
:102C20007261637420776974682074686520636FCB
:102C30006E74726F6C000000436F70797269676820
:102C4000742053544D6963726F656C656374726F61
:102C50006E6963730000000016A60F0800E00120F3
:102C60002DE9F04F87B00021FE4802F0D9FF28205F
:102C700004F0F8F90021FB4A0B460091A832FAA1B2
:102C800004F0B8F90746282004F0ECF9F54A4FF0B3
:102C9000140B0A23A832FAA1CDF800B004F0AAF967
:102CA0000546382004F0DEF92121EE4A00910A237E
:102CB000A832F64904F0B4F8F54C6060282004F01E
:102CC000D1F9DFF8A083352308F1A8080A21CDF84F
:102CD0000080CDE901133C239B22EEA104F0ECF827
:102CE0000646282004F0BEF9112100910F23324638
:102CF000EDA104F07FF90490282004F0B3F9252118
:102D000000910F233246EBA104F074F905903820AE
:102D100004F0A8F96E22CDE900624FF00F09CDF85A
:102D20000890227808F5527A0AEB82110323E4A274
:102D300002F028FE2061382004F094F923216E224D
:102D40000096CDE90121227803230AEB8211891C28
:102D5000DBA202F017FE6061282004F083F9CD2386
:102D6000CDE90083CDF808B0AA236422D5A104F0F0
:102D7000A3F80390282004F075F90523CDF80090FE
:102D8000D2A1039A04F036F9A061282004F06AF970
:102D9000212100910523D0A1039A04F02BF9E061D1
:102DA000282004F05FF9332100910523CDA1039A77
:102DB00004F020F92062282004F054F94521009104
:102DC0000523CBA1039A04F015F96062282004F0D2
:102DD00049F9572100910523C8A1039A04F00AF983
:102DE000A062282004F03EF9692100910523C6A1C4
:102DF000039A04F0FFF8E062282004F033F97B2105
:102E000000910523C3A1039A04F0F4F82063302055
:102E100004F028F98D2100910A23C1A1039A02F040
:102E2000A9FBC249606341624CF2186141830021F1
:102E300002F0C5FE4046616B02F049FF394640464C
:102E400002F045FF2946404602F041FF40466168D6
:102E500002F03DFF207808F5627700EB400017F89C
:102E60002010606803F0A1FEB14804F180050068FD
:102E70000169A86D8847C0067BD5282004F0F2F8C8
:102E800073230A21CDF80080CDE901133C23BE2233
:102E9000A8A104F011F88046282004F0E3F81121DD
:102EA000009105234246A7A104F0A4F882462820F9
:102EB00004F0D8F82521009105234246A2A104F090
:102EC00099F88146382004F0CDF80446A86D01F049
:102ED00015FCDFF8B8B121230BF10C0B42465BF86F
:102EE00020100F200090204603F09AFF684CA0604D
:102EF000382004F0B7F80190A86D01F0FFFB5BF8F3
:102F000020102320009021234246019803F088FFDF
:102F1000E0604146A7F5627002F0D9FE5146A7F580
:102F2000627002F0D4FE4946A7F5627002F0CFFE4F
:102F3000A7F56270A16802F0CAFEA7F56270E168A9
:102F400002F0C5FE207800EB400007EB80004178DE
:102F5000A06803F02AFE207800EB400007EB800019
:102F60008178E06803F021FEA16878484862E16852
:102F700048623C483146A83002F0A9FE394804991D
:102F8000A83002F0A4FE37480599A83002F09FFE51
:102F90003F4C3448A830216902F099FE31486169FC
:102FA000A83002F094FE0021206902F008FE002102
:102FB000606902F004FE5E4800680169A86D8847F8
:102FC0000221B1EB107F03D0C0F30360022813D1BC
:102FD000302004F047F8B221224A00910A23A83297
:102FE0005BA102F0C7FA014628641E48A83002F02F
:102FF0006EFE296C5B4848621A480399A83002F0BB
:1030000066FE1848A169A83002F061FE1548E16922
:10301000A83002F05CFE1348216AA83002F057FE87
:103020001048616AA83002F052FE0E48A16AA8302A
:1030300002F04DFE0B48E16AA83002F048FE094854
:10304000216BA83002F043FE2078A26900EB40001B
:1030500007EB80010D484B79283830F81330538343
:103060008B7981E074E20120436F6E666967757247
:103070006174696F6E20616E6420646562756700BB
:103080004374726C206D6F646500000038A60F08F1
:1030900004E00120506F77657220626F61726420D6
:1030A0007374617475730000444320427573207615
:1030B0006F6C74004865617473696E6B20542E00E8
:1030C000253364004661756C747300004F76657239
:1030D00063757272656E74005265767570206661F4
:1030E000696C00005370656564206664626B000063
:1030F0005357206572726F7200000000556E646550
:103100007220766F6C7400004F76657220766F6C5B
:10311000740000004F7665722074656D70000000C9
:103120004661756C742061636B00000079480F087C
:10313000F4FF01204441432053657474696E677342
:103140000000000043683100436832006D4C0F08F6
:10315000456E636F64657220616C69676E6D656E44
:1031600074000000DD4C0F08E26930F8133053831F
:10317000CB79226A30F8133053830B7A626A30F8C5
:10318000133053834B7AA26A30F8133053838B7A0F
:10319000E26A30F813305383C97A226B30F8110099
:1031A000508361680348486207B00348BDE8F04FA8
:1031B00002F021BE35500F081CE301202DE9F04F2D
:1031C00089B0282003F04EFF00210B460091FE4AF3
:1031D000FEA103F00FFF0390282003F043FFFA49FC
:1031E0004FF0140A0A238DE80A045A239122FCA105
:1031F00003F062FE0746282003F034FF1E210091F1
:103200003C233A46F9A103F0F5FE0490282003F090
:1032100029FF412100913C233A46F5A103F0EAFE43
:103220000590282003F01EFF0F21009105233A4648
:10323000F0A103F0DFFE8346402003F013FF1E21C0
:1032400005220097CDE90121EE490623A1F1E00412
:10325000227801EBC201ECA203F038F8DFF8AC836E
:103260000646A063D8F8000004F1800540210268FA
:10327000A86D90478146D8F800003F210268A86DEC
:103280009047C6E90E90282003F0ECFE3221009111
:1032900005233A46DEA103F0ADFE0690382003F088
:1032A000E1FE412105220097CDE90121DFF870936D
:1032B0002278062309EB8211091DD3A202F062FBDA
:1032C00047F6FF720021E06302F02EFB302003F08E
:1032D000C9FE412100915A233A46D2A102F04AF98F
:1032E000D2492064416201F0A1F9282003F0BAFE1E
:1032F000B54973230A228DE80E004B236822CCA126
:1033000003F0DAFD0646282003F0ACFE0A2332461D
:10331000CAA1CDF800A003F06DFE0790282003F0AD
:10332000A1FE232100910A233246C5A103F062FECB
:103330000890382003F096FE51464FF0280A009678
:10334000CDE901A12278062309EB8211891DAEA2E5
:1033500002F018FB6064382003F084FE23210096FD
:10336000CDE901A12278062309EB82110831A6A23A
:1033700002F008FBA0649448039902F0A8FC92486C
:10338000049902F0A4FC9048059902F0A0FC39468B
:103390008D4802F09CFC59468B4802F098FC8A4804
:1033A000A16B02F094FC8848069902F090FC8648D4
:1033B000E16B02F08CFC8448216C02F088FC8248AE
:1033C000696C02F084FC8048A96C02F080FC7E48A5
:1033D000E96C02F07CFC7C48696D02F078FC00210D
:1033E000E86C02F0ECFB7848296D02F070FC314685
:1033F000754802F06CFC7448079902F068FC72484A
:10340000089902F064FC7048616C02F060FC6E4840
:10341000A16C02F05CFCD8F800000169A86D884737
:1034200080072AD5282003F01DFE32270A233246C2
:1034300084A1009703F0DEFD0546382003F012FE5C
:10344000CDE9006A02972278062309EB82110A313E
:103450006DA202F097FAE06429465B4802F037FC5F
:103460005948E16C02F033FC47F6FF720021E06C32
:1034700002F05AFA616C7448486247F6FF752A46B2
:103480000021606C02F050FA2A460021A06C02F084
:103490004BFAD8F8000001695A486038806D8847B7
:1034A000C0077DD0282003F0DDFD474973237D222E
:1034B0008DE80E004B23B42264A103F0FDFC054609
:1034C000282003F0CFFD0E260A232A4663A100968A
:1034D00003F090FD8346282003F0C4FD50232A46C4
:1034E0005EA1009603F086FD8246382003F0BAFD07
:1034F0000A22CDE900521927029721784E4609EB9E
:1035000081110C31042357A202F03CFA20653820C7
:1035100003F0A8FD5022CDE9005202972178042340
:1035200006EB81110E314FA202F02CFA60652820C3
:1035300003F098FD2C270A232A4640A1009703F0A8
:1035400059FD8046282003F08DFD50232A463CA1DA
:10355000009703F04FFD0746382003F083FD0A2251
:10356000CDE900524FF03709CDF8089021780623B5
:1035700006EB8111103124A202F004FAA065382074
:1035800003F070FD5022CDE90052CDF8089021786B
:10359000062306EB811112311BA202F0F3F900E0C1
:1035A00092E0E0652946084802F091FB594606483A
:1035B00002F08DFB5146044802F089FB0248216D60
:1035C00002F085FB00484FE0C4E3012053706565BD
:1035D0006420636F6E74726F6C6C65720000000023
:1035E00053657420706F696E7400000072706D0016
:1035F0006D73000054617267657420737065656453
:1036000000000000E4E0012025366400F4FF012002
:1036100052616D70206475726174696F6E00000094
:1036200064E601204578656300000000CD500F0876
:10363000504944204761696E730000004B50000000
:103640004B4900004B440000494A0F08466C75780E
:1036500020776C2E2074756E696E6700425553801A
:103660000000000025346400616D02F030FB002191
:10367000606D02F0A4FA4146194802F028FB394671
:10368000174802F024FB1648A16D02F020FB1448F5
:10369000E16D02F01CFB4FF47A720021206D02F004
:1036A00043F947F6FF752A460021A06D02F03CF968
:1036B0002A460021E06D02F037F9216D0948486281
:1036C000A16D4862E16D4862616C06484862A16C78
:1036D000486209B00248BDE8F04F02F08CBB000020
:1036E000C4E30120494A0F082DE9F04F8BB0282090
:1036F00003F0B8FC00210B460091FE4AFEA103F046
:1037000079FC0390282003F0ADFC87210091E6238B
:10371000F84AFEA103F06EFC0490282003F0A2FCFE
:103720004FF00A09F34DCDE900594FF014085A2320
:103730009122F8A1CDF8088003F0BEFB06462820B0
:1037400003F090FC0F21009105233246F4A103F011
:1037500051FCF54C2066382003F084FC1E21052224
:103760000096CDE90121227805F5FC7101EB82116B
:1037700014310623EDA202F005F96066282003F05B
:1037800071FC0F21009150233246E9A103F032FC75
:103790000590382003F066FC1E2150270096CDE9E5
:1037A0000171227805F5FC7101EB821116310623B7
:1037B000DEA202F0E7F8A066282003F053FC4FF0E9
:1037C000320B05233246DBA1CDF800B003F012FC2A
:1037D000E066382003F046FC412105220096CDE941
:1037E0000121227805F5FC7101EB821118310623C5
:1037F000CEA202F0C7F82067282003F033FC322164
:10380000009150233246CDA103F0F4FB06903820FE
:1038100003F028FC41210096CDE90171227805F5DD
:10382000FC7101EB82111A310623C0A202F0AAF842
:103830006067282003F016FC73220095CDE9019201
:103840004B236822BEA103F037FB0746282003F074
:1038500009FC0A233A46BEA1CDF8008003F0CAFB5A
:103860000790382003F0FEFB4FF02809CDE90079DE
:10387000CDF80880227805F5FC7101EB82111C312E
:103880000623AAA202F07EF8A067282003F0EAFB34
:103890004FF0230A0A233A46AEA1CDF800A003F068
:1038A000A9FB0890382003F0DDFB8DE88006227824
:1038B00005F5FC7101EB82111E3106239BA202F07B
:1038C00061F8E067282003F0CDFB73217822009592
:1038D000CDE901214B2368229FA103F0EDFA0546B3
:1038E000282003F0BFFB0A232A4699A1CDF80080C7
:1038F00003F080FB0990382003F0B4FBCDE90059B8
:10390000CDF8088098492278062301EB82112231F4
:1039100086A202F037F804F18008C8F808002820D1
:1039200003F0A0FB0A232A468AA1CDF800A003F0E9
:1039300061FB0A90382003F095FB8DE820068A4948
:103940002278062301EB8211243178A202F01AF8C2
:103950004146C860302003F085FB73210091E623C7
:10396000644A82A102F0D8FB41468861382003F006
:1039700079FB96210091E6235E4A7E4903F050FAD6
:103980004146C86100F052FE5A48039902F09FF97F
:103990005848049902F09BF93146564802F097F9CD
:1039A0005448216E02F093F95248616E02F08FF98B
:1039B0005048059902F08BF94E48A16E02F087F944
:1039C0000021A06E02F0FBF84A48E16E02F07FF998
:1039D0004848216F02F07BF94648069902F077F9D2
:1039E0004448616F02F073F90021606F02F0E7F85C
:1039F0004046416C3F4802F06AF94046816C3D48C0
:103A000002F065F94046C16C3A4802F060F9404660
:103A1000416D384802F05BF940460021C06C02F06D
:103A2000CEF84046016D334802F051F9207800EBA2
:103A300040014D48403000EB8100394606792D4861
:103A400002F045F92B48079902F041F92948A16F86
:103A500002F03DF92748089902F039F92548E16F4D
:103A600002F035F9A16F44484862E16F434848626B
:103A70004348006801694046806D8847400747F623
:103A8000FF7A2CD5282003F0EDFA0A233A463DA10F
:103A9000CDF800B003F0AEFAC8F800004446382074
:103AA00003F0E0FA204A8DE8800A2F4912780623B5
:103AB00001EB821120311DA201F064FF60600D480E
:103AC000216802F004F90B48616802F000F95246DF
:103AD0000021606801F028FF61682B484862124F9E
:103AE000544652460021B86F01F01EFF22460021C5
:103AF000F86F4BE06CE4012043757272656E7420C0
:103B0000636F6E74726F6C6C65727300496E707562
:103B10007400000053657420706F696E7473000048
:103B20004971207265662E0004E00120253664008C
:103B3000497100004964207265662E0049640000E6
:103B4000497120504944204761696E7300000000AC
:103B50004B5000004B490000496420504944204725
:103B600061696E730000000064E601204C696E6BB1
:103B70000000000084A60F08C14B0F087D4B0F0802
:103B8000F4FF01204B440000354B0F0801F0CCFE40
:103B900029465D4802F09BF85B48099902F097F8C6
:103BA00044465948D8F8081002F091F856480A9946
:103BB00002F08DF85448E16802F089F85348006833
:103BC0000169A06D8847DFF84881000731D52820BA
:103BD00003F048FA0A232A46AFF25801CDF800B0A4
:103BE00003F008FA2061382003F03CFA8DE8200A3F
:103BF00048493A7801EB821126310623AFF2D4020C
:103C000001F0C0FE60614048216902F060F83E4862
:103C1000616902F05CF852460021606901F084FE9F
:103C2000002E56D00021606901F0C9FF6169C1F81A
:103C30002480554652460021A06801F075FE2A46B0
:103C40000021E06801F070FE2F48A16902F03FF802
:103C50002D48E16902F03BF83878DFF8B89000EBC6
:103C6000400109F1400909EB8100C178E06902F0E7
:103C70009CFF01F043FAA5696A6A2AB195F8210010
:103C800010B131462846904785F82C601EB30021BC
:103C9000A06801F094FF06B30021E06801F08FFFF7
:103CA000E1691D484862A1691C484862786E1C4958
:103CB00041623A6F1B495162A268C2F82480E268EF
:103CC000C2F82480397801EB410219F8221031B191
:103CD00013E00121A7E70121DAE70121DDE7002157
:103CE00001F06DFF094800680169A06D88478006F2
:103CF00003D40021386F01F062FF0BB00248BDE829
:103D0000F04F02F078B800006CE40120F4FF0120CD
:103D1000494A0F0864E6012081520F08854A0F08BE
:103D20000D4E0F08F54C0F082DE9F04FFF4887B0F6
:103D300000270068FE4C0169A06D884706460920EF
:103D40000025B0EB167F09D1282003F08BF9002362
:103D5000F84AF9A1009503F04DF90746C6F3036050
:103D6000092809D1282003F07DF90023F14AF9A19F
:103D7000009503F03FF907467006DFF8B8B34FF03F
:103D800028000BD503F06EF914210A22CDF800B0FB
:103D9000CDE901215A239122F7A10AE003F062F94B
:103DA00014210A22CDF800B0CDE901215A23912235
:103DB000F4A103F081F80546282003F053F94FF0F1
:103DC0000F0A05232A46F0A1CDF800A003F012F94E
:103DD0000390382003F046F91E210522DFF85093A6
:103DE0000095CDE90121A9F18009DFF8A08399F8B8
:103DF0000020062308EB82112831E5A201F0C2FD64
:103E00002062282003F02EF950232A46E1A1CDF8A4
:103E100000A003F0EFF80490382003F023F91E21EE
:103E20004FF0500A0095CDE901A199F80020062332
:103E300008EB82112A31D6A201F0A4FD606200F0E5
:103E4000F5FB3946BB4801F042FF2946B94801F06D
:103E50003EFFB848039901F03AFFB648216A01F0E5
:103E600036FFB448049901F032FFB248616A01F0AC
:103E70002EFF700658D5282003F0F4F83221009167
:103E800005232A46C4A103F0B5F80390382003F0B7
:103E9000E9F8412105220095CDE9012199F80010AA
:103EA000474608EB811130310623B9A201F06AFDC3
:103EB00047F6FF720021A06201F036FD282003F0D2
:103EC000D1F83221009150232A46B5A103F092F88F
:103ED0000490382003F0C6F841210095CDE901A1F6
:103EE00099F80010062307EB81113231A8A201F0E6
:103EF00049FD47F6FF720021E06201F015FD8D4893
:103F0000039901F0E4FE8B48A16A01F0E0FE8948C4
:103F1000049901F0DCFE8748E16A01F0D8FEA16A4D
:103F2000A1484862E16A48628248616C01F0CFFEB4
:103F30008048A16C01F0CBFE7E48E16C01F0C7FE29
:103F40007C48616D01F0C3FE0021E06C01F037FE9A
:103F50007848216D01F0BBFE0920B0EB167F7DD1C2
:103F6000282003F07FF873230A21CDF800B0CDE9B3
:103F700001134B2340F227128CA102F09DFF05464E
:103F8000282003F06FF814260A232A468BA10096F6
:103F900003F030F80390382003F064F8CDE9005ABC
:103FA0000296474699F80010C84607EB8111343154
:103FB000062377A201F0E6FC47F6FF72002120639A
:103FC00001F0B2FC282003F04DF84FF023090A233A
:103FD0002A467DA1CDF8009003F00CF883463820E6
:103FE00003F040F8CDE9005ACDF8089098F8001099
:103FF000062307EB8111363165A201F0C3FC606333
:10400000282003F02FF8322100910A232A4670A1BC
:1040100002F0F0FF0490382003F024F832210095DC
:10402000CDE901A198F80010062307EB8111383182
:1040300057A201F0A7FCA063282003F013F8B423D3
:104040002A4665A1009602F0D5FF0590382003F0BE
:1040500009F8E621CDE90051029600E0D4E098F895
:104060000010032307EB81113A315DA201F08AFCB5
:10407000E0632E48222100680268A06D9047421E2E
:104080000021E06B01F050FC282002F0EBFF8C23B4
:104090002A4654A1009602F0ADFF8246282002F085
:1040A000E1FF8C232A4650A1CDF8009002F0A2FF38
:1040B00098F80010064607EB811090F83A20A06DA2
:1040C00000F0A0FDE16B49484862216B4848486216
:1040D000616B48484862A16B4748486251461548A1
:1040E00001F0F5FD3146134801F0F1FD2946114874
:1040F00001F0EDFD0F48039901F0E9FD0D48216B3A
:1041000001F0E5FD59460B4801F0E1FD0948616BFE
:1041100001F0DDFD0748049901F0D9FD0548A16BC8
:1041200001F0D5FD0348059968E00000F4FF012087
:1041300084E0012014E5012053656E736F726C6595
:1041400073732074756E696E672053544F20262058
:10415000504C4C0053656E736F726C6573732074B2
:10416000756E696E672053544F202620504C4C20AA
:10417000284175782900000053544F202620504CC8
:104180004C00000053544F004731000064E601200A
:104190002536640047320000504C4C204B50000044
:1041A000504C4C204B490000494A0F08526576207C
:1041B00075702074756E696E6700000044757261D9
:1041C00074696F6E00000000456E642073706400B7
:1041D000456E6420497100005374616765000000FA
:1041E000253364006D73000072706D0021520F085A
:1041F0005D520F08B1520F08D5520F0801F067FD4C
:104200000748E16B01F063FD216A06484862616A74
:10421000486207B00248BDE8F04F01F0ECBD000075
:1042200014E50120494A0F082DE9F04FD148DFF885
:10423000488387B0006800250169D8F8580088478E
:1042400007460A240026B4EB177F09D1282002F084
:1042500009FF0023C94ACAA1009602F0CBFE054619
:10426000C7F303600A2809D1282002F0FBFE0023CF
:10427000C24ACBA1009602F0BDFE0546282002F0FE
:10428000F1FEBE4BCDE9003414210291A3465A231E
:104290009122CDA102F010FE0646282002F0E2FE97
:1042A0000F21009105233246C8A102F0A3FE8146EA
:1042B000382002F0D7FE1E2105220096CDE901210B
:1042C000AD49DFF8B8A280390AF1A80A09780623B7
:1042D0000AEB81112C31BEA201F054FBC8F820007A
:1042E0004446282002F0BEFE0F21009150233246A2
:1042F000B8A102F07FFE8046382002F0B3FE1E21F6
:1043000050220096CDE901219B4906238039B0A2B5
:1043100009780AEB81112E3101F034FB606200F064
:1043200085F92946954801F0D2FC3146934801F0C1
:10433000CEFC4946914801F0CAFC9048216A01F040
:10434000C6FC41468D4801F0C2FC8C48616A01F010
:10435000BEFC8A48616C01F0BAFC8848A16C01F08F
:10436000B6FC8648E16C01F0B2FC8448616D01F056
:10437000AEFC0021E06C01F022FC8048216D01F0D0
:10438000A6FCBBEB177F7DD1282002F06BFE7B4A99
:1043900000927323CDE901B34B2340F227128EA183
:1043A00002F08AFD0546282002F05CFE4FF014085A
:1043B0000A232A468CA1CDF8008002F01BFE039050
:1043C000382002F04FFE4FF050096B4FCDE90059F5
:1043D000803FCDF80880397856460AEB8111343198
:1043E00006237BA201F0CEFA47F6FF72002120637C
:1043F00001F09AFA282002F035FE4FF0230A0A2332
:104400002A467CA1CDF800A002F0F4FD83463820B6
:1044100002F028FE8DE820063978062306EB81118C
:1044200036316BA201F0AEFA6063282002F01AFE6A
:10443000322100910A232A4670A102F0DBFD04908C
:10444000382002F00FFE32210095CDE90191397834
:10445000062306EB811138315DA201F093FAA063C7
:10446000282002F0FFFDB4232A4666A1CDF8008083
:1044700002F0C0FD0590382002F0F4FDE622CDF8F0
:10448000088000E06BE0CDE900523978032306EBA9
:1044900081113A315DA201F075FAE06335482221BD
:1044A00000680268A06D9047421E0021E06B01F099
:1044B0003BFA282002F0D6FD8C232A4654A1CDF8E1
:1044C000008002F097FD8146282002F0CBFD8C236E
:1044D0002A4650A1CDF800A002F08CFD3978804624
:1044E00006EB811090F83A20A06D00F08BFBE16B99
:1044F00049484862216B49484862616B48484862B4
:10450000A16B4848486249461C4801F0E0FB41461F
:104510001A4801F0DCFB2946184801F0D8FB17487F
:10452000039901F0D4FB1548216B01F0D0FB5946EB
:10453000124801F0CCFB1148616B01F0C8FB0F4839
:10454000049901F0C4FB0D48A16B01F0C0FB0B48BE
:10455000059901F0BCFB0948E16B01F0B8FB216A49
:1045600031484862616A486207B00448BDE8F04FCC
:1045700001F041BCF4FF012084E00120BCE50120F2
:1045800053656E736F726C6573732074756E696EAC
:10459000672053544F202620434F52444943000084
:1045A00053656E736F726C6573732074756E696E8C
:1045B000672053544F202620434F5244494320281C
:1045C000417578290000000053544F004731000026
:1045D00025366400473200005265762075702074DD
:1045E000756E696E670000004475726174696F6E64
:1045F00000000000456E642073706400456E642006
:104600004971000053746167650000002533640040
:104610006D73000072706D0021520F085D520F081B
:10462000B1520F08D5520F08494A0F083EB528204D
:1046300002F018FDA0232349CDE9001314220292B1
:104640005A23912220A102F037FC214C60642820DB
:1046500002F008FD0F21009105231EA1626C02F0FB
:10466000C9FCA064402002F0FDFC0521626CCDE98C
:10467000002104F160011E25A1F1E00202951278EB
:10468000062301EBC201091D16A201F01FFEE06422
:10469000302002F0E7FC41210091052312A1626C59
:1046A00000F068FF2065282002F0DCFC00953C2328
:1046B00010A1626C02F09EFC6065216D0E4848629C
:1046C0003EBD000088E101204D6F6E69746F72007D
:1046D00084E001204D6561737572656420737065B7
:1046E000656400002536640053746172742F53743E
:1046F0006F70000072706D0041490F0870B531494C
:104700000024096809698847010E0E074FF0090166
:104710004FF00A024FF002034FF001050ED0B1EB4B
:10472000107F03D1C0F303660A2E17D0B2EB107FBF
:1047300015D1C0F30366092E10D010E0B1EB107F45
:1047400000D10124B2EB107F00D10224B5EB107F21
:1047500002D0B3EB107F33D1032431E00624B1EB58
:10476000107F05D1C0F3036102290BD0012909D0C4
:10477000C0F30361092906D1B3EB107F02D0B5EB7A
:10478000107F00D10424B2EB107F05D1C0F3036188
:1047900002290BD0012909D0C0F303610A2906D1EF
:1047A000B3EB107F02D0B5EB107F00D105240B21B5
:1047B000B1EB107F04D1C0F30360092800D10724B6
:1047C000204670BDF4FF012010B5274801F0E1FA42
:1047D0002548A83001F0DDFA244801F0DAFA234830
:1047E000A83001F0D6FA224801F0D3FA2048A830C8
:1047F00001F0CFFA1F49002048608860C860086156
:1048000048618861C861086248628862C86208635A
:1048100048638863C863086448648864C86408653A
:1048200048658865C865086648668866C86608671A
:1048300048678867C8678031086048608860C860DA
:10484000086148618861C861086248628862C8621C
:10485000086348638863C863086448648864C864FC
:104860000865486510BD000074E20120C4E3012022
:1048700014E5012004E00120034807210068C26814
:104880000248806D10470000F4FF012084E0012001
:1048900010B50C46FFF798FF062C1CD2DFE804F099
:1048A00003070B0F1317BDE81040FEF7F3B8BDE880
:1048B0001040FEF7D5B9BDE81040FEF77FBCBDE85B
:1048C0001040FEF711BFBDE81040FFF72DBABDE85C
:1048D0001040FFF7A9BC10BD2DE9F04781461648EE
:1048E0000E46134FDFF84C80002400EB8615395D2F
:1048F0005D2908D0D8F80000026848469047411C5E
:1049000001D025F81400641CE4B2202CEFD3D8F8B1
:1049100000000421026848469047084941F83600E3
:1049200095F83A2031464846BDE8F04700F06AB9AC
:1049300090A60F08F4FF012064E60120E4E00120C6
:104940002DE9F05F3A4A3B4F3B4E1178A7F1400CFE
:1049500001EB4105336817F8258002F180040CEB68
:104960008110B8F1000F06D007EB8501C97859B165
:10497000012955D10EE082882D485B68E03050F85F
:104980003110A06D98474BE0B0F91820B0F9141021
:104990001B6A43E0E3469246B0F93E0003F0C5FBD4
:1049A000264A274B03F0ECFB0022264B03F036FA95
:1049B00003F088F80F469AF8001005460BEB8119B2
:1049C000B9F93C0003F0B1FB2A463B4603F0D8FBA3
:1049D00003F07CFB0FFA80F8B9F93E0003F0A5FB69
:1049E000164A174B03F0CCFB0022164B03F016FAC5
:1049F00003F0E0F80F469AF8001005460BEB811023
:104A0000B0F93C0003F091FB2A463B4603F0B8FBAB
:104A100003F05CFB01B230684246036AA06D984720
:104A200030680621C268A06DBDE8F05F1047000045
:104A300004E00120A4E60120F4FF01201F85EB51D2
:104A4000B81E0940008066400B4B0A4609491B7896
:104A5000008D01EB8311401AC0F347010748415C08
:104A60005D2906D006480068836803488030806D61
:104A70001847704764E6012004E0012090A60F0863
:104A8000F4FF01202DE9F041284E11F0FF052849DF
:104A9000307800EB400001EB8000057140D0002130
:104AA000224C8034A06801F08AF8C5B30021E06888
:104AB00001F085F8FDB11E4F3078403F07EB8010C4
:104AC000B0F91C104184C28B8284028CC284A0681D
:104AD00000F00EFE307807EB8010B0F92410E0688B
:104AE00000F006FE606930B1317807EB8111B1F951
:104AF000261000F0FDFDA068012680F82060E06827
:104B000080F820606069002807D06DB15FF0000177
:104B100001F055F8606980F82060BDE8F08101E09F
:104B20000121BDE70121C2E70121F1E704E00120F5
:104B3000A4E6012070B50D46FFF786FF0D480E4A2A
:104B4000017801EB410002EB8000007900280FD0D2
:104B5000084C8034606900280AD0403A02EB811189
:104B6000CD84294600F0EAFD6069012180F820101B
:104B700070BD000004E00120A4E6012010B50C4641
:104B8000FFF762FF0C480D4A007800EB400102EB92
:104B90008101097900290ED0A2F1400101EB8010BA
:104BA00021468484044C8034E06800F0C7FDE0684E
:104BB000012180F8201010BD04E00120A4E60120AE
:104BC00010B50C46FFF740FF0C480D4A007800EB8B
:104BD000400102EB8101097900290ED0A2F14001C8
:104BE00001EB801021464484044C8034A06800F01E
:104BF000A5FDA068012180F8201010BD04E001206F
:104C0000A4E60120F8B51546094A02EB81140949CA
:104C100004F1380200920968931E121F8E6929461A
:104C2000B047E08E00EB40004000E086F8BD000099
:104C300064E60120F4FF012038B51546094A062331
:104C400002EB8112B2F9361091FBF3F10BB2B2F91B
:104C5000381000910449928E09684C692946A04792
:104C600038BD000064E60120F4FF01202DE9F04189
:104C7000164A054610461649007802F1800400EBFA
:104C8000400001EB80019368124E134FA06D9D42CE
:104C90000BD193F830504D70FFF730FD56F82000DF
:104CA0000021425D3868C3690BE0D26892F8305049
:104CB0008D70FFF723FD56F820000121425D386812
:104CC000C369E06DBDE8F0411847000004E0012031
:104CD000A4E6012064A60F08F4FF01200348082180
:104CE0000068C2680248806D10470000F4FF012090
:104CF00084E001202DE9F05F3E4D3F4ADFF8FCA043
:104D00002878A2F1400600EB400102EB810305F197
:104D10008004DB7806EB8010F3B3012B68D1B14639
:104D2000A846B0F93E0003F000FADFF8D4B0354BE6
:104D30005A4603F025FA0022334B03F06FF802F0D5
:104D4000C1FE0F4698F80010054609EB8116B6F92A
:104D50003C0003F0EAF92A463B4603F011FA03F05F
:104D6000B5F907B2B6F93E0003F0DFF95A46254B14
:104D700003F006FA0022244B03F050F802F01AFF69
:104D80000E4698F80010054609EB8110B0F93C007A
:104D900003F0CBF92A4600E00AE0334603F0F0F9CD
:104DA00003F094F901B2DAF800003A46036A09E028
:104DB00012F82110114A136841B1B0F91820B0F966
:104DC00014101B6AA06DBDE8F05F184719695746BB
:104DD000A06D884780060BD52878412106EB80100E
:104DE000B0F9182038688368A06DBDE8F05F1847F7
:104DF000BDE8F09F04E00120A4E60120F4FF0120BB
:104E00001F85EB51B81E0940008066402DE9F05F18
:104E10003449354BDFF8D4900878A3F1400400EB17
:104E2000400203EB820201F1800AD27804EB801089
:104E3000F2B3012A53D18846B0F93E0003F075F968
:104E4000DFF8ACB02B4B5A4603F09AF900222A4BFC
:104E500002F0E4FF02F036FE054698F800000F4627
:104E600004EB8016B6F93C0003F05FF92A463B4696
:104E700003F086F903F02AF907B2B6F93E0003F011
:104E800054F95A461B4B03F07BF900221A4B02F0EF
:104E9000C5FF02F08FFE054698F800000E4604EBB1
:104EA0008010B0F93C0003F040F92A46334600E098
:104EB0000DE003F065F903F009F901B2D9F800003B
:104EC0003A46036ADAF85800BDE8F05F1847B0F9CF
:104ED0001820B0F91410D9F80000036AF2E7BDE811
:104EE000F09F000004E00120A4E60120F4FF01206F
:104EF0001F85EB51B81E0940008066402DE9F05F28
:104F0000454D464A2878A2F1400400EB400102EBEF
:104F1000810104EB8010C97829B101294AD1B0F987
:104F20001410E9B34AE0A846B0F93E0003F0FDF8DA
:104F3000DFF8EC90DFF8ECA04A46534603F020F986
:104F4000DFF8E4B000225B4602F068FF02F032FEB8
:104F5000074698F800000D4604EB8016B6F93C00B1
:104F600003F0E3F83A462B4603F00AF903F0AEF8F3
:104F7000B082B6F93E0003F0D8F84A46534603F033
:104F8000FFF800225B4602F049FF02F09BFD064657
:104F900098F800000D4604EB8014B4F93C0000E0E2
:104FA0000AE003F0C2F832462B4603F0E9F803F0BA
:104FB0008DF82083BDE8F09F028B42B3B0F9180052
:104FC000494300FB001003F015FC02F04BFE03F018
:104FD000F5FB297804EB8116B087B6F9140003F0CD
:104FE00009FC0746B6F9180003F004FC01463846F0
:104FF00002F03EFC0D4903F015FC0D4903F01CFBCB
:1050000003F0DCFB297804EB8111C887D2E700218B
:1050100081875A21C187CDE704E00120A4E6012061
:105020001F85EB51B81E09400080664000003443E4
:10503000C3F548402DE9F041204D224E05F1800492
:105040002978686801EB41021D4990F8300001F8A9
:105050002200012807D001211B4800F0E1FD306843
:105060000122836825E0306802210268A06D904724
:10507000C0B930680921C268A06D90473068292105
:105080000268A06D90470E4F2978403F07EB8111D1
:10509000888230682A210268A06D9047297807EB42
:1050A000811108830021084800F0BAFD3068002211
:1050B0008368A06DBDE8F0410321184704E001209A
:1050C000A4E60120F4FF0120C4E3012009480849B7
:1050D000007801EB80118A880649E03151F83010E0
:1050E00005480068436803488030806D1847000019
:1050F00064E6012004E00120F4FF01202DE9F041E5
:105100003B4C3C4F04252078A7F1400600EB4000C3
:1051100007EB800047F6FF78C07810B1012836D140
:105120003EE035A1206E01F060FF35A1E06E01F098
:105130005CFF2178606E06EB811202F1140180F8A9
:1051400033508162216F18322F4E81F833508A62BA
:1051500045464246314600F0E7FB2A463146206F7D
:1051600000F0E2FB207800EB400017F8200050B977
:105170002648006801691E488030806D8847800697
:1051800001D4002100E00121206F00F018FD616EC4
:10519000012081F82000216F81F82000BDE8F08116
:1051A0001BA1206E01F021FF1BA1E06E01F01DFF8D
:1051B0002178606E06EB811202F13C0180F83350D9
:1051C0008162236F891C424683F833509962002123
:1051D00000F0AAFB40F267120021206F00F0A4FB50
:1051E000207800EB400017F820000028CBD1C8E75A
:1051F00004E00120A4E601204971207265662E00BA
:105200004964207265662E000180FFFFF4FF0120D3
:10521000416D702E202020004570732E446567007C
:1052200008460D4910B50B4A09780B4C02EB811268
:1052300080345087C2B2A06DFFF7E4FC216B0120DF
:1052400081F82000616B81F82000A16B81F82000BB
:1052500010BD000064E6012004E001200748064A72
:10526000007802EB801291860146044892F83A20B9
:105270008030806DFFF7E0BC64E6012004E001208F
:10528000094910B508488039084A0978C06901EB16
:10529000410102EB810190F83000C870FFF72EFE4B
:1052A000BDE81040FFF72ABF84E00120A4E60120FA
:1052B0000748064A007802EB8012D186014604486E
:1052C00092F83A208030806DFFF7B6BC64E601208A
:1052D00004E001200748064A007802EB801211879B
:1052E0000146044892F83A208030806DFFF7A4BC54
:1052F00064E6012004E00120014600200A5C401C15
:10530000C0B2002AFAD17047F8B50446406A0028B6
:10531000204615D001F04CFA0646204601F026FA48
:105320000546204601F0C1F90746204601F0BDF9C7
:1053300081B200963A0C2B46606A00F04FFBF8BD34
:10534000BDE8F84001F019BA2DE9F04106AD1E465E
:1053500017460C460ECD00F039FC0546074828607C
:1053600032463946284601F0FAF96C6214B1012040
:1053700085F820002846BDE8F081000000C60F082F
:1053800001F06BBE10B5002400F0E9F800B1012473
:10539000204610BD70B5426A0D4604464AB194F8E5
:1053A0002C0030B12DB994F8210010B10021204615
:1053B000904784F82C5070BD70B50024054605292F
:1053C00006D10021FFF7E6FF284601F08DF9012400
:1053D000284600F0C4F800B10124204670BD2DE934
:1053E000FC5F0646C069C1888588891D8CB2B06A99
:1053F000FBF7C0F94543ED1DA9B22246304601F046
:10540000AEF9304601F051F985B2304601F04DF960
:10541000040C304601F0CCF9801E87B2304601F012
:10542000A5F9801E1FFA80F8B6F81A90304601F0F0
:10543000BFF90190304601F099F98346304601F0FA
:1054400034F98246304601F030F94FEA1A4180B211
:10545000CDF800905A46019B00F060FB304600F00A
:105460007EF840B3304601F020F9801C85B230460A
:1054700001F01BF90014801C84B2B6F81A90304673
:1054800001F096F9401E82B2CDF80090A4F1010916
:10549000681E1FFA89F180B2012300F01DFBB6F8E7
:1054A0001AA0304601F062F9801E82B21FFA89F11B
:1054B000CDF800A011E0708B0090601C81B205EB6C
:1054C000080080B201233A4600F006FB708B009082
:1054D00008F1020082B2E01981B20023284600F0F0
:1054E000FBFA708B00903B4642462146284600F06E
:1054F00015FB308B0090F81E82B2A01C814681B251
:10550000A81C80B2012300F0E7FA96F8210008B148
:105510001F2000E0308B0090A8F1020082B2BF1E75
:10552000641C681CBBB2A1B280B200F0F7FAB26A88
:10553000ED1C02B01FFA89F1A8B2BDE8F05F00F0DF
:105540002BBB10B504460020052907D101212046B8
:10555000FFF720FF204601F0C7F8012010BD90F8AA
:105560002C1021B190F8210008B1012070470020D3
:105570007047000070B51C4616460D46224631465F
:10558000049B00F023FB084901600021416280F880
:105590002C100446012100F012FB0121A5622046D7
:1055A00084F8201070BD000024C60F0801F055BD1E
:1055B00070B5C46A0D4604B911A490F833100629D9
:1055C00019D2DFE801F0180303070B0F00F063F8AE
:1055D00002460AE000F05FF882B206E000F05BF8F5
:1055E00002B202E000F057F8C2B221462846BDE8F8
:1055F0007040FAF78DBE00F04EF842B2F5E70000B9
:105600002564000070B50E460446002500F0A2FD9A
:1056100028B3A06A10B3012E02D0022E1ED10DE0D5
:1056200094F83200218EFF280144218602D0401CCC
:1056300084F83200204600F05DF90CE094F8320066
:10564000218EFF280144218602D0401C84F83200BC
:10565000204600F006F8204601F046F801252846CD
:1056600070BD10B5024600F016F80146B2F93000E0
:10567000B2F93430091A8B4206DD8010108692F898
:105680003200800882F8320092F83300BDE8104002
:10569000104600F02DB890F83310806A06290DD21C
:1056A000DFE801F00C030305070A00687047008873
:1056B0007047B0F9000070470078704790F900001B
:1056C000704770B50E460446002500F043FD00B15A
:1056D0000125052E08D194F8230038B1002084F864
:1056E0002300204601F000F8284670BD0120F6E7AF
:1056F00010B50246806A00281FD0B2F934308B42C0
:105700001BDCB2F936308B4217DB92F83330022BB8
:1057100004D0042B04D049B2017002E0016000E023
:105720000180506A002808D01046FFF7B4FF536A82
:105730000146BDE810401046184710BD10B502469E
:10574000806A002814D0938E8B4211D8D38E8B425E
:105750000ED392F833300170506A002808D01046FA
:10576000FFF799FF536A0146BDE8104010461847FD
:1057700010BD2DE9F0418AB00446202101A8FBF7B5
:1057800018F8658B204601F013F88046204600F09B
:10579000EDFF0646204600F088FF0746204600F051
:1057A00084FF390C80B243463246009500F0B6F9CA
:1057B000258B204600F0FCFFC01E87B2204600F07B
:1057C00074FF0646204600F070FF3114891C801CCF
:1057D00089B280B201233A46009500F07DF994F831
:1057E0002100A0B1204600F0E3FF801E87B22046D2
:1057F00000F0BCFF801E86B2204600F056FF054632
:10580000204600F052FF1F210091291414E0258B3F
:10581000204600F0CDFF801E87B2204600F0A6FF94
:10582000801E86B2204600F040FF8046204600F0F1
:105830003CFF4FEA28410095491C401C89B280B2C8
:105840003B46324600F06AF9204600F083FC50B136
:1058500094F8210038B14FF6E070ADF80000BDF8C3
:105860000000FCF73BFD94F8220038B947F6FF70C2
:10587000ADF80000BDF80000FCF730FDA06A00287C
:1058800012D001A92046FFF793FE204600F00DFF3D
:105890000546204600F009FF2914891CC01C89B266
:1058A00080B201AA00F078F90AB0BDE8F08170B5C5
:1058B0000E460446002500F04DFCC8B1A06AB0B108
:1058C00000200121012E02D0022E10D106E02186F7
:1058D00084F83200204600F00DF805E0218684F8B7
:1058E00032002046FFF7BDFE204600F0FDFE0125F8
:1058F000284670BD10B50246FFF7CDFE0146B2F94D
:105900003000B2F9363001448B4206DA801010863E
:1059100092F83200800882F8320092F83300BDE835
:1059200010401046FFF7E4BE8186C2867047000033
:105930002DE9F04106AC1D4617460E460ECC00F090
:1059400013FC0F4901600221044680F83310012145
:10595000C4E90A670186C069C1888088091D684357
:105960008AB2401D81B2204600F0F9FE48F20101E2
:10597000A186891EE186002120466162BDE8F08192
:105980004CC60F082DE9F04106AC1D4617460E46E1
:105990000ECC00F0E9FB0F4901600421044680F8B9
:1059A00033100121C4E90A670186C069C188808873
:1059B000091D68438AB2401D81B2204600F0CFFE27
:1059C00048F20101A186891EE1860021204661621C
:1059D000BDE8F0814CC60F0801F03FBB38B5049C10
:1059E0000094FCF775FC38BD2DE9FC410F461349C6
:1059F000DDF820801C4609881600A1EB0000A0F10C
:105A0000010085B218D001A96846FCF751FC404658
:105A1000FCF78AFC07E03846791C8FB20023324637
:105A20002946FCF7EBFB2000A4F10104A4B2F2D15B
:105A3000BDF80000FCF778FCBDE8FC814EE10120D8
:105A400010B5FCF737FD4FF6FF742046FCF7D8FA87
:105A50002046FCF743FCBDE810400020FCF764BC86
:105A60002DE9F04190460E4604460546FCF72EFC13
:105A7000184F012803D13888001B401E85B2FCF75F
:105A80001FFC808839882044884221D8FCF718FC04
:105A90008088062804D1FCF713FCC088082806D0AB
:105AA000424629463046BDE8F041FCF757BBFCF7BB
:105AB00007FC0468FCF704FC8188A8F1200041433E
:105AC00004EB4102F0B22946BDE8F041FCF794BB7B
:105AD000BDE8F0814EE101202DE9FC410E460E4962
