:020000040801F1
:10380000781B0020193A01085D521A00553A010848
:10381000253A0108273A0108293A0108000000006A
:103820000000000000000000000000002B3A01082A
:103830002D3A0108000000002F3A0108313A010832
:10384000333A0108333A0108333A0108333A0108A0
:10385000333A0108333A0108333A0108333A010890
:10386000333A0108333A0108333A0108333A010880
:10387000333A0108333A0108333A0108333A010870
:10388000333A0108333A0108333A010800000000D6
:10389000000000000000000000000000333A0108B2
:1038A000333A0108333A0108333A0108333A010840
:1038B000333A0108333A0108333A0108333A010830
:1038C000333A0108333A0108333A0108333A010820
:1038D000333A0108333A0108333A0108333A010810
:1038E000333A0108333A0108333A01080000000076
:1038F00000000000000000000000000000000000C8
:1039000000000000000000000000000000000000B7
:103910000000000000000000333A0108333A0108BB
:1039200000F002F800F068F80AA090E8000C824469
:103930008344AAF10107DA4501D100F05DF8AFF246
:10394000090EBAE80F0013F0010F18BFFB1A43F07D
:1039500001031847F872000018730000103A24BFE2
:1039600078C878C1FAD8520724BF30C830C144BFE4
:1039700004680C6070470000002300240025002626
:10398000103A28BF78C1FBD8520728BF30C148BFC2
:103990000B607047692900F00181642900F0FE8006
:1039A000752900F0FB806F2900F09281782900F0E2
:1039B000BB810368DB0928BF41F08001632900F067
:1039C000E483E32900F0F783002070471FB59DE8EA
:1039D000030000F04DFC00F0D9FC040000200021A1
:1039E00004F01CFF401C606000F0DCFA1FBD10B545
:1039F000002004F088FE10BD00F0A2FC1146FFF785
:103A0000E5FF04F006FF00F0DFFC03B4FFF7EFFF73
:103A100003BC00F08FFC00000948804709480047BC
:103A2000FEE7FEE7FEE7FEE7FEE7FEE7FEE7FEE76E
:103A3000FEE7FEE704480549054A044B70470000CD
:103A4000795C010821390108B0140020781B00209E
:103A5000741B002000B5FFB441464A4653465C46FD
:103A600065463EB40D496A460A600D4908600D4935
:103A700088473EBC884691469A46A346AC46FFBC62
:103A800000BD064801688D463EBC884691469A4670
:103A9000A346AC46FFBC044800BD0000F01F002058
:103AA000F41F00202939010804A701080FB41CB530
:103AB000074B06AA7B4469460090059800F043FB3B
:103AC0000020694600F052FB1CBC5DF814FB0000AE
:103AD000B506000070B5044685690068C10601D5C9
:103AE000302600E02026C00708D070BDD4E90121AF
:103AF00030469047206A00F1010020626D1EF5D526
:103B000070BD70B5044685690078C00708D170BDE6
:103B1000D4E9012120209047206A00F101002062B1
:103B20006D1EF5D570BD09684A0501D540B27047D4
:103B3000C905FCD500B2704709684A0501D5C0B275
:103B40007047C905FCD580B2704770B50C46054674
:103B5000012A05D02878800600D5EA69002302E012
:103B6000012305E05B1C934202D2E05C0028F9D1FE
:103B7000A869E618C01AA861286A1844286228466D
:103B8000FFF7A8FF04E0D5E9012114F8010B9047E5
:103B9000B442F8D32846FFF7B4FF70BD2DE9F041D9
:103BA0000646002410687529314616A511D0FFF786
:103BB000BAFF002803DAC0F1000013A507E031685E
:103BC0008A0701D511A502E0490704D510A50124F3
:103BD00001E0FFF7B1FF00210A2306F1240707E007
:103BE000B0FBF3F203FB1200303078541046491C4E
:103BF0000028F5D123462A463046BDE8F04100F0C2
:103C000041BA0000000000002D0000002B00000061
:103C1000200000002DE9FF5F15468A460446DFF8C4
:103C2000AC80F8440027D8E900103E46CDE90010EA
:103C300011E03AF816106A4602A800F0C8FA411CD2
:103C400007D02178890603D5E269391891420ED848
:103C5000074406F101062078800602D5E069B842E3
:103C600005DDAE42E5DB3AF816000028E1D1A06997
:103C7000C01BA0612046FFF72DFFD8E90010CDE959
:103C80000010002016E03AF818106A4602A800F06A
:103C90009EFA8146401C0BD000250DF1080B05E073
:103CA000D4E901211BF8050090476D1C4D45F7D361
:103CB00008F10100B0428046E5DB206A384420620A
:103CC0002046FFF71EFFBDE8FF9F0000EE6A0000E0
:103CD00070B5044621461068FFF72EFF002104F15D
:103CE000240508E000F0070202F130026A5401F1F5
:103CF00001014FEAD0000028F4D10346206808A251
:103D0000050708D500F02000084304D0E06901232E
:103D100004A2401EE0612046BDE8704000F0B2B948
:103D2000000000003000000070B504460D4621463A
:103D30001068FFF701FF2188090502D5104A7A446F
:103D400002E00F4A7A440E32002104F1240307E016
:103D500000F00F064FEA1010965D5E5401F101016C
:103D60000028F5D103462078000704D5702D02D035
:103D700009B1113202232046BDE8704000F082B93B
:103D8000DA6900002DE9F05F894604464FF0000A29
:103D9000DFF878B1FB44C0F820A02046E1688847EE
:103DA000002875D0252806D0D4E901219047206A43
:103DB000401C2062F1E700265F462046E168884704
:103DC0002028054608DB312D06D207EB050010F848
:103DD000200C08B10643F0E7B00701D526F0040631
:103DE000C4F81CA00027C4F818A02A2D09D0284622
:103DF00004F0FCFC38B304EB8708303DC8F81850D9
:103E000019E059F8041B204604EB87029161E16830
:103E10008847012F054618D1E069002820DA26F0EE
:103E200020061DE0D8F8180000EB800005EB4000EC
:103E30003038C8F818002046E1688847054604F085
:103E4000D5FC0028EED1012F0AD02E2D08D1204616
:103E5000E16888477F1C0546022F46F02006C4DB38
:103E6000A069002803DA404246F00106A061F0078D
:103E700001D026F010066C2D0BD0682D09D04C2DEA
:103E800039D06A2D35D0742D35D07A2D33D016E047
:103E900038E0E1682F4620468847B842054609D1F8
:103EA0006C2F26D04FF48060E16806432046884797
:103EB000054604E06C2F1AD04FF4807006430DB312
:103EC000A5F14100192802D8203546F400664A467B
:103ED0002946204626604E46FFF75CFD80B101284A
:103EE0000BD0F61D26F0070000F1080955E7402029
:103EF000E4E78020D8E70020D6E706F104094CE784
:103F0000284651E7206ABDE8F09F0000AC69000038
:103F100010B5431C02E010F8011B71B18107FAD102
:103F20004FF0013202C88C1A8C4314EAC211F9D046
:103F3000C01A0A0603D0C01E10BDC01A10BD0A0464
:103F400001D0801E10BD0902FCD0401E10BD4FF0F4
:103F5000000200B5134694469646203922BFA0E8D9
:103F60000C50A0E80C50B1F12001BFF4F7AF0907E5
:103F700028BFA0E80C5048BF0CC05DF804EB8900D6
:103F800028BF40F8042B08BF704748BF20F8022B19
:103F900011F0804F18BF00F8012B70477047704731
:103FA0007047000070B5064C7C44064D7D4403E02C
:103FB000206820448047241DAC42F9D170BD000028
:103FC000D06D0000D06D00000048704780140020C4
:103FD000004870478414002070B5064600F02CF9A4
:103FE000056806F10B0020F00704B4429CBF0020D6
:103FF00070BD2B466A68BAB11068A04210D304F1B4
:10400000080188423CBF5068586007D351681019B6
:1040100041601168091B016058601460101D70BD7B
:1040200013465268002AE7D12146284600F00CF9D1
:104030000028DED170BD70B50446051F00F0FCF805
:104040000068002C14BF446870BD002C18BFAC423F
:104050003CBF20466468F8D301680A18AA4218BF1A
:10406000456003D12A68054611440160286841195A
:10407000A1421CBF6C6070BD616869602168084422
:10408000286070BD2DE9F0470D46994692460446DA
:1040900000F124080168880604D5E06921F01001C8
:1040A000216000E00120A84202DDA0EB050700E04E
:1040B0000027A16907EB050202EB0900A1EB000054
:1040C000A0612078C00602D42046FFF703FD002639
:1040D00008E0D4E901211AF806009047206A401C44
:1040E000761C20624E45F4DB2078C0060AD52046B7
:1040F000FFF7F0FC06E0D4E9012130209047206A68
:10410000401C2062381EA7F10107F4DC07E0D4E967
:10411000012118F805009047206A401C2062281EE3
:10412000A5F10105F3DC2046FFF7EBFC2078000643
:1041300002D50220BDE8F0870120FBE701694A1C97
:1041400002610878704700B58FB0CDE901310021D8
:10415000059105497944CDE9031011466846FFF7FA
:1041600011FE0FB000BD0000E5FFFFFF0A6802F876
:10417000010B0A60704710B5436913B1AFF30080BB
:1041800001E0FFF7E2FC012010BD127800F12401EC
:104190000A7000224A700122EDE711684FF0FF32E9
:1041A000E9E710B5436913B1AFF3008001E0FFF711
:1041B00031FD012010BD128800F12401828400220B
:1041C000C2840122EDE711684FF0FF32E9E770B5D4
:1041D00016460C46054600F027F8036893F80101DF
:1041E000012806D0FF2C0FD8185D68B101202C7073
:1041F00070BDD3F807013246214603442846BDE886
:10420000704003F2071318474FF0FF3070BD10B530
:1042100000F06AF8BDE8104000F060B800F07CB82B
:10422000004870474C14002010B500F0AFF8001D96
:1042300010BD00BFE945000000487047541400203D
:10424000704770477047704738B504460A460020EB
:104250006946AFF30080002808BF38BD02460099C8
:10426000204600F097F8012038BD012000F0D3B8B7
:10427000F8B5AFF30080054600200C46102000BFC3
:104280000646A819A0420DD9324669460020AFF370
:104290000080070008BF00F0BEF80098A04218BFD9
:1042A0000546C419FFF7C8FF05600746F01D20F05A
:1042B00007004619284600F00AF8B44208BFF8BDC6
:1042C000A21B31463868BDE8F84000F063B8002111
:1042D0000160C0E90110704710207047002801D02C
:1042E00000F028B87047000010B5002102A000F0CF
:1042F00079F8012010BD00005349475056464E3A08
:104300002050757265207669727475616C20666ED6
:104310002063616C6C65640010B500F086F801697B
:1043200019B100220261884701E08068804700F0EF
:1043300051F8000001491820ABBEFEE7260002003C
:104340007546FFF76DFFAE4605006946534620F0FF
:104350000700854618B020B5FFF76CFBBDE820408C
:104360004FF000064FF000074FF000084FF0000B31
:1043700021F00701AC46ACE8C009ACE8C009ACE8E4
:10438000C009ACE8C0098D4670470000004870477E
:104390006C140020034640688C46002818BF8842F1
:1043A0003CBF03464068F8D318681844884207D0D9
:1043B0000CF1030020F00700001D411A521A0146BB
:1043C000081D0A60FFF737BE0446AFF300802046A1
:1043D000FFF71BFB002000F059F8FFF708FB012056
:1043E000FFF7A8FF70B505460C460A2000E06D1CDB
:1043F00000F040F835B128780028F8D102E0641CBC
:1044000000F038F814B120780028F8D1BDE87040E9
:104410000A2000F02FB810B500F040F8BDE81040B9
:10442000FFF75CBF10B5FFF7D5FF70B500F02AF8B5
:1044300004680546A4B92020FFF7CEFD040011D082
:10444000094900202C60C4E900010849A1602073DB
:10445000206160610649A06109B100F087F8E06160
:10446000204670BDFFF7B6FF00000000254401089C
:104470000000000008B569468DF800000320ABBEBF
:1044800008BD7047004870478814002010B500F040
:104490008BF8BDE81040FFF721BF000010B50128E0
:1044A00005D0002103A0FFF79DFF012010BD09A149
:1044B000F8E7000053494752544D454D3A204F7597
:1044C00074206F662068656170206D656D6F72790C
:1044D000000000003A2048656170206D656D6F72C4
:1044E0007920636F72727570746564004FF0013CDF
:1044F00050F8042B51F8043B9A4221D1A2EB0C0353
:10450000934313EACC1317D150F8042B51F8043B12
:104510009A4215D1A2EB0C03934313EACC130BD1AF
:1045200050F8042B51F8043B9A4209D1A2EB0C033A
:10453000934313EACC13DBD04FF00000704700BF69
:10454000D01A01BAB1FA81F101F0180122FA01F092
:10455000CB40C1F12001DBB2C0B2C01A2CFA01F38A
:10456000D11A914311EAC311E6D1704710B58820E2
:10457000FFF732FD002801D00021017010BD802915
:1045800002D808B1017809B100207047012100F874
:10459000081B704718B100F10802914201D00020B9
:1045A000704700210170704710B5002102A0FFF78D
:1045B00019FF012010BD0000534947414252543AAF
:1045C0002041626E6F726D616C207465726D696EF0
:1045D0006174696F6E00000030B51A498379026812
:1045E00053B30B6893430B600A1D13680468A3431D
:1045F000136002790A441368046823431360114A64
:10460000083213680468A3431360131D1C6805680F
:10461000AC431C604479102C05D021440A68006822
:1046200002430A6030BD11680468214311601968B3
:1046300000680143196030BD007908440168914366
:10464000016030BD0004014010B58A0721F0030469
:104650000649130F21440F228C689A4094438C60C2
:104660008A68984002438A6010BD00000000014043
:10467000F0B5CA78002502F00F03D20601D58A787A
:1046800013430C784FF00F0E0122ECB1D0F800402C
:104690000F8802FA05F63740B74211D14FEA850C70
:1046A0000EFA0CF724EA070703FA0CF43C43CF7820
:1046B000282F02D0482F02D002E0466100E00661B8
:1046C0006D1C082DE4D304600C88FF2C1ED94468AF
:1046D0005FF0000606F1080702FA07F50F882F4081
:1046E000AF420FD14FEA860C0EFA0CF7BC4303FA27
:1046F0000CF73C43CF78282F00D14561CF78482F65
:1047000000D10561761C082EE4D34460F0BD02465A
:10471000002092680A4200D0012070470AB101616E
:1047200070474161704700002DE9F0473D4D3E4E16
:104730008146C5E91D01306814460169484688472D
:1047400021463A4803F004F9204602F097FA01198D
:10475000364803F044F93649344803F0ADF934499A
:104760003248A83103F0A8F93249304803F0A4F9DF
:1047700000242C70306803210268686F90472D4F29
:10478000C0B20121E83701281FD02A483970002221
:1047900080F8212042747C70B970A86F38B33168FA
:1047A000A8460A681C219047C5B230681D210268DE
:1047B000D8F878009047C6B2D8F8740002F0C2F872
:1047C0001D4A002152F820000EE01A483C700122D8
:1047D00080F82120DFE7AA4200D17970425CB24222
:1047E00000D1B970491CC9B2425CFF2AF3D1FC70F8
:1047F0003C717C71BC71FC713C727C72BC72FC724D
:10480000484600F03FF809490C48C1F80C01002166
:10481000064803F0BFF8BDE8F0470021022001F090
:1048200099B9000000100020F41F0020F8100020AB
:10483000081200205813002098880108896A01088E
:1048400010B50E4C204603F0E9F804F5827003F031
:10485000B7FE022001F072F9094C6188084305D0C7
:10486000002902D06088401E608010BD00210846EB
:1048700002F054F904206080F4E70000F8100020F2
:1048800000100020002102F015B900002DE9F05FB2
:10489000954D0527DFF85492954EDFF858828346F0
:1048A000002405F16D0A3068295D02681AF80110CC
:1048B0005846904798F8002009EB82112A5D641C45
:1048C000E4B221F81200BC42EDD33746864E0125F2
:1048D0000024DFF820A2F61E06F101090AF17C0A85
:1048E0003868315D026819F801105846904798F809
:1048F00000200AEBC201325D641CE4B241F82200E0
:10490000AC42EDD33868012102685846904784B222
:10491000050C54EA050008D07748B0F800010128DA
:1049200003D00121744803F035F8D8F8300001268F
:1049300058B304B1ADB1714802F056FED8F830104A
:10494000884202D16D4802F0B4FED8F830004CF233
:104950001861428B8A4218D04183002102F093FDF6
:104960000FE000214183012102F08DFD634802F038
:104970003BFED8F83010884203D000215F4802F097
:104980003FFED8F8300080F8206098F80000002141
:1049900000EB40025548630600F1400000EB820046
:1049A0004FF00202417100D542716B0600D546718D
:1049B0008171E30600D58271EB0600D58671C17165
:1049C000A30600D5C271AB0600D5C6710172E3071C
:1049D00000D00272EB0700D00672230600D50272E7
:1049E0002B0600D506724172630700D542726B0731
:1049F00000D546728172A30700D58272AB0700D53D
:104A00008672C172210700D5C272290700D5C6720D
:104A1000D8F83010E9B33449D8F814204379491D47
:104A2000548B31F813309C4202D0538382F82060BB
:104A3000D8F8183082795C8B31F81220944202D079
:104A40005A8383F82060D8F81C20C379548B31F83E
:104A500013309C4202D0538382F82060D8F8202083
:104A6000037A548B31F813309C4202D0538382F87E
:104A70002060D8F82420437A548B31F813309C42BC
:104A800002D0538382F82060D8F82830827A5C8B79
:104A900000E011E031F81220944202D05A8383F8EA
:104AA0002060D8F82C20C07A538B31F81000834254
:104AB00002D0508382F82060D8F80C0008B180F84A
:104AC0002060D8F8100008B180F82060D8F868009D
:104AD00008B180F82060D8F85000002801D080F894
:104AE0002060BDE8F09F00004B8801080014002002
:104AF000F41F002000100020F8100020B012002049
:104B00002DE9F0478146002540F23F11284600F08C
:104B100065FA124C606849F2203645F20847B04207
:104B200002D06068B84201D100F068FE4FF49638B8
:104B3000484600F0FFFD6D1C4545F9D36068B04262
:104B400002D06068B84206D1BDE8F04701220421D6
:104B5000034800F039B8BDE8F08700008410002059
:104B6000000C014038B50121282000F039FF042055
:104B7000ADF8000003208DF8020010208DF803002E
:104B800069460F48FFF774FD80200E4DADF8000018
:104B900069462846FFF76CFD4FF40044ADF800402D
:104BA00069462846FFF764FD01222146284600F0A9
:104BB0000BF801228021284600F006F838BD0000DD
:104BC000000C014000140140FFF7A8BD064B30B4B3
:104BD0009B68203AD2B21C68DB88534304EB430243
:104BE00030BC00F003B80000841000202DE9F74F1E
:104BF000924600270646019900F0F0F949F2203963
:104C0000DFF890803EE06168494504D06168A1F515
:104C1000A840083801D100F0F1FD00254FF00C0B41
:104C200018E000BFB0FBFBF1CA00802191403AF8C8
:104C300017202941114201D10C2805D90121A94091
:104C40000A4203D10C2801D9608800E0208800F0D6
:104C500071FD6D1CA0688088A842E3D86168494551
:104C600004D06168A1F5A840083804D101220421CC
:104C70000948FFF7A9FF761CF6B23046019900F00B
:104C8000ADF97F1CD8F808004446C088B842BAD8AD
:104C9000BDE8FE8F84100020000C01402DE9F74F85
:104CA00082B0002604469246ADF80060ADF804607C
:104CB00001A9684600F0A4F8A0462046039900F038
:104CC0008DF949F2203945F2084B1D4D2EE06968F7
:104CD000494502D06968594501D100F08FFD002493
:104CE0000127B7400AE000BF3AF81400384224D048
:104CF000BDF8000000F01EFD641CE4B2A8688088C6
:104D0000A042F1D86968494502D06968594504D183
:104D1000012204210B48FFF757FF08F10100C0B240
:104D20008046039900F05AF9761CF6B2A868C0884C
:104D3000B042CCD805B0BDE8F08FBDF80400D9E78B
:104D400084100020000C01402DE9F05F99461646C2
:104D50008B460546002400F041F9DFF89C8049F2BB
:104D6000203045F20847B9F1000F03D0814648F2E0
:104D7000123A3DE0D8F804100546A94203D0D8F80D
:104D80000400B84207D100F039FD04E0B8F8000093
:104D900000F0D0FC641CB442F8D3D8F80410A94247
:104DA00003D0D8F80400B84224D1BDE8F05F012256
:104DB00004211248FFF708BFD8F80410494503D072
:104DC000D8F80410B94204D1B8F8000000F006FD8C
:104DD00007E0D8F80410514503D1B8F8000000F0FE
:104DE000A9FC6D1CEDB25946284600F0F7F8641C8A
:104DF000B442E1D3BDE8F09F84100020000C0140D4
:104E0000024A13880380508808807047841000206D
:104E1000014880687047000084100020012070471E
:104E200070B52D4C0025218821F038012180218882
:104E300041F00801218000F04BFD732000F06EFD71
:104E4000FF21204600F021FE8021204600F014FEC4
:104E50000028F9D10121204600F00EFE0028F9D0EB
:104E6000204600F010FE6D1CEDB2052DE8D3FF21A9
:104E7000204600F00AFE8021204600F0FDFD0028BB
:104E8000F9D10121204600F0F7FD0028F9D0204695
:104E900000F0F9FD0546FF21204600F0F6FD8021D7
:104EA000204600F0E9FD0028F9D10121204600F05C
:104EB000E3FD0028F9D0204600F0E5FDE9B240EA24
:104EC0000125012204210548FFF77EFE208820F0FD
:104ED00038002080284670BD00380040000C01409A
:104EE00030B587B00121082000F07AFD01218C0344
:104EF000204600F05DFD6010ADF8140003208DF831
:104F000016001820284D8DF8170005A92846FFF730
:104F1000AFFBADF8144005A92846FFF7A9FB6000D8
:104F2000ADF8140005A92846FFF7A2FB1F4C204648
:104F300000F078FD00211E4AADF800104FF4827099
:104F4000ADF802005068A0F51343203B04D0506830
:104F5000A0F5A843083B08D1ADF804100220ADF835
:104F600006000120ADF808000CE05068A0F50342EF
:104F7000123A07D14FF40060ADF80400ADF8061006
:104F8000ADF808104FF40070ADF80C10ADF80A0041
:104F9000ADF80E106946204600F079FD012120464B
:104FA00000F036FD07B030BD000C01400038004075
:104FB0008410002001B5BDF800000149488008BDFB
:104FC0008410002003B5BDF8001003480180BDF82F
:104FD000041041800CBD00008410002010B50C4668
:104FE00013494A68A2F51343203B04D04A68A2F54E
:104FF000A843083B06D10146202000F009FC2146C9
:1050000021200FE04968A1F50342123A0ED1014672
:10501000422000F0FDFBC4F30021432000F0F8FB28
:10502000E1B24420BDE8104000F0F2BB10BD00002A
:10503000841000200149886070470000841000201F
:1050400001B5BDF800000149088008BD84100020AA
:105050002DE9F05FFFF786FDFFF742FFFE4841684C
:105060004FF48075A1F513424FF4E06641F230072A
:1050700040F2022840F2023940F23F144FF4887A9D
:1050800041F2180B203A7CD1052003F0B6FBE90170
:10509000E52000F0BDFB0121002000F0B9FB29460E
:1050A000012000F0B5FB3146022000F0B1FB39468B
:1050B000032000F0ADFB0021042000F0A9FB4146D5
:1050C000082000F0A5FB0021092000F0A1FB002131
:1050D0000A2000F09DFB00210C2000F099FB00212C
:1050E0000D2000F095FB00210F2000F091FB002126
:1050F000102000F08DFB0021112000F089FB002121
:10510000122000F085FB0021132000F081FB142009
:1051100003F073FB41F2B071102000F079FB40F214
:105120003711112000F074FB052003F066FBA11F6E
:10513000122000F06DFB052003F05FFB4FF4E851F7
:10514000132000F065FB1321292000F061FB0520EE
:1051500003F053FB0021202000F05AFB0021212006
:1051600000F056FB0621302000F052FB691C312074
:1051700000F04EFB0321322000F04AFBA91D352030
:1051800000E070E000F044FB40F60231362000F011
:105190003FFB4946372000F03BFBF11D382000F073
:1051A00037FB0721392000F033FB4FF4C0613C206E
:1051B00000F02EFB40F20B213D2000F029FB0021E6
:1051C000502000F025FBEF21512000F021FB0021B1
:1051D000522000F01DFB2146532000F019FB4FF434
:1051E0001C51602000F014FB0121612000F010FB35
:1051F00000216A2000F00CFB0021802000F008FB59
:105200000021812000F004FB0021822000F000FB3F
:105210000021832000F0FCFA0021842000F0F8FA3D
:105220000021852000F0F4FA1021902000F0F0FA1F
:105230000021922000F0ECFA0321932000F0E8FA1C
:105240005146952000F0E4FA0021972000F0E0FAA2
:105250000021982000F0DCFA5946032000F0D8FA2B
:1052600040F27311FFE04168A1F5A842083A7CD1F1
:1052700043F20801E32000F0CBFA1221E72000F00E
:10528000C7FA41F23121EF2000F0C2FA294601208D
:1052900000F0BEFA3146022000F0BAFA3946032087
:1052A00000F0B6FA0021042000F0B2FA41460820CE
:1052B00000F0AEFA0021092000F0AAFA00210A202D
:1052C00000F0A6FA00210C2000F0A2FA00210D2027
:1052D00000F09EFA00210F2000F09AFA0021102021
:1052E00000F096FA0021112000F092FA002112201D
:1052F00000F08EFA0021132000F08AFA142003F047
:105300007CFA0721112000F083FA052003F075FADA
:1053100041F2B021102000F07BFA052003F06DFA75
:1053200040F2BD11122000F073FA052003F065FA77
:105330004FF4A051132000F06BFA0E21292000F049
:1053400067FA052003F059FA0021202000F060FAE6
:105350002146212000F05CFA0721302000F058FAA5
:105360004946312000F054FA00E07EE040F2051595
:105370002946322000F04CFA40F20626314635200C
:1053800000F046FA40F608073946362000F040FAA9
:105390003146372000F03CFA40F20451382000F04A
:1053A00037FA0721392000F033FA29463C2000F073
:1053B0002FFA39463D2000F02BFA0021502000F052
:1053C00027FAEF21512000F023FA0021522000F0AB
:1053D0001FFA2146532000F01BFA4FF427416020AA
:1053E00000F016FA0121612000F012FA00216A2073
:1053F00000F00EFA0021802000F00AFA002181203E
:1054000000F006FA0021822000F002FA0021832039
:1054100000F0FEF90021842000F0FAF90021852037
:1054200000F0F6F91021902000F0F2F9002192200E
:1054300000F0EEF90321932000F0EAF9514695209F
:1054400000F0E6F90021972000F0E2F90021982011
:1054500000F0DEF9594601E084100020032000F03E
:10546000D7F94FF4897107205DE14068A0F5034149
:1054700012397CD11021012000F0CAF9A0210020AE
:1054800000F0C6F90121032000F0C2F9012003F069
:10549000B4F90021032000F0BBF904212B2000F017
:1054A000B7F91821282000F0B3F905211A2000F0DF
:1054B000AFF90521252000F0ABF90021192000F0FB
:1054C000A7F973211C2000F0A3F97421242000F017
:1054D0009FF901211E2000F09BF9C121182000F046
:1054E00097F9012003F089F9E121182000F090F9E3
:1054F000F121182000F08CF9062003F07EF9F52147
:10550000182000F085F9062003F077F909211B2007
:1055100000F07EF9012003F070F911211F2000F046
:1055200077F90E21202000F073F981211E2000F070
:105530006FF9012003F061F900219D2000F068F966
:105540000021C02000F064F900210E2000F060F975
:1055500000210F2000F05CF90021102000F058F924
:105560000021112000F054F90021122000E0DEE0BB
:1055700000F04EF90021132000F04AF90021142018
:1055800000F046F90021152000F042F90021162014
:1055900000F03EF90021172000F03AF901213420F3
:1055A00000F036F90021352000F032F900214B20BF
:1055B00000F02EF900214C2000F02AF900214E20A5
:1055C00000F026F900214F2000F022F900215020A0
:1055D00000F01EF900213C2000F01AF900213D20C6
:1055E00000F016F901213E2000F012F93F21084693
:1055F00000F00EF90221402000F00AF902214120BA
:1056000000F006F90021422000F002F900214320B9
:1056100000F0FEF80021442000F0FAF800214520B7
:1056200000F0F6F8EF21462000F0F2F800214720C4
:1056300000F0EEF80021482000F0EAF801214920AE
:1056400000F0E6F83F214A2000F0E2F808211D2092
:1056500000F0DEF80021862000F0DAF83021872003
:1056600000F0D6F80221882000F0D2F80521892028
:1056700000F0CEF801218D2000F0CAF820218B2007
:1056800000F0C6F80121332000F0C2F801213720D4
:1056900000F0BEF80021762000F0BAF810218F202B
:1056A00000F0B6F86721902000F0B2F807219120B1
:1056B00000F0AEF86521922000F0AAF807219320AF
:1056C00000F0A6F80121942000F0A2F876219520A0
:1056D00000F09EF85621962000F09AF800219720BD
:1056E00000F096F80621982000F092F80321992006
:1056F00000F08EF800219A2000F08AF85021012055
:1057000000F086F80421052000F082F880210020B6
:1057100000F07EF801213B2000F07AF8042003F02D
:105720006CF820210020BDE8F05F00F071B8BDE802
:10573000F09F000070B5254E05467068244CA0F51A
:105740001341203904D07068A0F5A841083913D15D
:10575000290A204600F099F98021204600F08CF9B2
:105760000028F9D1E9B2204600F08FF980212046C7
:1057700000F082F90028F9D17068A0F503411239D0
:1057800022D1144E00224FF400413046FFF71CFA9C
:10579000012280213046FFF717FA0F4E0022042124
:1057A0003046FFF711FA2946204600F06EF98021B5
:1057B000204600F061F90028F9D13046BDE870407C
:1057C00001220421FFF700BA70BD00008410002000
:1057D0000038004000140140000C014010B50446A0
:1057E00000F00CF82046FFF7A5FF0122BDE81040AD
:1057F00004210148FFF7E8B9000C014010B5222050
:1058000000F066F8BDE81040722000F087B8000094
:105810002DE9F0412A4A53682A4E2B4CA3F5134533
:10582000203D04D05368A3F5A845083D1AD10D4684
:1058300000F04EF8722000F071F8290A204600F0BE
:1058400024F98021204600F017F90028F9D1E9B2A7
:10585000204600F01AF98021204600F00DF90028BA
:10586000F9D123E05268A2F50343123B25D1DFF8BA
:105870005C800546CFB200224FF400414046FFF75E
:10588000A3F9002280214046FFF79EF9002204215F
:105890003046FFF799F947EA0521204600F0F5F870
:1058A0008021204600F0E8F80028F9D13046BDE814
:1058B000F04101220421FFF787B9BDE8F081000023
:1058C00084100020000C014000380040001401400A
:1058D00070B50546702000F021F80E4C00212046DE
:1058E00000F0D3F88021204600F0C6F80028F9D156
:1058F0002946204600F0C9F88021204600F0BCF877
:105900000028F9D1BDE87040012204210248FFF7C8
:105910005BB9000000380040000C014010B504469F
:10592000002204210748FFF74FF92146064C204684
:1059300000F0ABF88021204600F09EF80028F9D155
:1059400010BD0000000C014000380040F0B50F21F0
:10595000C478027801234FF0E026DCB1124C2468B1
:10596000457804F4E064C4F5E064240AC4F1040753
:10597000E1408478BD400C402C4321010B4C115573
:10598000007800F01F018B40400906EB8000C0F852
:105990000031F0BD02F01F008340500906EB80008B
:1059A000C0F88031F0BD00000CED00E000E400E044
:1059B000044A0029D16901D0014300E08143D1614B
:1059C0007047000000100240044A0029116901D00C
:1059D000014300E081431161704700000010024064
:1059E000044A0029916901D0014300E0814391619B
:1059F0007047000000100240044A0029D16801D01D
:105A0000014300E08143D160704700000010024074
:105A10000029018802D041F0400101E021F040015D
:105A200001807047114910B588420AD184140121C0
:105A30002046FFF7E1FF2046BDE810400021FFF7B8
:105A4000DBBF0B49884202D10121041404E009495B
:105A500088420AD10121C4132046FFF7B5FF204632
:105A6000BDE810400021FFF7AFBF10BD003001407E
:105A700000380040003C00400246002012890A42E3
:105A800000D001207047808970478181704730B510
:105A900002884C8802F441530A88CD8822438C88BE
:105AA0002C4322430C8922434C8922438C89224374
:105AB000CC8922431A430280828B22F400628283C3
:105AC000098A018230BD000070B5FFF7C1FA0020DD
:105AD000FFF7A6F949F220310B4C884201D16160F1
:105AE0000EE045F208456560FFF7B2FA0020FFF7C7
:105AF00097F9A84204D048F212306060FFF7A8FA84
:105B000001480C30A06070BD8410002010B5002149
:105B1000072000F01FF80021052000F01BF80021ED
:105B2000062000F017F80021032000F013F80021F0
:105B3000BDE81040042000F00DB800000349044AFD
:105B400031F8101052F82000FEF7E1BD7C9D0108ED
:105B5000C01000207FB5044623480D46012150F8AF
:105B6000240040F00100FFF73BFF04208DF80F00F8
:105B70001D4803A9103830F81400ADF80C001B487C
:105B800050F82400FEF774FD012D2CD1164840304A
:105B900010F81410103810F81400FEF755FD1248D4
:105BA000203030F81400009000208DF804000CB173
:105BB0000C2000E008208DF8050001258DF8065026
:105BC0006846FEF709FD0848503010F814008DF8BB
:105BD00008000F208DF809008DF80A008DF80B5091
:105BE00002A8FFF7B3FE7FBD8C9D0108C010002006
:105BF0000CB500211F4801910091026842F48032E7
:105C000002604FF4A063026802F400320092019A2D
:105C1000521C0192009A12B9019A9A42F3D1026879
:105C2000920324D50121009141684160416841609F
:105C300041684160416821F47C114160416841F450
:105C400098114160016841F080710160016889012B
:105C5000FCD5416821F003014160416841F0020137
:105C600041604168C1F381010229FAD10CBD009164
:105C70000CBD000000100240104810B5016841F052
:105C80000101016041680E4A1140416001680D4AFE
:105C900011400160016821F480210160416821F414
:105CA000FE0141604FF41F0181600021C162FFF7D6
:105CB0009FFF05494FF00060086010BD00100240D2
:105CC0000000FFF8FFFFF6FE08ED00E02DE9F84FB9
:105CD000282002F0EBFC032100910523324A33A176
:105CE00002F0ACFC8246282002F0E0FC1E2100916C
:105CF00005232D4A30A102F0A1FC8146282002F0A4
:105D0000D5FC3C2100910523274A35A102F096FCE1
:105D10008046282002F0CAFC4B2100910523224A2C
:105D200038A102F08BFC0746282002F0BFFC5A2164
:105D3000009105231C4A3CA102F080FC0646282065
:105D400002F0B4FCB42100910523174A3FA102F0F0
:105D500075FC0546282002F0A9FC7321009105235B
:105D6000114A424902F06AFC044651460E4801F0CD
:105D70000CFC49460C4801F008FC41460A4801F079
:105D800004FC3946084801F000FC3146064801F0A1
:105D9000FCFB2946044801F0F8FB2146BDE8F84F1A
:105DA000014801F0F2BB00000812002048656C7049
:105DB0002050616765000000557365207468652098
:105DC0006A6F79737469636B20746F20776F726B7D
:105DD0002077697468204C434420475549000000EF
:105DE0002D55502F444F574E20746F206D6F7665A0
:105DF000206265747765656E20636F6E74726F6C78
:105E0000730000002D4C4546542F524947544820FA
:105E1000746F206D6F7665206265747765656E209E
:105E200070616765730000002D53454C20746F202E
:105E3000696E746572616374207769746820746830
:105E40006520636F6E74726F6C000000436F707931
:105E500072696768742053544D6963726F656C652D
:105E60006374726F6E6963730000000056880108E6
:105E70002DE9F04FF94887B0002180F821104174D6
:105E8000282002F013FC0021F44A0B460091A832AE
:105E9000F3A102F0D3FB0646282002F007FCEF4FE7
:105EA0003522A8374FF00A0B0097CDE901B23C2309
:105EB0009B22F1A102F022FB0546282002F0F6FB0E
:105EC000112100910F232A46F0A102F0B7FB0490A4
:105ED000282002F0EBFB252100910F232A46EEA19A
:105EE00002F0ACFB0590382002F0E0FB4FF06E0AA8
:105EF000EC4CCDE9005A4FF00F08CDF8088022781D
:105F000007F5A87909EB82110323E7A201F0A2F9B2
:105F1000E060382002F0CAFB23210095CDE901A101
:105F20002278032309EB8211891CDFA201F092F988
:105F30002061282002F0BAFB1421CD220097CDE980
:105F40000121AA236422D9A102F0D8FA03902820C3
:105F500002F0ACFB0523CDF80080D6A1039A02F035
:105F60006DFB6061282002F0A1FB21210091052337
:105F7000D3A1039A02F062FBA061282002F096FBF5
:105F8000332100910523D1A1039A02F057FBE06170
:105F9000282002F08BFB452100910523CEA1039A16
:105FA00002F04CFB2062282002F080FB5721009178
:105FB0000523CCA1039A02F041FB6062282002F085
:105FC00075FB692100910523C9A1039A02F036FBF4
:105FD000A062282002F06AFB7B2100910523C7A163
:105FE000039A02F02BFBE062302002F05FFB8D2170
:105FF00000910A23C4A1039A00F040FFC549206321
:1060000041624CF218614183002101F03CFA3846AC
:10601000216B01F0BAFA3146384601F0B6FADFF8E2
:10602000F8A2DAF800000169606F8847C00607F53A
:10603000C87977D5282002F039FB73220097CDE983
:1060400001B23C23BE22B5A102F058FA0646282030
:1060500002F02CFB1121009105233246B3A102F07E
:10606000EDFA8046282002F021FB2521009105232E
:106070003246AFA102F0E2FA0746382002F016FBE2
:106080000190606F00F05EFCDFF8A8B22123324679
:106090005BF820100F200090019802F0E3F9606097
:1060A000382002F003FB0190606F00F04BFC5BF8BE
:1060B00020102320009021233246019802F0D2F9CB
:1060C000A0603146A9F5C87001F05FFA4146A9F514
:1060D000C87001F05AFA3946A9F5C87001F055FAAE
:1060E000A9F5C870616801F050FAA9F5C870A168F7
:1060F00001F04BFA20784E4600EB400009EB80009F
:106100004178606802F073F8207800EB400006EBFD
:1061100080008178A06802F06AF861688648486269
:10612000A16848624D482946A83001F02EFA4B4834
:106130000499A83001F029FA48480599A83001F0DF
:1061400024FA4648E168A83001F01FFA4348216963
:10615000A83001F01AFA0021E06801F094F900215A
:10616000206901F090F9DAF800000169606F884752
:106170000221B1EB107F03D0C0F30360022813D1DA
:10618000302002F093FAB221344A00910A23A83257
:106190006AA100F073FE0146E0653048A83001F0C6
:1061A000F4F9E16D6A4848622C480399A83001F07F
:1061B000ECF92A486169A83001F0E7F92748A1699C
:1061C000A83001F0E2F92548E169A83001F0DDF9D5
:1061D0002248216AA83001F0D8F92048616AA83025
:1061E00001F0D3F91D48A16AA83001F0CEF91B488F
:1061F000E16AA83001F0C9F92078626900EB40013A
:1062000009EB81014B484B79283830F81330538320
:106210008B79A26930F813305383CB79E26930F877
:10622000133053830B7A226A30F8133053834B7A3E
:10623000626A30F8133053838B7AA26A30F81330D5
:106240005383C97AE26A30F81100508307B00348DB
:10625000BDE8F04FA83001F02CBA00000812002071
:10626000436F6E66696775726174696F6E20616EE7
:106270006420646562756700506F77657220626F95
:10628000617264207374617475730000444320422A
:10629000757320766F6C74004865617473696E6BFA
:1062A00020542E0000100020253364004661756CD8
:1062B000747300004F76657263757272656E740058
:1062C0005265767570206661696C00005370656573
:1062D00064206664626B00005357206572726F72AF
:1062E00000000000556E64657220766F6C740000CB
:1062F0004F76657220766F6C740000004F76657281
:106300002074656D700000004661756C74206163D7
:106310006B000000716A0108F41F00204441432013
:1063200053657474696E6773000000004368310040
:106330004368320078880108CD6B0108456E636FB1
:1063400064657220616C69676E6D656E7400000033
:10635000396C01082DE9F04F87B0282002F0A6F92A
:1063600000210B460091FE4AFEA102F067F903905E
:10637000282002F09BF90A22F94BCDE900324FF0B8
:106380001408CDF808805A239122FBA102F0B6F838
:106390000746282002F08AF91E2100913C233A4644
:1063A000F8A102F04BF90490282002F07FF9412176
:1063B00000913C233A46F4A102F040F9834628209C
:1063C00002F074F90F21009105233A46EFA102F083
:1063D00035F98246402002F069F91E210522009716
:1063E000CDE90121ED490623A1F17C04227801EBDE
:1063F000C201EBA201F08CFA05466063E948402136
:1064000000680268606F90470646E6483F210068D2
:106410000268606F9047C5E90E60282002F046F9D7
:106420003221009105233A46DFA102F007F98146A7
:10643000382002F03BF9412105220097CDE90121E6
:10644000C74D2178A83505EB8111091D0623D4A27B
:1064500000F000FF47F6FF720021A06300F0CDFEC0
:10646000302002F023F9412100915A233A46D2A16B
:1064700000F004FDD249E063416200F0FDF92820FC
:1064800002F014F9B64973230A228DE80E004B235B
:106490006822CCA102F032F80646282002F006F964
:1064A0000A233246CAA1CDF8008002F0C7F8059051
:1064B000282002F0FBF8232100910A233246C5A1CF
:1064C00002F0BCF80690382002F0F0F841464FF098
:1064D00028080096CDE901812178062305EB81117A
:1064E000891DAFA200F0B6FE2064382002F0DEF86D
:1064F00023210096CDE901812178062305EB811146
:106500000831A7A200F0A6FE60649548039901F047
:106510003CF89348049901F038F85946904801F046
:1065200034F839468E4801F030F851468C4801F075
:106530002CF88B48616B01F028F84946884801F037
:1065400024F88748A16B01F020F88548E16B01F041
:106550001CF88348216E01F018F88148616E01F043
:1065600014F87F48A16E01F010F87D48216F01F00A
:106570000CF80021A06E00F086FF7948E16E01F072
:1065800004F83146764801F000F87548059900F0A6
:10659000FCFF7348069900F0F8FF7148216C00F089
:1065A000F4FF6F48616C00F0F0FF7E4800680169FD
:1065B000606F884780072ED5282002F077F84FF0CB
:1065C00032080A23324684A1CDF8008002F036F862
:1065D0000746382002F06AF82822CDE90062CDF89B
:1065E00008802178062305EB81110A316CA200F0A6
:1065F00031FEA06439465A4800F0C7FF5848A16CE4
:1066000000F0C3FF47F6FF720021A06C00F0F5FD1B
:10661000216C7248486247F6FF7B5E465A4600216D
:10662000206C00F0EAFD32460021606C00F0E5FDD0
:106630005C4800680169606F8847C0077DD02820EA
:1066400002F034F8464973237D228DE80E004B2377
:10665000B42263A101F052FF0646282002F026F87A
:106660000E270A23324662A1009701F0E7FF824617
:10667000282002F01BF8502332465DA1009701F05C
:10668000DDFF8146382002F011F80A22CDE90062D0
:10669000192702972178042305EB81110C3156A2AA
:1066A00000F0D8FDE064382002F000F85022CDE977
:1066B000006202972178042305EB81110E314EA26E
:1066C00000F0C8FD2065282001F0F0FF2C270A23E8
:1066D00032463FA1009701F0B1FF8046282001F02B
:1066E000E5FF502332463BA1009701F0A7FF074684
:1066F000382001F0DBFF37210A220096CDE9012185
:106700002178062305EB8111103125A200F0A2FDAE
:106710006065382001F0CAFF372150220096CDE98C
:1067200001212178062305EB811112311CA200F012
:1067300091FDA06531460A4800E08DE000F025FF9C
:106740005146074800F021FF4946054800F01DFF6B
:106750000348E16C00F019FF0148216D4EE0000094
:1067600058130020537065656420636F6E74726FF8
:106770006C6C65720000000053657420706F696E68
:106780007400000072706D006D73000054617267D8
:106790006574207370656564000000007C10002043
:1067A00025366400F41F002052616D7020647572FC
:1067B0006174696F6E000000457865630000000039
:1067C000516C0108504944204761696E7300000014
:1067D0004B5000004B4900004B440000596B01082E
:1067E000466C757820776C2E2074756E696E670024
:1067F00042555380000000002534640000F0C5FEBF
:106800000021206D00F03FFE4146194800F0BDFE1A
:106810003946174800F0B9FE1548616D00F0B5FE25
:106820001348A16D00F0B1FE4FF47A720021E06CC4
:1068300000F0E3FC5D465A460021606D00F0DDFC8F
:106840002A460021A06D00F0D8FCE16C094848629E
:10685000616D4862A16D4862216C06484862616CB6
:10686000486207B00248BDE8F04F00F022BF0000C8
:1068700058130020596B01083EB5282001F016FF7F
:10688000A0232249CDE90013142202925A23912217
:106890001FA101F033FE204C2066282001F006FFE6
:1068A0000F21009105231DA1226E01F0C7FE606635
:1068B000402001F0FBFE226E0521CDE900211E25BE
:1068C0000295227804F17C0101EBC201091D062327
:1068D00016A201F01DF8A066302001F0E7FE41216C
:1068E0000091052312A1226E00F0C8FAE06628206C
:1068F00001F0DCFE00953C2310A1226E01F09EFE0B
:106900002067E16E0E4848623EBD00001C11002069
:106910004D6F6E69746F7200001000204D656173D9
:1069200075726564207370656564000025366400C7
:1069300053746172742F53746F70000072706D0025
:106940001D6B010870B53149002409680969884741
:10695000010E0E074FF009014FF00A024FF002033B
:106960004FF001050ED0B1EB107F03D1C0F30366E9
:106970000A2E17D0B2EB107F15D1C0F30366092E93
:1069800010D010E0B1EB107F00D10124B2EB107FEA
:1069900000D10224B5EB107F02D0B3EB107F33D1CE
:1069A000032431E00624B1EB107F05D1C0F303616D
:1069B00002290BD0012909D0C0F30361092906D1AE
:1069C000B3EB107F02D0B5EB107F00D10424B2EB03
:1069D000107F05D1C0F3036102290BD0012909D032
:1069E000C0F303610A2906D1B3EB107F02D0B5EBE7
:1069F000107F00D105240B21B1EB107F04D1C0F32F
:106A00000360092800D10724204670BDF41F002030
:106A100010B5144800F01BFE1248A83000F017FE15
:106A2000114800F014FE1148002141608160C160EE
:106A3000016141618161C161016241628162C16242
:106A4000016341638163C163016441648164C16422
:106A5000016541658165C165016641668166C16602
:106A6000016710BD081200205813002000100020FC
:106A7000034807210068C2680248406F10470000C1
:106A8000F41F00200010002010B50C46FFF7C0FFD7
:106A90003CB1012C09D0022C0BD1BDE81040FFF70E
:106AA00059BCBDE81040FFF711B9BDE81040FFF731
:106AB000DFB910BD2DE9F047814616480E46134F49
:106AC000DFF84C80002400EB8615395D5D2908D085
:106AD000D8F80000026848469047411C01D025F8CC
:106AE0001400641CE4B2202CEFD3D8F80000042179
:106AF000026848469047084941F8360095F83A2020
:106B000031464846BDE8F04700F046B8B88801086D
:106B1000F41F0020001400207C10002070B50C4CE5
:106B20000A490C4D207801EB80118A8804F17C0120
:106B300051F8301028684368606F9847286806212C
:106B4000C268606FBDE8704010470000001400206C
:106B500000100020F41F002030B40A46018D0B48BD
:106B6000094B047803EB8413C91AC1F3470308499E
:106B7000C95C5D2905D0074B406F1B689B6830BC22
:106B8000184730BC7047000000140020001000209F
:106B9000B8880108F41F0020F8B51546094A02EB31
:106BA0008114094904F1380200920968931E121FEA
:106BB0008E692946B047E08E00EB40004000E08639
:106BC000F8BD000000140020F41F00202DE9F04162
:106BD000154C03462046154F01786268144D154E3A
:106BE00001EB4101406F07EB810193420BD192F819
:106BF00030704F70FFF7A6FE55F820000021C25DEF
:106C00003068C3690BE0A26892F830708F70FFF7AC
:106C100099FE55F820000121C25D3068C369A06F5C
:106C2000BDE8F0411847000000100020401400208B
:106C300098880108F41F0020034808210068C268F2
:106C40000248406F10470000F41F00200010002091
:106C50000848074A00F17C030178406F02EB81127B
:106C600053F83110044B92881B685B68184700008A
:106C70000014002000100020F41F00200146002016
:106C80000A5C401CC0B2002AFAD1704710B500243B
:106C900000F0E9F800B10124204610BD70B5426A49
:106CA0000D4604464AB194F82C0030B12DB994F841
:106CB000210010B100212046904784F82C5070BD6F
:106CC00070B500240546052906D10021FFF7E6FF2F
:106CD000284601F02BF80124284600F0C4F800B142
:106CE0000124204670BD2DE9FC5F0646C069C188BD
:106CF0008588891D8CB2B06AFDF70AF94543ED1D00
:106D0000A9B22246304601F04CF8304600F0EFFFC1
:106D100085B2304600F0EBFF040C304601F06AF813
:106D2000801E87B2304601F043F8801E1FFA80F8BB
:106D3000B6F81A90304601F05DF80190304601F047
:106D400037F88346304600F0D2FF8246304600F0E6
:106D5000CEFF4FEA1A4180B2CDF800905A46019B0F
:106D600000F03EFB304600F07EF840B3304600F0C5
:106D7000BEFF801C85B2304600F0B9FF0014801CB5
:106D800084B2B6F81A90304601F034F8401E82B250
:106D9000CDF80090A4F10109681E1FFA89F180B2B4
:106DA000012300F0FBFAB6F81AA0304601F000F813
:106DB000801E82B21FFA89F1CDF800A011E0708B1D
:106DC0000090601C81B205EB080080B201233A46B6
:106DD00000F0E4FA708B009008F1020082B2E01932
:106DE00081B20023284600F0D9FA708B00903B4610
:106DF00042462146284600F0F3FA308B0090F81EF8
:106E000082B2A01C814681B2A81C80B2012300F08E
:106E1000C5FA96F8210008B11F2000E0308B0090E1
:106E2000A8F1020082B2BF1E641C681CBBB2A1B2F2
:106E300080B200F0D5FAB26AED1C02B01FFA89F1F7
:106E4000A8B2BDE8F05F00F00BBB10B5044600200F
:106E5000052907D101212046FFF720FF204600F039
:106E600065FF012010BD90F82C1021B190F8210091
:106E700008B10120704700207047000070B51C4623
:106E800016460D4622463146049B00F003FB084996
:106E900001600021416280F82C100446012100F0BD
:106EA000F2FA0121A562204684F8201070BD00008E
:106EB00060A7010801F0F5BB70B5C46A0D4604B9BE
:106EC00011A490F83310062919D2DFE801F0180355
:106ED00003070B0F00F063F802460AE000F05FF8CA
:106EE00082B206E000F05BF802B202E000F057F870
:106EF000C2B221462846BDE87040FCF7D7BD00F07D
:106F00004EF842B2F5E700002564000070B50E4669
:106F10000446002500F03FFC28B3A06A10B3012E00
:106F200002D0022E1ED10DE094F83200218EFF28EF
:106F30000144218602D0401C84F83200204600F033
:106F400042F90CE094F83200218EFF28014421869A
:106F500002D0401C84F83200204600F006F820469B
:106F600000F0E4FE0125284670BD10B5024600F091
:106F700016F80146B2F93000B2F93430091A8B42E2
:106F800006DD8010108692F83200800882F8320008
:106F900092F83300BDE81040104600F02DB890F88C
:106FA0003310806A06290DD2DFE801F00C030305D7
:106FB000070A0068704700887047B0F90000704702
:106FC0000078704790F90000704770B50E4604468F
:106FD000002500F0E0FB00B10125052E08D194F852
:106FE000230038B1002084F82300204600F09EFEE4
:106FF000284670BD0120F6E710B50246806A0028D9
:107000001FD0B2F934308B421BDCB2F936308B42E0
:1070100017DB92F83330022B04D0042B04D049B292
:10702000017002E0016000E00180506A002808D091
:107030001046FFF7B4FF536A0146BDE81040104602
:10704000184710BD2DE9F0418AB00446202101A85F
:10705000FCF77DFF658B204600F0CCFE8046204685
:1070600000F0A6FE0646204600F041FE07462046F8
:1070700000F03DFE390C80B243463246009500F0E8
:10708000AFF9258B204600F0B5FEC01E87B2204622
:1070900000F02DFE0646204600F029FE3114891C22
:1070A000801C89B280B201233A46009500F076F93F
:1070B00094F82100A0B1204600F09CFE801E87B20B
:1070C000204600F075FE801E86B2204600F00FFEBE
:1070D0000546204600F00BFE1F210091291414E004
:1070E000258B204600F086FE801E87B2204600F0E9
:1070F0005FFE801E86B2204600F0F9FD80462046E5
:1071000000F0F5FD4FEA28410095491C401C89B26A
:1071100080B23B46324600F063F9204600F03BFB6C
:1071200050B194F8210038B14FF6E070ADF800008E
:10713000BDF80000FDF73EFF94F8220038B947F68D
:10714000FF70ADF80000BDF80000FDF733FFA06A46
:10715000002812D001A92046FFF7AEFE204600F01D
:10716000C6FD0546204600F0C2FD2914891CC01C3E
:1071700089B280B201AA00F073F90AB0BDE8F081CB
:1071800070B50E460446002500F005FBC8B1A06AA4
:10719000B0B100200121012E02D0022E10D106E054
:1071A000218684F83200204600F00DF805E02186A3
:1071B00084F832002046FFF7D8FE204600F0B6FDE6
:1071C0000125284670BD10B50246FFF7E8FE0146CE
:1071D000B2F93000B2F9363001448B4206DA801041
:1071E000108692F83200800882F8320092F833005C
:1071F000BDE810401046FFF7FFBE8186C28670478B
:107200002DE9F04106AC1D4617460E460ECC00F0A7
:10721000CDFA0F4901600221044680F833100121A4
:10722000C4E90A670186C069C1888088091D68436E
:107230008AB2401D81B2204600F0B3FD48F2010140
:10724000A186891EE186002120466162BDE8F081A9
:1072500088A701082DE9F04106AC1D4617460E46E9
:107260000ECC00F0A3FA0F4901600421044680F817
:1072700033100121C4E90A670186C069C18880888A
:10728000091D68438AB2401D81B2204600F089FD85
:1072900048F20101A186891EE18600212046616233
:1072A000BDE8F08188A7010801F0FBB92DE9FC4198
:1072B0000D461349DDF820801C4609881700A1EB14
:1072C0000000A0F1010086B218D001A96846FDF7C0
:1072D00097FD4046FDF7B4FE07E0E8B26D1CADB285
:1072E00000233A463146FDF72FFD2000A4F10104AA
:1072F000A4B2F2D1BDF80000FDF7A2FEBDE8FC810A
:10730000E210002010B5FEF7DFFB4FF6FF742046B9
:10731000FDF7F6FB2046FDF74DFEBDE810400020CE
:10732000FDF78EBE2DE9F04190460E460446054617
:10733000FDF774FD184F012803D13888001B401E4B
:1073400085B2FDF765FD808839882044884221D8C0
:10735000FDF75EFD8088062804D1FDF759FDC08841
:10736000082806D0F0B242462946BDE8F041FDF7B4
:107370002DBCFDF74DFD0468FDF74AFD8188A8F19D
:107380002000414304EB4102F0B22946BDE8F04140
:10739000FDF784BCBDE8F081E21000202DE9FC413E
:1073A0000E460E49984614460988089F081A401E42
:1073B00085B201A96846FDF723FD3846FDF740FE7A
:1073C00034B1641EA2B2F0B243462946FDF7BCFCBC
:1073D000BDF80000FDF734FEBDE8FC81E21000209E
:1073E0002DE9FC410D461D49089F1C4609881600E1
:1073F000A1EB0000A0F101001FFA80F82BD0002CB7
:1074000029D001A96846FDF7FBFC3846FDF718FEB8
:10741000771EBAB2E8B200234146FDF795FC281961
:10742000401EBAB2C0B200234146FDF78DFC601E7B
:1074300082B2E8B201234146FDF786FCA8EB0600C4
:10744000401C81B2E8B201232246FDF77DFCBDF865
:107450000000FDF7F5FDBDE8FC810000E210002012
:1074600070B514460E46054609E031462846FFF73A
:1074700059FFFDF7CDFC8088641C284485B2227832
:10748000002AF2D170BD80F82210002901D180F8C5
:10749000211070472DE9FF411F46944600240D46F8
:1074A000064623463A46614601A8009400F006FCD1
:1074B00002462946304600F0D9FC0449016080F8B4
:1074C000224080F8214004B0BDE8F081ACA701085B
:1074D00001F0E7B800224274002904D090F821207E
:1074E000002A00D04174704700F069BC70B50C46AA
:1074F00000F094FC05460948286054B1204600F08D
:1075000079FC0246A0892189401A81B2284600F000
:1075100048FC012085F82100284670BDD0A701084D
:107520002DE9F04186B00F46DDE90C4580461E4648
:10753000114602A800F0B8FB0246334639464046E1
:10754000CDE9004500F0BEFC03490160012180F84F
:10755000211006B0BDE8F081D0A7010810B500F0F9
:10756000D7FC03490160012180F8211010BD000003
:10757000D0A7010870B50D46044600F0E7FC95F869
:10758000210084F82100204670BD002909D0B0F800
:10759000A620202A05D200EB8203521CA0F8A620C8
:1075A0005962704770B50C46054600F01DF8016839
:1075B0004A6921469047002807D1012C06D0022CA9
:1075C00003D1284600F075F8012070BD284600F070
:1075D0008BF8F9E710B50B4600F006F801688A69E8
:1075E000BDE8104019461047B0F8A620B0F8A41026
:1075F0008A4203D900EB8100406A7047002070473F
:1076000070B50446B0F8A6000E46B0421ED920461A
:10761000FFF7EAFF002580F821502046FFF7E4FF3E
:1076200000F084FBA4F8A4602046FFF7DDFF80F89B
:10763000215090F8222001210AB180F82110204623
:10764000FFF7D2FFBDE8704000F070BB70BD70B5B1
:107650000546002408E005EB8400406A10B101688B
:1076600049688847641CE4B2B5F8A600A042F2D885
:10767000002025F8A40F688070BD70B5054690F80D
:10768000200010B1284600F051FBB5F8A6000028F4
:107690000ED0002408E005EB8400406A90F820102A
:1076A00009B100F043FB641CB5F8A600A042F2DC6F
:1076B00070BD30B4B0F8A630002B13D0B0F8A410D1
:1076C0000A46491C8B4200D800218A4206D000EBB2
:1076D0008104646A94F82240002CF2D030BC89B254
:1076E000FFF78EBF30BC704730B4B0F8A620002A38
:1076F00012D0B0F8A4100B4601B91146491E8B42B6
:1077000006D000EB8104646A94F82240002CF3D088
:1077100030BC89B2FFF774BF30BC704770B5044607
:1077200000F04DFBB4F8A60000280BD0002505E0C2
:1077300004EB8500406A00F0F9FA6D1CB4F8A6006D
:10774000A842F5DC70BD70B50C460546FFF74CFF4E
:1077500001680A6921469047002807D1012C06D00C
:10776000022C03D12846FFF7A4FF012070BD284654
:10777000FFF7BAFFF9E7000010B5FFF7B7FE0449BD
:1077800001600021A0F8A410A0F8A610417410BD5B
:10779000F4A70108704790F8231021B190F8210058
:1077A00008B10120704700207047000010B5FFF7B6
:1077B00071FE044605482060002084F82300012162
:1077C0002046FFF760FE204610BD000018A8010803
:1077D00000F067BF70B50E4604460025FFF7DBFFDB
:1077E00038B3A06A20B3012E02D0022E20D10EE0C1
:1077F00094F83210208EFF2908442086084602D0D3
:10780000401C84F83200204600F06AF80DE094F83D
:107810003210208EFF2908442086084602D0401CE2
:1078200084F83200204600F006F8204600F07EFA88
:107830000125284670BD10B50246FFF7B0FB014692
:10784000B2F93000936B091A8B4206DD8010108666
:1078500092F83200800882F83200BDE810401046ED
:10786000AFF3008010B50246806A002812D0936BF7
:107870008B420FDCD36B8B420CDB0160506A00281B
:1078800008D01046FFF78BFB536A0146BDE8104055
:107890001046184710BD70B50E4604460025FFF788
:1078A0007AFFD8B1A06AC0B1012E02D0022E14D145
:1078B00008E001202086002084F83200204600F0F5
:1078C0000FF807E001202086002084F832002046CF
:1078D000FFF7B1FF204600F029FA0125284670BDC8
:1078E00010B50246FFF75BFB0146B2F93000D36BDF
:1078F00001448B4206DA8010108692F8320080082C
:1079000082F83200BDE810401046FFF7ABBF000020
:10791000FEB508AF70CF8DE87000FFF771FC03492A
:107920000160034981630349C163FEBD3CA80108AE
:107930006179FEFF3F420F0000F0B3BE10B50C4668
:1079400000F021F801684A692146BDE8104010475F
:10795000903000F06EBE70B50C46054600F013F88E
:1079600001688A6921469047002807D1032C06D078
:10797000042C03D1284600F035F8012070BD2846BC
:1079800000F07EF8F9E7B0F8001100EB8100D0F8C4
:10799000E000704770B50446B0F802010D46A842F9
:1079A0001CD92046FFF7EFFF0021FFF793FDA4F855
:1079B00000512046FFF7E7FF0121FFF78BFD20462E
:1079C000FFF7E1FF012180F82010D4F80C21002AF4
:1079D00004D029462046BDE87040104770BDB8303D
:1079E00000F027BE30B4B0F80231002B14D0B0F84C
:1079F00000110A46491C8B4200D800218A4207D058
:107A000000EB8104D4F8E04094F82140002CF1D040
:107A100030BC89B2FFF7BEBF30BC704770B50446BA
:107A200000F1900590F8B00028B1284600F0C7F9A1
:107A3000284600F07BF994F8D80004F1B80528B185
:107A4000284600F0BCF9284600F070F994F82000B0
:107A500010B1204600F06AF9B4F80211B4F8000140
:107A600081420CD904EB8000D0F8E000002806D059
:107A70002046FFF788FFBDE87040FFF7FEBD70BDF0
:107A800030B4B0F80221002A14D0B0F800110B462F
:107A900009B1491E00E0511E8B4207D000EB810462
:107AA000D4F8E04094F82140002CF1D030BC89B2E9
:107AB000FFF770BF30BC704700290AD0B0F8022130
:107AC000082A06D200EB8203521CA0F80221C3F858
:107AD000E0107047704710B50C46FFF754FF01687F
:107AE0000A692146BDE81040104700002DE9FF4F0C
:107AF00099B00446DDE926769B461546114615A841
:107B000000F0D2F8CDE9007602465B46002120461F
:107B1000FFF706FD5D494FF0000840F8241BFFF712
:107B20001DFD2430FFF71AFD2430FFF717FD243028
:107B300000F096FD283000F093FDA0F1B8044C3021
:107B40005349C0E900188146FFF7DCFBA4F8028125
:107B5000A4F800812889A988DFF838A1401A83B2E7
:107B6000BAF806000022801C80B20090114615A8C9
:107B700000F0A4F81F22CDE9002A4FF6FF7A024652
:107B80005346214602A8FFF7CBFC014604F148000A
:107B90001890FFF7EFFC189800F0C8F82889A9881A
:107BA000401A83B26889E988411AF088091A801C52
:107BB000891E80B20AB20090002115A800F07EF85C
:107BC000CDE9007602465B46214602A8FFF7A8FCF5
:107BD000014604F16C008346FFF7CCFC584600F0E8
:107BE000A5F86989E8880F1A584600F003F93F1A8A
:107BF000189800F0FFF8381A87B22889A988401A27
:107C000085B2189800F0F6F802B22B46002115A8AC
:107C1000009700F053F8CDE900A602460023214664
:107C200002A8FFF77DFC014604F124000546FFF79A
:107C3000A1FC284600F07AF80120034600900BA82A
:107C4000189A1A9900F0FAFC014604F1900000F02D
:107C500017FD01235A4610A10BA8CDF8008000F0B3
:107C6000EDFC014604F1B80000F00AFD202104F10A
:107C7000E000FCF76CF94D4600F056FC6C60C4F86F
:107C80000C811DB02046BDE8F08F000060A80108FF
:107C90002CA901089010002020000000014901607B
:107CA0007047000060A80108034A02604A68426009
:107CB000896881607047000084A8010830B5054DCF
:107CC000039C05608180C2801944018111194181A2
:107CD00030BD000084A801080349016000218180B3
:107CE000C18001814181704784A80108704730B587
:107CF00005464069002468B1FFF7F9FF2989084467
:107D000060F30F046869FFF7F2FF698901EB204116
:107D1000204604E02989204661F30F00698961F358
:107D20001F4030BD00207047002070472DE9FC4106
:107D30000446002084F82000204600F060F8B0B12E
:107D4000E06908B1FDF776F9608BADF80000208B93
:107D5000ADF80400BDF80410BDF80000FDF732F9DD
:107D60002068816802B02046BDE8F0410847E089FC
:107D70006189268B401A85B2A0892189401A87B271
:107D80002046FFF7B4FF80462046FFF7B0FF4FEADA
:107D9000184180B22B463A460096FFF787FABDE8B5
:107DA000FC8103891944818141891144C181704753
:107DB00081890089081A80B27047002070472DE938
:107DC000F8430746048B00F015F880463846FFF765
:107DD000EFFF05463846FFF78AFF06463846FFF7AD
:107DE00086FF310C80B243462A460094FFF75EFAC4
:107DF000BDE8F883C1894089081A80B2704710B580
:107E00000446406930B1FFF7FAFF28B1607C18B131
:107E1000012010BD607C10BD002010BD0A4610B5C9
:107E2000114902C0FFF758FF041F00202081608124
:107E3000A081E08101216174217484F8200004F1A3
:107E40001A00811E6261FCF7DBFFFCF7E1FFE061D5
:107E5000606938B1408B60836069008B2083606902
:107E6000C069E061204610BD94A801080B4610B51A
:107E7000134902C0FFF730FF041F90882081D0888B
:107E800060811089A0815089E08101206074207494
:107E9000002084F8200004F11A00811E6361FCF7C1
:107EA000AFFFFCF7B5FFE061606938B1408B6083DC
:107EB0006069008B20836069C069E061204610BD65
:107EC00094A801082DE9F0410F46DDE906650F4948
:107ED00002C0FFF701FF041F90882081D0886081D5
:107EE0001089A0815089E0810120607420740020F5
:107EF000676184F8200063832683FCF789FFE061D3
:107F000005B1E5612046BDE8F081000094A80108B4
:107F100010B50D4902C0FFF7DFFE041F00202081CD
:107F20006081A081E08101216174217484F82000C6
:107F3000606104F11A00811EFCF762FFFCF768FF24
:107F4000E061204610BD000094A801088B688360A2
:107F5000CB68C3600A7C02744A7C42744A694261FD
:107F60000A8B02834A8B4283CA69C26191F820104E
:107F700080F82010704710B50024FFF70CFC00B10A
:107F80000124204610BD70B50E4604460025FFF7BB
:107F900002FC00B10125052E08D194F8230038B168
:107FA000002084F823002046FFF7C0FE284670BD5D
:107FB0000120F6E72DE9F843816A044671B1E069D2
:107FC000C2888688121D95B20846FBF7A1FF46437A
:107FD000761DB1B22A462046FFF7E3FE658B2046A8
:107FE000FFF708FF80462046FFF7E2FE06462046E0
:107FF000FFF77DFE07462046FFF779FE390C80B279
:10800000434632460095FFF7EBF9258B2046FFF7F4
:10801000F1FEC01E87B22046FFF769FE06462046E5
:10802000FFF765FE3114891C801C89B280B20123E0
:108030003A460095FFF7B2F994F82100A0B1204626
:10804000FFF7D8FE801E87B22046FFF7B1FE801EE4
:1080500086B22046FFF74BFE05462046FFF747FE57
:108060001F210091291414E0258B2046FFF7C2FE42
:10807000801E87B22046FFF79BFE801E86B22046F8
:10808000FFF735FE80462046FFF731FE4FEA2841D4
:108090000095491C401C89B280B23B463246FFF72E
:1080A0009FF92046FFF777FB50B194F8210038B1D3
:1080B0004FF6E070ADF80000BDF80000FCF77AFF65
:1080C0002046FFF714FE05462046FFF710FE291450
:1080D000A26ABDE8F843891CC01C89B280B2FFF7D0
:1080E000BFB90122816280F82020426A002A00D0B4
:1080F0001047704710B50024FFF74DFB00B1012475
:10810000204610BD70B51C4616460D462246314627
:10811000049BFFF74BFB044604482060002060628C
:1081200029462046FFF7DDFF204670BDB8A80108AC
:1081300000F0B7BA10B50024FFF72DFB00B1012401
:10814000204610BD70B50E4604460025FFF723FB00
:10815000D0B1012E02D0022E15D108E0208E00B938
:10816000608E401E81B2204600F041F80FE0618E23
:10817000208E491E884201D1002101E0401C81B2BD
:10818000204600F034F80125052E03D000E001253B
:10819000284670BD94F8230030B1002084F82300F5
:1081A0002046FFF7C3FDF2E70120F7E710B50446CC
:1081B00000206086E06A98B910BD00BFFBF7A8FEFA
:1081C000A18E884206D9618EE06A50F82100FBF743
:1081D0009FFEA086608E401C80B26086FF28EBD890
:1081E000608EE16A51F820000028E7D110BD428E70
:1081F0008A4208D9002A06D00186C26A52F82110A4
:108200000268D269104770472DE9FC410446C069F5
:10821000C1888088091D8AB2A18E491C48430A3052
:1082200081B22046FFF7BDFD658B2046FFF7E2FDDA
:1082300007462046FFF7BCFD06462046FFF757FDE0
:1082400080462046FFF753FD4FEA184180B23B4677
:1082500032460095FFF7C4F8258B2046FFF7CAFD8C
:10826000C01E87B22046FFF742FD06462046FFF7B4
:108270003EFD3114891C801C89B280B201233A462C
:108280000095FFF78BF894F82100A0B12046FFF786
:10829000B1FD801E87B22046FFF78AFD801E86B2A0
:1082A0002046FFF724FD05462046FFF720FD1F214D
:1082B0000091291414E0258B2046FFF79BFD801EBA
:1082C00087B22046FFF774FD801E86B22046FFF776
:1082D0000EFD80462046FFF70AFD4FEA2841009533
:1082E000491C401C89B280B23B463246FFF778F801
:1082F0002046FFF750FA50B194F8210038B14FF6FC
:10830000E070ADF80000BDF80000FCF753FE204619
:10831000A56AFFF7ECFC06462046FFF7E8FC31149F
:10832000891CC01C89B280B22A46FFF799F8658B78
:108330002046FFF75FFDC01E86B22046FFF7D7FC40
:1083400080462046FFF7D3FC07462046FFF730FD66
:10835000C119E0690123324680880095081A401F40
:1083600087B24FEA2840801C81B23846FFF716F8E2
:10837000658B2046FFF73EFDC01E86B22046FFF704
:10838000B6FC80462046FFF7B2FC07462046FFF7C2
:108390000FFDC119E0690123324680880095081A53
:1083A000001F87B24FEA2840801C81B23846FEF792
:1083B000F5FF658B2046FFF71DFDC01E86B22046E7
:1083C000FFF795FC80462046FFF791FC07462046C4
:1083D000FFF7EEFCC11EC81987B24FEA2840801C87
:1083E00081B20123324638460095FEF7D7FF208B35
:1083F000ADF80000608BADF80400BDF80410BDF8C6
:108400000000FCF7DFFD2046FFF771FC0546204623
:10841000FFF76DFC06462046FFF7CAFC8119E069AC
:1084200006A2808802B0081AC01E83B22814BDE8D4
:10843000F041801C81B21846FFF712B876000000A8
:108440000122816280F82020426A002A00D0104771
:10845000704710B50024FFF79EF900B101242046B3
:1084600010BD000038B50D46049900910021FFF7BA
:1084700049FE04460648E56220600020A0862046AA
:10848000FFF794FE00212046FFF7B1FE204638BDDD
:10849000E0A8010800F005B92DE9F8430446458B32
:1084A000FFF7A8FCE1698988A0EB510087B220465C
:1084B000FFF77EFC80462046FFF719FCE1690014B7
:1084C000898800EB510086B22046FFF710FC80B28D
:1084D0003B46424631460095FEF782FF2046656ADC
:1084E000FFF705FC06462046FFF701FC310C2A4643
:1084F000BDE8F843801D80B2FEF7B2BFF8B506AF05
:108500001D4616461CCF009400F098F80446044817
:108510002060AAB2B1B22046FFF743FC2046F8BD66
:1085200008A9010800F0BDB8FDF7F0BA2DE9F04147
:1085300007240E46054605290BD2DFE801F00A03A1
:1085400005070900052404E0062402E0042400E0F5
:1085500003242046FDF7F2FA184FB8B97878A04204
:108560000AD1387810B1401E387005E0686818B13B
:1085700001684A69314690477878FF2806D17C70B7
:10858000686818B101680A69314690472046FDF7CE
:10859000D5FA01280FD17878A0420CD1FF2078704D
:1085A000052038706868002805D001688A6931465E
:1085B000BDE8F0411047BDE8F0810000E010002068
:1085C00010B504460521FFF7B1FF01212046FFF752
:1085D000ADFF02212046FFF7A9FF03212046FFF748
:1085E000A5FF2046BDE810400421FFF79FBF70B5EE
:1085F000416A0446C9B1E069C58886880846FBF728
:1086000087FC4643B1B22A462046FFF7CAFB204604
:10861000FFF76DFB05462046FFF769FB290C626AF0
:10862000BDE8704080B2FEF71BBFBDE87040FFF7A9
:10863000C6BB4162012180F82010704770B51D460D
:1086400016460C462A463146049BFEF723FF034993
:1086500044620160012180F8201070BD3CA901082E
:1086600010B5FFF755FC002180F8221080F821108A
:10867000014A0260416210BD3CA9010800F011B836
:1086800070B50C460546FFF761FC94F8210085F8AB
:10869000210094F8220085F82200606A686228466A
:1086A00070BD10B5FBF7C7FC10BD000010B504008D
:1086B00007D1012405E0FBF787FC006800B90448F6
:1086C00080472046FBF788FC0028F4D010BD00004E
:1086D0001D4201082DE9F041074690460E4600254F
:1086E0001020FBF779FC04000BD0C4F80C80C4E91F
:1086F0000176FBF76DFC0168216004602846BDE847
:10870000F0810125FAE72DE9F0410646FBF760FC10
:10871000804613E026B1E068B04201D025460EE065
:1087200020682860D4E90101D8F800708847204605
:10873000FBF781FCD8F80000B84200D045462C6811
:10874000002CE7D1BDE8F0810020FBF760BD000000
:108750001CB5F020002200904FF4A07311461B4876
:10876000FFF7ACFA1A4A1B49FFF7B4FF1A491F205A
:10877000164ACDE900014FF6FF7318A102F10C0073
:10878000FFF7B4F9124A1649FFF7A4FF0F49303139
:108790000C4601F1EC00FEF7EFFF0D4A1149FFF71F
:1087A00099FF21461048FEF7E7FF094A0D49FFF7F8
:1087B00091FF0D482146A830FEF7DEFF02B0044AC3
:1087C000BDE810400749FFF785BF0000EC1000200E
:1087D00000380108ED7C0108E410002000000000D2
:1087E0009D7C010895770108B012002030380A28D6
:1087F00001D2012070470020704701B581B048F2D6
:10880000D041019848430090002801D0401EFAE76B
:108810000CBD10B5FBF735F9002010BD10B50029CF
:108820000AD00878002807D005487844FBF75EFE98
:10883000002801D0002010BD0248784410BD00007F
:10884000422400003A240000015D1E0001070B0DC8
:1088500018C600F81F004C4344206D616E616765C7
:1088600072207665723A20342E300000000000003D
:10887000000000000000000000000000DC8801088B
:10888000DC880108848A0108DC8A0108DC8A010886
:1088900068890108048A010800000000388901087D
:1088A0004F890108C88A0108408B0108598B0108CB
:1088B000E4890108688A0108191A5D05060718216C
:1088C0001617081F0C20090A0B0D0E0F101112139A
:1088D00015145D5D5D5D5D5D5D00000058A90108DA
:1088E0006AA901080CAA0108C4A90108A0A90108E5
:1088F0007CA9010842AA010830AA0108B2A901080E
:108900008EA901081EAA0108D6A9010878AA0108A3
:10891000AEAA010866AA010854AA01089CAA010887
:108920008AAA0108C0AA0108D2AA0108E8A9010878
:10893000FAA9010800000000232425262728292A57
:108940002B2C2D2E31323334353642433D3EFF231E
:108950002425262728292A2B2C2D2E3738393A3B37
:108960003C44453D3EFF000058A901086AA90108A2
:108970000CAA0108C4A90108A0A901087CA9010842
:1089800042AA010830AA0108B2A901088EA901086B
:108990001EAA0108D6A901082CAB010862AB010888
:1089A000F6AA0108E4AA010808AB01081AAB0108FD
:1089B0003EAB010850AB0108BCAB0108F2AB0108AB
:1089C00086AB010874AB010898AB0108AAAB01089B
:1089D000CEAB0108E0AB0108E8A90108FAA901083B
:1089E00000000000232425262728292A2B2C2D2EA1
:1089F00031323334353642433738393A3B3C4445DB
:108A00003D3EFF0058A901086AA901080CAA010807
:108A1000C4A90108A0A901087CA9010842AA01086B
:108A200030AA0108B2A901088EA901081EAA0108EE
:108A3000D6A9010804AC010816AC01082CAB01084A
:108A400062AB0108F6AA0108E4AA010808AB010814
:108A50001AAB01083EAB010850AB0108E8A90108B8
:108A6000FAA9010800000000232425262728292A26
:108A70002B2C2D2E373831323334353642433D3EA0
:108A8000FF00000058A901086AA901080CAA010802
:108A9000C4A90108A0A901087CA9010842AA0108EB
:108AA00030AA0108B2A901088EA901081EAA01086E
:108AB000D6A9010828AC01083AAC0108E8A90108C8
:108AC000FAA9010800000000232425262728292AC6
:108AD0002B2C2D2E2F303D3EFF00000058A9010801
:108AE0006AA901080CAA0108C4A90108A0A90108E3
:108AF0007CA9010842AA010830AA0108B2A901080C
:108B00008EA901081EAA0108D6A9010828AC0108EF
:108B10003AAC010878AA0108AEAA010866AA0108C1
:108B200054AA01089CAA01088AAA0108C0AA01083F
:108B3000D2AA0108E8A90108FAA90108000000006A
:108B4000232425262728292A2B2C2D2E2F3031327D
:108B50003334353642433D3EFF232425262728293A
:108B60002A2B2C2D2E2F303738393A3B3C44453DAB
:108B70003EFF0000000000000000000000000000B8
:108B800000000000000000000000000000000000E5
:108B900000000000000000000000000000000000D5
:108BA00000000000800180018001800180018001BF
:108BB000800180018001800180018001800100002E
:108BC00000008001800100000000000000000000A3
:108BD000000000000000CC00CC00CC00CC00CC0099
:108BE000CC000000000000000000000000000000B9
:108BF0000000000000000000000000000000000075
:108C00000000000000000000000000000000600CF8
:108C1000600C600C30063006FE1FFE1F3006380761
:108C20001803FE1FFE1F180318038C018C018C0112
:108C3000000000008000E003F80F9C0E8C1C8C18D4
:108C40008C009800F801E007800E801C8C188C18AE
:108C50009C18B80CF00FE0038000800000000000BA
:108C600000000000000000000E181B0C110C110683
:108C70001106110311039B018E01C038C06C6044C2
:108C80006044304430441844186C0C380000000034
:108C900000000000E001F003380718061806300352
:108CA000F001F000F8009C310E33061E061C061C75
:108CB000063FFC73F02100000000000000000000EF
:108CC0000000000000000C000C000C000C000C0068
:108CD0000C00000000000000000000000000000088
:108CE0000000000000000000000000000000000084
:108CF00000000000000200038001C000C00060000E
:108D000060003000300030003000300030003000B3
:108D1000300060006000C000C0008001000300025D
:108D20000000000020006000C000800180010003FE
:108D30000003000600060006000600060006000606
:108D400000060003000380018001C00060002000D5
:108D50000000000000000000000000000000C00053
:108D6000C000D806F807E001300338070000000013
:108D700000000000000000000000000000000000F3
:108D80000000000000000000000000000000800162
:108D90008001800180018001FC3FFC3F8001800157
:108DA0008001800180010000000000000000000040
:108DB00000000000000000000000000000000000B3
:108DC00000000000000000000000000000000000A3
:108DD000000000008001800100010001800000000F
:108DE0000000000000000000000000000000000083
:108DF00000000000000000000000E007E0070000A5
:108E00000000000000000000000000000000000062
:108E10000000000000000000000000000000000052
:108E20000000000000000000000000000000000042
:108E300000000000C000C0000000000000000000B2
:108E400000000000000C000C0006000600060003F5
:108E5000000300038003800180018001C000C00086
:108E6000C000600060000000000000000000000082
:108E700000000000E003F007380E180C0C180C1866
:108E80000C180C180C180C180C180C180C18180CC2
:108E9000380EF007E00300000000000000000000B2
:108EA0000000000000018001C001F001980188016C
:108EB00080018001800180018001800180018001AA
:108EC000800180018001000000000000000000001F
:108ED00000000000E003F80F180C0C180C18001824
:108EE0000018000C000600038001C0006000300084
:108EF0001800FC1FFC1F0000000000000000000024
:108F000000000000E001F807180E0C0C0C0C000C1F
:108F10000006C003C007000C001800180C180C183D
:108F2000180CF807E003000000000000000000003B
:108F300000000000000C000E000F000F800DC00CA0
:108F4000600C600C300C180C0C0CFC3FFC3F000C4F
:108F5000000C000C000C00000000000000000000ED
:108F600000000000F80FF80F180018000C00EC03C8
:108F7000FC071C0E001C0018001800180C181C0C14
:108F8000180EF807E00300000000000000000000D9
:108F900000000000C007F00F381C181818000C0063
:108FA000CC03EC0F3C0E1C1C0C180C180C18181CD5
:108FB000380EF007E0030000000000000000000091
:108FC00000000000FC1FFC1F000C00060006000350
:108FD00080038001C001C000E000600060007000FC
:108FE00030003000300000000000000000000000F1
:108FF00000000000E003F007380E180C180C180CE5
:109000003806F007F007180C0C180C180C180C1880
:10901000380CF80FE0030000000000000000000022
:1090200000000000E003F007380E1C0C0C180C18B0
:109030000C181C1C381EF81BE0190018000C000C42
:109040001C0EF807F0010000000000000000000006
:10905000000000000000000000000000000080018F
:10906000800100000000000000000000000000007F
:1090700000008001800100000000000000000000EE
:10908000000000000000000000000000000080015F
:10909000800100000000000000000000000000004F
:1090A000000080018001000100018000000000003C
:1090B00000000000000000000000000000000000B0
:1090C00000000010001C800FE003F8001800F800FA
:1090D000E003800F001C00100000000000000000F2
:1090E0000000000000000000000000000000000080
:1090F0000000F81F000000000000F81F0000000042
:10910000000000000000000000000000000000005F
:10911000000000000000000000000000000000004F
:10912000000008003800F001C007001F0018001FF1
:10913000C007F00138000800000000000000000037
:1091400000000000E003F80F180C0C180C180018B1
:10915000000C000600038001C000C000C000000039
:109160000000C000C000000000000000000000007F
:10917000000000000000E00718180420C229224A5D
:10918000114409440944094409221113E20C024024
:1091900004201818E0070000000000000000000094
:1091A0000000000080038003C006C006C006600CFB
:1091B000600C301830183018F83FF83F1C700C6005
:1091C0000C6006C006C000000000000000000000A7
:1091D00000000000FC03FC0F0C0C0C180C180C1801
:1091E0000C0CFC07FC0F0C180C300C300C300C3045
:1091F0000C18FC1FFC07000000000000000000002D
:1092000000000000C007F01F38381C300C700660EA
:1092100006000600060006000600060006600C7048
:109220001C30F01FE00700000000000000000000FC
:1092300000000000FE03FE0F060E0618061806309A
:10924000063006300630063006300630061806189E
:10925000060EFE0FFE0300000000000000000000EC
:1092600000000000FC3FFC3F0C000C000C000C0058
:109270000C00FC1FFC1F0C000C000C000C000C0070
:109280000C00FC3FFC3F000000000000000000005C
:1092900000000000F83FF83F180018001800180000
:1092A0001800F81FF81F1800180018001800180000
:1092B0001800180018000000000000000000000066
:1092C00000000000E00FF83F3C780E6006E007C0A9
:1092D0000300030003FE03FE03C007C006C00EC068
