:02000004080FE3
:1000000048EF01207D020F085D521A00B9020F0867
:1000100089020F088B020F088D020F0800000000F4
:100020000000000000000000000000008F020F0828
:1000300091020F080000000093020F0895020F08BC
:1000400097020F0897020F0897020F0897020F08F0
:1000500097020F0897020F0897020F0897020F08E0
:1000600097020F0897020F0897020F0897020F08D0
:1000700097020F0897020F0897020F0897020F08C0
:1000800097020F0897020F0897020F0897020F08B0
:1000900097020F0897020F0897020F0897020F08A0
:1000A00097020F0897020F0897020F0897020F0890
:1000B00097020F0897020F0897020F0897020F0880
:1000C00097020F0897020F0897020F0897020F0870
:1000D00097020F0897020F0897020F0897020F0860
:1000E00097020F0897020F0897020F0897020F0850
:1000F00097020F0897020F0897020F0897020F0840
:1001000097020F0897020F0897020F0897020F082F
:1001100097020F0897020F0897020F0897020F081F
:1001200097020F0897020F0897020F0897020F080F
:1001300097020F0897020F0897020F0897020F08FF
:1001400097020F0897020F0897020F0897020F08EF
:1001500097020F0897020F0897020F0897020F08DF
:1001600097020F0897020F0897020F0897020F08CF
:1001700097020F0897020F0897020F0897020F08BF
:1001800097020F0800F002F800F068F80AA090E863
:10019000000C82448344AAF10107DA4501D100F042
:1001A0005DF8AFF2090EBAE80F0013F0010F18BFA7
:1001B000FB1A43F00103184748DC000068DC00002C
:1001C000103A24BF78C878C1FAD8520724BF30C883
:1001D00030C144BF04680C60704700000023002455
:1001E00000250026103A28BF78C1FBD8520728BF47
:1001F00030C148BF0B607047692900F00181642954
:1002000000F0FE80752900F0FB806F2900F09281DC
:10021000782900F0BB810368DB0928BF41F0800129
:10022000632900F0F083E32900F003840020704785
:100230001FB59DE8030000F05DFC00F0E9FC040040
:100240000020002108F03AFE401C606000F0DCFA5B
:100250001FBD10B5002008F073F810BD00F0B2FC0F
:100260001146FFF7E5FF08F0B5FD00F0EFFC03B421
:10027000FFF7EFFF03BC00F09FFC00000948804738
:1002800009480047FEE7FEE7FEE7FEE7FEE7FEE778
:10029000FEE7FEE7FEE7FEE704480549054A044B92
:1002A00070470000812B0F0885010F0870E80120BE
:1002B00048EF012048EF012000B5FFB441464A460F
:1002C00053465C4665463EB40D496A460A600D4990
:1002D00008600D4988473EBC884691469A46A34629
:1002E000AC46FFBC00BD064801688D463EBC884652
:1002F00091469A46A346AC46FFBC044800BD0000A8
:10030000F0FF0120F4FF01208D010F0830D70F0806
:100310000FB41CB5074B06AA7B44694600900598AC
:1003200000F04FFB0020694600F05EFB1CBC5DF84E
:1003300014FB0000CD06000070B504468569006816
:10034000C10601D5302600E02026C00708D070BDC8
:10035000D4E9012130469047206A00F10100206273
:100360006D1EF5D570BD70B5044685690078C0076F
:1003700008D170BDD4E9012120209047206A00F106
:10038000010020626D1EF5D570BD09684A0501D5D2
:1003900040B27047C905FCD500B2704709684A05EC
:1003A00001D5C0B27047C905FCD580B2704770B5A1
:1003B0000C460546012A05D02878800600D5EA6952
:1003C000002302E0012305E05B1C934202D2E05CC3
:1003D0000028F9D1A869E618C01AA861286A18444B
:1003E00028622846FFF7A8FF04E0D5E9012114F8A8
:1003F000010B9047B442F8D32846FFF7B4FF70BD15
:100400002DE9F0410646002410687529314616A5ED
:1004100011D0FFF7BAFF002803DAC0F1000013A5DE
:1004200007E031688A0701D511A502E0490704D524
:1004300010A5012401E0FFF7B1FF00210A2306F116
:10044000240707E0B0FBF3F203FB120030307854CE
:100450001046491C0028F5D123462A463046BDE8FF
:10046000F04100F04CBA0000000000002D00000038
:100470002B000000200000002DE9FF5F15468A4692
:100480000446DFF8AC80F8440027D8E900103E4667
:10049000CDE9001011E03AF816106A4602A800F003
:1004A000D4FA411C07D02178890603D5E2693918AE
:1004B00091420ED8074406F101062078800602D545
:1004C000E069B84205DDAE42E5DB3AF816000028E7
:1004D000E1D1A069C01BA0612046FFF72DFFD8E93C
:1004E0000010CDE90010002016E03AF818106A4616
:1004F00002A800F0AAFA8146401C0BD000250DF19D
:10050000080B05E0D4E901211BF8050090476D1C9C
:100510004D45F7D308F10100B0428046E5DB206A83
:10052000384420622046FFF71EFFBDE8FF9F000011
:10053000B6D2000070B5044621461068FFF72EFFC2
:10054000002104F1240508E000F0070202F1300266
:100550006A5401F101014FEAD0000028F4D10346AA
:10056000206808A2050708D500F02000084304D041
:10057000E069012304A2401EE0612046BDE870400E
:1005800000F0BDB9000000003000000070B5044666
:100590000D4621461068FFF701FF2188090502D5A5
:1005A000104A7A4402E00F4A7A440E32002104F1E4
:1005B000240307E000F00F064FEA1010965D5E542A
:1005C00001F101010028F5D103462078000704D588
:1005D000702D02D009B1113202232046BDE87040CF
:1005E00000F08DB9A2D100002DE9F05F89460446E4
:1005F0004FF0000ADFF878B1FB44C0F820A0204695
:10060000E1688847002875D0252806D0D4E9012163
:100610009047206A401C2062F1E700265F46204692
:10062000E16888472028054608DB312D06D207EB14
:10063000050010F8200C08B10643F0E7B00701D51B
:1006400026F00406C4F81CA00027C4F818A02A2D20
:1006500009D0284608F028FA38B304EB8708303D63
:10066000C8F8185019E059F8041B204604EB87021B
:100670009161E1688847012F054618D1E06900289B
:1006800020DA26F020061DE0D8F8180000EB8000E4
:1006900005EB40003038C8F818002046E16888476C
:1006A000054608F001FA0028EED1012F0AD02E2DC0
:1006B00008D12046E16888477F1C0546022F46F096
:1006C0002006C4DBA069002803DA404246F0010698
:1006D000A061F00701D026F010066C2D0BD0682D1C
:1006E00009D04C2D39D06A2D35D0742D35D07A2DC6
:1006F00033D016E038E0E1682F4620468847B842FC
:10070000054609D16C2F26D04FF48060E16806437E
:1007100020468847054604E06C2F1AD04FF48070BD
:1007200006430DB3A5F14100192802D8203546F43F
:1007300000664A462946204626604E46FFF75CFD85
:1007400080B101280BD0F61D26F0070000F1080942
:1007500055E74020E4E78020D8E70020D6E706F1FF
:1007600004094CE7284651E7206ABDE8F09F0000E5
:1007700074D1000010B5431C02E010F8011B71B1E8
:100780008107FAD14FF0013202C88C1A8C4314EA67
:10079000C211F9D0C01A0A0603D0C01E10BDC01A7B
:1007A00010BD0A0401D0801E10BD0902FCD0401EFD
:1007B00010BD4FF0000200B513469446964620390E
:1007C00022BFA0E80C50A0E80C50B1F12001BFF40A
:1007D000F7AF090728BFA0E80C5048BF0CC05DF870
:1007E00004EB890028BF40F8042B08BF704748BFBE
:1007F00020F8022B11F0804F18BF00F8012B704732
:10080000704770477047000070B5064C7C44064D39
:100810007D4403E0206820448047241DAC42F9D188
:1008200070BD000020D7000020D7000000487047AE
:1008300044E801200048704748E8012070B50646AA
:1008400000F038F9056806F10B0020F00704B44207
:100850009CBF002070BD2B466A68BAB11068A042E8
:1008600010D304F1080188423CBF5068586007D398
:100870005168101941601168091B016058601460CB
:10088000101D70BD13465268002AE7D12146284644
:1008900000F01CF90028DED170BD70B50446051FBC
:1008A00000F008F90068002C14BF446870BD002CEB
:1008B00018BFAC423CBF20466468F8D301680A18F0
:1008C000AA4218BF456003D12A6805461144016059
:1008D00028684119A1421CBF6C6070BD61686960E5
:1008E00021680844286070BD10B500F0E7F8006882
:1008F00010BD10B5044600F0E1F8046010BD2DE90C
:10090000F0470D4699469246044600F124080168D6
:10091000880604D5E06921F01001216000E0012083
:10092000A84202DDA0EB050700E00027A16907EB64
:10093000050202EB0900A1EB0000A0612078C006CF
:1009400002D42046FFF7F8FC002608E0D4E9012194
:100950001AF806009047206A401C761C20624E451B
:10096000F4DB2078C0060AD52046FFF7E5FC06E058
:10097000D4E9012130209047206A401C2062381EB3
:10098000A7F10107F4DC07E0D4E9012118F805001C
:100990009047206A401C2062281EA5F10105F3DC67
:1009A0002046FFF7E0FC2078000602D50220BDE8D3
:1009B000F0870120FBE7000001694A1C026108780A
:1009C000704700B58FB0CDE901310021059105498F
:1009D0007944CDE9031011466846FFF705FE0FB0D4
:1009E00000BD0000E5FFFFFF0A6802F8010B0A6086
:1009F000704710B5436913B1AFF3008001E0FFF712
:100A0000D6FC012010BD127800F124010A700022EA
:100A10004A700122EDE711684FF0FF32E9E710B5A7
:100A2000436913B1AFF3008001E0FFF725FD01201A
:100A300010BD128800F1240182840022C2840122A8
:100A4000EDE711684FF0FF32E9E770B516460C4646
:100A5000054600F027F8036893F80101012806D045
:100A6000FF2C0FD8185D68B101202C7070BDD3F831
:100A700007013246214603442846BDE8704003F290
:100A8000071318474FF0FF3070BD10B500F06EF837
:100A9000BDE8104000F064B800F080B8004870472E
:100AA00010E8012010B500F0B3F8001D10BD00BF24
:100AB0000D8400000048704718E801200048704786
:100AC00010E80120704770477047704738B50446FA
:100AD0000A4600206946AFF30080002808BF38BDF1
:100AE00002460099204600F097F8012038BD012009
:100AF00000F0D3B8F8B5AFF30080054600200C46EF
:100B0000102000BF0646A819A0420DD932466946FA
:100B10000020AFF30080070008BF00F0BEF8009887
:100B2000A04218BF0546C419FFF7C4FF0560074679
:100B3000F01D20F007004619284600F00AF8B442DC
:100B400008BFF8BDA21B31463868BDE8F84000F088
:100B500063B800210160C0E90110704710207047A0
:100B6000002801D000F028B87047000010B500211F
:100B700002A000F079F8012010BD00005349475051
:100B800056464E3A205075726520766972747561CA
:100B90006C20666E2063616C6C65640010B500F0BB
:100BA00086F8016919B100220261884701E0806876
:100BB000804700F051F8000001491820ABBEFEE765
:100BC000260002007546FFF769FFAE46050069463C
:100BD000534620F00700854618B020B5FFF75CFBB0
:100BE000BDE820404FF000064FF000074FF000082E
:100BF0004FF0000B21F00701AC46ACE8C009ACE8AF
:100C0000C009ACE8C009ACE8C0098D4670470000D7
:100C10000048704730E80120034640688C460028B1
:100C200018BF88423CBF03464068F8D31868184490
:100C3000884207D00CF1030020F00700001D411A84
:100C4000521A0146081D0A60FFF727BE0446AFF39B
:100C500000802046FFF70BFB002000F059F8FFF75B
:100C6000F8FA0120FFF7A8FF70B505460C460A20E8
:100C700000E06D1C00F040F835B128780028F8D16C
:100C800002E0641C00F038F814B120780028F8D194
:100C9000BDE870400A2000F02FB810B500F040F811
:100CA000BDE81040FFF75CBF10B5FFF7D5FF70B58A
:100CB00000F02AF804680546A4B92020FFF7BEFD1D
:100CC000040011D0094900202C60C4E90001084942
:100CD000A1602073206160610649A06109B100F044
:100CE00087F8E061204670BDFFF7B6FF0000000006
:100CF000A90C0F080000000008B569468DF8000037
:100D00000320ABBE08BD7047004870474CE8012087
:100D100010B500F08BF8BDE81040FFF721BF0000D0
:100D200010B5012805D0002103A0FFF79DFF012089
:100D300010BD09A1F8E7000053494752544D454DF5
:100D40003A204F7574206F662068656170206D656C
:100D50006D6F7279000000003A2048656170206D67
:100D6000656D6F727920636F72727570746564005F
:100D70004FF0013C50F8042B51F8043B9A4221D12A
:100D8000A2EB0C03934313EACC1317D150F8042BB6
:100D900051F8043B9A4215D1A2EB0C03934313EA9A
:100DA000CC130BD150F8042B51F8043B9A4209D1D3
:100DB000A2EB0C03934313EACC13DBD04FF00000FB
:100DC000704700BFD01A01BAB1FA81F101F01801E1
:100DD00022FA01F0CB40C1F12001DBB2C0B2C01A4F
:100DE0002CFA01F3D11A914311EAC311E6D17047ED
:100DF00010B58820FFF722FD002801D000210170E6
:100E000010BD802902D808B1017809B100207047CF
:100E1000012100F8081B704718B100F10802914247
:100E200001D00020704700210170704710B50021EB
:100E300002A0FFF719FF012010BD000053494741F0
:100E40004252543A2041626E6F726D616C2074653B
:100E5000726D696E6174696F6E00000030B51A4979
:100E60008379026853B30B6893430B600A1D1368C0
:100E70000468A343136002790A4413680468234397
:100E80001360114A083213680468A3431360131DEA
:100E90001C680568AC431C604479102C05D02144C3
:100EA0000A68006802430A6030BD11680468214383
:100EB0001160196800680143196030BD0079084469
:100EC00001689143016030BD003C0140F0B5002352
:100ED000012403270D6804FA03F21540954242D11C
:100EE000D0F800C05E0007FA06F52CEA050CC0F841
:100EF00000C091F804C0D0F800E00CFA06FC4CEAFF
:100F00000E0CC0F800C091F804C0BCF1010F02D073
:100F1000BCF1020F1FD1D0F808C02CEA050CC0F8B4
:100F200008C091F805C0D0F808E00CFA06FC4CEABD
:100F30000E0CC0F808C0D0F804C02CEA020CC0F8AF
:100F400004C0426891F806C00CFA03FC1FFA8CFC3E
:100F500042EA0C024260C268AA43C260CA79C5680C
:100F6000B2402A43C2605B1C102BB3D3F0BD4B07C9
:100F7000DB0E9A40C90810B500EB8100016A0F240E
:100F80009C40A1430162016A1143016210BD024607
:100F9000002012690A4200D0012070470AB1018383
:100FA00070474183704700002DE9F74FDFF8DCA15F
:100FB00082B05446DFF8D8810298C4E90B01D8F812
:100FC00000001546474601690298884706462946AB
:100FD000704806F0AFFAAAF580796F496D48C9F8F4
:100FE000085006F05BFB6C496A48A83106F056FBD6
:100FF0006A49684806F052FB68496648A83106F01D
:101000004DFB6749634806F049FB65496148A831D3
:1010100006F044FB63495F4806F040FB002589F871
:101020000050386829460268E06A9047C0B20090D4
:101030003868002211468368E06A984738680321BF
:101040000268E06A9047C0B20127574C012824D0BB
:10105000277000215148A83005F0F6FE6570A77092
:10106000AB46DAF83000B946554628B3D8F8001038
:1010700047460A681C21904700F0FF0A38681D2186
:101080000268286B9047C7B2E86A03F0A7FF474A97
:101090000146002052F821100BE025700121D9E70C
:1010A000524500D160700A5CBA4200D1A070401C69
:1010B000C0B20A5CFF2AF3D184F803B084F804B00C
:1010C00084F805B084F806B084F807B084F808B056
:1010D00084F809B084F80AB084F80BB0D8F800009E
:1010E00001225F4683680021E86A9847D8F800002B
:1010F00003210268E86A9047C0B2012840D084F812
:101100000C9000BFD8F800000021009A8368E86ABC
:101110009847677384F80E90E77327746774A77411
:10112000E77427756775A775E775029800F08AF868
:1011300018491F48C1F80C010021164806F01CFA96
:101140000920B0EB167F1DD0C6F30360092819D023
:1011500000211348A83005F077FE0A20B0EB167F77
:1011600012D0C6F303600A280ED000210D4805F006
:101170006BFE05B00021BDE8F04F022001F04EBC2F
:101180002773BFE70121E4E70121EFE704E1012034
:10119000F4FF0120C0E10120D0E2012020E4012081
:1011A00070E50120C0E60120F8E701209CB80F0897
:1011B000CD510F082DE9F0411E4C204606F020FAD3
:1011C00004F5827006F0EEFF022001F01BFC1A4EBF
:1011D000B188084306D0002902D0B088401EB080F4
:1011E000BDE8F081154C164D002120680268E86AC0
:1011F0009047C7B22068002211468368E86A984782
:1012000020680221C268E86A904720680122002114
:101210008368E86A984720680221C268E86A9047B4
:1012200020683A4600218368E86A98470420B08025
:10123000D3E70000C0E1012004E00120F4FF012019
:1012400004E1012070B5134C0646002120680268B5
:1012500030469047C5B22068002211468368304668
:1012600098470021304603F0E3FF20680122002167
:1012700083683046984700280BD00121304603F0A0
:10128000D7FF20682A46002183683046BDE87040B9
:10129000184770BDF4FF01202DE9F14FFE4D0527E1
:1012A000DFF8F883FE4EDFF8FC9384B0002405F1EC
:1012B000910A3068295D02681AF801100498904775
:1012C00099F8003008EB83122B5D641CE4B222F81D
:1012D0001300BC42EDD3F04D01270024ED1E05F1B3
:1012E000010A3068295D02681AF8011004989047D5
:1012F000EA4999F80020103901EBC2012A5D641C0B
:10130000E4B241F82200BC42EBD399F800004D460C
:1013100000EB4001E1488030012410F82100E8BBD7
:10132000306808210268049890472978474608EBFE
:101330008111888230680C210268049890472A78CD
:1013400000B207EB821102EB4203D44A08838032D9
:1013500002EB8302D278012A2CD1B1F914200AB908
:10136000002854D0524300FB0020B84608F058FB38
:1013700006F089FF08F038FB2A7808EB8217B88757
:10138000B7F9180008F04CFB8146B7F9140008F0D3
:1013900047FB494606F079FFC34900E014E008F036
:1013A00057FBC24908F05EFA08F01EFB2A7808EBEA
:1013B0008211C887BB498031886B08B180F8204012
:1013C000486C08B180F82040306801210268049818
:1013D000904787B2060C286CA8464CF2186B68B38D
:1013E00007B1C6B1B24805F0B5FDD8F84010454682
:1013F000884202D1AE4805F012FE286C428B5A4555
:101400001CD0A0F81AB0002105F0EDFC13E000207C
:1014100088875A20CDE7002141834546012105F008
:10142000E2FCA34805F096FD296C884203D0002118
:101430009F4805F09BFD286C80F82040984DDFF810
:101440007492002128680268D9F82C009047C0B235
:1014500002902868002211468368D9F82C0098472A
:101460002868012102680498904782462868022172
:10147000026804989047C0B201901FFA8AF9D8F820
:1014800078004FEA1A4A4546E8B1B9F1000F02D098
:10149000BAF1000F31D08648A83005F05BFDA96F86
:1014A000884203D18248A83005F0B9FDA86F428B6D
:1014B0005A4508D0A0F81AB05FF0000105F093FC7F
:1014C000A86F80F820407748406F28B359EA0A0196
:1014D00017D07748A83005F03DFD724D696F8842FE
:1014E00003D17348A83005F09AFD686F428B5A45C6
:1014F00012D0A0F81AB0002109E000214183012197
:10150000DCE7684D418B39B100214183012105F0B1
:101510006AFC686F80F82040614D01220021286834
:1015200083686448C06A9847286801210268049863
:101530009047804628680221026804989047C0B20C
:10154000009058481FFA88F580304FEA1848006824
:1015500008B315B1B8F1000F38D05548A83005F0E0
:10156000F9FC504980310968884203D15048A830BD
:1015700005F055FD4B4A80321068438B5B450AD01D
:10158000A0F81AB05FF0000105F02DFC454880304E
:10159000006880F820404348C06F30B355EA080126
:1015A00018D04348A83005F0D5FC3E49C96F8842A1
:1015B00003D13F48A83005F032FD3A4AD06F438B43
:1015C0005B4512D0A0F81AB0002108E00021418349
:1015D0000121D9E7428B42B100214183012105F06D
:1015E00002FC3048C06F80F820402D480021029A4C
:1015F000006883682F48C06A984749EA0A0A4AEA9D
:10160000050050EA08003BD02B49B1F80001012841
:101610000AD08946022833D00121274805F0ACFFC3
:10162000B9F8000101282BD1DFF8789099F8000073
:1016300018B14D46012809D019E055EA080516D021
:10164000B9F802004D46A8B9012105E0BAF1000F32
:101650000DD0688870B90021E86806F0BAFB002157
:10166000084604F025FCE868002180F82310B9F84A
:10167000021019B3B9F80210B1F10101A9F8021072
:10168000084D8035686890B3DDE9002111437DD0B5
:101690000199062914D015E037B80F0878E7012022
:1016A000F4FF012004E0012000003443C3F548406A
:1016B00078E3012004E10120C0E101201E21DDE7E3
:1016C000062AE4D0824805F045FC6968884202D1C8
:1016D0007F4805F0A4FC6868428B5A4507D0A0F803
:1016E0001AB0002105F07FFB686880F82040DFF821
:1016F000E48100217B0698F8000000EB4002764868
:1017000000EB82004FF00202417100D54271730676
:1017100000D544718171FB0600D58271F30600D5B6
:101720008471C171BB0600D5C271B30600D5C47106
:101730000172FB0700D00272F30700D004723B066F
:1017400000D50272330600D5047241727B0700D5C2
:101750004272730700D544728172BB0700D5827252
:10176000B30700D58472C172390700D5C272310740
:1017700000D5C472D8F84010F1B3D8F824204379CA
:101780005649568B31F813309E4200E098E002D063
:10179000538382F82040D8F828208379568B31F87B
:1017A00013309E4202D0538382F82040D8F82C2078
:1017B000C379568B31F813309E4202D0538382F89E
:1017C0002040D8F83020037A568B31F813309E42EF
:1017D00002D0538382F82040D8F83420437A568BC5
:1017E00031F813309E4202D0538382F82040D8F85B
:1017F0003820837A568B00E011E031F813309E4296
:1018000002D0538382F82040D8F83C20C07A538B12
:1018100031F81000834202D0508382F82040D8F87B
:101820001C0008B180F82040D8F8200008B180F8EA
:1018300020402B48006A08B180F82040A86A08B10F
:1018400080F82040E86B08B180F82040A86C08B10F
:1018500080F82040234D00212868026804989047B2
:10186000C7B2286800221146836804989847286800
:101870001E21026804989047174E0122903E0021D5
:101880007060286883680498984758B128681E21BA
:10189000026804989047F06028683A4600218368FF
:1018A00004989847D8F84C0008B180F82040D8F840
:1018B0006400002801D080F8204005B0BDE8F08F1A
:1018C000418B00293FF413AF00214183012109E737
:1018D00020E4012004E00120F8E701203CB80F08D3
:1018E00004E10120F4FF01202DE9F04781460025A5
:1018F00040F23F11284600F0C9FA124C606849F2E4
:10190000203645F20847B04202D06068B84201D1A3
:1019100000F0CCFE4FF49638484600F063FE6D1C94
:101920004545F9D36068B04202D06068B84206D13C
:10193000BDE8F04701220421034800F03BB8BDE8B0
:10194000F087000080E10120000402407CB5012105
:101950000A2000F085FF00208DF806008DF80700B2
:1019600001208DF804000420009002208DF805006D
:1019700069460E48FFF7AAFA80200D4D009069468F
:101980002846FFF7A3FA4FF400446946284600941E
:10199000FFF79CFA01222146284600F00BF80122AD
:1019A0008021284600F006F87CBD000000040240BB
:1019B000000C0240FFF7F2BA064B30B49B68203AA5
:1019C000D2B21C68DB88534304EB430230BC00F006
:1019D00003B8000080E101202DE9F74F924600276F
:1019E0000646019900F052FA49F22039DFF890805A
:1019F0003EE06168494504D06168A1F5A840083817
:101A000001D100F053FE00254FF00C0B18E000BF91
:101A1000B0FBFBF1CA00802191403AF81720294120
:101A2000114201D10C2805D90121A9400A4203D154
:101A30000C2801D9608800E0208800F0D3FD6D1CDF
:101A4000A0688088A842E3D86168494504D06168ED
:101A5000A1F5A840083804D1012204210948FFF764
:101A6000A9FF761CF6B23046019900F00FFA7F1CF0
:101A7000D8F808004446C088B842BAD8BDE8FE8FFE
:101A800080E10120000402402DE9F74F82B00026DA
:101A900004469246ADF80060ADF8046001A96846BE
:101AA00000F0A4F8A0462046039900F0EFF949F2AF
:101AB000203945F2084B1D4D2EE06968494502D09A
:101AC0006968594501D100F0F1FD00240127B740B4
:101AD0000AE000BF3AF81400384224D0BDF80000F4
:101AE00000F080FD641CE4B2A8688088A042F1D8B0
:101AF0006968494502D06968594504D10122042129
:101B00000B48FFF757FF08F10100C0B28046039968
:101B100000F0BCF9761CF6B2A868C088B042CCD8F8
:101B200005B0BDE8F08FBDF80400D9E780E10120E1
:101B3000000402402DE9F05F994616468B460546A3
:101B4000002400F0A3F9DFF89C8049F2203045F230
:101B50000847B9F1000F03D0814648F2123A3DE040
:101B6000D8F804100546A94203D0D8F80400B842BA
:101B700007D100F09BFD04E0B8F8000000F032FD52
:101B8000641CB442F8D3D8F80410A94203D0D8F8A2
:101B90000400B84224D1BDE8F05F012204211248BC
:101BA000FFF708BFD8F80410494503D0D8F804104F
:101BB000B94204D1B8F8000000F068FD07E0D8F899
:101BC0000410514503D1B8F8000000F00BFD6D1C66
:101BD000EDB25946284600F059F9641CB442E1D3ED
:101BE000BDE8F09F80E1012000040240024A138812
:101BF000038050880880704780E101200148806898
:101C00007047000080E10120012070472DE9FF4F5F
:101C100081B0A1F23F11DDF838801F4602EB0800C9
:101C200084B2484280B200900026E0B2009900F0F1
:101C30002DF949F2203A45F2084BDFF888902DE063
:101C40004168514503D0D9F80410594506D141F2F5
:101C50000801032000F034FD00F028FD002507E016
:101C600006FB0751019830F8110000F0BBFC6D1C19
:101C7000BD42F5D3D9F804204846524502D0416808
:101C8000594504D1012204210F48FFF793FE641E39
:101C9000A4B2E0B2009900F0F9F8761C4645484637
:101CA000CED34268524502D04168594507D105B0AC
:101CB00041F21801BDE8F04F032000F001BD05B06E
:101CC000BDE8F08F80E101200004024070B50025DE
:101CD00000F056FD732000F079FD244CFF212046D2
:101CE00000F037FE0221204600F02AFE0028F9D03D
:101CF0000121204600F024FE0028F9D0204600F003
:101D000026FE6D1CEDB2052DE8D3FF21204600F024
:101D100020FE0221204600F013FE0028F9D0012108
:101D2000204600F00DFE0028F9D0204600F00FFEFE
:101D30000546FF21204600F00CFE0221204600F05F
:101D4000FFFD0028F9D00121204600F0F9FD002810
:101D5000F9D0204600F0FBFDE9B240EA012401225F
:101D600004210348FFF726FE204670BD00380040DE
:101D700000040240F0B587B00121022000F070FDA0
:101D800001218E03304600F077FD334F05220D21EF
:101D90003846FFF7ECF805220E213846FFF7E7F842
:101DA00005220F213846FFF7E2F8022500248DF8BE
:101DB0001A408DF81B4028038DF8185005908DF8B7
:101DC000195005A93846FFF781F805A93846059648
:101DD000FFF77CF8A803059005A93846FFF776F8C9
:101DE0001E4E304600F082FDADF800404FF4827088
:101DF000ADF802001A484168A1F51342203A04D018
:101E00004168A1F5A842083A07D1ADF80440012085
:101E1000ADF80650ADF808000CE04068A0F50341AD
:101E2000123907D14FF40060ADF80400ADF8064058
:101E3000ADF808404FF40070ADF80A00ADF80C4062
:101E4000ADF80E406946304600F085FD0121304670
:101E500000F042FD07B0F0BD000402400038004031
:101E600080E1012001B5BDF800000149488008BDAE
:101E700080E1012003B5BDF8001003480180BDF8E2
:101E8000041041800CBD000080E1012010B50C461B
:101E900013494A68A2F51343203B04D04A68A2F5CF
:101EA000A843083B06D10146202000F009FC21464A
:101EB00021200FE04968A1F50342123A0ED10146F4
:101EC000422000F0FDFBC4F30021432000F0F8FBAA
:101ED000E1B24420BDE8104000F0F2BB10BD0000AC
:101EE00080E10120014988607047000080E1012005
:101EF00001B5BDF800000149088008BD80E101205E
:101F00002DE9F05FFFF722FDFFF734FFFE4841683F
:101F10004FF48075A1F513424FF4E06641F23007AB
:101F200040F2022840F2023940F23F144FF4887A1E
:101F300041F2180B203A7CD1052006F03DFFE90163
:101F4000E52000F0BDFB0121002000F0B9FB29468F
:101F5000012000F0B5FB3146022000F0B1FB39460C
:101F6000032000F0ADFB0021042000F0A9FB414656
:101F7000082000F0A5FB0021092000F0A1FB0021B2
:101F80000A2000F09DFB00210C2000F099FB0021AD
:101F90000D2000F095FB00210F2000F091FB0021A7
:101FA000102000F08DFB0021112000F089FB0021A2
:101FB000122000F085FB0021132000F081FB14208B
:101FC00006F0FAFE41F2B071102000F079FB40F209
:101FD0003711112000F074FB052006F0EDFEA11F63
:101FE000122000F06DFB052006F0E6FE4FF4E851EC
:101FF000132000F065FB1321292000F061FB052070
:1020000006F0DAFE0021202000F05AFB00212120FA
:1020100000F056FB0621302000F052FB691C3120F5
:1020200000F04EFB0321322000F04AFBA91D3520B1
:1020300000E070E000F044FB40F60231362000F092
:102040003FFB4946372000F03BFBF11D382000F0F4
:1020500037FB0721392000F033FB4FF4C0613C20EF
:1020600000F02EFB40F20B213D2000F029FB002167
:10207000502000F025FBEF21512000F021FB002132
:10208000522000F01DFB2146532000F019FB4FF4B5
:102090001C51602000F014FB0121612000F010FBB6
:1020A00000216A2000F00CFB0021802000F008FBDA
:1020B0000021812000F004FB0021822000F000FBC1
:1020C0000021832000F0FCFA0021842000F0F8FABF
:1020D0000021852000F0F4FA1021902000F0F0FAA1
:1020E0000021922000F0ECFA0321932000F0E8FA9E
:1020F0005146952000F0E4FA0021972000F0E0FA24
:102100000021982000F0DCFA5946032000F0D8FAAC
:1021100040F27311FFE04168A1F5A842083A7CD172
:1021200043F20801E32000F0CBFA1221E72000F08F
:10213000C7FA41F23121EF2000F0C2FA294601200E
:1021400000F0BEFA3146022000F0BAFA3946032008
:1021500000F0B6FA0021042000F0B2FA414608204F
:1021600000F0AEFA0021092000F0AAFA00210A20AE
:1021700000F0A6FA00210C2000F0A2FA00210D20A8
:1021800000F09EFA00210F2000F09AFA00211020A2
:1021900000F096FA0021112000F092FA002112209E
:1021A00000F08EFA0021132000F08AFA142006F0C5
:1021B00003FE0721112000F083FA052006F0FCFD44
:1021C00041F2B021102000F07BFA052006F0F4FD6A
:1021D00040F2BD11122000F073FA052006F0ECFD6C
:1021E0004FF4A051132000F06BFA0E21292000F0CB
:1021F00067FA052006F0E0FD0021202000F060FADB
:102200002146212000F05CFA0721302000F058FA26
:102210004946312000F054FA00E07EE040F2051516
:102220002946322000F04CFA40F20626314635208D
:1022300000F046FA40F608073946362000F040FA2A
:102240003146372000F03CFA40F20451382000F0CB
:1022500037FA0721392000F033FA29463C2000F0F4
:102260002FFA39463D2000F02BFA0021502000F0D3
:1022700027FAEF21512000F023FA0021522000F02C
:102280001FFA2146532000F01BFA4FF4274160202B
:1022900000F016FA0121612000F012FA00216A20F4
:1022A00000F00EFA0021802000F00AFA00218120BF
:1022B00000F006FA0021822000F002FA00218320BB
:1022C00000F0FEF90021842000F0FAF900218520B9
:1022D00000F0F6F91021902000F0F2F90021922090
:1022E00000F0EEF90321932000F0EAF95146952021
:1022F00000F0E6F90021972000F0E2F90021982093
:1023000000F0DEF9594601E080E10120032000F0F1
:10231000D7F94FF4897107205DE14068A0F50341CA
:1023200012397CD11021012000F0CAF9A02100202F
:1023300000F0C6F90121032000F0C2F9012006F0E7
:102340003BFD0021032000F0BBF904212B2000F00D
:10235000B7F91821282000F0B3F905211A2000F060
:10236000AFF90521252000F0ABF90021192000F07C
:10237000A7F973211C2000F0A3F97421242000F098
:102380009FF901211E2000F09BF9C121182000F0C7
:1023900097F9012006F010FDE121182000F090F9D6
:1023A000F121182000F08CF9062006F005FDF5213A
:1023B000182000F085F9062006F0FEFC09211B20FC
:1023C00000F07EF9012006F0F7FC11211F2000F03B
:1023D00077F90E21202000F073F981211E2000F0F2
:1023E0006FF9012006F0E8FC00219D2000F068F95B
:1023F0000021C02000F064F900210E2000F060F9F7
:1024000000210F2000F05CF90021102000F058F9A5
:102410000021112000F054F90021122000E0DEE03C
:1024200000F04EF90021132000F04AF90021142099
:1024300000F046F90021152000F042F90021162095
:1024400000F03EF90021172000F03AF90121342074
:1024500000F036F90021352000F032F900214B2040
:1024600000F02EF900214C2000F02AF900214E2026
:1024700000F026F900214F2000F022F90021502021
:1024800000F01EF900213C2000F01AF900213D2047
:1024900000F016F901213E2000F012F93F21084614
:1024A00000F00EF90221402000F00AF9022141203B
:1024B00000F006F90021422000F002F9002143203B
:1024C00000F0FEF80021442000F0FAF80021452039
:1024D00000F0F6F8EF21462000F0F2F80021472046
:1024E00000F0EEF80021482000F0EAF80121492030
:1024F00000F0E6F83F214A2000F0E2F808211D2014
:1025000000F0DEF80021862000F0DAF83021872084
:1025100000F0D6F80221882000F0D2F805218920A9
:1025200000F0CEF801218D2000F0CAF820218B2088
:1025300000F0C6F80121332000F0C2F80121372055
:1025400000F0BEF80021762000F0BAF810218F20AC
:1025500000F0B6F86721902000F0B2F80721912032
:1025600000F0AEF86521922000F0AAF80721932030
:1025700000F0A6F80121942000F0A2F87621952021
:1025800000F09EF85621962000F09AF8002197203E
:1025900000F096F80621982000F092F80321992087
:1025A00000F08EF800219A2000F08AF850210120D6
:1025B00000F086F80421052000F082F88021002038
:1025C00000F07EF801213B2000F07AF8042006F0AC
:1025D000F3FB20210020BDE8F05F00F071B8BDE8FA
:1025E000F09F000070B5254E05467068244CA0F59C
:1025F0001341203904D07068A0F5A841083913D1DF
:10260000290A204600F0A5F90221204600F098F999
:102610000028F9D0E9B2204600F09BF902212046BB
:1026200000F08EF90028F9D07068A0F50341123946
:1026300022D1144E00224FF400413046FFF7BAF980
:10264000012280213046FFF7B5F90F4E0022042108
:102650003046FFF7AFF92946204600F07AF902210B
:10266000204600F06DF90028F9D03046BDE87040F2
:1026700001220421FFF79EB970BD000080E1012016
:1026800000380040000C02400004024010B504462F
:1026900000F00CF82046FFF7A5FF0122BDE810402E
:1026A00004210148FFF786B90004024010B522203A
:1026B00000F066F8BDE81040722000F087B8000016
:1026C0002DE9F0412A4A53682A4E2B4CA3F51345B5
:1026D000203D04D05368A3F5A845083D1AD10D4606
:1026E00000F04EF8722000F071F8290A204600F040
:1026F00030F90221204600F023F90028F9D0E9B290
:10270000204600F026F90221204600F019F90028A1
:10271000F9D023E05268A2F50343123B25D1DFF83C
:102720005C800546CFB200224FF400414046FFF7DF
:1027300041F9002280214046FFF73CF900220421A4
:102740003046FFF737F947EA0521204600F001F946
:102750000221204600F0F4F80028F9D03046BDE808
:10276000F04101220421FFF725B9BDE8F081000006
:1027700080E101200004024000380040000C0240CB
:1027800070B50546702000F021F80E4C002120465F
:1027900000F0DFF80221204600F0D2F80028F9D03E
:1027A0002946204600F0D5F80221204600F0C8F85E
:1027B0000028F9D0BDE87040012204210248FFF74B
:1027C000F9B80000003800400004024010B504468B
:1027D000002204210748FFF7EDF82146064C204669
:1027E00000F0B7F80221204600F0AAF80028F9D03E
:1027F00010BD0000000402400038004070B50F21F9
:10280000C478027801234FF0E026E4B1124C24682A
:1028100004F4E064C4F5E064C4F30724C4F10405DF
:10282000E1404478AC4085780D4025430B4C2901AC
:102830001155007800F01F018B40400906EB800025
:10284000C0F8003170BD02F01F008340500906EB54
:102850008000C0F8803170BD0CED00E000E400E0C5
:10286000044A0029116801D0014300E0814311604E
:102870007047000030380240044A0029116801D036
:10288000014300E08143116070470000403802407E
:10289000044A0029116801D0014300E0814311601E
:1028A0007047000020380240044A0029116801D016
:1028B000014300E08143116070470000443802404A
:1028C000044A0029116801D0014300E081431160EE
:1028D00070470000243802400029018802D041F0EE
:1028E000400101E021F0400101807047114910B51D
:1028F00088420AD1841401212046FFF7E1FF2046D7
:10290000BDE810400021FFF7DBBF0B49884202D130
:102910000121041404E0094988420AD10121C413A9
:102920002046FFF7B5FF2046BDE810400021FFF725
:10293000AFBF10BD0030014000380040003C0040F7
:102940000246002012890A4200D001207047808987
:1029500070478181704730B502884C8802F441533A
:102960000A88CD8822438C882C4322430C89224339
:102970004C8922438C892243CC8922431A4302800A
:10298000828B22F400628283098A018230BD0000BA
:1029900070B5FFF7B5FA0020FFF798F949F220313A
:1029A0000B4C884201D161600EE045F2084565603C
:1029B000FFF7A6FA0020FFF789F9A84204D048F2F1
:1029C00012306060FFF79CFA01480C30A06070BDC7
:1029D00080E1012010B50021072000F01FF8002140
:1029E000052000F01BF80021062000F017F8002158
:1029F000032000F013F80021BDE81040042000F08F
:102A00000DB800000349044A31F8101052F82000B4
:102A1000FEF7BDBAD8BB0F0860E1012070B50446CF
:102A200025480E4686B050F824000121FFF718FF14
:102A300001218803FFF738FF1F4800258DF810504B
:102A400010388DF8135030F8140003901B4803A978
:102A500050F82400FEF73AFA012E2BD116484030E8
:102A600010F81410103810F8140000F029F812486B
:102A7000203030F8140000908DF804500CB10C2078
:102A800000E008208DF8050001258DF80650684605
:102A9000FEF7E4F90848503010F814008DF80800EB
:102AA0000F208DF809008DF80A008DF80B5002A850
:102AB000FFF7A4FE06B070BDE8BB0F0860E101207F
:102AC00010B58A0721F003040649130F21440F2291
:102AD0000C689A4094430C600A68984002430A606C
:102AE00010BD0000083801400CB5002121480191BB
:102AF0000091026842F4803202604FF4C0630268C1
:102B000002F400320092019A521C0192009A12B90A
:102B1000019A9A42F3D10268920329D501210091CA
:102B2000144908310A680A600A6842F400420A60DF
:102B30000A6842F4A0520A600B1F0F4A1A6002682A
:102B400042F08072026002689201FCD50B4A40F2AA
:102B500003701060086820F003000860086840F007
:102B6000020008600868C0F381000228FAD10CBD99
:102B700000910CBD00380240193C4005003C024069
:102B80000F4810B5016841F0010101600C4A0021B5
:102B90000832116002680B4B1A400260031D0A4A9A
:102BA0001A60026822F48022026005480C3001603D
:102BB000FFF79AFF05494FF00060086010BD000064
:102BC00000380240FFFFF6FE1030002408ED00E060
:102BD0002DE9FE4F282005F05FFB0321009105231E
:102BE0003B4A3CA105F01CFB8246282005F054FB23
:102BF0001E2100910523364A39A105F011FB8146BB
:102C0000282005F049FB3C2100910523304A3EA1D4
:102C100005F006FB8046282005F03EFB4B21009185
:102C200005232B4A41A105F0FBFA0746282005F0B1
:102C300033FB5A2100910523254A45A105F0F0FAFE
:102C40000646282005F028FBB42100910523204AE0
:102C500048A105F0E5FA0546282005F01DFB732183
:102C6000009105231A4A4B4905F0DAFA0446514609
:102C7000174804F040F94946154804F03CF941462C
:102C8000134804F038F93946114804F034F9314654
:102C90000F4804F030F929460D4804F02CF921467C
:102CA0000B4804F028F9282005F0F6FA0849962385
:102CB000F7228DE80E0038492C234822096803F0DA
:102CC00055FC03B00146BDE8F04F014804F013B9CC
:102CD000D0E2012048656C702050616765000000FB
:102CE00055736520746865206A6F79737469636BC6
:102CF00020746F20776F726B2077697468204C4363
:102D000044204755490000002D55502F444F574E41
:102D100020746F206D6F7665206265747765656ECF
:102D200020636F6E74726F6C730000002D4C45460B
:102D3000542F524947544820746F206D6F76652098
:102D40006265747765656E20706167657300000069
:102D50002D53454C20746F20696E746572616374E5
:102D600020776974682074686520636F6E74726F71
:102D70006C000000436F7079726967687420535467
:102D80004D6963726F656C656374726F6E696373AE
:102D90000000000042B80F0800E001202DE9F04FCC
:102DA00087B00021FE4804F04FF8282005F074FA9F
:102DB0000021FB4A0B460091A832FAA105F030FA37
:102DC0008046282005F068FA1421F54A00910A236C
:102DD000A832FAA105F024FA0746382005F05CFA7B
:102DE0002121EF4A00910A23A832F64905F02CF977
:102DF000F54CE060282005F04FFA1421E84A0091D4
:102E00006423A832F1A105F00BFA0646382005F03C
:102E100043FA21210091E24AEA496423A8320C31A5
:102E200005F012F92061282005F036FADFF87093DA
:102E3000352309F1A8090A21CDF80090CDE9011345
:102E40003C239B22E4A105F04BF90546282005F020
:102E500023FA112100910F232A46E4A105F0E0F99D
:102E60000490282005F018FA252100910F232A4606
:102E7000E1A105F0D5F90590382005F00DFA6E2294
:102E8000CDE900524FF00F0ACDF808A0227809F5DD
:102E9000806B0BEB82110323DAA203F085FEE06165
:102EA000382005F0F9F923216E220095CDE90121A2
:102EB000227803230BEB8211891CD2A203F074FE4B
:102EC0002062282005F0E8F91422CD23CDF80090E7
:102ED000CDE90132AA236422CBA105F001F90390C8
:102EE000282005F0D9F90523CDF800A0C8A1039A40
:102EF00005F096F96062282005F0CEF921210091B5
:102F00000523C6A1039A05F08BF9A062282005F0DD
:102F1000C3F9332100910523C3A1039A05F080F979
:102F2000E062282005F0B8F9452100910523C1A1F0
:102F3000039A05F075F92063282005F0ADF95721B3
:102F400000910523BEA1039A05F06AF96063282069
:102F500005F0A2F9692100910523BCA1039A05F0AF
:102F60005FF9A063282005F097F97B2100910523E4
:102F7000B9A1039A05F054F9E063302005F08CF90B
:102F80008D2100910A23B7A1039A03F005FCB849EB
:102F9000206441624CF218614183002103F023FF59
:102FA0004846216C03F0A7FF4146484603F0A3FFC3
:102FB0003146484603F09FFF3946484603F09BFFE1
:102FC0004846E16803F097FF2178E06804F001FFCC
:102FD000E168A84848624846216903F08CFF2078E0
:102FE00009F5906600EB400016F82010206904F007
:102FF000F0FEA14804F5807700680169F86A884707
:10300000C0067AD5282005F047F973230A21CDF8A8
:103010000090CDE901133C23BE2298A105F060F891
:103020008046282005F038F91121009105234246F9
:1030300096A105F0F5F88246282005F02DF9252106
:1030400000910523424692A105F0EAF88146382016
:1030500005F022F90190F86A01F0C0FFDFF864B1D1
:1030600021230BF1180B42465BF820100F20009033
:10307000019804F0E9FF6061382005F00DF9019036
:10308000F86A01F0ABFF5BF82010232000902123A9
:103090004246019804F0D8FFA0614146A6F5906031
:1030A00003F029FF5146A6F5906003F024FF49463E
:1030B000A6F5906003F01FFFA6F59060616903F02C
:1030C0001AFFA6F59060A16903F015FF207800EBC8
:1030D000400006EB80004178606904F07AFE2078B9
:1030E00000EB400006EB80008178A06904F071FEDF
:1030F000616968484862A169486229482946A83040
:1031000003F0F9FE26480499A83003F0F4FE2448A1
:103110000599A83003F0EFFE2148E169A83003F0DB
:10312000EAFE1F48216AA83003F0E5FE0021E069AD
:1031300003F059FE0021206A03F055FE4E48006856
:103140000169F86A88470221B1EB107F03D0C0F310
:103150000360022813D1302005F09EF8B221104AF6
:1031600000910A23A8324CA103F016FB01467861B6
:103170000B48A83003F0BFFE79694C484862084804
:103180000399A83003F0B7FE0548616AA83003F040
:10319000B2FE0348A16AA83003F0ADFE004887E004
:1031A000D0E20120436F6E66696775726174696F62
:1031B0006E20616E64206465627567004D6F746F88
:1031C0007200000064B80F0804E001204374726CC0
:1031D000206D6F6465000000506F77657220626F2C
:1031E00061726420737461747573000044432042FB
:1031F000757320766F6C74004865617473696E6BCB
:1032000020542E00253364004661756C74730000F1
:103210004F76657263757272656E7400526576756D
:1032200070206661696C0000537065656420666497
:10323000626B00005357206572726F7200000000CD
:10324000556E64657220766F6C7400004F766572FF
:1032500020766F6C740000004F7665722074656D87
:10326000700000004661756C742061636B000000A3
:10327000B5510F08B15E0F08F4FF0120444143200F
:1032800053657474696E6773000000004368310011
:1032900043683200A1560F08456E636F6465722063
:1032A000616C69676E6D656E7400000011570F08E0
:1032B000A830E16A03F01FFE2048216B03F01BFEDB
:1032C0001E48616B03F017FE1C48A16B03F013FE50
:1032D0001A48E16B03F00FFE2078626A00EB4000B1
:1032E00006EB800116484B7930F8133053838B7905
:1032F000A26A30F813305383CB79E26A30F8133086
:1033000053830B7A226B30F8133053834B7A626B02
:1033100030F8133053838B7AA26B30F81330538319
:10332000C97AE26B30F81100508321690548486280
:1033300007B00248BDE8F04F03F071BE78E301200A
:103340003CB80F08E95D0F082DE9F04F8BB028203D
:1033500004F0A2FF00210B460091FB4AFBA104F000
:103360005FFF0790282004F097FFF74914230A22F3
:103370008DE80E005A239122F9A104F0B1FE064611
:10338000F948FA4C4FF0050B00784FF01E09002861
:103390004FF0410A4FF028007BD004F07DFF0F2151
:1033A000009105233246F2A104F03AFF0746382087
:1033B00004F072FF0096EC49CDE901B94D460623B1
:1033C000EFA26C3903F0F0FBEE49A06441624020AB
:1033D00004F062FF3C210096CDE90115E249062385
:1033E000E7A28C3904F086F8E064282004F054FF4A
:1033F00075233246E4A1009504F012FF8046282090
:1034000004F04AFF3221009105233246DFA104F087
:1034100007FF0546382004F03FFFD349CDE9006B94
:103420000623D7A26839CDF808A003F0BDFBD9491F
:10343000606541623946C44803F05DFDC248A16C35
:1034400003F059FDC048E16C03F055FD4146BE480C
:1034500003F051FD2946BC4803F04DFDBA48616DAB
:1034600003F049FD0021E06C03F0BDFC302004F0C6
:1034700013FF782100912823B34AC7A103F08CF9E8
:103480006067302004F008FF8C212823AE4A0091A9
:1034900000E0DCE0C3A103F07FF9C549A067416209
:1034A0004CF218614183002103F09DFCA648616F36
:1034B00003F021FDA448A16F03F01DFD282004F0B6
:1034C000EBFEA1491423A0228DE80E005A2391227D
:1034D000B8A104F005FE0546A348017B843803909B
:1034E00000294FF028007CD004F0D6FE0F21009177
:1034F00005232A469EA104F093FE0890382004F08C
:10350000CBFE9949CDE9005B4F4606239CA22C399E
:10351000CDF8089003F048FBA8492066416240209E
:1035200004F0BAFE3C21CDE90051062394A2029793
:10353000039903F0DFFF6066282004F0ADFE7523D9
:103540002A4691A1009704F06BFE8046282004F0E3
:10355000A3FE3221009105232A468CA104F060FECF
:103560000746382004F098FE7F49CDE9005B06232A
:1035700083A22839CDF808A003F016FB9049E06635
:1035800041627148089903F0B6FC6F48216E03F060
:10359000B2FC6D48616E03F0AEFC41466A4803F030
:1035A000AAFC3946684803F0A6FC6748E16E03F0C0
:1035B000A2FC0021606E03F016FC302004F06CFECB
:1035C00078210091BE23604A73A103F0E5F8E0671B
:1035D000302004F061FE8C210091BE235A4A71A173
:1035E00000E040E103F0D8F8604F7649803738605A
:1035F00041624CF218614183002103F0F4FB30205A
:1036000004F04AFEA021009144234F4A6EA103F02A
:10361000C3F878604C48079903F06DFC31464A487E
:1036200003F069FC2946484803F065FC4648E16F11
:1036300003F061FC4448396803F05DFC4248796856
:1036400003F059FC4848017800297CD0D0E104F00F
:1036500023FE0F2100910523324661A104F0E0FD15
:103660000490402004F018FE3F49CDE9006B06238A
:1036700043A29039CDF8089003F03CFF5C4D6064A4
:103680005C4F286800210268F86A9047C0B2039036
:103690002868002211468368F86A98472868D4F899
:1036A000448040210268F86A9047029028683F21D0
:1036B0000268F86A90470299C8E90E10286800214C
:1036C000039A8368F86A9847402004F0E5FD3C219E
:1036D000CDE900612449062329A2CDF808908C3950
:1036E00003F008FFE064282004F0D6FD752332467D
:1036F00025A1CDF8009004F093FD0746282004F0A2
:10370000CBFD32210091052332463BA104F088FD18
:103710000546382004F0C0FD1349CDE9006B0623AF
:1037200017A27C39CDF808A003F03EFA47F6FF72E5
:103730000021206503F00AFA302004F0ADFD3C239F
:10374000324632A166E03FE120E401204475616C1D
:1037500020636F6E74726F6C2070616E656C000018
:103760004D6F746F72203100F8E7012004E00120F2
:103770004971207265662E2F5370656564000000E4
:103780002536640069620F0872706D00496420720A
:1037900065662E00E1600F0853746172742F5374D4
:1037A0006F7000004661756C742061636B000000EF
:1037B00021560F084D6F746F7220320005630F0899
:1037C000A5610F0861560F0853746172742F53740A
:1037D0006F7020626F7468206D6F746F7273000079
:1037E000546172676574204D65617375726564001C
:1037F000F4FF012004E1012052616D7020647572B4
:103800006174696F6E206D73000000004578656318
:1038100000000000CDF800A002F0BEFFA0657C48CB
:10382000049903F068FB7A48616C03F064FB784804
:10383000E16C03F060FB3946754803F05CFB2946F8
:10384000734803F058FB7248216D03F054FB704835
:10385000A16D03F050FB0021E06C03F0C4FAA16DF0
:103860006C48486202E604F017FD0F2105232A4642
:103870000091AFF2940104F0D3FC0890402004F0D2
:103880000BFD1E2105220095CDE901210623AFF293
:103890001012614903F02EFE604FE065DFF8808171
:1038A000386800210268D8F82C00904700F0FF0B20
:1038B0003868012200218368D8F82C0098473868BE
:1038C000D4F85C9040210268D8F82C00904704900E
:1038D00038683F210268D8F82C0090470499C9E95C
:1038E0000E1038685A4600218368D8F82C00984793
:1038F000402004F0D1FC1E223C210095CDE90112AC
:103900000623AFF28412039903F0F4FD60662820C9
:1039100004F0C2FC1E2175232A460091AFF29811D3
:1039200004F07EFC8046282004F0B6FC32210523FA
:103930002A460091AFF2401104F072FC074638208D
:1039400004F0AAFC0522CDE900520623CDF808A018
:10395000AFF2D41230494C3103F026F947F6FF722A
:103960000021A06603F0F2F8302004F095FC3C231F
:103970002A46AFF26811CDF800A002F00DFF2067D3
:103980002348089903F0B7FA2148E16D03F0B3FA30
:103990001F48616E03F0AFFA41461D4803F0ABFAD1
:1039A00039461B4803F0A7FA1948A16E03F0A3FAA1
:1039B0001748216F03F09FFA0021606E03F013FA9D
:1039C000216F18484862F8E5007B88B9302004F080
:1039D00063FCB421009140230D4A13A102F0DCFEE8
:1039E0000146B8600A4803F086FAB968144848628C
:1039F000796814484862616F13484862E16F134860
:103A000048620BB00248BDE8F04F03F008BB00006D
:103A100020E40120DD630F0870E70120F4FF01209E
:103A200004E1012029640F08457865632073696DFE
:103A3000756C74616E656F75732052616D70730083
:103A400029570F0899520F08955A0F08A15B0F08C4
:103A50002DE9F04F8BB0282004F01EFC00210B460E
:103A60000091FE4AFEA104F0DBFB0390282004F045
:103A700013FC0A22F94BCDE900324FF0140ACDF8BD
:103A800008A05A239122FBA104F02AFB0746282014
:103A900004F002FC1E2100913C233A46F8A104F0F8
:103AA000BFFB0490282004F0F7FB412100913C2348
:103AB0003A46F4A104F0B4FB0590282004F0ECFB96
:103AC0000F21009105233A46EFA104F0A9FB0690CF
:103AD000402004F0E1FB1E2105220097CDE90121E1
:103AE000DFF8B8B3EC4A06239BF8001002EBC101E3
:103AF000EBA203F0FFFC0BF18004DFF8A88306467D
:103B0000E060D8F8000004F1800540210268E86A0E
:103B100090478146D8F800003F210268E86A904744
:103B2000C6E90E90282004F0B7FB3221009105234E
:103B30003A46DDA104F074FB0790382004F0ACFB9A
:103B4000412105220097CDE901215A46DFF848932B
:103B5000127809F1100909EB8211091D0623D0A280
:103B600003F022F847F6FF720021206102F0EEFF19
:103B7000302004F091FB412100915A233A46CEA116
:103B800002F00AFECE496061416201F0BFF92820CF
:103B900004F082FBB14973230A228DE80E004B2307
:103BA0006822C8A104F09CFA0646282004F074FBA1
:103BB0000A233246C6A1CDF800A004F031FB0890DC
:103BC000282004F069FB232100910A233246C1A179
:103BD00004F026FB0990382004F05EFB51464FF0BC
:103BE000280A0096CDE901A15A460623127809EB6E
:103BF0008211891DAAA202F0D7FFA061382004F02B
:103C00004BFB23210096CDE901A15A4606231278E9
:103C100009EB82110831A2A202F0C6FFE0618F48D1
:103C2000039903F068F98D48049903F064F98B480F
:103C3000059903F060F93946884803F05CF9874834
:103C4000069903F058F98548E16803F054F9834870
:103C5000079903F050F98148216903F04CF97F4836
:103C6000616903F048F97D48A96903F044F97B488C
:103C7000E96903F040F97948296A03F03CF977488B
:103C8000A96A03F038F90021286A03F0ACF87348F8
:103C9000696A03F030F93146704803F02CF96F4837
:103CA000089903F028F96D48099903F024F96B4845
:103CB000A16903F020F96948E16903F01CF9D8F81B
:103CC00000000169E86A884780072BD5282004F0A6
:103CD000E3FA32270A2332467FA1009704F0A0FAC4
:103CE0000546382004F0D8FACDE9006A02979BF81F
:103CF0000020062309EB82110A3169A202F054FF69
:103D000020622946554803F0F6F85448216A03F02A
:103D1000F2F847F6FF720021206A02F017FFA1694E
:103D20006E48486247F6FF752A460021A06902F0F6
:103D30000DFF2A460021E06902F008FFD8F80000D4
:103D400001696748C06A8847C0077DD0282004F011
:103D5000A3FA424973237D228DE80E004B23B4223F
:103D600060A104F0BDF90546282004F095FA0E265E
:103D70000A232A465FA1009604F052FA03902820F5
:103D800004F08AFA50232A465AA1009604F048FA11
:103D90008246382004F080FA0A22CDE900524FF022
:103DA0001908CDF808809BF800104E4609EB8111E8
:103DB0005F460C31042351A202F0F6FE6062382007
:103DC00004F06AFA5022CDE90052CDF80880397823
:103DD000042306EB81110E3148A202F0E5FEA06239
:103DE000282004F059FA4FF02C080A232A4638A15B
:103DF000CDF8008004F014FA8146282004F04CFA33
:103E000050232A4633A1CDF8008004F009FA8046F9
:103E1000382004F041FA0A22CDE900524FF0370B66
:103E2000CDF808B03978062306EB811110311CA2B9
:103E300002F0BAFEE062382004F02EFA5022CDE9FA
:103E40000052CDF808B000E09CE03978062306EB7C
:103E50008111123112A202F0A7FE51E0C8E4012044
:103E6000537065656420636F6E74726F6C6C6572FD
:103E70000000000053657420706F696E74000000CC
:103E800072706D006D730000546172676574207309
:103E9000706565640000000068E7012004E001200F
:103EA00025366400F4FF012052616D702064757244
:103EB0006174696F6E000000457865630000000062
:103EC000815E0F08504944204761696E730000000D
:103ED0004B5000004B4900004B440000F9530F08C1
:103EE00004E10120466C757820776C2E2074756E85
:103EF000696E67004255538000000000253464005D
:103F000020632946254802F0F6FF2448039902F071
:103F1000F2FF5146214802F0EEFF2048616A02F0AC
:103F2000EAFF1E48A16A02F0E6FF0021A06A02F043
:103F30005AFF4946194802F0DEFF4146174802F091
:103F4000DAFF1648E16A02F0D6FF1448216B02F04E
:103F5000D2FF4FF47A720021606A02F0F7FD47F653
:103F6000FF752A460021E06A02F0F0FD2A46002192
:103F7000206B02F0EBFD616A09484862E16A486221
:103F8000216B4862A16906484862E16948620BB04A
:103F90000248BDE8F04F03F042B80000C8E4012039
:103FA000F9530F082DE9F04F8BB0282004F074F975
:103FB00000210B460091FE4AFEA104F031F9039066
:103FC000282004F069F987210091E623F84AFEA130
:103FD00004F026F90490282004F05EF90A23DFF8A3
:103FE000D083CDE900834FF0140ACDF808A05A23FE
:103FF0009122F7A104F074F80746282004F04CF948
:104000000F21009105233A46F4A104F009F9F54C7B
:104010006063382004F040F91E2105220097CDE9A5
:104020000121A4F1800508F502762978062306EB24
:1040300081111431ECA202F0B7FDA063282004F036
:104040002BF90F21009150233A46E8A104F0E8F83B
:104050000590382004F020F91E2150220097CDE968
:1040600001212978062306EB81111631DEA202F028
:104070009BFDE063282004F00FF932210091052315
:104080003A46DBA104F0CCF82064382004F004F9AF
:10409000412105220097CDE901212978062306EB6D
:1040A00081111831D0A202F07FFD6064282004F055
:1040B000F3F83221009150233A46CFA104F0B0F832
:1040C0000690382004F0E8F8412150220097CDE90D
:1040D00001212978062306EB81111A31C2A202F0D0
:1040E00063FDA064282004F0D7F8844673200A22D8
:1040F000CDF80080CDE901204B236822BFA16046A6
:1041000003F0EEFF8146282004F0C6F80A234A4651
:10411000BEA1CDF800A004F083F80790382004F089
:10412000BBF84FF0280BCDE9009B8446CDF808A0E2
:104130002878062306EB80111C31ABA2604602F002
:1041400033FDE064282004F0A7F8232100910A231E
:104150004A46AFA104F064F80890382004F09CF8B7
:104160002321CDF80090CDE901B1844628780623BB
:1041700006EB80111E319CA2604602F015FD206501
:10418000282004F089F8844673207822CDF8008036
:10419000CDE901204B2368229EA1604603F0A0FFD9
:1041A0008046282004F078F80A23424697A1CDF8EB
:1041B00000A004F035F80990382004F06DF8CDE93E
:1041C000008B8446CDF808A02878062306EB8011E2
:1041D000223185A2604602F0E7FCE065282004F069
:1041E0005BF8232100910A23424689A104F018F8C4
:1041F0000A90382004F050F82321CDF80080CDE952
:1042000001B184462878062306EB8011243176A27A
:10421000604602F0C9FC2066302004F03DF87321AE
:104220000091E623624A7FA103F08AF8E066382015
:1042300004F032F896210091E6235D4A7B4903F0B1
:1042400003FF206700F062FE5948039902F053FE15
:104250005748049902F04FFE3946554802F04BFE8C
:104260005348616B02F047FE5148A16B02F043FED8
:104270004F48059902F03FFE4D48E16B02F03BFECE
:104280000021E06B02F0AFFD4948216C02F033FEE3
:104290004748616C02F02FFE4548069902F02BFE5C
:1042A0004348A16C02F027FE0021A06C02F09BFDA8
:1042B00004F1800081693E4802F01DFE04F1800097
:1042C000C1693B4802F017FE04F18000016A3848DA
:1042D00002F011FE04F18000816A354802F00BFE05
:1042E00004F180000021006A02F07DFD04F18000ED
:1042F000416A2F4802F0FFFD287800EB400106F1EB
:10430000800000EB810049460779294802F0F3FD5F
:104310002748079902F0EFFD2548E16C02F0EBFD1C
:104320002348089902F0E7FD2148216D02F0E3FDE2
:10433000E16C3F484862216D3E4848623E48006853
:10434000016904F18000C06A884740072DD5282004
:1043500003F0A2FF4FF0320A0A234A4637A1CDF8F4
:1043600000A003F05DFF6065382003F095FFCDE904
:10437000009BCDF808A02978062306EB8111203197
:1043800019A202F011FCA0650948616D02F0B3FDAD
:104390000748A16D02F0AFFD47F6FF720021A06D46
:1043A00002F0D4FBA16D2648486247F6FF7A49E047
:1043B00070E5012043757272656E7420636F6E74D0
:1043C000726F6C6C65727300496E707574000000DA
:1043D00053657420706F696E7473000049712072A8
:1043E00065662E0084E001202536640049710000D6
:1043F0004964207265662E004964000049712050AE
:104400004944204761696E73000000004B50000072
:104410004B490000496420504944204761696E734C
:10442000000000004C696E6B00000000BCB80F0873
:1044300075550F0831550F08F4FF01204B4400005B
:10444000E9540F0852460021E06C02F07FFB52460F
:104450000021206D02F07AFB41465D4802F04BFDE1
:104460005B48099902F047FD5948E16D02F043FDB0
:1044700057480A9902F03FFD5548216E02F03BFD76
:104480005448006801695448C06A8847DFF84C9175
:10449000000733D5282003F0FFFE32210A234246CD
:1044A0000091AFF2680103F0BBFE6066382003F0B4
:1044B000F3FE3221CDF80080CDE901B1297806EB79
:1044C000811126310623AFF2E00202F06DFBA066F7
:1044D0003F48616E02F00FFD3D48A16E02F00BFDFA
:1044E00052460021A06E02F031FB002F55D0002172
:1044F000A06E02F078FCA16EC1F824905646524698
:104500000021E06D02F022FB32460021206E02F015
:104510001DFB2F48E16E02F0EEFC2D48216F02F0EA
:10452000EAFCA84628782E4D00EB400005EB800001
:10453000C178206F03F04DFC01F03AFDE66E726A1F
:104540002AB196F8210010B139463046904786F8D6
:104550002C7027B30021E06D02F045FC0FB3002161
:10456000206E02F040FC216F1E484862E16E1E483A
:104570004862A06B1D494162626C1D495162E26D47
:10458000C2F82490226EC2F8249098F8001001EB33
:10459000410115F8211031B114E00121A8E70121F2
:1045A000D9E70121DCE7002102F01DFC0948006881
:1045B00001690948C06A8847800603D40021606CFD
:1045C00002F011FC0BB00248BDE8F04F02F027BD2D
:1045D00070E50120F4FF012004E10120F9530F08E8
:1045E000F8E701209D640F0839540F0829590F0876
:1045F00095570F082DE9F04FFF48DFF8008487B08A
:10460000006800250169D8F82C0088470646092073
:104610000024B0EB167F09D1282003F03DFE0023D3
:10462000F74AF8A1009403F0FBFD0546C6F30360CA
:10463000092809D1282003F02FFE0023F04AF8A111
:10464000009403F0EDFD054670064FF028000AD5F2
:1046500003F022FEEA4914230A228DE80E005A23B1
:104660009122F8A109E003F017FEE54914230A227C
:104670008DE80E005A239122F5A103F031FD044686
:10468000282003F009FE0F21009105232246F1A105
:1046900003F0C6FD0390382003F0FEFD1E21052225
:1046A0000094DFF8B8B3CDE90121DFF8AC939BF8B3
:1046B0000020062309EB82112831E9A202F074FAE6
:1046C0000BF1800A5746CAF87400282003F0E4FD75
:1046D0000F21009150232246E2A103F0A1FD049096
:1046E000382003F0D9FD1E2250210094CDE901129B
:1046F0009BF80020062309EB82112A31D8A202F090
:1047000053FAB86700F002FC2946BD4802F0F3FBFB
:104710002146BB4802F0EFFBB948039902F0EBFBDE
:10472000B748796F02F0E7FBB548049902F0E3FB64
:10473000B348B96F02F0DFFB70065BD5282003F0A9
:10474000ABFD3221009105232246C7A103F068FD8D
:104750000390382003F0A0FD0521CDE90041412759
:1047600002979BF80020062309EB82113031BCA28E
:1047700002F01AFA554647F6FF720021CAF87C008B
:1047800002F0E4F9282003F087FD32210091502344
:104790002246B7A103F044FD0490382003F07CFDCD
:1047A0005021CDE9004102979BF80020062309EB38
:1047B00082113231AAA202F0F7F9444647F6FF729D
:1047C0000021C8F8000002F0C1F98D48039902F0F9
:1047D00092FB8B48E96F02F08EFB8948049902F046
:1047E0008AFB8748216802F086FBE96FA24848628D
:1047F0002168486244468248D8F8181002F07BFBD2
:104800007F48E16902F077FB7D48216A02F073FB83
:104810007B48A16A02F06FFB0021206A02F0E3FAF4
:104820007748616A02F067FB0920B0EB167F7DD103
:10483000282003F031FD724973230A228DE80E000F
:104840004B2340F227128DA103F04AFC0546282095
:1048500003F022FD4FF014080A232A468BA1CDF85D
:10486000008003F0DDFC0390382003F015FD50229A
:10487000CDE90052CDF808809BF800104E4609EBB8
:1048800081115F463431062375A202F08DF947F697
:10489000FF720021606002F059F9282003F0FCFC4F
:1048A0004FF023090A232A467BA1CDF8009003F09C
:1048B000B7FC8346382003F0EFFC5022CDE90052CC
:1048C000CDF808903978062306EB8111363164A2C1
:1048D00002F06AF9A060282003F0DEFC322100918A
:1048E0000A232A466EA103F09BFC0490382003F0B3
:1048F000D3FC322150220095CDE9012139780623DD
:1049000006EB8111383156A202F04EF9E060282002
:1049100003F0C2FCB4232A4663A1CDF8008003F063
:104920007FFC0590382003F0B7FC00E0D9E0E622D8
:10493000CDE90052CDF808803978032306EB8111C8
:104940003A315BA202F030F920612B482221006845
:104950000268E06A9047421E0021206902F0F6F8E2
:10496000282003F099FC8C232A4652A1CDF8008020
:1049700003F056FC0190282003F08EFC8C232A467D
:104980004DA1CDF8009003F04BFC3978804606EB42
:10499000811090F83A20E06A00F00EFE2169474845
:1049A0004862616846484862A16846484862E168D2
:1049B000454848621248019902F09DFA4146104864
:1049C00002F099FA29460E4802F095FA0C4803992C
:1049D00002F091FA0A48616802F08DFA59460848D7
:1049E00002F089FA0648A16802F085FA04480499A1
:1049F00002F081FA024869E0F4FF012004E101209D
:104A000018E6012053656E736F726C6573732074C2
:104A1000756E696E672053544F202620504C4C0011
:104A200053656E736F726C6573732074756E696E07
:104A3000672053544F202620504C4C202841757835
:104A40002900000053544F202620504C4C000000F9
:104A500053544F004731000078E7012004E0012063
:104A60002536640047320000504C4C204B5000006B
:104A7000504C4C204B490000F9530F0852657620EA
:104A800075702074756E696E670000004475726100
:104A900074696F6E00000000456E642073706400DE
:104AA000456E642049710000537461676500000021
:104AB000253364006D73000072706D00A1630F08F0
:104AC00075640F08CD640F08F5640F08E16802F003
:104AD00012FA0A48059902F00EFA0848216902F014
:104AE0000AFADAF8742006485062DAF87810486258
:104AF00007B00248BDE8F04F02F091BA18E6012075
:104B0000F9530F082DE9F04FD14887B00024006811
:104B10000169D048C06A884706460A250027B5EBD8
:104B2000167F09D1282003F0B7FB0023CA4ACBA186
:104B3000009703F075FB0446C6F303600A2809D109
:104B4000282003F0A9FB0023C34ACCA1009703F05F
:104B500067FB0446282003F09FFBBF4BCDE90035DF
:104B600014210291AA465A239122CEA103F0B8FA49
:104B70000546282003F090FB4FF00F0805232A4636
:104B8000C9A1CDF8008003F04BFB8146382003F02B
:104B900083FB1E2105220095CDE90121C349DFF8E1
:104BA000B8B2062309780BF1B80B0BEB81112C314D
:104BB000BFA201F0F9FFA74F803F7867282003F0DC
:104BC0006BFB50232A46BBA1CDF8008003F028FBE5
:104BD0008046382003F060FB1E2150220095CDE96D
:104BE0000121B2490623B2A209780BEB81112E31C3
:104BF00001F0DAFFB86700F089F92146964802F023
:104C00007AF92946944802F076F94946924802F02A
:104C100072F99148796F02F06EF941468E4802F0C0
:104C20006AF98D48B96F02F066F98A4C8A48A16921
:104C300002F061F98848E16902F05DF98648216A6D
:104C400002F059F98448A16A02F055F90021206A5E
:104C500002F0C9F88048616A02F04DF9BAEB167F9C
:104C60007ED1282003F018FB7B4900917323CDE906
:104C700001A34B2340F227128FA103F031FA05461E
:104C8000282003F009FB4FF014080A232A468EA1BE
:104C9000CDF8008003F0C4FA0390382003F0FCFA4A
:104CA0004FF05009CDE90059803FCDF808803978A0
:104CB0005E460BEB8111343106237DA201F074FFB7
:104CC00047F6FF720021606001F040FF282003F0EA
:104CD000E3FA4FF0230A0A232A467EA1CDF800A06A
:104CE00003F09EFA0490382003F0D6FA8DE82006EF
:104CF0003978062306EB811136316DA201F054FF9D
:104D0000A060282003F0C8FA4FF0320B0A232A468D
:104D100072A1CDF800B003F083FA0590382003F0BB
:104D2000BBFA8DE8200A3978062306EB8111383169
:104D30005FA201F039FFE060282003F0ADFAB42350
:104D40002A4668A1CDF8008003F06AFA834638202D
:104D500003F0A2FAE622CDE90052CDF8088000E087
:104D600069E03978032306EB81113A315FA201F043
:104D70001BFF20613648222100680268E06A9047E4
:104D8000421E0021206901F0E1FE282003F084FA90
:104D90008C232A4656A1CDF8008003F041FA8146C3
:104DA000282003F079FA8C232A4652A1CDF800A0DE
:104DB00003F036FA3978804606EB811090F83A20F5
:104DC000E06A00F0F9FB21694B48486260684B4992
:104DD0004162A0684A494162E0684A4941624946E5
:104DE0001D4802F088F841461B4802F084F8294625
:104DF000194802F080F81848039902F07CF8164828
:104E0000616802F078F81448049902F074F81248C6
:104E1000A16802F070F81048059902F06CF80E488D
:104E2000E16802F068F859460B4802F064F80A4855
:104E3000216902F060F8074833498038426F5162B7
:104E4000806F416207B00448BDE8F04F02F0E7B858
:104E5000F4FF012004E10120C0E6012053656E73D8
:104E60006F726C6573732074756E696E672053542E
:104E70004F202620434F52444943000053656E7330
:104E80006F726C6573732074756E696E672053540E
:104E90004F202620434F524449432028417578290A
:104EA0000000000053544F004731000004E001208F
:104EB00025366400473200005265762075702074F4
:104EC000756E696E670000004475726174696F6E7B
:104ED00000000000456E642073706400456E64201D
:104EE0004971000053746167650000002533640058
:104EF0006D73000072706D00A1630F0875640F0878
:104F0000CD640F08F5640F08F9530F083EB528204B
:104F100003F0C2F9A0232249CDE900131422029222
:104F20005A2391221FA103F0DBF8204CA061282016
:104F300003F0B2F90F21009105231DA1A26903F02E
:104F40006FF9E061402003F0A7F9A2690521CDE9DE
:104F500000211E25A4F580720295194912780623B6
:104F600001EBC201091D17A202F0C4FA2062302031
:104F700003F092F941210091052313A1A26901F0E8
:104F80000BFC6062282003F087F900953C2311A1F7
:104F9000A26903F045F9A062616A0F4848623EBD0C
:104FA000E4E101204D6F6E69746F720004E101202D
:104FB0004D6561737572656420737065656400008A
:104FC00068E701202536640053746172742F5374AE
:104FD0006F70000072706D00F1520F0870B53149AA
:104FE0000024096809698847010E0E074FF009017E
:104FF0004FF00A024FF002034FF001050ED0B1EB63
:10500000107F03D1C0F303660A2E17D0B2EB107FD6
:1050100015D1C0F30366092E10D010E0B1EB107F5C
:1050200000D10124B2EB107F00D10224B5EB107F38
:1050300002D0B3EB107F33D1032431E00624B1EB6F
:10504000107F05D1C0F3036102290BD0012909D0DB
:10505000C0F30361092906D1B3EB107F02D0B5EB91
:10506000107F00D10424B2EB107F05D1C0F303619F
:1050700002290BD0012909D0C0F303610A2906D106
:10508000B3EB107F02D0B5EB107F00D105240B21CC
:10509000B1EB107F04D1C0F30360092800D10724CD
:1050A000204670BDF4FF012010B5324801F085FFA5
:1050B0003048A83001F081FF2F4801F07EFF2E48D4
:1050C000A83001F07AFF2D4801F077FF2B48A83077
:1050D00001F073FF2A4801F070FF2A490020C860E0
:1050E000086148618861C861086248628862C86274
:1050F000086348638863C863086448648864C86454
:10510000086548658865C865086648668866C86633
:10511000086748678867C8678031086048608860AA
:10512000C860086148618861C86108624862886235
:10513000C862086348638863C86308644864886415
:10514000C864086548658865C865086648668866F5
:10515000C866086748678867C86780310860486024
:105160008860C860086148618861C86108624862F7
:10517000886210BDD0E2012020E4012070E501200A
:10518000C0E6012004E0012010B507480749027875
:105190000748521CFBF7BCF80549BDE8104001F177
:1051A000200002F00EBA000004E00120ECB80F0865
:1051B000A0E10120034807210068C2680248C06AD4
:1051C00010470000F4FF012004E1012010B50C4657
:1051D000FFF76AFF072C23D2DFE804F004070A1761
:1051E0001A1D2000FDF7F4FC04E0FDF7D7FD01E0F7
:1051F000FEF7AAF80C4B986801F090F99968BDE8A1
:1052000010400144094802F0DCB9FEF721FC07E038
:10521000FEF7C8FE04E0FFF7EDF901E0FFF772FCCE
:10522000BDE81040FFF7B0BF04E00120C0E101205D
:105230002DE9F047814617480E46144FDFF850809D
:10524000002400EB8615395D5D2908D0D8F80000F0
:10525000026848469047411C01D025F81400641CA0
:10526000E4B2202CEFD3D8F80000042102684846AD
:1052700090470849103941F8360095F83A203146F0
:105280004846BDE8F04700F097B90000C8B80F08DD
:10529000F4FF012078E7012070B5134C134D002175
:1052A00020680268E86A9047C6B22068002211466A
:1052B0008368E86A984720680621C268E86A9047D0
:1052C0002068012200218368E86A98472068062147
:1052D000C268E86A90472068324600218368E86A1D
:1052E000BDE8704018470000F4FF012004E10120F0
:1052F0002DE9F05F3A4A3B4F3B4E1178A7F1800C05
:1053000001EB4105336817F8258002F580740CEB3A
:105310008110B8F1000F06D007EB8501C97859B1AB
:10532000012955D10EE082882E485B68903850F8EC
:105330003110E06A98474BE0B0F91820B0F914102A
:105340001B6A43E0E3469246B0F93E0004F003F8DE
:10535000264A274B04F02AF80022264B03F074FE5D
:1053600003F0D4FC0F469AF8001005460BEB8119A8
:10537000B9F93C0003F0EFFF2A463B4604F016F86B
:1053800003F0BAFF0FFA80F8B9F93E0003F0E3FF2B
:10539000164A174B04F00AF80022164B03F054FE8D
:1053A00003F01EFD0F469AF8001005460BEB811026
:1053B000B0F93C0003F0CFFF2A463B4603F0F6FF6E
:1053C00003F09AFF01B230684246036AE06A9847E8
:1053D00030680621C268E06ABDE8F05F104700004F
:1053E00004E00120F8E70120F4FF01201F85EB51C4
:1053F000B81E0940008066400B4B0A4609491B78DD
:10540000008D01EB8311401AC0F347010748415C4E
:105410005D2905D00648006883680648C06A1847B9
:105420007047000078E7012004E00120C8B80F08A9
:10543000F4FF012004E101202DE9F041284E11F094
:10544000FF052849307800EB400001EB8000057132
:1054500040D00021224C8034E06D01F0C4FCC5B383
:105460000021206E01F0BFFCFDB11E4F3078803F5F
:1054700007EB8010B0F91C104184C28B8284028C2F
:10548000C284E06D01F046FA307807EB8010B0F985
:105490002410206E01F03EFAA06E30B1317807EB97
:1054A0008111B1F9261001F035FAE06D012680F87E
:1054B0002060206E80F82060A06E002807D06DB1BB
:1054C0005FF0000101F08FFCA06E80F82060BDE865
:1054D000F08101E00121BDE70121C2E70121F1E7EF
:1054E00004E00120F8E7012070B50D46FFF784FFC6
:1054F0000D480E4A017801EB410002EB8000007973
:1055000000280FD0084C8034A06E00280AD0803AC2
:1055100002EB8111CD84294601F022FAA06E01210F
:1055200080F8201070BD000004E00120F8E70120A1
:1055300010B50C46FFF760FF0C480D4A007800EBF1
:10554000400102EB8101097900290ED0A2F180010E
:1055500001EB801021468484044C8034206E01F0DD
:10556000FFF9206E012180F8201010BD04E0012019
:10557000F8E7012010B50C46FFF73EFF0C480D4A36
:10558000007800EB400102EB8101097900290ED07F
:10559000A2F1800101EB801021464484044C803448
:1055A000E06D01F0DDF9E06D012180F8201010BD03
:1055B00004E00120F8E70120F8B51546094A02EB9E
:1055C0008114094904F1380200920968931E121FE0
:1055D0008E692946B047E08E00EB40004000E0862F
:1055E000F8BD000078E70120F4FF012038B515462A
:1055F000094A062302EB8112B2F9361091FBF3F14E
:105600000BB2B2F9381000910449928E09684C69C6
:105610002946A04738BD000078E70120F4FF0120AB
:1056200070B50D4C0D4D002120680268E86A904766
:10563000C6B22068002211468368E86A984720684D
:105640000721C268E86A90472068324600218368D3
:10565000E86ABDE870401847F4FF012004E101202A
:1056600070B50D4C0D4D002120680268E86A904726
:10567000C6B22068012200218368E86A9847206842
:105680000721C268E86A9047206832460021836893
:10569000E86ABDE870401847F4FF012004E10120EA
:1056A0002DE9F041164A054610461649007802F5E4
:1056B000807400EB400001EB80015369124E134FE0
:1056C000E06A9D420BD193F830504D70FFF786FC95
:1056D00056F820000021425D3868C3690BE09269EA
:1056E00092F830508D70FFF779FC56F820000121B8
:1056F000425D3868C369206BBDE8F041184700007F
:1057000004E00120F8E701209CB80F08F4FF012015
:10571000034808210068C2680248C06A10470000B8
:10572000F4FF012004E101202DE9F041164C174D52
:10573000002120680268E86A9047C6B2206800220B
:1057400011468368E86A9847114F2068A7F110084E
:10575000BA884368D8F80010E86A984720680122A0
:1057600000218368E86A98472068B7F84420D8F891
:1057700008104368E86A9847206832460021836829
:10578000E86ABDE8F0411847F4FF012004E1012078
:1057900078E701202DE9F05F5D4C5E4ADFF878B1D3
:1057A0002078A2F1800500EB400102EB810304F5B3
:1057B0008076DB7805EB8010002B7DD0012B7CD12F
:1057C000B0F93E0003F0C7FD544A554B03F0EEFD1F
:1057D0000022544B03F038FC03F098FA0746207877
:1057E000884605EB8019B9F93C0003F0B4FD3A4650
:1057F000434603F0DBFD03F07FFD0FFA80FAB9F9B1
:105800003E0003F0A8FD454A454B03F0CFFD0022C2
:10581000444B03F019FC03F0E3FA0746207888466E
:1058200005EB8010B0F93C0003F095FD3A46434685
:1058300003F0BCFD03F060FD01B2DBF8000052464E
:10584000036AF06A9847207805EB8010B0F93E00B3
:1058500003F081FD314A324B03F0A8FD0022314BA9
:1058600003F0F2FB03F0BCFA06462078884605EB0D
:105870008017B7F93C0003F06EFD3246434603F053
:1058800095FD03F039FDB882B7F93E0003F063FDE2
:10589000224A234B03F08AFD0022224B03F0D4FB63
:1058A00003F034FA064620780F4605EB8014B4F96D
:1058B0003C0003F050FD01E009E006E032463B46C3
:1058C00003F074FD03F018FD2083BDE8F09F12F88B
:1058D0002110114A136841B1B0F91820B0F9141021
:1058E0001B6AF06ABDE8F05F184719695F46F06A05
:1058F00088478006E9D52078412105EB8010B0F972
:10590000182038688368F06ABDE8F05F1847000027
:1059100004E00120F8E70120F4FF01201F85EB518E
:10592000B81E0940008066402DE9F05F534D544A8F
:10593000DFF850A12878A2F1800400EB400102EBCF
:10594000810105F5807BC97804EB801000297CD0AB
:1059500001297BD1B0F93E0003F0FDFC4A4A4B4BD4
:1059600003F024FD00224A4B03F06EFB03F0CEF956
:10597000064628780F4604EB8018B8F93C0003F07F
:10598000EAFC32463B4603F011FD03F0B5FC0FFA8A
:1059900080F9B8F93E0003F0DEFC3B4A3B4B03F0D4
:1059A00005FD00223A4B03F04FFB03F019FA0646BF
:1059B00028780F4604EB8010B0F93C0003F0CBFCD4
:1059C00032463B4603F0F2FC03F096FC01B2DAF8F3
:1059D00000004A46036ADBF82C009847287804EB5D
:1059E0008010B0F93E0003F0B6FC274A274B03F0C5
:1059F000DDFC0022264B03F027FB03F0F1F90646FD
:105A00002878884604EB8017B7F93C0003F0A3FC24
:105A10003246434603F0CAFC03F06EFCB882B7F985
:105A20003E0003F098FC184A184B03F0BFFC00221C
:105A3000174B03F009FB03F069F9064628780F4677
:105A400004EB8014B4F93C0001E00BE008E003F043
:105A500082FC32463B4603F0A9FC03F04DFC208358
:105A6000BDE8F09FB0F91820B0F91410DAF8000082
:105A7000036ADBF82C00BDE8F05F184704E0012062
:105A8000F8E70120F4FF01201F85EB51B81E094003
:105A9000008066402DE9F84F3B4C3C4D00212068CA
:105AA0000268E86A9047C0B2009020680022114660
:105AB0008368E86A98473648A0F18006017821B1EA
:105AC000C07858B1012850D10FE03148B2889038E1
:105AD000016820684368E86A984746E02068B6F99C
