:020000040803EF
:10000000C86E0020850203085D521A00C102030871
:100010009102030893020308950203080000000000
:10002000000000000000000000000000970203082C
:1000300099020308000000009B0203089D020308C8
:100040009F0203089F0203089F0203089F02030800
:100050009F0203089F0203089F0203089F020308F0
:100060009F0203089F0203089F0203089F020308E0
:100070009F0203089F0203089F0203089F020308D0
:100080009F0203089F0203089F0203089F020308C0
:100090009F0203089F0203089F0203089F020308B0
:1000A0009F0203089F0203089F0203089F020308A0
:1000B0009F0203089F0203089F0203089F02030890
:1000C0009F0203089F0203089F0203089F02030880
:1000D0009F0203089F0203089F0203089F02030870
:1000E0009F0203089F0203089F0203089F02030860
:1000F0009F0203089F0203089F0203089F02030850
:100100000000000000000000000000009F02030843
:100110009F0203089F0203089F0203089F0203082F
:100120009F0203089F0203089F0203089F0203081F
:100130009F0203089F020308000000000000000067
:100140009F0203089F0203089F02030800000000AB
:10015000000000000000000000000000000000009F
:1001600000000000000000009F0203089F02030837
:100170009F020308000000000000000000000000D3
:10018000000000009F02030800F002F800F06AF887
:100190000AA090E8000C82448344AAF10107DA45E2
:1001A00001D100F05FF8AFF2090EBAE80F0013F0CA
:1001B000010F18BFFB1A43F0010318473CC10000B0
:1001C0005CC10000103A24BF78C878C1FAD8520741
:1001D00024BF30C830C144BF04680C6070470000C1
:1001E0000023002400250026103A28BF78C1FBD840
:1001F000520728BF30C148BF0B607047692900F023
:100200000381642900F00081752900F0FD806F29C9
:1002100000F09481782900F0BD810368DB0928BFD4
:1002200041F08001632900F0F283E32900F00584A6
:10023000002070471FB508F00DF99DE8030000F09D
:100240005DFC00F0E9FC04000020002107F092FCB6
:10025000401C606000F0DCFA1FBD10B5002006F005
:10026000A7FD10BD00F0B2FC1146FFF7E3FF07F059
:100270007CFC00F0EFFC03B4FFF7EFFF03BC00F0E1
:100280009FFC00000948804709480047FEE7FEE759
:10029000FEE7FEE7FEE7FEE7FEE7FEE7FEE7FEE736
:1002A00004480549054A044B704700002526030809
:1002B00089010308F8660020C86E0020C86E00207F
:1002C00000B5FFB441464A4653465C4665463EB4D7
:1002D0000D496A460A600D4908600D4988473EBCD1
:1002E000884691469A46A346AC46FFBC00BD0648E8
:1002F00001688D463EBC884691469A46A346AC4668
:10030000FFBC044800BD0000F07F0020F47F002007
:100310009101030808BC03080FB41CB5074B06AADB
:100320007B4469460090059800F04FFB0020694629
:1003300000F05EFB1CBC5DF814FB0000CD06000065
:1003400070B5044685690068C10601D5302600E015
:100350002026C00708D070BDD4E90121304690475F
:10036000206A00F1010020626D1EF5D570BD70B5E8
:10037000044685690078C00708D170BDD4E9012121
:1003800020209047206A00F1010020626D1EF5D503
:1003900070BD09684A0501D540B27047C905FCD552
:1003A00000B2704709684A0501D5C0B27047C90557
:1003B000FCD580B2704770B50C460546012A05D0C1
:1003C0002878800600D5EA69002302E0012305E0D1
:1003D0005B1C934202D2E05C0028F9D1A869E618C0
:1003E000C01AA861286A184428622846FFF7A8FFA7
:1003F00004E0D5E9012114F8010B9047B442F8D389
:100400002846FFF7B4FF70BD2DE9F04106460024F1
:1004100010687529314616A511D0FFF7BAFF0028DC
:1004200003DAC0F1000013A507E031688A0701D59F
:1004300011A502E0490704D510A5012401E0FFF74A
:10044000B1FF00210A2306F1240707E0B0FBF3F215
:1004500003FB1200303078541046491C0028F5D1B7
:1004600023462A463046BDE8F04100F04CBA000071
:10047000000000002D0000002B0000002000000004
:100480002DE9FF5F15468A460446DFF8AC80F84444
:100490000027D8E900103E46CDE9001011E03AF8F7
:1004A00016106A4602A800F0D4FA411C07D0217841
:1004B000890603D5E269391891420ED8074406F13E
:1004C00001062078800602D5E069B84205DDAE421B
:1004D000E5DB3AF816000028E1D1A069C01BA06155
:1004E0002046FFF72DFFD8E90010CDE900100020CD
:1004F00016E03AF818106A4602A800F0AAFA8146F7
:10050000401C0BD000250DF1080B05E0D4E90121BA
:100510001BF8050090476D1C4D45F7D308F101000D
:10052000B0428046E5DB206A384420622046FFF76F
:100530001EFFBDE8FF9F000086B7000070B50446AF
:1005400021461068FFF72EFF002104F1240508E082
:1005500000F0070202F130026A5401F101014FEA92
:10056000D0000028F4D10346206808A2050708D56A
:1005700000F02000084304D0E069012304A2401EDB
:10058000E0612046BDE8704000F0BDB90000000009
:100590003000000070B504460D4621461068FFF794
:1005A00001FF2188090502D5104A7A4402E00F4A6A
:1005B0007A440E32002104F1240307E000F00F0614
:1005C0004FEA1010965D5E5401F101010028F5D14B
:1005D00003462078000704D5702D02D009B11132EE
:1005E00002232046BDE8704000F08DB972B60000CD
:1005F0002DE9F05F894604464FF0000ADFF878B134
:10060000FB44C0F820A02046E1688847002875D048
:10061000252806D0D4E901219047206A401C206299
:10062000F1E700265F462046E16888472028054616
:1006300008DB312D06D207EB050010F8200C08B1BD
:100640000643F0E7B00701D526F00406C4F81CA065
:100650000027C4F818A02A2D09D0284607F062FA0E
:1006600038B304EB8708303DC8F8185019E059F842
:10067000041B204604EB87029161E1688847012F43
:10068000054618D1E069002820DA26F020061DE092
:10069000D8F8180000EB800005EB40003038C8F8AF
:1006A00018002046E1688847054607F03BFA002815
:1006B000EED1012F0AD02E2D08D12046E1688847BF
:1006C0007F1C0546022F46F02006C4DBA0690028E7
:1006D00003DA404246F00106A061F00701D026F09F
:1006E00010066C2D0BD0682D09D04C2D39D06A2DF9
:1006F00035D0742D35D07A2D33D016E038E0E1684E
:100700002F4620468847B842054609D16C2F26D08F
:100710004FF48060E168064320468847054604E0C0
:100720006C2F1AD04FF4807006430DB3A5F1410031
:10073000192802D8203546F400664A462946204644
:1007400026604E46FFF75AFD80B101280BD0F61DFA
:1007500026F0070000F1080955E74020E4E7802073
:10076000D8E70020D6E706F104094CE7284651E710
:10077000206ABDE8F09F000044B6000010B5431C9D
:1007800002E010F8011B71B18107FAD14FF001327C
:1007900002C88C1A8C4314EAC211F9D0C01A0A0696
:1007A00003D0C01E10BDC01A10BD0A0401D0801EA7
:1007B00010BD0902FCD0401E10BD4FF0000200B574
:1007C000134694469646203922BFA0E80C50A0E874
:1007D0000C50B1F12001BFF4F7AF090728BFA0E822
:1007E0000C5048BF0CC05DF804EB890028BF40F8EE
:1007F000042B08BF704748BF20F8022B11F0804F30
:1008000018BF00F8012B7047704770477047000011
:1008100070B5064C7C44064D7D4403E020682044BE
:100820008047241DAC42F9D170BD000010BC00000F
:1008300010BC000000487047CC660020004870479C
:10084000D066002070B5064600F038F9056806F15C
:100850000B0020F00704B4429CBF002070BD2B4663
:100860006A68BAB11068A04210D304F10801884246
:100870003CBF5068586007D3516810194160116837
:10088000091B016058601460101D70BD134652684A
:10089000002AE7D12146284600F01CF90028DED1C5
:1008A00070BD70B50446051F00F008F90068002C03
:1008B00014BF446870BD002C18BFAC423CBF20463A
:1008C0006468F8D301680A18AA4218BF456003D1CA
:1008D0002A6805461144016028684119A1421CBFDD
:1008E0006C6070BD6168696021680844286070BDF3
:1008F00010B500F0E7F8006810BD10B5044600F030
:10090000E1F8046010BD2DE9F0470D469946924686
:10091000044600F124080168880604D5E06921F046
:100920001001216000E00120A84202DDA0EB0507D4
:1009300000E00027A16907EB050202EB0900A1EB2B
:100940000000A0612078C00602D42046FFF7F8FC22
:10095000002608E0D4E901211AF806009047206A31
:10096000401C761C20624E45F4DB2078C0060AD578
:100970002046FFF7E5FC06E0D4E90121302090474E
:10098000206A401C2062381EA7F10107F4DC07E052
:10099000D4E9012118F805009047206A401C206224
:1009A000281EA5F10105F3DC2046FFF7E0FC2078C6
:1009B000000602D50220BDE8F0870120FBE7000019
:1009C00001694A1C02610878704700B58FB0CDE913
:1009D00001310021059105497944CDE90310114603
:1009E0006846FFF705FE0FB000BD0000E5FFFFFF02
:1009F0000A6802F8010B0A60704710B5436913B129
:100A0000AFF3008001E0FFF7D6FC012010BD1278A3
:100A100000F124010A7000224A700122EDE71168FA
:100A20004FF0FF32E9E710B5436913B1AFF300802F
:100A300001E0FFF725FD012010BD128800F124011F
:100A400082840022C2840122EDE711684FF0FF3258
:100A5000E9E770B516460C46054600F027F803682E
:100A600093F80101012806D0FF2C0FD8185D68B15A
:100A700001202C7070BDD3F8070132462146034493
:100A80002846BDE8704003F2071318474FF0FF30C7
:100A900070BD10B500F06EF8BDE8104000F064B80D
:100AA00000F080B8004870479866002010B500F04C
:100AB000B3F8001D10BD00BFBD70000000487047B6
:100AC000A066002000487047986600207047704775
:100AD0007047704738B504460A4600206946AFF3B0
:100AE0000080002808BF38BD02460099204600F06B
:100AF00097F8012038BD012000F0D3B8F8B5AFF366
:100B00000080054600200C46102000BF0646A819AC
:100B1000A0420DD9324669460020AFF3008007009D
:100B200008BF00F0BEF80098A04218BF0546C419DF
:100B3000FFF7C4FF05600746F01D20F007004619C7
:100B4000284600F00AF8B44208BFF8BDA21B31469F
:100B50003868BDE8F84000F063B800210160C0E9E2
:100B60000110704710207047002801D000F028B80D
:100B70007047000010B5002102A000F079F80120B4
:100B800010BD00005349475056464E3A20507572EA
:100B900065207669727475616C20666E2063616C85
:100BA0006C65640010B500F086F8016919B1002287
:100BB0000261884701E08068804700F051F800003A
:100BC00001491820ABBEFEE7260002007546FFF77C
:100BD00069FFAE4605006946534620F0070085468A
:100BE00018B020B5FFF75CFBBDE820404FF00006D1
:100BF0004FF000074FF000084FF0000B21F0070105
:100C0000AC46ACE8C009ACE8C009ACE8C009ACE847
:100C1000C0098D467047000000487047B866002044
:100C2000034640688C46002818BF88423CBF0346F4
:100C30004068F8D318681844884207D00CF10300C4
:100C400020F00700001D411A521A0146081D0A60D3
:100C5000FFF727BE0446AFF300802046FFF70BFBEB
:100C6000002000F059F8FFF7F8FA0120FFF7A8FF7D
:100C700070B505460C460A2000E06D1C00F040F8F7
:100C800035B128780028F8D102E0641C00F038F86B
:100C900014B120780028F8D1BDE870400A2000F097
:100CA0002FB810B500F040F8BDE81040FFF75CBF6A
:100CB00010B5FFF7D5FF70B500F02AF804680546B7
:100CC000A4B92020FFF7BEFD040011D0094900207F
:100CD0002C60C4E900010849A160207320616061B3
:100CE0000649A06109B100F087F8E061204670BDB7
:100CF000FFF7B6FF00000000B10C03080000000081
:100D000008B569468DF800000320ABBE08BD7047EA
:100D100000487047D466002010B500F08BF8BDE89D
:100D20001040FFF721BF000010B5012805D00021B9
:100D300003A0FFF79DFF012010BD09A1F8E7000007
:100D400053494752544D454D3A204F7574206F66B4
:100D50002068656170206D656D6F7279000000001C
:100D60003A2048656170206D656D6F727920636F00
:100D700072727570746564004FF0013C50F8042B7A
:100D800051F8043B9A4221D1A2EB0C03934313EA9E
:100D9000CC1317D150F8042B51F8043B9A4215D1CB
:100DA000A2EB0C03934313EACC130BD150F8042BA2
:100DB00051F8043B9A4209D1A2EB0C03934313EA86
:100DC000CC13DBD04FF00000704700BFD01A01BA3F
:100DD000B1FA81F101F0180122FA01F0CB40C1F122
:100DE0002001DBB2C0B2C01A2CFA01F3D11A914330
:100DF00011EAC311E6D1704710B58820FFF722FD34
:100E0000002801D00021017010BD802902D808B14E
:100E1000017809B100207047012100F8081B7047D4
:100E200018B100F10802914201D000207047002162
:100E30000170704710B5002102A0FFF719FF0120D3
:100E400010BD0000534947414252543A2041626E5E
:100E50006F726D616C207465726D696E6174696F1B
:100E60006E000000F0B50468354B04F01F02857970
:100E7000012101FA02F224F01F041C44002D59D074
:100E800025689543256002681C1D22F01F052C442F
:100E9000256802F01F0201FA02F2954325600468FA
:100EA000027924F01F051D442A44156804F01F042C
:100EB00001FA04F4254315600568214C25F01F0252
:100EC00008342244166805F01F0501FA05F5AE4303
:100ED00016600668221D26F01F0515442F6806F0CF
:100EE0001F0C01FA0CF6B7432F604579102D0BD07B
:100EF000026822F01F0018442844036802F01F0211
:100F000091400B430360F0BD056825F01F032344A7
:100F10001C6805F01F0501FA05F52C431C600068EC
:100F200020F01F031A44136800F01F0081400B4398
:100F30001360F0BD00792044016891430160F0BD69
:100F400000040140F0B50022012503240E6805FAD3
:100F500002F31E409E422DD10E79012E01D0022EA9
:100F600013D18768560004FA06FC27EA0C0787604D
:100F70004F79B74086683743876086889E4386806E
:100F800086888B7993401E4386800768560004FA52
:100F900006F39F4307600F79D0F800C0B74047EAD7
:100FA0000C070760C7689F43C760CB79B340C6682A
:100FB0003343C360521C102AC8D3F0BD4B07DB0E6D
:100FC0009A40C90810B500EB8100016A0F249C40CB
:100FD000A1430162016A1143016210BD0246002073
:100FE000128A0A4200D0012070470AB1816170471D
:100FF000018570472DE9F05F5B4CDFF870A18346F7
:10100000C4E91601DAF80000164657460169584649
:10101000884705463146564804F0C0FF304603F085
:10102000B1FF8119524805F000F85249504805F0C7
:1010300069F850494E48A83105F064F84E494C48CB
:1010400005F060F84C494A48A83105F05BF84B4977
:10105000474805F057F849494548A83105F052F886
:10106000A4F1800000260670386803210268A06D94
:101070009047C0B2424F4FF00109012824D087F8B1
:10108000009000213C4804F013FC7E7087F8029029
:10109000E06DB04638B3DAF800105646A1460A684B
:1010A0001C219047C4B230681D210268D9F85C0049
:1010B0009047C6B2D9F8580003F022F9314A0146E8
:1010C000002052F821100BE03E700121DAE7A24225
:1010D00000D178700A5CB24200D1B870401CC0B236
:1010E0000A5CFF2AF3D187F8038087F8048087F829
:1010F000058087F8068087F8078087F8088087F8DA
:10110000098087F80A8087F80B80584600F060F85D
:1011100017491D48C1F80C010021154804F060FF73
:101120000920B0EB157F1AD0C5F30360092816D04B
:101130000021124804F0BCFB0A20B0EB157F10D050
:10114000C5F303600A280CD000210C48A83004F035
:10115000AFFBBDE8F05F0021012001F0B1B9012132
:10116000E7E70121F1E7000084600020F47F002020
:101170004C6100205C620020AC630020FC64002015
:101180008C660020BC9D03089544030810B50E4CE6
:10119000204604F069FF04F5827005F037FD012058
:1011A00001F07CF9094C6188084305D0002902D080
:1011B0006088401E608010BD0021084603F0C2F91F
:1011C00004206080F4E700004C61002004600020EF
:1011D000002103F083B900002DE9F14FC44D05272C
:1011E000C44EDFF81493DFF81483002405F1850A58
:1011F0003068295D02681AF801100098904798F845
:10120000003009EB83122B5D641CE4B222F813005A
:10121000BC42EDD3B64D01270024DFF8E0A2ED1E5D
:1012200005F1010B0AF1E00A3068295D02681BF83C
:1012300001100098904798F800200AEBC2012A5D3F
:10124000641CE4B241F82200BC42EDD3454698F854
:101250000000DFF8A48200EB400108F140084FF0E5
:10126000000A18F821000124E8BB30680821026850
:101270000098904729784F4609EB811188823068A1
:101280000C210268009890472A7800B207EB82117F
:1012900002EB420308EB83020883D278012A35D19E
:1012A000B1F914200AB9002863D0524300FB002092
:1012B00000EE100AB8EEC00A05F019FDBDEEC00A36
:1012C000287810EE101A07EB80108187B0F91810FB
:1012D000B0F9140000EE101AF8EEC00A00EE100A81
:1012E000B8EEC00A00E019E005F003FDDFED840A66
:1012F00020EE200ADFED830A297880EE201A07EB22
:101300008111BDEEC10A10EE100AC887686E08B1DF
:1013100080F82040286F08B180F820403068012113
:1013200002680098904786B2070C56EA070008D07A
:101330007548B0F80001012803D00121724804F07B
:101340004FFE686B58B306B1BFB1704804F036FB6E
:10135000696B884202D16D4804F095FB686B4CF2D2
:101360001861428B8A421AD04183002104F06FFA3F
:1013700012E0A1F83CA05A20C7E7002141830121D7
:1013800004F065FA614804F019FB696B884203D0E8
:1013900000215E4804F01EFB686B80F8204028782E
:1013A000514600EB400208EB8200730680F805A06E
:1013B0004FF0020200D542717B0600D54471817165
:1013C000F30600D58271FB0600D58471C171B306A6
:1013D00000D5C271BB0600D5C4710172F30700D0FD
:1013E0000272FB0700D00472330600D502723B067E
:1013F00000D504724172730700D542727B0700D595
:1014000044728172B30700D58272BB0700D5847223
:10141000C172310700D5C272390700D5C472696B39
:10142000F1B33349AA694379491D568B31F813301A
:101430009E4202D0538382F82040EA698379568B1A
:1014400031F813309E4202D0538382F820402A6A3A
:10145000C379568B31F813309E4202D0538382F801
:1014600020406A6A037A568B31F813309E4202D0CC
:10147000538382F82040AA6A437A568B31F813309E
:101480009E4202D0538382F82040EA6A837A568BC8
:1014900031F813309E4202D0538382F8204000E09E
:1014A00009E02A6BC07A538B31F81000834202D0D6
:1014B000508382F82040286908B180F8204068698C
:1014C00008B180F820400D488030C06C08B180F829
:1014D0002040686D08B180F82040A86E08B180F8FF
:1014E0002040686F002801D080F82040BDE8F88FC8
:1014F000639D0308F47F00204C66002004600020F8
:1015000000003443C3F548404C61002004630020D0
:1015100070B5064611480024406847281CD040F2A8
:101520003F11002000F0B4FA00F01EFE4FF4963593
:10153000304600F0EFFD641CAC42F9D3084C80212A
:10154000204600F023FF0028F9D1BDE870400122B9
:101550001146044800F026B80021E2E7EC600020C4
:1015600000380040001000481CB50121480500F07B
:101570009DFE032101208DF8051000908DF80400D8
:1015800000208DF80600064C8DF8070069462046BD
:10159000FFF7D8FC01221146204600F003F81CBDDD
:1015A00000100048FFF721BD203AD3B2084A30B4FA
:1015B0005468472C03D1A1F23F11494289B2926885
:1015C0001468D2885A4304EB420230BC00F002B8DF
:1015D000EC6000202DE9F74F904600270646019960
:1015E00000F056FA1C4C31E000F0BEFD00254FF033
:1015F0000C094FF0800A4FF0010B17E0B0FBF9F136
:10160000CA000AFA02F138F817202941114201D123
:101610000C2805D90BFA05F10A4203D10C2801D98F
:10162000608800E0208800F075FD6D1CA06880884F
:10163000A842E3D8012211460848FFF7B3FF761C01
:10164000F6B23046019900F023FA7F1CA068C088EA
:10165000B842C9D8BDE8FE8FEC60002000100048F9
:101660002DE9F74F82B0002604469246ADF800609F
:10167000ADF8046001A9684600F092F8A046204643
:10168000039900F005FA49F2203945F2084B1D4D47
:101690002EE06968494502D06968594501D100F0DA
:1016A00063FD00240127B7400AE000BF3AF81400A8
:1016B000384224D0BDF8000000F02CFD641CE4B2D8
:1016C000A8688088A042F1D86968494502D0696855
:1016D000594504D1012211460B48FFF763FF08F179
:1016E0000100C0B28046039900F0D2F9761CF6B230
:1016F000A868C088B042CCD805B0BDE8F08FBDF86E
:101700000400D9E7EC600020001000482DE9F04704
:10171000204D8A4699466968164680460024AAF2FA
:101720003F104742472907D05146404600F0B0F9E4
:10173000B9F1000F02D027E0B9B2F6E700F014FDCE
:1017400003E0288800F0E6FC641CB442F9D3124C94
:101750008021204600F01AFE0028F9D1BDE8F047AC
:10176000012211460D48FFF71DBF288800F0ECFC50
:1017700008F1010000F0FF086868472808D05146CA
:10178000404600F085F9641CB442EED3BDE8F08712
:10179000B9B2F5E7EC6000200038004000100048C6
:1017A000024A13880380508808807047EC6000204C
:1017B0000148806870470000EC60002001207047FD
:1017C0002DE9FF4F81B0A1F23F11DDF838801F46AF
:1017D00002EB080084B2484280B200900026E0B2DA
:1017E000009900F055F949F2203A45F2084BDFF82C
:1017F00088902DE04168514503D0D9F8041059452F
:1018000006D141F20801032000F0B8FC00F0ACFC66
:10181000002507E006FB0751019830F8110000F0A1
:1018200079FC6D1CBD42F5D3D9F8042048465245D9
:1018300002D04168594504D1012211460F48FFF7F3
:10184000B1FE641EA4B2E0B2009900F021F9761C4A
:1018500046454846CED34268524502D04168594574
:1018600007D105B041F21801BDE8F04F032000F0A8
:1018700085BC05B0BDE8F08FEC600020001000488A
:1018800070B53D4C0025218821F038012180218848
:1018900041F0080121803949496847294AD000F0C0
:1018A00095FC732000F0B8FCFF21204600F0BEFD3F
:1018B0008021204600F06AFD0028F9D10121204650
:1018C00000F064FD0028F9D0204600F0A5FD6D1C55
:1018D000EDB2052DE8D3FF21204600F0A7FD8021C1
:1018E000204600F053FD0028F9D10121204600F0E8
:1018F0004DFD0028F9D0FF21204600F097FD802102
:10190000204600F043FD0028F9D10121204600F0D7
:101910003DFD0028F9D0204600F03FFD054601229C
:1019200011461748FFF73EFE208820F0380020803F
:10193000284670BD00F04AFC732000F06DFC05E005
:101940000221204600F022FD0028F9D08021204607
:1019500000F01CFD0028F3D1FF21204600F066FDB9
:101960000121204600F012FD0028F9D02046BDE8F4
:10197000704000F051BD000000380040EC600020D5
:10198000001000482DE9F04188B001214FF4880093
:1019900000F08CFC012144F2010000F0ABFC0121BD
:1019A0008F03384600F08EFC03208DF819000226C4
:1019B0008DF818600024DFF8A4807D118DF81A409E
:1019C00005958DF81B4005A94046FFF7BBFA059722
:1019D000234F05A93846FFF7B5FAA801059005A9D8
:1019E0003846FFF7AFFA052209214046FFF7E6FA2D
:1019F00005220E213846FFF7E1FA05220F2138466D
:101A0000FFF7DCFA174F384600F096FCADF80040BF
:101A10004FF48270ADF802004FF4E060ADF80400BE
:101A20000120ADF808000820ADF80C000720ADF843
:101A30001000ADF80660ADF80A50ADF80E406946EA
:101A4000384600F0ACFCE900384600F0E7FC012124
:101A5000384600F067FC08B0BDE8F081001400488B
:101A6000000400480038004001B5BDF800000149FD
:101A7000488008BDEC60002003B5BDF800100348A5
:101A80000180BDF8041041800CBD0000EC60002016
:101A900070B505460E480C464068472809D02946CF
:101AA000202000F06BFB21462120BDE8704000F0B3
:101AB00065BB0021062000F061FB2946072000F0ED
:101AC0005DFB210A022000F059FBE1B20320ECE7A4
:101AD000EC6000200149886070470000EC60002045
:101AE00001B5BDF800000149088008BDEC60002088
:101AF0002DE9F05FFFF738FDFFF744FFFE4C60680B
:101B00004FF48076A0F513414FF4E06741F23008BE
:101B100040F2022940F2023A40F23F154FF4887B2E
:101B200020397CD1052006F004F8F101E52000F011
:101B300025FB0121002000F021FB3146012000F0AF
:101B40001DFB3946022000F019FB4146032000F03E
:101B500015FB0021042000F011FB4946082000F08D
:101B60000DFB0021092000F009FB00210A2000F0F4
:101B700005FB00210C2000F001FB00210D2000F0EE
:101B8000FDFA00210F2000F0F9FA0021102000F0EA
:101B9000F5FA0021112000F0F1FA0021122000F0E6
:101BA000EDFA0021132000F0E9FA142005F0C1FF3E
:101BB00041F2B071102000F0E1FA40F2371111202B
:101BC00000F0DCFA052005F0B4FFA91F122000F098
:101BD000D5FA052005F0ADFF4FF4E851132000F0D1
:101BE000CDFA1321292000F0C9FA052005F0A1FF44
:101BF0000021202000F0C2FA0021212000F0BEFACE
:101C00000621302000F0BAFA711C312000F0B6FA3B
:101C10000321322000F0B2FAB11D352000E071E05E
:101C200000F0ACFA40F60231362000F0A7FA514637
:101C3000372000F0A3FAF91D382000F09FFA0721A1
:101C4000392000F09BFA4FF4C0613C2000F096FA76
:101C500040F20B213D2000F091FA0021502000F0CD
:101C60008DFAEF21512000F089FA0021522000F076
:101C700085FA2946532000F081FA4FF41C51602068
:101C800000F07CFA0121612000F078FA00216A203E
:101C900000F074FA0021802000F070FA0021812009
:101CA00000F06CFA0021822000F068FA0021832005
:101CB00000F064FA0021842000F060FA0021852001
:101CC00000F05CFA1021902000F058FA00219220D8
:101CD00000F054FA0321932000F050FA5946952061
:101CE00000F04CFA0021972000F048FA00219820DB
:101CF00000F044FA41F21801032000F03FFA40F2EC
:101D0000731100E16068A0F5A84108397ED143F263
:101D10000801E32000F032FA1221E72000F02EFA49
:101D200041F23121EF2000F029FA3146012000F084
:101D300025FA3946022000F021FA4146032000F03E
:101D40001DFA0021042000F019FA4946082000F08D
:101D500015FA0021092000F011FA00210A2000F0F4
:101D60000DFA00210C2000F009FA00210D2000F0EE
:101D700005FA00210F2000F001FA0021102000F0E8
:101D8000FDF90021112000F0F9F90021122000F0E6
:101D9000F5F90021132000F0F1F9142005F0C9FE37
:101DA0000721112000F0EAF9052005F0C2FE41F2FA
:101DB000B021102000F0E2F9052005F0BAFE40F253
:101DC000BD11122000F0DAF9052005F0B2FE4FF443
:101DD000A051132000F0D2F90E21292000F0CEF9F5
:101DE000052005F0A6FE0021202000F0C7F92946B5
:101DF000212000F0C3F90721302000F0BFF951463F
:101E0000312000F0BBF940F2051600E07DE03146DC
:101E1000322000F0B3F940F206273946352000F0B1
:101E2000ADF940F608084146362000F0A7F93946DA
:101E3000372000F0A3F940F20451382000F09EF959
:101E40000721392000F09AF931463C2000F096F93C
:101E500041463D2000F092F90021502000F08EF91B
:101E6000EF21512000F08AF90021522000F086F97C
:101E70002946532000F082F94FF42741602000F0FA
:101E80007DF90121612000F079F900216A2000F03C
:101E900075F90021802000F071F90021812000F007
:101EA0006DF90021822000F069F90021832000F003
:101EB00065F90021842000F061F90021852000F0FF
:101EC0005DF91021902000F059F90021922000F0D6
:101ED00055F90321932000F051F95946952000F05F
:101EE0004DF90021972000F049F90021982000F0D9
:101EF00045F941F2180101E0EC600020032000F0F8
:101F00003DF94FF489710720FCE0606847287DD1D6
:101F10000021EA2000F032F92021EB2000F02EF918
:101F20000C21EC2000F02AF9C421ED2000F026F964
:101F30004021E82000F022F93821E92000F01EF9C4
:101F40000121F12000F01AF91021F22000F016F919
:101F5000A321272000F012F90121402000F00EF902
:101F60000021412000F00AF90021422000F006F98A
:101F70001021432000F002F90E21442000F0FEF869
:101F80002421452000F0FAF80421462000F0F6F85C
:101F90005021472000F0F2F80221482000F0EEF82E
:101FA0001321492000F0EAF819214A2000F0E6F850
:101FB00019214B2000F0E2F816214C2000F0DEF849
:101FC0001B21502000F0DAF83121512000F0D6F822
:101FD0002F21522000F0D2F83F21532000F0CEF8FC
:101FE0003F21542000F0CAF83E21552000F0C6F8E9
:101FF0002F21562000F0C2F87B21572000F0BEF8B8
:102000000921582000F0BAF8062100E07CE05920B0
:1020100000F0B4F806215A2000F0B0F80C215B2043
:1020200000F0ACF81D215C2000F0A8F8CC215D2068
:1020300000F0A4F81B21084600F0A0F801211A20A6
:1020400000F09CF82F21242000F098F8572125203B
:1020500000F094F88621232000F090F83621182013
:1020600000F08CF80121192000F088F806211C20CE
:1020700000F084F806211D2000F080F890211F2038
:1020800000F07CF80121272000F078F80A2005F004
:1020900050FD0521172000F071F80921362000F0CD
:1020A0006DF83821282000F069F83C2005F041FD4A
:1020B0003C21282000F062F80021012000F05EF8A9
:1020C0000021022000F05AF80021032000F056F809
:1020D0000121042000F052F83F21052000F04EF8C5
:1020E0000021062000F04AF80021072000F046F801
:1020F0000021082000F042F8EF21092000F03EF80E
:10210000E021162000F03AF80148A060BDE8F09FF9
:10211000F860002070B50B4D0446010A284600F017
:1021200085F98021284600F031F90028F9D1E1B283
:10213000284600F07BF98021284600F027F9002886
:10214000F9D170BD0038004010B5044600F00CF81D
:102150002046FFF7DFFF0122BDE81040114601488D
:10216000FFF720BA0010004810B5222000F02EF82A
:10217000BDE81040722000F04FB8000070B50C466A
:1021800000F024F8722000F047F80E4D210A28468E
:1021900000F04CF98021284600F0F8F80028F9D129
:1021A000E1B2284600F042F98021284600F0EEF81E
:1021B0000028F9D1BDE87040012211460248FFF71E
:1021C000F1B90000003800400010004870B5054625
:1021D000702000F021F80E4C0021204600F026F976
:1021E0008021204600F0D2F80028F9D12946204667
:1021F00000F01CF98021204600F0C8F80028F9D131
:10220000BDE87040012211460248FFF7CBB900003B
:10221000003800400010004810B50446002201219B
:102220000748FFF7BFF92146064C204600F0FEF8AC
:102230008021204600F0AAF80028F9D110BD000046
:102240000010004800380040F0B50F21C478027833
:1022500001234FF0E026DCB1124C2468457804F4E9
:10226000E064C4F5E064240AC4F10407E140847822
:10227000BD400C402C4321010B4C1155007800F05F
:102280001F018B40400906EB8000C0F80031F0BD13
:1022900002F01F008340500906EB8000C0F8803137
:1022A000F0BD00000CED00E000E400E0044A00296D
:1022B000516901D0014300E0814351617047000042
:1022C00000100240044A0029D16901D0014300E016
:1022D0008143D1617047000000100240044A002988
:1022E000116901D0014300E0814311617047000092
:1022F00000100240044A0029916901D0014300E026
:10230000814391617047000000100240044A002997
:10231000D16801D0014300E08143D16070470000E3
:10232000001002400029018802D041F0400101E084
:1023300021F0400101807047114910B588420AD14F
:10234000841401212046FFF7E1FF2046BDE810403C
:102350000021FFF7DBBF0B49884202D101210414A1
:1023600004E0094988420AD10121C4132046FFF73D
:10237000B5FF2046BDE810400021FFF7AFBF10BDFC
:102380000030014000380040003C00400246002080
:1023900012890A4200D0012070478089704730B509
:1023A0004A88B2F5827F1ED0828822F470638A88C0
:1023B0001A43828002880C8902F44153CA888D89AD
:1023C00022434C892C43CD892C4322430C884D88D1
:1023D0002C4322431A430280828B22F400628283C0
:1023E000098A018230BD02880C8902F44153CA88EF
:1023F0008D8922434C892C43CD892C4322430C8860
:1024000044F4827422431A430280828822F4706367
:102410008A881A438280DFE7007B7047828822F433
:102420008052828082880A4382807047017370479D
:1024300038B500200090FFF75BFB0020FFF720FA83
:102440000146009045F20840074C814204D049F211
:102450002030814200D047206060FFF749FB0248EE
:102460000C30A06038BD0000EC60002010B50021E9
:10247000062000F025F80021042000F021F80021BA
:10248000052000F01DF80021022000F019F80021BD
:10249000BDE81040032000F013B8000048B1401E12
:1024A0000549C0B2054A31F8101052F82000FEF775
:1024B00095BDFF2070470000C0B203081C610020DA
:1024C00070B586B00D46002848D0401EC4B22448DE
:1024D000012150F82400FFF7E9FE01210846FFF72B
:1024E00009FF00268DF8106002208DF813001C48AB
:1024F00003A90C3830F8140003901A4850F824004F
:10250000FEF720FD012D29D115483238015D801FCD
:10251000005D00F029F812481830012C30F8140042
:1025200000908DF8046001D0082000E00C208DF8A8
:10253000050001258DF806506846FEF793FC084813
:102540002C38005D8DF808000F208DF809008DF8FB
:102550000A008DF80B5002A8FFF776FE06B070BD9A
:10256000CCB203081C61002010B58A0721F00304D7
:102570000649130F21440F228C689A4094438C60C3
:102580008A68984002438A6010BD00000000014044
:102590000CB50021214801910091026842F480327B
:1025A00002604FF4A063026802F400320092019AC4
:1025B000521C0192009A12B9019A9A42F3D1026810
:1025C000920329D50121164A009112211160416818
:1025D000416041684160416841F480614160416807
:1025E00021F47C114160416841F4E81141600168C7
:1025F00041F08071016001688901FCD5416821F0DA
:1026000003014160416841F0020141604168C1F34A
:1026100081010229FAD10CBD00910CBD00100240CD
:1026200000200240174810B5016841F470010160B4
:10263000154C206840F00100206060681349084094
:1026400060602068124908402060206820F48020E3
:102650002060606820F4FE006060E06A20F00F00F7
:10266000E062206B0B49084020630020A060FFF768
:102670008FFF0449E00380390860606940F0400042
:10268000606110BD88ED00E0001002400CC07FF8D2
:10269000FFFFF6FECCFC00FF2DE9FE4F282004F0E2
:1026A0002FFB0321009105233B4A3CA104F0ECFAE7
:1026B0008246282004F024FB1E2100910523364A7F
:1026C00039A104F0E1FA8146282004F019FB3C21ED
:1026D00000910523304A3EA104F0D6FA8046282016
:1026E00004F00EFB4B21009105232B4A41A104F07D
:1026F000CBFA0746282004F003FB5A21009105235A
:10270000254A45A104F0C0FA0646282004F0F8FA4C
:10271000B42100910523204A48A104F0B5FA0546EA
:10272000282004F0EDFA7321009105231A4A4B4941
:1027300004F0AAFA04465146174803F010F9494636
:10274000154803F00CF94146134803F008F93946DF
:10275000114803F004F931460F4803F000F9294607
:102760000D4803F0FCF821460B4803F0F8F8282048
:1027700004F0C6FA08499623F7228DE80E0038497E
:102780002C234822096802F025FC03B00146BDE86D
:10279000F04F014803F0E3B85C62002048656C70BC
:1027A00020506167650000005573652074686520DE
:1027B0006A6F79737469636B20746F20776F726BC3
:1027C0002077697468204C43442047554900000035
:1027D0002D55502F444F574E20746F206D6F7665E6
:1027E000206265747765656E20636F6E74726F6CBE
:1027F000730000002D4C4546542F52494754482041
:10280000746F206D6F7665206265747765656E20E4
:1028100070616765730000002D53454C20746F2074
:10282000696E746572616374207769746820746876
:102830006520636F6E74726F6C000000436F707977
:1028400072696768742053544D6963726F656C6573
:102850006374726F6E696373000000006E9D0308FD
:10286000006000202DE9F04F87B00021FE4803F002
:102870001FF8282004F044FA0021FB4A0B4600917F
:10288000A832FAA104F000FA0746282004F038FA2A
:10289000F54A4FF0140B0A23A832FAA1CDF800B084
:1028A00004F0F2F90546382004F02AFA2121EE4A14
:1028B00000910A23A832F64904F0FAF8F54C60605A
:1028C000282004F01DFADFF8A083352308F1A808BA
:1028D0000A21CDF80080CDE901133C239B22EEA113
:1028E00004F032F90646282004F00AFA112100917A
:1028F0000F233246EDA104F0C7F90490282004F01C
:10290000FFF9252100910F233246EBA104F0BCF919
:102910000590382004F0F4F96E22CDE900624FF002
:102920000F09CDF80890227808F5527A0AEB821147
:102930000323E4A202F06CFE2061382004F0E0F9E9
:1029400023216E220096CDE90121227803230AEB90
:102950008211891CDBA202F05BFE6061282004F07A
:10296000CFF9CD23CDE90083CDF808B0AA236422A6
:10297000D5A104F0E9F80390282004F0C1F905235B
:10298000CDF80090D2A1039A04F07EF9A06128202E
:1029900004F0B6F9212100910523D0A1039A04F097
:1029A00073F9E061282004F0ABF93321009105238D
:1029B000CDA1039A04F068F92062282004F0A0F960
:1029C000452100910523CBA1039A04F05DF96062D3
:1029D000282004F095F9572100910523C8A1039AF6
:1029E00004F052F9A062282004F08AF969210091CC
:1029F0000523C6A1039A04F047F9E062282004F0F9
:102A00007FF97B2100910523C3A1039A04F03CF9CF
:102A10002063302004F074F98D2100910A23C1A1B4
:102A2000039A02F0EDFBC249606341624CF2186107
:102A30004183002102F00BFF4046616B02F08FFFE3
:102A40003946404602F08BFF2946404602F087FF98
:102A50004046616802F083FF207808F5627700EB5A
:102A6000400017F82010606803F0E7FEB14804F159
:102A7000800500680169A86D8847C0067BD52820BD
:102A800004F03EF973230A21CDF80080CDE901134B
:102A90003C23BE22A8A104F057F88046282004F069
:102AA0002FF91121009105234246A7A104F0ECF86B
:102AB0008246282004F024F925210091052342466E
:102AC000A2A104F0E1F88146382004F019F9044687
:102AD000A86D01F015FCDFF8B8B121230BF10C0B48
:102AE00042465BF820100F200090204603F0E0FFE4
:102AF000684CA060382004F003F90190A86D01F043
:102B0000FFFB5BF820102320009021234246019810
:102B100003F0CEFFE0604146A7F5627002F01FFFB0
:102B20005146A7F5627002F01AFF4946A7F5627098
:102B300002F015FFA7F56270A16802F010FFA7F57B
:102B40006270E16802F00BFF207800EB400007EBB9
:102B500080004178A06803F070FE207800EB400010
:102B600007EB80008178E06803F067FEA168784891
:102B70004862E16848623C483146A83002F0EFFE06
:102B800039480499A83002F0EAFE37480599A83080
:102B900002F0E5FE3F4C3448A830216902F0DFFE28
:102BA00031486169A83002F0DAFE0021206902F0A4
:102BB0004EFE0021606902F04AFE5E48006801692D
:102BC000A86D88470221B1EB107F03D0C0F30360EA
:102BD000022813D1302004F093F8B221224A009148
:102BE0000A23A8325BA102F00BFB014628641E48B1
:102BF000A83002F0B4FE296C5B4848621A48039979
:102C0000A83002F0ACFE1848A169A83002F0A7FE77
:102C10001548E169A83002F0A2FE1348216AA830E5
:102C200002F09DFE1048616AA83002F098FE0E483E
:102C3000A16AA83002F093FE0B48E16AA83002F0C6
:102C40008EFE0948216BA83002F089FE2078A26927
:102C500000EB400007EB80010D484B79283830F835
:102C6000133053838B7981E05C620020436F6E6682
:102C7000696775726174696F6E20616E6420646546
:102C8000627567004374726C206D6F6465000000AC
:102C9000909D030804600020506F77657220626F7A
:102CA0006172642073746174757300004443204240
:102CB000757320766F6C74004865617473696E6B10
:102CC00020542E00253364004661756C7473000037
:102CD0004F76657263757272656E740052657675B3
:102CE00070206661696C00005370656564206664DD
:102CF000626B00005357206572726F720000000013
:102D0000556E64657220766F6C7400004F76657244
:102D100020766F6C740000004F7665722074656DCC
:102D2000700000004661756C742061636B000000E8
:102D30007D440308F47F00204441432053657474AC
:102D4000696E677300000000436831004368320019
:102D500099480308456E636F64657220616C69670A
:102D60006E6D656E7400000009490308E26930F871
:102D700013305383CB79226A30F8133053830B7AA4
:102D8000626A30F8133053834B7AA26A30F81330FA
:102D900053838B7AE26A30F813305383C97A226BFB
:102DA00030F81100508361680348486207B0034857
:102DB000BDE8F04F02F067BEC14C03080463002079
:102DC0002DE9F04F89B0282003F09AFF00210B462F
:102DD0000091FE4AFEA103F057FF0390282003F064
:102DE0008FFFFA494FF0140A0A238DE80A045A2388
:102DF0009122FCA103F0A8FE0746282003F080FFE3
:102E00001E2100913C233A46F9A103F03DFF0490B6
:102E1000282003F075FF412100913C233A46F5A19B
:102E200003F032FF0590282003F06AFF0F21009184
:102E300005233A46F0A103F027FF8346402003F024
:102E40005FFF1E2105220097CDE90121EE490623EF
:102E5000A1F1E004227801EBC201ECA203F07EF8BC
:102E6000DFF8AC830646A063D8F8000004F18005C3
:102E700040210268A86D90478146D8F800003F21A4
:102E80000268A86D9047C6E90E90282003F038FF2D
:102E90003221009105233A46DEA103F0F5FE0690AB
:102EA000382003F02DFF412105220097CDE90121B3
:102EB000DFF870932278062309EB8211091DD3A253
:102EC00002F0A6FB47F6FF720021E06302F072FBFE
:102ED000302003F015FF412100915A233A46D2A138
:102EE00002F08EF9D2492064416201F0A1F9282054
:102EF00003F006FFB54973230A228DE80E004B2329
:102F00006822CCA103F020FE0646282003F0F8FE3C
:102F10000A233246CAA1CDF800A003F0B5FE0790FF
:102F2000282003F0EDFE232100910A233246C5A19B
:102F300003F0AAFE0890382003F0E2FE51464FF05D
:102F4000280A0096CDE901A12278062309EB821117
:102F5000891DAEA202F05CFB6064382003F0D0FE55
:102F600023210096CDE901A12278062309EB8211E5
:102F70000831A6A202F04CFBA0649448039902F029
:102F8000EEFC9248049902F0EAFC9048059902F0A0
:102F9000E6FC39468D4802F0E2FC59468B4802F0C7
:102FA000DEFC8A48A16B02F0DAFC8848069902F040
:102FB000D6FC8648E16B02F0D2FC8448216C02F01A
:102FC000CEFC8248696C02F0CAFC8048A96C02F011
:102FD000C6FC7E48E96C02F0C2FC7C48696D02F0D8
:102FE000BEFC0021E86C02F032FC7848296D02F04A
:102FF000B6FC3146754802F0B2FC7448079902F0FD
:10300000AEFC7248089902F0AAFC7048616C02F0AC
:10301000A6FC6E48A16C02F0A2FCD8F80000016981
:10302000A86D884780072AD5282003F069FE32273B
:103030000A23324684A1009703F026FE0546382075
:1030400003F05EFECDE9006A02972278062309EBC1
:1030500082110A316DA202F0DBFAE06429465B4876
:1030600002F07DFC5948E16C02F079FC47F6FF72F2
:103070000021E06C02F09EFA616C7448486247F6E9
:10308000FF752A460021606C02F094FA2A4600215E
:10309000A06C02F08FFAD8F8000001695A48603835
:1030A000806D8847C0077DD0282003F029FE47495E
:1030B00073237D228DE80E004B23B42264A103F01C
:1030C00043FD0546282003F01BFE0E260A232A4650
:1030D00063A1009603F0D8FD8346282003F010FE7C
:1030E00050232A465EA1009603F0CEFD824638208A
:1030F00003F006FE0A22CDE9005219270297217833
:103100004E4609EB81110C31042357A202F080FADC
:103110002065382003F0F4FD5022CDE900520297DB
:103120002178042306EB81110E314FA202F070FAD0
:103130006065282003F0E4FD2C270A232A4640A1DD
:10314000009703F0A1FD8046282003F0D9FD50230D
:103150002A463CA1009703F097FD0746382003F06C
:10316000CFFD0A22CDE900524FF03709CDF8089083
:103170002178062306EB8111103124A202F048FACF
:10318000A065382003F0BCFD5022CDE90052CDF8F7
:1031900008902178062306EB811112311BA202F060
:1031A00037FA00E092E0E0652946084802F0D7FBD4
:1031B0005946064802F0D3FB5146044802F0CFFBC3
:1031C0000248216D02F0CBFB00484FE0AC630020C9
:1031D000537065656420636F6E74726F6C6C65729A
:1031E0000000000053657420706F696E7400000069
:1031F00072706D006D7300005461726765742073A6
:103200007065656400000000E460002025366400FD
:10321000F47F002052616D70206475726174696F73
:103220006E0000004C6600204578656300000000D9
:10323000594D0308504944204761696E73000000EE
:103240004B5000004B4900004B4400006D46030802
:10325000466C757820776C2E2074756E696E6700E9
:10326000425553800000000025346400616D02F077
:1032700076FB0021606D02F0EAFA4146194802F03F
:103280006EFB3946174802F06AFB1648A16D02F042
:1032900066FB1448E16D02F062FB4FF47A72002184
:1032A000206D02F087F947F6FF752A460021A06DD0
:1032B00002F080F92A460021E06D02F07BF9216DD1
:1032C00009484862A16D4862E16D4862616C064838
:1032D0004862A16C486209B00248BDE8F04F02F0B4
:1032E000D2BB0000AC6300206D4603082DE9F04F0F
:1032F0008BB0282003F004FD00210B460091FE4A0C
:10330000FEA103F0C1FC0390282003F0F9FC872103
:103310000091E623F84AFEA103F0B6FC04902820B1
:1033200003F0EEFC4FF00A09F34DCDE900594FF0E0
:1033300014085A239122F8A1CDF8088003F004FC68
:103340000646282003F0DCFC0F21009105233246BD
:10335000F4A103F099FCF54C2066382003F0D0FC72
:103360001E2105220096CDE90121227805F5FC7188
:1033700001EB821114310623EDA202F049F96066D7
:10338000282003F0BDFC0F21009150233246E9A113
:1033900003F07AFC0590382003F0B2FC1E21502780
:1033A0000096CDE90171227805F5FC7101EB8211DF
:1033B00016310623DEA202F02BF9A066282003F0C6
:1033C0009FFC4FF0320B05233246DBA1CDF800B055
:1033D00003F05AFCE066382003F092FC41210522FC
:1033E0000096CDE90121227805F5FC7101EB8211EF
:1033F00018310623CEA202F00BF92067282003F033
:103400007FFC3221009150233246CDA103F03CFCD9
:103410000690382003F074FC41210096CDE901713B
:10342000227805F5FC7101EB82111A310623C0A246
:1034300002F0EEF86067282003F062FC732200952A
:10344000CDE901924B236822BEA103F07DFB074624
:10345000282003F055FC0A233A46BEA1CDF800808F
:1034600003F012FC0790382003F04AFC4FF02809C3
:10347000CDE90079CDF80880227805F5FC7101EBE3
:1034800082111C310623AAA202F0C2F8A0672820EC
:1034900003F036FC4FF0230A0A233A46AEA1CDF8DA
:1034A00000A003F0F1FB0890382003F029FC8DE820
:1034B0008006227805F5FC7101EB82111E3106238E
:1034C0009BA202F0A5F8E067282003F019FC732105
:1034D00078220095CDE901214B2368229FA103F0BA
:1034E00033FB0546282003F00BFC0A232A4699A14A
:1034F000CDF8008003F0C8FB0990382003F000FCF1
:10350000CDE90059CDF8088098492278062301EBCF
:103510008211223186A202F07BF804F18008C8F8FB
:103520000800282003F0ECFB0A232A468AA1CDF8E4
:1035300000A003F0A9FB0A90382003F0E1FB8DE81E
:1035400020068A492278062301EB8211243178A2D1
:1035500002F05EF84146C860302003F0D1FB7321D1
:103560000091E623644A82A102F01EFC4146886174
:10357000382003F0C5FB96210091E6235E4A7E4980
:1035800003F096FA4146C86100F052FE5A4803998A
:1035900002F0E5F95848049902F0E1F9314656483D
:1035A00002F0DDF95448216E02F0D9F95248616EFB
:1035B00002F0D5F95048059902F0D1F94E48A16EB4
:1035C00002F0CDF90021A06E02F041F94A48E16E07
:1035D00002F0C5F94848216F02F0C1F94648069942
:1035E00002F0BDF94448616F02F0B9F90021606F43
:1035F00002F02DF94046416C3F4802F0B0F94046D8
:10360000816C3D4802F0ABF94046C16C3A4802F08B
:10361000A6F94046416D384802F0A1F94046002124
:10362000C06C02F014F94046016D334802F097F97E
:10363000207800EB40014D48403000EB81003946D6
:1036400006792D4802F08BF92B48079902F087F98B
:103650002948A16F02F083F92748089902F07FF901
:103660002548E16F02F07BF9A16F44484862E16FA1
:10367000434848624348006801694046806D884776
:10368000400747F6FF7A2CD5282003F039FB0A23A0
:103690003A463DA1CDF800B003F0F6FAC8F80000B4
:1036A0004446382003F02CFB204A8DE8800A2F493D
:1036B0001278062301EB821120311DA201F0A8FF30
:1036C00060600D48216802F04AF90B48616802F019
:1036D00046F952460021606801F06CFF61682B4892
:1036E0004862124F544652460021B86F01F062FF03
:1036F00022460021F86F4BE054640020437572723B
:10370000656E7420636F6E74726F6C6C657273009B
:10371000496E70757400000053657420706F696E97
:10372000747300004971207265662E0004600020E9
:1037300025366400497100004964207265662E00D8
:1037400049640000497120504944204761696E7303
:10375000000000004B5000004B490000496420501D
:103760004944204761696E73000000004C660020E8
:103770004C696E6B00000000DC9D0308ED470308F8
:10378000A9470308F47F00204B4400006147030869
:1037900001F010FF29465D4802F0E1F85B48099905
:1037A00002F0DDF844465948D8F8081002F0D7F87E
:1037B00056480A9902F0D3F85448E16802F0CFF86D
:1037C000534800680169A06D8847DFF84881000709
:1037D00031D5282003F094FA0A232A46AFF2580183
:1037E000CDF800B003F050FA2061382003F088FAD9
:1037F0008DE8200A48493A7801EB821126310623E8
:10380000AFF2D40201F004FF60614048216902F088
:10381000A6F83E48616902F0A2F8524600216069AC
:1038200001F0C8FE002E56D00021606902F00FF8AA
:103830006169C1F82480554652460021A06801F014
:10384000B9FE2A460021E06801F0B4FE2F48A169C4
:1038500002F085F82D48E16902F081F83878DFF848
:10386000B89000EB400109F1400909EB8100C178F3
:10387000E06902F0E2FF01F087FAA5696A6A2AB1FD
:1038800095F8210010B131462846904785F82C6004
:103890001EB30021A06801F0DAFF06B30021E06842
:1038A00001F0D5FFE1691D484862A1691C484862E2
:1038B000786E1C4941623A6F1B495162A268C2F896
:1038C0002480E268C2F82480397801EB410219F8BB
:1038D000221031B113E00121A7E70121DAE701212C
:1038E000DDE7002101F0B3FF094800680169A06D20
:1038F0008847800603D40021386F01F0A8FF0BB081
:103900000248BDE8F04F02F0BEB800005464002049
:10391000F47F00206D4603084C6600200D4F03081D
:10392000B14603085D4A0308214903082DE9F04F19
:10393000FF4887B000270068FE4C0169A06D8847EA
:10394000064609200025B0EB167F09D1282003F098
:10395000D7F90023F84AF9A1009503F095F9074635
:10396000C6F30360092809D1282003F0C9F9002310
:10397000F14AF9A1009503F087F907467006DFF8D0
:10398000B8B34FF028000BD503F0BAF914210A227E
:10399000CDF800B0CDE901215A239122F7A10AE028
:1039A00003F0AEF914210A22CDF800B0CDE90121CF
:1039B0005A239122F4A103F0C7F80546282003F00A
:1039C0009FF94FF00F0A05232A46F0A1CDF800A079
:1039D00003F05AF90390382003F092F91E210522D2
:1039E000DFF850930095CDE90121A9F18009DFF8B6
:1039F000A08399F80020062308EB82112831E5A264
:103A000001F006FE2062282003F07AF950232A46AE
:103A1000E1A1CDF800A003F037F90490382003F0BD
:103A20006FF91E214FF0500A0095CDE901A199F8D8
:103A30000020062308EB82112A31D6A201F0E8FD0E
:103A4000606200F0F5FB3946BB4801F088FF29466B
:103A5000B94801F084FFB848039901F080FFB648E7
:103A6000216A01F07CFFB448049901F078FFB24864
:103A7000616A01F074FF700658D5282003F040F900
:103A80003221009105232A46C4A103F0FDF80390DA
:103A9000382003F035F9412105220095CDE90121B7
:103AA00099F80010474608EB811130310623B9A27E
:103AB00001F0AEFD47F6FF720021A06201F07AFD31
:103AC000282003F01DF93221009150232A46B5A188
:103AD00003F0DAF80490382003F012F94121009540
:103AE000CDE901A199F80010062307EB81113231CD
:103AF000A8A201F08DFD47F6FF720021E06201F0FF
:103B000059FD8D48039901F02AFF8B48A16A01F005
:103B100026FF8948049901F022FF8748E16A01F0F5
:103B20001EFFA16AA1484862E16A48628248616C4E
:103B300001F015FF8048A16C01F011FF7E48E16C97
:103B400001F00DFF7C48616D01F009FF0021E06C80
:103B500001F07DFE7848216D01F001FF0920B0EBF6
:103B6000167F7DD1282003F0CBF873230A21CDF8EE
:103B700000B0CDE901134B2340F227128CA102F0D3
:103B8000E3FF0546282003F0BBF814260A232A4643
:103B90008BA1009603F078F80390382003F0B0F87A
:103BA000CDE9005A0296474699F80010C84607EB3F
:103BB00081113431062377A201F02AFD47F6FF7206
:103BC0000021206301F0F6FC282003F099F84FF063
:103BD00023090A232A467DA1CDF8009003F054F86A
:103BE0008346382003F08CF8CDE9005ACDF80890D0
:103BF00098F80010062307EB8111363165A201F019
:103C000007FD6063282003F07BF8322100910A232E
:103C10002A4670A103F038F80490382003F070F8B9
:103C200032210095CDE901A198F80010062307EB99
:103C30008111383157A201F0EBFCA063282003F07A
:103C40005FF8B4232A4665A1009603F01DF805909D
:103C5000382003F055F8E621CDE90051029600E046
:103C6000D4E098F80010032307EB81113A315DA2EC
:103C700001F0CEFCE0632E48222100680268A06DAE
:103C80009047421E0021E06B01F094FC282003F0D5
:103C900037F88C232A4654A1009602F0F5FF82469D
:103CA000282003F02DF88C232A4650A1CDF800904F
:103CB00002F0EAFF98F80010064607EB811090F832
:103CC0003A20A06D00F0B4FDE16B49484862216BD9
:103CD00048484862616B48484862A16B474848625F
:103CE0005146154801F03BFE3146134801F037FEBE
:103CF0002946114801F033FE0F48039901F02FFEC9
:103D00000D48216B01F02BFE59460B4801F027FEB0
:103D10000948616B01F023FE0748049901F01FFE7A
:103D20000548A16B01F01BFE0348059968E00000FF
:103D3000F47F002084600020FC64002053656E73D3
:103D40006F726C6573732074756E696E672053545F
:103D50004F202620504C4C0053656E736F726C657B
:103D600073732074756E696E672053544F2026203C
:103D7000504C4C20284175782900000053544F20A6
:103D80002620504C4C00000053544F004731000097
:103D90004C6600202536640047320000504C4C2011
:103DA0004B500000504C4C204B4900006D4603081E
:103DB0005265762075702074756E696E670000001C
:103DC0004475726174696F6E00000000456E642076
:103DD00073706400456E642049710000537461671C
:103DE00065000000253364006D73000072706D0083
:103DF000AD4E0308E94E03083D4F0308614F030829
:103E000001F0ADFD0748E16B01F0A9FD216A06480C
:103E10004862616A486207B00248BDE8F04F01F0AD
:103E200032BE0000FC6400206D4603082DE9F04F0F
:103E3000D148DFF8488387B0006800250169D8F8C9
:103E40005800884707460A240026B4EB177F09D19B
:103E5000282002F055FF0023C94ACAA1009602F0AB
:103E600013FF0546C7F303600A2809D1282002F092
:103E700047FF0023C24ACBA1009602F005FF05468A
:103E8000282002F03DFFBE4BCDE900341421029101
:103E9000A3465A239122CDA102F056FE06462820C1
:103EA00002F02EFF0F21009105233246C8A102F037
:103EB000EBFE8146382002F023FF1E2105220096EA
:103EC000CDE90121AD49DFF8B8A280390AF1A80A8D
:103ED000097806230AEB81112C31BEA201F098FB70
:103EE000C8F820004446282002F00AFF0F21009164
:103EF00050233246B8A102F0C7FE8046382002F0B7
:103F0000FFFE1E2150220096CDE901219B49062388
:103F10008039B0A209780AEB81112E3101F078FBCB
:103F2000606200F085F92946954801F018FD314698
:103F3000934801F014FD4946914801F010FD904866
:103F4000216A01F00CFD41468D4801F008FD8C48C6
:103F5000616A01F004FD8A48616C01F000FD884847
:103F6000A16C01F0FCFC8648E16C01F0F8FC84488F
:103F7000616D01F0F4FC0021E06C01F068FC804808
:103F8000216D01F0ECFCBBEB177F7DD1282002F006
:103F9000B7FE7B4A00927323CDE901B34B2340F275
:103FA00027128EA102F0D0FD0546282002F0A8FEBF
:103FB0004FF014080A232A468CA1CDF8008002F0A5
:103FC00063FE0390382002F09BFE4FF050096B4FC8
:103FD000CDE90059803FCDF80880397856460AEB84
:103FE0008111343106237BA201F012FB47F6FF72E8
:103FF0000021206301F0DEFA282002F081FE4FF05C
:10400000230A0A232A467CA1CDF800A002F03CFE38
:104010008346382002F074FE8DE8200639780623A6
:1040200006EB811136316BA201F0F2FA60632820B1
:1040300002F066FE322100910A232A4670A102F0A6
:1040400023FE0490382002F05BFE32210095CDE97A
:1040500001913978062306EB811138315DA201F018
:10406000D7FAA063282002F04BFEB4232A4666A1AB
:10407000CDF8008002F008FE0590382002F040FEE6
:10408000E622CDF8088000E06BE0CDE900523978F7
:10409000032306EB81113A315DA201F0B9FAE06326
:1040A0003548222100680268A06D9047421E002119
:1040B000E06B01F07FFA282002F022FE8C232A46D2
:1040C00054A1CDF8008002F0DFFD8146282002F0E7
:1040D00017FE8C232A4650A1CDF800A002F0D4FD93
:1040E0003978804606EB811090F83A20A06D00F0F8
:1040F0009FFBE16B49484862216B49484862616B0C
:1041000048484862A16B4848486249461C4801F04B
:1041100026FC41461A4801F022FC2946184801F0C5
:104120001EFC1748039901F01AFC1548216B01F099
:1041300016FC5946124801F012FC1148616B01F05F
:104140000EFC0F48049901F00AFC0D48A16B01F028
:1041500006FC0B48059901F002FC0948E16B01F0EF
:10416000FEFB216A31484862616A486207B0044830
:10417000BDE8F04F01F087BCF47F00208460002090
:10418000A465002053656E736F726C657373207441
:10419000756E696E672053544F202620434F52445A
:1041A0004943000053656E736F726C6573732074BE
:1041B000756E696E672053544F202620434F52443A
:1041C00049432028417578290000000053544F00CE
:1041D00047310000253664004732000052657620E2
:1041E00075702074756E696E6700000044757261A9
:1041F00074696F6E00000000456E64207370640087
:10420000456E6420497100005374616765000000C9
:10421000253364006D73000072706D00AD4E0308AD
:10422000E94E03083D4F0308614F03086D4603083C
:104230003EB5282002F064FDA0232349CDE90013F8
:10424000142202925A23912220A102F07DFC214CDB
:104250006064282002F054FD0F21009105231EA167
:10426000626C02F011FDA064402002F049FD0521BE
:10427000626CCDE9002104F160011E25A1F1E0028C
:1042800002951278062301EBC201091D16A201F066
:1042900065FEE064302002F033FD412100910523EA
:1042A00012A1626C00F0ACFF2065282002F028FD0E
:1042B00000953C2310A1626C02F0E6FC6065216D64
:1042C0000E4848623EBD0000706100204D6F6E696F
:1042D000746F7200846000204D656173757265644F
:1042E0002073706565640000253664005374617244
:1042F000742F53746F70000072706D004545030891
:1043000070B531490024096809698847010E0E0714
:104310004FF009014FF00A024FF002034FF0010580
:104320000ED0B1EB107F03D1C0F303660A2E17D075
:10433000B2EB107F15D1C0F30366092E10D010E048
:10434000B1EB107F00D10124B2EB107F00D1022429
:10435000B5EB107F02D0B3EB107F33D1032431E0F3
:104360000624B1EB107F05D1C0F3036102290BD005
:10437000012909D0C0F30361092906D1B3EB107FED
:1043800002D0B5EB107F00D10424B2EB107F05D131
:10439000C0F3036102290BD0012909D0C0F30361E6
:1043A0000A2906D1B3EB107F02D0B5EB107F00D104
:1043B00005240B21B1EB107F04D1C0F30360092861
:1043C00000D10724204670BDF47F002010B5274897
:1043D00001F027FB2548A83001F023FB244801F019
:1043E00020FB2348A83001F01CFB224801F019FBF8
:1043F0002048A83001F015FB1F4900204860886064
:10440000C860086148618861C86108624862886262
:10441000C862086348638863C86308644864886442
:10442000C864086548658865C86508664866886622
:10443000C866086748678867C86780310860486051
:104440008860C860086148618861C8610862486224
:104450008862C862086348638863C8630864486404
:104460008864C8640865486510BD00005C6200206F
:10447000AC630020FC640020046000200348072196
:104480000068C2680248806D10470000F47F002079
:104490008460002010B50C46FFF798FF062C1CD254
:1044A000DFE804F003070B0F1317BDE81040FEF719
:1044B000F3B8BDE81040FEF7D5B9BDE81040FEF7EF
:1044C0007FBCBDE81040FEF711BFBDE81040FFF70C
:1044D0002DBABDE81040FFF7A9BC10BD2DE9F0478B
:1044E000814616480E46134FDFF84C80002400EB3F
:1044F0008615395D662908D0D8F80000026848465C
:104500009047411C01D025F81400641CE4B2202C13
:10451000EFD3D8F8000004210268484690470849C4
:1045200041F8360095F83A2031464846BDE8F04754
:1045300000F07EB9E89D0308F47F00204C6600205F
:10454000E46000202DE9F047414A424F424DA7F177
:10455000400C2DED068B02F1800411782B6801EBE5
:1045600041060CEB811017F82680B8F1000F06D039
:1045700007EB8601C97859B1012960D10EE0828824
:1045800033485B68E03050F83110A06D984756E032
:10459000B0F91820B0F914101B6A4EE0E1469046BD
:1045A000B0F93E0003F037FD9FED2C8B53EC182B38
:1045B00003F05CFD9FED2B9B53EC192B03F0A4FB48
:1045C00041EC100B02F03CFD98F80010B0EE40AA50
:1045D00009EB8117F0EE60AAB7F93C0003F01BFD70
:1045E00053EC1A2B03F042FD03F0E6FC06B2B7F9D8
:1045F0003E0003F010FD53EC182B03F037FD53EC95
:10460000192B03F081FB41EC100B02F085FD98F8AB
:104610000010B0EE408A09EB8110F0EE608AB0F92C
:104620003C0003F0F8FC53EC182B03F01FFD03F0E3
:10463000C3FC01B228683246036AA06D9847286817
:104640000621C268A06DBDEC068BBDE8F04710479F
:10465000046000208C660020F47F00201F85EB5151
:10466000B81E094000000000008066400D4B0C4A57
:10467000806A1B7802EB8312801A0B4A400852FAB8
:1046800080F31B78662B0AD0C0B2105C074A126810
:1046900093680A46014603488030806D184770478A
:1046A0004C66002004600020E89D0308F47F002091
:1046B0002DE9F041284E11F0FF052849307800EB34
:1046C000400001EB8000057140D00021224C803475
:1046D000A06801F0BCF8C5B30021E06801F0B7F8AC
:1046E000FDB11E4F3078403F07EB8010B0F91C1031
:1046F0004184C28B8284028CC284A06800F03EFE9A
:10470000307807EB8010B0F92410E06800F036FE36
:10471000606930B1317807EB8111B1F9261000F0F2
:104720002DFEA068012680F82060E06880F82060F7
:104730006069002807D06DB15FF0000101F087F8D3
:10474000606980F82060BDE8F08101E00121BDE7EB
:104750000121C2E70121F1E7046000208C660020FE
:1047600070B50D46FFF782FF0D480E4A017801EB48
:10477000410002EB8000007900280FD0084C803403
:10478000606900280AD0403A02EB8111CD842946A5
:1047900000F01AFE6069012180F8201070BD000051
:1047A000046000208C66002010B50C46FFF75EFF09
:1047B0000C480D4A007800EB400102EB81010979B9
:1047C00000290ED0A2F1400101EB80102146848423
:1047D000044C8034E06800F0F7FDE068012180F8C7
:1047E000201010BD046000208C66002010B50C461F
:1047F000FFF73CFF0C480D4A007800EB400102EB4C
:104800008101097900290ED0A2F1400101EB80104D
:1048100021464484044C8034A06800F0D5FDA06893
:10482000012180F8201010BD046000208C6600205B
:10483000F8B51546094A02EB8114094904F138021A
:1048400000920968931E121F8E692946B047E08EB8
:1048500000EB40004000E086F8BD00004C66002000
:10486000F47F002038B51546094A062302EB811271
:10487000B2F9361091FBF3F10BB2B2F93810009196
:104880000449928E09684C692946A04738BD00004A
:104890004C660020F47F00202DE9F041164A0546C1
:1048A00010461649007802F1800400EB400001EB4D
:1048B00080019368124E134FA06D9D420BD193F867
:1048C00030504D70FFF71CFD56F820000021425D6E
:1048D0003868C3690BE0D26892F830508D70FFF7EA
:1048E0000FFD56F820000121425D3868C369E06D74
:1048F000BDE8F04118470000046000208C660020ED
:10490000BC9D0308F47F0020034808210068C268AA
:104910000248806D10470000F47F00208460002072
:104920002DE9F047464D474ADFF81C91A2F14006B9
:104930002DED068B05F18004287800EB400102EB99
:10494000810306EB8010DB78002B4FD0012B72D156
:10495000B046B0F93E0003F05EFB9FED3C8B53EC9C
:10496000182B03F083FB9FED3B9B53EC192B03F0BB
:10497000CBF941EC100B02F063FB2978B0EE40AAB2
:1049800008EB8117F0EE60AAB7F93C0003F043FB97
:1049900053EC1A2B03F06AFB03F00EFB06B2B7F9D7
:1049A0003E0003F038FB53EC182B03F05FFB53EC95
:1049B000192B03F0A9F941EC100B02F0ADFB29789B
:1049C000B0EE408A08EB8110F0EE608AB0F93C004E
:1049D00003F021FB53EC182B03F048FB03F0ECFA37
:1049E00001B2D9F800003246036A09E012F821103A
:1049F000154A136851B1B0F91820B0F914101B6AA8
:104A0000A06DBDEC068BBDE8F047184719694F460D
:104A1000A06D884780060ED52878412106EB8010CE
:104A2000B0F9182038688368A06DBDEC068BBDE82E
:104A3000F0471847FFE7BDEC068BBDE8F0870000A4
:104A4000046000208C660020F47F00201F85EB515D
:104A5000B81E094000000000008066402DE9F047C4
:104A60003A4D3B4ADFF8EC80A2F140042DED068B75
:104A700005F18009287800EB400102EB810104EB8D
:104A80008010C978002954D001295AD1B0F93E00CC
:104A900003F0C1FA9FED308B53EC182B03F0E6FACC
:104AA0009FED2F9B53EC192B03F02EF941EC100BCB
:104AB00002F0C6FA2878B0EE40AA04EB8017F0EEB8
:104AC00060AAB7F93C0003F0A6FA53EC1A2B03F0E6
:104AD000CDFA03F071FA06B2B7F93E0003F09BFA83
:104AE00053EC182B03F0C2FA53EC192B03F00CF91A
:104AF00041EC100B02F010FB2878B0EE408A04EB7A
:104B00008010F0EE608AB0F93C0003F084FA53ECB8
:104B1000182B03F0ABFA03F04FFA01B2D8F80000FB
:104B20003246036AD9F85800BDEC068BBDE8F04761
:104B30001847B0F91820B0F91410D8F80000036A2B
:104B4000F0E7BDEC068BBDE8F087000004600020B4
:104B50008C660020F47F00201F85EB51B81E0940B1
:104B6000000000000080664070B54D4D4D4A2DEDAF
:104B7000068BA2F14004287800EB400102EB810192
:104B800004EB8010C97831B101294CD1B0F914106F
:104B900000294BD04CE0B0F93E0003F03CFA9FED09
:104BA000428B53EC182B03F061FA9FED419B53ECC1
:104BB000192B03F0A9F841EC100B02F0ADFA28789C
:104BC000B0EE40AA04EB8016F0EE60AAB6F93C0005
:104BD00003F021FA53EC1A2B03F048FA03F0ECF936
:104BE000B082B6F93E0003F016FA53EC182B03F02E
:104BF0003DFA53EC192B03F087F841EC100B02F04F
:104C00001FFA2878B0EE408A04EB8014F0EE608A38
:104C1000B4F93C0003F0FFF953EC182B03F026FA2B
:104C200003F0CAF92083BDEC068B70BD028B82B302
:104C3000008B494310FB001000EE100AB8EEC00ACA
:104C400002F055F8BDEEC00A287810EE101A04EBF9
:104C500080108187B0F91810B0F9140000EE101A16
:104C6000F8EEC00A00EE100AB8EEC00A02F041F8F1
:104C7000DFED110A297820EE200ADFED100A04EB9F
:104C8000811180EE201ABDEEC10A10EE100AC8870D
:104C9000C9E7FFE7002181875A21C187C3E70000E8
:104CA000046000208C6600201F85EB51B81E09406F
:104CB000000000000080664000003443C3F5484017
:104CC0002DE9F041204D224E05F1800429786868D5
:104CD00001EB41021D4990F8300001F82200012843
:104CE00007D001211B4800F0E3FD306801228368F2
:104CF00025E0306802210268A06D9047C0B9306895
:104D00000921C268A06D9047306829210268A06D12
:104D100090470E4F2978403F07EB81118882306819
:104D20002A210268A06D9047297807EB811108833A
:104D30000021084800F0BCFD306800228368A06DA7
:104D4000BDE8F04103211847046000208C66002074
:104D5000F47F0020AC63002009480849007801EB8B
:104D600080118A880649E03151F830100548006802
:104D7000436803488030806D184700004C6600206F
:104D800004600020F47F00202DE9F0413B4C3C4FB3
:104D900004252078A7F1400600EB400007EB8000D7
:104DA00047F6FF78C07810B1012836D13EE035A132
:104DB000206E01F064FF35A1E06E01F060FF217804
:104DC000606E06EB811202F1140180F833508162AB
:104DD000216F18322F4E81F833508A624546424681
:104DE000314600F0E7FB2A463146206F00F0E2FB37
:104DF000207800EB400017F8200050B926480068E2
:104E000001691E488030806D8847800601D40021EA
:104E100000E00121206F00F01AFD616E012081F891
:104E20002000216F81F82000BDE8F0811BA1206ED9
:104E300001F025FF1BA1E06E01F021FF2178606EDB
:104E400006EB811202F13C0180F833508162236F3E
:104E5000891C424683F833509962002100F0AAFB76
:104E600040F267120021206F00F0A4FB207800EBD5
:104E7000400017F820000028CBD1C8E704600020CC
:104E80008C6600204971207265662E00496420728C
:104E900065662E000180FFFFF47F0020416D702EBB
:104EA000202020004570732E4465670008460D4998
:104EB00010B50B4A09780B4C02EB811280345087F5
:104EC000C2B2A06DFFF7B4FC216B012081F8200075
:104ED000616B81F82000A16B81F8200010BD0000FB
:104EE0004C660020046000200748064A007802EB68
:104EF000801291860146044892F83A208030806DF5
:104F0000FFF7B0BC4C66002004600020094910B5D2
:104F100008488039084A0978C06901EB410102EB71
:104F2000810190F83000C870FFF71EFEBDE8104008
:104F3000FFF72ABF846000208C6600200748064ADD
:104F4000007802EB8012D1860146044892F83A209C
:104F50008030806DFFF786BC4C6600200460002026
:104F60000748064A007802EB801211870146044880
:104F700092F83A208030806DFFF774BC4C660020B8
:104F800004600020014600200A5C401CC0B2002AD8
:104F9000FAD17047F8B50446406A0028204615D07B
:104FA00001F04EFA0646204601F028FA0546204652
:104FB00001F0C3F90746204601F0BFF981B200961F
:104FC0003A0C2B46606A00F04FFBF8BDBDE8F84094
:104FD00001F01BBA2DE9F04106AD1E4617460C46FE
:104FE0000ECD00F03BFC05460748286032463946A6
:104FF000284601F0FCF96C6214B1012085F820000C
:105000002846BDE8F081000088BD030801F073BEAA
:1050100010B5002400F0E9F800B10124204610BDCD
:1050200070B5426A0D4604464AB194F82C0030B17E
:105030002DB994F8210010B100212046904784F842
:105040002C5070BD70B500240546052906D10021FD
:10505000FFF7E6FF284601F08FF90124284600F00B
:10506000C4F800B10124204670BD2DE9FC5F06465E
:10507000C069C1888588891D8CB2B06AFBF77EFB48
:105080004543ED1DA9B22246304601F0B0F9304645
:1050900001F053F985B2304601F04FF9040C304667
:1050A00001F0CEF9801E87B2304601F0A7F9801ECC
:1050B0001FFA80F8B6F81A90304601F0C1F9019055
:1050C000304601F09BF98346304601F036F98246BE
:1050D000304601F032F94FEA1A4180B2CDF8009023
:1050E0005A46019B00F060FB304600F07EF840B36A
:1050F000304601F022F9801C85B2304601F01DF9DE
:105100000014801C84B2B6F81A90304601F098F969
:10511000401E82B2CDF80090A4F10109681E1FFA6A
:1051200089F180B2012300F01DFBB6F81AA03046C9
:1051300001F064F9801E82B21FFA89F1CDF800A057
:1051400011E0708B0090601C81B205EB080080B20A
:1051500001233A4600F006FB708B009008F1020034
:1051600082B2E01981B20023284600F0FBFA708B6E
:1051700000903B4642462146284600F015FB308B06
:105180000090F81E82B2A01C814681B2A81C80B299
:10519000012300F0E7FA96F8210008B11F2000E093
:1051A000308B0090A8F1020082B2BF1E641C681C04
:1051B000BBB2A1B280B200F0F7FAB26AED1C02B045
:1051C0001FFA89F1A8B2BDE8F05F00F02DBB10B561
:1051D00004460020052907D101212046FFF720FFC2
:1051E000204601F0C9F8012010BD90F82C1021B123
:1051F00090F8210008B1012070470020704700009E
:1052000070B51C4616460D4622463146049B00F0FA
:1052100025FB084901600021416280F82C100446FA
:10522000012100F014FB0121A562204684F8201022
:1052300070BD0000ACBD030801F05DBD70B5C46A6F
:105240000D4604B911A490F83310062919D2DFE8ED
:1052500001F0180303070B0F00F063F802460AE0A1
:1052600000F05FF882B206E000F05BF802B202E004
:1052700000F057F8C2B221462846BDE87040FBF75F
:105280004BB800F04EF842B2F5E70000256400008C
:1052900070B50E460446002500F0A4FD28B3A06AB0
:1052A00010B3012E02D0022E1ED10DE094F8320070
:1052B000218EFF280144218602D0401C84F8320050
:1052C000204600F05DF90CE094F83200218EFF28B2
:1052D0000144218602D0401C84F83200204600F0B0
:1052E00006F8204601F048F80125284670BD10B5A3
:1052F000024600F016F80146B2F93000B2F9343037
:10530000091A8B4206DD8010108692F83200800860
:1053100082F8320092F83300BDE81040104600F0E9
:105320002DB890F83310806A06290DD2DFE801F01D
:105330000C030305070A0068704700887047B0F93E
:10534000000070470078704790F90000704770B512
:105350000E460446002500F045FD00B10125052E4E
:1053600008D194F8230038B1002084F823002046A7
:1053700001F002F8284670BD0120F6E710B502469C
:10538000806A00281FD0B2F934308B421BDCB2F99E
:1053900036308B4217DB92F83330022B04D0042BCB
:1053A00004D049B2017002E0016000E00180506A5F
:1053B000002808D01046FFF7B4FF536A0146BDE845
:1053C00010401046184710BD10B50246806A0028EC
:1053D00014D0938E8B4211D8D38E8B420ED392F879
:1053E00033300170506A002808D01046FFF799FF4B
:1053F000536A0146BDE810401046184710BD2DE91C
:10540000F0418AB00446202101A8FBF7D6F9658B4C
:10541000204601F015F88046204600F0EFFF0646D2
:10542000204600F08AFF0746204600F086FF390C30
:1054300080B243463246009500F0B6F9258B2046EF
:1054400000F0FEFFC01E87B2204600F076FF064641
:10545000204600F072FF3114891C801C89B280B292
:1054600001233A46009500F07DF994F82100A0B19F
:10547000204600F0E5FF801E87B2204600F0BEFF08
:10548000801E86B2204600F058FF0546204600F0F8
:1054900054FF1F210091291414E0258B204600F0B1
:1054A000CFFF801E87B2204600F0A8FF801E86B284
:1054B000204600F042FF8046204600F03EFF4FEAC3
:1054C00028410095491C401C89B280B23B463246B7
:1054D00000F06AF9204600F085FC50B194F82100F4
:1054E00038B14FF6E070ADF80000BDF80000FCF7F1
:1054F000BBFA94F8220038B947F6FF70ADF8000007
:10550000BDF80000FCF7B0FAA06A002812D001A98B
:105510002046FFF793FE204600F00FFF0546204689
:1055200000F00BFF2914891CC01C89B280B201AAAB
:1055300000F07AF90AB0BDE8F08170B50E46044675
:10554000002500F04FFCC8B1A06AB0B100200121D5
:10555000012E02D0022E10D106E0218684F83200FE
:10556000204600F00DF805E0218684F83200204640
:10557000FFF7BDFE204600F0FFFE0125284670BD66
:1055800010B50246FFF7CDFE0146B2F93000B2F980
:10559000363001448B4206DA8010108692F83200D1
:1055A000800882F8320092F83300BDE810401046BF
:1055B000FFF7E4BE8186C286704700002DE9F04106
:1055C00006AC1D4617460E460ECC00F015FC0F49E2
:1055D00001600221044680F833100121C4E90A6702
:1055E0000186C069C1888088091D68438AB2401D50
:1055F00081B2204600F0FBFE48F20101A186891E1F
:10560000E186002120466162BDE8F081D4BD030837
:105610002DE9F04106AC1D4617460E460ECC00F0B3
:10562000EBFB0F4901600421044680F8331001218F
:10563000C4E90A670186C069C1888088091D68437A
:105640008AB2401D81B2204600F0D1FE48F201012D
:10565000A186891EE186002120466162BDE8F081B5
:10566000D4BD030801F047BB38B5049C0094FCF797
:10567000A7F838BD2DE9FC410D461349DDF820801F
:105680001C4609881700A1EB0000A0F1010086B2BA
:1056900018D001A96846FCF783F84046FCF720FAC9
:1056A00007E0E8B26D1CADB200233A463146FCF784
:1056B0002DF82000A4F10104A4B2F2D1BDF800003D
:1056C000FCF70EFABDE8FC813661002010B5FCF74E
:1056D000AFFE4FF6FF742046FBF71AFF2046FCF79B
:1056E000C3F9BDE810400020FCF7FAB92DE9F041FC
:1056F00090460E4604460546FCF760F8184F012810
:1057000003D13888001B401E85B2FCF751F8808811
:1057100039882044884221D8FCF74AF88088062836
:1057200004D1FCF745F8C088082806D0F0B24246FC
:105730002946BDE8F041FBF737BFFCF739F80468AC
:10574000FCF736F88188A8F12000414304EB4102C0
:10575000F0B22946BDE8F041FBF782BFBDE8F08119
:10576000366100202DE9FC410E460E49984614464C
:105770000988089F081A401E85B201A96846FCF7EF
:105780000FF83846FCF7ACF934B1641EA2B2F0B29F
:1057900043462946FBF7BAFFBDF80000FCF7A0F925
:1057A000BDE8FC81366100202DE9FC410D461D4914
:1057B000089F1C4609881600A1EB0000A0F101001B
:1057C0001FFA80F82BD0002C29D001A96846FBF7DE
:1057D000E7FF3846FCF784F9771EBAB2E8B2002337
:1057E0004146FBF793FF2819401EBAB2C0B200230E
:1057F0004146FBF78BFF601E82B2E8B201234146AF
:10580000FBF784FFA8EB0600401C81B2E8B201233D
:105810002246FBF77BFFBDF80000FCF761F9BDE80D
:10582000FC8100003661002070B514460E46054626
:1058300009E031462846FFF759FFFBF7B9FF80889A
:10584000641C284485B22278002AF2D170BD80F809
:105850002210002901D180F8211070472DE9FF4165
:105860001F46944600240D46064623463A466146A6
:1058700001A8009400F048FD02462946304600F099
:105880001BFE0449016080F8224080F8214004B0EA
:10589000BDE8F081F8BD030801F02DBA0022427482
:1058A000002904D090F82120002A00D041747047CC
:1058B00080F82110002900D14174704700F0A5BD87
:1058C00070B50C4600F0D0FD05460948286054B17B
:1058D000204600F0B5FD0246A0892189401A81B218
:1058E000284600F084FD012085F82100284670BD7F
:1058F0001CBE03082DE9F04186B00F46DDE90C45DA
:1059000080461E46114602A800F0F4FC02463346CB
:1059100039464046CDE9004500F0FAFD03490160F3
:10592000012180F8211006B0BDE8F0811CBE0308FB
:1059300010B500F013FE03490160012180F8211029
:1059400010BD00001CBE030870B50D46044600F0F3
:1059500023FE95F8210084F82100204670BD00291F
:1059600009D0B0F8A620202A05D200EB8203521CF1
:10597000A0F8A6205962704770B50C46054600F0A5
:105980001DF801684A6921469047002807D1012C7B
:1059900006D0022C03D1284600F075F8012070BD16
:1059A000284600F08BF8F9E710B50B4600F006F832
:1059B00001688A69BDE8104019461047B0F8A62072
:1059C000B0F8A4108A4203D900EB8100406A704706
:1059D0000020704770B50446B0F8A6000E46B042ED
:1059E0001ED92046FFF7EAFF002580F82150204607
:1059F000FFF7E4FF00F0C0FCA4F8A4602046FFF726
:105A0000DDFF80F8215090F8222001210AB180F8B2
:105A100021102046FFF7D2FFBDE8704000F0ACBC7B
:105A200070BD70B50546002408E005EB8400406AAF
:105A300010B1016849688847641CE4B2B5F8A60053
:105A4000A042F2D8002025F8A40F688070BD70B580
:105A5000054690F8200010B1284600F08DFCB5F8FE
:105A6000A60000280ED0002408E005EB8400406A60
:105A700090F8201009B100F07FFC641CB5F8A60076
:105A8000A042F2DC70BD30B4B0F8A630002B13D0C9
:105A9000B0F8A4100A46491C8B4200D800218A4263
:105AA00006D000EB8104646A94F82240002CF2D006
:105AB00030BC89B2FFF78EBF30BC704730B4B0F84D
:105AC000A620002A12D0B0F8A4100B4601B9114646
:105AD000491E8B4206D000EB8104646A94F8224090
