:02000004080FE3
:10000000F0ED012085020F085D521A00C1020F08B1
:1000100091020F0893020F0895020F0800000000DC
:1000200000000000000000000000000097020F0820
:1000300099020F08000000009B020F089D020F08A4
:100040009F020F089F020F089F020F089F020F08D0
:100050009F020F089F020F089F020F089F020F08C0
:100060009F020F089F020F089F020F089F020F08B0
:100070009F020F089F020F089F020F089F020F08A0
:100080009F020F089F020F089F020F089F020F0890
:100090009F020F089F020F089F020F089F020F0880
:1000A0009F020F089F020F089F020F089F020F0870
:1000B0009F020F089F020F089F020F089F020F0860
:1000C0009F020F089F020F089F020F089F020F0850
:1000D0009F020F089F020F089F020F089F020F0840
:1000E0009F020F089F020F089F020F089F020F0830
:1000F0009F020F089F020F089F020F089F020F0820
:100100009F020F089F020F089F020F089F020F080F
:100110009F020F089F020F089F020F089F020F08FF
:100120009F020F089F020F089F020F089F020F08EF
:100130009F020F089F020F089F020F089F020F08DF
:100140009F020F089F020F089F020F089F020F08CF
:100150009F020F089F020F089F020F089F020F08BF
:100160009F020F089F020F089F020F089F020F08AF
:100170009F020F089F020F089F020F089F020F089F
:100180009F020F089F020F0800F002F800F06AF8C3
:100190000AA090E8000C82448344AAF10107DA45E2
:1001A00001D100F05FF8AFF2090EBAE80F0013F0CA
:1001B000010F18BFFB1A43F00103184774C6000073
:1001C00094C60000103A24BF78C878C1FAD8520704
:1001D00024BF30C830C144BF04680C6070470000C1
:1001E0000023002400250026103A28BF78C1FBD840
:1001F000520728BF30C148BF0B607047692900F023
:100200000381642900F00081752900F0FD806F29C9
:1002100000F09481782900F0BD810368DB0928BFD4
:1002200041F08001632900F0F283E32900F00584A6
:10023000002070471FB508F0B7FB9DE8030000F0F1
:100240005DFC00F0E9FC04000020002107F03CFF09
:10025000401C606000F0DCFA1FBD10B5002007F004
:100260003FF810BD00F0B2FC1146FFF7E3FF07F0C6
:1002700025FF00F0EFFC03B4FFF7EFFF03BC00F035
:100280009FFC00000948804709480047FEE7FEE759
:10029000FEE7FEE7FEE7FEE7FEE7FEE7FEE7FEE736
:1002A00004480549054A044B70470000752B0F08A8
:1002B00089010F0818E70120F0ED0120F0ED012081
:1002C00000B5FFB441464A4653465C4665463EB4D7
:1002D0000D496A460A600D4908600D4988473EBCD1
:1002E000884691469A46A346AC46FFBC00BD0648E8
:1002F00001688D463EBC884691469A46A346AC4668
:10030000FFBC044800BD0000F0FF0120F4FF012005
:1003100091010F0844C10F080FB41CB5074B06AA82
:100320007B4469460090059800F04FFB0020694629
:1003300000F05EFB1CBC5DF814FB0000CD06000065
:1003400070B5044685690068C10601D5302600E015
:100350002026C00708D070BDD4E90121304690475F
:10036000206A00F1010020626D1EF5D570BD70B5E8
:10037000044685690078C00708D170BDD4E9012121
:1003800020209047206A00F1010020626D1EF5D503
:1003900070BD09684A0501D540B27047C905FCD552
:1003A00000B2704709684A0501D5C0B27047C90557
:1003B000FCD580B2704770B50C460546012A05D0C1
:1003C0002878800600D5EA69002302E0012305E0D1
:1003D0005B1C934202D2E05C0028F9D1A869E618C0
:1003E000C01AA861286A184428622846FFF7A8FFA7
:1003F00004E0D5E9012114F8010B9047B442F8D389
:100400002846FFF7B4FF70BD2DE9F04106460024F1
:1004100010687529314616A511D0FFF7BAFF0028DC
:1004200003DAC0F1000013A507E031688A0701D59F
:1004300011A502E0490704D510A5012401E0FFF74A
:10044000B1FF00210A2306F1240707E0B0FBF3F215
:1004500003FB1200303078541046491C0028F5D1B7
:1004600023462A463046BDE8F04100F04CBA000071
:10047000000000002D0000002B0000002000000004
:100480002DE9FF5F15468A460446DFF8AC80F84444
:100490000027D8E900103E46CDE9001011E03AF8F7
:1004A00016106A4602A800F0D4FA411C07D0217841
:1004B000890603D5E269391891420ED8074406F13E
:1004C00001062078800602D5E069B84205DDAE421B
:1004D000E5DB3AF816000028E1D1A069C01BA06155
:1004E0002046FFF72DFFD8E90010CDE900100020CD
:1004F00016E03AF818106A4602A800F0AAFA8146F7
:10050000401C0BD000250DF1080B05E0D4E90121BA
:100510001BF8050090476D1C4D45F7D308F101000D
:10052000B0428046E5DB206A384420622046FFF76F
:100530001EFFBDE8FF9F0000C2BC000070B504466E
:1005400021461068FFF72EFF002104F1240508E082
:1005500000F0070202F130026A5401F101014FEA92
:10056000D0000028F4D10346206808A2050708D56A
:1005700000F02000084304D0E069012304A2401EDB
:10058000E0612046BDE8704000F0BDB90000000009
:100590003000000070B504460D4621461068FFF794
:1005A00001FF2188090502D5104A7A4402E00F4A6A
:1005B0007A440E32002104F1240307E000F00F0614
:1005C0004FEA1010965D5E5401F101010028F5D14B
:1005D00003462078000704D5702D02D009B11132EE
:1005E00002232046BDE8704000F08DB9AEBB00008C
:1005F0002DE9F05F894604464FF0000ADFF878B134
:10060000FB44C0F820A02046E1688847002875D048
:10061000252806D0D4E901219047206A401C206299
:10062000F1E700265F462046E16888472028054616
:1006300008DB312D06D207EB050010F8200C08B1BD
:100640000643F0E7B00701D526F00406C4F81CA065
:100650000027C4F818A02A2D09D0284607F0FAFC74
:1006600038B304EB8708303DC8F8185019E059F842
:10067000041B204604EB87029161E1688847012F43
:10068000054618D1E069002820DA26F020061DE092
:10069000D8F8180000EB800005EB40003038C8F8AF
:1006A00018002046E1688847054607F0D3FC00287B
:1006B000EED1012F0AD02E2D08D12046E1688847BF
:1006C0007F1C0546022F46F02006C4DBA0690028E7
:1006D00003DA404246F00106A061F00701D026F09F
:1006E00010066C2D0BD0682D09D04C2D39D06A2DF9
:1006F00035D0742D35D07A2D33D016E038E0E1684E
:100700002F4620468847B842054609D16C2F26D08F
:100710004FF48060E168064320468847054604E0C0
:100720006C2F1AD04FF4807006430DB3A5F1410031
:10073000192802D8203546F400664A462946204644
:1007400026604E46FFF75AFD80B101280BD0F61DFA
:1007500026F0070000F1080955E74020E4E7802073
:10076000D8E70020D6E706F104094CE7284651E710
:10077000206ABDE8F09F000080BB000010B5431C5C
:1007800002E010F8011B71B18107FAD14FF001327C
:1007900002C88C1A8C4314EAC211F9D0C01A0A0696
:1007A00003D0C01E10BDC01A10BD0A0401D0801EA7
:1007B00010BD0902FCD0401E10BD4FF0000200B574
:1007C000134694469646203922BFA0E80C50A0E874
:1007D0000C50B1F12001BFF4F7AF090728BFA0E822
:1007E0000C5048BF0CC05DF804EB890028BF40F8EE
:1007F000042B08BF704748BF20F8022B11F0804F30
:1008000018BF00F8012B7047704770477047000011
:1008100070B5064C7C44064D7D4403E020682044BE
:100820008047241DAC42F9D170BD000048C10000D2
:1008300048C1000000487047E8E6012000487047C2
:10084000ECE6012070B5064600F038F9056806F1BF
:100850000B0020F00704B4429CBF002070BD2B4663
:100860006A68BAB11068A04210D304F10801884246
:100870003CBF5068586007D3516810194160116837
:10088000091B016058601460101D70BD134652684A
:10089000002AE7D12146284600F01CF90028DED1C5
:1008A00070BD70B50446051F00F008F90068002C03
:1008B00014BF446870BD002C18BFAC423CBF20463A
:1008C0006468F8D301680A18AA4218BF456003D1CA
:1008D0002A6805461144016028684119A1421CBFDD
:1008E0006C6070BD6168696021680844286070BDF3
:1008F00010B500F0E7F8006810BD10B5044600F030
:10090000E1F8046010BD2DE9F0470D469946924686
:10091000044600F124080168880604D5E06921F046
:100920001001216000E00120A84202DDA0EB0507D4
:1009300000E00027A16907EB050202EB0900A1EB2B
:100940000000A0612078C00602D42046FFF7F8FC22
:10095000002608E0D4E901211AF806009047206A31
:10096000401C761C20624E45F4DB2078C0060AD578
:100970002046FFF7E5FC06E0D4E90121302090474E
:10098000206A401C2062381EA7F10107F4DC07E052
:10099000D4E9012118F805009047206A401C206224
:1009A000281EA5F10105F3DC2046FFF7E0FC2078C6
:1009B000000602D50220BDE8F0870120FBE7000019
:1009C00001694A1C02610878704700B58FB0CDE913
:1009D00001310021059105497944CDE90310114603
:1009E0006846FFF705FE0FB000BD0000E5FFFFFF02
:1009F0000A6802F8010B0A60704710B5436913B129
:100A0000AFF3008001E0FFF7D6FC012010BD1278A3
:100A100000F124010A7000224A700122EDE71168FA
:100A20004FF0FF32E9E710B5436913B1AFF300802F
:100A300001E0FFF725FD012010BD128800F124011F
:100A400082840022C2840122EDE711684FF0FF3258
:100A5000E9E770B516460C46054600F027F803682E
:100A600093F80101012806D0FF2C0FD8185D68B15A
:100A700001202C7070BDD3F8070132462146034493
:100A80002846BDE8704003F2071318474FF0FF30C7
:100A900070BD10B500F06EF8BDE8104000F064B80D
:100AA00000F080B800487047B4E6012010B500F0AF
:100AB000B3F8001D10BD00BF11760000004870475C
:100AC000BCE6012000487047B4E60120704770473B
:100AD0007047704738B504460A4600206946AFF3B0
:100AE0000080002808BF38BD02460099204600F06B
:100AF00097F8012038BD012000F0D3B8F8B5AFF366
:100B00000080054600200C46102000BF0646A819AC
:100B1000A0420DD9324669460020AFF3008007009D
:100B200008BF00F0BEF80098A04218BF0546C419DF
:100B3000FFF7C4FF05600746F01D20F007004619C7
:100B4000284600F00AF8B44208BFF8BDA21B31469F
:100B50003868BDE8F84000F063B800210160C0E9E2
:100B60000110704710207047002801D000F028B80D
:100B70007047000010B5002102A000F079F80120B4
:100B800010BD00005349475056464E3A20507572EA
:100B900065207669727475616C20666E2063616C85
:100BA0006C65640010B500F086F8016919B1002287
:100BB0000261884701E08068804700F051F800003A
:100BC00001491820ABBEFEE7260002007546FFF77C
:100BD00069FFAE4605006946534620F0070085468A
:100BE00018B020B5FFF75CFBBDE820404FF00006D1
:100BF0004FF000074FF000084FF0000B21F0070105
:100C0000AC46ACE8C009ACE8C009ACE8C009ACE847
:100C1000C0098D467047000000487047D4E60120A7
:100C2000034640688C46002818BF88423CBF0346F4
:100C30004068F8D318681844884207D00CF10300C4
:100C400020F00700001D411A521A0146081D0A60D3
:100C5000FFF727BE0446AFF300802046FFF70BFBEB
:100C6000002000F059F8FFF7F8FA0120FFF7A8FF7D
:100C700070B505460C460A2000E06D1C00F040F8F7
:100C800035B128780028F8D102E0641C00F038F86B
:100C900014B120780028F8D1BDE870400A2000F097
:100CA0002FB810B500F040F8BDE81040FFF75CBF6A
:100CB00010B5FFF7D5FF70B500F02AF804680546B7
:100CC000A4B92020FFF7BEFD040011D0094900207F
:100CD0002C60C4E900010849A160207320616061B3
:100CE0000649A06109B100F087F8E061204670BDB7
:100CF000FFF7B6FF00000000B10C0F080000000075
:100D000008B569468DF800000320ABBE08BD7047EA
:100D100000487047F0E6012010B500F08BF8BDE800
:100D20001040FFF721BF000010B5012805D00021B9
:100D300003A0FFF79DFF012010BD09A1F8E7000007
:100D400053494752544D454D3A204F7574206F66B4
:100D50002068656170206D656D6F7279000000001C
:100D60003A2048656170206D656D6F727920636F00
:100D700072727570746564004FF0013C50F8042B7A
:100D800051F8043B9A4221D1A2EB0C03934313EA9E
:100D9000CC1317D150F8042B51F8043B9A4215D1CB
:100DA000A2EB0C03934313EACC130BD150F8042BA2
:100DB00051F8043B9A4209D1A2EB0C03934313EA86
:100DC000CC13DBD04FF00000704700BFD01A01BA3F
:100DD000B1FA81F101F0180122FA01F0CB40C1F122
:100DE0002001DBB2C0B2C01A2CFA01F3D11A914330
:100DF00011EAC311E6D1704710B58820FFF722FD34
:100E0000002801D00021017010BD802902D808B14E
:100E1000017809B100207047012100F8081B7047D4
:100E200018B100F10802914201D000207047002162
:100E30000170704710B5002102A0FFF719FF0120D3
:100E400010BD0000534947414252543A2041626E5E
:100E50006F726D616C207465726D696E6174696F1B
:100E60006E000000074A904201D2074801E00548A1
:100E70001038064A8B0001EA020101D5C1607047B3
:100E80008160704710640240006002407D0F7D0F5A
:100E90000029016802D041F0010101E021F00101C7
:100EA000016070472DE9F043016821F00101016004
:100EB0000021016041608160C160016121214161C7
:100EC0003C493C4A3D251039904202D18D60BDE835
:100ED000F083384A4FF474661832904201D18E6024
:100EE000F5E7344A4FF474173032904201D18F60E5
:100EF000EDE7304A4FF0746C4832904202D1C1F8AD
:100F000008C0E4E72B4B2C4A6033984201D1CA60F9
:100F1000DDE7284C294B7834A04201D1CB60D6E7DD
:100F2000DFF89080264C08F19008404501D1CC6054
:100F3000CDE7DFF880804FF03D5908F1A808404523
:100F400002D1C1F80C90C2E71E49DFF87880083959
:100F5000404501D10D60BAE71A4D1835A84201D1BC
:100F60000E60B4E7174D3035A84201D10F60AEE7EF
:100F7000144D4835A84202D1C1F800C0A7E7114D71
:100F800010496035091FA84201D10A609FE70D4A48
:100F90007832904201D10B6099E70A4A9032904230
:100FA00001D10C6093E7074AA83290428FD1C1F873
:100FB00000908CE7106002403D000020400F0020B0
:100FC00000003D20106402400246094B00209A4276
:100FD00001D2084A01E0064A103A8B0001D5526856
:100FE00000E01268044B1A400A4200D0012070470A
:100FF00010640240006002407D0F7D0F30B5036831
:10100000124ACC6813400A682243D1E905452C43B3
:101010002243CC6922430C6A22434C6A22438C6AE5
:1010200022434C6B22438C6B22431A430260426979
:1010300022F00703D1E90B2422431A4342610A69D3
:1010400042604A6882608968C16030BD3F801CF0A0
:1010500030B51A498379026853B30B6893430B6028
:101060000A1D13680468A343136002790A441368D5
:10107000046823431360114A083213680468A343C9
:101080001360131D1C680568AC431C604479102C68
:1010900005D021440A68006802430A6030BD116827
:1010A000046821431160196800680143196030BD6C
:1010B0000079084401689143016030BD003C014063
:1010C0004FF0204202EB80000029016802D041F07D
:1010D000010101E0014A114001607047FEFF0F006D
:1010E00030B5D0E901121143D0E903231A4311436B
:1010F00042690368114382691143C2691143026A5C
:101100001143426A1143826A1143C26A1143026B5E
:1011100011434FF0204242F823108168082906D17C
:10112000016802EB81010B6843F040030B60416BE7
:10113000D1E9003443EA04138C688D89240244EA1F
:10114000054423430C8A43EA04530C7D896943EA2E
:1011500004630B43016802EB81014B60C16AB1F586
:10116000804F07D000686FF0704102EB8000C0F83C
:10117000041130BD816B0068D1E9003443EA0413E7
:101180008C680D8A240244EA055423430C7D896946
:1011900043EA046302EB80000B43C0F8043130BD26
:1011A000F0B50023012403270D6804FA03F215406B
:1011B000954242D1D0F800C05E0007FA06F52CEA4D
:1011C000050CC0F800C091F804C0D0F800E00CFA9B
:1011D00006FC4CEA0E0CC0F800C091F804C0BCF14B
:1011E000010F02D0BCF1020F1FD1D0F808C02CEAC9
:1011F000050CC0F808C091F805C0D0F808E00CFA5A
:1012000006FC4CEA0E0CC0F808C0D0F804C02CEA6A
:10121000020CC0F804C0426891F806C00CFA03FC46
:101220001FFA8CFC42EA0C024260C268AA43C26008
:10123000CA79C568B2402A43C2605B1C102BB3D385
:10124000F0BD4B07DB0E9A40C90810B500EB8100DA
:10125000016A0F249C40A1430162016A11430162AB
:1012600010BD0246002012690A4200D001207047DA
:1012700002460020938A128B43EA024323F07F4206
:10128000914300D1012070470029818802D041F4A8
:10129000006101E021F400618180704700298188AC
:1012A00002D041F4805101E021F4805181807047E7
:1012B0000029018802D041F4807101E021F480719D
:1012C000018070470029018802D041F4007101E0DB
:1012D00021F40071018070470CB502460020009295
:1012E0000A0F21F07F41019202D0009A143202E0ED
:1012F000009A090C1832009212680A4200D00120AC
:101300000CBD00007FB5044680880D4620F03F06E6
:10131000684601F00DF926490298B0FBF1F189B257
:101320000E43A680228822F001022280214B2A68E7
:101330009A421BD85200B0FBF2F080B2042800D2CF
:101340000420491C2184A083208840F001002080D3
:1013500021884FF6F5300140A8886A891043084378
:101360002080A8892989084320817FBDEB88A3F5C7
:101370003F46FF3E05D102EB4202B0FBF2F080B2E5
:1013800008E002EBC20303EB0212B0FBF2F080B202
:1013900040F48040020501D140F001004FF4967204
:1013A00051434FF47A72B1FBF2F140F40040C8E7C8
:1013B00040420F00A08601002DE9F84F8246002030
:1013C000894600906946012000F0D6F9504D012170
:1013D0002846FFF763FF01212846FFF769FF4D4CC0
:1013E0004FF440564C4F266004E02068401E2060B9
:1013F000401C7CD039462846FFF76EFF0028F4D009
:1014000000225146284600F08FF8DFF81081266050
:1014100004E02068401E2060401C77D041462846EA
:10142000FFF726FF0028F4D04946284600F084F84C
:10143000DFF8E480DFF8E09008F17F0809F10309A4
:10144000266004E02068401E2060401C5ED04146BB
:101450002846FFF741FF28B949462846FFF73CFFD9
:101460000028EFD001212846FFF722FF266004E084
:101470002068401E2060401C48D039462846FFF7AF
:101480002BFF0028F4D001225146284600F04CF8EA
:101490002660234E04E02068401E2060401C35D0AA
:1014A00031462846FFF7E4FE0028F4D00121284603
:1014B000FFF7EAFE1B4E01213046FFF7E9FC164F0D
:1014C0004FF4C0401F37206004E02068401E2060B9
:1014D000401C1BD039463046FFF776FD0028F4D07B
:1014E00001212846FFF7EEFE0021304600E00DE026
:1014F000FFF7CEFC00212846FFF7C6FE39463046EE
:10150000FFF7B0FC9DF80000BDE8F88F0220FBE774
:101510000054004028E10120010000108200070073
:10152000020003001060024012B141F0010101E02D
:1015300001F0FE0101827047018270472DE9F84FEA
:101540008A46814600278DF800206946384600F01B
:1015500013F9414D01212846FFF7AAFE3F4C4FF4F5
:101560004056DFF8FC80266004E02068401E2060C2
:10157000401C6FD041462846FFF7AEFE0028F4D04D
:10158000002249462846FFF7CFFFDFF8D8802660C3
:1015900004E02068401E2060401C5BD04146284685
:1015A000FFF766FE0028F4D051462846FFF7C4FF37
:1015B000DFF8AC80DFF8A89008F17F0809F1030993
:1015C000266004E02068401E2060401C42D0414656
:1015D0002846FFF781FE28B949462846FFF77CFEDA
:1015E0000028EFD001212846FFF74EFEDFF8788073
:1015F00001214046FFF74CFC26604646DFF86C8030
:1016000004E02068401E2060401C23D04146304644
:10161000FFF7DAFC0028F4D04FF4C04020604C46BD
:1016200021462846FFF758FE0028F9D00121284618
:10163000FFF748FE00213046FFF72AFC002128462C
:10164000FFF722FE41463046FFF70CFC3846BDE866
:10165000F88FFFE70220FAE70054004028E101205C
:101660000100001082000700A0600240000020205E
:101670001FB500F0CBF80020ADF80400ADF808006D
:101680004FF48060ADF80A000001ADF80C004BF695
:10169000FF713748ADF80610009069463548FFF7EE
:1016A00031FE822000F048F910B1042004B010BDD2
:1016B000882000F041F908B10520F7E7822000F00A
:1016C0007BF9882000F078F901220721822000F0C0
:1016D0008BF801221146822000F01BF901221146ED
:1016E000822000F0DFF80021012000F0F5F900224F
:1016F0000C21882000F00DF901220C21882000F037
:10170000D1F803220C21882000F0DEF800F064F903
:1017100001220D21882000F067F801220421882091
:1017200000F0F7F800220121882000F0F2F80122F1
:101730000521882000F0B6F80021042000F0CCF943
:101740000021012000F0C8F90022F821882000F0D3
:10175000E0F80122F821882000F0A4F80322F82103
:10176000882000F0B1F800F095F900209EE7000015
:10177000A08601000054004030B50D46044601210A
:101780008FB0480500F098FE4FF0007000901448AC
:10179000CDE9010500210015CDE905100420CDE9B2
:1017A0000A100791089109910C910D910E91012C4D
:1017B0000FD0002C0BD1402003900120094C049045
:1017C0002046FFF76FFB69462046FFF717FC0FB076
:1017D00030BD0220034CCDE90310903CF0E700003F
:1017E00010540040A060024070B50C4616460546F5
:1017F0000421FFF7E1FD0EB1A04300E020430246C3
:1018000004212846FFF79AFE002070BD7CB5012117
:101810004C05204600F068FE01214FF4817000F075
:101820004BFE0121880300F077FE0121204600F0E5
:1018300067FE0021204600F063FE40200090022059
:101840008DF804008DF8050001208DF80600134D79
:1018500000248DF8074069462846FFF7A1FC68156B
:10186000009069462846FFF79BFC04220621284683
:10187000FFF7E7FC042209212846FFF7E2FC0420D9
:1018800000908DF804408DF8074069460448FFF742
:1018900087FC0221082001F0FFF87CBD0004024013
:1018A0000020024070B50C46164605461721FFF78A
:1018B00083FD0EB1204300E0A043024617212846D5
:1018C000FFF73CFE002070BD2DE9F0410D461646A5
:1018D00007461621FFF770FD044615213846FFF72D
:1018E0006BFD20EA050124EA05020C46F00700D052
:1018F0002A43B00701D541EA050416213846FFF70F
:101900001DFE224615213846FFF718FE0020BDE8CF
:10191000F08170B50C46164605461321FFF74CFDC5
:101920000EB1204300E0A043024613212846FFF7F2
:1019300005FE002070BD000010B500F02EF8A0F5E7
:101940000061113906D00448006808B1012010BDBB
:10195000022010BD002010BD28E1012010B5122189
:101960008820FFF729FD1F21B1EBD00F13D001060E
:1019700001D4012010BD410601D4022010BD810612
:1019800001D4032010BDC10601D4042010BD0007FE
:1019900001D4052010BD002010BD70B50546002102
:1019A000FFF70AFD4FF6FF7101EA002401212846E6
:1019B000FFF702FD204370BD10B50446022203214B
:1019C000FFF7BCFD022006F04DFB0022032120465C
:1019D000FFF7B4FD002010BD10B504218220FFF7F1
:1019E000EBFC20F0030204218220FFF7A7FD0A216F
:1019F0008220FFF7E1FC40F007020A218220FFF776
:101A00009DFD492220218220FFF798FD022006F04B
:101A100029FB012221218220FFF790FD172182203E
:101A2000FFF7CAFC20F01E0217218220FFF786FD77
:101A30009A2241218220FFF781FD01224A21822042
:101A4000FFF77CFD01224B218220FFF777FD00226A
:101A50004B218220FFF772FD012256218220FFF7E1
:101A60006DFD012258218220FFF768FD01224021EF
:101A70008220FFF763FDFF220B218220FFF75EFD2E
:101A800003480021C180818041800180084610BD4B
:101A900038E1012008B500208DF8000004218820DD
:101AA000FFF78AFC8DF800009DF8000020F0090087
:101AB0008DF800009DF8002004218820FFF73EFDEE
:101AC000012260218820FFF739FD03226021882050
:101AD000FFF734FD002008BD10B5C20701D08223F6
:101AE00003E010F0050F08D08823024639B1102119
:101AF0001846FFF723FD002010BD032010BD112163
:101B0000F6E700002DE9F05F5B4CDFF870A183463B
:101B1000C4E91601DAF8000016465746016958462E
:101B2000884705463146564804F0D2FC304603F05B
:101B3000C5FC8119524804F012FD5249504804F086
:101B40007BFD50494E48A83104F076FD4E494C4883
:101B500004F072FD4C494A48A83104F06DFD4B4930
:101B6000474804F069FD49494548A83104F064FD3F
:101B7000A4F1800000260670386803210268A06D79
:101B80009047C0B2424F4FF00109012824D087F896
:101B9000009000213C4804F025F97E7087F80290FF
:101BA000E06DB04638B3DAF800105646A1460A6830
:101BB0001C219047C4B230681D210268D9F85C002E
:101BC0009047C6B2D9F8580002F036FE314A0146B5
:101BD000002052F821100BE03E700121DAE7A2420A
:101BE00000D178700A5CB24200D1B870401CC0B21B
:101BF0000A5CFF2AF3D187F8038087F8048087F80E
:101C0000058087F8068087F8078087F8088087F8BE
:101C1000098087F80A8087F80B80584600F060F842
:101C200017491D48C1F80C010021154804F072FC49
:101C30000920B0EB157F1AD0C5F30360092816D030
:101C40000021124804F0CEF80A20B0EB157F10D026
:101C5000C5F303600A280CD000210C48A83004F01A
:101C6000C1F8BDE8F05F0021022000F0C3BE0121F1
:101C7000E7E70121F1E7000084E00120F4FF012003
:101C800068E1012078E20120C8E3012018E5012085
:101C9000A8E6012010A30F08CD490F0810B50E4C7F
:101CA000204604F07BFC04F5827005F047FA022020
:101CB00000F094FE094C6188084305D0002902D049
:101CC0006088401E608010BD0021084602F0D6FEEC
:101CD00004206080F4E7000068E1012004E00120B6
:101CE000002102F097BE00002DE9F14FC44D0527F9
:101CF000C44EDFF81493DFF81483002405F1850A3D
:101D00003068295D02681AF801100098904798F829
:101D1000003009EB83122B5D641CE4B222F813003F
:101D2000BC42EDD3B64D01270024DFF8E0A2ED1E42
:101D300005F1010B0AF1E00A3068295D02681BF821
:101D400001100098904798F800200AEBC2012A5D24
:101D5000641CE4B241F82200BC42EDD3454698F839
:101D60000000DFF8A48200EB400108F140084FF0CA
:101D7000000A18F821000124E8BB30680821026835
:101D80000098904729784F4609EB81118882306886
:101D90000C210268009890472A7800B207EB821164
:101DA00002EB420308EB83020883D278012A35D183
:101DB000B1F914200AB9002863D0524300FB002077
:101DC00000EE100AB8EEC00A05F029FABDEEC00A0E
:101DD000287810EE101A07EB80108187B0F91810E0
:101DE000B0F9140000EE101AF8EEC00A00EE100A66
:101DF000B8EEC00A00E019E005F013FADFED840A3E
:101E000020EE200ADFED830A297880EE201A07EB06
:101E10008111BDEEC10A10EE100AC887686E08B1C4
:101E200080F82040286F08B180F8204030680121F8
:101E300002680098904786B2070C56EA070008D05F
:101E40007548B0F80001012803D00121724804F060
:101E500061FB686B58B306B1BFB1704804F048F835
:101E6000696B884202D16D4804F0A7F8686B4CF2A8
:101E70001861428B8A421AD04183002103F081FF0E
:101E800012E0A1F83CA05A20C7E7002141830121BC
:101E900003F077FF614804F02BF8696B884203D0A8
:101EA00000215E4804F030F8686B80F82040287804
:101EB000514600EB400208EB8200730680F805A053
:101EC0004FF0020200D542717B0600D5447181714A
:101ED000F30600D58271FB0600D58471C171B3068B
:101EE00000D5C271BB0600D5C4710172F30700D0E2
:101EF0000272FB0700D00472330600D502723B0663
:101F000000D504724172730700D542727B0700D579
:101F100044728172B30700D58272BB0700D5847208
:101F2000C172310700D5C272390700D5C472696B1E
:101F3000F1B33349AA694379491D568B31F81330FF
:101F40009E4202D0538382F82040EA698379568BFF
:101F500031F813309E4202D0538382F820402A6A1F
:101F6000C379568B31F813309E4202D0538382F8E6
:101F700020406A6A037A568B31F813309E4202D0B1
:101F8000538382F82040AA6A437A568B31F8133083
:101F90009E4202D0538382F82040EA6A837A568BAD
:101FA00031F813309E4202D0538382F8204000E083
:101FB00009E02A6BC07A538B31F81000834202D0BB
:101FC000508382F82040286908B180F82040686971
:101FD00008B180F820400D488030C06C08B180F80E
:101FE0002040686D08B180F82040A86E08B180F8E4
:101FF0002040686F002801D080F82040BDE8F88FAD
:10200000B7A20F08F4FF012068E6012004E00120D8
:1020100000003443C3F5484068E1012020E301207B
:1020200030B50546002440F23F11204600F0F2F999
:102030004FF0D041222008804FF496304D80641C30
:102040008442FBD330BD00001CB50121782000F094
:1020500033FA4CF23370009002208DF804008DF8B2
:10206000050000208DF80600404C8DF807006946F9
:102070002046FFF795F80C2200212046FFF7E1F8F3
:102080000C2201212046FFF7DCF80C220421204617
:10209000FFF7D7F80C2205212046FFF7D2F80C22D3
:1020A00008212046FFF7CDF80C2209212046FFF732
:1020B000C8F80C220A212046FFF7C3F80C220E2193
:1020C0002046FFF7BEF80C220F212046FFF7B9F893
:1020D0004FF68070264C009069462046FFF760F866
:1020E0000C2207212046FFF7ACF80C2208212046DD
:1020F000FFF7A7F80C2209212046FFF7A2F80C22CF
:102100000A212046FFF79DF80C220B212046FFF7FD
:1021100098F80C2211462046FFF793F80C220D2167
:102120002046FFF78EF80C220E212046FFF789F893
:102130000C220F212046FFF784F801200D4C00905F
:1021400069462046FFF72CF80C2200212046FFF7B5
:1021500078F82015084C009069462046FFF720F8D3
:102160000C220A212046FFF76CF81CBD000C02402F
:10217000001002400014024000180240064B10B448
:102180005B68203AD2B21C68DB88534304EB4302FD
:1021900010BC00F003B8000040E101202DE9F0433D
:1021A000904689460026054600F034F94FF0D047A6
:1021B000184C29E02220388000201BE00C23B1FBC2
:1021C000F3F34FEAC30C802303FA0CF338F816C07C
:1021D000034113EA0C0F01D10C2906D901238340D6
:1021E0001CEA030F03D10C2901D9618800E0218882
:1021F0007980401C91888142E0D86D1CADB249467F
:10220000284600F007F9761C6268D088B042D1D821
:10221000BDE8F08340E101202DE9FC43002489461C
:1022200005461746ADF80040ADF8044001A96846E0
:1022300000F08EF84946284600F0ECF84FF0D04800
:10224000154E1FE022204346A8F80000002001227E
:10225000A2400BE037F810C01CEA020F18D0BDF8FE
:1022600000C000BFA3F802C0401CC0B2B1F804C057
:102270008445EFD86D1CEDB24946284600F0CAF8F7
:10228000641CE4B27168C888A042DBD8BDE8FC8356
:10229000BDF804C0E6E7000040E101202DE9F04769
:1022A000984617468A460646002400F0B3F82221D5
:1022B00010484FF0D045B8F1000F02D08946804653
:1022C00014E0298002E001886980641CBC42FAD3D2
:1022D000BDE8F087A5F80090B8F800006880761C8B
:1022E000B6B25146304600F095F8641CBC42F1D3BA
:1022F000EEE7000040E1012000B5012197B008465B
:1023000000F0E6F805200F9000200921CDE910012A
:10231000149004211590CDE9001012901021CDE900
:102320000201139004900590069009020790CDE9F0
:1023300008010A900B900C900FA80D900E90684623
:10234000FEF7CEFE01210420FEF7BAFE17B000BD55
:10235000024A1388038050880880704740E10120BA
:10236000014840687047000040E1012001207047AB
:102370002DE9F04F8046099FA1F23F11D01985B297
:10238000484280B2834601461E460024284600F09B
:1023900041F84FF0D0494FF0220A1DE041F2080108
:1023A000032000F051F84A46A9F800A0002005E0FB
:1023B00004FB060338F813105180401CB042F7D3D9
:1023C00041F21801032000F03FF86D1EADB25946EE
:1023D000284600F01FF8641CBC42DFD3BDE8F08F34
:1023E0004FF0D041088048887047000001B5BDF823
:1023F00000000149488008BD40E1012003B5BDF857
:10240000001003480180BDF8041041800CBD00009D
:1024100040E101200B4600B50146202000F014F8F1
:10242000194621205DF804EB00F00EB80149486020
:102430007047000040E1012001B5BDF800000149EE
:10244000088008BD40E101204FF0D042108051804B
:102450007047000070B50F21C478027801234FF057
:10246000E026E4B1124C246804F4E064C4F5E064AE
:10247000C4F30724C4F10405E1404478AC408578F6
:102480000D4025430B4C29011155007800F01F0128
:102490008B40400906EB8000C0F8003170BD02F0AF
:1024A0001F008340500906EB8000C0F8803170BDEA
:1024B0000CED00E000E400E0044A0029116801D0BE
:1024C000014300E081431160704700003038024052
:1024D000044A0029116801D0014300E081431160E2
:1024E0007047000038380240044A0029116801D0C2
:1024F000014300E081431160704700004038024012
:10250000044A0029116801D0014300E081431160B1
:102510007047000020380240044A0029116801D0A9
:10252000014300E0814311607047000044380240DD
:1025300070B5204A1168204C11F00C0104D01F4ED8
:10254000042903D0082903D004601BE0066019E0C9
:102550001849091F0B68C3F380550B6803F03F034C
:1025600015B1B6FBF3F301E0B4FBF3F30C680968B3
:10257000C4F388146343C1F30141491C4900B3FB10
:10258000F1F1016011680F2303EA11110C4B5C5C3F
:102590000168E14041601468072505EA94241C5D48
:1025A00021FA04F48460126805EA52329A5CD14040
:1025B000C16070BD083802400024F40040787D01FD
:1025C000ECE001202DE9F84F00200090FFF73CFDE2
:1025D000FFF792FE052005F053FD0020FFF700FFF6
:1025E000A0F513414FF480764FF4E06740F20223E8
:1025F00041F2B07540F2371840F239194FF4E85AF9
:1026000040F2023B41F21804009020397ED1F101E2
:10261000E520FFF719FF01210020FFF715FF3146E4
:102620000120FFF711FF39460220FFF70DFF41F2AD
:1026300030010320FFF708FF00210420FFF704FF0B
:1026400019460820FFF700FF00210920FFF7FCFED4
:1026500000210A20FFF7F8FE00210C20FFF7F4FE0E
:1026600000210D20FFF7F0FE00210F20FFF7ECFE08
:1026700000211020FFF7E8FE00211120FFF7E4FE03
:1026800000211220FFF7E0FE00211320FFF7DCFEFF
:10269000142005F0F5FC29461020FFF7D5FE414631
:1026A0001120FFF7D1FE052005F0EAFC4946122073
:1026B000FFF7CAFE052005F0E3FC51461320FFF7A3
:1026C000C3FE13212920FFF7BFFE052005F0D8FC2B
:1026D00000212020FFF7B8FE00212120FFF7B4FEE3
:1026E00006213020FFF7B0FE21113120FFF7ACFEAC
:1026F00003213220FFF7A8FEB11D3520FFF7A4FE0D
:1027000040F602313620FFF79FFE00E06BE05946AD
:102710003720FFF799FEF91D3820FFF795FE0721B6
:102720003920FFF791FE4FF4C0613C20FFF78CFE8B
:1027300040F20B213D20FFF787FE00215020FFF7DC
:1027400083FEEF215120FFF77FFE00215220FFF78B
:102750007BFE40F23F115320FFF776FE4FF41C51F1
:102760006020FFF771FE01216120FFF76DFE00215F
:102770006A20FFF769FE00218020FFF765FE002137
:102780008120FFF761FE00218220FFF75DFE00211E
:102790008320FFF759FE00218420FFF755FE00211A
:1027A0008520FFF751FE10219020FFF74DFE0021FC
:1027B0009220FFF749FE03219320FFF745FE4FF4D7
:1027C00088719520FFF740FE00219720FFF73CFE1F
:1027D00000219820FFF738FE21460320FFF734FE42
:1027E00040F27311EDE0A0F5134125397ED10121AE
:1027F0000020FFF729FE31460120FFF725FE39466C
:102800000220FFF721FE21460320FFF71DFE0021D5
:102810000420FFF719FE19460820FFF715FE0021D6
:102820000920FFF711FE00210A20FFF70DFE00210D
:102830000C20FFF709FE00210D20FFF705FE002107
:102840000F20FFF701FE00211020FFF7FDFD002102
:102850001120FFF7F9FD00211220FFF7F5FD0021FF
:102860001320FFF7F1FD142005F00AFC2946102083
:10287000FFF7EAFD41461120FFF7E6FD052005F0D0
:10288000FFFB49461220FFF7DFFD052005F0F8FBAE
:1028900051461320FFF7D8FD13212920FFF7D4FD5F
:1028A000052005F0EDFB00212020FFF7CDFD0021E4
:1028B0002120FFF7C9FD07213020FFF7C5FD59464C
:1028C0003120FFF7C1FD40F2051319463220FFF712
:1028D000BBFD40F2062529463520FFF7B5FD40F641
:1028E000080631463620FFF7AFFD00E06CE02946D0
:1028F0003720FFF7A9FD40F204513820FFF7A4FD6F
:1029000007213920FFF7A0FD19463C20FFF79CFD69
:1029100031463D20FFF798FD00215020FFF794FD40
:10292000EF215120FFF790FD00215220FFF78CFD91
:1029300040F23F115320FFF787FD4FF427416020FD
:10294000FFF782FD01216120FFF77EFD00216A2053
:10295000FFF77AFD00218020FFF776FD002181201E
:10296000FFF772FD00218220FFF76EFD002183201A
:10297000FFF76AFD00218420FFF766FD0021852016
:10298000FFF762FD10219020FFF75EFD00219220ED
:10299000FFF75AFD03219320FFF756FD4FF488718E
:1029A0009520FFF751FD00219720FFF74DFD0021F5
:1029B0009820FFF749FD21460320FFF745FD40F22F
:1029C00033110720FFF740FD0248A0F108014860DD
:1029D000BDE8F88F48E10120FEF74ABE0349044AEA
:1029E00031F8101052F82000FEF73BBC18A60F0873
:1029F0001CE1012070B5044625480E4686B050F80B
:102A000024000121FFF758FD01218803FFF784FD11
:102A10001F4800258DF8105038388DF8135030F8C5
:102A2000140003901B4803A950F82400FEF7B8FBDC
:102A3000012E2BD11648263810F81410801F10F8DC
:102A4000140000F029F81248323830F814000090D1
:102A50008DF804500CB10C2000E008208DF8050022
:102A600001258DF806506846FEF7F2FA084820382E
:102A700010F814008DF808000F208DF809008DF86B
:102A80000A008DF80B5002A8FFF7E4FC06B070BDF9
:102A900050A60F081CE1012010B58A0721F003049D
:102AA0000649130F21440F220C689A4094430C608E
:102AB0000A68984002430A6010BD000008380140CF
:102AC0000CB500202749019000900A6842F480323A
:102AD0000A604FF4A0430A6802F400320092019A9F
:102AE000521C0192009A12B9019A9A42F3D10A68D3
:102AF000920334D5012000901A484030026842F019
:102B0000805202601848026842F440420260154850
:102B1000083002680260026842F400420260026803
:102B200042F4A0520260031F104A1A600A6842F081
:102B300080720A600A689201FCD50D4A40F2057164
:102B40001160016821F003010160016841F0020198
:102B500001600168C1F381010229FAD10CBD009026
:102B60000CBD0000003802400070004019544007BE
:102B7000003C0240124810B5016841F47001016048
:102B80001048016841F0010101600E4A002108323D
:102B9000116002680C4B1A400260031D0B4A1A6058
:102BA000026822F48022026006480C300160FFF7C0
:102BB00087FF03494FF000608039086010BD0000B6
:102BC00088ED00E000380240FFFFF6FE10300024E0
:102BD0002DE9FE4F282004F02BFB03210091052353
:102BE0003B4A3CA104F0E8FA8246282004F020FB8E
:102BF0001E2100910523364A39A104F0DDFA8146F1
:102C0000282004F015FB3C2100910523304A3EA109
:102C100004F0D2FA8046282004F00AFB4B210091F0
:102C200005232B4A41A104F0C7FA0746282004F0E7
:102C3000FFFA5A2100910523254A45A104F0BCFA68
:102C40000646282004F0F4FAB42100910523204A16
:102C500048A104F0B1FA0546282004F0E9FA7321EE
:102C6000009105231A4A4B4904F0A6FA044651463E
:102C7000174803F00EF94946154803F00AF9414692
:102C8000134803F006F93946114803F002F93146BA
:102C90000F4803F0FEF829460D4803F0FAF82146E4
:102CA0000B4803F0F6F8282004F0C2FA08499623EE
:102CB000F7228DE80E0038492C234822096802F0DB
:102CC00025FC03B00146BDE8F04F014803F0E1B830
:102CD00078E2012048656C70205061676500000053
:102CE00055736520746865206A6F79737469636BC6
:102CF00020746F20776F726B2077697468204C4363
:102D000044204755490000002D55502F444F574E41
:102D100020746F206D6F7665206265747765656ECF
:102D200020636F6E74726F6C730000002D4C45460B
:102D3000542F524947544820746F206D6F76652098
:102D40006265747765656E20706167657300000069
:102D50002D53454C20746F20696E746572616374E5
:102D600020776974682074686520636F6E74726F71
:102D70006C000000436F7079726967687420535467
:102D80004D6963726F656C656374726F6E696373AE
:102D900000000000C2A20F0800E001202DE9F04F62
:102DA00087B00021FE4803F01DF8282004F040FA07
:102DB0000021FB4A0B460091A832FAA104F0FCF96D
:102DC0000746282004F034FAF54A4FF0140B0A2382
:102DD000A832FAA1CDF800B004F0EEF9054638208B
:102DE00004F026FA2121EE4A00910A23A832F6497E
:102DF00004F0F8F8F54C6060282004F019FADFF8C8
:102E0000A083352308F1A8080A21CDF80080CDE978
:102E100001133C239B22EEA104F030F90646282042
:102E200004F006FA112100910F233246EDA104F0BF
:102E3000C3F90490282004F0FBF9252100910F2309
:102E40003246EBA104F0B8F90590382004F0F0F90F
:102E50006E22CDE900624FF00F09CDF8089022787C
:102E600008F5527A0AEB82110323E4A202F06CFE09
:102E70002061382004F0DCF923216E220096CDE990
:102E80000121227803230AEB8211891CDBA202F0C4
:102E90005BFE6061282004F0CBF9CD23CDE90083EF
:102EA000CDF808B0AA236422D5A104F0E7F8039076
:102EB000282004F0BDF90523CDF80090D2A1039A93
:102EC00004F07AF9A061282004F0B2F921210091E0
:102ED0000523D0A1039A04F06FF9E061282004F0E3
:102EE000A7F9332100910523CDA1039A04F064F9D9
:102EF0002062282004F09CF9452100910523CBA1F4
:102F0000039A04F059F96062282004F091F95721DE
:102F100000910523C8A1039A04F04EF9A06228206D
:102F200004F086F9692100910523C6A1039A04F0F3
:102F300043F9E062282004F07BF97B21009105230E
:102F4000C3A1039A04F038F92063302004F070F92B
:102F50008D2100910A23C1A1039A02F0EDFBC24921
:102F6000606341624CF218614183002102F009FF65
:102F70004046616B02F08DFF3946404602F089FF02
:102F80002946404602F085FF4046616802F081FF15
:102F9000207808F5627700EB400017F82010606891
:102FA00003F0E5FEB14804F1800500680169A86DF1
:102FB0008847C0067BD5282004F03AF973230A21FC
:102FC000CDF80080CDE901133C23BE22A8A104F076
:102FD00055F88046282004F02BF911210091052393
:102FE0004246A7A104F0E8F88246282004F020F920
:102FF0002521009105234246A2A104F0DDF8814677
:10300000382004F015F90446A86D01F015FCDFF82E
:10301000B8B121230BF10C0B42465BF820100F20B6
:103020000090204603F0DEFF684CA060382004F0DA
:10303000FFF80190A86D01F0FFFB5BF82010232042
:10304000009021234246019803F0CCFFE060414606
:10305000A7F5627002F01DFF5146A7F5627002F0FD
:1030600018FF4946A7F5627002F013FFA7F56270DA
:10307000A16802F00EFFA7F56270E16802F009FF97
:10308000207800EB400007EB80004178A06803F057
:103090006EFE207800EB400007EB80008178E0684E
:1030A00003F065FEA16878484862E16848623C48E0
:1030B0003146A83002F0EDFE39480499A83002F0FC
:1030C000E8FE37480599A83002F0E3FE3F4C34484B
:1030D000A830216902F0DDFE31486169A83002F0B4
:1030E000D8FE0021206902F04CFE0021606902F048
:1030F00048FE5E4800680169A86D88470221B1EB6F
:10310000107F03D0C0F30360022813D1302004F0F5
:103110008FF8B221224A00910A23A8325BA102F063
:103120000BFB014628641E48A83002F0B2FE296C51
:103130005B4848621A480399A83002F0AAFE184872
:10314000A169A83002F0A5FE1548E169A83002F097
:10315000A0FE1348216AA83002F09BFE1048616A65
:10316000A83002F096FE0E48A16AA83002F091FE47
:103170000B48E16AA83002F08CFE0948216BA830A8
:1031800002F087FE2078A26900EB400007EB800187
:103190000D484B79283830F8133053838B7981E010
:1031A00078E20120436F6E66696775726174696FBA
:1031B0006E20616E64206465627567004374726C92
:1031C000206D6F6465000000E4A20F0804E0012098
:1031D000506F77657220626F6172642073746174DE
:1031E0007573000044432042757320766F6C740041
:1031F0004865617473696E6B20542E00253364003A
:103200004661756C747300004F76657263757272F7
:10321000656E74005265767570206661696C000099
:103220005370656564206664626B000053572065C7
:1032300072726F7200000000556E64657220766FC6
:103240006C7400004F76657220766F6C740000001D
:103250004F7665722074656D700000004661756C74
:10326000742061636B000000B5490F08F4FF012072
:103270004441432053657474696E67730000000015
:103280004368310043683200D14D0F08456E636FCB
:1032900064657220616C69676E6D656E7400000014
:1032A000414E0F08E26930F813305383CB79226A1C
:1032B00030F8133053830B7A626A30F8133053833B
:1032C0004B7AA26A30F8133053838B7AE26A30F873
:1032D00013305383C97A226B30F811005083616830
:1032E0000348486207B00348BDE8F04F02F065BEEE
:1032F000F9510F0820E301202DE9F04F89B0282073
:1033000003F096FF00210B460091FE4AFEA103F058
:1033100053FF0390282003F08BFFFA494FF0140A63
:103320000A238DE80A045A239122FCA103F0A6FE89
:103330000746282003F07CFF1E2100913C233A46DB
:10334000F9A103F039FF0490282003F071FF412117
:1033500000913C233A46F5A103F02EFF059028206A
:1033600003F066FF0F21009105233A46F0A103F018
:1033700023FF8346402003F05BFF1E2105220097B8
:10338000CDE90121EE490623A1F1E004227801EB09
:10339000C201ECA203F07CF8DFF8AC830646A06320
:1033A000D8F8000004F1800540210268A86D90471C
:1033B0008146D8F800003F210268A86D9047C6E911
:1033C0000E90282003F034FF3221009105233A4665
:1033D000DEA103F0F1FE0690382003F029FF412121
:1033E00005220097CDE90121DFF8709322780623AA
:1033F00009EB8211091DD3A202F0A6FB47F6FF726A
:103400000021E06302F072FB302003F011FF412144
:1034100000915A233A46D2A102F08EF9D249206493
:10342000416201F0A1F9282003F002FFB54973239E
:103430000A228DE80E004B236822CCA103F01EFE69
:103440000646282003F0F4FE0A233246CAA1CDF82E
:1034500000A003F0B1FE0790282003F0E9FE23212D
:1034600000910A233246C5A103F0A6FE0890382039
:1034700003F0DEFE51464FF0280A0096CDE901A187
:103480002278062309EB8211891DAEA202F05CFBB3
:103490006064382003F0CCFE23210096CDE901A121
:1034A0002278062309EB82110831A6A202F04CFB18
:1034B000A0649448039902F0ECFC9248049902F04D
:1034C000E8FC9048059902F0E4FC39468D4802F08A
:1034D000E0FC59468B4802F0DCFC8A48A16B02F004
:1034E000D8FC8848069902F0D4FC8648E16B02F0CB
:1034F000D0FC8448216C02F0CCFC8248696C02F05C
:10350000C8FC8048A96C02F0C4FC7E48E96C02F05B
:10351000C0FC7C48696D02F0BCFC0021E86C02F044
:1035200030FC7848296D02F0B4FC3146754802F051
:10353000B0FC7448079902F0ACFC7248089902F09C
:10354000A8FC7048616C02F0A4FC6E48A16C02F00B
:10355000A0FCD8F800000169A86D884780072AD52B
:10356000282003F065FE32270A23324684A1009703
:1035700003F022FE0546382003F05AFECDE9006A2A
:1035800002972278062309EB82110A316DA202F01C
:10359000DBFAE06429465B4802F07BFC5948E16CA9
:1035A00002F077FC47F6FF720021E06C02F09EFA11
:1035B000616C7448486247F6FF752A460021606CCA
:1035C00002F094FA2A460021A06C02F08FFAD8F893
:1035D000000001695A486038806D8847C0077DD077
:1035E000282003F025FE474973237D228DE80E0035
:1035F0004B23B42264A103F041FD0546282003F0CB
:1036000017FE0E260A232A4663A1009603F0D4FD76
:103610008346282003F00CFE50232A465EA1009624
:1036200003F0CAFD8246382003F002FE0A22CDE9EB
:1036300000521927029721784E4609EB81110C316F
:10364000042357A202F080FA2065382003F0F0FD31
:103650005022CDE9005202972178042306EB811114
:103660000E314FA202F070FA6065282003F0E0FDF1
:103670002C270A232A4640A1009703F09DFD80468F
:10368000282003F0D5FD50232A463CA1009703F0E3
:1036900093FD0746382003F0CBFD0A22CDE9005206
:1036A0004FF03709CDF808902178062306EB8111F9
:1036B000103124A202F048FAA065382003F0B8FDCA
:1036C0005022CDE90052CDF808902178062306EB70
:1036D000811112311BA202F037FA00E092E0E0659E
:1036E0002946084802F0D5FB5946064802F0D1FBAE
:1036F0005146044802F0CDFB0248216D02F0C9FB9F
:1037000000484FE0C8E30120537065656420636F93
:103710006E74726F6C6C65720000000053657420EB
:10372000706F696E7400000072706D006D73000040
:1037300054617267657420737065656400000000F1
:10374000E4E0012025366400F4FF012052616D7031
:10375000206475726174696F6E00000068E6012074
:10376000457865630000000091520F0850494420DD
:103770004761696E730000004B5000004B49000028
:103780004B440000A54B0F08466C757820776C2ED3
:103790002074756E696E670042555380000000000A
:1037A00025346400616D02F074FB0021606D02F04D
:1037B000E8FA4146194802F06CFB3946174802F016
:1037C00068FB1648A16D02F064FB1448E16D02F03D
:1037D00060FB4FF47A720021206D02F087F947F602
:1037E000FF752A460021A06D02F080F92A460021CB
:1037F000E06D02F07BF9216D09484862A16D4862D5
:10380000E16D4862616C06484862A16C486209B08B
:103810000248BDE8F04F02F0D0BB0000C8E3012031
:10382000A54B0F082DE9F04F8BB0282003F000FDC9
:1038300000210B460091FE4AFEA103F0BDFC03905F
:10384000282003F0F5FC87210091E623F84AFEA129
:1038500003F0B2FC0490282003F0EAFC4FF00A09C0
:10386000F34DCDE900594FF014085A239122F8A1E5
:10387000CDF8088003F002FC0646282003F0D8FCAF
:103880000F21009105233246F4A103F095FCF54C7D
:103890002066382003F0CCFC1E2105220096CDE9DD
:1038A0000121227805F5FC7101EB82111431062308
:1038B000EDA202F049F96066282003F0B9FC0F215F
:1038C000009150233246E9A103F076FC05903820A0
:1038D00003F0AEFC1E2150270096CDE9017122783D
:1038E00005F5FC7101EB821116310623DEA202F010
:1038F0002BF9A066282003F09BFC4FF0320B052328
:103900003246DBA1CDF800B003F056FCE06638206B
:1039100003F08EFC412105220096CDE90121227899
:1039200005F5FC7101EB821118310623CEA202F0DD
:103930000BF92067282003F07BFC322100915023F3
:103940003246CDA103F038FC0690382003F070FC1D
:1039500041210096CDE90171227805F5FC7101EB5A
:1039600082111A310623C0A202F0EEF86067282007
:1039700003F05EFC73220095CDE901924B2368228F
:10398000BEA103F07BFB0746282003F051FC0A236D
:103990003A46BEA1CDF8008003F00EFC0790382017
:1039A00003F046FC4FF02809CDE90079CDF80880F6
:1039B000227805F5FC7101EB82111C310623AAA2C5
:1039C00002F0C2F8A067282003F032FC4FF0230A6F
:1039D0000A233A46AEA1CDF800A003F0EDFB089013
:1039E000382003F025FC8DE88006227805F5FC716F
:1039F00001EB82111E3106239BA202F0A5F8E067BD
:103A0000282003F015FC732178220095CDE90121CF
:103A10004B2368229FA103F031FB0546282003F0C9
:103A200007FC0A232A4699A1CDF8008003F0C4FBC5
:103A30000990382003F0FCFBCDE90059CDF808804F
:103A400098492278062301EB8211223186A202F0E6
:103A50007BF804F18008C8F80800282003F0E8FB90
:103A60000A232A468AA1CDF800A003F0A5FB0A90FC
:103A7000382003F0DDFB8DE820068A4922780623F2
:103A800001EB8211243178A202F05EF84146C86051
:103A9000302003F0CDFB73210091E623644A82A11C
:103AA00002F01CFC41468861382003F0C1FB9621DE
:103AB0000091E6235E4A7E4903F094FA4146C861CC
:103AC00000F052FE5A48039902F0E3F9584804996D
:103AD00002F0DFF93146564802F0DBF95448216E16
:103AE00002F0D7F95248616E02F0D3F950480599B7
:103AF00002F0CFF94E48A16E02F0CBF90021A06E82
:103B000002F03FF94A48E16E02F0C3F94848216FDC
:103B100002F0BFF94648069902F0BBF94448616FCC
:103B200002F0B7F90021606F02F02BF94046416CBA
:103B30003F4802F0AEF94046816C3D4802F0A9F9D9
:103B40004046C16C3A4802F0A4F94046416D3848FD
:103B500002F09FF940460021C06C02F012F9404685
:103B6000016D334802F095F9207800EB40014D4893
:103B7000403000EB8100394606792D4802F089F982
:103B80002B48079902F085F92948A16F02F081F9C5
:103B90002748089902F07DF92548E16F02F079F98C
:103BA000A16F44484862E16F434848624348006857
:103BB00001694046806D8847400747F6FF7A2CD55B
:103BC000282003F035FB0A233A463DA1CDF800B08A
:103BD00003F0F2FAC8F800004446382003F028FB4E
:103BE000204A8DE8800A2F491278062301EB8211C2
:103BF00020311DA201F0A8FF60600D48216802F08D
:103C000048F90B48616802F044F9524600216068A7
:103C100001F06CFF61682B484862124F54465246CF
:103C20000021B86F01F062FF22460021F86F4BE0DF
:103C300070E4012043757272656E7420636F6E7458
:103C4000726F6C6C65727300496E70757400000061
:103C500053657420706F696E74730000497120722F
:103C600065662E0004E001202536640049710000DD
:103C70004964207265662E00496400004971205035
:103C80004944204761696E73000000004B500000FA
:103C90004B490000496420504944204761696E73D4
:103CA0000000000068E601204C696E6B0000000017
:103CB00030A30F08254D0F08E14C0F08F4FF012039
:103CC0004B440000994C0F0801F010FF29465D4855
:103CD00002F0DFF85B48099902F0DBF844465948E6
:103CE000D8F8081002F0D5F856480A9902F0D1F831
:103CF0005448E16802F0CDF8534800680169A06DAE
:103D00008847DFF84881000731D5282003F090FA72
:103D10000A232A46AFF25801CDF800B003F04CFA5E
:103D20002061382003F084FA8DE8200A48493A7867
:103D300001EB821126310623AFF2D40201F004FF19
:103D400060614048216902F0A4F83E48616902F0D0
:103D5000A0F852460021606901F0C8FE002E56D03E
:103D60000021606902F00DF86169C1F824805546B0
:103D700052460021A06801F0B9FE2A460021E06801
:103D800001F0B4FE2F48A16902F083F82D48E169E3
:103D900002F07FF83878DFF8B89000EB400109F1C5
:103DA000400909EB8100C178E06902F0E0FF01F011
:103DB00087FAA5696A6A2AB195F8210010B13146DF
:103DC0002846904785F82C601EB30021A06801F0BA
:103DD000D8FF06B30021E06801F0D3FFE1691D4878
:103DE0004862A1691C484862786E1C4941623A6F7A
:103DF0001B495162A268C2F82480E268C2F824809C
:103E0000397801EB410219F8221031B113E0012198
:103E1000A7E70121DAE70121DDE7002101F0B1FF89
:103E2000094800680169A06D8847800603D4002115
:103E3000386F01F0A6FF0BB00248BDE8F04F02F06A
:103E4000BCB8000070E40120F4FF0120A54B0F086E
:103E500068E6012045540F08E94B0F08954F0F08FD
:103E6000594E0F082DE9F04FFF4887B00027006832
:103E7000FE4C0169A06D8847064609200025B0EB7D
:103E8000167F09D1282003F0D3F90023F84AF9A1BD
:103E9000009503F091F90746C6F30360092809D19C
:103EA000282003F0C5F90023F14AF9A1009503F099
:103EB00083F907467006DFF8B8B34FF028000BD53A
:103EC00003F0B6F914210A22CDF800B0CDE90121A2
:103ED0005A239122F7A10AE003F0AAF914210A2239
:103EE000CDF800B0CDE901215A239122F4A103F0CD
:103EF000C5F80546282003F09BF94FF00F0A05236B
:103F00002A46F0A1CDF800A003F056F9039038201E
:103F100003F08EF91E210522DFF850930095CDE9BC
:103F20000121A9F18009DFF8A08399F80020062378
:103F300008EB82112831E5A201F006FE206228205C
:103F400003F076F950232A46E1A1CDF800A003F052
:103F500033F90490382003F06BF91E214FF0500A1A
:103F60000095CDE901A199F80020062308EB821104
:103F70002A31D6A201F0E8FD606200F0F5FB394677
:103F8000BB4801F086FF2946B94801F082FFB848D6
:103F9000039901F07EFFB648216A01F07AFFB44828
:103FA000049901F076FFB248616A01F072FF700671
:103FB00058D5282003F03CF93221009105232A46E8
:103FC000C4A103F0F9F80390382003F031F941213E
:103FD00005220095CDE9012199F80010474608EB2C
:103FE000811130310623B9A201F0AEFD47F6FF7210
:103FF0000021A06201F07AFD282003F019F9322196
:10400000009150232A46B5A103F0D6F80490382039
:1040100003F00EF941210095CDE901A199F80010B6
:10402000062307EB81113231A8A201F08DFD47F67E
:10403000FF720021E06201F059FD8D48039901F003
:1040400028FF8B48A16A01F024FF8948049901F0F8
:1040500020FF8748E16A01F01CFFA16AA14848627D
:10406000E16A48628248616C01F013FF8048A16CEC
:1040700001F00FFF7E48E16C01F00BFF7C48616DA1
:1040800001F007FF0021E06C01F07BFE7848216D14
:1040900001F0FFFE0920B0EB167F7DD1282003F050
:1040A000C7F873230A21CDF800B0CDE901134B23E3
:1040B00040F227128CA102F0E1FF0546282003F010
:1040C000B7F814260A232A468BA1009603F074F849
:1040D0000390382003F0ACF8CDE9005A0296474629
:1040E00099F80010C84607EB81113431062377A2F6
:1040F00001F02AFD47F6FF720021206301F0F6FC73
:10410000282003F095F84FF023090A232A467DA1C1
:10411000CDF8009003F050F88346382003F088F87B
:10412000CDE9005ACDF8089098F80010062307EB67
:104130008111363165A201F007FD6063282003F08C
:1041400077F8322100910A232A4670A103F034F84F
:104150000490382003F06CF832210095CDE901A1DC
:1041600098F80010062307EB8111383157A201F0AF
:10417000EBFCA063282003F05BF8B4232A4665A17A
:10418000009603F019F80590382003F051F8E62165
:10419000CDE90051029600E0D4E098F80010032326
:1041A00007EB81113A315DA201F0CEFCE0632E48AD
:1041B000222100680268A06D9047421E0021E06B3A
:1041C00001F094FC282003F033F88C232A4654A1F4
:1041D000009602F0F1FF8246282003F029F88C2394
:1041E0002A4650A1CDF8009002F0E6FF98F80010A2
:1041F000064607EB811090F83A20A06D00F0B4FD60
:10420000E16B49484862216B48484862616B484805
:104210004862A16B474848625146154801F039FE93
:104220003146134801F035FE2946114801F031FEB0
:104230000F48039901F02DFE0D48216B01F029FE76
:1042400059460B4801F025FE0948616B01F021FE3B
:104250000748049901F01DFE0548A16B01F019FE05
:104260000348059968E00000F4FF012084E0012084
:1042700018E5012053656E736F726C65737320745B
:10428000756E696E672053544F202620504C4C00A9
:1042900053656E736F726C6573732074756E696E9F
:1042A000672053544F202620504C4C2028417578CD
:1042B0002900000053544F202620504C4C00000091
:1042C00053544F004731000068E601202536640052
:1042D00047320000504C4C204B500000504C4C20BA
:1042E0004B490000A54B0F0852657620757020746D
:1042F000756E696E670000004475726174696F6E57
:1043000000000000456E642073706400456E6420F8
:104310004971000053746167650000002533640033
:104320006D73000072706D00E5530F0821540F0883
:1043300075540F0899540F0801F0ABFD0748E16B65
:1043400001F0A7FD216A06484862616A486207B029
:104350000248BDE8F04F01F030BE000018E5012032
:10436000A54B0F082DE9F04FD148DFF8488387B0FF
:10437000006800250169D8F85800884707460A24D4
:104380000026B4EB177F09D1282002F051FF00234B
:10439000C94ACAA1009602F00FFF0546C7F30360A1
:1043A0000A2809D1282002F043FF0023C24ACBA1EA
:1043B000009602F001FF0546282002F039FFBE4BAF
:1043C000CDE9003414210291A3465A239122CDA1B4
:1043D00002F054FE0646282002F02AFF0F21009129
:1043E00005233246C8A102F0E7FE8146382002F0DC
:1043F0001FFF1E2105220096CDE90121AD49DFF8FE
:10440000B8A280390AF1A80A097806230AEB8111BB
:104410002C31BEA201F098FBC8F8200044462820A9
:1044200002F006FF0F21009150233246B8A102F09E
:10443000C3FE8046382002F0FBFE1E21502200966B
:10444000CDE901219B4906238039B0A209780AEB06
:1044500081112E3101F078FB606200F085F9294668
:10446000954801F016FD3146934801F012FD49468A
:10447000914801F00EFD9048216A01F00AFD414685
:104480008D4801F006FD8C48616A01F002FD8A4802
:10449000616C01F0FEFC8848A16C01F0FAFC8648D2
:1044A000E16C01F0F6FC8448616D01F0F2FC002142
:1044B000E06C01F066FC8048216D01F0EAFCBBEB8A
:1044C000177F7DD1282002F0B3FE7B4A0092732330
:1044D000CDE901B34B2340F227128EA102F0CEFDAD
:1044E0000546282002F0A4FE4FF014080A232A46AD
:1044F0008CA1CDF8008002F05FFE0390382002F01E
:1045000097FE4FF050096B4FCDE90059803FCDF831
:104510000880397856460AEB8111343106237BA294
:1045200001F012FB47F6FF720021206301F0DEFA72
:10453000282002F07DFE4FF0230A0A232A467CA1A0
:10454000CDF800A002F038FE8346382002F070FE5D
:104550008DE820063978062306EB811136316BA2EF
:1045600001F0F2FA6063282002F062FE322100912D
:104570000A232A4670A102F01FFE0490382002F0A0
:1045800057FE32210095CDE901913978062306EBDB
:10459000811138315DA201F0D7FAA063282002F022
:1045A00047FEB4232A4666A1CDF8008002F004FE3F
:1045B0000590382002F03CFEE622CDF8088000E0AD
:1045C0006BE0CDE900523978032306EB81113A31D3
:1045D0005DA201F0B9FAE063354822210068026863
:1045E000A06D9047421E0021E06B01F07FFA282069
:1045F00002F01EFE8C232A4654A1CDF8008002F062
:10460000DBFD8146282002F013FE8C232A4650A1B0
:10461000CDF800A002F0D0FD3978804606EB81107D
:1046200090F83A20A06D00F09FFBE16B494848628A
:10463000216B49484862616B48484862A16B484811
:10464000486249461C4801F024FC41461A4801F0E2
:1046500020FC2946184801F01CFC1748039901F07A
:1046600018FC1548216B01F014FC5946124801F062
:1046700010FC1148616B01F00CFC0F48049901F02B
:1046800008FC0D48A16B01F004FC0B48059901F0F2
:1046900000FC0948E16B01F0FCFB216A31484862EB
:1046A000616A486207B00448BDE8F04F01F085BC7C
:1046B000F4FF012084E00120C0E5012053656E7302
:1046C0006F726C6573732074756E696E67205354D6
:1046D0004F202620434F52444943000053656E73D8
:1046E0006F726C6573732074756E696E67205354B6
:1046F0004F202620434F52444943202841757829B2
:104700000000000053544F0047310000253664007C
:10471000473200005265762075702074756E696EA0
:10472000670000004475726174696F6E00000000DC
:10473000456E642073706400456E6420497100000A
:104740005374616765000000253364006D730000D9
:1047500072706D00E5530F0821540F0875540F084F
:1047600099540F08A54B0F083EB5282002F060FDB4
:10477000A0232349CDE90013142202925A23912247
:1047800020A102F07BFC214C6064282002F050FD47
:104790000F21009105231EA1626C02F00DFDA064A3
:1047A000402002F045FD0521626CCDE9002104F1B5
:1047B00060011E25A1F1E00202951278062301EBAB
:1047C000C201091D16A201F063FEE064302002F070
:1047D0002FFD41210091052312A1626C00F0ACFF76
:1047E0002065282002F024FD00953C2310A1626C76
:1047F00002F0E2FC6065216D0E4848623EBD00009B
:104800008CE101204D6F6E69746F720084E00120AD
:104810004D65617375726564207370656564000031
:104820002536640053746172742F53746F700000E6
:1048300072706D007D4A0F0870B531490024096817
:1048400009698847010E0E074FF009014FF00A026F
:104850004FF002034FF001050ED0B1EB107F03D1F2
:10486000C0F303660A2E17D0B2EB107F15D1C0F348
:104870000366092E10D010E0B1EB107F00D10124A7
:10488000B2EB107F00D10224B5EB107F02D0B3EB66
:10489000107F33D1032431E00624B1EB107F05D122
:1048A000C0F3036102290BD0012909D0C0F30361D1
:1048B000092906D1B3EB107F02D0B5EB107F00D1F0
:1048C0000424B2EB107F05D1C0F3036102290BD0A1
:1048D000012909D0C0F303610A2906D1B3EB107F87
:1048E00002D0B5EB107F00D105240B21B1EB107F76
:1048F00004D1C0F30360092800D10724204670BD0D
:10490000F4FF012010B5274801F025FB2548A83009
:1049100001F021FB244801F01EFB2348A83001F0E0
:104920001AFB224801F017FB2048A83001F013FBC6
:104930001F49002048608860C8600861486188613C
:10494000C861086248628862C86208634863886315
:10495000C863086448648864C864086548658865F5
:10496000C865086648668866C866086748678867D5
:10497000C8678031086048608860C8600861486125
:104980008861C861086248628862C86208634863D7
:104990008863C863086448648864C86408654865B7
:1049A00010BD000078E20120C8E3012018E50120D5
:1049B00004E00120034807210068C2680248806DB6
:1049C00010470000F4FF012084E0012010B50C46E0
:1049D000FFF798FF062C1CD2DFE804F003070B0F4B
:1049E0001317BDE81040FEF7F3B8BDE81040FEF71E
:1049F000D5B9BDE81040FEF77FBCBDE81040FEF71A
:104A000011BFBDE81040FFF72DBABDE81040FFF719
:104A1000A9BC10BD2DE9F047814616480E46134F3C
:104A2000DFF84C80002400EB8615395D662908D03C
:104A3000D8F80000026848469047411C01D025F88C
:104A40001400641CE4B2202CEFD3D8F80000042139
:104A5000026848469047084941F8360095F83A20E0
:104A600031464846BDE8F04700F07EB93CA30F0848
:104A7000F4FF012068E60120E4E001202DE9F04781
:104A8000414A424F424DA7F1400C2DED068B02F1F9
:104A9000800411782B6801EB41060CEB811017F8AC
:104AA0002680B8F1000F06D007EB8601C97859B10E
:104AB000012960D10EE0828833485B68E03050F80D
:104AC0003110A06D984756E0B0F91820B0F91410D5
:104AD0001B6A4EE0E1469046B0F93E0003F045FD0A
:104AE0009FED2C8B53EC182B03F06AFD9FED2B9B55
:104AF00053EC192B03F0B2FB41EC100B02F038FD24
:104B000098F80010B0EE40AA09EB8117F0EE60AA09
:104B1000B7F93C0003F029FD53EC1A2B03F050FDCC
:104B200003F0F4FC06B2B7F93E0003F01EFD53ECAF
:104B3000182B03F045FD53EC192B03F08FFB41ECD0
:104B4000100B02F081FD98F80010B0EE408A09EBDE
:104B50008110F0EE608AB0F93C0003F006FD53ECE2
:104B6000182B03F02DFD03F0D1FC01B2286832466A
:104B7000036AA06D984728680621C268A06DBDEC45
:104B8000068BBDE8F047104704E00120A8E60120AD
:104B9000F4FF01201F85EB51B81E09400000000002
:104BA000008066400D4B0C4A806A1B7802EB831232
:104BB000801A0B4A400852FA80F31B78662B0AD001
:104BC000C0B2105C074A126893680A46014603485F
:104BD0008030806D1847704768E6012004E00120AE
:104BE0003CA30F08F4FF01202DE9F041284E11F0FD
:104BF000FF052849307800EB400001EB800005718B
:104C000040D00021224C8034A06801F0BAF8C5B32E
:104C10000021E06801F0B5F8FDB11E4F3078403F4B
:104C200007EB8010B0F91C104184C28B8284028C87
:104C3000C284A06800F03EFE307807EB8010B0F927
:104C40002410E06800F036FE606930B1317807EB7F
:104C50008111B1F9261000F02DFEA068012680F820
:104C60002060E06880F820606069002807D06DB19E
:104C70005FF0000101F085F8606980F82060BDE810
:104C8000F08101E00121BDE70121C2E70121F1E747
:104C900004E00120A8E6012070B50D46FFF782FF71
:104CA0000D480E4A017801EB410002EB80000079CB
:104CB00000280FD0084C8034606900280AD0403AA0
:104CC00002EB8111CD84294600F01AFE60690121B2
:104CD00080F8201070BD000004E00120A8E601204B
:104CE00010B50C46FFF75EFF0C480D4A007800EB4C
:104CF000400102EB8101097900290ED0A2F14001A7
:104D000001EB801021468484044C8034E06800F07C
:104D1000F7FDE068012180F8201010BD04E00120BB
:104D2000A8E6012010B50C46FFF73CFF0C480D4AE1
:104D3000007800EB400102EB8101097900290ED0D7
:104D4000A2F1400101EB801021464484044C8034E0
:104D5000A06800F0D5FDA068012180F8201010BDEA
:104D600004E00120A8E60120F8B51546094A02EB47
:104D70008114094904F1380200920968931E121F38
:104D80008E692946B047E08E00EB40004000E08687
:104D9000F8BD000068E60120F4FF012038B5154693
:104DA000094A062302EB8112B2F9361091FBF3F1A6
:104DB0000BB2B2F9381000910449928E09684C691F
:104DC0002946A04738BD000068E60120F4FF012015
:104DD0002DE9F041164A054610461649007802F1C1
:104DE000800400EB400001EB80019368124E134FEA
:104DF000A06D9D420BD193F830504D70FFF71CFD14
:104E000056F820000021425D3868C3690BE0D26883
:104E100092F830508D70FFF70FFD56F820000121F9
:104E2000425D3868C369E06DBDE8F0411847000095
:104E300004E00120A8E6012010A30F08F4FF0120E0
:104E4000034808210068C2680248806D10470000CE
:104E5000F4FF012084E001202DE9F047464D474A48
:104E6000DFF81C91A2F140062DED068B05F18004C0
:104E7000287800EB400102EB810306EB8010DB7821
:104E8000002B4FD0012B72D1B046B0F93E0003F099
:104E90006CFB9FED3C8B53EC182B03F091FB9FEDCB
:104EA0003B9B53EC192B03F0D9F941EC100B02F0AA
:104EB0005FFB2978B0EE40AA08EB8117F0EE60AAFC
:104EC000B7F93C0003F051FB53EC1A2B03F078FBCD
:104ED00003F01CFB06B2B7F93E0003F046FB53ECAF
:104EE000182B03F06DFB53EC192B03F0B7F941ECD1
:104EF000100B02F0A9FB2978B0EE408A08EB811074
:104F0000F0EE608AB0F93C0003F02FFB53EC182B55
:104F100003F056FB03F0FAFA01B2D9F8000032466A
:104F2000036A09E012F82110154A136851B1B0F96B
:104F30001820B0F914101B6AA06DBDEC068BBDE8FB
:104F4000F047184719694F46A06D884780060ED56F
:104F50002878412106EB8010B0F918203868836862
:104F6000A06DBDEC068BBDE8F0471847FFE7BDEC30
:104F7000068BBDE8F087000004E00120A8E60120D0
:104F8000F4FF01201F85EB51B81E0940000000000E
:104F9000008066402DE9F0473A4D3B4ADFF8EC804F
:104FA000A2F140042DED068B05F18009287800EB75
:104FB000400102EB810104EB8010C978002954D034
:104FC00001295AD1B0F93E0003F0CFFA9FED308BA2
:104FD00053EC182B03F0F4FA9FED2F9B53EC192B95
:104FE00003F03CF941EC100B02F0C2FA2878B0EE65
:104FF00040AA04EB8017F0EE60AAB7F93C0003F07A
:10500000B4FA53EC1A2B03F0DBFA03F07FFA06B282
:10501000B7F93E0003F0A9FA53EC182B03F0D0FACD
:1050200053EC192B03F01AF941EC100B02F00CFBB6
:105030002878B0EE408A04EB8010F0EE608AB0F978
:105040003C0003F092FA53EC182B03F0B9FA03F08A
:105050005DFA01B2D8F800003246036AD9F8580068
:10506000BDEC068BBDE8F0471847B0F91820B0F941
:105070001410D8F80000036AF0E7BDEC068BBDE819
:10508000F087000004E00120A8E60120F4FF0120E1
:105090001F85EB51B81E09400000000000806640EB
:1050A00070B54D4D4D4A2DED068BA2F14004287888
:1050B00000EB400102EB810104EB8010C97831B1B3
:1050C00001294CD1B0F9141000294BD04CE0B0F9B3
:1050D0003E0003F04AFA9FED428B53EC182B03F08D
:1050E0006FFA9FED419B53EC192B03F0B7F841EC9D
:1050F000100B02F0A9FA2878B0EE40AA04EB801653
:10510000F0EE60AAB6F93C0003F02FFA53EC1A2B2C
:1051100003F056FA03F0FAF9B082B6F93E0003F054
:1051200024FA53EC182B03F04BFA53EC192B03F031
:1051300095F841EC100B02F01BFA2878B0EE408A8B
:1051400004EB8014F0EE608AB4F93C0003F00DFA31
:1051500053EC182B03F034FA03F0D8F92083BDEC9C
:10516000068B70BD028B82B3008B494310FB00108D
:1051700000EE100AB8EEC00A02F051F8BDEEC00A07
:10518000287810EE101A04EB80108187B0F91810FF
:10519000B0F9140000EE101AF8EEC00A00EE100A82
:1051A000B8EEC00A02F03DF8DFED110A297820EED2
:1051B000200ADFED100A04EB811180EE201ABDEE0B
:1051C000C10A10EE100AC887C9E7FFE700218187EE
:1051D0005A21C187C3E7000004E00120A8E60120AE
:1051E0001F85EB51B81E094000000000008066409A
:1051F00000003443C3F548402DE9F041204D224ED4
:1052000005F180042978686801EB41021D4990F896
:10521000300001F82200012807D001211B4800F0CE
:10522000E1FD30680122836825E0306802210268D0
:10523000A06D9047C0B930680921C268A06D904741
:10524000306829210268A06D90470E4F2978403FB1
:1052500007EB8111888230682A210268A06D90478F
:10526000297807EB811108830021084800F0BAFD76
:10527000306800228368A06DBDE8F0410321184723
:1052800004E00120A8E60120F4FF0120C8E301208A
:1052900009480849007801EB80118A880649E03105
:1052A00051F8301005480068436803488030806D2D
:1052B0001847000068E6012004E00120F4FF012007
:1052C0002DE9F0413B4C3C4F04252078A7F14006E6
:1052D00000EB400007EB800047F6FF78C07810B184
:1052E000012836D13EE035A1206E01F060FF35A1E6
:1052F000E06E01F05CFF2178606E06EB811202F136
:10530000140180F833508162216F18322F4E81F8DA
:1053100033508A6245464246314600F0E7FB2A4652
:105320003146206F00F0E2FB207800EB400017F8D8
:10533000200050B92648006801691E488030806D01
:105340008847800601D4002100E00121206F00F091
:1053500018FD616E012081F82000216F81F8200086
:10536000BDE8F0811BA1206E01F021FF1BA1E06EC2
:1053700001F01DFF2178606E06EB811202F13C0105
:1053800080F833508162236F891C424683F8335082
:105390009962002100F0AAFB40F267120021206F01
:1053A00000F0A4FB207800EB400017F82000002854
:1053B000CBD1C8E704E00120A8E6012049712072A2
:1053C00065662E004964207265662E000180FFFF2D
:1053D000F4FF0120416D702E202020004570732EB7
:1053E0004465670008460D4910B50B4A09780B4C17
:1053F00002EB811280345087C2B2A06DFFF7B4FC7B
:10540000216B012081F82000616B81F82000A16BE5
:1054100081F8200010BD000068E6012004E00120B2
:105420000748064A007802EB80129186014604483C
:1054300092F83A208030806DFFF7B0BC68E601201A
:1054400004E00120094910B508488039084A097864
:10545000C06901EB410102EB810190F83000C87096
:10546000FFF71EFEBDE81040FFF72ABF84E00120D1
:10547000A8E601200748064A007802EB8012D18690
:105480000146044892F83A208030806DFFF786BCD0
:1054900068E6012004E001200748064A007802EB94
:1054A000801211870146044892F83A208030806DBE
:1054B000FFF774BC68E6012004E0012001460020EB
:1054C0000A5C401CC0B2002AFAD17047F8B5044605
:1054D000406A0028204615D001F04CFA06462046C6
:1054E00001F026FA0546204601F0C1F9074620469C
:1054F00001F0BDF981B200963A0C2B46606A00F0CB
:105500004FFBF8BDBDE8F84001F019BA2DE9F041B4
:1055100006AD1E4617460C460ECD00F039FC05467A
:105520000748286032463946284601F0FAF96C628D
:1055300014B1012085F820002846BDE8F081000064
:10554000C0C20F0801F06FBE10B5002400F0E9F8EA
:1055500000B10124204610BD70B5426A0D460446D4
:105560004AB194F82C0030B12DB994F8210010B153
:1055700000212046904784F82C5070BD70B500245F
:105580000546052906D10021FFF7E6FF284601F070
:105590008DF90124284600F0C4F800B1012420460A
:1055A00070BD2DE9FC5F0646C069C1888588891DEC
:1055B0008CB2B06AFBF7E2F84543ED1DA9B2224672
:1055C000304601F0AEF9304601F051F985B230466F
:1055D00001F04DF9040C304601F0CCF9801E87B281
:1055E000304601F0A5F9801E1FFA80F8B6F81A902F
:1055F000304601F0BFF90190304601F099F9834639
:10560000304601F034F98246304601F030F94FEA75
:105610001A4180B2CDF800905A46019B00F060FB21
:10562000304600F07EF840B3304601F020F9801C8F
:1056300085B2304601F01BF90014801C84B2B6F824
:105640001A90304601F096F9401E82B2CDF80090D3
:10565000A4F10109681E1FFA89F180B2012300F04C
:105660001DFBB6F81AA0304601F062F9801E82B226
:105670001FFA89F1CDF800A011E0708B0090601C3A
:1056800081B205EB080080B201233A4600F006FB28
:10569000708B009008F1020082B2E01981B2002301
:1056A000284600F0FBFA708B00903B4642462146AC
:1056B000284600F015FB308B0090F81E82B2A01C2B
:1056C000814681B2A81C80B2012300F0E7FA96F867
:1056D000210008B11F2000E0308B0090A8F10200EB
:1056E00082B2BF1E641C681CBBB2A1B280B200F0C3
:1056F000F7FAB26AED1C02B01FFA89F1A8B2BDE850
:10570000F05F00F02BBB10B504460020052907D13F
:1057100001212046FFF720FF204601F0C7F80120B5
:1057200010BD90F82C1021B190F8210008B1012093
:10573000704700207047000070B51C4616460D46A5
:1057400022463146049B00F023FB084901600021FA
:10575000416280F82C100446012100F012FB012167
:10576000A562204684F8201070BD0000E4C20F0836
:1057700001F059BD70B5C46A0D4604B911A490F882
:105780003310062919D2DFE801F0180303070B0FC5
:1057900000F063F802460AE000F05FF882B206E02B
:1057A00000F05BF802B202E000F057F8C2B2214606
:1057B0002846BDE87040FAF7AFBD00F04EF842B29F
:1057C000F5E700002564000070B50E46044600258C
:1057D00000F0A2FD28B3A06A10B3012E02D0022E61
:1057E0001ED10DE094F83200218EFF28014421865D
:1057F00002D0401C84F83200204600F05DF90CE035
:1058000094F83200218EFF280144218602D0401CEA
:1058100084F83200204600F006F8204601F046F8F1
:105820000125284670BD10B5024600F016F8014665
:10583000B2F93000B2F93430091A8B4206DD80101B
:10584000108692F83200800882F8320092F8330015
:10585000BDE81040104600F02DB890F83310806A73
:1058600006290DD2DFE801F00C030305070A0068E2
:10587000704700887047B0F90000704700787047A3
:1058800090F90000704770B50E460446002500F000
:1058900043FD00B10125052E08D194F8230038B14D
:1058A000002084F82300204601F000F8284670BD4F
:1058B0000120F6E710B50246806A00281FD0B2F931
:1058C00034308B421BDCB2F936308B4217DB92F856
:1058D0003330022B04D0042B04D049B2017002E013
:1058E000016000E00180506A002808D01046FFF7F0
:1058F000B4FF536A0146BDE810401046184710BD7A
:1059000010B50246806A002814D0938E8B4211D8BD
:10591000D38E8B420ED392F833300170506A002838
:1059200008D01046FFF799FF536A0146BDE81040C2
:105930001046184710BD2DE9F0418AB004462021D9
:1059400001A8FAF73AFF658B204601F013F880466C
:10595000204600F0EDFF0646204600F088FF07468F
:10596000204600F084FF390C80B243463246009551
:1059700000F0B6F9258B204600F0FCFFC01E87B270
:10598000204600F074FF0646204600F070FF3114F8
:10599000891C801C89B280B201233A46009500F030
:1059A0007DF994F82100A0B1204600F0E3FF801EAD
:1059B00087B2204600F0BCFF801E86B2204600F071
:1059C00056FF0546204600F052FF1F210091291482
:1059D00014E0258B204600F0CDFF801E87B22046C4
:1059E00000F0A6FF801E86B2204600F040FF8046F1
:1059F000204600F03CFF4FEA28410095491C401C1E
:105A000089B280B23B46324600F06AF9204600F087
:105A100083FC50B194F8210038B14FF6E070ADF836
:105A20000000BDF80000FCF7E1FC94F8220038B952
:105A300047F6FF70ADF80000BDF80000FCF7D6FC9B
:105A4000A06A002812D001A92046FFF793FE204645
:105A500000F00DFF0546204600F009FF2914891CBF
:105A6000C01C89B280B201AA00F078F90AB0BDE882
:105A7000F08170B50E460446002500F04DFCC8B11B
:105A8000A06AB0B100200121012E02D0022E10D157
:105A900006E0218684F83200204600F00DF805E08B
:105AA000218684F832002046FFF7BDFE204600F034
:105AB000FDFE0125284670BD10B50246FFF7CDFE5C
:105AC0000146B2F93000B2F9363001448B4206DAB1
:105AD0008010108692F83200800882F8320092F826
