:020000040801F1
:10000000104F0020E50101085D521A00210201088D
:10001000F1010108F3010108F501010800000000E9
:10002000000000000000000000000000F7010108CF
:10003000F901010800000000FB010108FD010108B1
:10004000FF010108FF010108FF010108FF0101088C
:10005000FF010108FF010108FF010108FF0101087C
:10006000FF010108FF010108FF010108FF0101086C
:10007000FF010108FF010108FF010108FF0101085C
:10008000FF010108FF010108FF010108FF0101084C
:10009000FF010108FF010108FF010108FF0101083C
:1000A000FF010108FF010108FF010108FF0101082C
:1000B000FF010108FF010108FF010108FF0101081C
:1000C000FF010108FF010108FF010108FF0101080C
:1000D000FF010108FF010108FF010108FF010108FC
:1000E000FF010108FF010108FF01010800F002F80B
:1000F00000F068F80AA090E8000C82448344AAF15A
:100100000107DA4501D100F05DF8AFF2090EBAE857
:100110000F0013F0010F18BFFB1A43F0010318473B
:10012000F4C4000014C50000103A24BF78C878C198
:10013000FAD8520724BF30C830C144BF04680C60ED
:10014000704700000023002400250026103A28BF35
:1001500078C1FBD8520728BF30C148BF0B60704739
:10016000692900F00181642900F0FE80752900F002
:10017000FB806F2900F09281782900F0BB81036831
:10018000DB0928BF41F08001632900F0F083E329F7
:1001900000F00384002070471FB59DE8030000F0C5
:1001A0005DFC00F0E9FC04000020002107F0A6FA45
:1001B000401C606000F0DCFA1FBD10B5002006F0A6
:1001C000EBFC10BD00F0B2FC1146FFF7E5FF07F0B5
:1001D00021FA00F0EFFC03B4FFF7EFFF03BC00F0DF
:1001E0009FFC00000948804709480047FEE7FEE7FA
:1001F000FEE7FEE7FEE7FEE7FEE7FEE7FEE7FEE7D7
:1002000004480549054A044B70470000CD24010805
:10021000ED00010810370020104F0020104F002083
:1002200000B5FFB441464A4653465C4665463EB477
:100230000D496A460A600D4908600D4988473EBC71
:10024000884691469A46A346AC46FFBC00BD064888
:1002500001688D463EBC884691469A46A346AC4608
:10026000FFBC044800BD0000F04F0020F44F002008
:10027000F500010848BF01080FB41CB5074B06AADA
:100280007B4469460090059800F04FFB00206946CA
:1002900000F05EFB1CBC5DF814FB0000CD06000006
:1002A00070B5044685690068C10601D5302600E0B6
:1002B0002026C00708D070BDD4E901213046904700
:1002C000206A00F1010020626D1EF5D570BD70B589
:1002D000044685690078C00708D170BDD4E90121C2
:1002E00020209047206A00F1010020626D1EF5D5A4
:1002F00070BD09684A0501D540B27047C905FCD5F3
:1003000000B2704709684A0501D5C0B27047C905F7
:10031000FCD580B2704770B50C460546012A05D061
:100320002878800600D5EA69002302E0012305E071
:100330005B1C934202D2E05C0028F9D1A869E61860
:10034000C01AA861286A184428622846FFF7A8FF47
:1003500004E0D5E9012114F8010B9047B442F8D329
:100360002846FFF7B4FF70BD2DE9F0410646002492
:1003700010687529314616A511D0FFF7BAFF00287D
:1003800003DAC0F1000013A507E031688A0701D540
:1003900011A502E0490704D510A5012401E0FFF7EB
:1003A000B1FF00210A2306F1240707E0B0FBF3F2B6
:1003B00003FB1200303078541046491C0028F5D158
:1003C00023462A463046BDE8F04100F04CBA000012
:1003D000000000002D0000002B00000020000000A5
:1003E0002DE9FF5F15468A460446DFF8AC80F844E5
:1003F0000027D8E900103E46CDE9001011E03AF898
:1004000016106A4602A800F0D4FA411C07D02178E1
:10041000890603D5E269391891420ED8074406F1DE
:1004200001062078800602D5E069B84205DDAE42BB
:10043000E5DB3AF816000028E1D1A069C01BA061F5
:100440002046FFF72DFFD8E90010CDE9001000206D
:1004500016E03AF818106A4602A800F0AAFA814697
:10046000401C0BD000250DF1080B05E0D4E901215B
:100470001BF8050090476D1C4D45F7D308F10100AE
:10048000B0428046E5DB206A384420622046FFF710
:100490001EFFBDE8FF9F000066BB000070B504466C
:1004A00021461068FFF72EFF002104F1240508E023
:1004B00000F0070202F130026A5401F101014FEA33
:1004C000D0000028F4D10346206808A2050708D50B
:1004D00000F02000084304D0E069012304A2401E7C
:1004E000E0612046BDE8704000F0BDB900000000AA
:1004F0003000000070B504460D4621461068FFF735
:1005000001FF2188090502D5104A7A4402E00F4A0A
:100510007A440E32002104F1240307E000F00F06B4
:100520004FEA1010965D5E5401F101010028F5D1EB
:1005300003462078000704D5702D02D009B111328E
:1005400002232046BDE8704000F08DB952BA000089
:100550002DE9F05F894604464FF0000ADFF878B1D4
:10056000FB44C0F820A02046E1688847002875D0E9
:10057000252806D0D4E901219047206A401C20623A
:10058000F1E700265F462046E168884720280546B7
:1005900008DB312D06D207EB050010F8200C08B15E
:1005A0000643F0E7B00701D526F00406C4F81CA006
:1005B0000027C4F818A02A2D09D0284606F096FE78
:1005C00038B304EB8708303DC8F8185019E059F8E3
:1005D000041B204604EB87029161E1688847012FE4
:1005E000054618D1E069002820DA26F020061DE033
:1005F000D8F8180000EB800005EB40003038C8F850
:1006000018002046E1688847054606F06FFE00287E
:10061000EED1012F0AD02E2D08D12046E16888475F
:100620007F1C0546022F46F02006C4DBA069002887
:1006300003DA404246F00106A061F00701D026F03F
:1006400010066C2D0BD0682D09D04C2D39D06A2D99
:1006500035D0742D35D07A2D33D016E038E0E168EE
:100660002F4620468847B842054609D16C2F26D030
:100670004FF48060E168064320468847054604E061
:100680006C2F1AD04FF4807006430DB3A5F14100D2
:10069000192802D8203546F400664A4629462046E5
:1006A00026604E46FFF75CFD80B101280BD0F61D99
:1006B00026F0070000F1080955E74020E4E7802014
:1006C000D8E70020D6E706F104094CE7284651E7B1
:1006D000206ABDE8F09F000024BA000010B5431C5A
:1006E00002E010F8011B71B18107FAD14FF001321D
:1006F00002C88C1A8C4314EAC211F9D0C01A0A0637
:1007000003D0C01E10BDC01A10BD0A0401D0801E47
:1007100010BD0902FCD0401E10BD4FF0000200B514
:10072000134694469646203922BFA0E80C50A0E814
:100730000C50B1F12001BFF4F7AF090728BFA0E8C2
:100740000C5048BF0CC05DF804EB890028BF40F88E
:10075000042B08BF704748BF20F8022B11F0804FD0
:1007600018BF00F8012B70477047704770470000B2
:1007700070B5064C7C44064D7D4403E0206820445F
:100780008047241DAC42F9D170BD0000CCBF0000F1
:10079000CCBF000000487047E0360020004870479A
:1007A000E436002070B5064600F038F9056806F119
:1007B0000B0020F00704B4429CBF002070BD2B4604
:1007C0006A68BAB11068A04210D304F108018842E7
:1007D0003CBF5068586007D35168101941601168D8
:1007E000091B016058601460101D70BD13465268EB
:1007F000002AE7D12146284600F01CF90028DED166
:1008000070BD70B50446051F00F008F90068002CA3
:1008100014BF446870BD002C18BFAC423CBF2046DA
:100820006468F8D301680A18AA4218BF456003D16A
:100830002A6805461144016028684119A1421CBF7D
:100840006C6070BD6168696021680844286070BD93
:1008500010B500F0E7F8006810BD10B5044600F0D0
:10086000E1F8046010BD2DE9F0470D469946924627
:10087000044600F124080168880604D5E06921F0E7
:100880001001216000E00120A84202DDA0EB050775
:1008900000E00027A16907EB050202EB0900A1EBCC
:1008A0000000A0612078C00602D42046FFF7F8FCC3
:1008B000002608E0D4E901211AF806009047206AD2
:1008C000401C761C20624E45F4DB2078C0060AD519
:1008D0002046FFF7E5FC06E0D4E9012130209047EF
:1008E000206A401C2062381EA7F10107F4DC07E0F3
:1008F000D4E9012118F805009047206A401C2062C5
:10090000281EA5F10105F3DC2046FFF7E0FC207866
:10091000000602D50220BDE8F0870120FBE70000B9
:1009200001694A1C02610878704700B58FB0CDE9B3
:1009300001310021059105497944CDE903101146A3
:100940006846FFF705FE0FB000BD0000E5FFFFFFA2
:100950000A6802F8010B0A60704710B5436913B1C9
:10096000AFF3008001E0FFF7D6FC012010BD127844
:1009700000F124010A7000224A700122EDE711689B
:100980004FF0FF32E9E710B5436913B1AFF30080D0
:1009900001E0FFF725FD012010BD128800F12401C0
:1009A00082840022C2840122EDE711684FF0FF32F9
:1009B000E9E770B516460C46054600F027F80368CF
:1009C00093F80101012806D0FF2C0FD8185D68B1FB
:1009D00001202C7070BDD3F8070132462146034434
:1009E0002846BDE8704003F2071318474FF0FF3068
:1009F00070BD10B500F06EF8BDE8104000F064B8AE
:100A000000F080B800487047AC36002010B500F008
:100A1000B3F8001D10BD00BFE56C00000048704732
:100A2000B436002000487047AC360020704770474D
:100A30007047704738B504460A4600206946AFF350
:100A40000080002808BF38BD02460099204600F00B
:100A500097F8012038BD012000F0D3B8F8B5AFF306
:100A60000080054600200C46102000BF0646A8194D
:100A7000A0420DD9324669460020AFF3008007003E
:100A800008BF00F0BEF80098A04218BF0546C41980
:100A9000FFF7C4FF05600746F01D20F00700461968
:100AA000284600F00AF8B44208BFF8BDA21B314640
:100AB0003868BDE8F84000F063B800210160C0E983
:100AC0000110704710207047002801D000F028B8AE
:100AD0007047000010B5002102A000F079F8012055
:100AE00010BD00005349475056464E3A205075728B
:100AF00065207669727475616C20666E2063616C26
:100B00006C65640010B500F086F8016919B1002227
:100B10000261884701E08068804700F051F80000DA
:100B200001491820ABBEFEE7260002007546FFF71C
:100B300069FFAE4605006946534620F0070085462A
:100B400018B020B5FFF75CFBBDE820404FF0000671
:100B50004FF000074FF000084FF0000B21F00701A5
:100B6000AC46ACE8C009ACE8C009ACE8C009ACE8E8
:100B7000C0098D467047000000487047CC36002001
:100B8000034640688C46002818BF88423CBF034695
:100B90004068F8D318681844884207D00CF1030065
:100BA00020F00700001D411A521A0146081D0A6074
:100BB000FFF727BE0446AFF300802046FFF70BFB8C
:100BC000002000F059F8FFF7F8FA0120FFF7A8FF1E
:100BD00070B505460C460A2000E06D1C00F040F898
:100BE00035B128780028F8D102E0641C00F038F80C
:100BF00014B120780028F8D1BDE870400A2000F038
:100C00002FB810B500F040F8BDE81040FFF75CBF0A
:100C100010B5FFF7D5FF70B500F02AF80468054657
:100C2000A4B92020FFF7BEFD040011D0094900201F
:100C30002C60C4E900010849A16020732061606153
:100C40000649A06109B100F087F8E061204670BD57
:100C5000FFF7B6FF00000000110C010800000000C3
:100C600008B569468DF800000320ABBE08BD70478B
:100C700000487047E836002010B500F08BF8BDE85A
:100C80001040FFF721BF000010B5012805D000215A
:100C900003A0FFF79DFF012010BD09A1F8E70000A8
:100CA00053494752544D454D3A204F7574206F6655
:100CB0002068656170206D656D6F727900000000BD
:100CC0003A2048656170206D656D6F727920636FA1
:100CD00072727570746564004FF0013C50F8042B1B
:100CE00051F8043B9A4221D1A2EB0C03934313EA3F
:100CF000CC1317D150F8042B51F8043B9A4215D16C
:100D0000A2EB0C03934313EACC130BD150F8042B42
:100D100051F8043B9A4209D1A2EB0C03934313EA26
:100D2000CC13DBD04FF00000704700BFD01A01BADF
:100D3000B1FA81F101F0180122FA01F0CB40C1F1C2
:100D40002001DBB2C0B2C01A2CFA01F3D11A9143D0
:100D500011EAC311E6D1704710B58820FFF722FDD4
:100D6000002801D00021017010BD802902D808B1EF
:100D7000017809B100207047012100F8081B704775
:100D800018B100F10802914201D000207047002103
:100D90000170704710B5002102A0FFF719FF012074
:100DA00010BD0000534947414252543A2041626EFF
:100DB0006F726D616C207465726D696E6174696FBC
:100DC0006E00000030B51A498379026853B30B688E
:100DD00093430B600A1D13680468A34313600279F0
:100DE0000A441368046823431360114A08321368E5
:100DF0000468A3431360131D1C680568AC431C60A2
:100E00004479102C05D021440A68006802430A6026
:100E100030BD1168046821431160196800680143FE
:100E2000196030BD0079084401689143016030BD0C
:100E30000004014010B58A0721F003040649130F8E
:100E400021440F228C689A4094438C608A689840B1
:100E500002438A6010BD000000000140F0B5CA786E
:100E6000002502F00F03D20601D58A7813430C78CF
:100E70004FF00F0E0122ECB1D0F800400F8802FABB
:100E800005F63740B74211D14FEA850C0EFA0CF740
:100E900024EA070703FA0CF43C43CF78282F02D04A
:100EA000482F02D002E0466100E006616D1C082D6B
:100EB000E4D304600C88FF2C1ED944685FF0000660
:100EC00006F1080702FA07F50F882F40AF420FD14D
:100ED0004FEA860C0EFA0CF7BC4303FA0CF73C43BE
:100EE000CF78282F00D14561CF78482F00D10561F8
:100EF000761C082EE4D34460F0BD024600209268C0
:100F00000A4200D0012070470AB101617047416177
:100F1000704700002DE9F05F5B4CDFF870A183465D
:100F2000C4E91601DAF8000016465746016958462A
:100F3000884705463146564804F02CFF304603F0FA
:100F40001FFF8119524804F06CFF5249504804F0C9
:100F5000D5FF50494E48A83104F0D0FF4E494C48C7
:100F600004F0CCFF4C494A48A83104F0C7FF4B4974
:100F7000474804F0C3FF49494548A83104F0BEFF83
:100F8000A4F1800000260670386803210268A06D75
:100F90009047C0B2424F4FF00109012824D087F892
:100FA000009000213C4804F07FFB7E7087F802909F
:100FB000E06DB04638B3DAF800105646A1460A682C
:100FC0001C219047C4B230681D210268D9F85C002A
:100FD0009047C6B2D9F8580003F0D4F8314A014618
:100FE000002052F821100BE03E700121DAE7A24206
:100FF00000D178700A5CB24200D1B870401CC0B217
:101000000A5CFF2AF3D187F8038087F8048087F809
:10101000058087F8068087F8078087F8088087F8BA
:10102000098087F80A8087F80B80584600F060F83E
:1010300017491D48C1F80C010021154804F0CCFEE9
:101040000920B0EB157F1AD0C5F30360092816D02C
:101050000021124804F028FB0A20B0EB157F10D0C5
:10106000C5F303600A280CD000210C48A83004F016
:101070001BFBBDE8F05F0021022001F085B90121D2
:10108000E7E70121F1E7000084300020F44F002061
:101090006031002070320020C03300201035002065
:1010A000A0360020D0A001081943010810B50E4C4D
:1010B000204604F0D5FE04F5827005F0A3FC022062
:1010C00001F056F9094C6188084305D0002902D087
:1010D0006088401E608010BD0021084603F074F94E
:1010E00004206080F4E7000060310020043000201C
:1010F000002103F035B900002DE9F14FC14D05275E
:10110000C14EDFF80893DFF80883002405F1850A53
:101110003068295D02681AF801100098904798F825
:10112000003009EB83122B5D641CE4B222F813003B
:10113000BC42EDD3B34D01270024DFF8D4A2ED1E4D
:1011400005F1010B0AF1E00A3068295D02681BF81D
:1011500001100098904798F800200AEBC2012A5D20
:10116000641CE4B241F82200BC42EDD3454698F835
:101170000000DFF8988200EB400108F140084FF0D2
:10118000000A18F821000124F0BB30680821026829
:101190000098904729784F4609EB81118882306882
:1011A0000C2102680098904701B2287807EB801262
:1011B00000EB400308EB83001183C07801282DD198
:1011C000B2F9140008B900295CD0404301FB0100CA
:1011D000B94607F045F806F07BFA07F025F82A78BB
:1011E00009EB8217B887B7F9140007F039F883467E
:1011F000B7F9180007F034F80146584606F07EF8B3
:10120000844907F045F800E010E0834906F04AFF02
:1012100007F00AF82A7809EB8211C887686E08B1CE
:1012200080F82040286F08B180F820403068012104
:1012300002680098904786B2070C56EA070008D06B
:101240007648B0F80001012803D00121734804F06A
:10125000C3FD686B68B306B1CFB1714804F0AAFA58
:10126000696B884202D16E4804F009FB6A6B4CF24C
:101270001860518B81421CD050830021104604F02D
:10128000E2F913E0A2F83CA05A20D087C6E700217B
:101290004183012104F0D7F9614804F08BFA696BAE
:1012A000884203D000215E4804F090FA686B80F811
:1012B00020402878514600EB400208EB820073067C
:1012C00080F805A04FF0020200D542717B0600D5E0
:1012D00044718171F30600D58271FB0600D58471DB
:1012E000C171B30600D5C271BB0600D5C4710172CD
:1012F000F30700D00272FB0700D00472330600D55A
:1013000002723B0600D504724172730700D5427227
:101310007B0700D544728172B30700D58272BB0788
:1013200000D58472C172310700D5C272390700D569
:10133000C472696BF1B33349AA694379491D568B6D
:1013400031F813309E4202D0538382F82040EA697C
:101350008379568B31F813309E4202D0538382F842
:1013600020402A6AC379568B31F813309E4202D04E
:10137000538382F820406A6A037A568B31F813301F
:101380009E4202D0538382F82040AB6A427A5E8B41
:1013900031F81220964202D05A8383F82040EA6A3C
:1013A000837A568B31F813309E4202D0538382F8F1
:1013B000204000E009E02A6BC07A538B31F810001E
:1013C000834202D0508382F82040286908B180F817
:1013D0002040686908B180F820400D488030C06C1A
:1013E00008B180F82040686D08B180F82040A86EF0
:1013F00008B180F82040686F002801D080F82040B4
:10140000BDE8F88F77A00108F44F00206036002077
:101410000430002000003443C3F548406031002010
:101420001833002070B506460E480024406847284F
:1014300015D040F23F11002000F0C4F900F030FE5A
:101440004FF49635304600F001FE641CAC42F9D3EF
:10145000BDE8704001220421034800F03FB800219C
:10146000E9E70000EC300020000C014038B5012114
:10147000082000F0CFFE0420ADF8000003208DF816
:1014800002001020134C8DF8030069462046FFF738
:10149000E5FC01220421204600F020F880200E4DBA
:1014A000ADF8000069462846FFF7D8FC4FF4004429
:1014B000ADF8004069462846FFF7D0FC01222146DE
:1014C000284600F00BF801228021284600F006F89B
:1014D00038BD0000000C014000140140FFF714BDAE
:1014E000064B30B49B68203AD2B21C68DB88534369
:1014F00004EB430230BC00F003B80000EC300020E5
:101500002DE9F74F904600270646019900F05AF959
:101510001C4C31E000F0C4FD00254FF00C094FF0E9
:10152000800A4FF0010B17E0B0FBF9F1CA000AFA8C
:1015300002F138F817202941114201D10C2805D9B0
:101540000BFA05F10A4203D10C2801D9608800E0AA
:10155000208800F07BFD6D1CA0688088A842E3D83D
:10156000012204210848FFF7B9FF761CB6B23046C5
:10157000019900F027F97F1CA068C088B842C9D83B
:10158000BDE8FE8FEC300020000C014070470000E9
:101590002DE9F047194D80469946686817460E4672
:1015A0000024472803D1A1F23F16704286B231468B
:1015B000404600F007F9B9F1000F1AD100F070FDB4
:1015C00003E0288800F042FD641CBC42F9D3BDE86A
:1015D000F047012204210A48FFF780BF288800F065
:1015E0004FFD08F1010080B28046314600F0EAF874
:1015F000641CBC42F2D3BDE8F0870000EC30002050
:10160000000C0140024A138803805088088070470C
:10161000EC3000200148806870470000EC3000206A
:1016200003484068472801D00120704700207047D8
:10163000EC3000207047000070B52D4C002521884B
:1016400021F038012180218841F00801218000F03B
:1016500059FD732000F07CFDFF21204600F02FFE95
:101660008021204600F022FE0028F9D101212046E9
:1016700000F01CFE0028F9D0204600F01EFE6D1C74
:10168000EDB2052DE8D3FF21204600F018FE8021A1
:10169000204600F00BFE0028F9D10121204600F081
:1016A00005FE0028F9D0204600F007FE0546FF2180
:1016B000204600F004FE8021204600F0F7FD0028BF
:1016C000F9D10121204600F0F1FD0028F9D0204693
:1016D00000F0F3FDE9B240EA0125012204210548AA
:1016E000FFF7FCFE208820F038002080284670BDDF
:1016F00000380040000C014030B587B001210820BF
:1017000000F088FD01218C03204600F06BFD601085
:10171000ADF8140003208DF8160018201D4D8DF82B
:10172000170005A92846FFF799FBADF8144005A955
:101730002846FFF793FB6000ADF8140005A9284682
:10174000FFF78CFB144C204600F086FD0021ADF81D
:1017500000104FF48270ADF80200ADF804100220C2
:10176000ADF806000120ADF808004002ADF80A000F
:10177000ADF80C100720ADF80E10ADF8100069465A
:10178000204600F09EFD0121204600F05BFD07B0E1
:1017900030BD0000000C01400038004001B5BDF82C
:1017A00000000149488008BDEC30002003B5BDF8B9
:1017B000001003480180BDF8041041800CBD0000FA
:1017C000EC30002070B505460E480C4640684728AE
:1017D00009D02946202000F06DFC21462120BDE8DB
:1017E000704000F067BC210A022000F063FCE1B207
:1017F000032000F05FFC0021062000F05BFC29467E
:101800000720ECE7EC3000200149886070470000B9
:10181000EC30002001B5BDF800000149088008BD8A
:10182000EC3000202DE9F05FFFF720FEFFF764FFAA
:10183000FE48416847297DD041684FF48079A1F581
:1018400013424FF4E06B41F2300A40F23F1741F28D
:101850001808203A6FD1052005F0D0FE4FF4004162
:10186000E52000F027FC0121002000F023FC494680
:10187000012000F01FFC5946022000F01BFC5146DD
:10188000032000F017FC0021042000F013FC40F2BC
:101890000221082000F00EFC0021092000F00AFCC3
:1018A00000210A2000F006FC00210C2000F002FCC0
:1018B00000210D2000F0FEFB00210F2000F0FAFBBC
:1018C0000021102000F0F6FB0021112000F0F2FBB7
:1018D0000021122000F0EEFB0021132000F0EAFBB3
:1018E000142005F08BFE41F2B071102000F0E2FBF5
:1018F00040F23711112000F0DDFB052005F07EFEDF
:10190000B91F122000F0D6FB052005F077FE4FF43A
:10191000E851132000F0CEFB1321292000F0CAFB70
:10192000052005F06BFE0021202000F0C3FB002104
:10193000212001E086E093E100F0BCFB062130208D
:1019400000F0B8FB40F20111312000F0B3FB03219D
:10195000322000F0AFFB4FF48371352000F0AAFB7A
:1019600040F60231362000F0A5FB40F2023137206C
:1019700000F0A0FB40F20771382000F09BFB07212C
:10198000392000F097FB4FF4C0613C2000F092FB3F
:1019900040F20B213D2000F08DFB0021502000F093
:1019A00089FBEF21512000F085FB0021522000F03F
:1019B00081FB3946532000F07DFB4FF41C51602021
:1019C00000F078FB0121612000F074FB00216A2007
:1019D00000F070FB0021802000F06CFB00218120D2
:1019E00000F068FB0021822000F064FB00218320CE
:1019F00000F060FB0021842000F05CFB00218520CA
:101A000000F058FB1021902000F054FB00219220A0
:101A100000F050FB0321932000F04CFB4FF4887141
:101A2000952000F047FB0021972000F043FB0021A8
:101A3000982000F03FFB4146032000F03BFB40F2C2
:101A40007311FBE20021EA2000F034FB2021EB209F
:101A500000F030FB0C21EC2000F02CFBC421ED2029
:101A600000F028FB4021E82000F024FB3821E92089
:101A700000F020FB0121F12000F01CFB1021F220DE
:101A800000F018FBA321272000F014FB01214020C7
:101A900000F010FB0021412000F00CFB002142204F
:101AA00000F008FB1021432000F004FB0E2144202D
:101AB00000F000FB2421452000F0FCFA0421462020
:101AC00000F0F8FA5021472000F0F4FA02214820F3
:101AD00000F0F0FA1321492000F0ECFA19214A2015
:101AE00000F0E8FA19214B2000F0E4FA16214C200E
:101AF00000F0E0FA1B21502000F0DCFA31215120E7
:101B000000F0D8FA2F21522000F0D4FA3F215320C0
:101B100000F0D0FA3F21542000F0CCFA3E215520AD
:101B200000F0C8FA2F21562000F0C4FA7B2157207C
:101B300000F0C0FA0921582000F0BCFA0621592013
:101B400000F0B8FA06215A2000F0B4FA0C215B200C
:101B500000F0B0FA1D215C2000F0ACFACC215D2031
:101B600000F0A8FA1B21084600F0A4FA01211A206F
:101B700000F0A0FA2F21242000F09CFA5721252004
:101B800000F098FA8621232000F094FA36211820DC
:101B900000F090FA0121192000F08CFA00210120B8
:101BA00000F088FA88211F2000F084FA022005F056
:101BB00025FD80211F2000F07DFA022005F01EFD8A
:101BC00090211F2000F076FA022005F017FDD021A9
:101BD0001F2000F06FFA022005F010FD05211720EC
:101BE00000F068FA0021012000F064FA00210220D0
:101BF00000F060FA0021032000F05CFA01210420CB
:101C000000F058FA3F21052000F054FA0021062088
:101C100000F050FA0021072000F04CFA00210820C3
:101C200000F048FAEF21092002E00000EC3000202B
:101C300000F040FA2821162000F03CFA002136205E
:101C400000F038FA0421362000F034FA3821282038
:101C500000F030FA062005F0D1FC3C212820EEE10E
:101C6000416840F20514A1F5A84240F2062540F66D
:101C70000806083A7ED143F20801E32000F01AFA80
:101C80001221E72000F016FA41F23121EF2000F096
:101C900011FA4946012000F00DFA5946022000F0E1
:101CA00009FA5146032000F005FA0021042000F053
:101CB00001FA291F082000F0FDF90021092000F099
:101CC000F9F900210A2000F0F5F900210C2000F0BC
:101CD000F1F900210D2000F0EDF900210F2000F0B6
:101CE000E9F90021102000F0E5F90021112000F0B1
:101CF000E1F90021122000F0DDF90021132000F0AD
:101D0000D9F9142005F07AFC0721112000F0D2F94E
:101D1000052005F073FC41F2B021102000F0CAF953
:101D2000052005F06BFC40F2BD11122000F0C2F955
:101D3000052005F063FC4FF4A051132000F0BAF920
:101D40000E21292000F0B6F9052005F057FC0021EE
:101D5000202000F0AFF93946212000F0ABF907212F
:101D6000302000F0A7F940F20231312000F0A2F952
:101D7000214600E074E0322000F09CF9294635202D
:101D800000F098F93146362000F094F929463720C2
:101D900000F090F940F20451382000F08BF907214F
:101DA000392000F087F921463C2000F083F93146C4
:101DB0003D2000F07FF90021502000F07BF9EF2159
:101DC000512000F077F90021522000F073F93946D4
:101DD000532000F06FF94FF42741602000F06AF9BA
:101DE0000121612000F066F900216A2000F062F90B
:101DF0000021802000F05EF90021812000F05AF9D6
:101E00000021822000F056F90021832000F052F9D1
:101E10000021842000F04EF90021852000F04AF9CD
:101E20001021902000F046F90021922000F042F9A4
:101E30000321932000F03EF94FF48871952000F0C3
:101E400039F90021972000F035F90021982000F0A1
:101E500031F94146032000F02DF94FF48971EDE08E
:101E60004068A0F5134125397ED10121002000F002
:101E700021F94946012000F01DF95946022000F0E1
:101E800019F94146032000F015F90021042000F063
:101E900011F940F20221082000F00CF9002109207C
:101EA00000F008F900210A2000F004F900210C20BC
:101EB00000F000F900210D2000F0FCF800210F20B7
:101EC00000F0F8F80021102000F0F4F800211120B3
:101ED00000F0F0F80021122000F0ECF800211320AF
:101EE00000F0E8F8142005F089FB41F2B0711020F1
:101EF00000F0E0F840F23711112000F0DBF8052087
:101F000005F07CFB40F23911122000F0D3F80520D7
:101F100005F074FB4FF4E851132000F0CBF81321C7
:101F2000292000F0C7F8052005F068FB00212020DB
:101F300000F0C0F80021212000F0BCF8072130207B
:101F400000F0B8F840F20231312000F0B3F8214639
:101F5000322000F0AFF82946352000F0ABF83146CA
:101F6000362000F0A7F800E06DE02946372000F0A9
:101F7000A1F840F20451382000F09CF807213920E4
:101F800000F098F821463C2000F094F831463D20BE
:101F900000F090F80021502000F08CF8EF21512043
:101FA00000F088F80021522000F084F839465320D0
:101FB00000F080F84FF42741602000F07BF8012109
:101FC000612000F077F800216A2000F073F800210A
:101FD000802000F06FF80021812000F06BF80021D4
:101FE000822000F067F80021832000F063F80021D0
:101FF000842000F05FF80021852000F05BF81021BC
:10200000902000F057F80021922000F053F80321AF
:10201000932000F04FF84FF48871952000F04AF8B3
:102020000021972000F046F80021982000F042F8A7
:102030004146032000F03EF840F233110720BDE88E
:10204000F05F00F037B8BDE8F09F000070B50B4DB1
:102050000446010A284600F032F98021284600F0A3
:1020600025F90028F9D1E1B2284600F028F98021AD
:10207000284600F01BF90028F9D170BD0038004057
:1020800010B5044600F00CF82046FFF7DFFF0122F0
:10209000BDE8104004210148FFF720BA000C0140C0
:1020A00010B5222000F02EF8BDE81040722000F09C
:1020B0004FB8000070B50C4600F024F8722000F014
:1020C00047F80E4D210A284600F0F9F880212846ED
:1020D00000F0ECF80028F9D1E1B2284600F0EFF862
:1020E0008021284600F0E2F80028F9D1BDE87040D0
:1020F000012204210248FFF7F1B900000038004036
:10210000000C014070B50546702000F021F80E4C1F
:102110000021204600F0D3F88021204600F0C6F8C8
:102120000028F9D12946204600F0C9F88021204630
:1021300000F0BCF80028F9D1BDE87040012204216C
:102140000248FFF7CBB9000000380040000C014006
:1021500010B50446002204210748FFF7BFF92146C5
:10216000064C204600F0ABF88021204600F09EF897
:102170000028F9D110BD0000000C014000380040DB
:10218000F0B50F21C478027801234FF0E026DCB1CE
:10219000124C2468457804F4E064C4F5E064240A31
:1021A000C4F10407E1408478BD400C402C43210178
:1021B0000B4C1155007800F01F018B40400906EBD5
:1021C0008000C0F80031F0BD02F01F0083405009CC
:1021D00006EB8000C0F88031F0BD00000CED00E09F
:1021E00000E400E0044A0029D16901D0014300E085
:1021F0008143D1617047000000100240044A002969
:10220000116901D0014300E0814311617047000072
:1022100000100240044A0029916901D0014300E006
:10222000814391617047000000100240044A002978
:10223000D16801D0014300E08143D16070470000C4
:10224000001002400029018802D041F0400101E065
:1022500021F0400101807047114910B588420AD130
:10226000841401212046FFF7E1FF2046BDE810401D
:102270000021FFF7DBBF0B49884202D10121041482
:1022800004E0094988420AD10121C4132046FFF71E
:10229000B5FF2046BDE810400021FFF7AFBF10BDDD
:1022A0000030014000380040003C00400246002061
:1022B00012890A4200D001207047808970478181CD
:1022C000704730B502884C8802F441530A88CD88A3
:1022D00022438C882C4322430C8922434C8922437D
:1022E0008C892243CC8922431A430280828B22F4B8
:1022F00000628283098A018230BD000038B5002067
:102300000090FFF78FFA0020FFF796F90146009042
:1023100045F20840094C814206D049F225308142FD
:1023200002D0401F814203D16060FFF77BFA01E0D9
:102330004720606001480C30A06038BDEC300020C0
:1023400010B50021072000F01FF80021052000F043
:102350001BF80021062000F017F80021032000F0F0
:1023600013F80021BDE81040042000F00DB8000073
:102370000349044A31F8101052F82000FEF7BDBDA1
:10238000C0B50108283100207FB5044623480D461A
:10239000012150F8240040F00100FFF73BFF04202A
:1023A0008DF80F001D4803A9103830F81400ADF85F
:1023B0000C001B4850F82400FEF750FD012D2CD1D5
:1023C0001648403010F81410103810F81400FEF7BA
:1023D00031FD1248203030F81400009000208DF8B4
:1023E00004000CB10C2000E008208DF80500012548
:1023F0008DF806506846FEF7E5FC0848503010F8A6
:1024000014008DF808000F208DF809008DF80A00DF
:102410008DF80B5002A8FFF7B3FE7FBDD0B50108C1
:10242000283100200CB50021264801910091026856
:1024300042F4803202604FF4A063026802F400327A
:102440000092019A521C0192009A12B9019A9A4282
:10245000F3D10268920333D5012100911A490A6829
:1024600042F010020A600A6822F003020A600A6859
:1024700042F002020A60416841604168416041687F
:1024800041F480614160416821F47C114160416800
:1024900041F4E8114160016841F080710160016818
:1024A0008901FCD5416821F003014160416841F098
:1024B000020141604168C1F381010229FAD10CBDDA
:1024C00000910CBD00100240002002400F4810B5E2
:1024D000016841F00101016041680D4A114041600D
:1024E00001680C4A11400160016821F480210160FB
:1024F000416821F4FE0141604FF41F018160FFF744
:1025000091FF05494FF00060086010BD00100240C7
:102510000000FFF8FFFFF6FE08ED00E02DE9FE4F9A
:10252000282004F0E5FA0321009105233B4A3CA151
:1025300004F0A6FA8246282004F0DAFA1E2100915F
:102540000523364A39A104F09BFA8146282004F07D
:10255000CFFA3C2100910523304A3EA104F090FAC5
:102560008046282004F0C4FA4B21009105232B4A11
:1025700041A104F085FA0746282004F0B9FA5A214F
:1025800000910523254A45A104F07AFA0646282041
:1025900004F0AEFAB42100910523204A48A104F0CA
:1025A0006FFA0546282004F0A3FA73210091052351
:1025B0001A4A4B4904F064FA04465146174803F09E
:1025C000CAF84946154803F0C6F84146134803F0D7
:1025D000C2F83946114803F0BEF831460F4803F0FF
:1025E000BAF829460D4803F0B6F821460B4803F027
:1025F000B2F8282004F07CFA08499623F7228DE8E7
:102600000E0038492C234822096802F0E1FB03B090
:102610000146BDE8F04F014803F09DB8703200203C
:1026200048656C7020506167650000005573652037
:10263000746865206A6F79737469636B20746F20A6
:10264000776F726B2077697468204C43442047553C
:10265000490000002D55502F444F574E20746F20D5
:102660006D6F7665206265747765656E20636F6E49
:1026700074726F6C730000002D4C4546542F524904
:1026800047544820746F206D6F76652062657477BB
:1026900065656E2070616765730000002D53454CC1
:1026A00020746F20696E7465726163742077697439
:1026B000682074686520636F6E74726F6C00000030
:1026C000436F707972696768742053544D696372FF
:1026D0006F656C656374726F6E69637300000000F0
:1026E00082A00108003000202DE9F04F87B00021C2
:1026F000FE4802F0D9FF282004F0FAF90021FB4A35
:102700000B460091A832FAA104F0BAF90746282036
:1027100004F0EEF9F54A4FF0140B0A23A832FAA19F
:10272000CDF800B004F0ACF90546382004F0E0F92B
:102730002121EE4A00910A23A832F64904F0B4F8A8
:10274000F54C6060282004F0D3F9DFF8A08335232E
:1027500008F1A8080A21CDF80080CDE901133C2337
:102760009B22EEA104F0ECF80646282004F0C0F904
:10277000112100910F233246EDA104F081F904905C
:10278000282004F0B5F9252100910F233246EBA152
:1027900004F076F90590382004F0AAF96E22CDE90C
:1027A00000624FF00F09CDF80890227808F5527AB0
:1027B0000AEB82110323E4A202F028FE20613820F4
:1027C00004F096F923216E220096CDE901212278AA
:1027D00003230AEB8211891CDBA202F017FE606161
:1027E000282004F085F9CD23CDE90083CDF808B089
:1027F000AA236422D5A104F0A3F80390282004F0B2
:1028000077F90523CDF80090D2A1039A04F038F9A6
:10281000A061282004F06CF9212100910523D0A1AA
:10282000039A04F02DF9E061282004F061F93321C6
:1028300000910523CDA1039A04F022F920622820FB
:1028400004F056F9452100910523CBA1039A04F029
:1028500017F96062282004F04BF9572100910523F5
:10286000C8A1039A04F00CF9A062282004F040F9F2
:10287000692100910523C6A1039A04F001F9E062E1
:10288000282004F035F97B2100910523C3A1039A88
:1028900004F0F6F82063302004F02AF98D2100912D
:1028A0000A23C1A1039A02F0A9FBC24960634162F5
:1028B0004CF218614183002102F0C5FE4046616B75
:1028C00002F049FF3946404602F045FF294640469E
:1028D00002F041FF4046616802F03DFF207808F5B4
:1028E000627700EB400017F82010606803F0A1FE4B
:1028F000B14804F1800500680169A86D8847C006E9
:102900007BD5282004F0F4F873230A21CDF8008049
:10291000CDE901133C23BE22A8A104F011F88046A2
:10292000282004F0E5F81121009105234246A7A1D3
:1029300004F0A6F88246282004F0DAF82521009158
:1029400005234246A2A104F09BF88146382004F0FA
:10295000CFF80446A86D01F015FCDFF8B8B12123CB
:102960000BF10C0B42465BF820100F200090204624
:1029700003F09AFF684CA060382004F0B9F8019089
:10298000A86D01F0FFFB5BF82010232000902123AD
:102990004246019803F088FFE0604146A7F5627067
:1029A00002F0D9FE5146A7F5627002F0D4FE494606
:1029B000A7F5627002F0CFFEA7F56270A16802F081
:1029C000CAFEA7F56270E16802F0C5FE207800EB50
:1029D000400007EB80004178A06803F02AFE2078D1
:1029E00000EB400007EB80008178E06803F021FEF7
:1029F000A16878484862E16848623C483146A8309E
:102A000002F0A9FE39480499A83002F0A4FE374824
:102A10000599A83002F09FFE3F4C3448A830216948
:102A200002F099FE31486169A83002F094FE00215D
:102A3000206902F008FE0021606902F004FE5E4891
:102A400000680169A86D88470221B1EB107F03D0AF
:102A5000C0F30360022813D1302004F049F8B221FA
:102A6000224A00910A23A8325BA102F0C7FA01466C
:102A700028641E48A83002F06EFE296C5B4848624C
:102A80001A480399A83002F066FE1848A169A830D8
:102A900002F061FE1548E169A83002F05CFE1348BF
:102AA000216AA83002F057FE1048616AA83002F08F
:102AB00052FE0E48A16AA83002F04DFE0B48E16AB2
:102AC000A83002F048FE0948216BA83002F043FE0E
:102AD0002078A26900EB400007EB80010D484B799C
:102AE000283830F8133053838B7981E0703200201E
:102AF000436F6E66696775726174696F6E20616E8F
:102B000064206465627567004374726C206D6F6445
:102B100065000000A4A0010804300020506F776514
:102B20007220626F61726420737461747573000047
:102B300044432042757320766F6C7400486561745D
:102B400073696E6B20542E00253364004661756CEA
:102B5000747300004F76657263757272656E7400EF
:102B60005265767570206661696C0000537065650A
:102B700064206664626B00005357206572726F7246
:102B800000000000556E64657220766F6C74000062
:102B90004F76657220766F6C740000004F76657218
:102BA0002074656D700000004661756C742061636F
:102BB0006B00000001430108F44F00204441432012
:102BC00053657474696E67730000000043683100D8
:102BD00043683200F5460108456E636F64657220F4
:102BE000616C69676E6D656E740000006547010871
:102BF000E26930F813305383CB79226A30F813300E
:102C000053830B7A626A30F8133053834B7AA26A8B
:102C100030F8133053838B7AE26A30F813305383E1
:102C2000C97A226B30F8110050836168034848620A
:102C300007B00348BDE8F04F02F021BEBD4A0108CD
:102C4000183300202DE9F04F89B0282003F050FF01
:102C500000210B460091FE4AFEA103F011FF0390F4
:102C6000282003F045FFFA494FF0140A0A238DE8A3
:102C70000A045A239122FCA103F062FE0746282091
:102C800003F036FF1E2100913C233A46F9A103F0E0
:102C9000F7FE0490282003F02BFF412100913C23F4
:102CA0003A46F5A103F0ECFE0590282003F020FF42
:102CB0000F21009105233A46F0A103F0E1FE83467F
:102CC000402003F015FF1E2105220097CDE90121C8
:102CD000EE490623A1F1E004227801EBC201ECA247
:102CE00003F038F8DFF8AC830646A063D8F800009C
:102CF00004F1800540210268A86D90478146D8F80C
:102D000000003F210268A86D9047C6E90E90282078
:102D100003F0EEFE3221009105233A46DEA103F0D6
:102D2000AFFE0690382003F0E3FE41210522009714
:102D3000CDE90121DFF870932278062309EB821197
:102D4000091DD3A202F062FB47F6FF720021E06387
:102D500002F02EFB302003F0CBFE412100915A23DC
:102D60003A46D2A102F04AF9D2492064416201F008
:102D7000A1F9282003F0BCFEB54973230A228DE88F
:102D80000E004B236822CCA103F0DAFD0646282072
:102D900003F0AEFE0A233246CAA1CDF800A003F02C
:102DA0006FFE0790282003F0A3FE232100910A2341
:102DB0003246C5A103F064FE0890382003F098FE67
:102DC00051464FF0280A0096CDE901A1227806234A
:102DD00009EB8211891DAEA202F018FB6064382055
:102DE00003F086FE23210096CDE901A12278062377
:102DF00009EB82110831A6A202F008FBA0649448F6
:102E0000039902F0A8FC9248049902F0A4FC9048AF
:102E1000059902F0A0FC39468D4802F09CFC594609
:102E20008B4802F098FC8A48A16B02F094FC884819
:102E3000069902F090FC8648E16B02F08CFC844815
:102E4000216C02F088FC8248696C02F084FC8048A6
:102E5000A96C02F080FC7E48E96C02F07CFC7C48A6
:102E6000696D02F078FC0021E86C02F0ECFB784818
:102E7000296D02F070FC3146754802F06CFC744814
:102E8000079902F068FC7248089902F064FC7048E7
:102E9000616C02F060FC6E48A16C02F05CFCD8F83A
:102EA00000000169A86D884780072AD5282003F013
:102EB0001FFE32270A23324684A1009703F0E0FD6B
:102EC0000546382003F014FECDE9006A0297227807
:102ED000062309EB82110A316DA202F097FAE06431
:102EE00029465B4802F037FC5948E16C02F033FC9C
:102EF00047F6FF720021E06C02F05AFA616C7448E8
:102F0000486247F6FF752A460021606C02F050FACD
:102F10002A460021A06C02F04BFAD8F800000169A3
:102F20005A486038806D8847C0077DD0282003F05C
:102F3000DFFD474973237D228DE80E004B23B42229
:102F400064A103F0FDFC0546282003F0D1FD0E2608
:102F50000A232A4663A1009603F092FD83462820A7
:102F600003F0C6FD50232A465EA1009603F088FDBB
:102F70008246382003F0BCFD0A22CDE90052192711
:102F8000029721784E4609EB81110C31042357A298
:102F900002F03CFA2065382003F0AAFD5022CDE96A
:102FA000005202972178042306EB81110E314FA2C3
:102FB00002F02CFA6065282003F09AFD2C270A23E2
:102FC0002A4640A1009703F05BFD8046282003F0CD
:102FD0008FFD50232A463CA1009703F051FD074680
:102FE000382003F085FD0A22CDE900524FF0370961
:102FF000CDF808902178062306EB8111103124A228
:1030000002F004FAA065382003F072FD5022CDE9E9
:103010000052CDF808902178062306EB8111123179
:103020001BA202F0F3F900E092E0E06529460848AF
:1030300002F091FB5946064802F08DFB51460448C8
:1030400002F089FB0248216D02F085FB00484FE049
:10305000C0330020537065656420636F6E74726FB7
:103060006C6C65720000000053657420706F696EAF
:103070007400000072706D006D730000546172671F
:10308000657420737065656400000000E430002002
:1030900025366400F44F002052616D702064757213
:1030A0006174696F6E0000006036002045786563CA
:1030B00000000000554B0108504944204761696EEB
:1030C000730000004B5000004B4900004B440000CF
:1030D000D1440108466C757820776C2E2074756E8B
:1030E000696E67004255538000000000253464007B
:1030F000616D02F030FB0021606D02F0A4FA4146E0
:10310000194802F028FB3946174802F024FB1648FC
:10311000A16D02F020FB1448E16D02F01CFB4FF49E
:103120007A720021206D02F043F947F6FF752A46B6
:103130000021A06D02F03CF92A460021E06D02F06A
:1031400037F9216D09484862A16D4862E16D486216
:10315000616C06484862A16C486209B00248BDE84B
:10316000F04F02F08CBB0000C0330020D1440108B6
:103170002DE9F04F8BB0282003F0BAFC00210B465C
:103180000091FE4AFEA103F07BFC0390282003F08F
:10319000AFFC87210091E623F84AFEA103F070FC02
:1031A0000490282003F0A4FC4FF00A09F34DCDE968
:1031B00000594FF014085A239122F8A1CDF8088045
:1031C00003F0BEFB0646282003F092FC0F2100917D
:1031D00005233246F4A103F053FCF54C2066382059
:1031E00003F086FC1E2105220096CDE901212278FC
:1031F00005F5FC7101EB821114310623EDA202F0FA
:1032000005F96066282003F073FC0F21009150231C
:103210003246E9A103F034FC0590382003F068FC45
:103220001E2150270096CDE90171227805F5FC7129
:1032300001EB821116310623DEA202F0E7F8A06648
:10324000282003F055FC4FF0320B05233246DBA15A
:10325000CDF800B003F014FCE066382003F048FC21
:10326000412105220096CDE90121227805F5FC7166
:1032700001EB821118310623CEA202F0C7F82067B5
:10328000282003F035FC3221009150233246CDA195
:1032900003F0F6FB0690382003F02AFC412100964B
:1032A000CDE90171227805F5FC7101EB82111A312B
:1032B0000623C0A202F0AAF86067282003F018FCD9
:1032C00073220095CDE901924B236822BEA103F041
:1032D00037FB0746282003F00BFC0A233A46BEA121
:1032E000CDF8008003F0CCFB0790382003F000FC01
:1032F0004FF02809CDE90079CDF80880227805F54E
:10330000FC7101EB82111C310623AAA202F07EF8A7
:10331000A067282003F0ECFB4FF0230A0A233A466B
:10332000AEA1CDF800A003F0ABFB0890382003F06D
:10333000DFFB8DE88006227805F5FC7101EB821138
:103340001E3106239BA202F061F8E067282003F0FB
:10335000CFFB732178220095CDE901214B23682210
:103360009FA103F0EDFA0546282003F0C1FB0A23D4
:103370002A4699A1CDF8008003F082FB09903820FD
:1033800003F0B6FBCDE90059CDF8088098492278C2
:10339000062301EB8211223186A202F037F804F1F4
:1033A0008008C8F80800282003F0A2FB0A232A4658
:1033B0008AA1CDF800A003F063FB0A90382003F047
:1033C00097FB8DE820068A492278062301EB8211BB
:1033D000243178A202F01AF84146C860302003F088
:1033E00087FB73210091E623644A82A102F0D8FB97
:1033F00041468861382003F07BFB96210091E6234B
:103400005E4A7E4903F050FA4146C86100F052FE20
:103410005A48039902F09FF95848049902F09BF921
:103420003146564802F097F95448216E02F093F95C
:103430005248616E02F08FF95048059902F08BF9FD
:103440004E48A16E02F087F90021A06E02F0FBF851
:103450004A48E16E02F07FF94848216F02F07BF99B
:103460004648069902F077F94448616F02F073F913
:103470000021606F02F0E7F84046416C3F4802F0DF
:103480006AF94046816C3D4802F065F94046C16CDE
:103490003A4802F060F94046416D384802F05BF965
:1034A00040460021C06C02F0CEF84046016D334822
:1034B00002F051F9207800EB40014D48403000EB1C
:1034C0008100394606792D4802F045F92B480799C5
:1034D00002F041F92948A16F02F03DF92748089907
:1034E00002F039F92548E16F02F035F9A16F44483F
:1034F0004862E16F434848624348006801694046BA
:10350000806D8847400747F6FF7A2CD5282003F0C6
:10351000EFFA0A233A463DA1CDF800B003F0B0FA25
:10352000C8F800004446382003F0E2FA204A8DE84B
:10353000800A2F491278062301EB821120311DA247
:1035400001F064FF60600D48216802F004F90B4847
:10355000616802F000F952460021606801F028FF1E
:1035600061682B484862124F544652460021B86F9A
:1035700001F01EFF22460021F86F4BE06834002066
:1035800043757272656E7420636F6E74726F6C6CCB
:1035900065727300496E7075740000005365742085
:1035A000706F696E747300004971207265662E0039
:1035B00004300020253664004971000049642072FF
:1035C00065662E0049640000497120504944204737
:1035D00061696E73000000004B5000004B49000011
:1035E000496420504944204761696E73000000001F
:1035F000603600204C696E6B00000000F0A00108EE
:103600004946010805460108F44F00204B440000DC
:10361000BD45010801F0CCFE29465D4802F09BF84B
:103620005B48099902F097F844465948D8F80810C1
:1036300002F091F856480A9902F08DF85448E16872
:1036400002F089F8534800680169A06D8847DFF8E7
:103650004881000731D5282003F04AFA0A232A4678
:10366000AFF25801CDF800B003F00AFA206138201B
:1036700003F03EFA8DE8200A48493A7801EB8211BE
:1036800026310623AFF2D40201F0C0FE606140484B
:10369000216902F060F83E48616902F05CF8524628
:1036A0000021606901F084FE002E56D0002160697F
:1036B00001F0C9FF6169C1F82480554652460021D6
:1036C000A06801F075FE2A460021E06801F070FE56
:1036D0002F48A16902F03FF82D48E16902F03BF85C
:1036E0003878DFF8B89000EB400109F1400909EBA8
:1036F0008100C178E06902F09CFF01F043FAA569FE
:103700006A6A2AB195F8210010B1314628469047DF
:1037100085F82C601EB30021A06801F094FF06B369
:103720000021E06801F08FFFE1691D484862A1694E
:103730001C484862786E1C4941623A6F1B495162CD
:10374000A268C2F82480E268C2F82480397801EBCC
:10375000410219F8221031B113E00121A7E701213C
:10376000DAE70121DDE7002101F06DFF094800687B
:103770000169A06D8847800603D40021386F01F0ED
:1037800062FF0BB00248BDE8F04F02F078B80000CD
:1037900068340020F44F0020D14401086036002036
:1037A000094D01080D450108954801087D470108AC
:1037B0002DE9F04FFF4887B000270068FE4C0169F3
:1037C000A06D8847064609200025B0EB167F09D179
:1037D000282003F08DF90023F84AF9A1009503F0A1
:1037E0004FF90746C6F30360092809D1282003F0E2
:1037F0007FF90023F14AF9A1009503F041F907464A
:103800007006DFF8B8B34FF028000BD503F070F95D
:1038100014210A22CDF800B0CDE901215A239122CA
:10382000F7A10AE003F064F914210A22CDF800B0F0
:10383000CDE901215A239122F4A103F081F8054634
:10384000282003F055F94FF00F0A05232A46F0A16E
:10385000CDF800A003F014F90390382003F048F9E4
:103860001E210522DFF850930095CDE90121A9F131
:103870008009DFF8A08399F80020062308EB821165
:103880002831E5A201F0C2FD2062282003F030F9C2
:1038900050232A46E1A1CDF800A003F0F1F80490EE
:1038A000382003F025F91E214FF0500A0095CDE98C
:1038B00001A199F80020062308EB82112A31D6A233
:1038C00001F0A4FD606200F0F5FB3946BB4801F051
:1038D00042FF2946B94801F03EFFB848039901F07C
:1038E0003AFFB648216A01F036FFB448049901F066
:1038F00032FFB248616A01F02EFF700658D52820C9
:1039000003F0F6F83221009105232A46C4A103F002
:10391000B7F80390382003F0EBF841210522009519
:10392000CDE9012199F80010474608EB81113031AB
:103930000623B9A201F06AFD47F6FF720021A062DA
:1039400001F036FD282003F0D3F8322100915023F6
:103950002A46B5A103F094F80490382003F0C8F883
:1039600041210095CDE901A199F80010062307EB4C
:1039700081113231A8A201F049FD47F6FF72002102
:10398000E06201F015FD8D48039901F0E4FE8B48DB
:10399000A16A01F0E0FE8948049901F0DCFE874845
:1039A000E16A01F0D8FEA16AA1484862E16A486272
:1039B0008248616C01F0CFFE8048A16C01F0CBFE23
:1039C0007E48E16C01F0C7FE7C48616D01F0C3FEEA
:1039D0000021E06C01F037FE7848216D01F0BBFE5C
:1039E0000920B0EB167F7DD1282003F081F87323E6
:1039F0000A21CDF800B0CDE901134B2340F2271284
:103A00008CA102F09DFF0546282003F071F81426D2
:103A10000A232A468BA1009603F032F8039038203F
:103A200003F066F8CDE9005A0296474699F800106F
:103A3000C84607EB81113431062377A201F0E6FC7A
:103A400047F6FF720021206301F0B2FC282003F04A
:103A50004FF84FF023090A232A467DA1CDF80090A4
:103A600003F00EF88346382003F042F8CDE9005AFF
:103A7000CDF8089098F80010062307EB8111363135
:103A800065A201F0C3FC6063282003F031F8322105
:103A900000910A232A4670A102F0F2FF0490382018
:103AA00003F026F832210095CDE901A198F8001025
:103AB000062307EB8111383157A201F0A7FCA06360
:103AC000282003F015F8B4232A4665A1009602F0D9
:103AD000D7FF0590382003F00BF8E621CDE900511F
:103AE000029600E0D4E098F80010032307EB811160
:103AF0003A315DA201F08AFCE0632E482221006881
:103B00000268A06D9047421E0021E06B01F050FC5E
:103B1000282002F0EDFF8C232A4654A1009602F0E3
:103B2000AFFF8246282002F0E3FF8C232A4650A1F3
:103B3000CDF8009002F0A4FF98F80010064607EBBD
:103B4000811090F83A20A06D00F0A0FDE16B49488B
:103B50004862216B48484862616B48484862A16BE3
:103B6000474848625146154801F0F5FD3146134873
:103B700001F0F1FD2946114801F0EDFD0F480399D0
:103B800001F0E9FD0D48216B01F0E5FD59460B48B8
:103B900001F0E1FD0948616B01F0DDFD0748049982
:103BA00001F0D9FD0548A16B01F0D5FD0348059949
:103BB00068E00000F44F0020843000201035002021
:103BC00053656E736F726C6573732074756E696E76
:103BD000672053544F202620504C4C0053656E7381
:103BE0006F726C6573732074756E696E67205354C1
:103BF0004F202620504C4C20284175782900000089
:103C000053544F202620504C4C00000053544F007A
:103C1000473100006036002025366400473200003E
:103C2000504C4C204B500000504C4C204B49000055
:103C3000D14401085265762075702074756E696EE6
:103C4000670000004475726174696F6E00000000C7
:103C5000456E642073706400456E642049710000F5
:103C60005374616765000000253364006D730000C4
:103C700072706D00A94C0108E54C0108394D01082E
:103C80005D4D010801F067FD0748E16B01F063FD40
:103C9000216A06484862616A486207B00248BDE886
:103CA000F04F01F0ECBD000010350020D1440108B8
:103CB0002DE9F04FD148DFF8488387B00068002530
:103CC0000169D8F85800884707460A240026B4EB53
:103CD000177F09D1282002F00BFF0023C94ACAA18F
:103CE000009602F0CDFE0546C7F303600A2809D10D
:103CF000282002F0FDFE0023C24ACBA1009602F06C
:103D0000BFFE0546282002F0F3FEBE4BCDE900348D
:103D100014210291A3465A239122CDA102F010FE54
:103D20000646282002F0E4FE0F21009105233246CA
:103D3000C8A102F0A5FE8146382002F0D9FE1E215E
:103D400005220096CDE90121AD49DFF8B8A28039FE
:103D50000AF1A80A097806230AEB81112C31BEA2C8
:103D600001F054FBC8F820004446282002F0C0FEB1
:103D70000F21009150233246B8A102F081FE804607
:103D8000382002F0B5FE1E2150220096CDE9012117
:103D90009B4906238039B0A209780AEB81112E31A4
:103DA00001F034FB606200F085F92946954801F086
:103DB000D2FC3146934801F0CEFC4946914801F0CF
:103DC000CAFC9048216A01F0C6FC41468D4801F0CA
:103DD000C2FC8C48616A01F0BEFC8A48616C01F04B
:103DE000BAFC8848A16C01F0B6FC8648E16C01F091
:103DF000B2FC8448616D01F0AEFC0021E06C01F082
:103E000022FC8048216D01F0A6FCBBEB177F7DD121
:103E1000282002F06DFE7B4A00927323CDE901B3A6
:103E20004B2340F227128EA102F08AFD054628207E
:103E300002F05EFE4FF014080A232A468CA1CDF84A
:103E4000008002F01DFE0390382002F051FE4FF07A
:103E500050096B4FCDE90059803FCDF80880397883
:103E600056460AEB8111343106237BA201F0CEFACB
:103E700047F6FF720021206301F09AFA282002F031
:103E800037FE4FF0230A0A232A467CA1CDF800A072
:103E900002F0F6FD8346382002F02AFE8DE8200667
:103EA0003978062306EB811136316BA201F0AEFAA8
:103EB0006063282002F01CFE322100910A232A466A
:103EC00070A102F0DDFD0490382002F011FE3221D5
:103ED0000095CDE901913978062306EB811138313F
:103EE0005DA201F093FAA063282002F001FEB42342
:103EF0002A4666A1CDF8008002F0C2FD0590382068
:103F000002F0F6FDE622CDF8088000E06BE0CDE996
:103F100000523978032306EB81113A315DA201F09A
:103F200075FAE0633548222100680268A06D904769
:103F3000421E0021E06B01F03BFA282002F0D8FD80
:103F40008C232A4654A1CDF8008002F099FD8146C9
:103F5000282002F0CDFD8C232A4650A1CDF800A0E8
:103F600002F08EFD3978804606EB811090F83A20F9
:103F7000A06D00F08BFBE16B49484862216B49481A
:103F80004862616B48484862A16B484848624946AC
:103F90001C4801F0E0FB41461A4801F0DCFB2946D1
:103FA000184801F0D8FB1748039901F0D4FB1548D5
:103FB000216B01F0D0FB5946124801F0CCFB1148AF
:103FC000616B01F0C8FB0F48049901F0C4FB0D4878
:103FD000A16B01F0C0FB0B48059901F0BCFB09483F
:103FE000E16B01F0B8FB216A31484862616A4862BE
:103FF00007B00448BDE8F04F01F041BCF44F002089
:1040000084300020B835002053656E736F726C6584
:1040100073732074756E696E672053544F20262089
:10402000434F52444943000053656E736F726C6591
:1040300073732074756E696E672053544F20262069
:10404000434F52444943202841757829000000001D
:1040500053544F00473100002536640047320000BA
:104060005265762075702074756E696E6700000069
:104070004475726174696F6E00000000456E6420C3
:1040800073706400456E6420497100005374616769
:1040900065000000253364006D73000072706D00D0
:1040A000A94C0108E54C0108394D01085D4D010896
:1040B000D14401083EB5282002F01AFDA02323496F
:1040C000CDE90013142202925A23912220A102F07A
:1040D00037FC214C6064282002F00AFD0F2100917A
:1040E00005231EA1626C02F0CBFCA064402002F00C
:1040F000FFFC0521626CCDE9002104F160011E2561
:10410000A1F1E00202951278062301EBC201091D1C
:1041100016A201F01FFEE064302002F0E9FC41210C
:104120000091052312A1626C00F068FF2065282031
:1041300002F0DEFC00953C2310A1626C02F0A0FCB2
:104140006065216D0E4848623EBD0000843100204C
:104150004D6F6E69746F7200843000204D6561731D
:1041600075726564207370656564000025366400AF
:1041700053746172742F53746F70000072706D000D
:10418000C943010870B531490024096809698847A5
:10419000010E0E074FF009014FF00A024FF0020323
:1041A0004FF001050ED0B1EB107F03D1C0F30366D1
:1041B0000A2E17D0B2EB107F15D1C0F30366092E7B
:1041C00010D010E0B1EB107F00D10124B2EB107FD2
:1041D00000D10224B5EB107F02D0B3EB107F33D1B6
:1041E000032431E00624B1EB107F05D1C0F3036155
:1041F00002290BD0012909D0C0F30361092906D196
:10420000B3EB107F02D0B5EB107F00D10424B2EBEA
:10421000107F05D1C0F3036102290BD0012909D019
:10422000C0F303610A2906D1B3EB107F02D0B5EBCE
:10423000107F00D105240B21B1EB107F04D1C0F316
:104240000360092800D10724204670BDF44F0020E8
:1042500010B5274801F0E1FA2548A83001F0DDFA51
:10426000244801F0DAFA2348A83001F0D6FA2248AF
:1042700001F0D3FA2048A83001F0CFFA1F490020FE
:1042800048608860C860086148618861C8610862E8
:1042900048628862C862086348638863C8630864C8
:1042A00048648864C864086548658865C8650866A8
:1042B00048668866C866086748678867C867803147
:1042C000086048608860C860086148618861C861AA
:1042D000086248628862C862086348638863C8638A
:1042E000086448648864C8640865486510BD0000B7
:1042F00070320020C0330020103500200430002030
:10430000034807210068C2680248806D104700001A
:10431000F44F00208430002010B50C46FFF798FFC2
:10432000062C1CD2DFE804F003070B0F1317BDE8BF
:104330001040FEF7F3B8BDE81040FEF7D5B9BDE870
:104340001040FEF77FBCBDE81040FEF711BFBDE88E
:104350001040FFF72DBABDE81040FFF7A9BC10BD13
:104360002DE9F047814616480E46134FDFF84C8082
:10437000002400EB8615395D5D2908D0D8F80000CF
:10438000026848469047411C01D025F81400641C7F
:10439000E4B2202CEFD3D8F800000421026848468C
:1043A0009047084941F8360095F83A20314648468A
:1043B000BDE8F04700F06AB9FCA00108F44F002006
:1043C00060360020E43000202DE9F05F3A4A3B4F90
:1043D0003B4E1178A7F1400C01EB4105336817F80B
:1043E000258002F180040CEB8110B8F1000F06D09B
:1043F00007EB8501C97859B1012955D10EE08288B2
:104400002D485B68E03050F83110A06D98474BE0C4
:10441000B0F91820B0F914101B6A43E0E346924645
:10442000B0F93E0003F0B7FB264A274B03F0DEFB52
:104430000022264B03F028FA03F08AF80F469AF878
:10444000001005460BEB8119B9F93C0003F0A3FB02
:104450002A463B4603F0CAFB03F06EFB0FFA80F8D6
:10446000B9F93E0003F097FB164A174B03F0BEFB69
:104470000022164B03F008FA03F0D2F80F469AF820
:10448000001005460BEB8110B0F93C0003F083FBF4
:104490002A463B4603F0AAFB03F04EFB01B230680C
:1044A0004246036AA06D984730680621C268A06D35
:1044B000BDE8F05F1047000004300020A036002067
:1044C000F44F00201F85EB51B81E09400080664064
:1044D0000B4B0A4609491B78008D01EB8311401AEA
:1044E000C0F347010748415C5D2906D006480068D3
:1044F000836803488030806D18477047603600201D
:1045000004300020FCA00108F44F00202DE9F04108
:10451000284E11F0FF052849307800EB400001EBF0
:104520008000057140D00021224C8034A06801F049
:104530008AF8C5B30021E06801F085F8FDB11E4F8F
:104540003078403F07EB8010B0F91C104184C28BDB
:104550008284028CC284A06800F00EFE307807EBE3
:104560008010B0F92410E06800F006FE606930B1F8
:10457000317807EB8111B1F9261000F0FDFDA0683C
:10458000012680F82060E06880F8206060690028DB
:1045900007D06DB15FF0000101F055F8606980F857
:1045A0002060BDE8F08101E00121BDE70121C2E703
:1045B0000121F1E704300020A036002070B50D463F
:1045C000FFF786FF0D480E4A017801EB410002EB30
:1045D0008000007900280FD0084C803460690028E2
:1045E0000AD0403A02EB8111CD84294600F0EAFD61
:1045F0006069012180F8201070BD000004300020A7
:10460000A036002010B50C46FFF762FF0C480D4A9B
:10461000007800EB400102EB8101097900290ED0FE
:10462000A2F1400101EB801021468484044C8034C7
:10463000E06800F0C7FDE068012180F8201010BD9F
:1046400004300020A036002010B50C46FFF740FFD4
:104650000C480D4A007800EB400102EB810109791A
:1046600000290ED0A2F1400101EB801021464484C4
:10467000044C8034A06800F0A5FDA068012180F8FA
:10468000201010BD04300020A0360020F8B51546DB
:10469000094A02EB8114094904F1380200920968C1
:1046A000931E121F8E692946B047E08E00EB400032
:1046B0004000E086F8BD000060360020F44F002086
:1046C00038B51546094A062302EB8112B2F93610B5
:1046D00091FBF3F10BB2B2F9381000910449928EBC
:1046E00009684C692946A04738BD000060360020A3
:1046F000F44F00202DE9F041164A054610461649B0
:10470000007802F1800400EB400001EB8001936827
:10471000124E134FA06D9D420BD193F830504D7047
:10472000FFF730FD56F820000021425D3868C3696C
:104730000BE0D26892F830508D70FFF723FD56F8E9
:1047400020000121425D3868C369E06DBDE8F04199
:104750001847000004300020A0360020D0A0010837
:10476000F44F0020034808210068C2680248806DA9
:1047700010470000F44F0020843000202DE9F05F46
:104780003E4D3F4ADFF8FCA02878A2F1400600EB3E
:10479000400102EB810305F18004DB7806EB801019
:1047A000F3B3012B68D1B146A846B0F93E0003F03F
:1047B000F2F9DFF8D4B0354B5A4603F017FA00226D
:1047C000334B03F061F802F0C3FE0F4698F8001077
:1047D000054609EB8116B6F93C0003F0DCF92A46E0
:1047E0003B4603F003FA03F0A7F907B2B6F93E001F
:1047F00003F0D1F95A46254B03F0F8F90022244B77
:1048000003F042F802F00CFF0E4698F8001005463F
:1048100009EB8110B0F93C0003F0BDF92A4600E035
:104820000AE0334603F0E2F903F086F901B2DAF860
:1048300000003A46036A09E012F82110114A136891
:1048400041B1B0F91820B0F914101B6AA06DBDE891
:10485000F05F184719695746A06D884780060BD549
:104860002878412106EB8010B0F918203868836859
:10487000A06DBDE8F05F1847BDE8F09F0430002050
:10488000A0360020F44F00201F85EB51B81E0940D0
:10489000008066402DE9F05F3449354BDFF8D49055
:1048A0000878A3F1400400EB400203EB820201F11F
:1048B000800AD27804EB8010F2B3012A53D18846E3
:1048C000B0F93E0003F067F9DFF8ACB02B4B5A4665
:1048D00003F08CF900222A4B02F0D6FF02F038FEDA
:1048E000054698F800000F4604EB8016B6F93C0028
:1048F00003F051F92A463B4603F078F903F01CF91E
:1049000007B2B6F93E0003F046F95A461B4B03F0D6
:104910006DF900221A4B02F0B7FF02F081FE054646
:1049200098F800000E4604EB8010B0F93C0003F04C
:1049300032F92A46334600E00DE003F057F903F060
:10494000FBF801B2D9F800003A46036ADAF85800D9
:10495000BDE8F05F1847B0F91820B0F91410D9F885
:104960000000036AF2E7BDE8F09F00000430002079
:10497000A0360020F44F00201F85EB51B81E0940DF
:10498000008066402DE9F05F454D464A2878A2F147
:10499000400400EB400102EB810104EB8010C97878
:1049A00029B101294AD1B0F91410E9B34AE0A84667
:1049B000B0F93E0003F0EFF8DFF8EC90DFF8ECA080
:1049C0004A46534603F012F9DFF8E4B000225B4692
:1049D00002F05AFF02F024FE074698F800000D4648
:1049E00004EB8016B6F93C0003F0D5F83A462B46A6
:1049F00003F0FCF803F0A0F8B082B6F93E0003F033
:104A0000CAF84A46534603F0F1F800225B4602F02A
:104A10003BFF02F09DFD064698F800000D4604EBB2
:104A20008014B4F93C0000E00AE003F0B4F8324628
:104A30002B4603F0DBF803F07FF82083BDE8F09FFE
:104A4000028B42B3B0F91800494300FB001003F099
:104A500007FC02F03DFE03F0E7FB297804EB81162A
:104A6000B087B6F9140003F0FBFB0746B6F918004F
:104A700003F0F6FB0146384602F040FC0D4903F016
:104A800007FC0D4903F00EFB03F0CEFB297804EB85
:104A90008111C887D2E7002181875A21C187CDE7DC
:104AA00004300020A03600201F85EB51B81E0940BD
:104AB0000080664000003443C3F548402DE9F041D2
:104AC000204D224E05F180042978686801EB4102EF
:104AD0001D4990F8300001F82200012807D001217B
:104AE0001B4800F0E1FD30680122836825E0306852
:104AF00002210268A06D9047C0B930680921C268E0
:104B0000A06D9047306829210268A06D90470E4F34
:104B10002978403F07EB8111888230682A2102689A
:104B2000A06D9047297807EB811108830021084880
:104B300000F0BAFD306800228368A06DBDE8F04146
:104B40000321184704300020A0360020F44F002035
:104B5000C033002009480849007801EB80118A8899
:104B60000649E03151F830100548006843680348B1
:104B70008030806D1847000060360020043000202F
:104B8000F44F00202DE9F0413B4C3C4F04252078A8
:104B9000A7F1400600EB400007EB800047F6FF78E6
:104BA000C07810B1012836D13EE035A1206E01F069
:104BB00062FF35A1E06E01F05EFF2178606E06EBCA
:104BC000811202F1140180F833508162216F183292
:104BD0002F4E81F833508A6245464246314600F0F6
:104BE000E7FB2A463146206F00F0E2FB207800EB1D
:104BF000400017F8200050B92648006801691E4897
:104C00008030806D8847800601D4002100E00121BA
:104C1000206F00F018FD616E012081F82000216FE7
:104C200081F82000BDE8F0811BA1206E01F023FF78
:104C30001BA1E06E01F01FFF2178606E06EB811270
:104C400002F13C0180F833508162236F891C424697
:104C500083F833509962002100F0AAFB40F26712FA
:104C60000021206F00F0A4FB207800EB400017F833
:104C700020000028CBD1C8E704300020A036002057
:104C80004971207265662E004964207265662E00A7
:104C90000180FFFFF44F0020416D702E2020200086
:104CA0004570732E4465670008460D4910B50B4AE0
:104CB00009780B4C02EB811280345087C2B2A06D90
:104CC000FFF7E4FC216B012081F82000616B81F883
:104CD0002000A16B81F8200010BD0000603600208C
:104CE000043000200748064A007802EB80129186C3
:104CF0000146044892F83A208030806DFFF7E0BC0E
:104D00006036002004300020094910B50848803979
:104D1000084A0978C06901EB410102EB810190F872
:104D20003000C870FFF72EFEBDE81040FFF72ABF25
:104D300084300020A03600200748064A007802EBA5
:104D40008012D1860146044892F83A208030806D66
:104D5000FFF7B6BC60360020043000200748064A42
:104D6000007802EB801211870146044892F83A203D
:104D70008030806DFFF7A4BC603600200430002036
:104D8000014600200A5C401CC0B2002AFAD17047DC
:104D9000F8B50446406A0028204615D001F04CFAC8
:104DA0000646204601F026FA0546204601F0C1F9E4
:104DB0000746204601F0BDF981B200963A0C2B4619
:104DC000606A00F04FFBF8BDBDE8F84001F019BA89
:104DD0002DE9F04106AD1E4617460C460ECD00F0FB
:104DE00039FC05460748286032463946284601F016
:104DF000FAF96C6214B1012085F820002846BDE85C
:104E0000F0810000C8C0010801F06DBE10B500249B
:104E100000F0E9F800B10124204610BD70B5426AE7
:104E20000D4604464AB194F82C0030B12DB994F8DF
:104E3000210010B100212046904784F82C5070BD0D
:104E400070B500240546052906D10021FFF7E6FFCD
:104E5000284601F08DF90124284600F0C4F800B17D
:104E60000124204670BD2DE9FC5F0646C069C1885B
:104E70008588891D8CB2B06AFBF730FC4543ED1D77
:104E8000A9B22246304601F0AEF9304601F051F9A0
:104E900085B2304601F04DF9040C304601F0CCF9F2
:104EA000801E87B2304601F0A5F9801E1FFA80F8F7
:104EB000B6F81A90304601F0BFF90190304601F083
:104EC00099F98346304601F034F98246304601F0C4
:104ED00030F94FEA1A4180B2CDF800905A46019B52
:104EE00000F060FB304600F07EF840B3304601F041
:104EF00020F9801C85B2304601F01BF90014801C9B
:104F000084B2B6F81A90304601F096F9401E82B28B
:104F1000CDF80090A4F10109681E1FFA89F180B252
:104F2000012300F01DFBB6F81AA0304601F062F92B
:104F3000801E82B21FFA89F1CDF800A011E0708BBB
:104F40000090601C81B205EB080080B201233A4654
:104F500000F006FB708B009008F1020082B2E019AD
:104F600081B20023284600F0FBFA708B00903B468C
:104F700042462146284600F015FB308B0090F81E73
:104F800082B2A01C814681B2A81C80B2012300F02D
:104F9000E7FA96F8210008B11F2000E0308B00905E
:104FA000A8F1020082B2BF1E641C681CBBB2A1B291
:104FB00080B200F0F7FAB26AED1C02B01FFA89F174
:104FC000A8B2BDE8F05F00F02BBB10B5044600208E
:104FD000052907D101212046FFF720FF204601F0D7
:104FE000C7F8012010BD90F82C1021B190F82100D5
:104FF00008B10120704700207047000070B51C46C2
:1050000016460D4622463146049B00F023FB084914
:1050100001600021416280F82C100446012100F05B
:1050200012FB0121A562204684F8201070BD00000B
:10503000ECC0010801F057BD70B5C46A0D4604B953
:1050400011A490F83310062919D2DFE801F01803F3
:1050500003070B0F00F063F802460AE000F05FF868
:1050600082B206E000F05BF802B202E000F057F80E
:10507000C2B221462846BDE87040FBF7FDB800F0FB
:105080004EF842B2F5E700002564000070B50E4608
:105090000446002500F0A2FD28B3A06A10B3012E3B
:1050A00002D0022E1ED10DE094F83200218EFF288E
:1050B0000144218602D0401C84F83200204600F0D2
:1050C0005DF90CE094F83200218EFF28014421861E
:1050D00002D0401C84F83200204600F006F820463A
:1050E00001F046F80125284670BD10B5024600F0D3
:1050F00016F80146B2F93000B2F93430091A8B4281
:1051000006DD8010108692F83200800882F83200A6
:1051100092F83300BDE81040104600F02DB890F82A
:105120003310806A06290DD2DFE801F00C03030575
:10513000070A0068704700887047B0F900007047A0
:105140000078704790F90000704770B50E4604462D
:10515000002500F043FD00B10125052E08D194F88B
:10516000230038B1002084F82300204601F000F825
:10517000284670BD0120F6E710B50246806A002877
:105180001FD0B2F934308B421BDCB2F936308B427F
:1051900017DB92F83330022B04D0042B04D049B231
:1051A000017002E0016000E00180506A002808D030
:1051B0001046FFF7B4FF536A0146BDE810401046A1
:1051C000184710BD10B50246806A002814D0938E8F
:1051D0008B4211D8D38E8B420ED392F833300170AC
:1051E000506A002808D01046FFF799FF536A01461D
:1051F000BDE810401046184710BD2DE9F0418AB0B7
:105200000446202101A8FBF788FA658B204601F0AF
:1052100013F88046204600F0EDFF0646204600F0D9
:1052200088FF0746204600F084FF390C80B24346D1
:105230003246009500F0B6F9258B204600F0FCFFC1
:10524000C01E87B2204600F074FF0646204600F0DC
:1052500070FF3114891C801C89B280B201233A4648
:10526000009500F07DF994F82100A0B1204600F0EF
:10527000E3FF801E87B2204600F0BCFF801E86B28E
:10528000204600F056FF0546204600F052FF1F2141
:105290000091291414E0258B204600F0CDFF801EDC
:1052A00087B2204600F0A6FF801E86B2204600F09E
:1052B00040FF8046204600F03CFF4FEA2841009521
:1052C000491C401C89B280B23B46324600F06AF964
:1052D000204600F083FC50B194F8210038B14FF61D
:1052E000E070ADF80000BDF80000FCF757FA94F844
:1052F000220038B947F6FF70ADF80000BDF8000095
:10530000FCF74CFAA06A002812D001A92046FFF74A
:1053100093FE204600F00DFF0546204600F009FFF1
:105320002914891CC01C89B280B201AA00F078F946
:105330000AB0BDE8F08170B50E460446002500F0C5
:105340004DFCC8B1A06AB0B100200121012E02D0ED
:10535000022E10D106E0218684F83200204600F0AB
:105360000DF805E0218684F832002046FFF7BDFEE7
:10537000204600F0FDFE0125284670BD10B502460E
:10538000FFF7CDFE0146B2F93000B2F936300144E4
:105390008B4206DA8010108692F83200800882F87C
:1053A000320092F83300BDE810401046FFF7E4BE2B
:1053B0008186C286704700002DE9F04106AC1D468B
:1053C00017460E460ECC00F013FC0F490160022177
:1053D000044680F833100121C4E90A670186C069D8
:1053E000C1888088091D68438AB2401D81B2204669
:1053F00000F0F9FE48F20101A186891EE186002134
:1054000020466162BDE8F08114C101082DE9F04138
:1054100006AC1D4617460E460ECC00F0E9FB0F49C0
:1054200001600421044680F833100121C4E90A67B1
:105430000186C069C1888088091D68438AB2401D01
:1054400081B2204600F0CFFE48F20101A186891EFC
:10545000E186002120466162BDE8F08114C10108A7
:1054600001F041BB38B5049C0094FCF7E3F838BD6B
:105470002DE9FC410F461349DDF820801C460988C0
:105480001600A1EB0000A0F1010085B218D001A91F
:105490006846FCF7B7F84046FCF7BCF907E0384629
:1054A000791C8FB2002332462946FCF771F82000A0
:1054B000A4F10104A4B2F2D1BDF80000FCF7AAF9EE
:1054C000BDE8FC814A31002010B5FCF717FF4FF60C
:1054D000FF742046FBF7A6FF2046FCF75FF9BDE806
:1054E00010400020FCF796B92DE9F04190460E4699
:1054F00004460546FCF794F8184F012803D1388874
:10550000001B401E85B2FCF785F88088398820444E
:10551000884221D8FCF77EF88088062804D1FCF761
:1055200079F8C088082806D0424629463046BDE8AA
:10553000F041FBF7D5BFFCF76DF80468FCF76AF89B
:105540008188A8F12000414304EB4102F0B22946D2
:10555000BDE8F041FCF71AB8BDE8F0814A310020FF
:105560002DE9FC410E460E49984614460988089FCD
:10557000081A401E85B201A96846FCF743F8384670
:10558000FCF748F934B1641EA2B2434629463046BE
:10559000FBF7FEFFBDF80000FCF73CF9BDE8FC811D
:1055A0004A3100202DE9FC4188461C49089F1C46D1
:1055B00009881500A1EB0000A0F1010086B22BD0F4
:1055C000002C29D001A96846FCF71CF83846FCF7E6
:1055D00021F96F1EBAB2002331464046FBF7D8FFCF
:1055E00008EB0400401EBAB280B200233146FBF73C
:1055F000CFFF601E82B2012331464046FBF7C8FF51
:10560000701B401C81B2012322464046FBF7C0FFBD
:10561000BDF80000FCF7FEF8BDE8FC814A3100202F
:1056200070B514460E46054609E031462846FFF798
:105630005BFFFBF7EFFF8088641C284485B222786B
:10564000002AF2D170BD80F82210002901D180F823
:10565000211070472DE9FF411F46944600240D4656
:10566000064623463A46614601A8009400F048FDEC
:1056700002462946304600F01BFE0449016080F8CE
:10568000224080F8214004B0BDE8F08138C1010813
:1056900001F029BA00224274002904D090F8212098
:1056A000002A00D04174704780F82110002900D1F1
:1056B0004174704700F0A5BD70B50C4600F0D0FDF8
:1056C00005460948286054B1204600F0B5FD024661
:1056D000A0892189401A81B2284600F084FD01206A
:1056E00085F82100284670BD5CC101082DE9F04114
:1056F00086B00F46DDE90C4580461E46114602A8DD
:1057000000F0F4FC0246334639464046CDE90045F8
:1057100000F0FAFD03490160012180F8211006B074
:10572000BDE8F0815CC1010810B500F013FE03492B
:105730000160012180F8211010BD00005CC101084A
:1057400070B50D46044600F023FE95F8210084F85C
:105750002100204670BD002909D0B0F8A620202ADB
:1057600005D200EB8203521CA0F8A62059627047B4
:1057700070B50C46054600F01DF801684A692146DF
:105780009047002807D1012C06D0022C03D12846CF
:1057900000F075F8012070BD284600F08BF8F9E79D
:1057A00010B50B4600F006F801688A69BDE81040A4
:1057B00019461047B0F8A620B0F8A4108A4203D9C1
:1057C00000EB8100406A70470020704770B50446C6
:1057D000B0F8A6000E46B0421ED92046FFF7EAFFF9
:1057E000002580F821502046FFF7E4FF00F0C0FCC0
:1057F000A4F8A4602046FFF7DDFF80F8215090F860
:10580000222001210AB180F821102046FFF7D2FFA3
:10581000BDE8704000F0ACBC70BD70B5054600241A
:1058200008E005EB8400406A10B1016849688847C8
:10583000641CE4B2B5F8A600A042F2D8002025F816
:10584000A40F688070BD70B5054690F8200010B1B7
:10585000284600F08DFCB5F8A60000280ED00024E4
:1058600008E005EB8400406A90F8201009B100F0D0
:105870007FFC641CB5F8A600A042F2DC70BD30B419
:10588000B0F8A630002B13D0B0F8A4100A46491C7B
:105890008B4200D800218A4206D000EB8104646A62
:1058A00094F82240002CF2D030BC89B2FFF78EBFB2
:1058B00030BC704730B4B0F8A620002A12D0B0F83F
:1058C000A4100B4601B91146491E8B4206D000EBCD
:1058D0008104646A94F82240002CF3D030BC89B271
:1058E000FFF774BF30BC704770B5044600F089FC08
:1058F000B4F8A60000280BD0002505E004EB8500D5
:10590000406A00F035FC6D1CB4F8A600A842F5DC36
:1059100070BD70B50C460546FFF74CFF01680A697B
:1059200021469047002807D1012C06D0022C03D134
:105930002846FFF7A4FF012070BD2846FFF7BAFFF5
:10594000F9E7000010B5FFF7B7FE04490160002138
:10595000A0F8A410A0F8A610417410BD80C10108E1
:1059600070470020704770B504460020052911D10A
:1059700094F82C0078B10025626A2AB194F82100CD
:1059800010B1294620469047204684F82C5000F05C
:10599000EFFB012070BD0125EEE700002DE9F84383
:1059A0000446C069C1888688091D8DB2A06AFAF7CD
:1059B00095FE401C46430936B1B22A46204600F007
:1059C00012FC658B204600F037FC8046204600F034
:1059D00011FC0646204600F0ACFB0746204600F0CE
:1059E000A8FB390C80B2434632460095FFF7DAFD3A
:1059F00094F82C00002820460CD000F09AFB0546B5
:105A0000204600F096FB2914491C001D89B280B283
:105A100060A20BE000F08DFB0546204600F089FBFC
:105A20002914491C001D89B280B25BA2FFF7F8FD62
:105A3000E069258BC788204600F07BFB06462046A0
:105A400000F077FB3114891CC01C89B280B201239D
:105A50003A460095FFF784FDE069258BC088401C1D
:105A600087B2204600F065FB0646204600F061FB49
:105A7000E16901233A46898800950844801D1FFA90
:105A800080FC3014801C81B26046FFF769FDE0693C
:105A9000258BC088401C87B2204600F04AFB064692
:105AA000204600F046FBE16901233A4689880095CB
:105AB0000844401D1FFA80FC3014801C81B26046EF
:105AC000FFF74EFD658B204600F0B6FB001F87B246
:105AD000E0698088C01C86B2204600F02AFB804620
