:020000040800F2
:107E0000601B0020E17F00085D521A001580000809
:107E10000000000000000000000000000000000062
:107E2000000000000000000000000000ED7F0008DE
:107E30000000000000000000EF7F0008F17F000854
:107E4000F37F0008F37F0008F37F0008F37F00084A
:107E5000F37F0008F37F0008F37F0008F37F00083A
:107E6000F37F0008F37F0008F37F0008F37F00082A
:107E7000F37F0008F37F0008F37F0008F37F00081A
:107E8000F37F0008F37F000800000000F37F000884
:107E9000F37F0008F37F0008F37F0008F37F0008FA
:107EA000F37F0008F37F0008F37F0008F37F0008EA
:107EB000F37F000800000000F37F000800000000CE
:107EC00000F002F800F07DF80CA030C80838241843
:107ED0002D18A246671EAB4654465D46AC4201D102
:107EE00000F06FF87E460F3E0FCCB64601263342B7
:107EF00000D0FB1AA246AB4633431847DC730000A0
:107F0000FC730000103A02D378C878C1FAD852073F
:107F100001D330C830C101D504680C60704700003F
:107F20000023002400250026103A01D378C1FBD895
:107F3000520700D330C100D50B60704710B56929D6
:107F400002D100F009F910BD642902D100F004F952
:107F500010BD752902D100F0FFF810BD6F2902D1C4
:107F600000F08EF910BD782902D100F0B1F910BDF2
:107F70000368DB0901D380231943632902D100F090
:107F80007BFC10BDE32902D100F08DFC10BD002068
:107F900010BD1FB5C046C0460098019900F0F9FC1D
:107FA00000F07EFD04000020002104F087FF401C4B
:107FB000606000F06FFB1FBD10B5002004F0EFFE05
:107FC00010BD00F04DFD1146FFF7E3FF04F070FF18
:107FD00000F084FD03B4FFF7EFFF03BC00F03AFDAF
:107FE0000748804707480047FEE7FEE7FEE7FEE751
:107FF000FEE7FEE704480549054A044B70470000C8
:10800000ADA20008C17E000898140020601B00206B
:108010005C1B002000B5FFB441464A4653465C460F
:1080200065463EB40D496A460A600D4908600D492F
:1080300088473EBC884691469A46A346AC46FFBC5C
:1080400000BD064801688D463EBC884691469A466A
:10805000A346AC46FFBC044800BD0000F01F002052
:10806000F41F0020C97E000890ED00080FB41CB575
:10807000074B06AA7B4469460090059800F0D9FB9F
:108080000020694600F0E8FB1CBC08BC04B018479F
:10809000E107000070B5044685690068C10601D596
:1080A000302600E02026C00707D070BD6268304649
:1080B000A1689047206A401C20626D1EF6D570BDF5
:1080C00070B5044685690078C00707D170BD626845
:1080D000A16820209047206A401C20626D1EF6D5C2
:1080E00070BD09684A0501D540B27047C905FCD585
:1080F00000B2704709684A0501D5C0B27047C9058A
:10810000FCD580B2704770B50C460546012A05D0F3
:108110002878800600D5EA69002302E0012305E003
:108120005B1C934202D2E05C0028F9D1A869E618F2
:10813000C01AA861286AC01828622846FFF7AAFF5B
:1081400004E06A682078A968641C9047B442F8D3B8
:108150002846FFF7B5FF70BDF7B5002575291068F3
:10816000009914A611D0FFF7BCFF002802DA4042A4
:1081700011A608E0009909688A0701D50FA602E058
:10818000490704D50EA6012501E0FFF7B3FF009FC4
:108190000024243704E000F0BAFB30313955641C68
:1081A0000028F8D12B4632462146009800F0E3FA29
:1081B000FEBD0000000000002D0000002B000000AC
:1081C00020000000F7B51546044686B02B497944D7
:1081D000002703C93E460090019111E007986A46C6
:1081E0007100415A02A800F06AFB411C07D02178B7
:1081F000890603D5E269391891420ED83F18761CDA
:108200002078800602D5E069B84206DDAE42E5DBA3
:1082100007987100405A0028E0D1A069C01BA061F6
:108220002046FFF737FF154979445A3903C90090B2
:108230000020019116E041006A460798415A02A8C1
:1082400000F03DFB0590401C0AD0002505E0626867
:1082500002A8A168405D90476D1C05988542F6D341
:108260000498401CB0420490E5DB206AC0192062EB
:108270002046FFF725FF09B0F0BD0000CE6B0000DF
:1082800070B5044621461068FFF734FF00212546EB
:10829000243505E04207520F30326A54491CC008A9
:1082A0000028F7D12068002307A2050708D520255C
:1082B0002840084304D0E069012304A2401EE06185
:1082C000204600F058FA70BD0000000030000000A9
:1082D00070B504460D4621461068FFF70BFF218854
:1082E000090502D50F4A7A4402E00E4A7A440E325A
:1082F00023460021243305E00607360F965D5E54C1
:10830000491C00090028F7D120780023000705D573
:10831000702D03D0002901D011320223204600F035
:108320002AFA70BDBE6A0000F3B50446002081B091
:1083300020622046E1688847002872D0252802D0B4
:108340006268A168ABE0594F00267F442046E1688F
:1083500088472028054608DB312D06D278192038B9
:108360000078002801D00643F0E7B00701D50420CB
:1083700086430020E0610746A0612A2D0AD02846E6
:1083800004F080FD002827D0303DB800001900908F
:10839000856119E00298BA00121902C89161029031
:1083A0002046E1688847012F054617D1E06900287B
:1083B0001FDA202086431CE000980A218069484388
:1083C00000994019303888612046E16888470546A1
:1083D00004F058FD0028EFD1012F0AD02E2D08D12E
:1083E0002046E16888470546202006437F1C022F6F
:1083F000C3DBA069002803DA4042A06101200643E4
:10840000F00701D0102086436C2D0BD0682D09D0C9
:108410004C2D3CD06A2D38D0742D38D07A2D36D0E2
:1084200016E040E0E1682F4620468847B8420546FE
:1084300009D16C2F29D001208002E1680643204633
:108440008847054604E06C2F1DD0FF20013006430D
:10845000002D28D028464138192803D80120C00211
:1084600006432035204626602946029A1646FFF725
:1084700065FD002810D001280BD0F61DF008C000C3
:108480000830029055E74020E1E78020D5E7002042
:10849000D3E7361D02964CE762682846A1689047EC
:1084A000206A401C44E7206AFEBD0000826A00008A
:1084B00030B5441C03E00178401C00290DD0810731
:1084C000F9D10B4BDD0104C8D11A91432940FAD0F0
:1084D000001B0A0603D0C01E30BD001B30BD0A04BD
:1084E00001D0801E30BD0902FCD0401E30BD00000E
:1084F0000101010101E004C0091F0429FBD28B071F
:1085000001D50280801CC90700D002707047002985
:108510000BD0C30702D00270401C491E022904D3AD
:10852000830702D50280801C891EE3E70022EEE764
:108530000022DFE7002203098B422CD3030A8B427F
:1085400011D300239C464EE003460B433CD400224B
:1085500043088B4231D303098B421CD3030A8B425D
:1085600001D394463FE0C3098B4201D3CB01C01A2B
:10857000524183098B4201D38B01C01A52414309F6
:108580008B4201D34B01C01A524103098B4201D3E4
:108590000B01C01A5241C3088B4201D3CB00C01A51
:1085A000524183088B4201D38B00C01A52414308C9
:1085B0008B4201D34B00C01A5241411A00D20146EE
:1085C0005241104670475DE0CA0F00D04942031087
:1085D00000D34042534000229C4603098B422DD3D6
:1085E000030A8B4212D3FC22890112BA030A8B427E
:1085F0000CD3890192118B4208D3890192118B42CD
:1086000004D389013AD0921100E08909C3098B4251
:1086100001D3CB01C01A524183098B4201D38B0194
:10862000C01A524143098B4201D34B01C01A524137
:1086300003098B4201D30B01C01A5241C3088B427C
:1086400001D3CB00C01A524183088B4201D38B0067
:10865000C01A5241D9D243088B4201D34B00C01AF1
:108660005241411A00D20146634652415B10104606
:1086700001D34042002B00D54942704763465B104E
:1086800000D3404201B50020C046C04602BD70473D
:108690007047704770B5064C7C44064D7D4403E03E
:1086A000206800198047241DAC42F9D170BD00003C
:1086B0006C6D00006C6D0000004870476C14002069
:1086C000004870477014002070B5064600F044F969
:1086D000056830460B30C408E400B44201D80020DD
:1086E00070BD68682A46002818D00168A14211D3DD
:1086F0000B46214608318B4208D3436801194B6071
:1087000003681B1B0B605160046001E0416851600D
:10871000001D70BD024640680028E6D1214628466B
:1087200000F022F90028DCD170BD70B50446051FA9
:1087300000F012F90068002C1AD0446801E02046CD
:108740006468002C01D0AC42F9D301680A18AA422F
:1087500004D12A6805468918016000E04560286850
:108760004119A14205D161686960216840182860FB
:1087700070BD6C6070BDFFB504460D4681B02430FD
:1087800000902168880604D51022E0699143216099
:1087900000E00120A84201DD471B00E0002704980B
:1087A000A1697A191018081AA0612078C00602D4AD
:1087B0002046FFF76FFC002608E003986268A16876
:1087C000805D9047206A401C761C20620498864297
:1087D000F3DB2078C0060AD52046FFF75BFC06E0F5
:1087E0006268A16830209047206A401C20623846A9
:1087F0007F1E0028F4DC07E000986268A168405DF5
:108800009047206A401C206228466D1E0028F3DC39
:108810002046FFF755FC2078000602D5022005B05F
:10882000F0BD0120FBE7000001694A1C02610878E5
:10883000704700B58FB00291002105910549019361
:1088400079440391114604906846FFF76DFD0FB01F
:1088500000BD0000E5FFFFFF0A681070521C0A60AF
:10886000704710B54369002B02D0C046C04601E0F6
:10887000FFF749FC012010BD1278014624310A702F
:1088800000224A700122ECE711680022D243E8E797
:1088900010B54369002B02D0C046C04601E0FFF787
:1088A00091FC012010BD12880146243182840022EF
:1088B000C2840122ECE711680022D243E8E770B5D8
:1088C00016460C46054600F03FF80368FF200230CC
:1088D000C05C012807D0FF2C10D8185D00280DD0EF
:1088E00001202C7070BDFF20324621460830C05850
:1088F0001B182846FF330833984770BD0020C0433B
:1089000070BD10B500F080F800F077F810BD01469A
:108910008008081A02091018020A1018020C101810
:10892000C008820012185200891A01E00A39401C5E
:108930000A29FBD2704710B500F07EF810BD000088
:10894000004870473814002010B500F0A9F8001D49
:1089500010BD00BF6945000000487047401400206A
:10896000704770477047704738B504460A46002084
:108970006946C046C046002805D0024620460099F8
:1089800000F092F8012038BD10B5012000F0CEF8BB
:1089900010BDF8B5C046C046054600200C46102064
:1089A000C0460646A819A0420DD9324669460020A5
:1089B000C046C046070001D100F0B8F80098A042B8
:1089C00000D00546C419FFF7C7FFF61D074605602E
:1089D000F008C0004619284600F008F8B44204D058
:1089E00031463868A21B00F05FF8F8BD0021016035
:1089F0004160806070471020704710B5002801D09A
:108A000000F028F810BD000010B5002102A000F011
:108A100073F8012010BD00005349475056464E3AA6
:108A20002050757265207669727475616C20666E6F
:108A30002063616C6C65640010B500F080F801691A
:108A4000002903D000220261884701E08068804746
:108A500000F04AF801491820ABBEFEE726000200EC
:108A60007546FFF76DFFAE46050069465346C008E0
:108A7000C000854618B020B5FFF7BCFA60BC0027DF
:108A80004908B6460026C0C5C0C5C0C5C0C5C0C5DA
:108A9000C0C5C0C5C0C5403D49008D4670470000F7
:108AA000004870475814002010B50346406801E0A4
:108AB00003464068002801D08842F9D31868C318DB
:108AC0008B4206D0CB1CD808C000001D411A521A98
:108AD0000146081D0A60FFF728FE10BD0446C04687
:108AE000C0462046FFF776FA002000F05BF8FFF75B
:108AF00063FA0120FFF7AEFF70B505460C460A2069
:108B000000E06D1C00F042F8002D06D02878002807
:108B1000F7D102E0641C00F039F8002C02D0207874
:108B20000028F7D10A2000F031F870BD10B500F030
:108B30003FF8FFF762FF10BD10B5FFF7D5FF70B526
:108B400000F02CF804680546002C15D12020FFF712
:108B5000BBFD040012D02C60094961600020206038
:108B60000849A1602073206107496061A061002964
:108B700001D000F089F8E061204670BDFFF7B4FF36
:108B800000000000398B00080000000008B56946AD
:108B900008700320ABBE08BD704700000048704756
:108BA0007414002010B500F091F8FFF726FF10BDF7
:108BB00010B5012805D0002103A0FFF79DFF01207B
:108BC00010BD09A1F8E7000053494752544D454DE7
:108BD0003A204F7574206F662068656170206D655E
:108BE0006D6F7279000000003A2048656170206D59
:108BF000656D6F727920636F727275707465640051
:108C0000024670B50A4392072AD11E4DEE0104C8F0
:108C100008C9541B9443344017D0D0B2D9B2401A7B
:108C20002106014310D190B299B2401A21040143A8
:108C30000AD110021902000A090A401A210201434E
:108C400002D1100E190E401A70BD9A42DFD010BA30
:108C500019BA884201D9012070BD0020C04370BDFF
:108C600002780B78401C491C002A09D09A4207D18F
:108C700002780B78401C491C002A01D09A42EFD0A0
:108C8000D01A70BD0101010110B58820FFF71CFD4D
:108C9000002801D00021017010BD802904D80028CF
:108CA00002D00178002901D0002070470121017015
:108CB00008307047002803D002460832914201D0A4
:108CC00000207047002101707047000010B500219E
:108CD00002A0FFF711FF012010BD000053494741DA
:108CE0004252543A2041626E6F726D616C2074651D
:108CF000726D696E6174696F6E00000010B58379E2
:108D000018490268002B26D00B6893430B604A6811
:108D100003689A434A60027952181368046823432F
:108D200013608A6803689A438A60CA6803689A4332
:108D3000CA604279102A05D051180A6800680243B7
:108D40000A6010BD8A6803681A438A60CA680068AE
:108D50000243CA6010BD0079401801689143016068
:108D600010BD000000040140F0B50022012423469C
:108D70000D6893401D409D422AD10D79012D01D0EF
:108D8000022D12D1876855000326AE40B743876095
:108D90004E79AE4085682E43866085889D438580E8
:108DA00085888B7993401D43858006685500032391
:108DB000AB409E4306600E790768AE403E430660B6
:108DC000C6689E43C660CB79AB40C5682B43C36081
:108DD000521C102ACBD3F0BD4B07DB0E9A40C908BA
:108DE00010B589000818016A0F249C40A143016254
:108DF000016A1143016210BD0246128A00200A4234
:108E000000D001207047002A01D0816170470185A0
:108E100070470000F7B53B4F00983B4C79673867C7
:108E2000206815460169009888472946374803F0AD
:108E30007CF8284602F0E8F94119344803F0BCF800
:108E40003349324803F025F931493048A83103F05D
:108E500020F930492D4803F01CF900253D702068A9
:108E600003210268386F90472A4CC0B20126E834CB
:108E700001281FD026700021264802F01BFE6570D5
:108E8000A670786F002824D01F4E31680A681C2114
:108E90009047C7B230681D2102681A48406F90475A
:108EA000C6B21848006F02F043F800211A4A800049
:108EB00010580BE025700121DEE7BA4200D1617045
:108EC000425CB24200D1A170491CC9B2425CFF2A87
:108ED000F3D1E57025716571A571E5712572657233
:108EE000A572E572009800F03DF809480B4910386A
:108EF000C1600021054803F03DF80021012001F088
:108F00002BF9FEBD00100020F41F0020E41000200B
:108F1000F41100204413002038CF00084DB00008A1
:108F200010B50E4C204603F066F8E01DFD3003F04E
:108F300081FE012001F0FEF8094C6188084305D04C
:108F4000002902D06088401E608010BD00210846C4
:108F500002F0C0F804206080F4E70000E410002074
:108F60000010002010B5002102F084F810BD0000B0
:108F7000F1B505278A4D8B4E00248948295D6D3057
:108F8000415C306802680098904701468648027844
:108F90009301864A9A182B5D641C5B00E4B2D1529F
:108FA000BC42EAD37E4E01250024F61E07467C48CB
:108FB000315D801E415C7B480068026800989047E4
:108FC0003978CA00784978315118325D641C9200B2
:108FD000E4B28850AC42EAD37248012100680268CA
:108FE0000098904784B2050C2046284307D070486B
:108FF0000088012803D001216E4802F0BBFFF86A07
:10900000012600282CD0002C01D0002D14D0684857
:10901000B83002F0D8FDF96A884203D16448B8300C
:1090200002F036FEF86A6449428B8A4218D04183C6
:10903000002102F00CFD10E000214183012102F02B
:1090400006FD5B48B83002F0BEFDF96A884204D0E4
:1090500057480021B83002F0C2FDF86A203006708F
:1090600038780C225043514A002140328018630660
:1090700002224171002B00DA42716B0600D5467165
:109080008171E30600D58271EB0600D58671C1714E
:10909000A30600D5C271AB0600D5C6710172E30705
:1090A00000D00272EB0700D00672230600D50272D0
:1090B0002B0600D506724172630700D542726B071A
:1090C00000D546728172A30700D58272AB0700D526
:1090D0008672C172210700D5C272290700D5C672F7
:1090E000F96A002947D041793A694B002C49548BE1
:1090F000491DCB5A9C4202D053832032167084798A
:109100007A696400538B0C5BA34202D054832032F3
:109110001670C479BA696400538B0C5BA34202D009
:10912000548320321670047AFA696400538B0C5B06
:10913000A34202D0548320321670447A3A6A640003
:10914000538B0C5BA34202D0548320321670847A76
:109150007A6A6400538B0C5BA34202D054832032A2
:109160001670C07ABA6A4000538B085A834202D004
:10917000508320321670B868002801D02030067065
:10918000F868002801D020300670786E002801D0E1
:1091900020300670F86C002801D020300670F8BD31
:1091A000EBCE0008F41F002000100020EC1300207C
:1091B000E4110020E410002018C6000070B5064637
:1091C0000D4800244068472814D0FF21403100207A
:1091D00000F0D2F900F046FE4B25AD02304600F01B
:1091E00017FE641CAC42F9D301221021034800F0A1
:1091F0003DF870BD0021EAE7B810002000140048D7
:109200007CB50121880500F0BFFE102000900320EE
:10921000694648710120087100208871114CC8719D
:109220002046FFF7A1FD01221021204600F01EF884
:1092300080200D4D009069462846FFF795FD0124DA
:10924000E403694628460094FFF78EFD012221467B
:10925000284600F00BF801228021284600F006F88D
:109260007CBD000000140048000C004810B5FFF75A
:10927000CAFD10BD10B5064B203A9B68D2B21C68DF
:10928000DB8853435A00A21800F004F810BD000018
:10929000B8100020F7B582B000260090039900F0C6
:1092A0006BF91C4D2FE000F0DDFD00241AE00C21CD
:1092B0003846FFF73FF9C1008020884020410499DB
:1092C0007200895A084201D10C2F05D90120A04013
:1092D000014203D10C2F01D9688800E0288800F0F2
:1092E00097FD641CA8688788A742E0D80122102156
:1092F0000948FFF7BBFF00980399401C80B200901B
:1093000000F03AF9761CA868C088B042CBD805B006
:10931000F0BD0000B81000200014004870470000A5
:10932000FFB5194D0646686881B0174600244728E6
:1093300005D1FF2102984031081A80B202903046D0
:10934000029900F019F90498002819D100F08AFD5B
:1093500003E0288800F05CFD641CBC42F9D30122C4
:1093600010210A48FFF782FF05B0F0BD288800F001
:1093700069FD761CB6B23046029900F0FDF8641C17
:10938000BC42F3D3F0E70000B810002000140048FE
:10939000024A13880380508808807047B810002064
:1093A0000148806870470000B810002003484068FA
:1093B000472801D00120704700207047B8100020D6
:1093C00070B52A4C002621883825A94321802188A0
:1093D00008221143218000F073FD732000F094FDFA
:1093E000FF21204600F06AFE8021204600F026FE84
:1093F0000028F9D10121204600F020FE0028F9D0F4
:10940000204600F04FFE761CF6B2052EE8D3FF2171
:10941000204600F053FE8021204600F00FFE002879
:10942000F9D10121204600F009FE0028F9D0FF21E2
:10943000204600F043FE8021204600F0FFFD00287A
:10944000F9D10121204600F0F9FD0028F9D020468D
:1094500000F0FBFD0646012210210548FFF706FF3C
:109460002088A8432080304670BD000000300140B5
:1094700000140048F0B5032087B00121400400F03B
:1094800083FD01212F4800F097FD2020009003214B
:109490006846417102250571002484710927C47151
:1094A000FF0669463846FFF75FFC1020264E009005
:1094B00069463046FFF758FC8020009069463846E0
:1094C000FFF752FC002205213846FFF785FC0022F9
:1094D00004213046FFF780FC002207213846FFF7C1
:1094E0007BFC1A4F384600F089FD6846FF21048155
:1094F00005314181072109028181C581012505824C
:10950000690241828482C4820721018302A938460C
:1095100000F09EFD2903384600F0C6FD01213846C3
:1095200000F062FD0427684600974571057185715A
:10953000C47169463046FFF717FCB08A3843B082E1
:1095400007B0F0BD011000000004004800300140E9
:1095500001B5684600880149488008BDB810002060
:1095600003B56946098803480180694689884180B6
:109570000CBD0000B810002070B505460E480C4622
:109580004068472808D02946202000F073FC214677
:10959000212000F06FFC70BD210A022000F06AFC5F
:1095A000E1B2032000F066FC0021062000F062FC1E
:1095B00029460720EDE70000B81000200149886027
:1095C00070470000B810002001B5684600880149C6
:1095D000088008BDB8100020F8B5FFF711FEFFF7AE
:1095E00049FFFE48416847297DD04168FC4AFF2772
:1095F0004037914278D1052003F04CFC0121C9038A
:10960000E52000F037FC0121002000F033FCFF21B1
:109610000131012000F02EFC07210902022000F098
:1096200029FCF049032000F025FC0021042000F073
:1096300021FCED49082000F01DFC0021092000F06C
:1096400019FC00210A2000F015FC00210C2000F07C
:1096500011FC00210D2000F00DFC00210F2000F076
:1096600009FC0021102000F005FC0021112000F071
:1096700001FC0021122000F0FDFB0021132000F06E
:10968000F9FB142003F006FCD849102000F0F2FB8F
:10969000FF213831112000F0EDFB052003F0FAFB2B
:1096A000B91F122000F0E6FB052003F0F3FB1D219B
:1096B0000902132000F0DEFB1321292000F0DAFB61
:1096C000052003F0E7FB0021202000F0D3FB002160
:1096D000212000F0CFFB0621302000F0CBFBFF2142
:1096E0000231312001E07BE097E100F0C3FB032170
:1096F000322000F0BFFBFF210731352000F0BAFB1C
:10970000BB49362000F0B6FBBA49372000F0B2FB67
:10971000B949382000F0AEFB0721392000F0AAFB40
:10972000032149023C2000F0A5FBAF493D2009314F
:1097300000F0A0FB0021502000F09CFBEF21512005
:1097400000F098FB0021522000F094FB3946532092
:1097500000F090FB27210902602000F08BFB012123
:10976000612000F087FB00216A2000F083FB0021CC
:10977000802000F07FFB0021812000F07BFB002196
:10978000822000F077FB0021832000F073FB002192
:10979000842000F06FFB0021852000F06BFB10217E
:1097A000902000F067FB0021922000F063FB032172
:1097B000932000F05FFBFF211131952000F05AFB50
:1097C0000021972000F056FB0021982000F052FB6A
:1097D00084490320183900F04DFBFF21743103E365
:1097E0000021EA2000F046FB2021EB2000F042FBA4
:1097F0000C21EC2000F03EFBC421ED2000F03AFBF0
:109800004021E82000F036FB3821E92000F032FB4F
:109810000121F12000F02EFB1021F22000F02AFBA4
:10982000A321272000F026FB0121402000F022FB8D
:109830000021412000F01EFB0021422000F01AFB15
:109840001021432000F016FB0E21442000F012FBF3
:109850002421452000F00EFB0421462000F00AFBE5
:109860005021472000F006FB0221482000F002FBB7
:109870001321492000F0FEFA19214A2000F0FAFADB
:1098800019214B2000F0F6FA16214C2000F0F2FAD4
:109890001B21502000F0EEFA3121512000F0EAFAAD
:1098A0002F21522000F0E6FA3F21532000F0E2FA87
:1098B0003F21542000F0DEFA3E21552000F0DAFA74
:1098C0002F21562000F0D6FA7B21572000F0D2FA43
:1098D0000921582000F0CEFA0621592000F0CAFADA
:1098E00006215A2000F0C6FA0C215B2000F0C2FAD3
:1098F0001D215C2000F0BEFACC215D2000F0BAFAF8
:109900001B21084600F0B6FA01211A2000F0B2FA35
:109910002F21242000F0AEFA5721252000F0AAFACA
:109920008621232000F0A6FA3621182000F0A2FAA2
:109930000121192000F09EFA0021012000F09AFA7E
:1099400088211F2000F096FA022003F0A3FA80215C
:109950001F2000F08FFA022003F09CFA90211F20B4
:1099600000F088FA022003F095FAD0211F2000F0C1
:1099700081FA022003F08EFA0521172000F07AFA0E
:109980000021012000F076FA0021022000F072FA96
:109990000021032000F06EFA0121042000F06AFA91
:1099A0003F21052000F066FA0021062000F062FA4F
:1099B0000021072000F05EFA0021082000F05AFA8A
:1099C000EF21092000F056FA2821162000F052FA63
:1099D0000021362000F04EFA04210FE0B8100020DC
:1099E000209300003010000002020000B0170000B9
:1099F000020B00000203000007070000362000F001
:109A000039FA3821282000F035FA062003F042FA0E
:109A10003C21282000F02EFAF8BD4168F34AFF24CB
:109A20000634F34DF34E91427ED1F349E32000F02A
:109A300021FA1221E72000F01DFAF049EF2000F092
:109A400019FA611F012000F015FA0721090202200E
:109A500000F010FAE900032000F00CFA00210420C5
:109A600000F008FA291F082000F004FA002109205C
:109A700000F000FA00210A2000F0FCF900210C207F
:109A800000F0F8F900210D2000F0F4F900210F207A
:109A900000F0F0F90021102000F0ECF90021112075
:109AA00000F0E8F90021122000F0E4F90021132071
:109AB00000F0E0F9142003F0EDF90721112000F087
:109AC000D9F9052003F0E6F9CC4910207F3100F0E8
:109AD000D1F9052003F0DEF9FF21BE31122000F09C
:109AE000C9F9052003F0D6F905218902132000F0F9
:109AF000C1F90E21292000F0BDF9052003F0CAF9B3
:109B00000021202000F0B6F93946212000F0B2F9FA
:109B10000721302000F0AEF9B5493120FC3100F0CA
:109B2000A9F92146322000E072E000F0A3F92946AD
:109B3000352000F09FF93146362000F09BF9294688
:109B4000372000F097F9AE49382000F093F907214B
:109B5000392000F08FF921463C2000F08BF9314686
:109B60003D2000F087F90021502000F083F9EF211B
:109B7000512000F07FF90021522000F07BF9394696
:109B8000532000F077F9A7210902602000F072F954
:109B90000121612000F06EF900216A2000F06AF9CD
:109BA0000021802000F066F90021812000F062F998
:109BB0000021822000F05EF90021832000F05AF994
:109BC0000021842000F056F90021852000F052F990
:109BD0001021902000F04EF90021922000F04AF967
:109BE0000321932000F046F9FF211131952000F068
:109BF00041F90021972000F03DF90021982000F064
:109C000039F98049032000F035F9FF211331EBE0E9
:109C100040687D49884200D0FEE60121002000F026
:109C200029F9FF210131012000F024F9072109025F
:109C3000022000F01FF97349032000F01BF90021F6
:109C4000042000F017F96A490820091F00F012F9F2
:109C50000021092000F00EF900210A2000F00AF985
:109C600000210C2000F006F900210D2000F002F97F
:109C700000210F2000F0FEF80021102000F0FAF87B
:109C80000021112000F0F6F80021122000F0F2F877
:109C90000021132000F0EEF8142003F0FBF85B49DC
:109CA000102000F0E7F8FF213831112000F0E2F831
:109CB000052003F0EFF8FF213A31122000F0DAF826
:109CC000052003F0E7F81D210902132000F0D2F867
:109CD0001321292000F0CEF8052003F0DBF8002145
:109CE000202000F0C7F80021212000F0C3F8072150
:109CF000302000F0BFF83E493120FC3100F0BAF8C6
:109D00002146322000F0B6F82946352000F0B2F89E
:109D10003146362000F0AEF82946372000F0AAF888
:109D20003749382000F0A6F80721392000F0A2F8C2
:109D300021463C2000F09EF831463D2000F09AF884
:109D40000021502000F096F8EF21512000F092F809
:109D50000021522000F08EF83946532000F08AF896
:109D6000A7210902602000F085F80121612000F0A0
:109D700081F800216A2000F07DF80021802000F0A9
:109D800079F80021812000F075F80021822000F090
:109D900071F80021832000F06DF80021842000F08C
:109DA00069F80021852000F065F81021902000F06E
:109DB00061F80021922000F05DF80321932000F06B
:109DC00059F8FF211131952000F054F80021972017
:109DD00000F050F80021982000F04CF809490320C9
:109DE00000F048F8FF213431072013E60854000042
:109DF00006020000080800000830000031120000D0
:109E0000040500001810000025930000B0170000A2
:109E100070B50B4D0446010A284600F04FF9802129
:109E2000284600F00BF90028F9D1E1B2284600F0ED
:109E300045F98021284600F001F90028F9D170BDCC
:109E40000030014010B5044600F00CF82046FFF742
:109E5000DFFF012210210248FFF708FA10BD0000C1
:109E60000014004810B5222000F02AF8722000F0FB
:109E70004BF810BD70B50C4600F022F8722000F0CF
:109E800043F80D4D210A284600F018F98021284694
:109E900000F0D4F80028F9D1E1B2284600F00EF91C
:109EA0008021284600F0CAF80028F9D101221021AB
:109EB0000248FFF7DBF970BD003001400014004894
:109EC00070B50546702000F01FF80D4C00212046AB
:109ED00000F0F4F88021204600F0B0F80028F9D115
:109EE0002946204600F0EAF88021204600F0A6F836
:109EF0000028F9D1012210210248FFF7B7F970BDFF
:109F0000003001400014004810B504460022102122
:109F10000748FFF7ABF92146064C204600F0CEF883
:109F20008021204600F08AF80028F9D110BD0000F9
:109F3000001400480030014030B5817801220378D8
:109F4000002915D09C080E49A400641821689B07BD
:109F5000DD0EFF23AB40994343789B071B0EAB40BC
:109F60000B4323600078C006C00E8240054804E021
:109F7000D806C00E824003488030026030BD000029
:109F800000E400E000E100E0044A0029516901D04A
:109F9000014300E08143516170470000001002401E
:109FA000044A0029116901D0014300E08143116195
:109FB0007047000000100240044A0029916901D056
:109FC000014300E0814391617047000000100240AE
:109FD000044A0029D16801D0014300E08143D160E7
:109FE000704700000010024040220029018801D083
:109FF000114300E091430180704700000D4910B506
:10A00000884209D1841401212046FFF7E1FF002195
:10A010002046FFF7DDFF10BD07498842FBD104143D
:10A0200001212046FFF7BCFF00212046FFF7B8FFC3
:10A0300010BD000000300140003800400246128987
:10A0400000200A4200D0012070478089704700003C
:10A0500030B50388C122920113400A88CC890D894A
:10A060002243CC882C4322434C8922438C892243AF
:10A070001A4302808288094B1A408B8813438380DD
:10A080000A8A02820288042349889A431143018084
:10A09000818B034A1140818330BD0000FFF0000036
:10A0A000FFF70000007B70478288034B1A408280D4
:10A0B00082880A4382807047FFEF00000173704777
:10A0C00038B500200090FFF787FA0020FFF778F9F5
:10A0D0000146009009480A4C814205D00948814256
:10A0E00002D0401F814203D16060FFF775FA01E0A2
:10A0F0004720606002480C30A06038BD0854000062
:10A10000B81000202593000010B50021062000F0B3
:10A1100023F80021042000F01FF80021052000F0A2
:10A120001BF80021022000F017F80021032000F0A6
:10A1300013F810BD10B5064A4100515A054A800077
:10A140001058FEF759FE002800D0012010BD000075
:10A1500044D200089C100020F3B504468700214833
:10A1600085B0C0590121FFF70FFF01210846FFF715
:10A1700023FF002668460673C6731A486500103828
:10A18000405B0290184802A9C059FEF7EDFD069801
:10A19000012825D113483830415D0E38405D00F06C
:10A1A00025F810481C30405B009068460671002C72
:10A1B00003D0012C01D0082000E00C206946487132
:10A1C000012468468471FEF799FD06484630415DDA
:10A1D0006846017403214174847404A8FFF7ACFE3F
:10A1E00007B0F0BD54D200089C1000208A07130F5E
:10A1F00010B50F229A408C080549A40061188C689C
:10A2000094438C608A68984002438A6010BD0000C5
:10A21000000001401CB50021224801910091026814
:10A2200001231B041A4302605B0005221203046829
:10A230001C400094019C641C0194009C002C02D1E1
:10A24000019C9442F3D10268920328D50121009128
:10A25000154A1121116041684160416841604168BF
:10A260007F22D203914341604168112212041143BD
:10A2700041600168012212061143016001688901F1
:10A28000FCD5416889088900416041680222114378
:10A29000416041680907890F0229FAD11CBD00916C
:10A2A0001CBD0000001002400020024010B5144800
:10A2B00001680122114301604168124A1140416066
:10A2C0000168114A11400160016801229204914322
:10A2D000016041683F22120491434160C16A09094B
:10A2E0000901C162016BFF22543291430163416B4A
:10A2F00049084900416300218160FFF78BFF10BDD1
:10A30000001002400CB8FFF8FFFFF6FEF0B585B074
:10A31000282002F00DFD032100910523324A33A1CC
:10A3200002F0CAFC0190282002F002FD1E210091DB
:10A3300005232D4A30A102F0BFFC0290282002F034
:10A34000F7FC3C2100910523274A35A102F0B4FC1B
:10A350000390282002F0ECFC4B2100910523224AB7
:10A3600038A102F0A9FC0746282002F0E1FC5A219E
:10A37000009105231C4A3CA102F09EFC06462820C1
:10A3800002F0D6FCB42100910523174A3FA102F048
:10A3900093FC0546282002F0CBFC73210091052395
:10A3A000114A424902F088FC04460F48019901F025
:10A3B000DAFB0D48029901F0D6FB0B48039901F036
:10A3C000D2FB3946084801F0CEFB3146064801F081
:10A3D000CAFB2946044801F0C6FB2146024801F0A9
:10A3E000C2FB05B0F0BD0000F411002048656C70A0
:10A3F0002050616765000000557365207468652012
:10A400006A6F79737469636B20746F20776F726BF6
:10A410002077697468204C43442047554900000068
:10A420002D55502F444F574E20746F206D6F766519
:10A43000206265747765656E20636F6E74726F6CF1
:10A44000730000002D4C4546542F52494754482074
:10A45000746F206D6F7665206265747765656E2018
:10A4600070616765730000002D53454C20746F20A8
:10A47000696E7465726163742077697468207468AA
:10A480006520636F6E74726F6C000000436F7079AB
:10A4900072696768742053544D6963726F656C65A7
:10A4A0006374726F6E69637300000000F6CE00087B
:10A4B000F0B587B00021E34801F0FCFA282002F053
:10A4C00037FC0021DF4A0B460091A832DEA102F0E2
:10A4D000F3FB0546282002F02BFCDA4E35220A2138
:10A4E000A836029201913C2300969B22DCA102F047
:10A4F0003BFB0746282002F01BFC112100910F2393
:10A500003A46DCA102F0D8FB0490282002F010FCAF
:10A51000252100910F233A46D9A102F0CDFB0590E9
:10A52000382002F005FC0F216E22D84C00970192D2
:10A530000291217803238A01D5495118D5A201F04F
:10A5400079F9A060382002F0F3FB23226E210097F6
:10A5500002920191217803238A01CD495118891C67
:10A56000CCA201F067F9E060282002F0E1FB1421A1
:10A57000CD2201920291AA2300966422C6A102F084
:10A58000F3FA0390282002F0D3FB0F21009105235A
:10A59000C3A1039A02F090FB2061282002F0C8FBBF
:10A5A000212100910523C1A1039A02F085FB60617E
:10A5B000282002F0BDFB332100910523BEA1039AA0
:10A5C00002F07AFBA061282002F0B2FB4521009145
:10A5D0000523BCA1039A02F06FFBE061282002F082
:10A5E000A7FB572100910523B9A1039A02F064FB50
:10A5F0002062282002F09CFB692100910523B7A16D
:10A60000039A02F059FB6062282002F091FB7B2143
:10A6100000910523B4A1039A02F04EFBA062302002
:10A6200002F086FB8D2100910A23B2A1039A00F06B
:10A63000FBFEB349E0624162B2494183002101F06F
:10A6400006FA3046E16A01F08EFA2946304601F0FA
:10A650008AFAAD4800680169206F8847C00656D560
:10A66000282002F065FB73220A21029201913C230B
:10A670000096BE22A5A102F077FA0646282002F035
:10A6800057FB1121009105233246A4A102F014FBCF
:10A690000290382002F04CFB0546206F00F048FC89
:10A6A00081009F48324641580F200191009021239C
:10A6B0000021284602F04CF805469A482860019986
:10A6C0000020E962A886284602F09CF8002128466E
:10A6D00002F0B9F85B483146A830656001F043FAF2
:10A6E00058480299A83001F03EFA56486168A830EF
:10A6F00001F039FA20780C2148436549403140186F
:10A700004178606802F09FF86168874848624D4868
:10A710003946A83001F027FA4A480499A83001F0D8
:10A7200022FA48480599A83001F01DFA4548A16869
:10A73000A83001F018FA4348E168A83001F013FA94
:10A740000021A06801F083F90021E06801F07FF9A1
:10A750006D4800680169206F8847010F022903D006
:10A760000001000F022813D1302002F0E1FAB221DB
:10A77000344A00910A23A8326CA100F055FE01462C
:10A78000A0653048A83001F0EEF9A16D6C48486230
:10A790002C480399A83001F0E6F92A482169A8302D
:10A7A00001F0E1F927486169A83001F0DCF925489A
:10A7B000A169A83001F0D7F92248E169A83001F079
:10A7C000D2F92048216AA83001F0CDF91D48616A0C
:10A7D000A83001F0C8F91B48A16AA83001F0C3F9FC
:10A7E00021780C2041432A482269403008184179D9
:10A7F0004B004B492839CB5A5383837962695B00FC
:10A80000CB5A5383C379A2695B00CB5A5383037A33
:10A81000E2695B00CB5A5383437A226A5B00CB5ACE
:10A820005383837A626A5B00CB5A5383C07AA26AED
:10A830004000085A50830348A83001F029FA07B0B5
:10A84000F0BD0000F4110020436F6E6669677572F9
:10A850006174696F6E20616E642064656275670063
:10A86000506F77657220626F6172642073746174D7
:10A870007573000044432042757320766F6C74003A
:10A880004865617473696E6B20542E0000100020BF
:10A89000EC130020253364004661756C747300006E
:10A8A0004F76657263757272656E74005265767567
:10A8B00070206661696C0000537065656420666491
:10A8C000626B00005357206572726F7200000000C7
:10A8D000556E64657220766F6C7400004F766572F9
:10A8E00020766F6C740000004F7665722074656D81
:10A8F000700000004661756C742061636B0000009D
:10A9000035B0000818C60000F41F00204441432061
:10A9100053657474696E677300000000436831000A
:10A9200018CF00086CEF00087DB10008456E636F1A
:10A9300064657220616C69676E6D656E74000000FD
:10A94000C5B10008F0B58BB0282002F0F1F9002164
:10A950000B460091FD4AFEA102F0AEF903902820BB
:10A9600002F0E6F9F94914230A226C460EC45A2370
:10A970009122FCA102F0F8F80746282002F0D8F94D
:10A980001E2100913C233A46F9A102F095F904906A
:10A99000282002F0CDF9412100913C233A46F5A14F
:10A9A00002F08AF90590282002F0C2F90F210091E7
:10A9B00005233A46F0A102F07FF90690402002F00C
:10A9C000B7F90522F04C1E210192009702912178DF
:10A9D0002246C900783289180623ECA201F084FAD5
:10A9E00005462063EA48402100680268206F9047CE
:10A9F0000646E7483F2100680268206F9047AE6333
:10AA0000E863282002F094F93221009105233A46A8
:10AA1000E0A102F051F90790382002F089F94121B4
:10AA200005220097019202912178C84D8901A8352D
:10AA30004919091D0623D5A200F0FCFED94A0021C0
:10AA4000606300F0C9FE302002F072F941210091EC
:10AA50005A233A46D4A100F0E7FCD549A0634162ED
:10AA600000F000FA282002F063F9064673220A215A
:10AA7000B6480292019100904B236822CDA1304646
:10AA800002F072F80646282002F052F914210091D3
:10AA90000A233246CAA102F00FF90890282002F0DA
:10AAA00047F9232100910A233246C6A102F004F996
:10AAB0000990382002F03CF98446142028210096A1
:10AAC000019102902078062380014119891DAFA2CF
:10AAD000604600F0AFFEE063382002F029F98446BA
:10AAE00023202821009601910290207806238001DE
:10AAF00041190831A5A2604600F09CFE20649348ED
:10AB0000039901F030F89148049901F02CF88F482E
:10AB1000059901F028F839468C4801F024F88B4853
:10AB2000069901F020F88948216B01F01CF887484C
:10AB3000079901F018F88548616B01F014F8834813
:10AB4000A16B01F010F88148E16D01F00CF87F482D
:10AB5000216E01F008F87D48616E01F004F87B4831
:10AB6000E16E01F000F80021606E00F070FF7748A0
:10AB7000A16E00F0F8FF3146744800F0F4FF73480E
:10AB8000089900F0F0FF7148099900F0ECFF6F4858
:10AB9000E16B00F0E8FF6D48216C00F0E4FF7C48B9
:10ABA00000680169206F884780072BD5282002F0B4
:10ABB000BFF8322100910A23324683A102F07CF8CB
:10ABC0000746382002F0B4F832212822009601927C
:10ABD000029121780623890149190A316BA200F0FC
:10ABE00029FE60643946594800F0BDFF5748616C42
:10ABF00000F0B9FF6B4A0021606C00F0EDFDE16BE5
:10AC000072484862674E00213246E06B00F0E4FD76
:10AC100032460021206C00F0DFFD5D4800680169CC
:10AC2000206F8847C0077DD0282002F081F847496F
:10AC300073237D226E460EC64B23B42264A101F01D
:10AC400093FF0646282002F073F80E270A233246A7
:10AC500063A1009702F030F80390282002F068F812
:10AC6000502332465EA1009702F026F80490382067
:10AC700002F05EF819270A210297009601912178C7
:10AC80000423890149190C3157A200F0D3FDA064B7
:10AC9000382002F04DF8502102970096019121785A
:10ACA0000423890149190E314FA200F0C3FDE0646D
:10ACB000282002F03DF82C270A23324640A10097B5
:10ACC00001F0FAFF0590282002F032F850233246B6
:10ACD0003CA1009701F0F0FF0746382002F028F869
:10ACE00037210A22009601920291217806238901D8
:10ACF0004919103125A200F09DFD2065382002F091
:10AD000017F83721502200960192029121780623EC
:10AD10008901491912311DA200F08CFD6065314690
:10AD20000A4800E08EE000F01EFF0848039900F09A
:10AD30001AFF0648049900F016FF0448A16C00F0C1
:10AD400012FF0248E16C00F00EFF4FE044130020B8
:10AD5000537065656420636F6E74726F6C6C65729E
:10AD60000000000053657420706F696E740000006D
:10AD700072706D006D7300005461726765742073AA
:10AD80007065656400000000001000202536640036
:10AD9000F41F002052616D70206475726174696FD8
:10ADA0006E000000FF7F0000457865630000000032
:10ADB000DDB10008504944204761696E730000000E
:10ADC0004B5000004B4900004B4400000DB10008FF
:10ADD000466C757820776C2E2074756E696E6700EE
:10ADE0004255538000000000253464000021E06CCF
:10ADF00000F02DFE1848059900F0B5FE39461648BA
:10AE000000F0B1FE1448216D00F0ADFE1248616DF6
:10AE100000F0A9FE7D22D2000021A06C00F0DCFC35
:10AE20000E4D00212A46206D00F0D6FC2A46002156
:10AE3000606D00F0D1FCA16C09484862216D486248
:10AE4000616D4862E16B06484862216C48620248C5
:10AE500000F01EFF0BB0F0BD44130020FF7F000088
:10AE60000DB100083EB5282001F062FF1422A02396
:10AE700021490193029200915A2391221FA101F0CE
:10AE800073FE204CE065282001F052FF0F21009155
:10AE900005231DA1E26D01F00FFF2066402001F0A7
:10AEA00047FFE26D1E250521009202950191217850
:10AEB0002246C90078328918091D062316A201F01E
:10AEC00013F86066302001F033FF41210091052323
:10AED00012A1E26D00F0A8FAA066282001F028FF78
:10AEE00000953C2310A1E26D01F0E6FEE066A16E44
:10AEF0000E4848623EBD0000081100204D6F6E698B
:10AF0000746F7200001000204D6561737572656486
:10AF100020737065656400002536640053746172A7
:10AF2000742F53746F70000072706D00D5B00008FC
:10AF300010B527490024096809698847010E0907E7
:10AF400003D0010F09290DD010E0000F092800D10E
:10AF500001240A2800D10224012801D0022835D179
:10AF6000032433E00201120F0A2A05D00A2904D172
:10AF70000201120F092A00D10624092905D1020174
:10AF8000120F022A09D0012A07D00201120F092A42
:10AF900004D1022901D0012900D104240A2905D1B4
:10AFA0000201120F022A09D0012A07D00201120F52
:10AFB0000A2A04D1022901D0012900D105240B2934
:10AFC00004D10001000F092800D10724204610BD3C
:10AFD000F41F002010B5144800F025FE1248A830D8
:10AFE00000F021FE114800F01EFE114800214160D2
:10AFF0008160C160016141618161C1610162416241
:10B000008162C162016341638163C1630164416420
:10B010008164C164016541658165C1650166416600
:10B020008166C16610BD0000F411002044130020A9
:10B0300000100020034807210068C2680248006F22
:10B0400010470000F41F00200010002010B50C462F
:10B05000FFF7C0FF002C06D0012C07D0022C01D135
:10B06000FFF770FC10BDFFF751F910BDFFF720FA94
:10B0700010BD0000F3B50E46880113490024114F9E
:10B0800081B045181148015D5D2907D03868026814
:10B0900001989047411C01D061006852641CE4B2E1
:10B0A000202CEFD338680421026801989047084AA1
:10B0B000F1005050688F3146C2B2019800F046F856
:10B0C000FEBD0000F41F0020EC13002058CF000844
:10B0D0007810002070B50A4C0A4A20780A4D810188
:10B0E00089188A88C0002146783109582868436841
:10B0F000206F984728680621C268206F904770BD6E
:10B1000000100020EC130020F41F002030B40A4689
:10B11000018D0A480A4C03789B011B19C91AC905FD
:10B120000B0E0849C95C5D2905D0074B006F1B68F1
:10B130009B6830BC184730BC7047000000100020EE
:10B14000EC13002058CF0008F41F0020F8B5154676
:10B150008A01084954182246383207490092096882
:10B16000931E8E69121F2946B047E08E0621484380
:10B17000E086F8BDEC130020F41F002070B50D4CE4
:10B180006168884214D1088E0C21C5B220784843EA
:10B19000094940184570206FFFF7CAFE0749800033
:10B1A00008580021425D06480068C369606F9847EF
:10B1B00070BD0000001000202C14002038CF0008C3
:10B1C000F41F0020034808210068C2680248006F8D
:10B1D00010470000F41F0020001000200748084B13
:10B1E00001788A01D218C900034678335958054BB3
:10B1F00092881B68006F5B681847000000100020F1
:10B20000EC130020F41F0020014600200A5C401CC3
:10B21000C0B2002AFAD1704710B5002400F0F9F846
:10B22000002800D00124204610BD70B50446426AB3
:10B2300020340D46002A09D0217B002906D0002D9C
:10B2400004D16178002901D000219047257370BD99
:10B2500070B500240546052906D10021FFF7E5FF5A
:10B26000284601F05BF80124284600F0D2F80028B7
:10B2700000D00124204670BDF0B50546C06987B0F6
:10B28000C1888688891D8CB2A86AFDF711F94643EA
:10B29000F61DB1B22246284601F07CF8284601F09E
:10B2A00018F800906846008886B2284601F011F828
:10B2B00000906846408884B2284601F099F8801EC4
:10B2C00087B2284601F06DF8801E80B20390688B2B
:10B2D0000090284601F08CF80290284601F061F8B1
:10B2E0000190284600F0F5FF0590284600F0F1FF98
:10B2F00004906846C08A029B81B26846008A019A1F
:10B3000080B200F055FB284600F083F8002827D0D3
:10B31000284600F0DEFF009068460088801C86B258
:10B32000284600F0D6FF009068464088801C84B212
:10B33000688B0090284601F05BF8401E82B2601EC8
:10B3400081B20190701E80B2012300F00FFB688B68
:10B350000090284601F025F8801E82B2019810E086
:10B36000688B0090601C81B203980123301880B272
:10B370003A4600F0FBFA688B00900398801C82B27A
:10B38000E01981B20023304600F0F0FA688B00909B
:10B390003B4621463046039A00F00AFB288B00907A
:10B3A000F81E82B2A01C81B20190B01C80B20123B1
:10B3B00000F0DCFA2120405D002801D01F2000E0D1
:10B3C000288B00900398BF1E801E82B2641C701CE4
:10B3D000BBB2A1B280B200F0EBFA0198F61C81B2C8
:10B3E000AA6AB0B200F020FB07B0F0BD8162012173
:10B3F00020300170704710B504460020052907D1A0
:10B4000001212046FFF711FF204600F087FF0120B1
:10B4100010BD2030017B002904D04078002801D0E5
:10B42000012070470020704770B51C4616460D4637
:10B4300022463146049B00F011FB044600210748D8
:10B44000616220602C2001550121204600F0FFFAA6
:10B4500029462046FFF7CAFF204670BDECED0008E4
:10B4600010B501F060FC10BD70B5C46A0D46002C2B
:10B4700000D111A43321095C0B0001F06DFC06180A
:10B480000404080C101800F05FF802460AE000F00F
:10B490005BF882B206E000F057F802B202E000F07A
:10B4A00053F8C2B221462846FCF7E0FD70BD00F01B
:10B4B0004BF842B2F6E700002564000070B50E4676
:10B4C0000446002500F053FC002824D0A06A002880
:10B4D00020D020462030012E02D0022E1AD10BE0BF
:10B4E000228E817C52182286FF2901D0491C81744A
:10B4F000204600F05AF90AE0228E817C52182286FA
:10B50000FF2901D0491C8174204600F006F820462E
:10B5100000F004FF0125284670BD10B5044600F078
:10B5200013F83022A25E3423811AE35E20462030D5
:10B530008B4204DD92102286827C92088274C07C49
:10B54000204600F031F810BD00B533210A5C816A55
:10B55000130001F001FC060D040406080B0D086839
:10B5600000BD088800BD0020085E00BD087800BD51
:10B570000020085600BD70B50E460446002500F0B8
:10B58000F6FB002800D00125052E09D120462030E9
:10B59000C178002906D00021C170204600F0BEFE0F
:10B5A000284670BD0121F7E710B50446806A0028DF
:10B5B0001DD03422A25E8A4219DC3622A25E8A4263
:10B5C00015DB3322125D022A04D0042A04D049B2CA
:10B5D000017002E0016000E00180606A002806D08E
:10B5E0002046FFF7B1FF0146626A2046904710BD32
:10B5F000F0B58FB00446202105A8FCF799FF658BB4
:10B60000204600F0F5FE0746204600F0CAFE06463A
:10B61000204600F05EFE0290204600F05AFE0490A4
:10B620000095684640893B4681B26846008A3246AA
:10B6300080B200F0BDF9258B204600F0D9FEC01E77
:10B6400086B2204600F045FE0190204600F041FE03
:10B65000039000956846C0880123801C81B268462B
:10B6600080893246801C80B200F080F92546203562
:10B67000687800281DD0204600F0BAFE801E86B2F1
:10B68000204600F08EFE801E87B2204600F021FE8C
:10B690000290204600F01DFE01901F200090684699
:10B6A00040893346401C81B268468088401C80B285
:10B6B0001DE0268B204600F09BFE801E80B2049089
:10B6C000204600F06EFE801E87B2204600F001FE8C
:10B6D0000290204600F0FDFD0190009668464089EA
:10B6E000049B401C81B268468088401C80B23A4668
:10B6F00000F05EF9204600F03AFB002809D0687897
:10B70000002806D01F21C943684601800088FDF744
:10B710001FFFA878002805D11049684601800088DD
:10B72000FDF716FFA06A002816D005A92046FFF7EE
:10B730009BFE204600F0CDFD0190204600F0C9FDA3
:10B7400000906846C08805AA801C81B268460088BF
:10B75000C01C80B200F068F90FB0F0BDFF7F0000A0
:10B7600070B50E460446002500F001FB00281AD0F3
:10B77000A06A002816D02046002101222030012E88
:10B7800002D0022E0ED105E022868174204600F000
:10B790000CF804E0228681742046FFF7BEFE2046A6
:10B7A00000F0BCFD0125284670BD10B50446FFF72A
:10B7B000CBFE3022A25E36238118E35E2046203085
:10B7C0008B4204DA92102286827C92088274C07CBA
:10B7D0002046FFF7E9FE10BD8186C2867047000053
:10B7E000F8B50E461D46174606A90EC900F0CAFA5E
:10B7F0000E490160044602212030C174E762012134
:10B80000A6622186E069C1888088091D68438AB2E2
:10B81000401D81B2204600F0BDFD0549A186891E6C
:10B82000E186002120466162F8BD000014EE0008A8
:10B8300001800000F8B50E461D46174606A90EC940
:10B8400000F0A0FA0E490160044604212030C174C2
:10B85000E7620121A6622186E069C1888088091D0E
:10B8600068438AB2401D81B2204600F093FD05492D
:10B87000A186891EE186002120466162F8BD000094
:10B8800014EE00080180000010B501F04CFA10BD64
:10B89000FEB50F4611491C4609881646081A401E77
:10B8A00085B2002A18D001A96846FDF771FD0898F5
:10B8B000FDF78AFE07E03846791C8FB20023324636
:10B8C0002946FDF72DFD2046641EA4B20028F2D1C2
:10B8D00068460088FDF778FEFEBD0000CE1000200F
:10B8E00010B5FEF7EDFB054C2046FDF767FC204642
:10B8F000FDF72EFE0020FDF767FE10BDFFFF0000E4
:10B90000F7B50E4604460546FDF750FD164F0128D3
:10B9100003D13888001B401E85B2FDF741FD8088A9
:10B920003988001988420ED8FDF73AFD808806282C
:10B9300004D1FDF735FDC088082805D029463046DA
:10B94000029AFDF797FCFEBDFDF72AFD0468FDF79E
:10B9500027FD818802982038414348002218F0B220
:10B960002946FDF7DBFCFEBDCE100020FFB50E46DC
:10B970000E4983B009881446081A401E85B201A9F1
:10B9800068460C9FFDF704FD3846FDF71DFE002CB0
:10B9900006D0641EA2B229463046069BFDF7C0FCC5
:10B9A00068460088FDF710FE07B0F0BDCE100020FD
:10B9B000FFB51C4983B009880C9F081A401E1C461D
:10B9C000154686B2002A2BD0002C29D001A9684642
:10B9D000FDF7DEFC3846FDF7F7FD6F1EBAB2002317
:10B9E00031460498FDF79CFC0498BAB20019401E39
:10B9F00080B200233146FDF793FC601E82B2012322
:10BA000031460498FDF78CFC701B401C81B2012369
:10BA100022460498FDF784FC68460088FDF7D4FDB3
:10BA200007B0F0BDCE10002070B514460E46054696
:10BA300009E031462846FFF763FFFDF7B1FC808837
:10BA4000401985B2641C2278002AF2D170BD2030E2
:10BA50008170002900D1417070470000F0B585B0B9
:10BA60001F46944600240D46064623463A46614644
:10BA700001A8009400F014FC02462946304600F06C
:10BA8000F9FC04490160014620318C704C7005B00E
:10BA9000F0BD000038EE000810B501F044F910BD0B
:10BAA00000224274002904D02122125C002A00D016
:10BAB0004174704721221154002900D1417470470C
:10BAC00010B500F075FC10BD70B50C4600F0A8FC78
:10BAD00005460A482860002C0AD0204600F088FC61
:10BAE000A1892289891A024689B2284600F052FCAF
:10BAF000012121204155284670BD00005CEE000860
:10BB0000FFB585B00F461E46114602A80F9D0E9C3C
:10BB100000F0B8FB0246009433463946019505987B
:10BB200000F0D6FC03490122016021210A5409B02A
:10BB3000F0BD00005CEE000810B500F0EDFC03491C
:10BB40000122016021210A5410BD00005CEE0008B2
:10BB500070B50D46044600F0FDFC203569782120C3
:10BB60000155204670BD10B500290AD00246A0320A
:10BB70001346D288202A04D294002018521CDA805E
:10BB8000416210BD70B50C46054600F01CF8016816
:10BB90004A6921469047002807D1012C06D0022C83
:10BBA00003D1284600F074F8012070BD284600F04B
:10BBB00088F8F9E710B50B4600F005F801688A69C6
:10BBC0001946904710BD0146A031CA8889888A422B
:10BBD00003D989000818406A704700207047F8B5FB
:10BBE00006460446A036F0880F46B8421AD92046C9
:10BBF000FFF7E9FF0025203045702046FFF7E3FFFF
:10BC000000F08CFBB7802046FFF7DDFF2030457049
:10BC100082780121002A00D041702046FFF7D3FF2F
:10BC200000F07CFBF8BD70B5002405460646A03543
:10BC300009E0A0008019406A002802D00168496824
:10BC40008847641CE4B2E888A042F2D80020A880AB
:10BC5000E88070BD70B5044620300078002802D01E
:10BC6000204600F05BFB2646A036F08800280ED068
:10BC7000002509E0A8000019406A2021095C00297C
:10BC800001D000F04BFB6D1CF088A842F2DC70BDC7
:10BC900010B50146A031CB88002B11D089880A4607
:10BCA000491C8B4200D800218A4206D08C002418FF
:10BCB000646A2034A478002CF2D089B2FFF78FFF99
:10BCC00010BD10B50146A031CB88002B11D089885A
:10BCD0000A46002900D11946491E8A4206D08C0026
:10BCE0002418646A2034A478002CF2D089B2FFF7BB
:10BCF00076FF10BD70B5044600F05AFB2646A0360C
:10BD0000F08800280AD0002505E0A8000019406A44
:10BD100000F004FB6D1CF088A842F6DC70BD70B525
:10BD20000C460546FFF74FFF01680A692146904718
:10BD3000002807D1012C06D0022C03D12846FFF79A
:10BD4000A7FF012070BD2846FFF7BBFFF9E7000001
:10BD500010B5FFF7B9FE0449016000210246A03288
:10BD60009180D180417410BD80EE00087047203072
:10BD7000C178002904D04078002801D00120704704
:10BD80000020704710B5FFF769FE044605482060A3
:10BD900000212320015501212046FFF758FE2046AF
:10BDA00010BD0000A4EE000810B500F0BCFF10BDEF
:10BDB00070B50E4604460025FFF7D9FF002826D0AF
:10BDC000A06A002822D020462030012E02D0022E68
:10BDD0001CD10CE0218E827C89182186817CFF2970
:10BDE00001D0491C8174204600F067F80BE0218ED9
:10BDF000827C89182186817CFF2901D0491C8174AD
:10BE0000204600F006F8204600F088FA0125284672
:10BE100070BD10B50446FFF797FB01463020205E49
:10BE2000A26B091A8A4206DD801020862046203047
:10BE3000827C92088274204600F001F810BD10B593
:10BE40000446806A002810D0A26B8A420DDCE26BA7
:10BE50008A420ADB0160606A002806D02046FFF7AC
:10BE600073FB0146626A2046904710BD70B50E46CE
:10BE700004460025FFF77BFF00281CD0A06A00289D
:10BE800018D020462030012E02D0022E12D107E019
:10BE90000121218600218174204600F00EF806E081
:10BEA00001212186002181742046FFF7B2FF204640
:10BEB00000F034FA0125284670BD10B50446FFF79E
:10BEC00043FB01463020205EE26B09188A4206DA05
:10BED0008010208620462030827C92088274204682
:10BEE000FFF7ADFF10BD0000FEB508AC70CC6F468B
:10BEF00070C7FFF775FC034901600349816303497B
:10BF0000C163FEBDC8EE00086179FEFF3F420F002D
:10BF100010B500F008FF10BD10B50C4600F022F877
:10BF200001684A692146904710BD10B5903000F075
:10BF3000BDFE10BD70B50C46054600F013F8016853
:10BF40008A6921469047002807D1032C06D0042C8B
:10BF500003D1284600F035F8012070BD284600F0D6
:10BF60007DF8F9E7FF210131095A89000818C0302E
:10BF7000006A704770B5C41D0546F93460880E46E6
:10BF8000B04218D92846FFF7EDFF0021FFF788FDE2
:10BF900026802846FFF7E6FF0121FFF781FD2846AE
:10BFA000FFF7E0FF012120300170E268002A02D093
:10BFB00031462846904770BD10B5B83000F076FE87
:10BFC00010BD10B5C11DF9314A88002A12D0098868
:10BFD0000B46491C8A4200D800218B4207D08C00B6
:10BFE0002418C034246A20346478002CF1D089B23B
:10BFF000FFF7C0FF10BD70B504460546B0300078AD
:10C000009035002805D0284600F0D2F9284600F0E7
:10C0100085F9D8202546005DB835002805D028468A
:10C0200000F0C6F9284600F079F92020005D0028CC
:10C0300002D0204600F072F9E01DF93041880088F6
:10C0400081420AD980000019C030006A002804D05B
:10C050002046FFF787FFFFF7FDFD70BD10B5C11D3E
:10C06000F9314A88002A13D009880B46002901D0EB
:10C07000491E00E0511E8B4207D08C002418C034AA
:10C08000246A20346478002CF0D089B2FFF772FF64
:10C0900010BD10B500290BD0C21DF93213465288CD
:10C0A000082A05D294002018E024521C5A8001511D
:10C0B00010BD704710B50C46FFF754FF01680A69C0
:10C0C0002146904710BD0000FFB59DB004461546BF
:10C0D00011461AA8279E00F0D5F82699009102462D
:10C0E000019600212046209BFFF70AFD5D49016073
:10C0F0002430FFF721FD2430FFF71EFD2430FFF729
:10C100001BFD243000F0ECFD283000F0E9FD044672
:10C110004C3055490B9001600021B83C4160FFF75D
:10C12000DFFBE01DF93000210F9041800F984F4F49
:10C1300001802889A9880022401A83B2F888114614
:10C14000801C80B200901AA800F0AAF802461F20B6
:10C150000090474B2146019702A8FFF7D1FC01460A
:10C16000204648300D90FFF7F3FC0D9800F0D6F80C
:10C170002889A988401A83B26889E988411AF08819
:10C18000091A801C891E80B20AB2009000211AA8E8
:10C1900000F086F82699009102460196214602A8F1
:10C1A000209BFFF7ADFC014620466C300E90FFF758
:10C1B000CFFC0E9800F0B2F86889E988471A0E980B
:10C1C00000F016F93F1A0D9800F012F9381A87B2EC
:10C1D0002889A988401A85B20D9800F009F902B2A1
:10C1E0002B4600211AA8009700F05AF80246204872
:10C1F000009000232146019602A8FFF781FC01462A
:10C20000204624300546FFF7A3FC284600F086F8B8
:10C2100001200090034610A80D9A1E9900F04CFDD5
:10C2200001462046903000F06DFD00200090012373
:10C2300010A110A80E9A00F03FFD01462046B8302C
:10C2400000F060FD20462021E030FCF771F90B9DE5
:10C2500000F0A2FC6C600F980021C160204621B064
:10C26000F0BD0000ECEE0008B8EF0008C41000209C
:10C27000FFFF00002000000001490160704700003E
:10C28000ECEE0008054A02608A888280CA88C28073
:10C290000A890281498941817047000010EF000836
:10C2A00030B5054D039C05608180C280C9180181AD
:10C2B0001119418130BD000010EF000803490160F1
:10C2C00000218180C18001814181704710EF000809
:10C2D00070471CB50446002000906069002812D009
:10C2E000FFF7F7FF009068460088218941186846EB
:10C2F00001806069FFF7EDFF01906846C0886189A1
:10C300004118684603E021896846018061894180BF
:10C3100000981CBD0020704700207047F0B504460F
:10C3200085B0002120300170204600F066F800281A
:10C3300013D0E069002801D0FDF740F9618B684611
:10C340000180218B818081880088FDF709F92068B0
:10C3500081682046884705B0F0BDE0896189268B59
:10C36000401A85B2A0892189401A87B22046FFF77A
:10C37000B0FF01902046FFF7ACFF0490009668469E
:10C38000C0882B4681B26846008A3A4680B2FFF7E1
:10C390007FFAE0E703895918818141898918C181B1
:10C3A000704781890089081A80B270470020704761
:10C3B000F0B585B00746048B00F01AF806463846FB
:10C3C000FFF7EFFF05463846FFF783FF0190384639
:10C3D000FFF77FFF049000946846C088334681B21F
:10C3E0006846008A2A4680B2FFF752FA05B0F0BDCF
:10C3F000C1894089081A80B2704710B50446406967
:10C40000002808D0FFF7F9FF002806D0607C00283C
:10C4100003D0012010BD607C10BD002010BD0000C5
:10C420000A4610B5124902C0FFF748FF041F00205A
:10C4300020816081A081E08101216174217420212B
:10C44000085520461A30811E6261FCF7A1FFFCF7F7
:10C45000A7FFE0616069002807D0408B60836069B6
:10C46000008B20836069C069E061204610BD000038
:10C4700020EF00080B4610B5144902C0FFF71EFF5D
:10C48000041F90882081D08860811089A081508904
:10C49000E081012060742074002120200155204695
:10C4A0001A30811E6361FCF773FFFCF779FFE061CE
:10C4B0006069002807D0408B60836069008B20830F
:10C4C0006069C069E061204610BD000020EF0008EF
:10C4D000F8B50F460F49069E079D02C0FFF7EEFE16
:10C4E000041F90882081D08860811089A0815089A4
:10C4F000E0810120607420740021202067610155D3
:10C5000063832683FCF74CFFE061002D00D0E561DA
:10C510002046F8BD20EF000810B50D4902C0FFF716
:10C52000CDFE041F002020816081A081E0810121D7
:10C530006174217420210855606120461A30811EE3
:10C54000FCF726FFFCF72CFFE061204610BD000041
:10C5500020EF00088B688360CB68C3600A7C02749C
:10C560004A7C42744A6942610A8B02834A8B428345
:10C57000CA692031C2610A7820210A54704710B577
:10C580000024FFF7F4FB002800D00124204610BD52
:10C5900070B50E4604460025FFF7E9FB002800D0E1
:10C5A0000125052E09D120462030C178002906D06A
:10C5B0000021C1702046FFF7B1FE284670BD012161
:10C5C000F7E7F0B5816A87B0044600290ED0E0692C
:10C5D000C2888688121D95B20846FBF769FF46435C
:10C5E000761DB1B22A462046FFF7D4FE658B204661
:10C5F000FFF7FEFE07462046FFF7D3FE064620461D
:10C60000FFF767FE01902046FFF763FE0490009558
:10C610006846C0883B4681B26846008A324680B28E
:10C62000FFF7C6F9258B2046FFF7E2FEC01E86B253
:10C630002046FFF74EFE01902046FFF74AFE03908A
:10C6400000956846C0880123801C81B268468089B5
:10C650003246801C80B2FFF789F92546203568787C
:10C6600000281ED02046FFF7C3FE801E87B220465A
:10C67000FFF797FE801E86B22046FFF72AFE029043
:10C680002046FFF726FE01901F2000906846408953
:10C690003B46401C81B2684680883246401C80B2CE
:10C6A0001EE0268B2046FFF7A3FE801E80B204907A
:10C6B0002046FFF776FE801E87B22046FFF709FE70
:10C6C00002902046FFF705FE0190009668464089DB
:10C6D0003A46401C81B268468088049B401C80B268
:10C6E000FFF766F92046FFF742FB002809D068787B
:10C6F000002806D01F21C943684601800088FCF746
:10C7000027FF2046FFF7E5FD02902046FFF7E1FDF9
:10C71000019068464089A26A801C81B26846808880
:10C72000C01C80B2FFF780F907B0F0BD01232022C2
:10C7300081621354426A002A00D01047704710B536
:10C740000024FFF714FB002800D00124204610BD70
:10C7500070B51C4616460D4622463146049BFFF72F
:10C7600011FB0446044820600020606229462046F0
:10C77000FFF7DCFF204670BD44EF000810B500F065
:10C78000D2FA10BD10B50024FFF7F1FA002800D04E
:10C790000124204610BD70B50E4604460025FFF763
:10C7A000E6FA00281BD0012E02D0022E16D109E095
:10C7B000208E002800D1608E401E81B2204600F0FD
:10C7C00042F80FE0618E208E491E884201D100217F
:10C7D00001E0401C81B2204600F035F80125052E0D
:10C7E00003D000E00125284670BD20462030C178E6
:10C7F000002905D00021C1702046FFF78FFDF1E729
:10C800000121F8E710B5044600206086E06A0028A0
:10C8100012D110BDFBF74CFEA18E884206D9618E65
:10C82000E06A89004058FBF743FEA086608E401CFA
:10C8300080B26086FF28ECD8618EE06A890040589B
:10C840000028E7D110BD428E8A4208D9002A06D0BE
:10C850000186C26A890051580268D2691047704740
:10C86000F0B50446C06987B0C1888088091D8AB2C6
:10C87000A18E491C48430A3081B22046FFF78AFD49
:10C88000658B2046FFF7B4FD07462046FFF789FD7C
:10C8900006462046FFF71DFD01902046FFF719FDD3
:10C8A000049000956846C0883B4681B26846008A7D
:10C8B000324680B2FFF77CF8258B2046FFF798FDC3
:10C8C000C01E86B22046FFF704FD01902046FFF708
:10C8D00000FD039000956846C0880123801C81B24A
:10C8E000684680893246801C80B2FFF73FF82546B3
:10C8F0002035687800281ED02046FFF779FD801E7D
:10C9000087B22046FFF74DFD801E86B22046FFF716
:10C91000E0FC02902046FFF7DCFC01901F20009015
:10C92000684640893B46401C81B268468088324652
:10C93000401C80B21EE0268B2046FFF759FD801E6A
:10C9400080B204902046FFF72CFD801E87B220465F
:10C95000FFF7BFFC02902046FFF7BBFC019000965A
:10C96000684640893A46401C81B268468088049BEC
:10C97000401C80B2FFF71CF82046FFF7F8F90028AA
:10C9800009D06878002806D01F21C9436846018075
:10C990000088FCF7DDFD2046A56AFFF79AFC0090B1
:10C9A0002046FFF796FC6B46029058882A46801C6A
:10C9B00081B21889C01C80B2FFF736F8658B20461B
:10C9C000FFF716FDC01E86B22046FFF782FC0390DB
:10C9D0002046FFF77EFC01902046FFF7E2FC6B4605
:10C9E000998832464118E06980880095081AD989EB
:10C9F000401F891C80B289B20123FEF7B7FF658B07
:10CA00002046FFF7F5FCC01E86B22046FFF761FC0A
:10CA100003902046FFF75DFC01902046FFF7C1FC24
:10CA20006B46998832464118E06980880095081A5B
:10CA3000D989001F891C80B289B20123FEF796FFB5
:10CA4000658B2046FFF7D4FCC01E86B22046FFF758
:10CA500040FC03902046FFF73CFC01902046FFF786
:10CA6000A0FC6B469988C01E40180095D98980B2F9
:10CA7000891C89B201233246FEF778FF208B6B4672
:10CA80001880608B988099881888FCF769FD20468B
:10CA9000FFF71FFC01902046FFF71BFC009020468B
:10CAA000FFF77FFC6B46198806A24118E069808871
:10CAB000081AD988C01E891C80B289B2FEF7B4FF5B
:10CAC00007B0F0BD760000000123202281621354DC
:10CAD000426A002A00D01047704710B50024FFF7C3
:10CAE00046F9002800D00124204610BD10B500F002
:10CAF0001AF910BDFEB50446458BFFF779FCE169D4
:10CB000089884908401A87B22046FFF74AFC0190FD
:10CB10002046FFF7DEFB0090E06980884108684608
:10CB20004088081886B22046FFF7D3FB0290009594
:10CB3000684600893B4680B23146019AFEF738FFCD
:10CB40002046656AFFF7C5FB01902046FFF7C1FB51
:10CB500000906846C0882A4681B268460088801DD9
:10CB600080B2FEF761FFFEBDF8B516461D4606AA67
:10CB70001CCA009400F0A0F8044604482060AAB241
:10CB8000B1B22046FFF706FC2046F8BD94EF00083E
:10CB900010B500F0C8F810BD10B5FDF7B5FA10BD1E
:10CBA000F8B50E46054606240B0000F0D5F8050B37
:10CBB0000406080A0B00042404E0052402E0032410
:10CBC00000E002242046FDF7B5FA194F01281AD1DA
:10CBD0007878A0420CD13878002802D0401E3870F6
:10CBE00006E06868002803D001684A69314690472A
:10CBF0007878FF2807D17C706868002803D0016826
:10CC00000A69314690472046FDF794FA00280DD175
:10CC10007878A0420AD1FF207870052038706868C3
:10CC2000002803D001688A6931469047F8BD0000AA
:10CC3000CC10002010B504460521FFF7B1FF0121FB
:10CC40002046FFF7ADFF02212046FFF7A9FF032191
:10CC50002046FFF7A5FF04212046FFF7A1FF10BDE6
:10CC60007CB5416A044600291DD0E069C5888688E4
:10CC70000846FBF71DFC4643B1B22A462046FFF7A3
:10CC800089FB2046FFF725FB01902046FFF721FB9B
:10CC900000906846C088626A81B26846008880B2A7
:10CCA000FEF7C2FE7CBDFFF783FB7CBD4162012124
:10CCB000203001707047000070B51D4616460C46C6
:10CCC0002A463146049BFEF7C9FE0246034810601F
:10CCD00021461046FFF7EAFF104670BDC8EF000876
:10CCE00010B5FFF719FC00210246203291705170F7
:10CCF000014A0260416210BDC8EF000810B500F0A3
:10CD000012F810BD70B50C460546FFF723FC20460F
:10CD100020302946427820314A7080788870606AD5
:10CD20006862284670BD10B5FBF7FFFC10BD00001F
:10CD300010B5040008D1012406E0FBF7BDFC006833
:10CD4000002800D1034880472046FBF7BDFC00289F
:10CD5000F3D010BD3789000830B47446641E2578BE
:10CD6000641CAB4200D21D46635D5B00E31830BC1F
:10CD70001847F7B507460E4600251020FBF7A4FC20
:10CD800004000AD06760A6600298E060FBF798FC98
:10CD90000168216004602846FEBD0125FBE7F8B567
:10CDA0000646FBF78DFC009015E0002E04D0E068ED
:10CDB000B04201D025460FE0206828600098A168A5
:10CDC0000768606888472046FBF7AFFC009800685A
:10CDD000B84201D0009805462C68002CE5D1F8BD7A
:10CDE00010B50020FBF78DFD10BD00001CB5F02034
:10CDF000FF2300220090413311461948FFF750FAF3
:10CE0000184A1949FFF7B5FF1F20154A1749009026
:10CE100001911046164B17A10C30FFF755F9114A36
:10CE20001549FFF7A6FF0E49303108460C46EC3095
:10CE3000FEF78EFF0B4A1149FFF79BFF2146104872
:10CE4000FEF786FF074A0D49FFF793FF0C4821467E
:10CE5000A830FEF77DFF034A0849FFF78AFF1CBD93
:10CE6000D8100020007E0008D1C20008D010002099
:10CE7000FFFF00000000000079C200086DBD00083F
:10CE80009C12002030380A2801D20120704700206F
:10CE90007047000001B581B00449019848430090F3
:10CEA000002801D0401EFAE70CBD0000D08400002D
:10CEB00010B5FBF7C6F8002010BD000010B5002922
:10CEC0000AD00878002807D005487844FBF798FE78
:10CED000002801D0002010BD0248784410BD000099
:10CEE0002E24000026240000015D1E0001070B0D0A
:10CEF00018C600F81F004C4344206D616E616765E1
:10CF000072207665723A20342E3000000000000056
:10CF10000000000000000000000000007CCF0008BE
:10CF20007CCF000824D100087CD100087CD1000807
:10CF300008D00008A4D0000800000000D8CF0008E6
:10CF4000EFCF000868D10008E0D10008F9D100084F
:10CF500084D0000808D10008191A5D0506071821B9
:10CF60001617081F0C20090A0B0D0E0F10111213B3
:10CF700015145D5D5D5D5D5D5D000000E4EF000822
:10CF8000F6EF000898F0000850F000082CF00008B8
:10CF900008F00008CEF00008BCF000083EF00008E1
:10CFA0001AF00008AAF0000862F0000804F1000876
:10CFB0003AF10008F2F00008E0F0000828F100085B
:10CFC00016F100084CF100085EF1000874F000084A
:10CFD00086F0000800000000232425262728292A9F
:10CFE0002B2C2D2E31323334353642433D3EFF2338
:10CFF0002425262728292A2B2C2D2E3738393A3B51
:10D000003C44453D3EFF0000E4EF0008F6EF000819
:10D0100098F0000850F000082CF0000808F0000814
:10D02000CEF00008BCF000083EF000081AF000083E
:10D03000AAF0000862F00008B8F10008EEF100085C
:10D0400082F1000870F1000894F10008A6F10008D0
:10D05000CAF10008DCF1000848F200087EF200087E
:10D0600012F2000800F2000824F2000836F200086C
:10D070005AF200086CF2000874F0000886F000080C
:10D0800000000000232425262728292A2B2C2D2EBA
:10D0900031323334353642433738393A3B3C4445F4
:10D0A0003D3EFF00E4EF0008F6EF000898F00008AE
:10D0B00050F000082CF0000808F00008CEF000083E
:10D0C000BCF000083EF000081AF00008AAF00008C2
:10D0D00062F0000890F20008A2F20008B8F100081F
:10D0E000EEF1000882F1000870F1000894F10008E8
:10D0F000A6F10008CAF10008DCF1000874F000088D
:10D1000086F0000800000000232425262728292A6D
:10D110002B2C2D2E373831323334353642433D3EB9
:10D12000FF000000E4EF0008F6EF000898F00008A8
:10D1300050F000082CF0000808F00008CEF00008BD
:10D14000BCF000083EF000081AF00008AAF0000841
:10D1500062F00008B4F20008C6F2000874F000089B
:10D1600086F0000800000000232425262728292A0D
:10D170002B2C2D2E2F303D3EFF000000E4EF000849
:10D18000F6EF000898F0000850F000082CF00008B6
:10D1900008F00008CEF00008BCF000083EF00008DF
:10D1A0001AF00008AAF0000862F00008B4F20008C3
:10D1B000C6F2000804F100083AF10008F2F0000895
:10D1C000E0F0000828F1000816F100084CF1000812
:10D1D0005EF1000874F0000886F00008000000000E
:10D1E000232425262728292A2B2C2D2E2F30313297
:10D1F0003334353642433D3EFF2324252627282954
:10D200002A2B2C2D2E2F303738393A3B3C44453DC4
:10D210003EFF00000002000409000A0001000100B6
:10D2200000400000000002000000020000040008AE
:10D2300000100400000008000000080000000800C2
:10D2400000001000002000010001000240008000EA
:10D2500001000000000008000000040000000800B9
:10D2600000000800000008000000080000000200A4
:10D2700000200001000100024000800001000200C7
:10D280000100020002000200020000000D00080080
:10D29000080009000600070000000700070007005B
:10D2A0000700070007000500000000000000000064
:10D2B000000000000000000000000000000000006E
:10D2C000000000000000000000000000000000005E
:10D2D00000000000000000000000800180018001CB
:10D2E0008001800180018001800180018001800136
:10D2F000800180010000000080018001000000002A
:10D30000000000000000000000000000CC00CC0085
:10D31000CC00CC00CC00CC000000000000000000DD
:10D3200000000000000000000000000000000000FD
:10D3300000000000000000000000000000000000ED
:10D3400000000000600C600C600C30063006FE1F10
:10D35000FE1F300638071803FE1FFE1F18031803B0
:10D360008C018C018C01000000008000E003F80FAC
:10D370009C0E8C1C8C188C009800F801E007800E25
:10D38000801C8C188C189C18B80CF00FE0038000DF
:10D3900080000000000000000000000000000E18E7
:10D3A0001B0C110C11061106110311039B018E01B8
:10D3B000C038C06C60446044304430441844186C39
:10D3C0000C380000000000000000E001F003380706
:10D3D000180618063003F001F000F8009C310E33F7
:10D3E000061E061C061C063FFC73F0210000000010
:10D3F0000000000000000000000000000C000C0015
:10D400000C000C000C000C000000000000000000EC
:10D41000000000000000000000000000000000000C
:10D420000000000000000000000000020003800176
:10D43000C000C000600060003000300030003000EC
:10D44000300030003000300060006000C000C000DC
:10D450008001000300020000000020006000C00006
:10D46000800180010003000300060006000600069C
:10D47000000600060006000600030003800180018C
:10D48000C00060002000000000000000000000005C
:10D4900000000000C000C000D806F807E00130031B
:10D4A000380700000000000000000000000000003D
:10D4B000000000000000000000000000000000006C
:10D4C0000000000080018001800180018001FC3F9C
:10D4D000FC3F80018001800180018001000000008C
:10D4E000000000000000000000000000000000003C
:10D4F000000000000000000000000000000000002C
:10D500000000000000000000000080018001000118
:10D51000000180000000000000000000000000008A
:10D5200000000000000000000000000000000000FB
:10D53000E007E0070000000000000000000000001D
:10D5400000000000000000000000000000000000DB
:10D5500000000000000000000000000000000000CB
:10D5600000000000000000000000C000C00000003B
:10D5700000000000000000000000000C000C00068D
:10D580000006000600030003000380038001800101
:10D590008001C000C000C00060006000000000000A
:10D5A00000000000000000000000E003F007380E5B
:10D5B000180C0C180C180C180C180C180C180C184B
:10D5C0000C180C18180C380EF007E00300000000CF
:10D5D0000000000000000000000000018001C00108
:10D5E000F0019801880180018001800180018001A3
:10D5F0008001800180018001800180010000000025
:10D6000000000000000000000000E003F80F180C0C
:10D610000C180C1800180018000C000600038001FC
:10D62000C000600030001800FC1FFC1F000000005C
:10D6300000000000000000000000E001F807180EE4
:10D640000C0C0C0C000C0006C003C007000C0018EA
:10D6500000180C180C18180CF807E0030000000064
:10D6600000000000000000000000000C000E000F91
:10D67000000F800DC00C600C600C300C180C0C0CF2
:10D68000FC3FFC3F000C000C000C000C00000000F4
:10D6900000000000000000000000F80FF80F180064
:10D6A00018000C00EC03FC071C0E001C00180018EE
:10D6B00000180C181C0C180EF807E00300000000FE
:10D6C00000000000000000000000C007F00F381C40
:10D6D000181818000C00CC03EC0F3C0E1C1C0C1886
:10D6E0000C180C18181C380EF007E003000000009E
:10D6F00000000000000000000000FC1FFC1F000CE8
:10D7000000060006000380038001C001C000E000A5
:10D710006000600070003000300030000000000049
:10D7200000000000000000000000E003F007380ED9
:10D73000180C180C180C3806F007F007180C0C1809
:10D740000C180C180C18380CF80FE003000000003F
:10D7500000000000000000000000E003F007380EA9
:10D760001C0C0C180C180C181C1C381EF81BE0198B
:10D770000018000C000C1C0EF807F001000000005F
:10D780000000000000000000000000000000000099
:10D790000000000080018001000000000000000087
:10D7A0000000000000000000800180010000000077
:10D7B0000000000000000000000000000000000069
:10D7C0000000000080018001000000000000000057
:10D7D0000000000000000000800180010001000145
:10D7E00080000000000000000000000000000000B9
:10D7F00000000000000000000010001C800FE0038B
:10D80000F8001800F800E003800F001C0010000072
:10D810000000000000000000000000000000000008
:10D820000000000000000000F81F000000000000E1
:10D83000F81F0000000000000000000000000000D1
:10D8400000000000000000000000000000000000D8
:10D85000000000000000000008003800F001C007D0
:10D86000001F0018001FC007F0013800080000006A
:10D8700000000000000000000000E003F80F180C9A
:10D880000C180C180018000C000600038001C000E2
:10D89000C000C00000000000C000C0000000000088
:10D8A000000000000000000000000000E007181861
:10D8B0000420C229224A1144094409440944092286
:10D8C0001113E20C024004201818E00700000000C9
:10D8D0000000000000000000000080038003C0067C
