:020000040803EF
:1000000030700020850203085D521A00C102030807
:100010009102030893020308950203080000000000
:10002000000000000000000000000000970203082C
:1000300099020308000000009B0203089D020308C8
:100040009F0203089F0203089F0203089F02030800
:100050009F0203089F0203089F0203089F020308F0
:100060009F0203089F0203089F0203089F020308E0
:100070009F0203089F0203089F0203089F020308D0
:100080009F0203089F0203089F0203089F020308C0
:100090009F0203089F0203089F0203089F020308B0
:1000A0009F0203089F0203089F0203089F020308A0
:1000B0009F0203089F0203089F0203089F02030890
:1000C0009F0203089F0203089F0203089F02030880
:1000D0009F0203089F0203089F0203089F02030870
:1000E0009F0203089F0203089F0203089F02030860
:1000F0009F0203089F0203089F0203089F02030850
:100100000000000000000000000000009F02030843
:100110009F0203089F0203089F0203089F0203082F
:100120009F0203089F0203089F0203089F0203081F
:100130009F0203089F020308000000000000000067
:100140009F0203089F0203089F02030800000000AB
:10015000000000000000000000000000000000009F
:1001600000000000000000009F0203089F02030837
:100170009F020308000000000000000000000000D3
:10018000000000009F02030800F002F800F06AF887
:100190000AA090E8000C82448344AAF10107DA45E2
:1001A00001D100F05FF8AFF2090EBAE80F0013F0CA
:1001B000010F18BFFB1A43F00103184740D7000096
:1001C00060D70000103A24BF78C878C1FAD8520727
:1001D00024BF30C830C144BF04680C6070470000C1
:1001E0000023002400250026103A28BF78C1FBD840
:1001F000520728BF30C148BF0B607047692900F023
:100200000381642900F00081752900F0FD806F29C9
:1002100000F09481782900F0BD810368DB0928BFD4
:1002200041F08001632900F0F283E32900F00584A6
:10023000002070471FB509F0FFFB9DE8030000F0A8
:100240005DFC00F0E9FC04000020002108F084FFC0
:10025000401C606000F0DCFA1FBD10B5002008F003
:100260008FF810BD00F0B2FC1146FFF7E3FF08F075
:100270006EFF00F0EFFC03B4FFF7EFFF03BC00F0EC
:100280009FFC00000948804709480047FEE7FEE759
:10029000FEE7FEE7FEE7FEE7FEE7FEE7FEE7FEE736
:1002A00004480549054A044B704700005D2A0308CD
:1002B0008901030860680020307000203070002041
:1002C00000B5FFB441464A4653465C4665463EB4D7
:1002D0000D496A460A600D4908600D4988473EBCD1
:1002E000884691469A46A346AC46FFBC00BD0648E8
:1002F00001688D463EBC884691469A46A346AC4668
:10030000FFBC044800BD0000F07F0020F47F002007
:10031000910103080CD203080FB41CB5074B06AAC1
:100320007B4469460090059800F04FFB0020694629
:1003300000F05EFB1CBC5DF814FB0000CD06000065
:1003400070B5044685690068C10601D5302600E015
:100350002026C00708D070BDD4E90121304690475F
:10036000206A00F1010020626D1EF5D570BD70B5E8
:10037000044685690078C00708D170BDD4E9012121
:1003800020209047206A00F1010020626D1EF5D503
:1003900070BD09684A0501D540B27047C905FCD552
:1003A00000B2704709684A0501D5C0B27047C90557
:1003B000FCD580B2704770B50C460546012A05D0C1
:1003C0002878800600D5EA69002302E0012305E0D1
:1003D0005B1C934202D2E05C0028F9D1A869E618C0
:1003E000C01AA861286A184428622846FFF7A8FFA7
:1003F00004E0D5E9012114F8010B9047B442F8D389
:100400002846FFF7B4FF70BD2DE9F04106460024F1
:1004100010687529314616A511D0FFF7BAFF0028DC
:1004200003DAC0F1000013A507E031688A0701D59F
:1004300011A502E0490704D510A5012401E0FFF74A
:10044000B1FF00210A2306F1240707E0B0FBF3F215
:1004500003FB1200303078541046491C0028F5D1B7
:1004600023462A463046BDE8F04100F04CBA000071
:10047000000000002D0000002B0000002000000004
:100480002DE9FF5F15468A460446DFF8AC80F84444
:100490000027D8E900103E46CDE9001011E03AF8F7
:1004A00016106A4602A800F0D4FA411C07D0217841
:1004B000890603D5E269391891420ED8074406F13E
:1004C00001062078800602D5E069B84205DDAE421B
:1004D000E5DB3AF816000028E1D1A069C01BA06155
:1004E0002046FFF72DFFD8E90010CDE900100020CD
:1004F00016E03AF818106A4602A800F0AAFA8146F7
:10050000401C0BD000250DF1080B05E0D4E90121BA
:100510001BF8050090476D1C4D45F7D308F101000D
:10052000B0428046E5DB206A384420622046FFF76F
:100530001EFFBDE8FF9F00008ACD000070B5044695
:1005400021461068FFF72EFF002104F1240508E082
:1005500000F0070202F130026A5401F101014FEA92
:10056000D0000028F4D10346206808A2050708D56A
:1005700000F02000084304D0E069012304A2401EDB
:10058000E0612046BDE8704000F0BDB90000000009
:100590003000000070B504460D4621461068FFF794
:1005A00001FF2188090502D5104A7A4402E00F4A6A
:1005B0007A440E32002104F1240307E000F00F0614
:1005C0004FEA1010965D5E5401F101010028F5D14B
:1005D00003462078000704D5702D02D009B11132EE
:1005E00002232046BDE8704000F08DB976CC0000B3
:1005F0002DE9F05F894604464FF0000ADFF878B134
:10060000FB44C0F820A02046E1688847002875D048
:10061000252806D0D4E901219047206A401C206299
:10062000F1E700265F462046E16888472028054616
:1006300008DB312D06D207EB050010F8200C08B1BD
:100640000643F0E7B00701D526F00406C4F81CA065
:100650000027C4F818A02A2D09D0284608F054FD18
:1006600038B304EB8708303DC8F8185019E059F842
:10067000041B204604EB87029161E1688847012F43
:10068000054618D1E069002820DA26F020061DE092
:10069000D8F8180000EB800005EB40003038C8F8AF
:1006A00018002046E1688847054608F02DFD00281F
:1006B000EED1012F0AD02E2D08D12046E1688847BF
:1006C0007F1C0546022F46F02006C4DBA0690028E7
:1006D00003DA404246F00106A061F00701D026F09F
:1006E00010066C2D0BD0682D09D04C2D39D06A2DF9
:1006F00035D0742D35D07A2D33D016E038E0E1684E
:100700002F4620468847B842054609D16C2F26D08F
:100710004FF48060E168064320468847054604E0C0
:100720006C2F1AD04FF4807006430DB3A5F1410031
:10073000192802D8203546F400664A462946204644
:1007400026604E46FFF75AFD80B101280BD0F61DFA
:1007500026F0070000F1080955E74020E4E7802073
:10076000D8E70020D6E706F104094CE7284651E710
:10077000206ABDE8F09F000048CC000010B5431C83
:1007800002E010F8011B71B18107FAD14FF001327C
:1007900002C88C1A8C4314EAC211F9D0C01A0A0696
:1007A00003D0C01E10BDC01A10BD0A0401D0801EA7
:1007B00010BD0902FCD0401E10BD4FF0000200B574
:1007C000134694469646203922BFA0E80C50A0E874
:1007D0000C50B1F12001BFF4F7AF090728BFA0E822
:1007E0000C5048BF0CC05DF804EB890028BF40F8EE
:1007F000042B08BF704748BF20F8022B11F0804F30
:1008000018BF00F8012B7047704770477047000011
:1008100070B5064C7C44064D7D4403E020682044BE
:100820008047241DAC42F9D170BD000014D20000F5
:1008300014D200000048704730680020004870471C
:100840003468002070B5064600F038F9056806F1F6
:100850000B0020F00704B4429CBF002070BD2B4663
:100860006A68BAB11068A04210D304F10801884246
:100870003CBF5068586007D3516810194160116837
:10088000091B016058601460101D70BD134652684A
:10089000002AE7D12146284600F01CF90028DED1C5
:1008A00070BD70B50446051F00F008F90068002C03
:1008B00014BF446870BD002C18BFAC423CBF20463A
:1008C0006468F8D301680A18AA4218BF456003D1CA
:1008D0002A6805461144016028684119A1421CBFDD
:1008E0006C6070BD6168696021680844286070BDF3
:1008F00010B500F0E7F8006810BD10B5044600F030
:10090000E1F8046010BD2DE9F0470D469946924686
:10091000044600F124080168880604D5E06921F046
:100920001001216000E00120A84202DDA0EB0507D4
:1009300000E00027A16907EB050202EB0900A1EB2B
:100940000000A0612078C00602D42046FFF7F8FC22
:10095000002608E0D4E901211AF806009047206A31
:10096000401C761C20624E45F4DB2078C0060AD578
:100970002046FFF7E5FC06E0D4E90121302090474E
:10098000206A401C2062381EA7F10107F4DC07E052
:10099000D4E9012118F805009047206A401C206224
:1009A000281EA5F10105F3DC2046FFF7E0FC2078C6
:1009B000000602D50220BDE8F0870120FBE7000019
:1009C00001694A1C02610878704700B58FB0CDE913
:1009D00001310021059105497944CDE90310114603
:1009E0006846FFF705FE0FB000BD0000E5FFFFFF02
:1009F0000A6802F8010B0A60704710B5436913B129
:100A0000AFF3008001E0FFF7D6FC012010BD1278A3
:100A100000F124010A7000224A700122EDE71168FA
:100A20004FF0FF32E9E710B5436913B1AFF300802F
:100A300001E0FFF725FD012010BD128800F124011F
:100A400082840022C2840122EDE711684FF0FF3258
:100A5000E9E770B516460C46054600F027F803682E
:100A600093F80101012806D0FF2C0FD8185D68B15A
:100A700001202C7070BDD3F8070132462146034493
:100A80002846BDE8704003F2071318474FF0FF30C7
:100A900070BD10B500F06EF8BDE8104000F064B80D
:100AA00000F080B800487047FC67002010B500F0E7
:100AB000B3F8001D10BD00BFA186000000487047BC
:100AC0000468002000487047FC67002070477047AA
:100AD0007047704738B504460A4600206946AFF3B0
:100AE0000080002808BF38BD02460099204600F06B
:100AF00097F8012038BD012000F0D3B8F8B5AFF366
:100B00000080054600200C46102000BF0646A819AC
:100B1000A0420DD9324669460020AFF3008007009D
:100B200008BF00F0BEF80098A04218BF0546C419DF
:100B3000FFF7C4FF05600746F01D20F007004619C7
:100B4000284600F00AF8B44208BFF8BDA21B31469F
:100B50003868BDE8F84000F063B800210160C0E9E2
:100B60000110704710207047002801D000F028B80D
:100B70007047000010B5002102A000F079F80120B4
:100B800010BD00005349475056464E3A20507572EA
:100B900065207669727475616C20666E2063616C85
:100BA0006C65640010B500F086F8016919B1002287
:100BB0000261884701E08068804700F051F800003A
:100BC00001491820ABBEFEE7260002007546FFF77C
:100BD00069FFAE4605006946534620F0070085468A
:100BE00018B020B5FFF75CFBBDE820404FF00006D1
:100BF0004FF000074FF000084FF0000B21F0070105
:100C0000AC46ACE8C009ACE8C009ACE8C009ACE847
:100C1000C0098D4670470000004870471C680020DE
:100C2000034640688C46002818BF88423CBF0346F4
:100C30004068F8D318681844884207D00CF10300C4
:100C400020F00700001D411A521A0146081D0A60D3
:100C5000FFF727BE0446AFF300802046FFF70BFBEB
:100C6000002000F059F8FFF7F8FA0120FFF7A8FF7D
:100C700070B505460C460A2000E06D1C00F040F8F7
:100C800035B128780028F8D102E0641C00F038F86B
:100C900014B120780028F8D1BDE870400A2000F097
:100CA0002FB810B500F040F8BDE81040FFF75CBF6A
:100CB00010B5FFF7D5FF70B500F02AF804680546B7
:100CC000A4B92020FFF7BEFD040011D0094900207F
:100CD0002C60C4E900010849A160207320616061B3
:100CE0000649A06109B100F087F8E061204670BDB7
:100CF000FFF7B6FF00000000B10C03080000000081
:100D000008B569468DF800000320ABBE08BD7047EA
:100D1000004870473868002010B500F08BF8BDE837
:100D20001040FFF721BF000010B5012805D00021B9
:100D300003A0FFF79DFF012010BD09A1F8E7000007
:100D400053494752544D454D3A204F7574206F66B4
:100D50002068656170206D656D6F7279000000001C
:100D60003A2048656170206D656D6F727920636F00
:100D700072727570746564004FF0013C50F8042B7A
:100D800051F8043B9A4221D1A2EB0C03934313EA9E
:100D9000CC1317D150F8042B51F8043B9A4215D1CB
:100DA000A2EB0C03934313EACC130BD150F8042BA2
:100DB00051F8043B9A4209D1A2EB0C03934313EA86
:100DC000CC13DBD04FF00000704700BFD01A01BA3F
:100DD000B1FA81F101F0180122FA01F0CB40C1F122
:100DE0002001DBB2C0B2C01A2CFA01F3D11A914330
:100DF00011EAC311E6D1704710B58820FFF722FD34
:100E0000002801D00021017010BD802902D808B14E
:100E1000017809B100207047012100F8081B7047D4
:100E200018B100F10802914201D000207047002162
:100E30000170704710B5002102A0FFF719FF0120D3
:100E400010BD0000534947414252543A2041626E5E
:100E50006F726D616C207465726D696E6174696F1B
:100E60006E000000F0B50468354B04F01F02857970
:100E7000012101FA02F224F01F041C44002D59D074
:100E800025689543256002681C1D22F01F052C442F
:100E9000256802F01F0201FA02F2954325600468FA
:100EA000027924F01F051D442A44156804F01F042C
:100EB00001FA04F4254315600568214C25F01F0252
:100EC00008342244166805F01F0501FA05F5AE4303
:100ED00016600668221D26F01F0515442F6806F0CF
:100EE0001F0C01FA0CF6B7432F604579102D0BD07B
:100EF000026822F01F0018442844036802F01F0211
:100F000091400B430360F0BD056825F01F032344A7
:100F10001C6805F01F0501FA05F52C431C600068EC
:100F200020F01F031A44136800F01F0081400B4398
:100F30001360F0BD00792044016891430160F0BD69
:100F400000040140F0B50022012503240E6805FAD3
:100F500002F31E409E422DD10E79012E01D0022EA9
:100F600013D18768560004FA06FC27EA0C0787604D
:100F70004F79B74086683743876086889E4386806E
:100F800086888B7993401E4386800768560004FA52
:100F900006F39F4307600F79D0F800C0B74047EAD7
:100FA0000C070760C7689F43C760CB79B340C6682A
:100FB0003343C360521C102AC8D3F0BD4B07DB0E6D
:100FC0009A40C90810B500EB8100016A0F249C40CB
:100FD000A1430162016A1143016210BD0246002073
:100FE000128A0A4200D0012070470AB1816170471D
:100FF000018570472DE9F74FDFF8DCA182B0544638
:10100000DFF8D8810298C4E90B01D8F80000154632
:10101000474601690298884706462946704806F007
:10102000A5FAAAF580796F496D48C9F8085006F00D
:1010300051FB6C496A48A83106F04CFB6A49684884
:1010400006F048FB68496648A83106F043FB67494B
:10105000634806F03FFB65496148A83106F03AFB5A
:1010600063495F4806F036FB002589F80050386870
:1010700029460268E06A9047C0B2009038680022B2
:1010800011468368E06A9847386803210268E06A7D
:101090009047C0B20127574C012824D02770002167
:1010A0005148A83005F0ECFE6570A770AB46DAF841
:1010B0003000B946554628B3D8F8001047460A68AC
:1010C0001C21904700F0FF0A38681D210268286B38
:1010D0009047C7B2E86A03F001FF474A0146002083
:1010E00052F821100BE025700121D9E7524500D1BB
:1010F00060700A5CBA4200D1A070401CC0B20A5CA9
:10110000FF2AF3D184F803B084F804B084F805B062
:1011100084F806B084F807B084F808B084F809B001
:1011200084F80AB084F80BB0D8F8000001225F46BA
:1011300083680021E86A9847D8F800000321026814
:10114000E86A9047C0B2012840D084F80C9000BFF4
:10115000D8F800000021009A8368E86A984767730E
:1011600084F80E90E77327746774A774E774277583
:101170006775A775E775029800F08AF818491F4847
:10118000C1F80C010021164806F012FA0920B0EB54
:10119000167F1DD0C6F30360092819D0002113481B
:1011A000A83005F06DFE0A20B0EB167F12D0C6F312
:1011B00003600A280ED000210D4805F061FE05B03D
:1011C0000021BDE8F04F012001F096BB2773BFE777
:1011D0000121E4E70121EFE704610020F47F002012
:1011E000AC610020BC6200200C6400205C65002023
:1011F000AC660020E4670020ACB30308CD500308C0
:101200002DE9F0411E4C204606F016FA04F58270D6
:1012100006F0E4FF012001F05DFB1A4EB18808439F
:1012200006D0002902D0B088401EB080BDE8F08111
:10123000154C164D002120680268E86A9047C7B235
:101240002068002211468368E86A984720680221D6
:10125000C268E86A90472068012200218368E86A32
:10126000984720680221C268E86A904720683A4699
:1012700000218368E86A98470420B080D3E7000023
:10128000AC61002004600020F47F00200461002095
:1012900070B5134C0646002120680268304690471E
:1012A000C5B2206800221146836830469847002165
:1012B000304603F03DFF206801220021836830465C
:1012C000984700280BD00121304603F031FF2068F9
:1012D0002A46002183683046BDE87040184770BD3B
:1012E000F47F00202DE9F14FFF4D0527DFF8FC8347
:1012F000FF4EDFF8009484B0002405F1910A3068B5
:10130000295D02681AF801100498904799F8003096
:1013100008EB83122B5D641CE4B222F81300BC427C
:10132000EDD3F14D01270024ED1E05F1010A3068CF
:10133000295D02681AF8011004989047EB4999F862
:101340000020103901EBC2012A5D641CE4B241F8AF
:101350002200BC42EBD399F800004D4600EB40015F
:10136000E2488030012410F82100E0BB30680821F9
:101370000268049890472978474608EB81118882D3
:1013800030680C210268049890472A7800B207EB75
:10139000821102EB4203D54A0883803202EB8302BA
:1013A000D278012A34D1B1F9142002B9F0B35243F2
:1013B00000FB002000EE100AB8EEC00A06F07FFF26
:1013C000BDEEC00A287810EE101A07EB8010818756
:1013D000B0F91810B0F9140000EE101AF8EEC00AB7
:1013E00000EE100A00E01DE0B8EEC00A06F069FF4A
:1013F000DFEDC10A20EE200ADFEDC00A297880EE79
:10140000201A07EB8111BDEEC10A10EE100AC88741
:10141000B8498031886B08B180F82040486C08B129
:1014200080F82040B0463068012100E01DE00268ED
:101430000498904787B2060C286C4CF2186B50B396
:1014400007B1B6B1AE4805F0A1FD296C884202D1C2
:10145000AB4805F000FE286C428B5A451BD0A0F823
:101460001AB0002105F0DBFC12E0002088875A202A
:10147000CDE700214183012105F0D1FCA04805F012
:1014800085FD296C884203D000219D4805F08AFD26
:10149000286C80F82040D8F80000DFF8689200211E
:1014A0000268D9F82C009047C0B20290D8F800002A
:1014B000002211468368D9F82C009847D8F800001C
:1014C00001210268049890478246D8F80000022162
:1014D000026804989047C0B201901FFA8AF9A86F79
:1014E0004FEA1A4AE8B1B9F1000F02D0BAF1000F81
:1014F00031D08348A83005F049FDA96F884203D157
:101500007F48A83005F0A7FDA86F428B5A4508D048
:10151000A0F81AB05FF0000105F081FCA86F80F818
:1015200020407448406F28B359EA0A0117D0744824
:10153000A83005F02BFD6F4D696F884203D17048CC
:10154000A83005F088FD686F428B5A4512D0A0F88C
:101550001AB0002109E0002141830121DCE7654D3B
:10156000418B39B100214183012105F058FC686F9E
:1015700080F820405E4D0122002128688368614880
:10158000C06A9847286801210268049890478046FD
:1015900028680221026804989047C0B2009055481C
:1015A0001FFA88F580304FEA1848006808B315B173
:1015B000B8F1000F38D05248A83005F0E7FC4D498B
:1015C00080310968884203D14D48A83005F043FDB9
:1015D000484A80321068438B5B450AD0A0F81AB0A5
:1015E0005FF0000105F01BFC42488030006880F885
:1015F00020404048C06F30B355EA080118D0404839
:10160000A83005F0C3FC3B49C96F884203D13C4870
:10161000A83005F020FD374AD06F438B5B4512D0D0
:10162000A0F81AB0002108E0002141830121D9E788
:10163000428B42B100214183012105F0F0FB2D488E
:10164000C06F80F820402A480021029A0068836811
:101650002C48C06A984749EA0A0A4AEA050050EA53
:1016600008003BD02849B1F8000101280AD089467A
:10167000022833D00121244805F09AFFB9F800016F
:1016800001282BD1DFF86C9099F8000018B14D4675
:10169000012809D019E055EA080516D0B9F802006A
:1016A0004D46A8B9012105E0BAF1000F0DD06888B8
:1016B00070B90021E86806F0A8FB0021084604F094
:1016C000EDFBE868002180F82310B9F8021029B377
:1016D000B9F80210B1F10101A9F80210054D8035E9
:1016E0006868A0B312E0000047B3030864670020F5
:1016F000F47F00200460002000003443C3F548401C
:101700006463002004610020AC610020DDE9002159
:1017100011437DD00199062902D003E01E21DBE7A9
:10172000062AF6D0824805F031FC6968884202D169
:101730007F4805F090FC6868428B5A4507D0A0F8B6
:101740001AB0002105F06BFB686880F82040DFF8D4
:10175000E48100217B0698F8000000EB4002764807
:1017600000EB82004FF00202417100D54271730616
:1017700000D544718171FB0600D58271F30600D556
:101780008471C171BB0600D5C271B30600D5C471A6
:101790000172FB0700D00272F30700D004723B060F
:1017A00000D50272330600D5047241727B0700D562
:1017B0004272730700D544728172BB0700D58272F2
:1017C000B30700D58472C172390700D5C2723107E0
:1017D00000D5C472D8F84010F1B3D8F8242043796A
:1017E0005649568B31F813309E4202D0538382F80B
:1017F0002040D8F828208379568B31F813309E4248
:1018000002D0538382F82040D8F82C20568B00E079
:1018100086E0C37931F813309E4202D0538382F8B8
:101820002040D8F83020037A568B31F813309E428E
:1018300002D0538382F82040D8F83420437A568B64
:1018400031F813309E4202D0538382F82040D8F8FA
:101850003820837A568B00E011E031F813309E4235
:1018600002D0538382F82040D8F83C20C07A538BB2
:1018700031F81000834202D0508382F82040D8F81B
:101880001C0008B180F82040D8F8200008B180F88A
:1018900020402B48006A08B180F82040A86A08B1AF
:1018A00080F82040E86B08B180F82040A86C08B1AF
:1018B00080F82040234D0021286802680498904752
:1018C000C7B22868002211468368049898472868A0
:1018D0001E21026804989047174E0122903E002175
:1018E0007060286883680498984758B128681E215A
:1018F000026804989047F06028683A46002183689F
:1019000004989847D8F84C0008B180F82040D8F8DF
:101910006400002801D080F8204005B0BDE8F08FB9
:10192000418B00293FF413AF00214183012109E7D6
:101930000C64002004600020E46700204CB303081E
:1019400004610020F47F002070B506461148002491
:10195000406847281CD040F23F11002000F0B4FA44
:1019600000F01EFE4FF49635304600F0EFFD641C8B
:10197000AC42F9D3084C8021204600F023FF002818
:10198000F9D1BDE8704001221146044800F026B8A4
:101990000021E2E7386100200038004000100048D4
:1019A0001CB50121480500F09DFE032101208DF8A2
:1019B000051000908DF8040000208DF80600064CFC
:1019C0008DF8070069462046FFF7BCFA0122114650
:1019D000204600F003F81CBD00100048FFF705BBCF
:1019E000203AD3B2084A30B45468472C03D1A1F24C
:1019F0003F11494289B292681468D2885A4304EB75
:101A0000420230BC00F002B8386100202DE9F74FE7
:101A1000904600270646019900F056FA1C4C31E02A
:101A200000F0BEFD00254FF00C094FF0800A4FF08A
:101A3000010B17E0B0FBF9F1CA000AFA02F138F81D
:101A400017202941114201D10C2805D90BFA05F1C3
:101A50000A4203D10C2801D9608800E0208800F0F8
:101A600075FD6D1CA0688088A842E3D8012211464C
:101A70000848FFF7B3FF761CF6B23046019900F034
:101A800023FA7F1CA068C088B842C9D8BDE8FE8F81
:101A900038610020001000482DE9F74F82B0002681
:101AA00004469246ADF80060ADF8046001A96846AE
:101AB00000F092F8A0462046039900F005FA49F29A
:101AC000203945F2084B1D4D2EE06968494502D08A
:101AD0006968594501D100F063FD00240127B74032
:101AE0000AE000BF3AF81400384224D0BDF80000E4
:101AF00000F02CFD641CE4B2A8688088A042F1D8F4
:101B00006968494502D06968594504D101221146E6
:101B10000B48FFF763FF08F10100C0B2804603994C
:101B200000F0D2F9761CF6B2A868C088B042CCD8D2
:101B300005B0BDE8F08FBDF80400D9E7386100209A
:101B4000001000482DE9F047204D8A469946696803
:101B5000164680460024AAF23F104742472907D084
:101B60005146404600F0B0F9B9F1000F02D027E02D
:101B7000B9B2F6E700F014FD03E0288800F0E6FCB7
:101B8000641CB442F9D3124C8021204600F01AFEA6
:101B90000028F9D1BDE8F047012211460D48FFF7B2
:101BA0001DBF288800F0ECFC08F1010000F0FF08E0
:101BB0006868472808D05146404600F085F9641C03
:101BC000B442EED3BDE8F087B9B2F5E73861002042
:101BD0000038004000100048024A138803805088F3
:101BE0000880704738610020014880687047000015
:101BF00038610020012070472DE9FF4F81B0A1F22C
:101C00003F11DDF838801F4602EB080084B24842DD
:101C100080B200900026E0B2009900F055F949F238
:101C2000203A45F2084BDFF888902DE04168514595
:101C300003D0D9F80410594506D141F20801032018
:101C400000F0B8FC00F0ACFC002507E006FB0751F3
:101C5000019830F8110000F079FC6D1CBD42F5D3FD
:101C6000D9F804204846524502D04168594504D16C
:101C7000012211460F48FFF7B1FE641EA4B2E0B284
:101C8000009900F021F9761C46454846CED34268BB
:101C9000524502D04168594507D105B041F21801BB
:101CA000BDE8F04F032000F085BC05B0BDE8F08F23
:101CB000386100200010004870B53D4C0025218897
:101CC00021F038012180218841F008012180394923
:101CD000496847294AD000F095FC732000F0B8FC11
:101CE000FF21204600F0BEFD8021204600F06AFD65
:101CF0000028F9D10121204600F064FD0028F9D028
:101D0000204600F0A5FD6D1CEDB2052DE8D3FF21A6
:101D1000204600F0A7FD8021204600F053FD00285A
:101D2000F9D10121204600F04DFD0028F9D0FF2116
:101D3000204600F097FD8021204600F043FD00285A
:101D4000F9D10121204600F03DFD0028F9D02046C0
:101D500000F03FFD0546012211461748FFF73EFE01
:101D6000208820F038002080284670BD00F04AFC12
:101D7000732000F06DFC05E00221204600F022FDFA
:101D80000028F9D08021204600F01CFD0028F3D166
:101D9000FF21204600F066FD0121204600F012FDE3
:101DA0000028F9D02046BDE8704000F051BD000089
:101DB0000038004038610020001000482DE9F04153
:101DC00088B001214FF4880000F08CFC012144F21E
:101DD000010000F0ABFC01218F03384600F08EFCBF
:101DE00003208DF8190002268DF818600024DFF812
:101DF000A4807D118DF81A4005958DF81B4005A92A
:101E00004046FFF79FF80597234F05A93846FFF78F
:101E100099F8A801059005A93846FFF793F805221F
:101E200009214046FFF7CAF805220E213846FFF780
:101E3000C5F805220F213846FFF7C0F8174F38467E
:101E400000F096FCADF800404FF48270ADF802004F
:101E50004FF4E060ADF804000120ADF80800082060
:101E6000ADF80C000720ADF81000ADF80660ADF835
:101E70000A50ADF80E406946384600F0ACFCE90067
:101E8000384600F0E7FC0121384600F067FC08B056
:101E9000BDE8F0810014004800040048003800400C
:101EA00001B5BDF800000149488008BD3861002037
:101EB00003B5BDF8001003480180BDF8041041804F
:101EC0000CBD00003861002070B505460E480C4678
:101ED0004068472809D02946202000F06BFB2146A6
:101EE0002120BDE8704000F065BB0021062000F015
:101EF00061FB2946072000F05DFB210A022000F06B
:101F000059FBE1B20320ECE7386100200149886009
:101F1000704700003861002001B5BDF8000001499C
:101F2000088008BD386100202DE9F05FFFF738FD1B
:101F3000FFF744FFFE4C60684FF48076A0F5134134
:101F40004FF4E06741F2300840F2022940F2023AD1
:101F500040F23F154FF4887B20397CD1052007F0F3
:101F6000DAF8F101E52000F025FB0121002000F066
:101F700021FB3146012000F01DFB3946022000F014
:101F800019FB4146032000F015FB0021042000F05E
:101F900011FB4946082000F00DFB0021092000F04C
:101FA00009FB00210A2000F005FB00210C2000F0B5
:101FB00001FB00210D2000F0FDFA00210F2000F0B0
:101FC000F9FA0021102000F0F5FA0021112000F0AC
:101FD000F1FA0021122000F0EDFA0021132000F0A8
:101FE000E9FA142007F097F841F2B071102000F0E0
:101FF000E1FA40F23711112000F0DCFA052007F079
:102000008AF8A91F122000F0D5FA052007F083F8FE
:102010004FF4E851132000F0CDFA1321292000F0ED
:10202000C9FA052007F077F80021202000F0C2FA55
:102030000021212000F0BEFA0621302000F0BAFA7B
:10204000711C312000F0B6FA0321322000F0B2FA00
:10205000B11D352000E071E000F0ACFA40F602312D
:10206000362000F0A7FA5146372000F0A3FAF91DF8
:10207000382000F09FFA0721392000F09BFA4FF436
:10208000C0613C2000F096FA40F20B213D2000F0A8
:1020900091FA0021502000F08DFAEF21512000F03C
:1020A00089FA0021522000F085FA2946532000F0D9
:1020B00081FA4FF41C51602000F07CFA012161206C
:1020C00000F078FA00216A2000F074FA00218020E4
:1020D00000F070FA0021812000F06CFA00218220CB
:1020E00000F068FA0021832000F064FA00218420C7
:1020F00000F060FA0021852000F05CFA10219020A9
:1021000000F058FA0021922000F054FA03219320A5
:1021100000F050FA5946952000F04CFA0021972023
:1021200000F048FA0021982000F044FA41F218012A
:10213000032000F03FFA40F2731100E16068A0F55F
:10214000A84108397ED143F20801E32000F032FAB9
:102150001221E72000F02EFA41F23121EF2000F0A9
:1021600029FA3146012000F025FA3946022000F014
:1021700021FA4146032000F01DFA0021042000F05E
:1021800019FA4946082000F015FA0021092000F04C
:1021900011FA00210A2000F00DFA00210C2000F0B5
:1021A00009FA00210D2000F005FA00210F2000F0AF
:1021B00001FA0021102000F0FDF90021112000F0AB
:1021C000F9F90021122000F0F5F90021132000F0A8
:1021D000F1F9142006F09FFF0721112000F0EAF921
:1021E000052006F098FF41F2B021102000F0E2F93E
:1021F000052006F090FF40F2BD11122000F0DAF940
:10220000052006F088FF4FF4A051132000F0D2F90A
:102210000E21292000F0CEF9052006F07CFF0021D8
:10222000202000F0C7F92946212000F0C3F907213A
:10223000302000F0BFF95146312000F0BBF940F2E8
:10224000051600E07DE03146322000F0B3F940F29F
:1022500006273946352000F0ADF940F6080841461A
:10226000362000F0A7F93946372000F0A3F940F2F4
:102270000451382000F09EF90721392000F09AF926
:1022800031463C2000F096F941463D2000F092F99D
:102290000021502000F08EF9EF21512000F08AF942
:1022A0000021522000F086F92946532000F082F9DF
:1022B0004FF42741602000F07DF90121612000F0FA
:1022C00079F900216A2000F075F90021802000F0E2
:1022D00071F90021812000F06DF90021822000F0C9
:1022E00069F90021832000F065F90021842000F0C5
:1022F00061F90021852000F05DF91021902000F0A7
:1023000059F90021922000F055F90321932000F0A3
:1023100051F95946952000F04DF90021972000F021
:1023200049F90021982000F045F941F2180101E037
:1023300038610020032000F03DF94FF48971072037
:10234000FCE0606847287DD10021EA2000F032F9E6
:102350002021EB2000F02EF90C21EC2000F02AF9CE
:10236000C421ED2000F026F94021E82000F022F9F8
:102370003821E92000F01EF90121F12000F01AF9BE
:102380001021F22000F016F9A321272000F012F905
:102390000121402000F00EF90021412000F00AF94F
:1023A0000021422000F006F91021432000F002F93C
:1023B0000E21442000F0FEF82421452000F0FAF818
:1023C0000421462000F0F6F85021472000F0F2F8F2
:1023D0000221482000F0EEF81321492000F0EAF82D
:1023E00019214A2000F0E6F819214B2000F0E2F80C
:1023F00016214C2000F0DEF81B21502000F0DAF806
:102400003121512000F0D6F82F21522000F0D2F8CF
:102410003F21532000F0CEF83F21542000F0CAF8AD
:102420003E21552000F0C6F82F21562000F0C2F8BA
:102430007B21572000F0BEF80921582000F0BAF89F
:10244000062100E07CE0592000F0B4F806215A2073
:1024500000F0B0F80C215B2000F0ACF81D215C20EE
:1024600000F0A8F8CC215D2000F0A4F81B2108465C
:1024700000F0A0F801211A2000F09CF82F21242060
:1024800000F098F85721252000F094F886212320A9
:1024900000F090F83621182000F08CF80121192066
:1024A00000F088F806211C2000F084F806211D2089
:1024B00000F080F890211F2000F07CF801212720F7
:1024C00000F078F80A2006F026FE0521172000F01B
:1024D00071F80921362000F06DF83821282000F02D
:1024E00069F83C2006F017FE3C21282000F062F835
:1024F0000021012000F05EF80021022000F05AF8CF
:102500000021032000F056F80121042000F052F8C9
:102510003F21052000F04EF80021062000F04AF887
:102520000021072000F046F80021082000F042F8C2
:10253000EF21092000F03EF8E021162000F03AF8E3
:102540000148A060BDE8F09F4461002070B50B4DCC
:102550000446010A284600F085F98021284600F04B
:1025600031F90028F9D1E1B2284600F07BF9802149
:10257000284600F027F90028F9D170BD0038004046
:1025800010B5044600F00CF82046FFF7DFFF0122EB
:10259000BDE8104011460148FFF720BA001000487E
:1025A00010B5222000F02EF8BDE81040722000F097
:1025B0004FB8000070B50C4600F024F8722000F00F
:1025C00047F80E4D210A284600F04CF98021284694
:1025D00000F0F8F80028F9D1E1B2284600F042F9FD
:1025E0008021284600F0EEF80028F9D1BDE87040BF
:1025F000012211460248FFF7F1B9000000380040FF
:102600000010004870B50546702000F021F80E4C0F
:102610000021204600F026F98021204600F0D2F863
:102620000028F9D12946204600F01CF980212046D7
:1026300000F0C8F80028F9D1BDE870400122114629
:102640000248FFF7CBB900000038004000100048F6
:1026500010B50446002201210748FFF7BFF92146C3
:10266000064C204600F0FEF88021204600F0AAF833
:102670000028F9D110BD00000010004800380040CB
:10268000F0B50F21C478027801234FF0E026DCB1C9
:10269000124C2468457804F4E064C4F5E064240A2C
:1026A000C4F10407E1408478BD400C402C43210173
:1026B0000B4C1155007800F01F018B40400906EBD0
:1026C0008000C0F80031F0BD02F01F0083405009C7
:1026D00006EB8000C0F88031F0BD00000CED00E09A
:1026E00000E400E0044A0029516901D0014300E000
:1026F000814351617047000000100240044A0029E4
:10270000D16901D0014300E08143D16170470000ED
:1027100000100240044A0029116901D0014300E081
:10272000814311617047000000100240044A0029F3
:10273000916901D0014300E081439161704700003D
:1027400000100240044A0029D16801D0014300E092
:102750008143D160704700000010024000290188C9
:1027600002D041F0400101E021F0400101807047BA
:10277000114910B588420AD1841401212046FFF77F
:10278000E1FF2046BDE810400021FFF7DBBF0B4909
:10279000884202D10121041404E0094988420AD187
:1027A0000121C4132046FFF7B5FF2046BDE81040C5
:1027B0000021FFF7AFBF10BD0030014000380040DE
:1027C000003C00400246002012890A4200D001204D
:1027D00070478089704730B54A88B2F5827F1ED035
:1027E000828822F470638A881A43828002880C8966
:1027F00002F44153CA888D8922434C892C43CD89E8
:102800002C4322430C884D882C4322431A430280D8
:10281000828B22F400628283098A018230BD0288A1
:102820000C8902F44153CA888D8922434C892C4378
:10283000CD892C4322430C8844F4827422431A43EA
:102840000280828822F470638A881A438280DFE7DC
:10285000007B7047828822F48052828082880A43FB
:10286000828070470173704738B500200090FFF7F1
:102870005BFB0020FFF720FA0146009045F208407C
:10288000074C814204D049F22030814200D04720D9
:102890006060FFF749FB02480C30A06038BD0000C3
:1028A0003861002010B50021062000F025F8002135
:1028B000042000F021F80021052000F01DF800217F
:1028C000022000F019F80021BDE81040032000F0BC
:1028D00013B8000048B1401E0549C0B2054A31F89E
:1028E000101052F82000FEF779BBFF20704700005F
:1028F000C4C803086861002070B586B00D46002882
:1029000048D0401EC4B22448012150F82400FFF7EB
:10291000E9FE01210846FFF709FF00268DF8106047
:1029200002208DF813001C4803A90C3830F814005D
:1029300003901A4850F82400FEF704FB012D29D11A
:1029400015483238015D801F005D00F029F81248FB
:102950001830012C30F8140000908DF8046001D07C
:10296000082000E00C208DF8050001258DF80650A8
:102970006846FEF777FA08482C38005D8DF80800A5
:102980000F208DF809008DF80A008DF80B5002A871
:10299000FFF776FE06B070BDD0C80308686100205E
:1029A00010B58A0721F003040649130F21440F22B2
:1029B0008C689A4094438C608A68984002438A608D
:1029C00010BD0000000001400CB50021214801911C
:1029D0000091026842F4803202604FF4A063026802
:1029E00002F400320092019A521C0192009A12B92C
:1029F000019A9A42F3D10268920329D50121164A1D
:102A00000091122111604168416041684160416854
:102A100041F480614160416821F47C11416041686A
:102A200041F4E8114160016841F080710160016882
:102A30008901FCD5416821F003014160416841F002
:102A4000020141604168C1F381010229FAD10CBD44
:102A500000910CBD0010024000200240174810B544
:102A6000016841F470010160154C206840F00100DC
:102A7000206060681349084060602068124908407F
:102A80002060206820F480202060606820F4FE0030
:102A90006060E06A20F00F00E062206B0B490840A4
:102AA00020630020A060FFF78FFF0449E003803916
:102AB0000860606940F04000606110BD88ED00E092
:102AC000001002400CC07FF8FFFFF6FECCFC00FFB8
:102AD0002DE9FE4F282005F0FBFB03210091052383
:102AE0003B4A3CA105F0B8FB8246282005F0F0FBEC
:102AF0001E2100910523364A39A105F0ADFB814620
:102B0000282005F0E5FB3C2100910523304A3EA139
:102B100005F0A2FB8046282005F0DAFB4B2100914E
:102B200005232B4A41A105F097FB0746282005F015
:102B3000CFFB5A2100910523254A45A105F08CFBC6
:102B40000646282005F0C4FBB42100910523204A45
:102B500048A105F081FB0546282005F0B9FB73214B
:102B6000009105231A4A4B4905F076FB044651466D
:102B7000174804F0DCF94946154804F0D8F94146F5
:102B8000134804F0D4F93946114804F0D0F931461D
:102B90000F4804F0CCF929460D4804F0C8F9214645
:102BA0000B4804F0C4F9282005F092FB084996234D
:102BB000F7228DE80E0038492C234822096803F0DB
:102BC000F1FC03B00146BDE8F04F014804F0AFB995
:102BD000BC62002048656C70205061676500000091
:102BE00055736520746865206A6F79737469636BC7
:102BF00020746F20776F726B2077697468204C4364
:102C000044204755490000002D55502F444F574E42
:102C100020746F206D6F7665206265747765656ED0
:102C200020636F6E74726F6C730000002D4C45460C
:102C3000542F524947544820746F206D6F76652099
:102C40006265747765656E2070616765730000006A
:102C50002D53454C20746F20696E746572616374E6
:102C600020776974682074686520636F6E74726F72
:102C70006C000000436F7079726967687420535468
:102C80004D6963726F656C656374726F6E696373AF
:102C90000000000052B30308006000202DE9F04F4F
:102CA00087B00021FE4804F0EBF8282005F010FB67
:102CB0000021FB4A0B460091A832FAA105F0CCFA9C
:102CC0008046282005F004FB1421F54A00910A23D0
:102CD000A832FAA105F0C0FA0746382005F0F8FA44
:102CE0002121EF4A00910A23A832F64905F0C8F9DC
:102CF000F54CE060282005F0EBFA1421E84A009139
:102D00006423A832F1A105F0A7FA0646382005F0A1
:102D1000DFFA21210091E24AEA496423A8320C310A
:102D200005F0AEF92061282005F0D2FADFF87093A3
:102D3000352309F1A8090A21CDF80090CDE9011346
:102D40003C239B22E4A105F0E7F90546282005F085
:102D5000BFFA112100910F232A46E4A105F07CFA65
:102D60000490282005F0B4FA252100910F232A466B
:102D7000E1A105F071FA0590382005F0A9FA6E225C
:102D8000CDE900524FF00F0ACDF808A0227809F5DE
:102D9000806B0BEB82110323DAA203F021FFE061C9
:102DA000382005F095FA23216E220095CDE9012106
:102DB000227803230BEB8211891CD2A203F010FFAF
:102DC0002062282005F084FA1422CD23CDF800904B
:102DD000CDE90132AA236422CBA105F09DF903902D
:102DE000282005F075FA0523CDF800A0C8A1039AA4
:102DF00005F032FA6062282005F06AFA212100917C
:102E00000523C6A1039A05F027FAA062282005F041
:102E10005FFA332100910523C3A1039A05F01CFA40
:102E2000E062282005F054FA452100910523C1A154
:102E3000039A05F011FA2063282005F049FA57217A
:102E400000910523BEA1039A05F006FA60632820CD
:102E500005F03EFA692100910523BCA1039A05F013
:102E6000FBF9A063282005F033FA7B2100910523AC
:102E7000B9A1039A05F0F0F9E063302005F028FAD3
:102E80008D2100910A23B7A1039A03F0A1FCB84950
:102E9000206441624CF218614183002103F0BFFFBE
:102EA0004846216C04F043F84146484604F03FF898
:102EB0003146484604F03BF83946484604F037F8B6
:102EC0004846E16804F033F82178E06804F09DFF9B
:102ED000E168A84848624846216904F028F820784B
:102EE00009F5906600EB400016F82010206904F008
:102EF0008CFFA14804F5807700680169F86A88476B
:102F0000C0067AD5282005F0E3F973230A21CDF80D
:102F10000090CDE901133C23BE2298A105F0FCF8F6
:102F20008046282005F0D4F911210091052342465E
:102F300096A105F091F98246282005F0C9F92521CE
:102F400000910523424692A105F086F9814638207A
:102F500005F0BEF90190F86A01F0C0FFDFF864B136
:102F600021230BF1180B42465BF820100F20009034
:102F7000019805F085F86061382005F0A9F9019005
:102F8000F86A01F0ABFF5BF82010232000902123AA
:102F90004246019805F074F8A0614146A6F590609C
:102FA00003F0C5FF5146A6F5906003F0C0FF494607
:102FB000A6F5906003F0BBFFA6F59060616903F091
:102FC000B6FFA6F59060A16903F0B1FF207800EB91
:102FD000400006EB80004178606904F016FF20781D
:102FE00000EB400006EB80008178A06904F00DFF43
:102FF000616968484862A169486229482946A83041
:1030000003F095FF26480499A83003F090FF244868
:103010000599A83003F08BFF2148E169A83003F03F
:1030200086FF1F48216AA83003F081FF0021E06974
:1030300003F0F5FE0021206A03F0F1FE4E4800681F
:103040000169F86A88470221B1EB107F03D0C0F311
:103050000360022813D1302005F03AF9B221104A5A
:1030600000910A23A8324CA103F0B2FB014678611B
:103070000B48A83003F05BFF79694C484862084868
:103080000399A83003F053FF0548616AA83003F0A4
:103090004EFF0348A16AA83003F049FF004887E0CB
:1030A000BC620020436F6E66696775726174696FF8
:1030B0006E20616E64206465627567004D6F746F89
:1030C0007200000074B30308046000204374726C43
:1030D000206D6F6465000000506F77657220626F2D
:1030E00061726420737461747573000044432042FC
:1030F000757320766F6C74004865617473696E6BCC
:1031000020542E00253364004661756C74730000F2
:103110004F76657263757272656E7400526576756E
:1031200070206661696C0000537065656420666498
:10313000626B00005357206572726F7200000000CE
:10314000556E64657220766F6C7400004F76657200
:1031500020766F6C740000004F7665722074656D88
:10316000700000004661756C742061636B000000A4
:10317000B55003089D5E0308F47F002044414320BE
:1031800053657474696E6773000000004368310012
:1031900043683200C9550308456E636F6465722049
:1031A000616C69676E6D656E7400000039560308C6
:1031B000A830E16A03F0BBFE2048216B03F0B7FEA4
:1031C0001E48616B03F0B3FE1C48A16B03F0AFFE19
:1031D0001A48E16B03F0ABFE2078626A00EB400016
:1031E00006EB800116484B7930F8133053838B7906
:1031F000A26A30F813305383CB79E26A30F8133087
:1032000053830B7A226B30F8133053834B7A626B03
:1032100030F8133053838B7AA26B30F8133053831A
:10322000C97AE26B30F81100508321690548486281
:1032300007B00248BDE8F04F03F00DBF6463002003
:103240004CB30308D55D03082DE9F04F8BB028205F
:1032500005F03EF800210B460091FB4AFBA104F06B
:10326000FBFF0790282005F033F8F74914230A22C2
:103270008DE80E005A239122F9A104F04DFF064675
:10328000F948FA4C4FF0050B00784FF01E09002862
:103290004FF0410A4FF028007BD005F019F80F21BC
:1032A000009105233246F2A104F0D6FF07463820EC
:1032B00005F00EF80096EC49CDE901B94D4606231C
:1032C000EFA26C3903F08CFCEE49A064416240200F
:1032D00004F0FEFF3C210096CDE90115E2490623EA
:1032E000E7A28C3904F022F9E064282004F0F0FF12
:1032F00075233246E4A1009504F0AEFF80462820F5
:1033000004F0E6FF3221009105233246DFA104F0EC
:10331000A3FF0546382004F0DBFFD349CDE9006B5D
:103320000623D7A26839CDF808A003F059FCD94983
:10333000606541623946C44803F0F9FDC248A16C9A
:1033400003F0F5FDC048E16C03F0F1FD4146BE48D5
:1033500003F0EDFD2946BC4803F0E9FDBA48616D74
:1033600003F0E5FD0021E06C03F059FD302004F08E
:10337000AFFF782100912823B34AC7A103F028FAB0
:103380006067302004F0A4FF8C212823AE4A00910E
:1033900000E0DCE0C3A103F01BFAC549A06741626D
:1033A0004CF218614183002103F039FDA648616F9A
:1033B00003F0BDFDA448A16F03F0B9FD282004F07F
:1033C00087FFA1491423A0228DE80E005A239122E1
:1033D000B8A104F0A1FE0546A348017B8438039000
:1033E00000294FF028007CD004F072FF0F210091DB
:1033F00005232A469EA104F02FFF0890382004F0F0
:1034000067FF9949CDE9005B4F4606239CA22C3902
:10341000CDF8089003F0E4FBA84920664162402003
:1034200004F056FF3C21CDE90051062394A20297F7
:10343000039904F07BF86066282004F049FF7523A7
:103440002A4691A1009704F007FF8046282004F047
:103450003FFF3221009105232A468CA104F0FCFE97
:103460000746382004F034FF7F49CDE9005B06238E
:1034700083A22839CDF808A003F0B2FB9049E0669A
:1034800041627148089903F052FD6F48216E03F0C4
:103490004EFD6D48616E03F04AFD41466A4803F0F7
:1034A00046FD3946684803F042FD6748E16E03F087
:1034B0003EFD0021606E03F0B2FC302004F008FFF6
:1034C00078210091BE23604A73A103F081F9E0677F
:1034D000302004F0FDFE8C210091BE235A4A71A1D8
:1034E00000E040E103F074F9604F764980373860BE
:1034F00041624CF218614183002103F090FC3020BE
:1035000004F0E6FEA021009144234F4A6EA103F08F
:103510005FF978604C48079903F009FD31464A4845
:1035200003F005FD2946484803F001FD4648E16FD8
:1035300003F0FDFC4448396803F0F9FC424879681F
:1035400003F0F5FC4848017800297CD0D0E104F074
:10355000BFFE0F2100910523324661A104F07CFEDD
:103560000490402004F0B4FE3F49CDE9006B0623EF
:1035700043A29039CDF8089003F0D8FF5C4D606409
:103580005C4F286800210268F86A9047C0B2039037
:103590002868002211468368F86A98472868D4F89A
:1035A000448040210268F86A9047029028683F21D1
:1035B0000268F86A90470299C8E90E10286800214D
:1035C000039A8368F86A9847402004F081FE3C2102
:1035D000CDE900612449062329A2CDF808908C3951
:1035E00003F0A4FFE064282004F072FE7523324645
:1035F00025A1CDF8009004F02FFE0746282004F006
:1036000067FE32210091052332463BA104F024FEDF
:103610000546382004F05CFE1349CDE9006B062313
:1036200017A27C39CDF808A003F0DAFA47F6FF724A
:103630000021206503F0A6FA302004F049FE3C2367
:10364000324632A166E03FE10C6400204475616CB3
:1036500020636F6E74726F6C2070616E656C000019
:103660004D6F746F72203100E46700200460002009
:103670004971207265662E2F5370656564000000E5
:10368000253664007962030872706D004964207207
:1036900065662E00CD60030853746172742F5374F5
:1036A0006F7000004661756C742061636B000000F0
:1036B000495503084D6F746F722032002963030867
:1036C000A16103088955030853746172742F537400
:1036D0006F7020626F7468206D6F746F727300007A
:1036E000546172676574204D65617375726564001D
:1036F000F47F00200461002052616D7020647572B7
:103700006174696F6E206D73000000004578656319
:1037100000000000CDF800A003F05AF8A0657C4836
:10372000049903F004FC7A48616C03F000FC7848CB
:10373000E16C03F0FCFB3946754803F0F8FB2946C1
:10374000734803F0F4FB7248216D03F0F0FB7048FE
:10375000A16D03F0ECFB0021E06C03F060FBA16DB8
:103760006C48486202E604F0B3FD0F2105232A46A7
:103770000091AFF2940104F06FFD0890402004F036
:10378000A7FD1E2105220095CDE901210623AFF2F8
:103790001012614903F0CAFE604FE065DFF88081D6
:1037A000386800210268D8F82C00904700F0FF0B21
:1037B0003868012200218368D8F82C0098473868BF
:1037C000D4F85C9040210268D8F82C00904704900F
:1037D00038683F210268D8F82C0090470499C9E95D
:1037E0000E1038685A4600218368D8F82C00984794
:1037F000402004F06DFD1E223C210095CDE9011210
:103800000623AFF28412039903F090FE606628202D
:1038100004F05EFD1E2175232A460091AFF2981137
:1038200004F01AFD8046282004F052FD32210523C1
:103830002A460091AFF2401104F00EFD07463820F1
:1038400004F046FD0522CDE900520623CDF808A07C
:10385000AFF2D41230494C3103F0C2F947F6FF728F
:103860000021A06603F08EF9302004F031FD3C23E6
:103870002A46AFF26811CDF800A002F0A9FF206738
:103880002348089903F053FB2148E16D03F04FFBF7
:103890001F48616E03F04BFB41461D4803F047FB98
:1038A00039461B4803F043FB1948A16E03F03FFB68
:1038B0001748216F03F03BFB0021606E03F0AFFA65
:1038C000216F18484862F8E5007B88B9302004F081
:1038D000FFFCB421009140230D4A13A102F078FFB0
:1038E0000146B8600A4803F022FBB96814484862F0
:1038F000796814484862616F13484862E16F134861
:1039000048620BB00248BDE8F04F03F0A4BB0000D2
:103910000C640020156403085C670020F47F00201D
:103920000461002061640308457865632073696D54
:10393000756C74616E656F75732052616D70730084
:103940005156030899510308315A0308555B03087F
:103950002DE9F04F8BB0282004F0BAFC00210B4673
:103960000091FE4AFEA104F077FC0390282004F0A9
:10397000AFFC0A22F94BCDE900324FF0140ACDF822
:1039800008A05A239122FBA104F0C6FB0746282079
:1039900004F09EFC1E2100913C233A46F8A104F05D
:1039A0005BFC0490282004F093FC412100913C230F
:1039B0003A46F4A104F050FC0590282004F088FC5D
:1039C0000F21009105233A46EFA104F045FC069033
:1039D000402004F07DFC1E2105220097CDE9012145
:1039E000DFF8B8B3EC4A06239BF8001002EBC101E4
:1039F000EBA203F09BFD0BF18004DFF8A8830646E1
:103A0000E060D8F8000004F1800540210268E86A0F
:103A100090478146D8F800003F210268E86A904745
:103A2000C6E90E90282004F053FC322100910523B2
:103A30003A46DDA104F010FC0790382004F048FC61
:103A4000412105220097CDE901215A46DFF848932C
:103A5000127809F1100909EB8211091D0623D0A281
:103A600003F0BEF847F6FF720021206103F08AF8E8
:103A7000302004F02DFC412100915A233A46CEA17A
:103A800002F0A6FECE496061416201F0BFF9282034
:103A900004F01EFCB14973230A228DE80E004B236B
:103AA0006822C8A104F038FB0646282004F010FC68
:103AB0000A233246C6A1CDF800A004F0CDFB089041
:103AC000282004F005FC232100910A233246C1A1DD
:103AD00004F0C2FB0990382004F0FAFB51464FF085
:103AE000280A0096CDE901A15A460623127809EB6F
:103AF0008211891DAAA203F073F8A061382004F096
:103B0000E7FB23210096CDE901A15A46062312784E
:103B100009EB82110831A2A203F062F8E0618F483C
:103B2000039903F004FA8D48049903F000FA8B48D6
:103B3000059903F0FCF93946884803F0F8F98748FD
:103B4000069903F0F4F98548E16803F0F0F9834839
:103B5000079903F0ECF98148216903F0E8F97F48FF
:103B6000616903F0E4F97D48A96903F0E0F97B4855
:103B7000E96903F0DCF97948296A03F0D8F9774854
:103B8000A96A03F0D4F90021286A03F048F97348C0
:103B9000696A03F0CCF93146704803F0C8F96F4800
:103BA000089903F0C4F96D48099903F0C0F96B480E
:103BB000A16903F0BCF96948E16903F0B8F9D8F8E4
:103BC00000000169E86A884780072BD5282004F0A7
:103BD0007FFB32270A2332467FA1009704F03CFB8B
:103BE0000546382004F074FBCDE9006A02979BF883
:103BF0000020062309EB82110A3169A202F0F0FFCE
:103C000020622946554803F092F95448216A03F08E
:103C10008EF947F6FF720021206A02F0B3FFA16916
:103C20006E48486247F6FF752A460021A06902F0F7
:103C3000A9FF2A460021E06902F0A4FFD8F800009D
:103C400001696748C06A8847C0077DD0282004F012
:103C50003FFB424973237D228DE80E004B23B422A3
:103C600060A104F059FA0546282004F031FB0E2625
:103C70000A232A465FA1009604F0EEFA039028205A
:103C800004F026FB50232A465AA1009604F0E4FAD9
:103C90008246382004F01CFB0A22CDE900524FF086
:103CA0001908CDF808809BF800104E4609EB8111E9
:103CB0005F460C31042351A202F092FF606238206B
:103CC00004F006FB5022CDE90052CDF80880397887
:103CD000042306EB81110E3148A202F081FFA0629D
:103CE000282004F0F5FA4FF02C080A232A4638A1C0
:103CF000CDF8008004F0B0FA8146282004F0E8FAFC
:103D000050232A4633A1CDF8008004F0A5FA80465E
:103D1000382004F0DDFA0A22CDE900524FF0370BCB
:103D2000CDF808B03978062306EB811110311CA2BA
:103D300002F056FFE062382004F0CAFA5022CDE9C2
:103D40000052CDF808B000E09CE03978062306EB7D
:103D50008111123112A202F043FF51E0B46400203D
:103D6000537065656420636F6E74726F6C6C6572FE
:103D70000000000053657420706F696E74000000CD
:103D800072706D006D73000054617267657420730A
:103D90007065656400000000546700200460002026
:103DA00025366400F47F002052616D7020647572C6
:103DB0006174696F6E000000457865630000000063
:103DC0006D5E0308504944204761696E730000002E
:103DD0004B5000004B4900004B44000019530308AE
:103DE00004610020466C757820776C2E2074756E07
:103DF000696E67004255538000000000253464005E
:103E000020632946254803F092F82448039903F0DB
:103E10008EF85146214803F08AF82048616A03F081
:103E200086F81E48A16A03F082F80021A06A02F019
:103E3000F6FF4946194803F07AF84146174803F05F
:103E400076F81648E16A03F072F81448216B03F023
:103E50006EF84FF47A720021606A02F093FE47F622
:103E6000FF752A460021E06A02F08CFE2A460021F6
:103E7000206B02F087FE616A09484862E16A486285
:103E8000216B4862A16906484862E16948620BB04B
:103E90000248BDE8F04F03F0DEB80000B464002033
:103EA000195303082DE9F04F8BB0282004F010FAC5
:103EB00000210B460091FE4AFEA104F0CDF90390CB
:103EC000282004F005FA87210091E623F84AFEA194
:103ED00004F0C2F90490282004F0FAF90A23DFF86C
:103EE000D083CDE900834FF0140ACDF808A05A23FF
:103EF0009122F7A104F010F90746282004F0E8F910
:103F00000F21009105233A46F4A104F0A5F9F54CE0
:103F10006063382004F0DCF91E2105220097CDE90A
:103F20000121A4F1800508F502762978062306EB25
:103F300081111431ECA202F053FEA063282004F09A
:103F4000C7F90F21009150233A46E8A104F084F903
:103F50000590382004F0BCF91E2150220097CDE9CD
:103F600001212978062306EB81111631DEA202F029
:103F700037FEE063282004F0ABF9322100910523DD
:103F80003A46DBA104F068F92064382004F0A0F977
:103F9000412105220097CDE901212978062306EB6E
:103FA00081111831D0A202F01BFE6064282004F0B9
:103FB0008FF93221009150233A46CFA104F04CF9F9
:103FC0000690382004F084F9412150220097CDE971
:103FD00001212978062306EB81111A31C2A202F0D1
:103FE000FFFDA064282004F073F9844673200A22A0
:103FF000CDF80080CDE901204B236822BFA16046A7
:1040000004F08AF88146282004F062F90A234A461F
:10401000BEA1CDF800A004F01FF90790382004F0ED
:1040200057F94FF0280BCDE9009B8446CDF808A046
:104030002878062306EB80111C31ABA2604602F003
:10404000CFFDE064282004F043F9232100910A23E6
:104050004A46AFA104F000F90890382004F038F97E
:104060002321CDF80090CDE901B1844628780623BC
:1040700006EB80111E319CA2604602F0B1FD206566
:10408000282004F025F9844673207822CDF800809A
:10409000CDE901204B2368229EA1604604F03CF844
:1040A0008046282004F014F90A23424697A1CDF84F
:1040B00000A004F0D1F80990382004F009F9CDE906
:1040C000008B8446CDF808A02878062306EB8011E3
:1040D000223185A2604602F083FDE065282004F0CD
:1040E000F7F8232100910A23424689A104F0B4F88D
:1040F0000A90382004F0ECF82321CDF80080CDE9B7
:1041000001B184462878062306EB8011243176A27B
:10411000604602F065FD2066302004F0D9F8732176
:104120000091E623624A7FA103F026F9E066382079
:1041300004F0CEF896210091E6235D4A7B4903F016
:104140009FFF206700F062FE5948039902F0EFFEDE
:104150005748049902F0EBFE3946554802F0E7FE55
:104160005348616B02F0E3FE5148A16B02F0DFFEA1
:104170004F48059902F0DBFE4D48E16B02F0D7FE97
:104180000021E06B02F04BFE4948216C02F0CFFEAB
:104190004748616C02F0CBFE4548069902F0C7FE25
:1041A0004348A16C02F0C3FE0021A06C02F037FE70
:1041B00004F1800081693E4802F0B9FE04F18000FC
:1041C000C1693B4802F0B3FE04F18000016A38483F
:1041D00002F0ADFE04F18000816A354802F0A7FECE
:1041E00004F180000021006A02F019FE04F1800051
:1041F000416A2F4802F09BFE287800EB400106F14F
:10420000800000EB810049460779294802F08FFEC3
:104210002748079902F08BFE2548E16C02F087FEE3
:104220002348089902F083FE2148216D02F07FFEA9
:10423000E16C3F484862216D3E4848623E48006854
:10424000016904F18000C06A884740072DD5282005
:1042500004F03EF84FF0320A0A234A4637A1CDF85F
:1042600000A003F0F9FF6065382004F031F8CDE9D3
:10427000009BCDF808A02978062306EB8111203198
:1042800019A202F0ADFCA0650948616D02F04FFE75
:104290000748A16D02F04BFE47F6FF720021A06DAA
:1042A00002F070FCA16D2648486247F6FF7A49E0AB
:1042B0005C65002043757272656E7420636F6E7466
:1042C000726F6C6C65727300496E707574000000DB
:1042D00053657420706F696E7473000049712072A9
:1042E00065662E0084600020253664004971000058
:1042F0004964207265662E004964000049712050AF
:104300004944204761696E73000000004B50000073
:104310004B490000496420504944204761696E734D
:10432000000000004C696E6B00000000CCB3030875
:104330009D54030859540308F47F00204B440000A7
:104340001154030852460021E06C02F01BFC524657
:104350000021206D02F016FC41465D4802F0E7FDA9
:104360005B48099902F0E3FD5948E16D02F0DFFD79
:1043700057480A9902F0DBFD5548216E02F0D7FD3F
:104380005448006801695448C06A8847DFF84C9176
:10439000000733D5282003F09BFF32210A23424631
:1043A0000091AFF2680103F057FF6066382003F018
:1043B0008FFF3221CDF80080CDE901B1297806EBDD
:1043C000811126310623AFF2E00202F009FCA0665B
:1043D0003F48616E02F0ABFD3D48A16E02F0A7FDC3
:1043E00052460021A06E02F0CDFB002F55D00021D7
:1043F000A06E02F014FDA16EC1F8249056465246FC
:104400000021E06D02F0BEFB32460021206E02F07A
:10441000B9FB2F48E16E02F08AFD2D48216F02F0B2
:1044200086FDA84628782E4D00EB400005EB800065
:10443000C178206F03F0E9FC01F0B0FDE66E726A0E
:104440002AB196F8210010B139463046904786F8D7
:104450002C7027B30021E06D02F0E1FC0FB30021C6
:10446000206E02F0DCFC216F1E484862E16E1E489F
:104470004862A06B1D494162626C1D495162E26D48
:10448000C2F82490226EC2F8249098F8001001EB34
:10449000410115F8211031B114E00121A8E70121F3
:1044A000D9E70121DCE7002102F0B9FC09480068E6
:1044B00001690948C06A8847800603D40021606CFE
:1044C00002F0ADFC0BB00248BDE8F04F02F0C3BDF6
:1044D0005C650020F47F002004610020195303086C
:1044E000E4670020D5640308615303088D5803086E
:1044F000BD5603082DE9F04FFF48DFF8008487B070
:10450000006800250169D8F82C0088470646092074
:104510000024B0EB167F09D1282003F0D9FE002338
:10452000F74AF8A1009403F097FE0546C6F303602E
:10453000092809D1282003F0CBFE0023F04AF8A176
:10454000009403F089FE054670064FF028000AD556
:1045500003F0BEFEEA4914230A228DE80E005A2316
:104560009122F8A109E003F0B3FEE54914230A22E1
:104570008DE80E005A239122F5A103F0CDFD0446EB
:10458000282003F0A5FE0F21009105232246F1A16A
:1045900003F062FE0390382003F09AFE1E210522EC
:1045A0000094DFF8B8B3CDE90121DFF8AC939BF8B4
:1045B0000020062309EB82112831E9A202F010FB4A
:1045C0000BF1800A5746CAF87400282003F080FED9
:1045D0000F21009150232246E2A103F03DFE0490FA
:1045E000382003F075FE1E2250210094CDE90112FF
:1045F0009BF80020062309EB82112A31D8A202F091
:10460000EFFAB86700F002FC2946BD4802F08FFCC3
:104610002146BB4802F08BFCB948039902F087FCA5
:10462000B748796F02F083FCB548049902F07FFC2B
:10463000B348B96F02F07BFC70065BD5282003F00D
:1046400047FE3221009105232246C7A103F004FE54
:104650000390382003F03CFE0521CDE900414127BD
:1046600002979BF80020062309EB82113031BCA28F
:1046700002F0B6FA554647F6FF720021CAF87C00F0
:1046800002F080FA282003F023FE3221009150230B
:104690002246B7A103F0E0FD0490382003F018FE95
:1046A0005021CDE9004102979BF80020062309EB39
:1046B00082113231AAA202F093FA444647F6FF7201
:1046C0000021C8F8000002F05DFA8D48039902F05D
:1046D0002EFC8B48E96F02F02AFC8948049902F00D
:1046E00026FC8748216802F022FCE96FA248486254
:1046F0002168486244468248D8F8181002F017FC36
:104700007F48E16902F013FC7D48216A02F00FFC4A
:104710007B48A16A02F00BFC0021206A02F07FFBBB
:104720007748616A02F003FC0920B0EB167F7DD167
:10473000282003F0CDFD724973230A228DE80E0074
:104740004B2340F227128DA103F0E6FC05462820FA
:1047500003F0BEFD4FF014080A232A468BA1CDF8C2
:10476000008003F079FD0390382003F0B1FD502262
:10477000CDE90052CDF808809BF800104E4609EBB9
:1047800081115F463431062375A202F029FA47F6FB
:10479000FF720021606002F0F5F9282003F098FD17
:1047A0004FF023090A232A467BA1CDF8009003F09D
:1047B00053FD8346382003F08BFD5022CDE9005293
:1047C000CDF808903978062306EB8111363164A2C2
:1047D00002F006FAA060282003F07AFD3221009151
:1047E0000A232A466EA103F037FD0490382003F017
:1047F0006FFD322150220095CDE901213978062341
:1048000006EB8111383156A202F0EAF9E060282067
:1048100003F05EFDB4232A4663A1CDF8008003F0C7
:104820001BFD0590382003F053FD00E0D9E0E6229F
:10483000CDE90052CDF808803978032306EB8111C9
:104840003A315BA202F0CCF920612B4822210068AA
:104850000268E06A9047421E0021206902F092F946
:10486000282003F035FD8C232A4652A1CDF8008084
:1048700003F0F2FC0190282003F02AFD8C232A4645
:104880004DA1CDF8009003F0E7FC3978804606EBA7
:10489000811090F83A20E06A00F022FE2169474832
:1048A0004862616846484862A16846484862E168D3
:1048B000454848621248019902F039FB41461048C8
:1048C00002F035FB29460E4802F031FB0C480399F3
:1048D00002F02DFB0A48616802F029FB594608489E
:1048E00002F025FB0648A16802F021FB0448049968
:1048F00002F01DFB024869E0F47F00200461002003
:104900000466002053656E736F726C657373207458
:10491000756E696E672053544F202620504C4C0012
:1049200053656E736F726C6573732074756E696E08
:10493000672053544F202620504C4C202841757836
:104940002900000053544F202620504C4C000000FA
:1049500053544F004731000064670020046000207A
:104960002536640047320000504C4C204B5000006C
:10497000504C4C204B4900001953030852657620D7
:1049800075702074756E696E670000004475726101
:1049900074696F6E00000000456E642073706400DF
:1049A000456E642049710000537461676500000022
:1049B000253364006D73000072706D00D9630308C5
:1049C000AD640308056503082D650308E16802F07E
:1049D000AEFA0A48059902F0AAFA0848216902F0DD
:1049E000A6FADAF8742006485062DAF878104862BD
:1049F00007B00248BDE8F04F02F02DBB046600206E
:104A0000195303082DE9F04FD14887B000240068FE
:104A10000169D048C06A884706460A250027B5EBD9
:104A2000167F09D1282003F053FC0023CA4ACBA1EA
:104A3000009703F011FC0446C6F303600A2809D16D
:104A4000282003F045FC0023C34ACCA1009703F0C3
:104A500003FC0446282003F03BFCBF4BCDE90035A6
:104A600014210291AA465A239122CEA103F054FBAD
:104A70000546282003F02CFC4FF00F0805232A469A
:104A8000C9A1CDF8008003F0E7FB8146382003F090
:104A90001FFC1E2105220095CDE90121C349DFF845
:104AA000B8B2062309780BF1B80B0BEB81112C314E
:104AB000BFA202F095F8A74F803F7867282003F047
:104AC00007FC50232A46BBA1CDF8008003F0C4FBAD
:104AD0008046382003F0FCFB1E2150220095CDE9D2
:104AE0000121B2490623B2A209780BEB81112E31C4
:104AF00002F076F8B86700F089F92146964802F08E
:104B000016FA2946944802F012FA4946924802F0F1
:104B10000EFA9148796F02F00AFA41468E4802F087
:104B200006FA8D48B96F02F002FA8A4C8A48A169E8
:104B300002F0FDF98848E16902F0F9F98648216A36
:104B400002F0F5F98448A16A02F0F1F90021206A27
:104B500002F065F98048616A02F0E9F9BAEB167F64
:104B60007ED1282003F0B4FB7B4900917323CDE96B
:104B700001A34B2340F227128FA103F0CDFA054683
:104B8000282003F0A5FB4FF014080A232A468EA123
:104B9000CDF8008003F060FB0390382003F098FB11
:104BA0004FF05009CDE90059803FCDF808803978A1
:104BB0005E460BEB8111343106237DA202F010F822
:104BC00047F6FF720021606001F0DCFF282003F04F
:104BD0007FFB4FF0230A0A232A467EA1CDF800A0CE
:104BE00003F03AFB0490382003F072FB8DE82006B6
:104BF0003978062306EB811136316DA201F0F0FF02
:104C0000A060282003F064FB4FF0320B0A232A46F1
:104C100072A1CDF800B003F01FFB0590382003F01F
:104C200057FB8DE8200A3978062306EB81113831CD
:104C30005FA201F0D5FFE060282003F049FBB42318
:104C40002A4668A1CDF8008003F006FB8346382091
:104C500003F03EFBE622CDE90052CDF8088000E0EB
:104C600069E03978032306EB81113A315FA201F044
:104C7000B7FF20613648222100680268E06A904749
:104C8000421E0021206901F07DFF282003F020FB57
:104C90008C232A4656A1CDF8008003F0DDFA814628
:104CA000282003F015FB8C232A4652A1CDF800A042
:104CB00003F0D2FA3978804606EB811090F83A205A
:104CC000E06A00F00DFC21694B48486260684B497E
:104CD0004162A0684A494162E0684A4941624946E6
:104CE0001D4802F024F941461B4802F020F92946EC
:104CF000194802F01CF91848039902F018F91648EF
:104D0000616802F014F91448049902F010F912488D
:104D1000A16802F00CF91048059902F008F90E4854
:104D2000E16802F004F959460B4802F000F90A481C
:104D3000216902F0FCF8074833498038426F51621C
:104D4000806F416207B00448BDE8F04F02F083B9BC
:104D5000F47F002004610020AC66002053656E7370
:104D60006F726C6573732074756E696E672053542F
:104D70004F202620434F52444943000053656E7331
:104D80006F726C6573732074756E696E672053540F
:104D90004F202620434F524449432028417578290B
:104DA0000000000053544F00473100000460002011
:104DB00025366400473200005265762075702074F5
:104DC000756E696E670000004475726174696F6E7C
:104DD00000000000456E642073706400456E64201E
:104DE0004971000053746167650000002533640059
:104DF0006D73000072706D00D9630308AD64030821
:104E0000056503082D650308195303083EB52820DE
:104E100003F05EFAA0232249CDE900131422029286
:104E20005A2391221FA103F077F9204CA06128207A
:104E300003F04EFA0F21009105231DA1A26903F092
:104E40000BFAE061402003F043FAA2690521CDE9A5
:104E500000211E25A4F580720295194912780623B7
:104E600001EBC201091D17A202F060FB2062302095
:104E700003F02EFA41210091052313A1A26901F04C
:104E8000A7FC6062282003F023FA00953C2311A1BF
:104E9000A26903F0E1F9A062616A0F4848623EBD71
:104EA000D06100204D6F6E69746F72000461002044
:104EB0004D6561737572656420737065656400008B
:104EC000546700202536640053746172742F537444
:104ED0006F70000072706D00F151030870B53149B8
:104EE0000024096809698847010E0E074FF009017F
:104EF0004FF00A024FF002034FF001050ED0B1EB64
:104F0000107F03D1C0F303660A2E17D0B2EB107FD7
:104F100015D1C0F30366092E10D010E0B1EB107F5D
:104F200000D10124B2EB107F00D10224B5EB107F39
:104F300002D0B3EB107F33D1032431E00624B1EB70
:104F4000107F05D1C0F3036102290BD0012909D0DC
:104F5000C0F30361092906D1B3EB107F02D0B5EB92
:104F6000107F00D10424B2EB107F05D1C0F30361A0
:104F700002290BD0012909D0C0F303610A2906D107
:104F8000B3EB107F02D0B5EB107F00D105240B21CD
:104F9000B1EB107F04D1C0F30360092800D10724CE
:104FA000204670BDF47F002010B5324802F021F891
:104FB0003048A83002F01DF82F4802F01AF82E48A9
:104FC000A83002F016F82D4802F013F82B48A8304C
:104FD00002F00FF82A4802F00CF82A490020C860B5
:104FE000086148618861C861086248628862C86275
:104FF000086348638863C863086448648864C86455
:10500000086548658865C865086648668866C86634
:10501000086748678867C8678031086048608860AB
:10502000C860086148618861C86108624862886236
:10503000C862086348638863C86308644864886416
:10504000C864086548658865C865086648668866F6
:10505000C866086748678867C86780310860486025
:105060008860C860086148618861C86108624862F8
:10507000886210BDBC6200200C6400205C650020CA
:10508000AC6600200460002010B50748074902788C
:105090000748521CFBF740F90549BDE8104001F1F3
:1050A000200002F0AABA000004600020FCB303084C
:1050B0008C610020034807210068C2680248C06A6A
:1050C00010470000F47F00200461002010B50C465A
:1050D000FFF76AFF072C23D2DFE804F004070A1762
:1050E0001A1D2000FDF7F4FC04E0FDF7D7FD01E0F8
:1050F000FEF7AAF80C4B986801F02CFA9968BDE805
:1051000010400144094802F078BAFEF721FC07E09C
:10511000FEF7C8FE04E0FFF7EDF901E0FFF772FCCF
:10512000BDE81040FFF7B0BF04600020AC61002074
:105130002DE9F047814617480E46144FDFF850809E
:10514000002400EB8615395D662908D0D8F80000E8
:10515000026848469047411C01D025F81400641CA1
:10516000E4B2202CEFD3D8F80000042102684846AE
:1051700090470849103941F8360095F83A203146F1
:105180004846BDE8F04700F0ABB90000D8B30308CB
:10519000F47F00206467002070B5134C134D00218C
:1051A00020680268E86A9047C6B22068002211466B
:1051B0008368E86A984720680621C268E86A9047D1
:1051C0002068012200218368E86A98472068062148
:1051D000C268E86A90472068324600218368E86A1E
:1051E000BDE8704018470000F47F002004610020F3
:1051F0002DE9F047414A424F424DA7F1800C2DED79
:10520000068B02F5807411782B6801EB41060CEBDC
:10521000811017F82680B8F1000F06D007EB860141
:10522000C97859B1012960D10EE0828834485B68A1
:10523000903850F83110E06A984756E0B0F91820DD
:10524000B0F914101B6A4EE0E1469046B0F93E00FA
:1052500004F0D3F99FED2C8B53EC182B04F0F8F9E4
:105260009FED2B9B53EC192B04F040F841EC100BF5
:1052700003F0CEF998F80010B0EE40AA09EB8117C0
:10528000F0EE60AAB7F93C0004F0B7F953EC1A2B22
:1052900004F0DEF904F082F906B2B7F93E0004F03A
:1052A000ACF953EC182B04F0D3F953EC192B04F0A0
:1052B0001DF841EC100B03F017FA98F80010B0EE4F
:1052C000408A09EB8110F0EE608AB0F93C0004F0EE
:1052D00094F953EC182B04F0BBF904F05FF901B218
:1052E00028683246036AE06A984728680621C2683F
:1052F000E06ABDEC068BBDE8F04710470460002073
:10530000E4670020F47F00201F85EB51B81E0940A0
:1053100000000000008066400D4B0C4A806A1B783C
:1053200002EB8312801A0B4A400852FA80F31B7872
:10533000662B09D0C0B2105C074A126893680A460F
:1053400001460648C06A184770470000646700209D
:1053500004600020D8B30308F47F0020046100201B
:105360002DE9F041284E11F0FF052849307800EB77
:10537000400001EB8000057140D00021224C8034B8
:10538000E06D01F04CFDC5B30021206E01F047FD3A
:10539000FDB11E4F3078803F07EB8010B0F91C1034
:1053A0004184C28B8284028CC284E06D01F0CEFA0B
:1053B000307807EB8010B0F92410206E01F0C6FAA7
:1053C000A06E30B1317807EB8111B1F9261001F0F0
:1053D000BDFAE06D012680F82060206E80F8206024
:1053E000A06E002807D06DB15FF0000101F017FD3D
:1053F000A06E80F82060BDE8F08101E00121BDE7EA
:105400000121C2E70121F1E704600020E4670020E8
:1054100070B50D46FFF780FF0D480E4A017801EB8D
:10542000410002EB8000007900280FD0084C803446
:10543000A06E00280AD0803A02EB8111CD84294663
:1054400001F0AAFAA06E012180F8201070BD0000C2
:1054500004600020E467002010B50C46FFF75CFFF5
:105460000C480D4A007800EB400102EB81010979FC
:1054700000290ED0A2F1800101EB80102146848426
:10548000044C8034206E01F087FA206E012180F8F0
:10549000201010BD04600020E467002010B50C4609
:1054A000FFF73AFF0C480D4A007800EB400102EB91
:1054B0008101097900290ED0A2F1800101EB801051
:1054C00021464484044C8034E06D01F065FAE06DBF
:1054D000012180F8201010BD04600020E467002046
:1054E000F8B51546094A02EB8114094904F138025E
:1054F00000920968931E121F8E692946B047E08EFC
:1055000000EB40004000E086F8BD0000646700202A
:10551000F47F002038B51546094A062302EB8112B4
:10552000B2F9361091FBF3F10BB2B2F938100091D9
:105530000449928E09684C692946A04738BD00008D
:1055400064670020F47F002070B50D4C0D4D0021E4
:1055500020680268E86A9047C6B2206800221146B7
:105560008368E86A984720680721C268E86A90471C
:105570002068324600218368E86ABDE87040184719
:10558000F47F00200461002070B50D4C0D4D00210A
:1055900020680268E86A9047C6B2206801220021AC
:1055A0008368E86A984720680721C268E86A9047DC
:1055B0002068324600218368E86ABDE870401847D9
:1055C000F47F0020046100202DE9F041164A0546D1
:1055D00010461649007802F5807400EB400001EB9C
:1055E00080015369124E134FE06A9D420BD193F82C
:1055F00030504D70FFF772FC56F820000021425DDC
:105600003868C3690BE0926992F830508D70FFF7EB
:1056100065FC56F820000121425D3868C369206BA3
:10562000BDE8F0411847000004600020E467002056
:10563000ACB30308F47F0020034808210068C26867
:105640000248C06A10470000F47F00200461002077
:105650002DE9F041164C174D002120680268E86AD8
:105660009047C6B22068002211468368E86A9847CE
:10567000114F2068A7F11008BA884368D8F80010C5
:10568000E86A98472068012200218368E86A984701
:105690002068B7F84420D8F808104368E86A9847AB
:1056A0002068324600218368E86ABDE8F041184767
:1056B000F47F002004610020646700202DE9F0479A
:1056C0006B4C6C49DFF8B091A1F180052DED068B94
:1056D00004F58076207800EB400201EB820305EBB5
:1056E0008010DB78002B7CD0012B7BD1B0F93E0001
:1056F00003F083FF9FED618B53EC182B03F0A8FFA1
:105700009FED609B53EC192B03F0F0FD41EC100B67
:1057100002F07EFF2078B0EE40AA05EB8017F0EE95
:1057200060AAB7F93C0003F068FF53EC1A2B03F0B2
:105730008FFF03F033FF0FFA80F8B7F93E0003F054
:105740005CFF53EC182B03F083FF53EC192B03F091
:10575000CDFD41EC100B02F0C7FF2078B0EE40AA5F
:1057600005EB8010F0EE60AAB0F93C0003F045FFB5
:1057700053EC1A2B03F06CFF03F010FF01B2D9F8C1
:1057800000004246036AF06A9847207805EB8010D3
:10579000B0F93E0003F031FF53EC182B03F058FF33
:1057A00053EC192B03F0A2FD41EC100B02F09CFF0F
:1057B0002078B0EE40AA05EB8016F0EE60AAB6F9AC
:1057C0003C0003F01AFF53EC1A2B03F041FF03F0E7
:1057D000E5FEB082B6F93E0003F00FFF53EC182B44
:1057E00001E020E01BE003F033FF53EC192B03F042
:1057F0007DFD41EC100B02F00BFF2078B0EE408AEB
:1058000005EB8014F0EE608AB4F93C0003F0F5FE7D
:1058100053EC182B03F01CFF03F0C0FE2083BDECFB
:10582000068BBDE8F08711F82210134A136851B1B6
:10583000B0F91820B0F914101B6AF06ABDEC068BA1
:10584000BDE8F047184719694F46F06A8847800657
:10585000E5D52078412105EB8010B0F91820386893
:105860008368F06ABDEC068BBDE8F047184700007E
:1058700004600020E4670020F47F00201F85EB51C6
:10588000B81E094000000000008066402DE9F04786
:10589000604D614ADFF88481A2F180042DED068B12
:1058A00005F58079287800EB400102EB810104EBDB
:1058B0008010C97800297CD001297BD1B0F93E0045
:1058C00003F09BFE9FED568B53EC182B03F0C0FEAC
:1058D0009FED559B53EC192B03F008FD41EC100B89
:1058E00002F096FE2878B0EE40AA04EB8017F0EEA6
:1058F00060AAB7F93C0003F080FE53EC1A2B03F0CA
:10590000A7FE03F04BFE06B2B7F93E0003F075FEAA
:1059100053EC182B03F09CFE53EC192B03F0E6FC20
:1059200041EC100B02F0E0FE2878B0EE40AA04EB48
:105930008010F0EE60AAB0F93C0003F05EFE53EC7C
:105940001A2B03F085FE03F029FE01B2D8F80000FF
:105950003246036AD9F82C009847287804EB801067
:10596000B0F93E0003F049FE53EC182B03F070FE33
:1059700053EC192B03F0BAFC41EC100B02F0B4FE0F
:105980002878B0EE40AA04EB8016F0EE60AAB6F9D3
:105990003C0003F032FE53EC1A2B03F059FE03F0E7
:1059A000FDFDB082B6F93E0003F027FE53EC182B44
:1059B00001E020E01BE003F04BFE53EC192B03F059
:1059C00095FC41EC100B02F023FE2878B0EE408AE3
:1059D00004EB8014F0EE608AB4F93C0003F00DFE95
:1059E00053EC182B03F034FE03F0D8FD2083BDECFC
:1059F000068BBDE8F087B0F91820B0F91410D8F87C
:105A00000000036AD9F82C00BDEC068BBDE8F04716
:105A10001847000004600020E4670020F47F0020A5
:105A20001F85EB51B81E0940000000000080664051
:105A30002DE9F041404C414D00212DED068B2068B1
:105A40000268E86A904700F0FF08206800221146CB
:105A50008368E86A98473A48A0F18006017821B146
:105A6000C07858B1012857D10FE03548B288903836
:105A7000016820684368E86A98474DE02068B6F9F5
:105A80001820B6F91410036A44E0B6F93E0003F09A
:105A9000B4FD9FED2C8B53EC182B03F0D9FD9FED3B
:105AA0002B9B53EC192B03F021FC41EC100B02F063
:105AB000AFFDB0EE40AAF0EE60AAB6F93C0003F0EC
:105AC0009CFD53EC1A2B03F0C3FD03F067FD07B2F6
:105AD000B6F93E0003F091FD53EC182B03F0B8FD2E
